:020000040800F2
:1000000038490020CDDF000895020008970200085B
:100010009B0200089F020008A302000800000000E5
:10002000000000000000000000000000A70200081F
:10003000A902000800000000AB020008AD020008A1
:10004000E7DF0008E7DF0008E7DF0008E7DF000878
:10005000E7DF0008E7DF0008E7DF0008E7DF000868
:10006000E7DF0008E7DF0008E7DF0008E7DF000858
:10007000E7DF0008E7DF0008E7DF0008F9B0000865
:10008000E7DF0008E7DF0008E7DF000803A7000854
:1000900019A70008E7DF0008E7DF0008E7DF00082E
:1000A000E7DF0008E7DF0008E7DF0008E7DF000818
:1000B000E7DF0008E7DF0008E7DF0008E7DF000808
:1000C000E7DF0008E7DF0008E7DF0008E7DF0008F8
:1000D000E7DF00085BAA000891AC000885AE0008C5
:1000E000E7DF0008E7DF0008E7DF0008E7DF0008D8
:1000F000E7DF0008E7DF0008E7DF0008E7DF0008C8
:10010000E7DF0008E7DF0008E7DF0008E7DF0008B7
:1001100083B000089DB3000843B70008E7DF00087C
:10012000E7DF0008E7DF0008E7DF0008E7DF000897
:10013000E7DF0008E7DF0008E7DF000853A8000852
:1001400069A80008E7DF0008E7DF0008E7DF00082C
:10015000E7DF0008E7DF0008E7DF000873B6000804
:10016000E7DF0008E7DF0008E7DF0008E7DF000857
:10017000E7DF0008E7DF0008E7DF0008E7DF000847
:10018000E7DF0008E7DF000800F002F800F06DF894
:100190000AA090E8000C82448344AAF10107DA45E2
:1001A00001D100F062F8AFF2090EBAE80F0013F0C7
:1001B000010F18BFFB1A43F0010318470C8A010016
:1001C0002C8A01000A444FF0000C10F8013B13F098
:1001D000070408BF10F8014B1D1108BF10F8015BA0
:1001E000641E05D010F8016B641E01F8016BF9D193
:1001F00013F0080F1EBF10F8014BAD1C0C1B09D1EA
:100200006D1E58BF01F801CBFAD505E014F8016B5B
:1002100001F8016B6D1EF9D59142D6D370470000ED
:100220000023002400250026103A28BF78C1FBD8FF
:10023000520728BF30C148BF0B607047662917F0CE
:100240002C87002070471FB517F077FE9DE803004C
:1002500013F0F0FF14F0BEFA04000020002116F0A5
:1002600023FFE0601FBD10B510BD14F0DCFB11468C
:10027000FFF7E9FF00F008F814F0FAFB03B4FFF70A
:10028000F2FF03BC14F09CFA00F01AF900F0BFFA78
:1002900000BFFEE7704700BFFEE700BFFEE700BFFC
:1002A000FEE700BFFEE770477047704770470000E9
:1002B0000CB50020019000907648006840F4803032
:1002C0007449086000BF7348006800F40030009073
:1002D0000198401C0190009818B90198B0F5A06FE2
:1002E000F1D16C48006800F4003010B1012000909A
:1002F00001E0002000900098012846D16548403078
:10030000006840F0805063494031086062480068EE
:1003100040F44040604908605E48083000685D492C
:10032000083108600846006840F40040086008464C
:10033000006840F4A05008605848091F0860081F72
:10034000006840F08070091F086000BF51480068D5
:1003500000F000700028F9D040F2057050490860A4
:100360004C480830006820F003004A490831086012
:100370000846006840F00200086000BF45480830A9
:10038000006800F00C000828F8D10CBD10B54548F5
:10039000006840F47000434908603E48006840F03F
:1003A00001003C49086000203A490831086039489A
:1003B00000683D490840374908603C48091D08600D
:1003C000081F006820F48020091F086000203149C0
:1003D0000C310860FFF76CFF4FF000603149803945
:1003E000086010BD70B50020002202230024022105
:1003F000284D08352D6805F00C0020B1042806D0E2
:10040000082834D107E02A4D2A4E356033E02A4DC2
:10041000284E35602FE01F4D2D1D2D68C5F38054EB
:100420001C4D2D1D2D6805F03F0154B1224DB5FB2B
:10043000F1F5184E361D3668C6F3881605FB06F230
:1004400009E01B4DB5FBF1F5124E361D3668C6F3BB
:10045000881605FB06F20F4D2D1D2D68C5F30145CD
:100460006D1C6B00B2FBF3F5124E356003E0104DCE
:10047000104E356000BF00BF064D08352D68C5F32E
:1004800003150E4E705D0B4D2D68C540094E35604D
:1004900070BD000000380240007000400854400762
:1004A000003C024088ED00E0FFFFF6FE1030002423
:1004B0000024F4000000002000127A000400002054
:1004C00010B54FF4A0600BF051F90AF0EFF94A486B
:1004D0000AF02EFA4FF4E1300AF01FFB4FF46120CE
:1004E0000AF046FC4FF4E1300AF0F4FC4FF4E1303E
:1004F0000AF036FE0BF01EF80023032208211046F6
:100500000AF08CF800230322082110460AF01FF994
:100510000BF0E6F810BD10B52DED088BB0EE409A4B
:10052000F0EE609AB0EE418A9FED341BB0EE490ABE
:10053000F0EE690A15F0BEF9B0EE40AAF0EE60AA3E
:1005400051EC1A0B16F0D2FD08EE100AB5EEC08A77
:10055000F1EE10FA11D218EE100A17F07DFC41EC02
:100560001B0B9FED260B53EC102B16F0F1FD41EC0D
:100570001A0B16F0BBFD08EE100AB0EE480ABDECEF
:10058000088B10BD10B52DED088BB0EE409AF0EE43
:10059000609AF0EE418AB0EE481AB0EE490AF0EEE9
:1005A000690AFFF7B8FFB0EE408A18EE100A17F09C
:1005B00053FC41EC1A0B9FED130B53EC102B17F06F
:1005C00053FA12D218EE100A17F046FC41EC1B0B3E
:1005D0009FED0A0B53EC102B17F054FB41EC1A0B58
:1005E00016F084FD08EE900A01E0F0EE488AB0EEC5
:1005F000680ABDEC088B10BDA08601000000000059
:1006000000807640000000000080664010B52DEDAF
:10061000028B8AB082480068401C81490860814989
:100620008148D0ED000A814890ED000A804802F030
:1006300094F87B490868C11700EB91718910A0EB11
:10064000810101294AD17B4890ED020A10EE101A6F
:10065000084617F001FC41EC180B7748C07B77493E
:1006600091F83810754A92F84320C2F34002734B58
:1006700093F84130CDE90632CDE908106F48B0F863
:100680004C006E49896C00EE101ABDEEC00A10EEE7
:10069000101A09B2684AB2F91420674BB3F9103046
:1006A000CDE90232CDE904106348B0F91200614986
:1006B00091ED010ABDEEC00A10EE101A09B25E4CAF
:1006C000CDE90010237BA27B94F844105C4CA07E03
:1006D000B0EE480AF0EE680A07F0A2FD5048006844
:1006E000462190FBF1F201FB120018B90121554897
:1006F00009F029FD4A4800684FF4487190FBF1F277
:1007000001FB120028B9FC234A4A01214D4809F097
:100710006AFF4349086800EBD0714910A0EB410122
:1007200019B903F0EBF803F06FF93D4800680321B5
:1007300090FBF1F201FB120018B901F0D8FC06F0B1
:1007400085FE37480068052190FBF1F201FB12009D
:1007500090BB3D4890F8360001282ED13B4890EDE3
:10076000010A10EE101A084617F076FB41EC180B40
:10077000374890ED001AB0EE480AF0EE680AFFF72D
:1007800001FF334880ED000A2F4A11782B4A92F876
:1007900037002E4A92ED020AB0EE401A92ED000A9E
:1007A000B1EE400AF0EE400A2A4AF3EE0B1A284B4B
:1007B00093ED000A07F091FE1AE0234A11781F4AD0
:1007C00092F83700214AD2ED021AB0EE611AD2ED4A
:1007D000001AF1EE611AF0EE610AD2ED011AF1EEA3
:1007E000611AB0EE610A1B4AF3EE0B1A07F075FEB0
:1007F0000B480068642190FBF1F201FB1200012814
:1008000001D107F062FF0AB0BDEC028B10BD10B53C
:1008100000F022F802F01EF903F086F810BD000087
:1008200014000020E43000204C000020480000208C
:10083000A4000020382F0020CC0B0020982F00208F
:10084000543000200068004074040020502500202F
:1008500018000020D93B002010B54FF4EB61FE4892
:1008600013F060FC9FEDFD1ADFEDFC0A9FEDFC0A22
:100870000A234FF416720321FA4803F038FDB2EE52
:10088000001ADFEDF90AB3EE020A04234FF4FA72FC
:100890000321F148843003F02AFD9FEDF41ADFEDC7
:1008A000F40A9FEDF40A44F6206346F67812032119
:1008B000F14803F01CFDB3EE041ADFEDF00AB2EECE
:1008C000040A0A234FF416720321E348383003F078
:1008D0000EFD9FEDE21ADFEDEA0A9FEDEA0A002322
:1008E00004220321E4484C3803F001FD9FEDDB1A9C
:1008F000DFEDDA0AB1EE040A0823C8220321DE483C
:10090000983003F0F4FC9FEDD51ADFEDD90A9FED86
:10091000DE0A4FF4FA6346F2A8120321DB4803F023
:10092000E6FC9FEDCE1ADFEDD00AB1EE040A0A23F1
:100930004FF416720321D0484C3003F0D8FC9FEDE1
:10094000D41ADFEDCF0A9FEDD30A0023042203213E
:10095000CE484C3803F0CBFC9FEDCF1ADFEDC20A36
:10096000B2EE0E0A0A23C8220321CC4803F0BFFCD2
:100970009FEDBA1ADFEDBE0A9FEDBE0A46F2A8133C
:1009800046F678120321C5484C3003F0B0FC9FEDC9
:10099000B31ADFEDB20A9FEDB90A00230422032146
:1009A000BE484C3803F0A3FC9FEDAC1ADFEDAB0A58
:1009B0009FEDB20A002304220321B848983003F0C7
:1009C00096FC9FEDA61ADFEDA50AB3EE000A0823F8
:1009D000C8220321AD48983003F089FC9FED9F1A8F
:1009E000DFEDA30A9FEDAE0A4FF4FA6346F2A812B8
:1009F0000321AC4803F07BFC9FED981ADFED970ACA
:100A00009FED960A002304220321A0484C3003F0F6
:100A10006EFC9FED921ADFED910A9FED900A002384
:100A2000042203219F484C3803F061FCB1EE041A04
:100A3000DFED9D0AB2EE080A1423462203219948ED
:100A4000983003F054FC9FED851AF1EE0C0A9FEDEF
:100A5000970A44F6206346F2A81203218F48E4382F
:100A600003F045FC9FED7D1ADFED7C0A9FED7B0ACC
:100A70000023042203218B484C3003F038FC9FED07
:100A8000771ADFED760A9FED750A46F2A813042265
:100A900003218248983803F02AFCB1EE041ADFEDF6
:100AA000820AB3EE020A0A23C8220321804803F017
:100AB0001EFC9FED6A1AF2EE000A9FED6E0A46F2E6
:100AC000A81346F67812032179484C3003F00FFC46
:100AD0009FED621ADFED610A9FED600A0023042298
:100AE000032173484C3803F002FC9FED5C1ADFEDE4
:100AF0005B0A9FED5A0A0023042203216C489830B8
:100B000003F0F5FB10BD2DE9F0412DED108B92B0F7
:100B1000B0EE408A4FF01C08664890ED000ADFED09
:100B2000660A20EE200A10EE101A084617F094F913
:100B300041EC1B0BB0EE4B0AF0EE6B0A14F04CFECE
:100B4000B0EE40AAF0EE60AA53EC1A2B9FED5B0BBF
:100B500051EC100B16F0B8FB41EC190B16F0C6FA6D
:100B60000546284617F078F941EC1D0BB0EE4D1AFA
:100B7000F0EE6D1A9FED530B14F02EFDB0EE40CA4F
:100B8000F0EE60CA9FED510B53EC102B51EC1C0B97
:100B900016F0C4FD41EC1A0B18EE100A17F05CF9C0
:100BA00041EC1B0B53EC1A2B16F0D2FA41EC190B4B
:100BB00016F09CFA0E90284617F04EF941EC1A0BED
:100BC0009FED3D0A28EE000A10EE101A084617F0B5
:100BD00043F941EC1C0BB0EE4C0AF0EE6C0A14F039
:100BE000FBFDB0EE40BAF0EE60BA53EC1A2B51ECBC
:100BF0001B0B16F093FD41EC190B16F077FA0FEE74
:100C0000100A284617F028F941EC1A0B9FED2A0A22
:100C100028EE000A10EE101A084617F01DF941ECF4
:100C20001C0BB0EE4C0AF0EE6C0A15F0EDFCB0EEC9
:100C300040BAF0EE60BA53EC1A2B51EC1B0B16F0D5
:100C40006DFD41EC190B16F051FA064618FB08F041
:100C500000EE100A3EE000007404002000000000D6
:100C600000004843381B00200AD7233C0000704294
:100C70006F12833A0000164390050020CDCCCC3D86
:100C8000CDCC4C3F9A99193E00005243C00600203B
:100C9000CDCC4C3DAE47613E00002042B80900205B
:100CA00000003443F0070020CDCC4C3E0000AF43A1
:100CB000E80A00205025002035FA8E3C9A9999992F
:100CC00099991B40000000205C8F13400000002019
:100CD000DCA54C40B8EEC00AF0EE408A2FEE0F0AB9
:100CE00010EE104A18EE900A17F0B6F8CDE9080198
:100CF000304617F0B1F841EC1B0BB0EE000A28EEBD
:100D0000800A10EE101A084617F0A6F841EC1D0BE9
:100D1000204617F0A1F89FEDFE0B53EC102BCDE908
:100D200000019DED000B51EC100B16F0F7FC41ECAF
:100D30001E0B53EC1D2B16F0C7FA41EC1C0B53ECA9
:100D40001B2B16F005FACDE90401204617F084F8B4
:100D500041EC1B0B9FEDF00B53EC102B16F0DEFC5F
:100D6000CDE902019DED040B53EC102B9DED020B20
:100D700051EC100B16F0D2FCCDE906019DED080BED
:100D800053EC102B9DED060B51EC100B16F09CFA5A
:100D9000CDE90C01204617F05FF8CDE90A019DED81
:100DA0000C0B53EC102B9DED0A0B51EC100B16F0B5
:100DB00069FF41EC1A0BB0EE4A0AF0EE6A0A15F030
:100DC00087FCB0EE409AF0EE609A51EC190B16F0E9
:100DD0008DF90FEE900A204617F03EF841EC1A0B01
:100DE0009FEDCB0B53EC102B16F098FC41EC190B3C
:100DF00016F07CF911903FEE6F0A60EE280A9DED27
:100E0000110A80EE801A11EE107A384617F024F895
:100E100041EC1A0BB0EE4A0AF0EE6A0A14F070FACE
:100E2000B0EE409AF0EE609A51EC190B16F05EF9B4
:100E300010909DED100ADFEDBA0A20EE200A8DED2C
:100E40000F0A9DED0F0A12B0BDEC108BBDE8F081CA
:100E500010B52DED088B0020B24981F83600B2485C
:100E6000007870B9B14890ED000AB14880ED000AF1
:100E7000AE4890ED010AAF4880ED000A0120AA4972
:100E80000870AA4890ED000AA64880ED040AA74819
:100E900090ED010AA34880ED030AA44890ED030AEF
:100EA000A04880ED080AA14890ED040A9D4880ED15
:100EB000070AA148C07B48B19F4890ED040AF7EEAD
:100EC000000A30EE200A80ED040A04E01FED9D0ABE
:100ED000994880ED040A984890ED040AF7EE000A5C
:100EE000B4EEE00AF1EE10FA7ED2012093490870C8
:100EF0009148B0F9080000EE100AB8EEC00A904818
:100F0000D0ED000AB4EE600AF1EE10FA6DD18A4815
:100F1000B0F90A0000EE100AB8EEC00A8948D0ED18
:100F2000000AB4EE600AF1EE10FA74D18249B1F908
:100F3000080016F08CFB41EC1B0B9FED830B53EC70
:100F4000102B16F0EBFB41EC1A0B9FED811BB0EE62
:100F50004A0AF0EE6A0A14F03FFBB0EE409AF0EE57
:100F6000609A1FEDA60B53EC102B51EC190B16F0E9
:100F7000D5FB41EC180B16F0B9F8774908606E49BB
:100F8000B1F90A0016F063FB41EC1B0B9FED6E0BF1
:100F900053EC102B16F0C2FB41EC1A0B9FED6C1BAF
:100FA000B0EE4A0AF0EE6A0A14F016FBB0EE409A70
:100FB000F0EE609A1FEDBB0B53EC102B51EC190BAC
:100FC00016F0ACFB41EC180B16F090F86349086082
:100FD000594890ED000A6048D0ED000A30EE200A32
:100FE0005F48D0ED000A01E03EE014E030EE200A58
:100FF0005C4880ED000A504890ED010A0846D0EDAB
:10100000000A30EE200A5848D0ED000A30EE200ADF
:10101000564880ED000A4848B0F9080000EE100A72
:10102000B8EEC00A464880ED000A4348B0F90A000D
:1010300000EE100AB8EEC00A424880ED000A4948A6
:1010400090ED000A374880ED010A484890ED000A0B
:10105000FFF759FDB1EE400A4348D0ED000A30EEEB
:10106000200A304880ED020A2E4890ED020AFBEE7D
:10107000090AB4EEE00AF1EE10FA04D8BBEE090A50
:1010800080ED020A0DE0274890ED020AF3EE010A16
:10109000B4EEE00AF1EE10FA03DBB3EE010A80EDE4
:1010A000020A2648007858B9224890ED000A1D48E7
:1010B00080ED010A1E4890ED000A1A4880ED020AF0
:1010C0001848D0ED071AB0EE611AD0ED031AF0EE11
:1010D000610AD0ED011AB0EE610ADFED251A00F1C8
:1010E000140200F20C7100F5C56003F03EF9FFEE4A
:1010F000000A20EE200A0B4880ED090AD0ED081AFC
:10110000B0EE611AD0ED041AF0EE610A32E0000090
:101110009A999999999923409A99999999993340CB
:10112000E12E654274040020580000205025002064
:101130004000002044000020BC3000205900002066
:101140005000002054000020000000E0EF50743FE9
:1011500000000000000020405C0000206000002033
:101160003000002048000020340000204C00002007
:1011700000000000D0ED021AB0EE610A5FED041A23
:1011800000F1180200F5D86100F2746003F0EDF888
:10119000F7EE000A20EE200AFE4880ED0A0ABDECB8
:1011A000088B10BD10B52DED088B0020F94981F892
:1011B0003600F948007870B9F84890ED000AF84810
:1011C00080ED000AF54890ED010AF64880ED000A2E
:1011D0000120F1490870F14890ED000AED4880EDDA
:1011E000040AEE4890ED010AEA4880ED030AEB4854
:1011F00090ED030AE74880ED080AE84890ED040AFC
:10120000E44880ED070AE848C07B48B1E64890ED25
:10121000040AF7EE000A30EE200A80ED040A04E02A
:101220001FED2D0AE04880ED040ADF4890ED040A26
:10123000F7EE000AB4EEE00AF1EE10FA7ED20120D9
:10124000DA490870D848B0F9080000EE100AB8EE84
:10125000C00AD748D0ED000AB4EE600AF1EE10FAE9
:101260006DD1D148B0F90A0000EE100AB8EEC00AFC
:10127000D048D0ED000AB4EE600AF1EE10FA74D155
:10128000C949B1F9080016F0E2F941EC1B0B1FED5A
:10129000520B53EC102B16F041FA41EC1A0B1FEDD8
:1012A000541BB0EE4A0AF0EE6A0A14F095F9B0EE5B
:1012B000409AF0EE609A9FEDC00B53EC102B51EC6E
:1012C000190B16F02BFA41EC180B15F00FFFBC4967
:1012D0000860B549B1F90A0016F0B9F941EC1B0BE9
:1012E0001FED670B53EC102B16F018FA41EC1A0B9C
:1012F0001FED691BB0EE4A0AF0EE6A0A14F06CF9B1
:10130000B0EE409AF0EE609A9FEDAB0B53EC102BD1
:1013100051EC190B16F002FA41EC180B15F0E6FE31
:10132000A8490860A04890ED000AA548D0ED000A41
:1013300030EE200AA448D0ED000A01E03CE014E0C1
:1013400030EE200AA14880ED000A974890ED010A8E
:101350000846D0ED000A30EE200A9D48D0ED000A84
:1013600030EE200A9B4880ED000A8F48B0F9080053
:1013700000EE100AB8EEC00A8D4880ED000A8A48D7
:10138000B0F90A0000EE100AB8EEC00A894880EDF4
:10139000000A8E4890ED000A7E4880ED010A8D48D3
:1013A00090ED000AFFF7AFFB8948D0ED000A30EE60
:1013B000200A784880ED020A764890ED020AFBEE9A
:1013C000090AB4EEE00AF1EE10FA04D8BBEE090AFD
:1013D00080ED020A0DE06F4890ED020AF3EE010A7B
:1013E000B4EEE00AF1EE10FA03DBB3EE010A80ED91
:1013F000020A6E48007858B96A4890ED000A6548BC
:1014000080ED010A664890ED000A624880ED020A0C
:101410006048D0ED071AB0EE611AD0ED031AF0EE75
:10142000610AD0ED011AB0EE610A5FEDAF1A00F16A
:10143000140200F2AC4100F5727002F096FFFFEE6C
:10144000000A20EE200A534880ED090AD0ED081A60
:10145000B0EE611AD0ED041AF0EE610AD0ED021A76
:10146000B0EE610A5FEDBE1A00F1180200F58C6162
:1014700000F2144002F079FFF7EE000A20EE200A95
:10148000444880ED0A0ABDEC088B10BD10B52DED67
:101490000A8BB0EE409AF0EE609AB0EE418A9FED72
:1014A0004E0B53EC102B51EC190B16F037F941ECA5
:1014B0001C0B9FED4B0B53EC102B16F02FF941EC4E
:1014C0001B0B9FED491BB0EE4B0AF0EE6B0A14F0BC
:1014D000F1F9B0EE40AAF0EE60AA51EC1A0B15F04B
:1014E00005FE08EE100AB5EEC08AF1EE10FA05D23C
:1014F0009FED3F0A38EE000AB0EE408A18EE100A5F
:1015000016F0AAFC41EC100BBDEC0A8B10BD10B517
:101510002DED108B84B0374890ED121BB0EE410AD0
:10152000F0EE610A344890ED001AFFF7AFFFB0EE1D
:10153000408AF0EE608A51EC180B15F0D7FD2E4969
:101540000860084690ED000ADFED2C0AB4EEE00AD0
:10155000F1EE10FA09DB90ED000ADFED250A30EE1E
:10156000600A274880ED000A05E0234890ED000A54
:10157000234880ED000A9FED231ADFED230A20485F
:1015800090ED000A214802F04EFDB1EE400A2048DD
:1015900040E0000074040020580000205025002086
:1015A0004000002044000020BC30002059000020F2
:1015B000500000205400002000000020DCA54C401A
:1015C0005C00002060000020300000204800002067
:1015D000340000204C000020000000000000F0BF9C
:1015E000000000A046DF913F00000060FB21194091
:1015F000DB0FC940102A002088000020DB0F494083
:101600008C000020920A863E00000000381B00205B
:101610009000002080ED000AFE4890ED5F0AFE4831
:1016200080ED000AFD4880ED000AFB48006816F0D6
:1016300013FC41EC190BB0EE490AF0EE690A14F004
:101640002FF9B0EE408AF0EE608A9FEDF50B53EC77
:10165000102B51EC180B16F007FA29D2EE4800684F
:1016600016F0FAFB41EC190BEB48006816F0F4FB9E
:1016700041EC1C0BB0EE4C0AF0EE6C0A14F010F9C1
:10168000B0EE40BAF0EE60BA9FEDE50B53EC102BD4
:1016900051EC1B0B16F042F841EC1A0B53EC192BD2
:1016A00015F012FE41EC180B15F020FDDA49086028
:1016B000DA48006816F0D0FB41EC190BB0EE490A8D
:1016C000F0EE690A14F0ECF8B0EE408AF0EE608AB1
:1016D0009FEDD50B53EC102B51EC180B16F0C4F901
:1016E00029D2CE48006816F0B7FB41EC190BCB4865
:1016F000006816F0B1FB41EC1C0BB0EE4C0AF0EEAA
:101700006C0A14F0CDF8B0EE40BAF0EE60BA9FED7E
:10171000C60B53EC102B51EC1B0B15F0FFFF41ECEB
:101720001A0B53EC192B15F0CFFD41EC180B15F0EB
:10173000DDFCBA490860B84890ED000AB5EEC00A71
:10174000F1EE10FA21D0006816F086FB41EC190B7F
:10175000B148006816F080FB41EC1B0BB0EE4B0A61
:10176000F0EE6B0A14F09CF8B0EE40AAF0EE60AA1E
:1017700053EC192B51EC1A0B15F0A6FD41EC180B8C
:1017800015F0B4FCAA49086004E0B7EE000AA848C6
:1017900080ED000A9F48407803280BD0A54890EDC3
:1017A000010A9C4880ED0C0AA24890ED000A994875
:1017B00080ED0B0A9F4890ED000A964880ED040AE0
:1017C0009C4890ED010A934880ED030A994890EDFA
:1017D000030A904880ED080A964890ED040A8D4867
:1017E00080ED070A9448407D00287CD0894890F815
:1017F0003600002877D19148807B0128FAD18548AE
:1018000090ED010AD0ED030A30EE600A10EE101AD6
:10181000084616F021FB41EC190BB0EE490AF0EE38
:10182000690A14F03DF8B0EE408AF0EE608A9FED50
:10183000840B53EC102B51EC180B15F033FF04D232
:101840000120744981F8350003E00020714981F8D6
:101850003500784890ED000A6E4880ED040A75481E
:1018600090ED010A6B4880ED030A724890ED030A7F
:10187000684880ED080A6F4890ED040A654880EDDD
:10188000070A6E4890ED010AB1EE400A6E48D0EDAD
:10189000000A30EE200A5F4880ED020A674890EDAA
:1018A000000A6A48D0ED000A30EE200A594880ED5F
:1018B000010A90ED010AD0ED030A30EE600A10EE45
:1018C000101A084616F0C8FA41EC180B9FED600B91
:1018D00053EC102B16F0C8F80BD24E4890ED010ACD
:1018E000DFED5D0A00E07BE030EE600A80ED010A8A
:1018F0001DE0484890ED010AD0ED030A30EE600A81
:1019000010EE101A084616F0A7FA41EC180B9FEDDE
:10191000530B53EC102B15F0C5FE08D23D4890ED4B
:10192000010ADFED4D0A30EE200A80ED010A394848
:1019300090ED020AFBEE090AB4EEE00AF1EE10FAAD
:1019400004D8BBEE090A80ED020A0DE0314890EDA3
:10195000020AF3EE010AB4EEE00AF1EE10FA03DB3C
:10196000B3EE010A80ED020A2A48D0ED071AB0EE64
:10197000611AD0ED031AF0EE610AD0ED011AB0EE53
:10198000610A5FEDDF1A00F1140200F2DC5100F58C
:101990009F6002F0EAFCFFEE000A20EE200A1D48DC
:1019A00080ED090AD0ED081AB0EE611AD0ED041AE4
:1019B000F0EE610AD0ED021AB0EE610A5FEDEE1AA8
:1019C00000F1180200F5B26100F2445002F0CDFCC3
:1019D000F7EE000A20EE200A0E4880ED0A0A7AE2AD
:1019E0001548407D00287CD00A4890F83600012830
:1019F00077D11248807B0128FAD10E4890ED000A79
:101A000010EE101A084616F027FA41EC190BB0EE4A
:101A1000481A27E0740400206C00002070000020A9
:101A20000000000000003E400000000000001440E4
:101A3000740000205025002054300020BC300020CD
:101A400000000000000000403C00002038000020A2
:101A500000000000008066400000B4430000000069
:101A6000008066C0B0EE490AF0EE690AFEF78AFD12
:101A7000B0EE408AFE4890ED010A10EE101A0846BA
:101A800016F0EAF941EC190BB0EE681AB0EE490A0B
:101A9000F0EE690AFEF776FDF0EE408AF54880ED3B
:101AA000048AC0ED038A90ED010AD0ED030A30EEFE
:101AB000600A10EE101A084616F0CEF941EC1A0B27
:101AC000B0EE4A0AF0EE6A0A13F0EAFEB0EE409A6F
:101AD000F0EE609A1FED260B53EC102B51EC190B16
:101AE00000E0C4E015F0DEFD04D20120E14981F8F8
:101AF000350003E00020DF4981F83500DC4890ED37
:101B0000030ADC4880ED080AD94890ED040AD94858
:101B100080ED070AD84890ED010AB1EE400AD74897
:101B2000D0ED000A30EE200AD24880ED020AD248F9
:101B300090ED000AD248D0ED000A30EE200ACD48E0
:101B400080ED010A90ED010AD0ED030A30EE600A43
:101B500010EE101A084616F07FF941EC190B1FED34
:101B6000440B53EC102B15F07FFF09D2C14890EDC8
:101B7000010A5FED470A30EE600A80ED010A1DE0C0
:101B8000BC4890ED010AD0ED030A30EE600A10EE79
:101B9000101A084616F060F941EC190B1FED510BB5
:101BA00053EC102B15F07EFD08D2B24890ED010ADF
:101BB0005FED570A30EE200A80ED010AAD4890ED46
:101BC000020AFBEE090AB4EEE00AF1EE10FA04D8BC
:101BD000BBEE090A80ED020A0DE0A64890ED020A6C
:101BE000F3EE010AB4EEE00AF1EE10FA03DBB3EE15
:101BF000010A80ED020A9F48D0ED071AB0EE611A83
:101C0000D0ED031AF0EE610AD0ED011AB0EE610AD0
:101C1000DFED9C1A00F1140200F54C7100F52670FE
:101C200002F0A3FBFFEE000A20EE200A914880EDAF
:101C3000090AD0ED081AB0EE611AD0ED041AF0EEE0
:101C4000610AD0ED021AB0EE610ADFED8E1A00F1E2
:101C5000180200F55F7100F5397002F086FBF7EEAF
:101C6000000A20EE200A834880ED0A0A33E1814809
:101C700090ED0B0A80ED020A90ED0C0A80ED010A4E
:101C80008148006D502805D99FED7E0A794880ED86
:101C9000090A20E17D48B0F90C0000EE100AB8EE08
:101CA000C00A7B48D0ED000A20EE200A794880ED7A
:101CB000000A90ED000A7848D0ED000AB4EEE00A80
:101CC000F1EE10FA04DD90ED000A724880ED000A92
:101CD000704890ED000A7048D0ED000AF1EE600AFD
:101CE000B4EEE00AF1EE10FA06D290ED000AB1EE81
:101CF000400A684880ED000A684890ED002A68486C
:101D0000D0ED002A62EE222A664890ED003A614842
:101D100090ED002A02EE832AF0EE421A554890ED2B
:101D2000072AB0EE421A90ED032AF0EE420A90ED37
:101D3000012AB0EE420A00F1140200F5007100F52C
:101D4000B47002F012FBFFEE000A20EE200A10EE43
:101D5000104A204616F080F841EC180B52480068F3
:101D600016F07AF841EC1E0B1FEDCB1BB0EE4E0ABD
:101D7000F0EE6E0A13F020FEB0EE40CAF0EE60CA3C
:101D80004A48006816F068F841EC1D0B53EC1C2B18
:101D900015F0C4FC41EC1A0B4548006816F05CF8DD
:101DA00041EC1F0B9FED431BB0EE4F0AF0EE6F0AA4
:101DB00013F002FE8DED000B4048006816F04CF861
:101DC00041EC1E0B9DED000B53EC102B15F0A6FC07
:101DD00041EC1C0B274890ED070A3948D0ED000A6A
:101DE00020EE200A10EE101A084616F035F841ECE5
:101DF0001D0B53EC1C2B15F0ABF941EC1B0B53ECFA
:101E00001A2B15F0A5F941EC190B53EC182B15F012
:101E10009FF9CDE902019DED020B51EC100B15F07D
:101E200065F9144948621948B0F90E0002EE100A2B
:101E3000B8EEC22A2348D0ED002A22EE222AF0EE84
:101E4000421A084690ED082AB0EE421A90ED042A94
:101E5000F0EE420A90ED022AB0EE420A00F11802BA
:101E600000F5137100F5DA7002F07FFA2CE0000043
:101E70005025002074040020BC3000203C000020CD
:101E80003800002000000000102A002054300020FC
:101E900064000020940000209800002084000020AE
:101EA00090000020740000206C00002078000020CA
:101EB00070000020000000000000084080000020AA
:101EC0007C00002068000020F7EE000A20EE200AC7
:101ED000AD4880ED0A0A04B0BDEC108B10BD10B502
:101EE0002DED048B0020A9490870A949087000BF96
:101EF0001FED1C0AA44880ED020AA64890ED000AD6
:101F0000A14880ED040A1FED210A80ED010AA248D4
:101F100090ED020AB1EE400A9B4880ED030A9D480D
:101F200090ED040A984880ED070A9A4890ED030A5C
:101F3000954880ED080A90ED030ADFED980A80EEDF
:101F4000201ABDEEC10A10EE104A4FF4B47104FB22
:101F500001F000EE100AB8EEC00A8B4880ED010ACD
:101F600090ED010AD0ED030A30EE600ADFED8C0A35
:101F7000B4EEE00AF1EE10FA08DB90ED010ADFEDB5
:101F8000870A30EE600A80ED010A15E07E4890ED88
:101F9000010AD0ED030A30EE600ADFED820AB4EEEA
:101FA000E00AF1EE10FA07D290ED010ADFED7B0AAC
:101FB00030EE200A80ED010A7348D0ED071AB0EE2A
:101FC000611AD0ED031AF0EE610AD0ED011AB0EEFD
:101FD000610A5FED541A00F1140200F1D0013830AB
:101FE00002F0C3F9FFEE000A20EE200A664880EDF9
:101FF000090AD0ED081AB0EE611AD0ED041AF0EE1D
:10200000610AD0ED021AB0EE610A5FED621A00F1CA
:10201000180200F58E71843002F0A7F9F7EE000A7D
:1020200020EE200A584880ED0A0A90ED020AD0ED11
:10203000040A30EE600A10EE101A084615F00CFF84
:1020400041EC190BB0EE490AF0EE690A13F028FCD6
:10205000B0EE408AF0EE608A9FED530B53EC102BEC
:1020600051EC180B15F01EFB3ED8474890ED010AC5
:10207000D0ED030A30EE600A10EE101A084615F093
:10208000EBFE41EC190BB0EE490AF0EE690A13F0D1
:1020900007FCB0EE408AF0EE608A9FED450B53ECF2
:1020A000102B51EC180B15F0FDFA1DD80120364904
:1020B00081F834001FED8D0A3F4880ED000A90ED55
:1020C000000A3E48D0ED000A30EE200A3C4880ED80
:1020D000000A394890ED000A3A48D0ED000A30EE87
:1020E000200A394880ED000ABDEC048B10BD10B504
:1020F00025480078032816D003DC38B101281BD10D
:102100000EE00B2812D00C2816D112E028211E4810
:10211000001D12F007F800201B4981F834000CE084
:10212000FFF7DDFE09E0FFF7F2F906E0FFF73AF806
:1021300003E0FEF78DFE00E000BF00BF124890ED07
:10214000020A2148D0ED000AB4EEE00AF1EE10FADE
:1021500005D890ED000A0C4880ED020A0FE00A480D
:1021600090ED020A1648D0ED000AB4EEE00AF1EE56
:1021700010FA04DB90ED000A034880ED020A0248E1
:1021800000780149487010BD7404002058000020F8
:102190005900002050250020382F00200000B443B3
:1021A00000003543000033C3000000000000104071
:1021B000000000000000F83F240000202C00002058
:1021C00020000020280000201C00002010B52DED6C
:1021D000088BF8480078F8490870F848807EF5497F
:1021E000087008460078F4490978884206D0002033
:1021F000F34908704870F34908734873EF48807ECC
:10220000012804D002287DD003287CD1BFE0EC480F
:102210000078012811D0E9484088A0F5806000EBE3
:10222000400000B2E7490882E4480088A0F58060D9
:1022300000EB400001B2E3484182E1480078032806
:1022400057D1DE49B1F90610A1F5806015F0FFF90C
:1022500041EC1B0B9FEDDC0B53EC102B15F05EFAE1
:1022600041EC190BD64890ED0B0A10EE101A0846F7
:1022700015F0F2FD41EC1A0B53EC192B15F002FD91
:1022800041EC180B14F032FFCD49C862084690EDBE
:102290000C0ACA48B0F90400A0F5806000EE900A6C
:1022A000F8EEE00A9FEDCA1A00EE810A084680EDBA
:1022B0000C0A90ED0B0AC748D0ED000AB4EEE00A14
:1022C000F1EE10FA05D890ED000A084680ED0B0AF1
:1022D0000FE0BB4890ED0B0ABF48D0ED000AB4EE0A
:1022E000E00AF1EE10FA04DB90ED000AB44880ED4C
:1022F0000B0AB348007801280AD0B14800780C28AE
:1023000006D001E0ABE1B0E1AD4800780B2802D186
:102310000120AC490873AA480078012809D0A748D1
:10232000807E022805D0A648407810B90320A44931
:102330000870A348407840B9A148007828B101202E
:102340009F490870002081F834009D4800780328D8
:1023500003D101209B4981F84400994890F834004A
:10236000012813D10320964908709448807F38B122
:1023700007209449087340F226219248818205E0A3
:1023800003209049087300218E4881826EE18C48B9
:102390000078012870D0894890F82D0038B10320CA
:1023A000884988734FF4C8608C49088006E0022091
:1023B000844988734FF4FA70884908807F4890F800
:1023C000290028B18548B0F900007E4908820DE057
:1023D0007A4890F82B0030B180480088404200B223
:1023E0007849088202E0002076490882734890F814
:1023F0002A00A8B17348807B03280AD17749B1F934
:102400000010484200EBD07149100AB26D494A826F
:1024100020E072480088404201B26A48418219E0D7
:10242000664890F82C0090B16648807B032808D15C
:102430006A49B1F9000000EBD0714910614A51823C
:1024400008E06648B0F900105E48418202E00021D1
:102450005C4841825A48007803286AD15748407D39
:1024600050B95648B0F90C0010F1960F05DC6FF02A
:1024700095005249888108E05BE05048B0F90C00B3
:10248000962802DB96204D4988814C48B0F90E0011
:1024900010F1960F04DC6FF095014848C18107E008
:1024A0004648B0F90E00962802DB96214348C181C8
:1024B000434890ED0C0A4148B0F90C0000EE900A38
:1024C000F8EEE00A9FED461A00EE810A3C4880EDE6
:1024D0000C0A90ED0B0A3948B0F90E0000EE900A94
:1024E000F8EEE00A9FED3F1A00EE810A344880EDD5
:1024F0000B0A90ED0B0A3748D0ED000AB4EEE00A63
:10250000F1EE10FA05D890ED000A2D4880ED0B0A87
:102510000FE02B4890ED0B0A2F48D0ED000AB4EEE7
:10252000E00AF1EE10FA04DB90ED000A244880ED99
:102530000B0A23480078012807D0214800780C288E
:1025400003D01F4800780B2802D101201D490873D1
:102550001B480078012809D01848807E022805D041
:102560001748407810B9032015490870144840787E
:1025700040B91348007828B10120114908700020A3
:1025800081F834000E480078032803D101200D495A
:1025900081F844000A4890F8340001285ED10748C9
:1025A00090F8470000B30C20054908700020054949
:1025B000087329E09E0000209F0000205430002076
:1025C00074040020CC0B0020FCA9F1D24D62803FA6
:1025D0006F12033C1C000020200000209C00002003
:1025E0008FC2753D0AD7233D244890F8450030B18D
:1025F0000B202349087000202249087304E00320BF
:102600001F4908701F4908731C4890F83F0018B113
:1026100007201C49087302E003201A490873174871
:1026200090F8440020B10120154981F8360003E0FC
:102630000020134981F83600104890F8380010B196
:102640000020114908700D4890F8400018B1012091
:102650000C49C87302E000200A49C87306E0002054
:10266000074908700749087300E000BF00BF05482C
:10267000007B04494873BDEC088B10BD543000202A
:1026800074040020CC0B00200804002010B5044680
:1026900004F168030122042104F110000CF01CFC79
:1026A00004F178030122022104F138000CF014FC3B
:1026B00004F590730422114604F118000CF00CFC90
:1026C00004F1E0030422114604F120000CF004FCA4
:1026D00004F1200104F118000EF05FF804F5D07346
:1026E0000422114604F148000CF0F6FB04F5C07317
:1026F0000422022104F128000CF0EEFB04F5B07373
:102700000222042104F130000CF0E6FB04F1300158
:1027100004F128000EF041F804F5F073022211468E
:1027200004F140000CF0D8FB04F1A0030422114690
:1027300004F150000CF0D0FB04F1800302220421CC
:1027400004F158000CF0C8FB04F5F873042211469C
:1027500004F160000CF0C0FB10BD30B52DED028B14
:1027600095B00446B0EE408AF0EE608A0D467F4890
:10277000007828B901207D4908707D48FFF786FF61
:102780007C4B0422114613A80CF0A6FB7A4B0422C2
:10279000114611A80CF0A0FB784B022204210FA8CF
:1027A0000CF09AFB764B042202210DA80CF094FB4E
:1027B000744B022211460BA80CF08EFB724B0222C6
:1027C000114609A80CF088FB704B0122022107A8D2
:1027D0000CF082FB6E4B0122022105A80CF07CFB61
:1027E0006C4B0122042103A80CF076FB6A4B0122FA
:1027F000042101A80CF070FBE06B80ED008AE06B17
:10280000C0ED018A03AA04F1100104F118000DF0D3
:10281000FAF8042204F168015E4810F0A2FD28785D
:10282000002871D013AA04F1500104F118000DF032
:10283000EAF811AA04F1200113A80DF0E4F804F15C
:10284000500204F1480111A80CF0B2F80FAA04F1EB
:10285000300104F150000DF0D6F80DAA04F150013A
:1028600004F128000DF0CFF80BAA04F130010DA8F7
:102870000DF0C9F809AA04F140010BA80CF098F872
:102880000BA909A80CF034FB04F158020BA90FA8FE
:102890000DF0B9F807AA04F1100104F128000DF0B9
:1028A000B2F805AA07A904F138000DF020FF03AA29
:1028B00005A904F158000DF0A6F801AA03A904F136
:1028C00010000CF075F8042204F16801324810F091
:1028D00048FD13AA04F1280104F158000DF093F803
:1028E00011AA13A904F160000DF001FF13AA04F16D
:1028F000500111A80DF087F8102204F1A0011D4825
:1029000010F02FFD00202870606990ED000A84ED22
:10291000000A606990ED010A84ED010A606990ED9A
:10292000020A84ED020A606990ED030A84ED030A4D
:1029300015B0BDEC028B30BD10B504460C48FFF756
:10294000A5FE9FED160A606980ED000A9FED130A4F
:10295000606980ED010A9FED110A606980ED020A4D
:102960009FED0E0A606980ED030A10BDE4020020AD
:10297000A4000020F40C0020840C0020340D002062
:10298000C40C0020540D0020E40C0020DC020020C8
:10299000D4020020740C0020640D00200000000010
:1029A000F0EE400A90ED010A80ED020A90ED040A73
:1029B00080ED050A90ED010A80ED020A90ED040A0F
:1029C00080ED050A90ED020A90ED001A30EE010A42
:1029D00090ED021AC1EE001AC0ED031A90ED050A3F
:1029E00090ED031AD0ED051A70EEE11A01EE210AFE
:1029F00080ED040A90ED030AB7EE001A31EE400AAA
:102A000090ED021A20EE010A80ED010A90ED040A11
:102A1000704710B52DED068BB0EE408A18EE100A07
:102A200015F01AFA41EC1A0B9FEDFB0B53EC102B2F
:102A300015F050F841EC190B14F058FBF8490860F8
:102A4000084690ED000ADFEDF70A20EE200ABDEC03
:102A5000068B10BD10B59FEDF41ADFEDF40AB3EE4E
:102A6000040A4FF47A7341F270720321F04801F0C6
:102A70003EFC9FEDED1ADFEDEC0AB3EE0E0A42F2DA
:102A800010731A460321EB4801F031FCB1EE001A35
:102A9000DFEDE90A9FEDE30A42F2107344F63822B3
:102AA0000321E4484C3001F022FC9FEDDF1ADFEDFA
:102AB000E30AB3EE000A32234FF4FA620321E0483E
:102AC00001F015FC9FEDD81ADFEDD70A9FEDDD0A66
:102AD00041F27C5342F210720321DB4801F007FC03
:102AE0009FEDD11ADFEDD00A9FEDCE0A42F6EC43FE
:102AF00043F68C420321D54801F0F9FB9FEDCA1A39
:102B0000DFEDC90A9FEDC70A42F6EC4343F68C425B
:102B10000321CE484C3801F0EAFB9FEDCD0ACD48A9
:102B200080ED090AB3EE040A80ED210A0120C949AB
:102B300048709FEDC40A084680ED230A10BDC648C0
:102B4000B0F83F10B0F84E00081A0A2190FBF1F0DF
:102B500000EE100AB8EEC00ABE4880ED1F0ABE485B
:102B6000B0F83D00BB49A1F89600084690F8710006
:102B7000012805D1B3EE060A084680ED210A72E06D
:102B8000B54890F83800012805D1B2EE0C0AB148DA
:102B900080ED210A67E0B04890F83800022805D19E
:102BA000B3EE000AAB4880ED210A5CE0AA4890F839
:102BB0003800032805D1B3EE020AA64880ED210AA9
:102BC00051E0A54890F83800042805D1B3EE030A77
:102BD000A04880ED210A46E09F4890F8380005287B
:102BE00005D1B3EE040A9B4880ED210A3BE09A48E8
:102BF00090F83800062805D1B3EE050A954880ED17
:102C0000210A30E0944890F83800072805D1B3EE47
:102C1000080A904880ED210A25E08F4890F8380096
:102C2000082805D1B3EE090A8A4880ED210A1AE086
:102C3000894890F83800092805D1B3EE090A85487B
:102C400080ED210A0FE0844890F838000A2805D169
:102C5000B3EE0A0A7F4880ED210A04E0B3EE030ACE
:102C60007C4880ED210A704710B52DED0A8BFFF7E7
:102C700066FF784890ED210AB5EEC00AF1EE10FA31
:102C80007CD0754890F838000B2878D2DFE800F047
:102C90007706356478A7FCFBFAF9F8006D4890EDEB
:102CA000210A10EE101A084615F0D6F841EC190B5F
:102CB000684890ED1F0A10EE101A084615F0CCF87F
:102CC00041EC1C0B9FED650B53EC102B14F0DAFF5D
:102CD00041EC1B0B9FED630B53EC102B14F01EFD0E
:102CE00041EC1A0B53EC192B14F0EEFA41EC180BD3
:102CF00014F0FCF957498867D7E1564890ED210A4E
:102D000010EE101A084615F0A7F841EC190B5148BF
:102D100090ED1F0A10EE101A084615F09DF841ECD0
:102D20001C0B9FED4E0B53EC102B14F0ABFF41EC42
:102D30001B0B9FED4C0B53EC102B14F0EFFC41ECF4
:102D40001A0B53EC192B14F0BFFA41EC180B14F0CA
:102D5000CDF940498867A8E13E4890ED1F0AF1EEA1
:102D6000000A30EE600ADFED410A20EE200AD0EDC5
:102D7000210A80EE201A80ED1E1A96E196E182E18A
:102D8000344890ED210A10EE101A084615F064F848
:102D900041EC190B2F4890ED1F0A10EE101A08464F
:102DA00015F05AF841EC1C0B9FED310B53EC102B36
:102DB00014F068FF41EC1B0B9FED2A0B53EC102B1A
:102DC00014F0ACFC41EC1A0B53EC192B14F07CFA08
:102DD00041EC180B14F08AF91E49886765E11D481B
:102DE00090ED210A10EE101A084615F035F841EC66
:102DF000190B184890ED1F0A10EE101A084615F02E
:102E00002BF841EC1C0B9FED1C0B53EC102B14F01A
:102E100039FF41EC1B0B38E00000000000803B4014
:102E2000B40300200000484200000000CDCC4C3E1E
:102E3000740D0020D01B0020CDCCCC3D0AD7233C04
:102E4000A40E00200000A042F00E0020001D002073
:102E500000806DC4E8020020982F00209A9999996B
:102E6000999905400000000000408F4000007A441E
:102E7000CDCCCCCCCCCC10409A9999999999114051
:102E8000D2E0A2E072E042E012E01FED0A0B53EC48
:102E9000102B14F043FC41EC1A0B53EC192B14F0DB
:102EA00013FA41EC180B14F021F9FE498867FCE095
:102EB000FC4890ED210A10EE101A084614F0CCFFE1
:102EC00041EC190BF74890ED1F0A10EE101A084656
:102ED00014F0C2FF41EC1C0B9FEDF30B53EC102BD5
:102EE00014F0D0FE41EC1B0B1FED220B53EC102B0A
:102EF00014F014FC41EC1A0B53EC192B14F0E4F908
:102F000041EC180B14F0F2F8E6498867CDE0E5488B
:102F100090ED210A10EE101A084614F09DFF41ECC6
:102F2000190BE04890ED1F0A10EE101A084614F035
:102F300093FF41EC1C0B9FEDDE0B53EC102B14F0B8
:102F4000A1FE41EC1B0B1FED390B53EC102B14F0C1
:102F5000E5FB41EC1A0B53EC192B14F0B5F941ECDD
:102F6000180B14F0C3F8CF4988679EE0CD4890ED68
:102F7000210A10EE101A084614F06EFF41EC190BEE
:102F8000C84890ED1F0A10EE101A084614F064FFAE
:102F900041EC1C0B9FEDC80B53EC102B14F072FE90
:102FA00041EC1B0B1FED510B53EC102B14F0B6FB37
:102FB00041EC1A0B53EC192B14F086F941EC180B69
:102FC00014F094F8B74988676FE0B64890ED210A8D
:102FD00010EE101A084614F03FFF41EC190BB148EF
:102FE00090ED1F0A10EE101A084614F035FF41EC60
:102FF0001C0B9FEDB30B53EC102B14F043FE41EC74
:103000001B0B1FED680B53EC102B14F087FB41ECEE
:103010001A0B53EC192B14F057F941EC180B14F060
:1030200065F8A049886740E09E4890ED210A10EEBF
:10303000101A084614F010FF41EC1A0B994890ED55
:103040001F0A10EE101A084614F006FF41EC1C0B84
:103050009FED9D0B53EC102B14F014FE41EC1B0B59
:103060001FED800B53EC102B14F058FB41EC180BA8
:1030700053EC1A2B14F028F941EC190B14F036F824
:103080008849886711E0874890ED1F0AF1EE000A31
:1030900030EE600A5FED8B0A20EE200AD0ED210AA7
:1030A00080EE201A80ED1E1A00BF00BFBDEC0A8B17
:1030B00010BD10B52DED048B7A4890F872000128F0
:1030C00032D1784890F8700001282DD175484078A9
:1030D000012829D17E480068401C7D4908600846C7
:1030E0000068142830DA6F4890ED1F0AF1EE000AEC
:1030F000B4EEE00AF1EE10FA26DD90ED210A10EEB2
:10310000101A084614F0A8FE41EC190B9FED710B44
:1031100053EC102B14F002FB41EC180B13F0E6FFFC
:103120006049C1F884000FE00020694908605D48EB
:1031300090ED210AB5EEC00AF1EE10FA04D067480E
:1031400090ED040A80ED030ABDEC048B10BD10B5B0
:103150002DED088B6249B1F83D0014F08FFA41EC77
:103160001B0B9FED600B53EC102B14F0D7FA41ECC6
:10317000190B5B49B1F83F20B1F84E10501A14F00A
:1031800066FA41EC1A0B53EC192B13F0E1FF41ECFA
:10319000180B13F0ABFF4349C1F88C00084690EDC3
:1031A000230AF2EE0E0AB4EEE00AF1EE10FA02DDA6
:1031B0000120487002E000203A494870BDEC088BBD
:1031C00010BD10B52DED028B2D20364981F8800001
:1031D000FFF74AFD454800780B2861D04348007846
:1031E0000C28FAD02F4890ED1E0AB5EEC00AF1EE79
:1031F00010FA56DD90F87200012852D1294890F853
:1032000070000128F9D1274840780128F5D13848C5
:103210000068401C364908600968FA290FD335490F
:10322000D1F8A001002801DB014600E0414203295A
:1032300005DA01203049087000202D4908602E4829
:10324000007801287DD12D480068401C2B4908607A
:1032500008460068962804D90020274908702749A5
:103260000860104890ED210ADFED250A20EE200AC3
:10327000DFED240A20EE200ADFED230A80EE201A7B
:1032800090ED070A30EE410A80ED050A194890EDED
:103290006A1BB0EE410AF0EE610A51EC100B35E00A
:1032A000BEE0AFE0E8020020666666666666124031
:1032B0000000000000001440333333333333174031
:1032C0003333333333331B409A99999999991D407D
:1032D000B8030020333333333333F33F740D00200E
:1032E000982F0020FCA9F1D24D62603F74040020A9
:1032F000A8030020282D0020B0030020AC030020EC
:1033000000003442000010420000FA4313F0EEFEC9
:10331000FB49C861FB48D0F8A00100EE100AB8EEE6
:10332000C00A084680ED030AD0ED031AB0EE611A18
:10333000D0ED071AF0EE610AD0ED051AB0EE610A81
:1033400000E00EE0DFEDF01A021DF049F04801F058
:103350000CF8BDEEC00A10EE100A00B2E849A1F860
:103360006400E74890F8720000284AD0E9480078E5
:10337000002846D1E24890ED210A5FED1F0A20EEB9
:10338000200A5FED200A60EE200A1FED211A80EE70
:10339000810AD0ED070A30EE200A80ED050AD948EF
:1033A00090ED6A1BB0EE410AF0EE610A51EC100B91
:1033B00013F09CFED249C861D248D0F8A00100EEBB
:1033C000100AB8EEC00A084680ED030AD0ED031AD1
:1033D000B0EE611AD0ED071AF0EE610AD0ED051AD1
:1033E000B0EE610ADFEDC81A021DC849C84800F0F6
:1033F000BCFFBDEEC00A10EE100A00B2C049A1F831
:10340000640084E0C24890ED040A80ED030A0020C5
:10341000BB49A1F86400C0490860C049086076E073
:10342000B74890F87200012863D1BD48007D01289B
:103430000ED1BC48007830B90120BA490870B049B3
:1034400081F8700007E00020AD4981F8700002E0CB
:103450000020B4490870AA4890F8700001280DD1E6
:10346000A748D0ED050A90F8800000EE100AB8EEEB
:10347000400A30EE800AA24880ED050AA14890ED8E
:103480006A1BB0EE410AF0EE610A9FEDA71B53ECF8
:10349000112B51EC100B13F017FF41EC180B13F02C
:1034A00025FE9749C8619748B0F9B40100EE100AAB
:1034B000B8EEC00A084680ED030AD0ED031AB0EE5C
:1034C000611AD0ED071AF0EE610AD0ED051AB0EEE0
:1034D000610ADFED8D1A021D9549964800F045FFFF
:1034E000BDEEC00A10EE100A00B28549A1F86400D2
:1034F0000DE0874890ED040A80ED030A804890EDC6
:10350000070A80ED050A00207D49A1F86400BDECA2
:10351000028B10BD10B52DED028B2D20784981F85E
:103520008000FFF7A1FB844800780B286ED082480A
:1035300000780C286AD0724890ED1E0AB5EEC00AD9
:10354000F1EE10FA54DD90F87200012850D16C4869
:1035500090F8700001284BD169484078012847D184
:10356000674890ED210A5FED9A0A20EE200A5FED90
:103570009B0A20EE200A1FED9C1AC0EE010A90ED76
:10358000070A30EE800A80ED050A5E4890ED6A1B5E
:10359000B0EE410AF0EE610A51EC100B13F0A6FDFB
:1035A0005749C8615748D0F8A00100EE100AB8EE9C
:1035B000C00A084680ED030AD0ED031AB0EE611A86
:1035C000D0ED071AF0EE610AD0ED051AB0EE610AEF
:1035D000DFED4D1A021D4D494D4800F0C6FEBDEE0F
:1035E000C00A10EE100A00B24549A1F8640084E058
:1035F000474890ED040A80ED030A00204049A1F8F5
:103600006400454908604549086076E03C4890F808
:103610007200012863D14248007D01280ED1414843
:10362000007830B901203F490870354981F87000B1
:1036300007E00020324981F8700002E0002039499B
:1036400008702F4890F8700001280DD12C48D0ED5B
:10365000050A90F8800000EE100AB8EE400A30EE3D
:10366000800A274880ED050A264890ED6A1BB0EED7
:10367000410AF0EE610A9FED2C1B53EC112B51EC2B
:10368000100B13F021FE41EC180B13F02FFD1C4919
:10369000C8611C48B0F9B40100EE100AB8EEC00AC7
:1036A000084680ED030AD0ED031AB0EE611AD0EDA2
:1036B000071AF0EE610AD0ED051AB0EE610ADFEDEF
:1036C000121A021D1A491B4800F04FFEBDEEC00A37
:1036D00010EE100A00B20A49A1F864000DE00C488F
:1036E00090ED040A80ED030A054890ED070A80ED8D
:1036F000050A00200249A1F86400BDEC028B10BD50
:10370000E8020020282D002000000000D01B00202F
:10371000740D0020B0030020A8030020AC0300209B
:1037200054300020B1030020000000C0F30D4240DF
:10373000F00E0020A40E00207404002010B5744880
:1037400090F87200012820D17148D0ED2A0AB0EE1D
:10375000600AFFF75EF96E48D0ED090AF1EE600AE3
:1037600030EE200A6B4880ED030A6948D0ED2A0A42
:10377000B0EE600AFFF74DF96548D0ED090A30EE6A
:10378000C00A644880ED160A08E01FED210A61486E
:1037900080ED030A1FED240A80ED160A5E48D0F87A
:1037A000A00100EE100AB8EEC00A5A4880ED040AE3
:1037B0005948D0F8F80100EE100AB8EEC00A554892
:1037C00080ED170A90ED031AF0EE410A90ED041A0D
:1037D000B0EE410A00F030FABDEEC00A10EE100A59
:1037E00000B24B49A1F868004A4890ED161AF0EE75
:1037F000410A90ED171AB0EE410A4C3000F01CFA65
:10380000BDEEC00A10EE100A01B24148A0F86A10DD
:1038100010BD10B54148807E012802D0032864D134
:1038200025E03E48C07F40B10120394981F872004F
:1038300001023B4808F0D8FF08E00020344981F835
:1038400072004FF48071364808F0D0FF3348B0F969
:10385000080040F2DC51884204DD01202C4981F847
:10386000700003E000202A4981F8700044E02B48F2
:10387000007D012803D1264981F8700003E0002073
:10388000234981F87000254890F8460080B120480F
:1038900090F8720060B90020224908804FF48071CE
:1038A0001F4808F0A1FF0120194981F872001BE0B0
:1038B0001A4890F83600B8B1154890F872000128FF
:1038C00012D118480088401C164908800846008814
:1038D000B0F57A7F08DB4FF48071114808F086FF5D
:1038E00000200B4981F8720006E00020084981F8A9
:1038F000700081F8720000BF00BF10BD10B5FFF767
:1039000088FFFFF75EFCFFF719FFFFF720FC10BDF3
:10391000E8020020B41C0020182B002054300020A6
:1039200000000240B203002010B59FED9D1ADFEDAC
:103930009C0AB2EE0E0A0A2342F210720321994841
:1039400000F0D5FC9FED961ADFED950AB1EE000A66
:103950000A234FF49672032192484C3000F0C7FCC2
:103960009FED8F1ADFED8E0AB2EE000A0A2342F2B3
:10397000107203218B48983000F0B9FC9FED881A33
:10398000DFED870AB1EE000A0A234FF49672032195
:103990008448E43000F0ABFC10BD8348807E0128F1
:1039A00002D003282DD110E07F48B0F9080040F282
:1039B000DC51884204DD02207A491C39087603E094
:1039C000012078491C3908761CE0774890F83200CD
:1039D00048B174481C38007E012804D10220714986
:1039E0001C3908760CE0704890F8330040B16D48FF
:1039F0001C38007E022803D101206A491C39087650
:103A000000E000BF00BF704710B52DED048BFFF73D
:103A1000C4FF64481C38807800286FD161491C3984
:103A200008769FED620A084680ED030A6048006C44
:103A300000EE100AB8EEC00A084680ED040A90EDC8
:103A4000031AF0EE410A90ED041AB0EE410A1C3060
:103A500000F0F2F8BDEEC00A10EE100A01B25148B3
:103A60001C3881825249B1F9560013F0F0FD41EC47
:103A7000190BB0EE490AF0EE690A11F011FFB0EE31
:103A8000408AF0EE608A9FED4B0B53EC102B51EC0B
:103A9000180B13F0E9FF31D24549086C13F0D7FD3C
:103AA00041EC190BB0EE490AF0EE690A11F0F8FE8C
:103AB000B0EE408AF0EE608A9FED400B53EC102B85
:103AC00051EC180B13F0EEFD18D236481C38008864
:103AD000401C34491C39088008460088B0F57A7FBC
:103AE0000CDB334880683249886100212D481C383E
:103AF000818201202B491C390876887029481C389E
:103B00008078012849D1002026491C3908800846C0
:103B1000007E022805D19FED2B0A084680ED010AA0
:103B200005E09FED1F0A1F481C3880ED010A204860
:103B3000006C00EE100AB8EEC00A1A481C3880ED7E
:103B4000040A1B4890ED121BB0EE410AF0EE610A28
:103B500051EC100B13F0CAFA12491C398860084660
:103B6000D0ED041AB0EE611AD0ED021AF0EE610A3F
:103B7000D0ED011AB0EE610ADFED091A00F10C0276
:103B8000B43100F5807000F0F0FBBDEEC00A10EE1D
:103B9000100A01B203481C388182BDEC048B10BDB1
:103BA00000000000580F0020543000200000C842E0
:103BB000E02E0020000000000050944000000000B3
:103BC0000000F03F00C05AC5D0ED000AF4EEC00A74
:103BD000F1EE10FA01DD80ED000AD0ED000AB1EE41
:103BE000401AF4EEC10AF1EE10FA03D2F1EE400AE7
:103BF000C0ED000A70470364C263816380ED000A70
:103C0000C0ED010A80ED021A704780ED000AC0ED98
:103C1000010A80ED021ADFEDFE1AC0ED081ADFED91
:103C2000FC1AC0ED091ADFEDFA1AC0ED0A1ADFED31
:103C3000F81AC0ED0B1A704710B52DED088B04462D
:103C4000B0EE408AF0EE608A84ED048AC4ED038A07
:103C500038EEC80A84ED070A94ED0C0AB5EEC00AE6
:103C6000F1EE10FA27D094ED0C0A10EE101A084667
:103C700014F0F2F841EC190B94ED070A10EE101A4B
:103C8000084614F0E9F841EC1B0BB0EE4B0AF0EEDD
:103C90006B0A11F005FEB0EE40AAF0EE60AA53ECFC
:103CA000192B51EC1A0B13F0DFFE04D29FEDD80A4A
:103CB000BDEC088B10BDA06B03283ED194ED000A2B
:103CC000D4ED070A20EE200A84ED080A94ED090AD3
:103CD000D4ED010A94ED071A00EE810A84ED090A79
:103CE00094ED070AD4ED060A30EE600AD4ED020A1C
:103CF00020EE200A84ED0A0AD4ED100AF8EE600ADC
:103D0000B0EE600A04F12400FFF75EFF94ED080AAC
:103D1000D4ED090A30EE200AD4ED0A0A30EE200A6A
:103D200084ED0B0AD4ED0F0AF8EE600AB0EE600ADB
:103D300004F12C00FFF748FF42E0A06B04283FD1BC
:103D400094ED070AD4ED060A30EE600AD4ED000ABD
:103D500020EE200A84ED080A94ED010AD4ED070A4A
:103D600020EE200A84ED090A94ED070AD4ED060A34
:103D7000B0EE001A01EE600AD4ED050A30EE200A1A
:103D8000D4ED020A20EE200A84ED0A0A94ED080A16
:103D9000D4ED090A30EE200AD4ED0A0A30EE200AEA
:103DA000D4ED0B0A30EE200A84ED0B0AD4ED0F0A95
:103DB000F8EE600AB0EE600A04F12C00FFF704FF91
:103DC00094ED060A84ED050A94ED070A84ED060ACF
:103DD00094ED0D0AB5EEC00AF1EE10FA25D094ED7F
:103DE0000D0A10EE101A084614F036F841EC190BC3
:103DF00094ED0B0A10EE101A084614F02DF841EC61
:103E00001B0BB0EE4B0AF0EE6B0A11F049FDB0EE61
:103E100040AAF0EE60AA53EC192B51EC1A0B13F0E8
:103E200041FC02D29FED7A0A42E794ED0B0A3FE78C
:103E300010B52DED088B0446B0EE408AF0EE608A96
:103E400084ED048AC4ED038A38EEC80A84ED070ABB
:103E500094ED0C0AB5EEC00AF1EE10FA27D094EDFD
:103E60000C0A10EE101A084613F0F6FF41EC190B7D
:103E700094ED070A10EE101A084613F0EDFF41EC1E
:103E80001B0BB0EE4B0AF0EE6B0A11F009FDB0EE21
:103E900040AAF0EE60AA53EC192B51EC1A0B13F068
:103EA000E3FD04D29FED5A0ABDEC088B10BDA06B58
:103EB00003283ED194ED000AD4ED070A20EE200A33
:103EC00084ED080A94ED090AD4ED010A94ED071A6D
:103ED00000EE810A84ED090A94ED070AD4ED060A82
:103EE00030EE600AD4ED020A20EE200A84ED0A0AC0
:103EF000D4ED100AF8EE600AB0EE600A04F1240076
:103F0000FFF762FE94ED080AD4ED090A30EE200AAC
:103F1000D4ED0A0A30EE200A84ED0B0AD4ED0F0A24
:103F2000F8EE600AB0EE600A04F12C00FFF74CFED8
:103F30003EE0A06B04283BD194ED070AD4ED060ABD
:103F400030EE600AD4ED000A20EE200A84ED080A63
:103F500094ED010AD4ED070A20EE200A84ED090A47
:103F600094ED070AD4ED060AB0EE001A01EE600ADD
:103F7000D4ED050A30EE200AD4ED020A20EE200A24
:103F800084ED0A0A94ED080AD4ED0A0A30EE200AFC
:103F9000D4ED0B0A30EE200A84ED0B0AD4ED0F0AA3
:103FA000F8EE600AB0EE600A04F12C00FFF70CFE98
:103FB00094ED060A84ED050A94ED070A84ED060ADD
:103FC00094ED0D0AB5EEC00AF1EE10FA28D094ED8A
:103FD0000D0A10EE101A084613F03EFF41EC190BC3
:103FE00094ED0B0A10EE101A084613F035FF41EC61
:103FF0001B0BB0EE4B0AF0EE6B0A11F051FCB0EE69
:1040000040AAF0EE60AA53EC192B51EC1A0B01E018
:104010000000000013F046FB02D21FED030A43E745
:1040200094ED0B0A40E710B52DED0A8B0446F0EE37
:10403000408AB0EE609AB0EE418AC4ED048A84ED05
:10404000039A39EE680A84ED070A18EE100A13F095
:1040500003FF41EC1A0B94ED070A10EE101A084604
:1040600013F0FAFE41EC1C0BB0EE4C0AF0EE6C0AB9
:1040700011F016FCB0EE40BAF0EE60BA53EC1A2B19
:1040800051EC1B0B13F00EFB04D21FED1F0A84ED45
:10409000070A1CE094ED070AB4EEC80AF1EE10FA24
:1040A00006DD94ED070A30EE480A84ED070A0EE0BB
:1040B00094ED070AF1EE480AB4EEE00AF1EE10FAC8
:1040C00005D294ED070A30EE080A84ED070A18EECF
:1040D000100A13F0C1FE41EC1A0B39EE680A10EE1B
:1040E000101A084613F0B8FE41EC1C0BB0EE4C0A57
:1040F000F0EE6C0A11F0D4FBB0EE40BAF0EE60BA0C
:1041000053EC1A2B51EC1B0B13F0CCFA03D21FED1E
:10411000400A84ED070A94ED0C0AB5EEC00AF1EEF0
:1041200010FA27D094ED0C0A10EE101A084613F07E
:1041300093FE41EC1A0B94ED070A10EE101A084694
:1041400013F08AFE41EC1C0BB0EE4C0AF0EE6C0A48
:1041500011F0A6FBB0EE40BAF0EE60BA53EC1A2BA9
:1041600051EC1B0B13F080FC04D21FED570ABDEC81
:104170000A8B10BDA06B03283ED194ED000AD4ED4C
:10418000070A20EE200A84ED080A94ED090AD4ED0E
:10419000010A94ED071A00EE810A84ED090A94EDF4
:1041A000070AD4ED060A30EE600AD4ED020A20EECA
:1041B000200A84ED0A0AD4ED100AF8EE600AB0EE87
:1041C000600A04F12400FFF7FFFC94ED080AD4ED27
:1041D000090A30EE200AD4ED0A0A30EE200A84EDF6
:1041E0000B0AD4ED0F0AF8EE600AB0EE600A04F193
:1041F0002C00FFF7E9FC42E0A06B04283FD194EDCE
:10420000070AD4ED060A30EE600AD4ED000A20EE6B
:10421000200A84ED080A94ED010AD4ED070A20EE85
:10422000200A84ED090A94ED070AD4ED060AB0EEDF
:10423000001A01EE600AD4ED050A30EE200AD4ED32
:10424000020A20EE200A84ED0A0A94ED080AD4ED51
:10425000090A30EE200AD4ED0A0A30EE200AD4ED25
:104260000B0A30EE200A84ED0B0AD4ED0F0AF8EEAB
:10427000600AB0EE600A04F12C00FFF7A5FC94ED93
:10428000060A84ED050A94ED070A84ED060A94ED0A
:104290000D0AB5EEC00AF1EE10FA25D094ED0D0A24
:1042A00010EE101A084613F0D7FD41EC1A0B94EDEE
:1042B0000B0A10EE101A084613F0CEFD41EC1C0B51
:1042C000B0EE4C0AF0EE6C0A11F0EAFAB0EE40BA29
:1042D000F0EE60BA53EC1A2B51EC1B0B13F0E2F921
:1042E00002D21FEDB50A42E794ED0B0A3FE72DE934
:1042F000F0412DED048B04460D4616461F46B0EEE8
:10430000408AF0EE608AB0EE419A2A486064B0EECE
:10431000491AF0EE680AB0EE480A3B463246294692
:104320002046D4F844C0E047BDEC048BBDE8F081E2
:104330001FEDC90A80ED080A1FEDCB0A80ED090ABE
:104340001FEDCD0A80ED0A0A1FEDCF0A80ED0B0AA2
:104350001FEDD10A80ED050A1FEDD30A80ED060A94
:104360001FEDD50A80ED070A704770B52DED048B5F
:1043700006460D461446B0EE408AF0EE608AB0EE76
:10438000419AF0EE619AF0EE480AB0EE680A3046C3
:10439000FFF752FC30EE290A84ED000A94ED000A82
:1043A000F0EE400AB0EE490A2846FFF745FCBDECA6
:1043B000048B70BDF73B0008F9A07047FA487047BE
:1043C00070B505460C4620460FF0C0FC70BD70B5B8
:1043D00005460C4620460FF0E8FC70BD2DE9F05F65
:1043E0000546884692462C46A06800EB080960689E
:1043F000484525D2D4F814B060684600BBF1000FE0
:1044000001D1DFF8A8B300E076004E45FCD3314679
:10441000584602F04BFE07460FB9BDE8F09F3846FC
:10442000D4E902210FF0A3FD206920B15846E168CC
:1044300002F044FE01E001202061E760666000BFF9
:10444000D4E902218818424651460FF090FDC4F885
:10445000089000BFE1E70146102901D20120704712
:10446000B1F5006F01D20220F9E7B1F5802F01D23A
:104470000320F4E7B1F1007F01D20420EFE705202B
:10448000EDE70146802901D201207047B1F5804F48
:1044900001D20220F9E7B1F5001F01D20320F4E7B1
:1044A000B1F1805F01D20420EFE70520EDE701467E
:1044B000002901DA0A207047802901DA0120FAE791
:1044C000B1F5804F01DA0220F5E7B1F5001F01DAFE
:1044D0000320F0E7B1F1805F01DA0420EBE705206B
:1044E000E9E770B505460E4634461CB92846FFF785
:1044F000C8FF70BD082C01D20520FAE7B4F5806F23
:1045000001D20620F5E7B4F5003F01D20720F0E71D
:10451000B4F1807F01D20820EBE7B4F1004F01D263
:104520000920E6E70A20E4E72DE9F05F80460D4622
:1045300092460026DAF8007015B90020BDE8F09F19
:10454000D8F80400FFF787FF814698F81C0000F0B8
:10455000010008B909FB05F998F80900112814D2DF
:10456000DFE800F0150948392B4E20493A4F4A50F0
:10457000541456667300002405E057F8240002F036
:10458000E3FD0644641CAC42F7D36EE000BF002498
:1045900005E057F82400FFF78AFF0644641CAC428C
:1045A000F7D362E0002405E057F82400FFF769FF25
:1045B0000644641CAC42F7D357E0002408E007EB44
:1045C000C400D0E90021104602F0C7FD0644641C77
:1045D000AC42F4D349E000BF002408E007EBC4017B
:1045E000D1E900211046FFF77CFF0644641CAC4271
:1045F000F4D33AE000BF00BF042000FB056634E0BE
:1046000000BF00BF082000FB05662EE02E442CE012
:1046100000240AE057F824000FF08AFC834658462D
:10462000FFF72FFF58440644641CAC42F2D31CE051
:10463000002407E057F834B05846FFF722FF5844EB
:104640000644641CAC42F5D30FE000240AE057F89E
:10465000240000F0D6F883465846FFF712FF58446E
:104660000644641CAC42F2D300BF00BF98F81C00A3
:1046700000F0010018B13046FFF703FF814409EB59
:1046800006005BE770B505460C460026687A1128DF
:1046900060D2DFE800F01211141D1C1F13151E203C
:1046A0002D3909104D575800206808B9012000E045
:1046B0000020064650E000BF00BF00BF00BF00BFA3
:1046C000206808B9012000E00020064644E000BF51
:1046D00000BF00BF00BF00210846D4E900325940A6
:1046E0005040014301D1012000E00020064633E0A4
:1046F00094ED000AB5EEC00AF1EE10FA01D10120E6
:1047000000E00020064627E094ED001BB0EE410AD1
:10471000F0EE610A53EC102B9FED251B51EC110BB1
:1047200012F02AFF01D1012000E00020064613E02C
:10473000206810B12068007808B9012000E000204E
:10474000064609E000BF206808B9012000E000200B
:10475000064601E0012600BF00BF304670BD70B5BF
:1047600004460D4629462046FFF78CFF08B100207D
:1047700070BD2946204600F0B0F8F9E770B5044650
:104780000E461546607A102802D0607A0E2814D1A1
:10479000296811B1A06988420ED1002070BD0000C7
:1047A000312E332E33000000FB4D0F00BC030020E0
:1047B000000000000000000002E00EB90020EDE75C
:1047C0002946204600F089F8E8E770B504460E4611
:1047D00015466068B04201D0002070BD607A102894
:1047E00002D0607A0E2807D1296811B1A0698842E9
:1047F00001D10020F1E700BF2946204600F06DF806
:10480000EBE72DE9F0470546002728680068ED49E9
:10481000884200D105E040F2CB22EBA1F7480FF02F
:1048200047FB002643E02868C06906EB460101EB20
:10483000C60100EB8104206900EB0509E06800EB8C
:104840000508207A28B94946204600F046F8074472
:104850002CE0207A012802D0207A03280BD1207F77
:1048600000F0040038B14A462046D8F80010FFF79F
:10487000ACFF07441AE0207A012807D14A462046B7
:10488000D8F80010FFF77AFF07440FE0207A0328DA
:1048900005D149462046FFF762FF074406E04A4635
:1048A0002046D8F80010FFF73FFE0744761C286822
:1048B0008069B042B7D8002609E0A86800EB06146A
:1048C0002068FFF7C8FDA16808440744761C6868A3
:1048D000B042F2D83846BDE8F0872DE9F0410646EF
:1048E0000D467068FFF7B7FD0446707A11285BD259
:1048F000DFE800F0100929211A2C152A222D323464
:10490000300F37454C00286802F01EFC2044BDE8FB
:10491000F08100BF2868FFF7CAFD2044F7E7286848
:10492000FFF7AFFD2044F2E7D5E90021104602F081
:1049300014FC2044EBE700BFD5E900211046FFF747
:10494000D0FD2044E3E700BF201DE0E700BF04F1F5
:104950000800DCE7601CDAE7201DD8E704F1080056
:10496000D5E72F681FB138460FF0E2FA00E00020CB
:1049700080464046FFF785FD20444044C7E72F6846
:104980003846FFF77EFD20443844C0E72F681FB14A
:104990003846FFF736FF00E0002080464046FFF72C
:1049A00070FD20444044B2E740F2CD1286A194A0AD
:1049B0000FF07EFA30B502460020802A21D3D3B210
:1049C00043F080050346401CCD54D209802A18D3F9
:1049D000D3B243F080050346401CCD54D209802A4F
:1049E0000FD3D3B243F080050346401CCD54D20907
:1049F000802A06D3D3B243F080050346401CCD5431
:104A0000D2090346401CCA5430BD70B505460C4659
:104A1000002D1CDAE8B240F080002070802040EACF
:104A2000E5106070802040EAA530A070802040EA48
:104A30006550E070802040EA25702071FF202072D0
:104A4000E071A0716071012060720A2070BD214682
:104A50002846FFF7AFFFF9E72DE9F04707468846FC
:104A6000144645463E462DB921463046FFF7A2FF83
:104A7000BDE8F087F0B240F080002070802040EA6E
:104A8000D6106070802040EA9630A070802040EA06
:104A90005650E070082D05D2280140EA16702071AA
:104AA0000520E5E76807400E40EA167040F08000F8
:104AB0002071ED084FF0050907E0E8B240F08002F0
:104AC000484609F101092254ED09802DF5D24846E6
:104AD00009F1010925544846CAE72DE9F041044689
:104AE0000D46B4F1005F05D2E0002946FFF762FFF2
:104AF000BDE8F0810020C00040EA5471E6002A467B
:104B00003046FFF7A9FFF3E770B504460D46294686
:104B10002068FFF7E2FF06462878217908432870CD
:104B2000A819D4E902210FF022FAA068304470BD20
:104B30002DE9F05F81460E4614462146D9F804005F
:104B4000FFF7CBFF054699F80900112874D2DFE87A
:104B500000F01309592D23651B5A2E665B677412EA
:104B60007C9CB200207820706119306802F002FB52
:104B70002844BDE8F09F00BF20782070611930689C
:104B8000FFF743FF2844F4E720782070611930686C
:104B9000FFF710FF2844ECE7207820706219D6E96F
:104BA0000071384602F0F1FA2844E2E700BF2078AD
:104BB00020706219D6E900713846FFF74DFF28448E
:104BC000D7E70000F9EEAA282E2E5C454D42454459
:104BD0004445445C73656E696F725C4175746F5FC8
:104BE00053686F6F745C70726F746F5C70726F7407
:104BF0006F6275662D632E63000000007C8A0108D9
:104C00003000000000BF00BF207840F00500207099
:104C10006119306802F0C8FA2844AAE700BF00BF53
:104C2000207840F0010020706219D6E90071384602
:104C300002F0BEFA28449CE747E020782070611912
:104C4000306802F0BCFA284493E7207840F0020074
:104C5000207004EB0508376827B9002088F80000A9
:104C6000012010E038460FF063F982464146504675
:104C7000FFF7A0FE834608EB0B00524639460FF0C3
:104C800076F90BEB0A00284473E7207840F0020025
:104C900020706719D6F8008039464046FFF78AFE33
:104CA000824607EB0A00424671680FF060F90AEB92
:104CB000080028445DE7207840F002002070611968
:104CC000306800F01BFA284453E740F27142AFF21B
:104CD0000811AFF2D4000FF0EBF810B50446112C18
:104CE00020D2DFE804F00A090C1211140B0D131581
:104CF0000E16180F1A1D1B0000BF00BF00BF00BF1B
:104D000000BF00BF042010BD00BF00BF00BF00BF38
:104D100000BF0820F7E70420F5E700BF0420F2E712
:104D20000820F0E74FF49E62AFF26411AFF230104A
:104D30000FF0BEF870B505460E461446E200314647
:104D400028460FF014F970BD70B505460E4614469E
:104D5000A200314628460FF00AF970BD014602292B
:104D600003D0072901D00A2901D104207047052961
:104D700003D0092901D00B2901D10820F6E7012031
:104D8000F4E72DE9FF4F87B082460D461F4609988C
:104D9000D0F800809AF81C0000F0010000286FD0C5
:104DA0001DB900200BB0BDE8F08F3946DAF80400D9
:104DB000FFF793FE8146387840F002003870CDF856
:104DC00018909AF80900FFF7C9FF68430590059805
:104DD000FFF757FB8346D94407EB09069AF8090009
:104DE0000E2870D2DFE800F01C2B075C3A114D084A
:104DF0005D120913701B00BF00BF2A4641463046B2
:104E0000FFF7A2FF06EB850675E000BF00BF2A464C
:104E100041463046FFF78EFF06EBC5066BE000BF4C
:104E2000CDF80880002407E0029951F824003146AB
:104E3000FFF7EBFD0644641CAC42F5D35BE0CDF814
:104E40000880002407E0029951F82400314602F05E
:104E500091F90644641CAC42F5D34CE0CDF80880CF
:104E600000240AE0029800EBC40103C93246CDE9F0
:104E7000000102F08AF90644641CAC42F2D33AE025
:104E800064E0CDF80880002407E0029951F824007E
:104E90003146FFF78FFD0644641CAC42F5D32AE08F
:104EA00000BFCDF8088000240AE0029800EBC4019E
:104EB00003C93246CDE90001FFF7CEFD0644641C6C
:104EC000AC42F2D317E00EE0CDF80880002407E0F2
:104ED000029951F82400314602F071F90644641C2D
:104EE000AC42F5D307E040F29A52AFF22431AFF270
:104EF000F0200EF0DDFF00BF07EB0900301A049030
:104F00000498FFF7BEFA03900398834516D00BF17F
:104F100001010398884200D106E04FF4B462AFF279
:104F20005831F7A00EF0C4FF07EB090107EB0902A7
:104F3000501C049A0FF060F809F10109069839181D
:104F40000498FFF737FD049848442BE700269AF8A9
:104F50000900FFF7C2FE8146002407E0BA19414666
:104F60005046FFF7E5FD0644C844641CAC42F5D347
:104F7000304617E770B504460D46164629462046CA
:104F8000FFF780FB08B1002070BD3246294620465D
:104F9000FFF7CEFDF8E72DE9F04104460E46154631
:104FA0001F46607A102802D0607A0E2808D129683E
:104FB00011B1A069884202D10020BDE8F08102E071
:104FC0000EB90020F9E73A4629462046FFF7B0FD22
:104FD000F3E72DE9F04104460E4615461F4660688A
:104FE000B04202D00020BDE8F081607A102802D0E3
:104FF000607A0E2807D1296811B1A069884201D1D1
:105000000020F0E700BF3A4629462046FFF790FD12
:10501000E9E72DE9F04706460F46002430680068AE
:10502000C249884200D106E040F2C652AFF2684160
:10503000BF480EF03DFF4FF0000849E03068C069FE
:1050400008EB480101EBC80100EB8105286900EB82
:10505000060AE86800EB0609287A30B93A19514681
:105060002846FFF765FD044430E0287A012802D085
:10507000287A03280CD1287F00F0040040B13B19A6
:1050800052462846D9F80010FFF7A3FF04441DE05C
:10509000287A012808D13B1952462846D9F8001031
:1050A000FFF779FF044411E0287A032806D13A1962
:1050B00051462846FFF75EFF044407E03B1952467D
:1050C0002846D9F80010FFF75CFE044408F10108F7
:1050D000306880694045B1D84FF0000808E0B268F8
:1050E00002EB08103919FFF70FFD044408F101081D
:1050F00070684045F3D82046BDE8F0872DE9F041BF
:1051000006460C4626B9002020700120BDE8F0813B
:10511000611C3046FFF77DFF05462846FFF7B1F9D1
:105120000746012F04D0E0192A46611C0EF064FFE7
:1051300021462846FFF73EFC2844E7E7FEB5044633
:105140000D4669462068FFF7C8FC06469DF800003A
:10515000217908438DF800006A46314628462B68BD
:105160009847D4E9021228462B689847A068304433
:10517000FEBD2DE9FF5F81460D4690461E46002785
:1051800099F809000E2872D2DFE800F01022075BC0
:10519000460B34085C0C090D720F00BF00BFAF0056
:1051A00086E000BF00BFEF0082E000BF00240CE0FB
:1051B00058F824006946FFF728FC82466A465146A3
:1051C0003046336898475744641CAC42F0D36CE0D7
:1051D00000240CE058F82400694601F0CBFF824619
:1051E0006A4651463046336898475744641CAC427F
:1051F000F0D35AE000240CE058F824006946FFF789
:10520000D9FB82466A465146304633689847574430
:10521000641CAC42F0D348E000240FE008EBC4006B
:105220006A46D0E900B1584601F0AFFF82466A46AF
:1052300051463046336898475744641CAC42EDD31E
:1052400033E000BF00240FE008EBC4006A46D0E959
:1052500000B15846FFF700FC82466A465146304688
:10526000336898475744641CAC42EDD31DE014E00A
:1052700000240CE058F82400694601F0A0FF8246A3
:105280006A4651463046336898475744641CAC42DE
:10529000F0D3284604B0BDE8F09F40F26B72AFF245
:1052A000D861AFF2A4600EF003FE00BF3846F1E70C
:1052B000424639463046336898473846EAE72DE992
:1052C000F04780460D461646002798F809000E283C
:1052D00073D2DFE800F01138075F500C4408600D0E
:1052E000090E701000BF00BFA800BDE8F08700BF26
:1052F00000BFE800F9E700BFB146002420E000004D
:1053000061637475616C5F6C656E6774685F736907
:105310007A65203D3D206C656E6774685F73697ABD
:10532000655F6D696E202B2031000000F9EEAA2820
:105330007C8A010859F82400FFF7B9F80744641C77
:10534000AC42F7D341E0B146002405E059F824000F
:1053500001F0FAFE0744641CAC42F7D335E0B146D5
:10536000002405E059F82400FFF78BF80744641C7B
:10537000AC42F7D329E0B146002408E009EBC400B1
:10538000D0E90021104601F0E8FE0744641CAC425D
:10539000F4D31AE000BFB146002408E009EBC400D2
:1053A000D0E900211046FFF79CF80744641CAC428A
:1053B000F4D30AE001E0284697E740F20572AFF225
:1053C000F871AFF2C4700EF073FD00BF38468CE781
:1053D0002DE9F04F85B004460F4692461D46DAF897
:1053E00000801FB9002005B0BDE8F08F207F00F0DD
:1053F000010000282FD069466068FFF76EFB064663
:10540000424639462046FFF75AFF81469DF8000084
:1054100040F002008DF800000DEB06014846FFF752
:10542000C9FA06446A46314628462B6898472B46F7
:10543000424639462046FFF79CFE8346CB4500D1C5
:1054400006E040F28972AFF68001FBA00EF030FD5D
:1054500006EB0900C7E74FF00009607AFFF73DFC53
:105460008346002607E02A464146204600F0C7F85A
:105470008144D844761CBE42F5D34846B3E770B5A4
:1054800004460D46164629462046FFF7FBF808B1AC
:10549000002070BD32462946204600F0B0F8F8E7FB
:1054A0002DE9F04104460E4615461F46607A102845
:1054B00002D0607A0E2808D1296811B1A06988420B
:1054C00002D10020BDE8F08102E00EB90020F9E72A
:1054D0003A462946204600F092F8F3E72DE9F041DC
:1054E00004460E4615461F466068B04202D00020B2
:1054F000BDE8F081607A102802D0607A0E2807D1CA
:10550000296811B1A069884201D10020F0E700BFED
:105510003A462946204600F072F8E9E72DE9F047BF
:1055200005468846002728680068C849884200D197
:1055300006E04FF4F662AFF67011C5480EF0B8FC05
:10554000002648E02868C06906EB460101EBC60169
:1055500000EB8104206900EB050AE06800EB050917
:10556000207A30B942465146204600F048F80744B8
:1055700030E0207A012802D0207A03280CD1207F45
:1055800000F0040040B1434652462046D9F80010CE
:10559000FFF7A4FF07441DE0207A012808D1434605
:1055A00052462046D9F80010FFF77AFF074411E071
:1055B000207A032806D1424651462046FFF75FFF76
:1055C000074407E0434652462046D9F80010FFF74B
:1055D000FFFE0744761C28688069B042B2D80026D6
:1055E00007E0A96801EB06104146FFF7A7FD074455
:1055F000761C6868B042F4D83846BDE8F0872DE9DB
:10560000F047CCB080460E46154647A9D8F80400AE
:10561000FFF763FA044698F80900112874D2DFE80E
:1056200000F01A095F4C3A742A604D7561768A1948
:105630009ABAD6009DF81C018DF81C0147AA1119D1
:10564000306801F097FD044447AA214628462B689C
:1056500098470EE100BF9DF81C018DF81C0147AA78
:1056600011193068FFF7D1F9044447AA21462846AA
:105670002B689847FDE09DF81C018DF81C0147AA96
:1056800011193068FFF796F9044447AA21462846C5
:105690002B689847EDE09DF81C018DF81C0147A888
:1056A0000219D6E90091484601F06FFD044447AA6B
:1056B000214628462B689847DBE000BF9DF81C0177
:1056C0008DF81C0147A80219D6E900914846FFF75A
:1056D000C3F9044447AA214628462B689847C8E0E6
:1056E00000BF00BF9DF81C0140F005008DF81C01B3
:1056F00047AA1119306801F057FD044447AA214612
:1057000028462B689847B4E0ABE000BF00BF9DF887
:105710001C0140F001008DF81C0147A80219D6E9D0
:105720000091484601F044FD044447AA214628461A
:105730002B6898479DE09DF81C018DF81C0147AA35
:105740001119306801F03BFD044447AA2146284660
:105750002B6898478DE037681FB138460EF0E8FB9C
:1057600000E0002081469DF81C0140F002008DF809
:105770001C0147A801194846FFF71CF9044447AA31
:10578000214628462B6898473A46494628462B68C2
:1057900098474C446DE0B146D9F800709DF81C0163
:1057A00040F002008DF81C0147A801193846FFF7A8
:1057B00001F9044447AA214628462B689847D9F89E
:1057C0000420394628462B6898473C4451E0D6F8D7
:1057D000009018221F4901A80EF050FC07A8049061
:1057E0009DF81C0140F002008DF81C01B9F1000F7A
:1057F00001D1002704E001A94846FFF78FFE0746C4
:1058000047A801193846FFF7D5F8044447AA2146AE
:1058100028462B689847049A394628462B689847AB
:105820003C4400BF0598D0B10698A8B104990698E9
:105830004268904713E00000746D70203D3D207079
:1058400061796C6F61645F6C656E0000F9EEAA2887
:105850007C8A01089481010804980EF0A6FA00BF22
:1058600007E040F26C62AFF6A041AFF66C400EF07C
:105870001FFB00BF20464CB0BDE8F087F0B50646E0
:10588000144616B94FF0FF30F0BD0022354622E035
:1058900002EB550351F83300A04201DD9D1A19E0D7
:1058A000581C01EBC000406801EBC3077F68C01BB8
:1058B00051F833703844A04204DC581C57193D1A83
:1058C000024607E051F83300201A01EBC3077F6856
:1058D0003844D9E700BF012DDAD8B5B101EBC200D9
:1058E0004368501C01EBC0004068C71A51F83200F1
:1058F000A04209DC51F832003844A04204DD51F8DE
:105900003200201A1844BFE700BF4FF0FF30BBE75A
:10591000F0B5064615461F46052E01D9052000E0C4
:10592000304684460878C0F3C3030424087800F0A6
:10593000F80008B90020F0BD087800F007003870C2
:10594000087800F0800010B92B600120F3E70122F5
:1059500011E0885C00F0800030B1885C00F07F00CE
:10596000A0400343E41D05E0885CA04003432B6096
:10597000501CE0E7521C6245EBD30020DBE710B57A
:105980000246002005E011F8014B04F0800303B942
:10599000401C131EA2F10102F5D110BD2DE9F74FF5
:1059A00086B081460E463068C569002445E104EBA7
:1059B000440000EBC40005EB8000007A02287AD195
:1059C00004EB440000EBC40005EB8000C06800EB72
:1059D000090704EB440000EBC40005EB80000069FC
:1059E00000EB090A04EB440000EBC40005EB800067
:1059F000C06800EB060804EB440000EBC40005EBB4
:105A000080000069304405903868002851D0D8F8EB
:105A10000000002842D004EB440101EBC40105EB77
:105A20008101487AFFF759F983463868D8F8002091
:105A3000104400FB0BF1089801F038FB0490049827
:105A400018B9002009B0BDE8F08F386800FB0BF2F0
:105A5000DAF8001004980EF08AFAD8F8003003FB48
:105A60000BF2059B1968D7F800C0049B0CFB0B30A8
:105A70000EF07DFA05980168089801F01FFBDAF82E
:105A80000010089801F01AFBDDE90401086038688D
:105A9000D8F800100844C8F8000006E03868C8F8D4
:105AA0000000DAF800100598016000203860CAF89C
:105AB0000000C0E0FFE704EB440000EBC40005EB8E
:105AC0008000007A012808D004EB440000EBC400F9
:105AD00005EB8000007A0328EBD104EB440000EBD7
