:020000040800F2
:10000000602F0020A9860008BD010008BF0100087C
:10001000C3010008C7010008CB0100080000000070
:10002000000000000000000000000000CF010008F8
:10003000D101000800000000D3010008D50100082C
:10004000C3860008C3860008C3860008C38600086C
:10005000C3860008C3860008C3860008C38600085C
:10006000C3860008C3860008C3860008C38600084C
:10007000C3860008C386000805530008E55500083C
:10008000C3860008C3860008C3860008834A0008A8
:10009000994A0008C3860008C3860008C386000882
:1000A000C3860008C3860008C3860008C38600080C
:1000B000A15C0008C35C0008E15C0008C38600087E
:1000C000C3860008C3860008C3860008C3860008EC
:1000D000C3860008A34D0008CF4F0008AF520008A8
:1000E000C3860008C3860008C3860008C3860008CC
:1000F000C3860008C3860008C3860008C3860008BC
:10010000C3860008C3860008035D0008C386000894
:100110007555000857580008E95D00080F5E000893
:10012000C3860008C3860008C3860008C38600088B
:10013000C3860008C3860008C3860008D34B0008A6
:10014000E94B0008C3860008C3860008C386000880
:10015000C3860008C3860008C3860008655A0008E5
:10016000C3860008C3860008C3860008C38600084B
:10017000C3860008C3860008C3860008C38600083B
:10018000C3860008C3860008DFF810D008F078FEA8
:1001900000480047A1010008AFF30080602F002055
:1001A00000F022F900F0D6F904E003480068401C92
:1001B00001490860F9E7000000000020704700BF17
:1001C000FEE700BFFEE700BFFEE700BFFEE77047A7
:1001D00070477047704700000CB5002001900090F8
:1001E0007648006840F480307449086000BF734866
:1001F000006800F4003000900198401C01900098C5
:1002000018B90198B0F5A06FF1D16C48006800F4FE
:10021000003010B10120009001E000200090009813
:10022000012846D165484030006840F0805063495D
:10023000403108606248006840F44040604908600E
:100240005E48083000685D4908310860084600686B
:1002500040F4004008600846006840F4A050086080
:100260005848091F0860081F006840F08070091F87
:10027000086000BF5148006800F000700028F9D005
:1002800040F20570504908604C480830006820F082
:1002900003004A49083108600846006840F002003F
:1002A000086000BF45480830006800F00C000828CE
:1002B000F8D10CBD10B54548006840F470004349C2
:1002C00008603E48006840F001003C49086000209A
:1002D0003A4908310860394800683D4908403749C3
:1002E00008603C48091D0860081F006820F4802051
:1002F000091F0860002031490C310860FFF76CFFCE
:100300004FF0006031498039086010BD70B50020A1
:100310000022022300240221284D08352D6805F013
:100320000C0020B1042806D0082834D107E02A4D5B
:100330002A4E356033E02A4D284E35602FE01F4DA0
:100340002D1D2D68C5F380541C4D2D1D2D6805F005
:100350003F0154B1224DB5FBF1F5184E361D3668FC
:10036000C6F3881605FB06F209E01B4DB5FBF1F557
:10037000124E361D3668C6F3881605FB06F20F4D81
:100380002D1D2D68C5F301456D1C6B00B2FBF3F507
:10039000124E356003E0104D104E356000BF00BFB7
:1003A000064D08352D68C5F303150E4E705D0B4DD7
:1003B0002D68C540094E356070BD00000038024010
:1003C0000070004008544007003C024088ED00E007
:1003D000FFFFF6FE103000240024F400040000208B
:1003E00000127A000800002010B54FF4A06005F05C
:1003F0002BFD04F01BFC184804F03EFC4FF4E130E8
:1004000004F02BFD4FF4E13004F079FE4FF4E130BD
:1004100004F0C4FF4FF4165005F013F905F09AFAF2
:10042000002303220821104604F0B8FA0023032217
:100430000821104604F04BFB05F082FB05F0ADFBF4
:1004400005F0E0FB05F0F7FB05F06CFC05F09BFC0C
:1004500005F04CFB10BD0000A086010008B5414826
:100460000068401C3F490860086800EBD0714910E3
:10047000A0EB410109B902F040FD3A4800680321B0
:1004800090FBF1F201FB1200B8B93748B0F92E0029
:1004900000903548B0F92C30B0F92A20B0F9281076
:1004A000324803F0BBFA3048B0F92E0000231A4658
:1004B000194600902E4803F0B1FA2A49086800EB6B
:1004C000D0714910A0EB410101290DD12648B0F9A6
:1004D000260000902448B0F92430B0F92220B0F969
:1004E0002010224803F00EFB1E480068142190FBE8
:1004F000F1F201FB120010B91E4804F0BBF91948D3
:1005000000680A2190FBF1F201FB120010B91A48B1
:1005100004F09EF9134800684FF47A7190FBF1F2F1
:1005200001FB120038B90421144806F0CDFC022169
:10053000124806F0C9FC0B4800684FF4FA6190FBC2
:10054000F1F201FB1200012803D104210B4806F04F
:10055000B9FC08BD10B500200249086000F010F891
:1005600010BD000018000020F001002000680040CD
:100570000064004066010020620100200008024083
:1005800010B5A821FE4808F0E9F80120FC490873DD
:10059000002048730864B1EE041ADFEDFA0AB1EEE8
:1005A0000C0A0A234FF4FA520321F74803F05BF8D0
:1005B000B2EE041ADFEDF30A9FEDF40A4FF4FA737A
:1005C00043F2B0620321F24803F04DF8B1EE041A91
:1005D000DFEDEC0AB1EE0C0A0A234FF4FA520321C4
:1005E000E9484C3003F03FF8B1EE001ADFEDE50AC0
:1005F0009FEDE60A4FF4FA7343F2B0620321E44838
:100600004C3003F030F8B1EE001ADFEDDE0AB1EE47
:100610000C0A0A234FF4FA520321DB48983003F006
:1006200022F8B2EE001ADFEDD70A9FEDD80A4FF498
:10063000FA7343F2B0620321D548983003F013F8FF
:10064000B1EE001ADFEDCF0AB1EE0C0A0A234FF427
:10065000FA520321CC48E43003F005F8B3EE041A53
:10066000DFEDC80A9FEDC90A4FF4FA7343F2B06296
:100670000321C748E43002F0F6FF002414E004EB45
:10068000440101EB0411C34A02EB81009FEDC21A41
:10069000DFEDC10A9FEDC10A4FF47A6343F6982259
:1006A000032102F0E0FF641C042CE8DB9FEDBC1A80
:1006B000DFEDB90A9FEDBB0A0A2341F270720321F4
:1006C000B94802F0D0FF10BD00B52DED0A8B89B0FE
:1006D000B0EE409A002022E000EB400101EB001157
:1006E000AC4A02EB810191ED000A00EB400101EB05
:1006F000001102EB8101D1ED020A70EE200AA0493F
:10070000983131F9101000EE101AB8EEC00A20EE40
:10071000800A05A901EB800181ED000A401C042834
:10072000DADB002046E000EB400101EB0011994AC2
:1007300002EB810191ED090A00EB400101EB001190
:1007400002EB8101D1ED000AB1EE601A8C49A031B3
:1007500031F9101000EE901AF8EEE00A01EE200ACE
:1007600000EB400101EB001102EB810191ED021A57
:100770008349A03131F9101000EE901AF8EEE00A2A
:1007800001EE600A00EB400101EB001102EB810178
:10079000D1ED020A00EB400101EB001102EB8101F7
:1007A00091ED061A00EEC10A01A901EB800181ED6D
:1007B000000A401C0428B6DB9DED050A20EE000A65
:1007C000DDED060A9DED061A00EE810ADDED070A51
:1007D0009DED071A00EE810ADDED080A9DED081A6D
:1007E00000EE810ADFED710A20EE208A9DED050AF8
:1007F000DDED010A20EE200ADDED060A9DED021A6C
:1008000000EE810ADDED070A9DED031A00EE810A74
:10081000DDED080A9DED041A00EE810ADFED640AA1
:1008200020EE200ADDED050A9DED061A70EE810A24
:100830009DED071A70EE810A9DED081A70EE810A8F
:100840009FED5C1A01EE200A9DED051A4C48B0F9A7
:10085000A00000EE900AF8EEE00A61EE200ADDED5D
:10086000061A4748B0F9A20001EE100AB8EEC11A04
:1008700041EE810ADDED071A4148B0F9A40001EE0E
:10088000100AB8EEC11A41EE810ADDED081A3C48A3
:10089000B0F9A60001EE100AB8EEC11A41EE810AC5
:1008A0009FED451AF0EE408A41EE208A9DED010A47
:1008B00020EE000ADDED020A9DED021A00EE810A2B
:1008C000DDED030A9DED031A00EE810ADDED040A59
:1008D0009DED041A00EE810ADFED340A20EE200AB5
:1008E000DDED010A9DED021A70EE810A9DED031AFD
:1008F00070EE810A9DED041A70EE810A9FED2D1AAB
:1009000000EE810A9DED011A1D48B0F9A00000EE2D
:10091000900AF8EEE00A61EE200ADDED021A1848AE
:10092000B0F9A20001EE100AB8EEC11A41EE810A38
:10093000DDED031A1248B0F9A40001EE100AB8EE7A
:10094000C11A41EE810ADDED041A0D48B0F9A60086
:1009500001EE100AB8EEC11A41EE810A9FED161A97
:1009600001EE200ADFED150A30EE200A70EE499AFA
:1009700028EEA80AF1EE000A68EE200A20E0000046
:10098000F0010020CDCCCC3DE41300200000484312
:100990004416002074170020000000000000A04250
:1009A0000000484200001644D80E002058DF2C34C6
:1009B00058DFAC346019C0B762BEBC37FA7EEA3F7C
:1009C00000EEE90A10EE101A084608F0C2F841ECF1
:1009D0001C0B9FEDFE0B53EC102B07F0DCFE41ECE3
:1009E0001B0BB0EE4B0AF0EE6B0A08F0E1FFB0EE25
:1009F00040AAF0EE60AA51EC1A0B08F0EDF800EEF8
:100A0000100AF1EE680A70EE200AB0EE000A28EE35
:100A1000001A80EE810A09B0BDEC0A8B00BDF0EE31
:100A2000400AB3EE001AB3EE090A10EE810AE94853
:100A300080ED000AB7EE000AE74880ED000AE548BD
:100A400090ED000A704710B52DED108B8CB000248E
:100A500097E0E24931F9141001EE101AB8EEC11A0C
:100A6000F0EE410ADD49083131F9141001EE101A97
:100A7000B8EEC11AB0EE410A04EB440101EB0411D7
:100A8000D74A02EB810002F0F7FBD64800EB840066
:100A900080ED000AD34800EB840090ED000ADFED02
:100AA000D20AB4EEE00AF1EE10FA07D89FEDCE0AB2
:100AB000CC4800EB840080ED000A12E0C94800EB4E
:100AC000840090ED000ADFEDC90AB4EEE00AF1EE11
:100AD00010FA06DB9FEDC50AC24800EB840080EDEA
:100AE000000AC04800EB8400D0ED000ABB48083083
:100AF00030F9140000EE100AB8EEC00A20EE800AA9
:100B0000BB48D0ED000A20EE200ABA4800EB840072
:100B100080ED000AB34800EB840090ED000AB6486F
:100B2000D0ED000A20EE200AAE4800EB8400D0EDA4
:100B3000000A20EE200AAB4800EB8400D0ED000A4A
:100B4000AE4890ED001A01EE200AAD48D0ED000A43
:100B500030EE200AAB4800EB840080ED000AA54887
:100B600000EB840090ED000AA64800EB8400D0ED75
:100B7000000A30EE200AA44800EB840080ED000A51
:100B8000641C042CFFF665AF9F4890ED000AD0ED81
:100B9000010A30EE200AD0ED020A30EE200AD0ED34
:100BA000030A30EE200A994880ED000A90ED000A11
:100BB000B5EEC00AF1EE10FA04D81FED890A80EDF7
:100BC000000A0DE0914890ED000ADFED910AB4EEC5
:100BD000E00AF1EE10FA03DB9FED8D0A80ED000ACA
:100BE0008A4890ED000ABCEEC00A10EE100A89494E
:100BF000088008460088002802DC0020088015E0F4
:100C00008448008800EE100AB8EE400A8248D0ED11
:100C1000000AB4EEE00AF1EE10FA07DB90ED000AEC
:100C2000BCEEC00A10EE100A7A4908807B48D0ED6D
:100C3000000A7848008800EE100AB8EE400A30EE4C
:100C4000C00ABCEEC00A10EE100A754908806F4851
:100C500090ED000A7048D0ED000AB4EEE00AF1EE23
:100C600010FA7CDD0024F9E0674800EB840090ED89
:100C7000000A6948D0ED000A20EE200A6348D0ED52
:100C8000000A80EE201A674800EB840080ED001A0D
:100C90005D4800EB840090ED000A5948D0ED000A51
:100CA000B4EEE00AF1EE10FA7EDD574800EB840066
:100CB00090ED000A5B4800EB8400D0ED000AB4EE32
:100CC000E00AF1EE10FA6FDD4B4890ED000A08A83B
:100CD00000EB840080ED000A04EB440000EB0410FC
:100CE0003F4901EB8000D0ED040A444890ED000A32
:100CF0003F4890ED001A01EE200A04A800EB8400A2
:100D000080ED000A474800EB840090ED000A3C4863
:100D1000D0ED000A30EEC00A684600EB840080ED9A
:100D2000000A304800EB840090ED000A10EE101A23
:100D3000084607F00EFF41EC190B08A800EB8400F1
:100D400090ED000AF0EE000A20EE200A10EE101AD4
:100D5000084607F0FEFE41EC1B0B04A800E081E012
:100D600000EB840090ED000A20EE000A08A800EBDA
:100D70008400D0ED000AB1EE001A60EE810A6846E8
:100D800000EB840090ED001A00EEC10A10EE101A7C
:100D9000084607F0DEFE41EC1F0BB0EE4F0AF0EE06
:100DA0006F0A08F005FE00E050E0B0EE40DAF0EE29
:100DB00060DA04A800EB840090ED000AB1EE400A6E
:100DC00010EE101A084607F0C4FE2DE000000000E7
:100DD0000000F03FB4000020700000205802002006
:100DE000441600204803002000401CC600401C465A
:100DF00098000020580300209C000020A000002044
:100E0000A400002068030020780300208400002054
:100E100000007A4462000020740000207800002066
:100E2000600000208803002053EC1D2B07F0B3FC6A
:100E300053EC1B2B07F0C8FD53EC192B07F0C4FD36
:100E400007F0CAFEFB4941F8240006E0B7EE000AAD
:100E5000F84800EB840080ED000A641C042CFFF6C7
:100E600003AF0BE0002007E0B7EE000AF14901EB09
:100E7000800181ED000A401C0428F5DB002025E0FC
:100E8000EC4901EB800191ED000AB5EEC00AF1EEEC
:100E900010FA07D89FEDE80AE64901EB800181EDE1
:100EA000000A12E0E34901EB800191ED000AF7EE40
:100EB000000AB4EEE00AF1EE10FA06DBB7EE000A23
:100EC000DC4901EB800181ED000A401C0428D7DBDE
:100ED0000CB0BDEC108B10BD10B5D848D0F8260072
:100EE00000EE100AF2EE0E0AB4EEE00AF1EE10FA8D
:100EF00013DDD248D0F8260000EE100AFFF78FFD70
:100F0000CF4880ED000AFFF79EFD9FEDCE0AFFF768
:100F1000DBFBCD4880ED000AB1E0C848D0F82600E0
:100F200000EE100AF1EE040AB4EEE00AF1EE10FA57
:100F300074D2C64890F83A00012807D19FEDC40A40
:100F4000FFF7C2FBC04880ED000A98E0BF4890F868
:100F50003A00022807D19FEDBF0AFFF7B5FBBA4858
:100F600080ED000A8BE0B94890F83A00032807D1D9
:100F70009FEDB90AFFF7A8FBB34880ED000A7EE0B9
:100F8000B24890F83A00042807D19FEDB40AFFF761
:100F90009BFBAD4880ED000A71E0AC4890F83A0048
:100FA000052807D19FEDAE0AFFF78EFBA64880ED1E
:100FB000000A64E0A54890F83A00062807D19FEDA2
:100FC000A90AFFF781FBA04880ED000A57E09F487F
:100FD00090F83A00072807D19FEDA30AFFF774FBAA
:100FE000994880ED000A4AE0984890F83A000828AD
:100FF00007D19FED9E0AFFF767FB934880ED000A3B
:101000003DE0924890F83A00092808D19FED980AEF
:10101000FFF75AFB8C4880ED000A30E01EE08B4859
:1010200090F83A000A2807D19FED920AFFF74CFB8F
:10103000854880ED000A22E08048D0F8260000EEC6
:10104000100AFFF7ECFC7E4880ED000A90ED000AE4
:10105000FFF73AFB7C4880ED000A10E07748D0F8B3
:10106000260000EE100AFFF7DAFC754880ED000A52
:1010700090ED000AFFF728FB734880ED000A7E48D8
:1010800090ED000AB5EEC00AF1EE10FA04D89FED1B
:101090006A0A80ED000A0DE0774890ED000AF7EE4D
:1010A000000AB4EEE00AF1EE10FA03DBB7EE000A34
:1010B00080ED000A644890ED000AB5EEC00AF1EE3A
:1010C00010FA04D89FED5C0A80ED000A0DE05E483E
:1010D00090ED000AF7EE000AB4EEE00AF1EE10FA25
:1010E00003DBB7EE000A80ED000A10BDDFED630AF6
:1010F000B4EEE00AF1EE10FA06DBDFED600A70EE06
:10110000600AB0EE600A0AE0B5EEC00AF1EE10FA2D
:1011100005D2DFED5A0A70EE200AB0EE600A704781
:1011200010B52DED0A8BB0EE409AF0EE609AB0EE5D
:10113000418A9FED530B53EC102B51EC190B07F028
:10114000D1FB41EC1C0B9FED500B53EC102B07F027
:10115000C9FB41EC1B0B9FED4E1BB0EE4B0AF0EEB2
:101160006B0A08F077FAB0EE40AAF0EE60AA51ECF4
:101170001A0B07F031FD08EE100AB5EEC08AF1EE49
:1011800010FA05D29FED3D0A38EE000AB0EE408A13
:1011900018EE100A07F0DDFC41EC100BBDEC0A8BD9
:1011A00010BD9FED250A3C4880ED010A9FED220A03
:1011B00080ED000A9FED200A80ED020A9FED1E0AD5
:1011C000364880ED120A704710B52DED028B33487A
:1011D00090ED161BB0EE410AF0EE610A9FED2A1B5E
:1011E00053EC112B51EC100B07F07CFB41EC180B6E
:1011F00007F0F2FC294908652948B0F90C0000EE17
:10120000100AB8EEC00A244880ED010A2448B0F95B
:101210000A0000EE100AB8EEC00A1F4880ED000A6E
:101220001F48807803283FD19FED030A1D4880EDB9
:10123000000A3EE0B803002000000000E223002086
:10124000780000200000C3436C00002038220020FA
:10125000000034420000484200005C42000070423E
:101260000000824200008C42000096420000A04232
:101270000000B4420000C84270000020DB0FC940EB
:10128000000000000000F0BF000000A046DF913F1A
:1012900000000060FB211940F001002090010020B7
:1012A00046230020300000201FED1D0AFE4880ED7F
:1012B000000AFE48D0ED140AB0EE600AFA4890ED3C
:1012C000001A5FED230AFA4801F072FEB1EE400AFF
:1012D000F64880ED120ABDEC028B10BD10B52DED65
:1012E000068BB0EE408AF0EE608AF24890ED000A7C
:1012F000F7EE000A30EE200A80ED000A18EE900AA0
:1013000007F027FC41EC1A0B9FEDEB0B53EC102B75
:1013100007F0E8FA41EC190B07F05EFCE8490860B9
:10132000E44890ED000A20EE080AE64880ED000A45
:10133000084690ED000AE348D0ED000A20EE200AAE
:1013400010EE101A084607F004FC41EC1A0BB0EE40
:101350004A0AF0EE6A0A08F0FFF9B0EE409AF0EEA1
:10136000609A51EC190B07F037FCD7490860D44854
:1013700090ED000AD348D0ED000A20EE200A10EECE
:10138000101A084607F0E5FB41EC190B9FEDCF0B57
:1013900053EC102B07F008FC04D81FED590AC9487C
:1013A00080ED000AC84890ED000ABDEC068B10BD28
:1013B000C848B0F90C0000EE100AB8EEC00AC648E2
:1013C00080ED010AC348B0F90A0000EE100AB8EE39
:1013D000C00AC14880ED000A1FED690AB34880EDDC
:1013E000120A704710B52DED0A8BB04890ED161B10
:1013F000B0EE410AF0EE610A1FED5D1B53EC112BBC
:1014000051EC100B07F06EFA41EC180B07F0E4FBFF
:10141000A6490865AF48807803283CD1AE4890EDD6
:10142000000AB5EEC00AF1EE10FA34D190ED010ACF
:10143000B5EEC00AF1EE10FA2DD1A848008807F0E9
:1014400043FB41EC190BDFEDA60A9FEDA60AFFF75F
:1014500045FF10EE104A204607F07BFB41EC1C0BC9
:101460009FEDA10B53EC102B07F03CFA41EC1B0B4A
:101470009FED9F0B53EC102B07F031FA41EC1A0B48
:1014800053EC192B07F02EFA41EC180B07F048FB30
:101490009949088059E0994890F83A00012803D109
:1014A0004FF4E17094490880944890F83A0002287B
:1014B00003D14FF4E17090490880904890F83A00C9
:1014C000032803D14FF4FA708B4908808B4890F8B9
:1014D0003A00042803D14FF4FA70874908808748FE
:1014E00090F83A00052803D140F22620824908806E
:1014F000824890F83A00062803D140F226207E491F
:1015000008807E4890F83A00072803D14FF41670FF
:1015100079490880794890F83A00082803D14FF4B7
:10152000167075490880754890F83A00092803D16B
:1015300040F28A2070490880704890F83A000A28E2
:1015400003D140F28A206C4908806248B0F90C004F
:1015500000EE100AB8EEC00A5F4880ED010A5D484F
:10156000B0F90A0000EE100AB8EEC00A5A4880ED41
:10157000000A407B07280DD06148007818B9012087
:101580005F49087006E05E480078012802D100201B
:101590005B4908705A48007850B957480088404263
:1015A00000EE100AB8EEC00A404880ED120A0CE0C6
:1015B00053480078012808D14F48008800EE100AEF
:1015C000B8EE400A394880ED120ABDEC0A8B10BD16
:1015D00010B52DED028B3F48B0F90C0000EE100A5B
:1015E000B8EEC00A3C4880ED010A3A48B0F90A005A
:1015F00000EE100AB8EEC00A374880ED000A2B480A
:1016000090ED161BB0EE410AF0EE610A1FEDE21BF1
:1016100053EC112B51EC100B07F064F941EC180B53
:1016200007F0DAFA214908650846D0ED140AB0EE51
:10163000600A1D4890ED001ADFED320A1C4801F0E7
:10164000B7FC1A4880ED120ABDEC028B10BD10B534
:101650002DED108B154890ED140A2B4880ED000AF3
:1016600000249FE1C4EB041101EB4101872202EB4E
:10167000410007F018FA9FED250B53EC102B07F0F3
:1016800031F99FED240B53EC102B07F09DF941EC41
:101690001D0BB0EE4D0AF0EE6D0A07F0C5FEB0EE80
:1016A00040BAF0EE60BA39E030000020900100202E
:1016B000D80E0020EC0000206E861BF0F9211940A6
:1016C000F4000020E8000020F00000201F85EB510E
:1016D000B81E194046230020F0010020B800002069
:1016E000C3F5A83E6F12033B9A9999999999D93FEE
:1016F0009A99999999990140580000203822002020
:101700005A00002000000000F80000201F85EB5167
:10171000B81E09400000000000806640FE4890EDC1
:10172000120A10EE101A084607F013FA53EC1B2B9E
:1017300007F0D8F841EC190BF84890ED000AB1EE2B
:10174000400A10EE100A07F004FA41EC1F0BB0EE4D
:101750004F0AF0EE6F0A07F0FFFFB0EE40DAF0EE4E
:1017600060DAEF4890ED010A10EE101A084607F013
:10177000F0F953EC1D2B07F0B5F841EC1B0BE748D3
:1017800090ED000AB1EE400A10EE100A07F0E1F900
:1017900041EC1F0BB0EE4F0AF0EE6F0A07F044FE6B
:1017A000B0EE40DAF0EE60DADD4890ED000A10EEBF
:1017B000101A084607F0CDF953EC1D2B07F092F8EC
:1017C00053EC1B2B07F088F853EC192B07F084F827
:1017D00007F002FAD34941F82400C4EB041101EBED
:1017E00041012D2202EB410007F05DF91FED390B9D
:1017F00053EC102B07F076F81FED3A0B53EC102B3F
:1018000007F0E2F841EC1D0BB0EE4D0AF0EE6D0A68
:1018100007F00AFEB0EE40BAF0EE60BABE4890EDB6
:10182000120A10EE101A084607F093F953EC1B2B1E
:1018300007F058F841EC190BB84890ED000AB1EEEA
:10184000400A10EE100A07F084F941EC1F0BB0EECD
:101850004F0AF0EE6F0A07F0E7FDB0EE40DAF0EE67
:1018600060DAAF4890ED010A10EE101A084607F052
:1018700070F953EC1D2B07F035F841EC1B0BA74812
:1018800090ED000AB1EE400A10EE100A07F061F97F
:1018900041EC1F0BB0EE4F0AF0EE6F0A07F05CFF51
:1018A000B0EE40DAF0EE60DA9D4890ED000A10EEFE
:1018B000101A084607F04DF953EC1D2B07F012F8EB
:1018C00053EC1B2B06F067FF53EC192B07F004F8C1
:1018D00007F082F9944941F82400924800EB840013
:1018E00090ED000A10EE101A084607F032F941ECAC
:1018F0001B0B8D4800EB840090ED000A10EE101ACF
:10190000084607F026F941EC1C0BB0EE4B1AF0EE3E
:101910006B1AB0EE4C0AF0EE6C0A07F085FCB0EEE4
:1019200040AAF0EE60AA1FED850B53EC102B51EC92
:101930001A0B06F0D7FF1FED8B0B53EC102B07F0A3
:1019400043F807F049F9794941F82400764800EB5B
:10195000840090ED000A20EE000A724800EB84003B
:10196000D0ED000A6F4800EB840090ED001A00EE05
:10197000810A10EE101A084607F0EBF841EC190B3B
:10198000B0EE490AF0EE690A08F012F8B0EE408AAB
:10199000F0EE608A51EC180B07F01EF9644941F82B
:1019A0002400641C042CFFF65DAE00201AE06049A0
:1019B00001EB800191ED000ABDEEC00A10EE101A95
:1019C0000AB25549403121F81020584901EB8001F5
:1019D00091ED000A5049283101EB800181ED000AA8
:1019E000411CC8B20428E2DBBDEC108B10BD30B541
:1019F0002DED108B85B01FEDBD0AF0EE408A1FED76
:101A0000BF0AB0EE408A1FEDC10AB0EE40FA1FEDEA
:101A1000C30AF0EE40FA0020019002900390049077
:101A20003D4890ED140AB1EE400AB0EE409A3C48B1
:101A3000007B072813D13F480078012806D19FED8D
:101A40003E0A39EE000AB0EE409A08E039480078C4
:101A500028B99FED390A39EE400AB0EE409A0024C9
:101A6000D8E0B0EE68FAF0EE48FAB0EE490A07F0B6
:101A70003FFD2B48D0ED000A20EE20AAB0EE490A27
:101A800007F0CEFE2648D0ED010A00EEC0AA00EE17
:101A9000104AB8EE400ADFED290A60EE200AB0EEE7
:101AA000001A80EE810ADFED260A30EE200AF0EE01
:101AB000409A07F01DFD1848D0ED120A00EE80AAEA
:101AC000F0EE4A8AB0EE490A07F0AAFE1448D0EDBB
:101AD000000A20EE20AAB0EE490A07F009FD1048DE
:101AE000D0ED010A00EE80AA00EE104AB8EE400ADE
:101AF000DFED120A20EE200AB0EE001AC0EE010A55
:101B00009FED0F0A30EE800AF0EE409A07F088FE53
:101B10000148D0ED120A15E090010020F8000020E5
:101B2000F0010020F803002008040020D803002062
:101B3000E80300205A000020920A863EDB0F49404D
:101B4000DB0F49BF00EE80AAB0EE4A8A403030F980
:101B5000140000EE100AB8EEC00A01A800EB8400E1
:101B600080ED000A28EEA80A08EE080A10EE101A06
:101B7000084606F0EEFF41EC1B0BB0EE4B0AF0EE10
:101B80006B0A07F015FFB0EE40AAF0EE60AA51EC28
:101B90001A0B06F0A6FF01B2FE4820F8141018EE4A
:101BA000900A06F0D6FF41EC1D0B18EE100A06F065
:101BB000D0FF41EC1E0BB0EE4D1AF0EE6D1AB0EEF8
:101BC0004E0AF0EE6E0A07F02FFBB0EE40CAF0EEC0
:101BD00060CA51EC1C0B06F0FFFF00EE100ADFEDAF
:101BE000EE0A20EE200A10EE105A284606F0B1FF49
:101BF00041EC1B0B9FEDE90B53EC102B06F0E4FEC0
:101C000041EC1A0B06F0E8FFE249183941F82400CC
:101C1000601CC4B2042CFFF624AFE248C0ED008A79
:101C2000E14880ED008A05B0BDEC108B30BD10B5E9
:101C3000FFF7DDFE10BD10B52DED0C8BB0EE408A28
:101C4000F0EE608AB0EE419AF0EE619AD1484038E9
:101C500090ED120AB5EEC00AF1EE10FA28D090ED20
:101C6000120A10EE101A084606F073FF41EC1D0B25
:101C7000B0EE4D0AF0EE6D0A07F0E2FCB0EE40BAAD
:101C8000F0EE60BAC348403890ED090A10EE101A21
:101C9000084606F05EFF41EC1C0B53EC1B2B06F0D4
:101CA00093FE41EC1A0B06F097FFC049086004E070
:101CB0009FEDBF0ABD4880ED000ABE4890ED000AC6
:101CC00007F0AEFDB948D0ED000A20EE200A10EE74
:101CD000104A204606F03DFF41EC1B0B51EC180B5F
:101CE00081F0004141EC1D0B9FEDB30B53EC102B29
:101CF00006F06AFE41EC1C0B53EC1B2B06F04BFD6F
:101D000041EC1A0B06F068FFAD490860A94890ED58
:101D1000000A07F085FDA548D0ED000A20EE200A54
:101D200010EE104A204606F014FF41EC1B0B9FED0D
:101D3000A20B53EC102B51EC180B06F045FE41ECB6
:101D40001C0B53EC1B2B06F026FD41EC1A0B06F086
:101D500043FF9C490860974890ED000A07F0C8FBD4
:101D60009248D0ED000A20EE200A10EE104A2046DC
:101D700006F0EFFE41EC1B0B51EC190B81F000411A
:101D800041EC1D0B9FED8C0B53EC102B06F01CFE51
:101D900041EC1C0B53EC1B2B06F0FDFC41EC1A0B29
:101DA00006F01AFF88490860824890ED000A07F0A3
:101DB0009FFB7E48D0ED000A20EE200A10EE104A6C
:101DC000204606F0C6FE41EC1B0B9FED7B0B53EC4F
:101DD000102B51EC190B06F0F7FD41EC1C0B53ECEA
:101DE0001B2B06F0D8FC41EC1A0B06F0F5FE7749E8
:101DF00008607748007B072827D1764800780128BB
:101E00000FD16448403890ED080AD0ED130A30EE47
:101E1000600ADFED710A30EE600A664880ED000A64
:101E2000F7E06C48007800280ED15A48403890ED11
:101E3000080AD0ED130A30EE600ADFED670A30EED3
:101E4000200A5C4880ED000AE3E05248403890EDFB
:101E5000140A5FEDC50AB4EEE00AF1EE10FA21DDD6
:101E600090ED140ADFED5D0AB4EEE00AF1EE10FA2F
:101E700018D8D0ED140AB0EE600ADFED4D0A5848CC
:101E800001F0FAF9B1EE400A4248403880ED120AFA
:101E900090ED080AD0ED130A30EE600A454880ED57
:101EA000000AB6E03B48403890ED140ADFED4B0ADB
:101EB000B4EEE00AF1EE10FA25DD90ED140ADFED44
:101EC000490AB4EEE00AF1EE10FA1CD8D0ED140A7B
:101ED000B0EE600ADFED440A414801F0CDF9B1EE01
:101EE000400A2C48403880ED120A90ED080AD0EDE7
:101EF000130A30EE600ADFED3D0A30EE200A2D486D
:101F000080ED000A85E02348403890ED140ADFEDAB
:101F1000350AB4EEE00AF1EE10FA08DA90ED140A90
:101F2000DFED330AB4EEE00AF1EE10FA1ED21948E2
:101F30004038D0ED130AB0EE600ADFED2E0A2848D3
:101F400001F09AF9B1EE400A1248403880ED120AC9
:101F500090ED080AD0ED130A30EE600ADFED230A97
:101F600030EE200A134880ED000A52E0094840385C
:101F7000D0ED140AB0EE600ADFED1F0A184801F038
:101F80007BF9B1EE400A0348403880ED120A90ED2B
:101F9000080A33E0D0010020000034431F85EB51D4
:101FA000B81E0940BC000020C00000203400002002
:101FB0000000000038000020000000000000004089
:101FC000D0000020D4000020D8000020DC00002039
:101FD000F00100205A0000205077563EDB0F493FA9
:101FE000D80E0020E4CB1640DB0FC93FDB0FC94001
:101FF000E4CB16C0DB0F4940DB0FC9BFD0ED130A9D
:1020000030EE600A5FED070A30EE600AFE4880EDB0
:10201000000AFE4890ED080A5FED0D0AB4EEE00AF2
:10202000F1EE10FA12DB90ED080A5FED0E0AB4EE45
:10203000E00AF1EE10FA09D2F34890ED000A5FEDE4
:10204000160A30EE600A80ED000A38E0EF4890EDA5
:10205000080A5FED180AB4EEE00AF1EE10FA12DB9E
:1020600090ED080ADFEDEA0AB4EEE00AF1EE10FAAC
:1020700009D2E54890ED000A5FED220A30EE600AD1
:1020800080ED000A1BE0E14890ED080ADFEDE00A70
:10209000B4EEE00AF1EE10FA11DB90ED080A5FED04
:1020A0002D0AB4EEE00AF1EE10FA08D2D64890ED0F
:1020B000000ADFEDD70A30EE600A80ED000AD5484D
:1020C00090ED000A20EE000AD348D0ED000A90ED12
:1020D000001A00EE810A10EE101A084606F039FDCB
:1020E00041EC1B0BB0EE4B0AF0EE6B0A07F060FC04
:1020F000B0EE40AAF0EE60AA51EC1A0B06F06CFDAF
:10210000C6494860C64890ED000A20EE000AC24861
:10211000D0ED000A90ED001A00EE810A10EE101AC0
:10212000084606F016FD41EC1A0BB0EE4A0AF0EE36
:102130006A0A07F03DFCB0EE40BAF0EE60BA51EC2E
:102140001B0B06F049FDB5498860B54890ED000AC3
:1021500020EE000AB348D0ED000A90ED001A00EE20
:10216000810A10EE101A084606F0F3FC41EC1B0B36
:10217000B0EE4B0AF0EE6B0A07F01AFCB0EE40AA84
:10218000F0EE60AA51EC1A0B06F026FDA349C860D8
:10219000A04890ED000A20EE000AA248D0ED000A07
:1021A00090ED001A00EE810A10EE101A084606F0B3
:1021B000D0FC41EC1B0BB0EE4B0AF0EE6B0A07F0C3
:1021C000F7FBB0EE40AAF0EE60AA51EC1A0B06F055
:1021D00003FD924908608F48006806F0BAFC41ECA4
:1021E0001B0B8D48006806F0B4FC41EC1C0BB0EEF4
:1021F0004B1AF0EE6B1AB0EE4C0AF0EE6C0A07F0D8
:1022000013F8B0EE40AAF0EE60AA51EC1A0B06F0FB
:10221000E3FC854948608248006806F09AFC41EC7E
:102220001B0B7D48006806F094FC41EC1C0BB0EEE3
:102230004B1AF0EE6B1AB0EE4C0AF0EE6C0A06F098
:10224000F3FFB0EE40AAF0EE60AA51EC1A0B06F0D4
:10225000C3FC754988607248006806F07AFC41EC5E
:102260001B0B7048006806F074FC41EC1C0BB0EED0
:102270004B1AF0EE6B1AB0EE4C0AF0EE6C0A06F058
:10228000D3FFB0EE40AAF0EE60AA51EC1A0B06F0B4
:10229000A3FC6549C8605F48006806F05AFC41EC41
:1022A0001B0B6048006806F054FC41EC1C0BB0EEC0
:1022B0004B1AF0EE6B1AB0EE4C0AF0EE6C0A06F018
:1022C000B3FFB0EE40AAF0EE60AA51EC1A0B06F094
:1022D00083FC554908604D4890ED080A5FEDBE0A41
:1022E000B4EEE00AF1EE10FA55DB90ED080A5FED6E
:1022F000BF0AB4EEE00AF1EE10FA4CD2474890ED76
:10230000030A4A4880ED000A444890ED000A474815
:1023100080ED010A414890ED010A444880ED020A2F
:102320003E4890ED020A414880ED030A084690EDD0
:10233000030A3F4880ED000A084690ED000A3C4839
:1023400080ED010A084690ED010A394880ED020A45
:10235000084690ED020A364880ED030A002018E096
:10236000324901EB800191ED000A2C4901EB80011B
:1023700081ED000A2E4901EB800191ED000A5FED2D
:10238000E60A30EE200A284901EB800181ED000ABF
:10239000401C0428E4DB1D4890ED080A5FEDEB0AC1
:1023A000B4EEE00AF1EE10FA6CDB90ED080ADFED16
:1023B000180AB4EEE00AF1EE10FA63D2174890ED75
:1023C000020A1A4880ED000A144890ED030A1748E3
:1023D00080ED010A114890ED000A144880ED020AD0
:1023E0000E4890ED010A114880ED030A0E4890ED69
:1023F000020A0F4880ED000A0B4890ED030A0C48D2
:1024000080ED010A084815E0380000209001002006
:10241000E4CB9640DC000020D4000020A80200207D
:10242000D8000020D0000020B8020020E8020020E0
:10243000F802002090ED000AFE4880ED020AFE48F6
:1024400090ED010AFB4880ED030A002018E0FB49EB
:1024500001EB800191ED000AF94901EB800181ED6A
:10246000000AF44901EB800191ED000ADFEDF50A65
:1024700030EE200AF04901EB800181ED000A401C9A
:102480000428E4DBF04890ED080A5FED1F0AB4EE83
:10249000E00AF1EE10FA55DB90ED080ADFEDEB0AE9
:1024A000B4EEE00AF1EE10FA4CD2E54890ED010AE4
:1024B000E24880ED000AE24890ED020ADF4880ED34
:1024C000010ADF4890ED030ADC4880ED020ADC488F
:1024D00090ED000AD94880ED030AD74890ED010A33
:1024E000D44880ED000AD44890ED020AD14880ED2E
:1024F000010AD14890ED030ACE4880ED020ACE4889
:1025000090ED000ACB4880ED030A002018E0CB498B
:1025100001EB800191ED000AC94901EB800181EDD9
:10252000000AC44901EB800191ED000A5FED480A01
:1025300030EE200AC04901EB800181ED000A401C09
:102540000428E4DBC04890ED120AB5EEC00AF1EEB3
:1025500010FA4AD2BA4890ED020AB84880ED000A53
:10256000B74890ED030AB54880ED010AB44890EDF4
:10257000000AB24880ED020AB14890ED010AAF4866
:1025800080ED030AAC4890ED020AAA4880ED000AEB
:10259000A94890ED030AA74880ED010AA64890EDEE
:1025A000000AA44880ED020AA34890ED010AA14860
:1025B00080ED030A002016E0A04901EB800191EDB7
:1025C000000AB1EE400A9E4901EB800181ED000A4C
:1025D000984901EB800191ED000A974901EB8001D8
:1025E00081ED000A401C0428E6DB974890ED120AB2
:1025F000B5EEC00AF1EE10FA37D1954890ED000A19
:10260000B5EEC00AF1EE10FA06D190ED010AB5EE72
:10261000C00AF1EE10FA28D0B7EE000A884880ED23
:10262000000AB7EE000A80ED010AB7EE000A80ED5D
:10263000020AB7EE000A80ED030A834890ED140AFF
:102640007D4880ED000A804890ED140A7A4880EDBC
:10265000010A7D4890ED140A774880ED020A7A4815
:1026600090ED140A744880ED030A002026E07449B6
:1026700001EB800191ED000A7349D1ED120A20EEC1
:10268000200ADFED740A20EE200ABDEEC00A10EE2B
:10269000101A0AB26C49403121F81020664901EB4A
:1026A000800191ED000ADFED6C0A20EE200A6649F8
:1026B000283101EB800181ED000A401C0428D6DBA3
:1026C000BDEC0C8B10BD10B52DED028B002440E04D
:1026D00004EB440000EBC400604901EBC00090ED46
:1026E000121BB0EE410AF0EE610A9FED5D1B53EC48
:1026F000112B51EC100B06F0F5F806F06DFA0146BF
:102700005348583040F824104F48283000EB8400DC
:10271000D0ED000A544850F82400B421484300EE9C
:10272000100AB8EEC00A30EE800A4948483000EB83
:10273000840080ED000A4D4830F8241042484030B3
:1027400030F81400414309B23F48403020F81410DB
:10275000641C042CBCDB3C48B0F940003A49A1F8A9
:1027600040000846B0F84200404201B23648A0F8A6
:102770004210B0F944003449A1F844000846B0F9C9
:102780004600A1F846000020CCE03149483101EB79
:10279000800191ED000A2E49583101EB8001D1ED05
:1027A000000A30EE600ADFED320AB4EEE00AF1EE24
:1027B00010FA23DD2649483101EB800191ED000A32
:1027C0002349583101EB8001D1ED000A30EE600A57
:1027D000DFED280AB4EEE00AF1EE10FA0ED222493B
:1027E00051F82010491E204A42F820101F4951F884
:1027F000201049421D4A42F8201092E01449483105
:1028000001EB800191ED000A1149583101EB800183
:10281000D1ED000A30EE600ADFED160AB4EEE00AF0
:10282000F1EE10FA2BDD104951F82010891E0E4AE6
:1028300022E00000F8020020B8020020E802002098
:10284000A8020020DB0F494090010020DB0FC940A7
:10285000F0010020CDCCCC3EE12E6542F0180020E6
:10286000000000000000F0BF18040020FC00002061
:102870000000B4420000874342F8201051E0F849BC
:1028800001EB800191ED000AF549103101EB800167
:10289000D1ED000A30EE600ADFEDF20AB4EEE00A94
:1028A000F1EE10FA22D2EE4901EB800191ED000A1F
:1028B000EB49103101EB8001D1ED000A30EE600AE6
:1028C000DFEDE90AB4EEE00AF1EE10FA0EDDE749B9
:1028D00051F82010491CE54A42F82010E44951F80B
:1028E00020104942E24A42F820101AE0DC4901EB8C
:1028F000800191ED000ADA49103101EB8001D1ED40
:10290000000A30EE600ADFEDD80AB4EEE00AF1EE1C
:1029100010FA06D2D54951F82010891CD34A42F842
:102920002010401C0428FFF630AF002418E0CC49EA
:1029300001EB840191ED001AF0EE410AC849103113
:1029400001EB840191ED001AB0EE410A04EB440161
:1029500001EB0411C74A02EB810000F08DFC641CFE
:10296000042CE4DBBE484838007B032804D0BC4874
:102970004838007B07282AD100200FE000EB4001F7
:1029800001EBC001BC4A02EBC101B1F84010494261
:102990000AB2B349283121F81020401C0428EDDB8D
:1029A000002012E000EB400101EB0011B14A02EB04
:1029B000810191ED0B0ABDEEC00A10EE101A0AB2A9
:1029C000A749203121F81020401C0428EADBBDEC87
:1029D000028B10BD10B52DED048BFFF774FE0024A3
:1029E000DAE004EB440000EBC401A44800EBC100B2
:1029F000B0F840109A48583020F81410A04830F829
:102A000014109748503020F814109D48403890ED2D
:102A1000090AB5EEC00AF1EE10FA20D190ED120AC3
:102A200010EE101A084606F094F841EC190BB0EEBF
:102A3000490AF0EE690A06F003FEB0EE408AF0EEB5
:102A4000608A9FED900B53EC102B51EC180B06F0A5
:102A500093F804D200218248503020F814108049A5
:102A6000203131F9141001EE101AB8EEC11AF0EE4F
:102A7000410A7B49283131F9141001EE101AB8EEE1
:102A8000C11AB0EE410A04EB440101EB04117F4A84
:102A900002EB810000F0F0FB7149503131F9141064
:102AA00001EE101AB8EEC11A7949D1ED001A21EEE3
:102AB000211AF0EE410A6A49583131F9141001EE39
:102AC000101AB8EEC11AB0EE410A04EB440101EB52
:102AD0000411704A02EB810000F0CEFB60484838D8
:102AE00090ED000AB5EEC00AF1EE10FA40D190ED7B
:102AF000010AB5EEC00AF1EE10FA39D1604840384B
:102B000090ED120A10EE101A084606F022F841EC79
:102B1000190BB0EE490AF0EE690A06F091FDB0EE2D
:102B2000408AF0EE608A9FED5C0B53EC102B51EC69
:102B3000180B06F021F81BD259480068401C584970
:102B4000086008460068B0F57A7F24D200200CE0C7
:102B50009FED540A00EB400101EB00114B4A02EBE0
:102B6000810181ED0B0A411CC8B20428F0DB12E0A0
:102B70003B48483890ED000AB5EEC00AF1EE10FA75
:102B800006D190ED010AB5EEC00AF1EE10FA02D0BE
:102B9000002043490860641C042CFFF622AF00208B
:102BA00026E02F494839097B032904D02C494839AC
:102BB000097B072916D100EB400101EB0011354AD2
:102BC00002EB810191ED0B0AF7EE000A20EE200ADC
:102BD000BDEEC00A10EE101A0AB22149283921F8B8
:102BE000102004E000221E49283921F81020401C42
:102BF0000428D6DB1A4C483CB4F99830002B01DB92
:102C00001C4600E05C42322C24DA154C483CB4F9F6
:102C10009A20002A01DB144600E05442322C19DAD3
:102C20000F4C483CB4F99C10002901DB0C4600E035
:102C30004C42322C0EDA0A4C483CB4F99E00002873
:102C400001DB044600E04442322C03DA002016493E
:102C5000086002E0012014490860002058E00000EC
:102C6000380200200000B4C2000087C3180400200E
:102C7000FC000020E4130020F0180020501A00206F
:102C8000D001002000000000000014404416002085
:102C90006C00002074170020000000000000494074
:102CA000E000002000000000400000209749097B60
:102CB000032903D09549097B072923D100EB400163
:102CC00001EB0011924A02EB810191ED0B0ABDEE7E
:102CD000C00A10EE101A09B200EE101AB8EEC00ABF
:102CE000F7EE000A20EE200AFFEE000A20EE200A8E
:102CF000BDEEC00A10EE101A0AB28449283121F83C
:102D0000102004E000228149283121F81020401CC5
:102D10000428CBDBBDEC048B10BD10B52DED088B6A
:102D20007C494869896981F000417B4AC2E9160102
:102D3000104690ED161BB0EE410AF0EE610A9FEDD1
:102D4000771B53EC112B51EC100B05F0CBFD05F06C
:102D500043FF7149C8641FED2D0AB0EE408A6D48EB
:102D6000B0F90A0000EE100AB8EEC00A6D48D0EDC6
:102D7000000A20EE200ABDEEC00A10EE100A00B2D2
:102D8000694908806348B0F90C0000EE100AB8EEFB
:102D9000C00A6448D0ED000A20EE200ABDEEC00A49
:102DA00010EE100A00B2614908805F49098811FBE2
:102DB00001F15E4A12885D4B1B8812FB031005F07F
:102DC00072FE41EC1A0BB0EE4A0AF0EE6A0A06F007
:102DD000EFFDB0EE409AF0EE609A51EC190B05F061
:102DE000FBFE4D494862084690ED090ADFED500AA6
:102DF000B4EEE00AF1EE10FA3FDB4B48B0F9000008
:102E000005F051FE41EC1A0B4848B0F9000005F0FE
:102E10004AFE41EC1B0BB0EE4A1AF0EE6A1AB0EE15
:102E20004B0AF0EE6B0A06F0FFF9B0EE409AF0EEB6
:102E3000609A51EC190B05F0CFFE08EE100A9FEDD9
:102E40003D0A38EE000A10EE101A084605F081FE21
:102E500041EC1A0B9FED381BB0EE4A0AF0EE6A0AFD
:102E600006F0F8FBB0EE409AF0EE609A51EC190BC8
:102E700005F0B2FE2849086204E01FED760A2648F4
:102E800080ED090ABDEC088B10BD10B52148C07853
:102E90001E4908730846007B072810D004DC01286F
:102EA00007D0032814D107E008280BD00A280FD137
:102EB0000BE0FEF776F90EE0FEF786F90BE0FEF781
:102EC00091FA08E0FEF784FB05E0FEF771FA02E0F4
:102ED000FEF767F900BF00BF0E48C0780B49487382
:102EE00010BD10B5FDF7F8FFFFF774FD10BD10B56C
:102EF000FFF713FFFEF79BFE10BD10B5FFF7C5FFF0
:102F0000FFF7F5FFFFF7EDFF10BD0000F001002017
:102F1000441600204623002090010020000000A05D
:102F200046DF913FE40000205000002052000020C6
:102F300000004842DB0FC94000000060FB2119403F
:102F4000D0ED000AF4EEC00AF1EE10FA01DD80EDDA
:102F5000000AD0ED000AB1EE401AF4EEC10AF1EE1B
:102F600010FA03D2F1EE400AC0ED000A7047036484
:102F7000C263816380ED000AC0ED010A80ED021A90
:102F8000704780ED000AC0ED010A80ED021ADFED06
:102F9000FB1AC0ED081ADFEDF91AC0ED091ADFEDD2
:102FA000F71AC0ED0A1ADFEDF51AC0ED0B1A7047DB
:102FB00010B52DED0A8B0446F0EE408AB0EE609A13
:102FC000B0EE418AC4ED048A84ED039A39EE680AB2
:102FD00084ED070A18EE100A05F0BBFD41EC1A0B50
:102FE00094ED070A10EE101A084605F0B2FD41EC08
:102FF0001C0BB0EE4C0AF0EE6C0A06F021FBB0EEB2
:1030000040BAF0EE60BA53EC1A2B51EC1B0B05F0F2
:10301000B3FD04D29FEDD90A84ED070A1CE094EDBC
:10302000070AB4EEC80AF1EE10FA06DD94ED070ABD
:1030300030EE480A84ED070A0EE094ED070AF1EE3F
:10304000480AB4EEE00AF1EE10FA05D294ED070A50
:1030500030EE080A84ED070A18EE100A05F079FD33
:1030600041EC1A0B39EE680A10EE101A084605F00A
:1030700070FD41EC1C0BB0EE4C0AF0EE6C0A06F051
:10308000DFFAB0EE40BAF0EE60BA53EC1A2B51EC16
:103090001B0B05F071FD03D29FEDB80A84ED070A02
:1030A00094ED0C0AB5EEC00AF1EE10FA27D094EDBB
:1030B0000C0A10EE101A084605F04BFD41EC1A0BF5
:1030C00094ED070A10EE101A084605F042FD41EC97
:1030D0001C0BB0EE4C0AF0EE6C0A06F0B1FAB0EE42
:1030E00040BAF0EE60BA53EC1A2B51EC1B0B05F012
:1030F0005BFD04D29FEDA10ABDEC0A8B10BDA06B55
:1031000003283ED194ED000AD4ED070A20EE200AF0
:1031100084ED080A94ED090AD4ED010A94ED071A2A
:1031200000EE810A84ED090A94ED070AD4ED060A3F
:1031300030EE600AD4ED020A20EE200A84ED0A0A7D
:10314000D4ED100AF8EE600AB0EE600A04F1240033
:10315000FFF7F6FE94ED080AD4ED090A30EE200AD6
:10316000D4ED0A0A30EE200A84ED0B0AD4ED0F0AE2
:10317000F8EE600AB0EE600A04F12C00FFF7E0FE02
:1031800042E0A06B04283FD194ED070AD4ED060A73
:1031900030EE600AD4ED000A20EE200A84ED080A21
:1031A00094ED010AD4ED070A20EE200A84ED090A05
:1031B00094ED070AD4ED060AB0EE001A01EE600A9B
:1031C000D4ED050A30EE200AD4ED020A20EE200AE2
:1031D00084ED0A0A94ED080AD4ED090A30EE200ABB
:1031E000D4ED0A0A30EE200AD4ED0B0A30EE200AA4
:1031F00084ED0B0AD4ED0F0AF8EE600AB0EE600A17
:1032000004F12C00FFF79CFE94ED060A84ED050AFC
:1032100094ED070A84ED060A94ED0D0AB5EEC00A96
:10322000F1EE10FA25D094ED0D0A10EE101A0846B2
:1032300005F08FFC41EC1A0B94ED0B0A10EE101AFE
:10324000084605F086FC41EC1C0BB0EE4C0AF0EE93
:103250006C0A06F0F5F9B0EE40BAF0EE60BA53EC45
:103260001A2B51EC1B0B05F087FC02D29FED430A91
:1032700042E794ED0B0A3FE710B52DED088B0446AD
:10328000B0EE408AF0EE608A84ED048AC4ED038AD1
:1032900038EEC80A84ED070A94ED0C0AB5EEC00AB0
:1032A000F1EE10FA27D094ED0C0A10EE101A084631
:1032B00005F04FFC41EC190B94ED070A10EE101AC3
:1032C000084605F046FC41EC1B0BB0EE4B0AF0EE55
:1032D0006B0A06F0B5F9B0EE40AAF0EE60AA53EC26
:1032E000192B51EC1A0B05F05FFC04D29FED230A59
:1032F000BDEC088B10BDA06B032841D194ED000AF2
:10330000D4ED070A20EE200A84ED080A94ED090A9C
:10331000D4ED010A94ED071A00EE810A84ED090A42
:1033200094ED070AD4ED060A30EE600AD4ED020AE5
:1033300020EE200A84ED0A0AD4ED100AF8EE600AA5
:10334000B0EE600A04F12400FFF7FAFD94ED080ADC
:10335000D4ED090A30EE200AD4ED0A0A30EE200A34
:1033600084ED0B0AD4ED0F0AF8EE600AB0EE600AA5
:1033700004F12C00FFF7E4FD45E000000000000030
:10338000A06B04283FD194ED070AD4ED060A30EE75
:10339000600AD4ED000A20EE200A84ED080A94EDBC
:1033A000010AD4ED070A20EE200A84ED090A94ED03
:1033B000070AD4ED060AB0EE001A01EE600AD4ED59
:1033C000050A30EE200AD4ED020A20EE200A84ED30
:1033D0000A0A94ED080AD4ED090A30EE200AD4ED69
:1033E0000A0A30EE200AD4ED0B0A30EE200A84EDF2
:1033F0000B0AD4ED0F0AF8EE600AB0EE600A04F191
:103400002C00FFF79DFD94ED060A84ED050A94ED6E
:10341000070A84ED060A94ED0D0AB5EEC00AF1EE36
:1034200010FA25D094ED0D0A10EE101A084605F09A
:1034300090FB41EC190B94ED0B0A10EE101A0846A4
:1034400005F087FB41EC1B0BB0EE4B0AF0EE6B0A6C
:1034500006F0F6F8B0EE40AAF0EE60AA53EC192B95
:1034600051EC1A0B05F088FB02D21FED3C0A3FE736
:1034700094ED0B0A3CE710B52DED088B0446B0EE39
:10348000408AF0EE608A84ED048AC4ED038A38EE47
:10349000C80A84ED070A94ED0C0AB5EEC00AF1EEF5
:1034A00010FA27D094ED0C0A10EE101A084605F019
:1034B00050FB41EC190B94ED070A10EE101A084668
:1034C00005F047FB41EC1B0BB0EE4B0AF0EE6B0A2C
:1034D00006F0B6F8B0EE40AAF0EE60AA53EC192B55
:1034E00051EC1A0B05F060FB04D21FED5C0ABDEC39
:1034F000088B10BDA06B03283ED194ED000AD4EDDB
:10350000070A20EE200A84ED080A94ED090AD4ED9A
:10351000010A94ED071A00EE810A84ED090A94ED80
:10352000070AD4ED060A30EE600AD4ED020A20EE56
:10353000200A84ED0A0AD4ED100AF8EE600AB0EE13
:10354000600A04F12400FFF7FBFC94ED080AD4EDB7
:10355000090A30EE200AD4ED0A0A30EE200A84ED82
:103560000B0AD4ED0F0AF8EE600AB0EE600A04F11F
:103570002C00FFF7E5FC3EE0A06B04283BD194ED66
:10358000070AD4ED060A30EE600AD4ED000A20EEF8
:10359000200A84ED080A94ED010AD4ED070A20EE12
:1035A000200A84ED090A94ED070AD4ED060AB0EE6C
:1035B000001A01EE600AD4ED050A30EE200AD4EDBF
:1035C000020A20EE200A84ED0A0A94ED080AD4EDDE
:1035D0000A0A30EE200AD4ED0B0A30EE200A84ED00
:1035E0000B0AD4ED0F0AF8EE600AB0EE600A04F19F
:1035F0002C00FFF7A5FC94ED060A84ED050A94ED76
:10360000070A84ED060A94ED0D0AB5EEC00AF1EE44
:1036100010FA25D094ED0D0A10EE101A084605F0A8
:1036200098FA41EC190B94ED0B0A10EE101A0846AB
:1036300005F08FFA41EC1B0BB0EE4B0AF0EE6B0A73
:1036400005F0FEFFB0EE40AAF0EE60AA53EC192B95
:1036500051EC1A0B05F090FA02D21FEDB80A46E7BA
:1036600094ED0B0A43E72DE9F0412DED048B044660
:103670000D4616461F46B0EE408AF0EE608AB0EE68
:10368000419A2A486064B0EE491AF0EE680AB0EE3A
:10369000480A3B46324629462046D4F844C0E04713
:1036A000BDEC048BBDE8F0811FEDCC0A80ED080A6B
:1036B0001FEDCE0A80ED090A1FEDD00A80ED0A0A3F
:1036C0001FEDD20A80ED0B0A1FEDD40A80ED050A2A
:1036D0001FEDD60A80ED060A1FEDD80A80ED070A15
:1036E000704770B52DED048B06460D461446B0EEBE
:1036F000408AF0EE608AB0EE419AF0EE619AF0EE08
:10370000480AB0EE680A3046FFF7B6FD30EE290AE7
:1037100084ED000A94ED000AF0EE400AB0EE490A8A
:103720002846FFF7A9FDBDEC048B70BD6F2F000884
:1037300010B504462146304801F0C0F82068B0F5C5
:10374000027F0AD12D48C068401C2C49C86041F650
:10375000C56221462A4800F03BF910BD10B5044669
:103760002068A0F20120072842D2DFE800F0040A16
:1037700010151B27340021462148583000F015F958
:1037800037E021461E48B03000F00FF931E0214605
:103790001C4800F00AF92CE021461A48583000F085
:1037A00004F926E015480068401C1449086041F2FD
:1037B0009B022146144800F00BF91AE00F484068BC
:1037C000401C0E49486041F2C27221460E485830F2
:1037D00000F0FEF80DE009488068401C0749886049
:1037E00040F6195221460648583800F0F1F800E03A
:1037F00000BF00BF10BD00000C240020E02100200D
:10380000F8190020001B0020F01800200A7BCB7A5A
:1038100042EA0322826182698260826942600269AF
:10382000521C026170472DE9F04104460D46002606
:10383000002720686060287BE97A40EA0120206048
:1038400020686168401AE060E06810F5805F07DA80
:10385000A06B401CA063E06800F50050E0610DE043
:10386000E068B0F5805F07DDA06B401EA063E068F4
:10387000A0F50050E06101E0E068E0612168A06B24
:1038800001EB4030A0602068A269801A00EE100AA7
:10389000F8EEC00AA06B4FF4B472504300EE100A69
:1038A000B8EEC00A9FEDD11A00EE810A10EE101A90
:1038B000084605F04EF941EC100B84ED120BE2695D
:1038C000207D411C217504F1200141F82020207D3C
:1038D000062801D100202075002605E004F1200013
:1038E00050F826000744761C062EF7DB062097FBCF
:1038F000F0F02064A97B687B41EA002000B2A4F8C4
:103900005400BDE8F08170B504460D462068606043
:10391000287BE97A40EA0120206020686168401A2B
:10392000E060E06810F5805F07DAA06B401CA063E0
:10393000E06800F50050E0610DE0E068B0F5805F00
:1039400007DDA06B401EA063E068A0F50050E061B9
:1039500001E0E068E0612168A06B01EB4030A0600D
:103960002068A269801A00EE100AF8EEC00AA06B67
:103970004FF4B472504300EE100AB8EEC00A9FED47
:103980009C1A00EE810A10EE101A084605F0E1F8C4
:1039900041EC100B84ED120B687B000200B2A97B96
:1039A00008432064687C206570BD70B504460D46F0
:1039B000E06B401CE063E06B052804DC29462046F0
:1039C000FFF724FF03E029462046FFF72CFF70BDD8
:1039D00070B504460E461546E06B401CE063E06B94
:1039E000022800DCA56131462046FFF78CFFE06B22
:1039F0000A2812DCA069A168401A10F57A6F03DA70
:103A000005F50050A06108E0A069A168401AB0F572
:103A10007A6F02DDA5F50050A06170BD2DE9F0417F
:103A200086B007460C4615461E46DDF8308040F24B
:103A3000FF10019000208DF80C008DF80D0008207B
:103A40008DF80E00200A8DF80F008DF81040290A1D
:103A50008DF811108DF81250310A8DF813108DF871
:103A600014604FEA18218DF815108DF816800EE0BD
:103A700060480068401C5F4908600846006840F6DE
:103A8000B831884203D100205A49086004E0B86880
:103A900000F0E0500028EBD000BF01A9384602F04A
:103AA000D5FB06B0BDE8F0812DE9F04186B0804637
:103AB0000C4615461E460C9F40F2FF200190002048
:103AC0008DF80C008DF80D0008208DF80E00200AEE
:103AD0008DF80F008DF81040290A8DF811108DF81F
:103AE0001250310A8DF813108DF81460390A8DF8D0
:103AF00015108DF8167001A9404602F0A7FB06B01C
:103B0000BDE8F0812DE9F04186B007460C46154628
:103B10001E46DDF830804FF40070019000208DF8D3
:103B20000C008DF80D0008208DF80E00200A8DF88D
:103B30000F008DF81040290A8DF811108DF81250E1
:103B4000310A8DF813108DF814604FEA18218DF8A2
:103B500015108DF816800EE027480068401C264995
:103B600008600846006840F6B831884203D100205A
:103B70002149086004E0B86800F0E0500028EBD06C
:103B800000BF01A9384602F061FB06B0BDE8F08134
:103B90002DE9F04186B080460C4615461E460C9F26
:103BA00040F2FF10019000208DF80C008DF80D0000
:103BB00008208DF80E00200A8DF80F008DF81040B7
:103BC000290A8DF811108DF81250310A8DF8131052
:103BD0008DF81460390A8DF815108DF8167001A94A
:103BE000404602F033FB06B0BDE8F081FFFF333DF5
:103BF0000000343D0C01002010010020F0B5034608
:103C00000C461888002113E0675C80EA0720002535
:103C10000BE0460000F4004CBCF1000F03D041F271
:103C2000210C86EA0C0630466D1C082DF1D3491C88
:103C30009142E9D31880F0BD2DE9F84305460F46BF
:103C400090464FF00009002000900626FE4840787C
:103C5000002859D0002085F86300FB484078C0F365
:103C6000800078B1F9A1284604F083FDF849086086
:103C70000846006830B1F448007820F00400001DC8
:103C8000F1490870F048407800F0010078B1EFA1E8
:103C9000284604F06EFDEE4908600846006830B121
:103CA000E948007820F00100401CE7490870E64828
:103CB0004078C0F3400078B1E4A1284604F059FDF3
:103CC000E34908600846006830B1DF48007820F01A
:103CD0000200801CDC490870DB484078C0F3C0005B
:103CE00078B1DCA1284604F044FDD94908600846B3
:103CF000006830B1D448007820F008000830D2497C
:103D00000870002028600AE128785A28FBD16878DA
:103D1000A528F8D1A878E97800EB0120801D40455E
:103D2000F1D1B8F1080FEEDB042229466846FFF70F
:103D300065FFA8F10602A91D6846FFF75FFF287915
:103D4000697900EB01201FFA80F9BDF800004845B1
:103D5000D9D10626E0E0AC192078C02860D008DC74
:103D600090280FD0A02813D0A52829D0B0286FD133
:103D70003EE0D02870D0D1286CD0D9286BD0F02864
:103D8000F5D1C3E06078B8490870B01CC6B2C2E093
:103D90006078A17800EB012000B2B3494880E07858
:103DA000217900EB012000B2AF4988806079A179C8
:103DB00000EB012000B2AC49C880F01DC6B2AAE0F9
:103DC0006078A17800EB012000B2A7490881E07873
:103DD000217900EB012000B2A34948816079A179E3
:103DE00000EB012000B2A0498881F01DC6B292E02C
:103DF0006078A17800EB012000B29B49C881E0788F
:103E0000217900EB012000B2974908826079A179FD
:103E100000EB012000B294494882F01DC6B27AE05E
:103E20006078A17800EB012000B28F498882E078A9
:103E3000217900EB012000B28B49C8826079A17919
:103E400000EB012000B288490883F01DC6B262E091
:103E50005FE001E04CE03FE06078A17800EB0120FA
:103E600000B281494883E078217900EB012000B25B
:103E70007D4988836079A17900EB012000B27A49FD
:103E8000C8830846B0F91A0000EE100AB8EEC00A5E
:103E9000DFED760A20EE200A084680ED0F0AB0F921
:103EA0001C0000EE100AB8EEC00ADFED700A20EE2A
:103EB000200A084680ED100AB0F91E0000EE100A34
:103EC000B8EEC00ADFED6A0A20EE200A084680ED4F
:103ED000110AF01DC6B21EE0634854F8011F0162CA
:103EE00061684162A168816206F10D00C6B212E00C
:103EF0005D4854F8011FC16261680163A1684163B4
:103F0000E168816306F11100C6B204E0701DC6B21B
:103F100001E0464600BF00BF4645FFF61CAF5248D1
:103F2000B0F91200404200EE100AB8EEC00ADFED10
:103F3000500A20EE200A87ED040A4B48B0F9100021
:103F4000404200EE100AB8EEC00ADFED490A20EE4A
:103F5000200A87ED030A4448B0F90E00404200EE03
:103F6000100AB8EEC00ADFED420A20EE200A87ED03
:103F7000050A404890ED000A3F4880ED000A3A48A3
:103F800090ED110AB1EE400A3A4880ED000A90ED3A
:103F9000000A3948D0ED000A30EE600ADFED370A3A
:103FA000B4EEE00AF1EE10FA05DB35480068401E79
:103FB0003349086013E02F4890ED000A2E48D0EDF9
:103FC000000A30EE600ADFED2F0AB4EEE00AF1EEEF
:103FD00010FA04D82A480068401C294908602A4879
:103FE00090ED000A294880ED000A1F4890ED080A6C
:103FF000254880ED000A90ED000A2448D0ED000A23
:1040000030EE600ADFED1D0AB4EEE00AF1EE10FAC0
:1040100005DB1F480068401E1D49086013E01A4870
:1040200090ED000A1948D0ED000A30EE600ADFED8D
:10403000150AB4EEE00AF1EE10FA04D8144800684C
:10404000401C1349086025E0140100204F4B00007C
:10405000180100206E6577207061636B65742069BC
:1040600074656D7300000000F02100200AD7233C26
:10407000CDCCCC3D200100201C0100200000A54338
:10408000340100200000A5C32801002024010020E5
:1040900038010020314800684FF4B471484300EE05
:1040A000100AB8EEC00A2E48D0ED000A30EE200A01
:1040B00087ED000A2B4890ED000A2B4880ED000A9E
:1040C0002A4890ED090A274880ED000A90ED000A81
:1040D0002548D0ED000A30EE600A5FED180AB4EE14
:1040E000E00AF1EE10FA05DB21480068401E204985
:1040F000086013E01B4890ED000A1B48D0ED000A51
:1041000030EE600A5FED210AB4EEE00AF1EE10FA3B
:1041100004D817480068401C154908601548006815
:104120004FF4B471484300EE100AB8EEC00A1248CA
:10413000D0ED000A30EE200A87ED010A0B4890ED21
:10414000100ADFED0E0A30EE200A87ED020A90ED2C
:104150000F0A87ED000ABDE8F8830000380100204F
:1041600028010020300100202C010020F021002037
:104170003C0100203401002020010020A470954063
:1041800030B5034605E013F8010B80EA0204B3489A
:10419000025D081EA1F10101F5D1104630BD70B5D8
:1041A00005460C4600260DB1022C01D8002070BD3A
:1041B000611EFF222846FFF7E3FF0646601E285CCB
:1041C000B04201D10120F2E70020F0E770B50546CA
:1041D0000C4600260DB1022C00D870BD611EFF22D6
:1041E0002846FFF7CDFF0646601E2E5400BFF4E7B9
:1041F00030B5034613B94FF6FF7030BD09E013F830
:10420000014B82EA0400C0B2954D35F8100080EAF7
:104210002222081EA1F10101F1D11046EDE770B58F
:1042200005460C4600260DB1022C01D8002070BDB9
:10423000A11E8C4802882846FFF7DAFF0646F1B235
:10424000A01E285C814206D1601E285CB0EB162FB0
:1042500001D10120EBE70020E9E770B505460C46E7
:1042600000260DB1022C00D870BDA11E7D48028829
:104270002846FFF7BDFF0646A01E2E54310A601ED9
:10428000295400BFF0E770B504460D4600260CB176
:10429000022D01D8FF2070BDFF2229462046FFF7DE
:1042A0006FFFF8E72DE9FC5F05460F46092F01D89F
:1042B000BDE8FC9F0024A146CBE015F804A0601CDB
:1042C000295CA01C285C41EA0026601D295CA01D19
:1042D000285C41EA002B281900F107082819016819
:1042E000009100798DF8040006F109001FFA80F9A9
:1042F000BAF1A50F77D105216846FFF750FF0028D6
:1043000071D028194946FFF78AFF0028F8D0BBF57D
:10431000017F6AD012DC40F20311ABEB01008B4548
:104320002BD006DCBBF1010F1AD0BBF1030F74D107
:104330001CE0FE2828D0FF286FD14BE0BBF5027FA0
:104340006DD006DCABF20620002856D001287BD1C8
:104350005AE0ABF20130002868D0022874D16CE03A
:1043600032464146404804F0D2F96EE032464146BA
:104370003D480C3004F0CBF967E0324641463A48FC
:10438000363004F0C4F960E01B2E22D1324641469B
:104390003548393004F0BBF9334890F8390001282A
:1043A00009DB314890F83900072804DC02202E4947
:1043B00081F8C5000DE02C4890F839000B2808DB87
:1043C000294890F83900112803DC0120264981F89A
:1043D000C5003AE0102E05D13246414622485430FD
:1043E00004F095F931E031E0FFE7012E04D198F8AF
:1043F00000001D4981F8740027E0324641461A4802
:10440000763004F084F920E0072E05D1324641468B
:104410001548773004F07BF917E015E0FFE73246E6
:10442000414611487E3004F072F90EE032464146B2
:104430000D48843004F06BF907E0324641460A48E3
:10444000AC3004F064F900E000BF00BF04EB0900E9
:1044500084B2A7423FF731AF00BF29E739A4000873
:104460003AA50008400100203822002010B503467C
:104470003BB1087838B9012008701078401C1070E2
:1044800001E000200870107800EBD0746410A0EBFD
:1044900044040CB9002010BD0120FCE7CB8A034086
:1044A0000BB1012300E000231370704710B50446E0
:1044B00004F1280221460120FFF7F0FF04F1290250
:1044C00021460420FFF7EAFF04F12A0221460220D8
:1044D000FFF7E4FF04F12B0221460820FFF7DEFF7F
:1044E00004F12C0221461020FFF7D8FF04F12E0220
:1044F00021462020FFF7D2FF04F12F022146402061
:10450000FFF7CCFF04F1300221468020FFF7C6FF01
:1045100004F1310221464FF48070FFF7BFFF04F130
:10452000320221464FF40070FFF7B8FF04F1330266
:1045300021464FF48060FFF7B1FF04F134022146B9
:104540004FF40060FFF7AAFF04F12D0221464FF45B
:104550008050FFF7A3FF04F1350221464FF40050CD
:10456000FFF79CFF04F1360221464FF48040FFF72D
:1045700095FF04F1370221464FF40040FFF78EFF0C
:1045800094F82800914A9249FFF770FF38210855A6
:104590002921085D8F4A9049FFF768FF39210855A6
:1045A0002A21085D8D4A8E49FFF760FF3A210855A0
:1045B0002B21085D8B4A8C49FFF758FF3B2108559A
:1045C0002C21085D894A8A49FFF750FF3C21085594
:1045D0002E21085D874A8849FFF748FF3E2108558C
:1045E0002F21085D854A8649FFF740FF3F21085586
:1045F0003021085D834A8449FFF738FF4021085580
:104600003121085D814A8249FFF730FF4121085579
:104610003221085D7F4A8049FFF728FF4221085573
:104620003321085D7D4A7E49FFF720FF432108556D
:104630003421085D7B4A7C49FFF718FF4421085567
:104640002D21085D794A7A49FFF710FF3D21085571
:104650003521085D774A7849FFF708FF452108555D
:104660003621085D754A7649FFF700FF4621085557
:104670003721085D734A7449FFF7F8FE4721085552
:1046800010BD817AC176017FC27E891A4177C27ED0
:104690000277417F01290ED1016A491C0162016A3A
:1046A00001EBD1725210A1EB420212B900228277C3
:1046B00001E001228277417F02290ED1416A491C23
:1046C0004162416A01EBD1725210A1EB420212B970
:1046D0000022C27701E00122C2777047C17A012926
:1046E00001D1817608E0C17A032901D1817603E006
:1046F000C17A022900D18176704730B504460D4653
:10470000122D00D030BD04B9FCE72078617840EA72
:104710000120C0F30A004D4908806078C010A178DC
:1047200040EA4110C0F30A0048494880A07880114F
:10473000E17840EA8100217940EA8120C0F30A0053
:104740004249888020794010617940EAC110C0F365
:104750000A003E49C880207C617C40EA0120C0F309
:104760000A003A49088160790011800888726079EE
:10477000C0F30110C872A079E17940EA012000B2CB
:1047800032498881207A617A40EA012001B22F48BB
:10479000C181A07AE17A40EA012001B22B4801826E
:1047A000217B0175617B4175A07BE17B40EA0120A3
:1047B0002649C8820846FFF791FF2448FFF761FFAA
:1047C0002248FFF773FE00BF9CE700004301002072
:1047D0004201002045010020440100204701002043
:1047E0004601002049010020480100204B01002023
:1047F0004A0100204D0100204C0100204F01002003
:104800004E010020510100205001002053010020E2
:1048100052010020550100205401002057010020C2
:104820005601002059010020580100205B010020A2
:104830005A0100205D0100205C0100205F01002082
:104840005E0100206101002060010020FE220020A6
:1048500010B504460448D0F8260020601C22034905
:10486000034800F027FC10BDE22300206223002053
:104870006201002010B504464648407910B9002076
:10488000207001E0012020704248408AA4F8010015
:1048900040480079A4F803003F482168016021796D
:1048A0000171642100F064FD10BD70B504460D4631
:1048B0002A222946204603F02AFF70BD0A68A2F288
:1048C0002312062A2ED2DFE802F0030A11181F264F
:1048D000D1F80B200260D1F80F20426023E0D1F81C
:1048E0000B208260D1F80F20C2601CE0D1F80B20B1
:1048F0000261D1F80F20426115E0D1F80B208261EE
:10490000D1F80F20C2610EE0D1F80B200262D1F87D
:104910000F20426207E0D1F80B208262D1F80F200D
:10492000C26200E000BF00BF704730B585B00546E9
:104930000C4618480078022802D01648007810B9B2
:104940000020207001E0012020701248408AA4F865
:10495000010010480079A4F803000F4821680160A5
:10496000217901714FF44070009000208DF808000B
:104970008DF8090008208DF80A002068CDF80B009A
:1049800020798DF80F006946284601F05FFC05B0DC
:1049900030BD0000462300207E230020F0B58BB000
:1049A00004460D4616461F460121084602F0ACFC9F
:1049B0000121480602F0F1FC09220B21964802F081
:1049C00090FA09220C21944802F08BFA4FF4C0505F
:1049D000099002208DF8280009A98F4802F0F6F905
:1049E00014208DF8040003208DF8050001208DF8B7
:1049F00006008DF8070001A801F02BFA874801F0A6
:104A000093FA06A801F0B4FB00208DF81E000120E7
:104A10008DF81F0000208DF820008DF821008DF802
:104A200022008DF823008DF81A708DF81B008DF888
:104A30001C508DF81D40ADF8186006A9774801F0AC
:104A40008CFA00208DF812008DF8130001208DF8EB
:104A500014000020ADF80800ADF80A00ADF80C0015
:104A6000ADF80E00ADF8100001208DF8150002A879
:104A700001F0FDFA01220221684801F0F7FD0BB0B8
:104A8000F0BD10B50121654801F058FE18B10121B3
:104A9000624801F0EEFE10BD00B585B002215F480E
:104AA00001F04CFE88B104215C4801F0E2FE5C4953
:104AB0005A4801F020FE6A460021584801F0BBFC2C
:104AC00000BF6846FEF734FE00BF05B000BDF0B57C
:104AD0008BB004460D4616461F460121022002F007
:104AE00013FC0121880602F058FC09220C214D48D4
:104AF00002F0F7F909220D214A4802F0F2F94FF4C9
:104B00004050029002208DF80C0002A9454802F0A6
:104B10005DF940208DF8040003208DF805008DF824
:104B2000060001208DF8070001A801F092F93F204E
:104B30008DF8040003208DF805008DF80600012093
:104B40008DF8070001A801F084F9374801F0ECF96D
:104B500008A801F00DFB00208DF8260001208DF83B
:104B6000270000208DF828008DF829008DF82A00F4
:104B70008DF82B008DF822008DF823008DF824503D
:104B80008DF82540ADF8206008A9274801F0E5F927
:104B90000E208DF81A0000208DF81B0001208DF8E2
:104BA0001C000020ADF81000ADF81200ADF81400A4
:104BB000ADF81600ADF8180001208DF81D0004A80E
:104BC00001F055FA01220221174801F04FFD0BB008
:104BD000F0BD10B50121144801F0B0FD18B101215C
:104BE000114801F046FE10BD00B585B002210E4807
:104BF00001F0A4FD68B102210B4801F03AFE6A46BB
:104C00000021094801F017FC00BF6846FEF7A6FD29
:104C100000BF05B000BD000000000240006400407D
:104C20000800003200040240006800401CB5012169
:104C3000042002F069FB0620009001208DF804009A
:104C400000208DF8060003208DF8050001208DF866
:104C500007006946074802F0B9F80621054802F046
:104C600031F90421034802F02FF90221014802F032
:104C70002BF91CBD0008024010B596B00446012176
:104C8000022002F041FB0121880502F03DFB0121D9
:104C9000102002F093FB07221146F84802F021F998
:104CA00014A802F0DBF88020149002208DF8540044
:104CB00000208DF8550001208DF8570014A9EF4809
:104CC00002F084F8EE4803F0C5FA10A803F08FFB59
:104CD00010940020ADF84400ADF846004FF4806019
:104CE000ADF848000420ADF84A000020ADF84C00B3
:104CF00010A9E34803F015FB01224021E04803F02E
:104D000045FCE04801F008FE684601F0D0FE4FF097
:104D100000600090DA48001D0190DB4802900020FE
:104D2000039040200490002005904FF4806006908E
:104D30000020079008904FF48070099000020A90BC
:104D400000200B900C900D900E906946CD4801F01C
:104D500085FE0022CC494031CA4801F0E0FE012125
:104D6000C84801F0E8FE0121C64801F0B1FE252047
:104D70008DF83C0000208DF83D008DF83E000120AC
:104D80008DF83F000FA801F064F8012240F22441A1
:104D9000BB4803F004FC0121B94803F04AFB16B0FC
:104DA00010BD10B540F22441B54803F033FC002893
:104DB00052D0B3480088B2488088B24801F0CBFE98
:104DC00020BB0021AF4801F083FEB049AD4801F09F
:104DD000F8FEAC4801F09FFEC0F14000AC4908600D
:104DE0004020A849091D0860081F006840F4002001
:104DF000091F08600121A34801F06AFE00BFA44812
:104E0000008881B2A048FFF778FC25E000219D488A
:104E100001F05EFE9D499B4801F0D3FE994801F0E8
:104E20007AFEC0F140009A49086040209549091D6A
:104E30000860081F006820F40020091F0860012195
:104E4000904801F045FE00BF9148008881B28E482D
:104E50004030FFF752FC00BF10BD10B596B00446BD
:104E60000121480402F099FA0121084602F04CFAA7
:104E70000121480502F048FA07220221854802F084
:104E800030F807220321834802F02BF80C201490FD
:104E900002208DF8540003208DF8550001208DF874
:104EA000570014A97B4801F091FF7B4803F0D2F929
:104EB00010A803F09CFA10940020ADF84C000C20D0
:104EC000ADF84A000020ADF84800ADF84600ADF856
:104ED000440010A9704803F024FA012280216E4892
:104EE00003F054FB6D4801F017FD1C2005904FF0B6
:104EF000006001904020049000200C900D906848C4
:104F0000039000200E9009904FF4806007900020DD
:104F10000A906148001D029000200F9008900690B2
:104F20004FF480300B9001A95C4801F097FD0121FE
:104F30005A4801F0CDFD01224021574803F026FBDD
:104F400001A801F0B4FD202005908005019000200B
:104F500004900C900D905348039000200E900990FF
:104F60004FF48060079000200A904B48001D02908B
:104F700000200F90089006904FF480300B9001A90C
:104F80004648183801F06AFD01214448183801F0FC
:104F90009FFD4FF4A06000F057FF26208DF8000021
:104FA00001208DF8030000208DF801008DF802002B
:104FB000684600F04EFF012240F22441364803F0DB
:104FC000EEFA0121344803F034FA16B010BD10B5E2
:104FD00040F22441304803F01DFB30B32E480088D6
:104FE0002D48001D008800BF1C222E492E4803F0CA
:104FF0008EFB00BF00212948183801F069FD00BF71
:105000002648183801F0B1FD0028F9D12749234876
:10501000183801F0D6FD20212048603801F079FDD4
:1050200001211E48183801F053FD10BD70B504462B
:105030000D4616461C222146194803F068FB00BFA6
:105040001B49164801F0A1FD0028F9D01849134862
:1050500001F0B7FD0021114801F03AFD00BF0F48F3
:1050600001F083FD0028FAD11C210C4801F051FD0C
:1050700001210A4801F02CFD70BD0000000402402F
:10508000001001404064024036280020000030102B
:105090006C0100200000024000440040A06002407B
:1050A00062230020B628002046230020000C0020A8
:1050B0000000202070B504460D461646FE482168C3
:1050C000016000BFFD49FE4801F05FFD0028F9D0F6
:1050D000FA49FB4801F075FD0021F94801F0F8FCA0
:1050E00000BFF74801F041FD0028FAD11C21F44827
:1050F00001F00FFD0121F24801F0EAFC70BD10B58E
:1051000096B004460121022002F0FEF80121880435
:1051100002F043F90121480502F0F6F807220A21BE
:10512000E84801F0DEFE07220B21E64801F0D9FE37
:1051300002208DF8440003208DF8450000208DF8F2
:10514000460001208DF847008002109010A9DD482C
:1051500001F03CFE4FF40060109010A9D94801F016
:1051600035FE27208DF8000002208DF80100012077
:105170008DF802008DF80300684600F06AFE129474
:105180000020ADF84C00ADF84E00ADF85000ADF881
:1051900054000C20ADF8520012A9CB4803F0C1F81E
:1051A000012240F22441C84803F0F9F95021C648D1
:1051B00003F027FAC54803906420059000200C9066
:1051C0000D900E9009904FF48060079080100A9027
:1051D000BD48001D029000200F90089006904FF4EB
:1051E00000300B90800201900020049001A9B44887
:1051F000783801F033FC0121B148783801F068FCBF
:1052000001224021B04803F0C1F901228021AE48BB
:1052100003F0BCF90021AA48483801F059FCA8481D
:10522000483801F079FB00BFA548483801F09DFCE3
:105230000028F9D14FF000600190A348001D0290B2
:10524000A3480390402004900020059006904FF45E
:10525000806007900020089009900A904FF48030F9
:105260000B9000200C9003200D9000200E900F90CA
:1052700001A99348483801F0F1FB0E208DF8000099
:1052800002208DF8010001208DF802008DF8030046
:10529000684600F0DEFD012210218948483801F0FF
:1052A000A4FC0121884803F0C4F816B010BD10B565
:1052B000002440F22441844803F0ACF908B382484A
:1052C00003F0E6F840F224417F4803F0DEF90021C4
:1052D0007B48783801F0FCFB002240217A4803F03B
:1052E00055F900BF79497B48FFF7DFFA00BF01227B
:1052F0004021754803F04AF901217148783801F0DE
:10530000E7FB10BD10B54FF0C0516D48483801F0B3
:105310003CFC50B100216A48483801F0D9FB4FF0FD
:10532000C0516748483801F04CFC10BD70B50446C8
:105330000D460021204601F0CBFB00BF204601F0C6
:1053400014FC0028FAD12946204601F0E2FB012195
:10535000204601F0BDFB70BD70B5044600255C4DD4
:1053600005F8014B012156484838FFF7DFFF70BDB3
:105370002DE9F04105460E4600240027544F00BF9A
:1053800003E0285D3855601C84B2B442F9DB314635
:105390004B484838FFF7CAFFBDE8F08110B596B01A
:1053A00004460121042001F0AFFF0121C80401F0EF
:1053B000F4FF08220A21484801F093FD08220B213E
:1053C000454801F08EFD0121480501F09DFF4FF495
:1053D0004060109002208DF8440000208DF84600B7
:1053E00003208DF8450001208DF8470010A93A48A8
:1053F00001F0ECFC12940020ADF84C00ADF84E002A
:10540000ADF850000C20ADF852000020ADF854006B
:1054100012A9324802F085FF012240212F4803F0F3
:10542000B5F82748603801F077FA684601F03FFB8D
:105430004FF0006000902948001D0190284802901C
:105440000020039064200490002005904FF48060B9
:10545000069000200790089009904FF480300A9041
:1054600000200B900C900D900E9069461448603807
:1054700001F0F4FA01211248603801F029FB3420D0
:105480008DF83C0003208DF83D008DF83E00012092
:105490008DF83F000FA800F0DCFC012280210F48AE
:1054A00003F074F800210648303801F011FB04487D
:1054B000303801F031FA15E062230020000020208E
:1054C000A06002400004024000480040D6280020AE
:1054D000022A0020E223002000080240004C004085
:1054E0003A29002000BFFB4801F03FFB0028FAD119
:1054F0004FF000600090F8480190F848029040207A
:1055000003900020049005904FF4806006900020E6
:105510000790089009904FF480300A9000200B907B
:1055200003200C9000200D900E906946E94801F090
:1055300095FA0F208DF83C0003208DF83D008DF882
:105540003E0001208DF83F000FA800F082FC0122F0
:105550001021E04801F049FB012240F22441DE48DD
:10556000001F03F01CF80121DB48001F02F061FF5F
:1055700016B010BD10B5002440F22441D648001FDB
:1055800003F048F808B3D448001F0088D2480088C8
:105590000021D048303801F09BFAD149CD4830384D
:1055A00001F00FFBCB48303801F0B5FAC0F16400D0
:1055B000C4B200BF00BF6421C648303801F0A9FA68
:1055C0000121C448303801F083FA10BD70B504469B
:1055D0000D462946204601F09CFA0121204601F0A3
:1055E00077FA70BD10B5BF49BA4801F0CEFA38B1AC
:1055F0000021B84801F06CFABA49B64801F0E1FA66
:1056000010BD70B504460025B44D05F8014B0121CD
:10561000B048FFF7DBFF70BD2DE9F04105460E46AF
:1056200000240027AD4F00BF03E0285D3855601C03
:1056300084B2B442F9DB3146A648FFF7C7FFBDE8A4
:10564000F08110B596B004460121042001F05CFE03
:105650000121082001F058FE0121080501F09DFEFE
:105660000121480501F050FE02208DF85400002071
:105670008DF856004FF48050149001208DF857009B
:1056800003208DF8550014A9974801F09FFB0220D4
:105690008DF8540000208DF856000420149001204D
:1056A0008DF8570003208DF8550014A98F4801F09C
:1056B0008DFB08220C218C4801F013FC08220221EA
:1056C0008A4801F00EFC10940020ADF84C000C202C
:1056D000ADF84A000020ADF84800ADF84600ADF83E
:1056E000440010A9824802F01CFE0121804802F00B
:1056F000A0FE012240217E4802F048FF684601F0EA
:10570000D6F97C4802904FF4007004908004009019
:105710007748001D01900020039005904FF48060B1
:10572000069000200890079009904FF480300A906E
:1057300000200B900C900D900E90694665486038E3
:1057400001F08CF901216348603801F0C1F90022B1
:1057500069496048603801F0E2F901215D4860382C
:1057600001F0E9F935208DF83C0001208DF83F006B
:105770008DF83D0002208DF83E000FA800F069FB77
:10578000012240F224415A4802F009FF0121584801
:1057900002F04FFE01228021554802F0F7FE002161
:1057A0004C48483001F094F94A48483001F0B4F8C8
:1057B00000BF4848483001F0D8F90028F9D14FF02F
:1057C000006000904A48001D01904C480290402023
:1057D000039096200490002005904FF4806006907E
:1057E00000200790089009900A900B9003200C90DD
:1057F00000200D900E9069463648483001F02EF991
:1058000001213448483001F063F92F208DF83C0025
:1058100002208DF83D0001208DF83E008DF83F00FC
:105820000FA800F016FB16B010BD70B504460D466B
:105830000021204601F04CF900BF204601F095F907
:105840000028FAD12946204601F063F901212046BB
:1058500001F03EF970BD10B540F22441244802F039
:10586000D9FE002875D02248008821488088194830
:10587000603801F070F958BB00211648603801F01B
:1058800027F91F491348603801F09BF91148603827
:1058900001F041F9C0F500701A4908604FF4007139
:1058A0000C48603801F035F94FF4002212490948DC
:1058B000603801F04BF901210648603801F008F921
:1058C00000BF1048008881B20A48FEF7EBFC40E0B8
:1058D0001AE0000070600240044C0040662A00207C
:1058E000000030102000002000080240000C0240A0
:1058F000005000403624002036260020CA2A00200E
:10590000300000107001002000216C4801F0E0F828
:105910006B496A4801F055F9684801F0FCF8C0F598
:105920000070684908604FF40071644801F0F1F8B4
:1059300000226549614801F009F901215F4801F041
:10594000C7F800BF5F48008881B26048FEF7AAFC34
:1059500000BF10BD00B597B00121042001F0D4FCB8
:105960000121880501F0D0FC0121202001F026FD55
:1059700008220621564801F0B4FA082207215448AB
:1059800001F0AFFAC020119002208DF848000020ED
:105990008DF84A0002208DF8490000208DF84B0058
:1059A00011A94B4801F012FA4A4802F053FC4FF497
:1059B000E13013900020ADF85000ADF85200ADF882
:1059C00054000C20ADF856000020ADF8580013A983
:1059D000404802F0A6FC012240213E4802F0D6FDDC
:1059E0003D4800F099FF4FF0206001903948001DBC
:1059F00002903A4803900020049064200590002013
:105A000006904FF4806007900020089009900A905B
:105A10004FF480300B9000200C900D900E900F9062
:105A200001A92D4801F01AF801212B4801F050F886
:105A300047208DF8400003208DF841008DF842008A
:105A400001208DF8430010A800F003FA012240F273
:105A50002441204802F0A3FD01211E4802F0E9FC88
:105A600017B000BD10B540F224411A4802F0D2FD33
:105A700018B3184800881748001D008800211648F0
:105A800001F026F81649144801F09BF8124801F07D
:105A900042F8C0F164001349086000BF084602786C
:105AA00011490E48FEF7C8F800BF64210A4801F00A
:105AB00030F80121084801F00BF810BD10600240D9
:105AC000300000107001002036240020362600200F
:105AD0000008024000140140286402409E29002072
