:020000040800F2
:100000001849002091DB00089502000897020008BB
:100010009B0200089F020008A302000800000000E5
:10002000000000000000000000000000A70200081F
:10003000A902000800000000AB020008AD020008A1
:10004000ABDB0008ABDB0008ABDB0008ABDB000878
:10005000ABDB0008ABDB0008ABDB0008ABDB000868
:10006000ABDB0008ABDB0008ABDB0008ABDB000858
:10007000ABDB0008ABDB0008ABDB0008B9AC000869
:10008000ABDB0008ABDB0008ABDB0008C3A2000859
:10009000D9A20008ABDB0008ABDB0008ABDB000833
:1000A000ABDB0008ABDB0008ABDB0008ABDB000818
:1000B000ABDB0008ABDB0008ABDB0008ABDB000808
:1000C000ABDB0008ABDB0008ABDB0008ABDB0008F8
:1000D000ABDB00081BA6000851A8000845AA0008D1
:1000E000ABDB0008ABDB0008ABDB0008ABDB0008D8
:1000F000ABDB0008ABDB0008ABDB0008ABDB0008C8
:10010000ABDB0008ABDB0008ABDB0008ABDB0008B7
:1001100043AC00085DAF000807B30008ABDB000884
:10012000ABDB0008ABDB0008ABDB0008ABDB000897
:10013000ABDB0008ABDB0008ABDB000813A4000856
:1001400029A40008ABDB0008ABDB0008ABDB000830
:10015000ABDB0008ABDB0008ABDB000833B2000808
:10016000ABDB0008ABDB0008ABDB0008ABDB000857
:10017000ABDB0008ABDB0008ABDB0008ABDB000847
:10018000ABDB0008ABDB000800F002F800F06DF814
:100190000AA090E8000C82448344AAF10107DA45E2
:1001A00001D100F062F8AFF2090EBAE80F0013F0C7
:1001B000010F18BFFB1A43F0010318474C860100DA
:1001C0006C8601000A444FF0000C10F8013B13F05C
:1001D000070408BF10F8014B1D1108BF10F8015BA0
:1001E000641E05D010F8016B641E01F8016BF9D193
:1001F00013F0080F1EBF10F8014BAD1C0C1B09D1EA
:100200006D1E58BF01F801CBFAD505E014F8016B5B
:1002100001F8016B6D1EF9D59142D6D370470000ED
:100220000023002400250026103A28BF78C1FBD8FF
:10023000520728BF30C148BF0B607047662917F0CE
:100240004E85002070471FB517F099FC9DE803000C
:1002500013F0E4FD14F0B2F804000020002116F0C1
:1002600017FDE0601FBD10B510BD14F0D0F91146A8
:10027000FFF7E9FF00F008F814F0EEF903B4FFF718
:10028000F2FF03BC14F090F800F01AF900F091FAB4
:1002900000BFFEE7704700BFFEE700BFFEE700BFFC
:1002A000FEE700BFFEE770477047704770470000E9
:1002B0000CB50020019000907648006840F4803032
:1002C0007449086000BF7348006800F40030009073
:1002D0000198401C0190009818B90198B0F5A06FE2
:1002E000F1D16C48006800F4003010B1012000909A
:1002F00001E0002000900098012846D16548403078
:10030000006840F0805063494031086062480068EE
:1003100040F44040604908605E48083000685D492C
:10032000083108600846006840F40040086008464C
:10033000006840F4A05008605848091F0860081F72
:10034000006840F08070091F086000BF51480068D5
:1003500000F000700028F9D040F2057050490860A4
:100360004C480830006820F003004A490831086012
:100370000846006840F00200086000BF45480830A9
:10038000006800F00C000828F8D10CBD10B54548F5
:10039000006840F47000434908603E48006840F03F
:1003A00001003C49086000203A490831086039489A
:1003B00000683D490840374908603C48091D08600D
:1003C000081F006820F48020091F086000203149C0
:1003D0000C310860FFF76CFF4FF000603149803945
:1003E000086010BD70B50020002202230024022105
:1003F000284D08352D6805F00C0020B1042806D0E2
:10040000082834D107E02A4D2A4E356033E02A4DC2
:10041000284E35602FE01F4D2D1D2D68C5F38054EB
:100420001C4D2D1D2D6805F03F0154B1224DB5FB2B
:10043000F1F5184E361D3668C6F3881605FB06F230
:1004400009E01B4DB5FBF1F5124E361D3668C6F3BB
:10045000881605FB06F20F4D2D1D2D68C5F30145CD
:100460006D1C6B00B2FBF3F5124E356003E0104DCE
:10047000104E356000BF00BF064D08352D68C5F32E
:1004800003150E4E705D0B4D2D68C540094E35604D
:1004900070BD000000380240007000400854400762
:1004A000003C024088ED00E0FFFFF6FE1030002423
:1004B0000024F4000000002000127A000400002054
:1004C00010B54FF4A0600AF033FF09F0CFFF4A489F
:1004D0000AF00EF84FF4E1300AF0FFF84FF4612013
:1004E0000AF026FA4FF4E1300AF0D4FA4FF4E13082
:1004F0000AF016FC0AF0FEFD002303220821104634
:1005000009F06CFE002303220821104609F0FFFECB
:100510000AF0C8FE10BD10B52DED088BB0EE409A64
:10052000F0EE609AB0EE418A9FED341BB0EE490ABE
:10053000F0EE690A14F0B2FFB0EE40AAF0EE60AA45
:1005400051EC1A0B16F0C6FB08EE100AB5EEC08A85
:10055000F1EE10FA11D218EE100A17F09FFA41ECE2
:100560001B0B9FED260B53EC102B16F0E5FB41EC1B
:100570001A0B16F0AFFB08EE100AB0EE480ABDECFD
:10058000088B10BD10B52DED088BB0EE409AF0EE43
:10059000609AF0EE418AB0EE481AB0EE490AF0EEE9
:1005A000690AFFF7B8FFB0EE408A18EE100A17F09C
:1005B00075FA41EC1A0B9FED130B53EC102B17F04F
:1005C00075F812D218EE100A17F068FA41EC1B0BFE
:1005D0009FED0A0B53EC102B17F076F941EC1A0B38
:1005E00016F078FB08EE900A01E0F0EE488AB0EED3
:1005F000680ABDEC088B10BDA08601000000000059
:1006000000807640000000000080664010B52DEDAF
:10061000028B88B06B480068401C6A4908606A49D0
:100620006A48D0ED000A6A4890ED000A694802F075
:1006300064F864490868C11700EB91718910A0EB58
:100640008101012936D1644890F84300C0F340008D
:10065000614991F84110604AB2F84C205E4B9B6CA6
:1006600000EE103ABDEEC00A10EE103A1BB2CDE912
:100670000432CDE906105948B0F91310B0F90F0053
:10068000564AB2F91120564B1B6C1BB2544CCDE9A3
:100690000032CDE9020194ED121BB0EE410AF0EEFA
:1006A000610A4E4C237BA27B94F844104D4CA07EF3
:1006B00007F0D0FE4349086800EBD0714910A0EB69
:1006C000410119B902F01AFF02F0B4FF3D48006879
:1006D000032190FBF1F201FB120018B901F0DBFCE1
:1006E00006F0D1FC37480068052190FBF1F201FBD0
:1006F0001200E0BB3C4890F83200D8B93A4A117871
:10070000354A92F83700394AD2ED021AB0EE611A32
:10071000D2ED001AF1EE611AF0EE610AD2ED011A83
:10072000F1EE611AB0EE610A314AF3EE0B1A07F0EE
:10073000E4FF2FE02D4890ED010A10EE101A084654
:1007400017F0ACF941EC180B2A4890ED001AB0EE06
:10075000480AF0EE680AFFF715FF264880ED000A08
:10076000214A11781C4A92F83700204A00E011E033
:1007700092ED020AB0EE401A92ED000AB1EE400A84
:10078000F0EE400A1A4AF3EE0B1A1A4B93ED000AE8
:1007900007F0B3FF0B480068642190FBF1F201FB06
:1007A0001200012801D108F0A0F808B0BDEC028BBE
:1007B00010BD10B500F020F802F01CF902F0BEFEEA
:1007C00010BD000014000020243100204C00002047
:1007D000480000209C000020DC2F0020D80B0020C7
:1007E000202A00209830002084040020602500206A
:1007F000BB3B00201800002010B540F25471FE48A9
:1008000013F084FA9FEDFD1ADFEDFC0A9FEDFC0A60
:100810000A234FF416720321FA4803F080FBB2EE6C
:10082000001ADFEDF90AB3EE020A04234FF4FA725C
:100830000321F148803003F072FB9FEDF41ADFEDE5
:10084000F40A9FEDF40A44F6206346F67812032179
:10085000F14803F064FBB2EE001ADFEDF00AB2EEED
:10086000030A04234FF4FA720321E348343003F0FF
:1008700056FB9FEDEB1ADFEDEB0A9FEDEB0A42F220
:10088000107347F248120321E3484C3803F047FB4A
:100890009FEDDA1ADFEDD90AB3EE000A0823C82269
:1008A0000321DD48983003F03AFB9FEDD41ADFEDC9
:1008B000D80A9FEDDE0A4FF4FA6346F2A81203212C
:1008C000DB4803F02CFBB1EE041ADFEDCC0AB2EEEC
:1008D000040A08234FF482720321CF484C3003F0FE
:1008E0001EFB9FEDC61ADFEDC80A9FEDCF0A40F64A
:1008F000B83347F248120321CD484C3803F00FFBC0
:100900009FEDC71ADFEDC00AB2EE0E0A0A23C82215
:100910000321C84803F003FB9FEDB81ADFEDBC0AC2
:100920009FEDBC0A46F2A81346F678120321C1488F
:100930004C3003F0F4FA9FEDB11ADFEDBF0A9FEDE2
:10094000BF0A102396220321BA484C3803F0E7FA75
:100950009FEDAA1ADFEDB30A9FEDB30A47F2684391
:100960001A460321B348983003F0D9FA9FEDA31A31
:10097000DFEDA20AB3EE000A0823C8220321AC4827
:10098000983003F0CCFA9FED9D1ADFEDA10A9FEDA0
:10099000A70A4FF4FA6346F2A8120321A84803F00D
:1009A000BEFAB1EE041ADFED950AB2EE040A08238E
:1009B0004FF4827203219E484C3003F0B0FA9FED51
:1009C0008F1ADFED910A9FED980A40F6B83347F28F
:1009D000481203219A484C3803F0A1FAB1EE041AE8
:1009E000DFED980AB2EE080A142346220321944848
:1009F000983003F094FA9FED811AF1EE0C0A9FED06
:100A0000920A44F6206346F2A81203218948E4388A
:100A100003F085FAB2EE041ADFED8A0AB3EE040A97
:100A200014233C22032186484C3003F078FA9FEDD2
:100A3000741AF1EE000A9FED850A46F2A8131A46D1
:100A400003217C48983803F06AFAB1EE041ADFED0E
:100A50007D0AB3EE020A0A23C82203217C4803F070
:100A60005EFA9FED661AF2EE000A9FED6A0A46F200
:100A7000A81346F67812032175484C3003F04FFA5C
:100A80009FED5E1ADFED6F0AB2EE0E0A04234FF4FB
:100A9000827203216E484C3803F041FA9FED571AD9
:100AA000F2EE000A9FED600A41F2883346F2A81286
:100AB00003216748983003F032FA10BD2DE9F04168
:100AC0002DED108B92B0B0EE408A4FF01C086148BB
:100AD00090ED000ADFED600A20EE200A10EE101AF9
:100AE000084616F0DBFF41EC1B0BB0EE4B0AF0EEB4
:100AF0006B0A14F065FCB0EE40AAF0EE60AA53EC6D
:100B00001A2B9FED560B51EC100B16F0D1F941EC5E
:100B1000190B16F0DFF80546284616F0BFFF41EC2A
:100B20001D0BB0EE4D1AF0EE6D1A9FED4E0B14F04A
:100B300047FBB0EE40CAF0EE60CA9FED4C0B53ECA1
:100B4000102B51EC1C0B16F00BFC41EC1A0B18EEA1
:100B5000100A16F0A3FF41EC1B0B53EC1A2B16F0F6
:100B6000EBF841EC190B16F0B5F80E90284616F08C
:100B700095FF41EC1A0B9FED380A28EE000A10EEA3
:100B8000101A084616F08AFF41EC1C0BB0EE4C0A16
:100B9000F0EE6C0A14F014FCB0EE40BAF0EE60BA5D
:100BA00053EC1A2B51EC1B0B16F0DAFB41EC190B32
:100BB00016F090F80FEE100A284616F06FFF41EC81
:100BC0001A0B9FED250A28EE000A10EE101A0846AF
:100BD00016F064FF41EC1C0BB0EE4C0AF0EE6C0A10
:100BE00015F006FBB0EE40BAF0EE60BA53EC1A2BEB
:100BF00051EC1B0B3EE000008404002000000000CC
:100C000000004843441B00200AD7233C00007042E8
:100C10006F12833A000016439C0500209A99193EF2
:100C200000002042CDCC4C3F0000964300003443EE
:100C3000CC060020C4090020CDCCCC3D9A99D940E7
:100C4000FC070020CDCC4C3E0000AF430000E14348
:100C5000F40A00206025002035FA8E3C9A99999973
:100C600099991B40000000205C8F13400000002079
:100C7000DCA54C4016F074FB41EC190B16F02AF879
:100C8000064618FB08F000EE100AB8EEC00AF0EEB7
:100C9000408A2FEE0F0A10EE104A18EE900A16F056
:100CA000FDFECDE90801304616F0F8FE41EC1B0BC5
:100CB000B0EE000A28EE800A10EE101A084616F070
:100CC000EDFE41EC1D0B204616F0E8FE9FEDFE0BFD
:100CD00053EC102BCDE900019DED000B51EC100BF6
:100CE00016F03EFB41EC1E0B53EC1D2B16F0E0F80A
:100CF00041EC1C0B53EC1B2B16F01EF8CDE9040144
:100D0000204616F0CBFE41EC1B0B9FEDF10B53EC94
:100D1000102B16F025FBCDE902019DED040B53ECE1
:100D2000102B9DED020B51EC100B16F019FBCDE9C9
:100D300006019DED080B53EC102B9DED060B51ECBD
:100D4000100B16F0B5F8CDE90C01204616F0A6FE02
:100D5000CDE90A019DED0C0B53EC102B9DED0A0B18
:100D600051EC100B16F0B0FD41EC1A0BB0EE4A0A34
:100D7000F0EE6A0A15F0A0FAB0EE409AF0EE609A32
:100D800051EC190B15F0A6FF0FEE900A204616F055
:100D900085FE41EC1A0B9FEDCC0B53EC102B16F09B
:100DA000DFFA41EC190B15F095FF11903FEE6F0A39
:100DB00060EE280A9DED110A80EE801A11EE107A7D
:100DC000384616F06BFE41EC1A0BB0EE4A0AF0EE14
:100DD0006A0A14F089F8B0EE409AF0EE609A51EC8D
:100DE000190B15F077FF10909DED100ADFEDBA0A90
:100DF00020EE200A8DED0F0A9DED0F0A12B0BDEC1A
:100E0000108BBDE8F08110B52DED088BB34800784C
:100E100070B9B34890ED000AB24880ED000AB048BE
:100E200090ED010AB04880ED000A0120AB4908703E
:100E3000AB4890ED000AAD4880ED040AA84890ED5B
:100E4000010AAA4880ED030AA54890ED030AA748C5
:100E500080ED080AA24890ED040AA44880ED070A34
:100E6000A348C07B48B1A24890ED040AF7EE000AFF
:100E700030EE200A80ED040A04E01FEDA00A9C4831
:100E800080ED040A9A4890ED040AF7EE000AB4EEE9
:100E9000E00AF1EE10FA7CD20120964908709448DD
:100EA000B0F9080000EE100AB8EEC00A9248D0ED82
:100EB000000AB4EE600AF1EE10FA6BD18C48B0F97A
:100EC0000A0000EE100AB8EEC00A8C48D0ED000A05
:100ED000B4EE600AF1EE10FA74D18549B1F9080058
:100EE00016F0D7F941EC1B0B9FED850B53EC102B43
:100EF00016F036FA41EC1A0B9FED831BB0EE4A0A4E
:100F0000F0EE6A0A14F05CF9B0EE409AF0EE609AE6
:100F10001FEDAA0B53EC102B51EC190B16F020FA15
:100F200041EC180B15F0D6FE794908607049B1F90B
:100F30000A0016F0AEF941EC1B0B9FED710B53EC60
:100F4000102B16F00DFA41EC1A0B9FED6F1BB0EE53
:100F50004A0AF0EE6A0A14F033F9B0EE409AF0EE65
:100F6000609A1FEDBE0B53EC102B51EC190B16F0D1
:100F7000F7F941EC180B15F0ADFE664908605C48C6
:100F800090ED000A6248D0ED000A30EE200A624877
:100F900001E03EE016E0D0ED000A30EE200A5F48A6
:100FA00080ED000A524890ED010A0846D0ED000A93
:100FB00030EE200A5A48D0ED000A30EE200A594897
:100FC00080ED000A4A48B0F9080000EE100AB8EEB9
:100FD000C00A494880ED000A4548B0F90A0000EE11
:100FE000100AB8EEC00A454880ED000A4B4890ED63
:100FF000000A3E4880ED010A4A4890ED000AFFF7DA
:101000005DFD4748D0ED000A30EE200A374880EDFC
:10101000020A364890ED020AFBEE090AB4EEE00A35
:10102000F1EE10FA04D8BBEE090A80ED020A0DE0D9
:101030002E4890ED020AF3EE010AB4EEE00AF1EE5A
:1010400010FA03DBB3EE010A80ED020A29480078AA
:1010500058B9254890ED000A244880ED010A21483E
:1010600090ED000A214880ED020A2048D0ED071AD1
:10107000B0EE611AD0ED031AF0EE610AD0ED011A5C
:10108000B0EE610ADFED281A00F1140200F5E1610B
:1010900000F2246002F081FFFFEE000A20EE200A39
:1010A000BDEEC00A10EE100A01B210488184D0EDE6
:1010B000081AB0EE611AD0ED041AF0EE610AD0ED14
:1010C000021AB0EE610A31E09A99999999992340F0
:1010D0009A99999999993340E12E654258000020D8
:1010E00060250020400000204400002084040020EF
:1010F000FC30002059000020500000205400002047
:10110000000000E0EF50743F0000000000002040AD
:101110005C0000206000002030000020480000201B
:10112000340000204C000020000000005FED021A97
:1011300000F1180200F2BC6100F5CE6002F02DFF54
:10114000F7EE000A20EE200ABDEEC00A10EE100AEB
:1011500001B2FE48C184BDEC088B10BD10B52DED69
:10116000088BFB48007870B9FA4890ED000AFA48FD
:1011700080ED000AF74890ED010AF84880ED000A7A
:101180000120F3490870F34890ED000AEF4880ED24
:10119000040AF04890ED010AEC4880ED030AED489E
:1011A00090ED030AE94880ED080AEA4890ED040A48
:1011B000E64880ED070AEA48C07B48B1E84890ED70
:1011C000040AF7EE000A30EE200A80ED040A04E07B
:1011D0001FED2B0AE24880ED040AE14890ED040A75
:1011E000F7EE000AB4EEE00AF1EE10FA7ED201202A
:1011F000DC490870DA48B0F9080000EE100AB8EED1
:10120000C00AD948D0ED000AB4EE600AF1EE10FA37
:101210006DD1D348B0F90A0000EE100AB8EEC00A4A
:10122000D248D0ED000AB4EE600AF1EE10FA74D1A3
:10123000CB49B1F9080016F02CF841EC1B0B1FED5F
:10124000500B53EC102B16F08BF841EC1A0B1FEDE2
:10125000521BB0EE4A0AF0EE6A0A13F0B1FFB0EE8C
:10126000409AF0EE609A9FEDC20B53EC102B51ECBC
:10127000190B16F075F841EC180B15F02BFDBE4953
:101280000860B749B1F90A0016F003F841EC1B0BEE
:101290001FED650B53EC102B16F062F841EC1A0BA6
:1012A0001FED671BB0EE4A0AF0EE6A0A13F088FFE2
:1012B000B0EE409AF0EE609A9FEDAD0B53EC102B20
:1012C00051EC190B16F04CF841EC180B15F002FD1F
:1012D000AA490860A24890ED000AA748D0ED000A8C
:1012E00030EE200AA648D0ED000A01E03CE014E010
:1012F00030EE200AA34880ED000A994890ED010ADB
:101300000846D0ED000A30EE200A9F48D0ED000AD2
:1013100030EE200A9D4880ED000A9148B0F908009F
:1013200000EE100AB8EEC00A8F4880ED000A8C4823
:10133000B0F90A0000EE100AB8EEC00A8B4880ED42
:10134000000A904890ED000A804880ED010A8F481D
:1013500090ED000AFFF7B2FB8B48D0ED000A30EEAB
:10136000200A7A4880ED020A784890ED020AFBEEE6
:10137000090AB4EEE00AF1EE10FA04D8BBEE090A4D
:1013800080ED020A0DE0714890ED020AF3EE010AC9
:10139000B4EEE00AF1EE10FA03DBB3EE010A80EDE1
:1013A000020A7048007858B96C4890ED000A674806
:1013B00080ED010A684890ED000A644880ED020A59
:1013C0006248D0ED071AB0EE611AD0ED031AF0EEC4
:1013D000610AD0ED011AB0EE610A5FEDAD1A00F1BD
:1013E000140200F5956100F5717002F0D6FDFFEE74
:1013F000000A20EE200ABDEEC00A10EE100A01B26B
:1014000052488184D0ED081AB0EE611AD0ED041A6A
:10141000F0EE610AD0ED021AB0EE610A5FEDBE1A7D
:1014200000F1180200F25C4100F5826002F0B5FDA7
:10143000F7EE000A20EE200ABDEEC00A10EE100AF8
:1014400001B24248C184BDEC088B10BD10B52DED32
:101450000A8BB0EE409AF0EE609AB0EE418A9FEDB2
:101460004C0B53EC102B51EC190B15F079FF41ECA0
:101470001C0B9FED490B53EC102B15F071FF41EC49
:101480001B0B9FED471BB0EE4B0AF0EE6B0A14F0FE
:1014900005F8B0EE40AAF0EE60AA51EC1A0B15F078
:1014A00019FC08EE100AB5EEC08AF1EE10FA05D26A
:1014B0009FED3D0A38EE000AB0EE408A18EE100AA1
:1014C00016F0ECFA41EC100BBDEC0A8B10BD10B518
:1014D0002DED108B84B0354890ED121BB0EE410A13
:1014E000F0EE610A324890ED001AFFF7AFFFB0EE60
:1014F000408AF0EE608A51EC180B15F0EBFB2C499A
:101500000860084690ED000ADFED2A0AB4EEE00A12
:10151000F1EE10FA09DB90ED000ADFED230A30EE60
:10152000600A254880ED000A05E0214890ED000A98
:10153000214880ED000A9FED211ADFED210A1E48A7
:1015400090ED000A1F4802F086FB3DE08404002075
:1015500058000020602500204000002044000020AA
:10156000FC300020590000205000002054000020D2
:1015700000000020DCA54C405C0000206000002042
:101580003000002048000020340000204C000020E3
:10159000000000000000F0BF000000A046DF913F07
:1015A00000000060FB211940DB0FC940202A002009
:1015B00088000020DB0F49408C000020920A863E04
:1015C00000000000441B0020B1EE400AF74880ED07
:1015D000000AF74890ED5E0AF64880ED000AF648EA
:1015E00080ED000AF348006816F058FA41EC190B38
:1015F000B0EE490AF0EE690A13F046FFB0EE408AF9
:10160000F0EE608A9FEDED0B53EC102B51EC180BB4
:1016100016F04CF829D2E748006816F03FFA41EC82
:10162000190BE448006816F039FA41EC1C0BB0EED7
:101630004C0AF0EE6C0A13F027FFB0EE40BAF0EE61
:1016400060BA9FEDDE0B53EC102B51EC1B0B15F029
:1016500087FE41EC1A0B53EC192B15F029FC41ECD9
:10166000180B15F037FBD3490860D348006816F013
:1016700015FA41EC190BB0EE490AF0EE690A13F0C5
:1016800003FFB0EE408AF0EE608A9FEDCE0B53EC84
:10169000102B51EC180B16F009F829D2C648006837
:1016A00016F0FCF941EC190BC348006816F0F6F986
:1016B00041EC1C0BB0EE4C0AF0EE6C0A13F0E4FEA9
:1016C000B0EE40BAF0EE60BA9FEDBE0B53EC102BBB
:1016D00051EC1B0B15F044FE41EC1A0B53EC192B8B
:1016E00015F0E6FB41EC180B15F0F4FAB24908606E
:1016F000B04890ED000AB5EEC00AF1EE10FA21D024
:10170000006816F0CBF941EC190BAA48006816F0F6
:10171000C5F941EC1B0BB0EE4B0AF0EE6B0A13F06F
:10172000B3FEB0EE40AAF0EE60AA53EC192B51ECD8
:101730001A0B15F0BDFB41EC180B15F0CBFAA349C1
:10174000086004E0B7EE000AA04880ED000A98485F
:10175000407803280BD09E4890ED010A944880ED14
:101760000B0A9B4890ED000A914880ED0A0A9848C0
:1017700090ED000A8E4880ED040A954890ED010A2C
:101780008B4880ED030A924890ED030A884880ED6B
:10179000080A8F4890ED040A854880ED070A8D48B5
:1017A000407D00287ED0824890F83200002879D110
:1017B0008948807B0128FAD17D4890ED010AD0ED5F
:1017C000030A30EE600A10EE101A084616F066F9A9
:1017D00041EC190BB0EE490AF0EE690A13F054FE21
:1017E000B0EE408AF0EE608A9FED7C0B53EC102B3C
:1017F00051EC180B15F078FD04D201206C4981F8EA
:10180000310003E000206A4981F83100704890ED12
:10181000000A674880ED040A6D4890ED010A6448AB
:1018200080ED030A6A4890ED030A614880ED080ADA
:10183000674890ED040A5E4880ED070A664890ED1F
:10184000010AB1EE400A6748D0ED000A30EE200AE6
:10185000574880ED020A604890ED000A6248D0EDDA
:10186000000A30EE200A524880ED010A90ED010A8C
:10187000D0ED030A30EE600A10EE101A084616F09A
:101880000DF941EC180B9FED590B53EC102B15F093
:101890000DFF0BD2464890ED010ADFED560A30EEFF
:1018A000600A00E0ACE080ED010A1DE0404890EDE8
:1018B000010AD0ED030A30EE600A10EE101A084655
:1018C00016F0ECF841EC180B9FED4B0B53EC102B82
:1018D00015F00AFD08D2364890ED010ADFED450A01
:1018E00030EE200A80ED010A314890ED020AFBEE4D
:1018F000090AB4EEE00AF1EE10FA04D8BBEE090AC8
:1019000080ED020A0DE02A4890ED020AF3EE010A8A
:10191000B4EEE00AF1EE10FA03DBB3EE010A80ED5B
:10192000020A2348D0ED071AB0EE611AD0ED031A6F
:10193000F0EE610AD0ED011AB0EE610A5FEDE01A37
:1019400000F1140200F5BB6100F2F44002F025FB47
:10195000FFEE000A20EE200ABDEEC00A10EE100ACB
:1019600001B213488184D0ED081AB0EE611AD0EDAF
:10197000041AF0EE610AD0ED021AB0EE610A5FEDD2
:10198000F01A00F1180200F28C5100F5A86002F084
:1019900004FBF7EE000A20EE200ABDEEC00A10EEAE
:1019A000100A01B20248C18459E2000090000020F0
:1019B000840400206C000020700000200000000063
:1019C00000003E40000000000000144074000020B1
:1019D0006025002098300020FC300020000000002E
:1019E000000000403C000020380000200000000003
:1019F000008066400000B44300000000008066C024
:101A0000FE48407D00287CD0FD4890F83200012837
:101A100077D1FC48807B0128FAD1FB4890ED000A81
:101A200010EE101A084616F039F841EC190BB0EE1A
:101A3000481AB0EE490AF0EE690AFEF7A3FDB0EECF
:101A4000408AF14890ED010A10EE101A084616F08F
:101A500025F841EC190BB0EE681AB0EE490AF0EE29
:101A6000690AFEF78FFDF0EE408AE54880ED048AB2
:101A7000C0ED038A90ED010AD0ED030A30EE600A52
:101A800010EE101A084616F009F841EC1A0BB0EEE9
:101A90004A0AF0EE6A0A13F0F7FCB0EE409AF0EE54
:101AA000609A1FED320B53EC102B51EC190B15F013
:101AB0001BFC04D20120D24981F8310003E0002050
:101AC000CF4981F83100D04890ED030ACC4880ED31
:101AD000080ACD4890ED040AC94880ED070AC948B4
:101AE00090ED010AB1EE400AC848D0ED000A30EE90
:101AF000200AC34880ED020AC24890ED000AC4489B
:101B000000E0A3E0D0ED000A30EE200ABC4880EDF2
:101B1000010A90ED010AD0ED030A30EE600A10EEE2
:101B2000101A084615F0BAFF41EC190B1FED510BC6
:101B300053EC102B15F0BAFD09D2B14890ED010A13
:101B40005FED540A30EE600A80ED010A1DE0AC48FA
:101B500090ED010AD0ED030A30EE600A10EE101A83
:101B6000084615F09BFF41EC190B1FED5D0B53EC84
:101B7000102B15F0B9FB08D2A14890ED010A5FEDDA
:101B8000630A30EE200A80ED010A9D4890ED020ABA
:101B9000FBEE090AB4EEE00AF1EE10FA04D8BBEE4F
:101BA000090A80ED020A0DE0954890ED020AF3EE75
:101BB000010AB4EEE00AF1EE10FA03DBB3EE010A1B
:101BC00080ED020A8E48D0ED071AB0EE611AD0ED12
:101BD000031AF0EE610AD0ED011AB0EE610ADFEDF2
:101BE0008D1A00F1140200F54B7100F5257002F01A
:101BF000D4F9FFEE000A20EE200ABDEEC00A10EE76
:101C0000100A01B27E488184D0ED081AB0EE611A44
:101C1000D0ED041AF0EE610AD0ED021AB0EE610ABE
:101C2000DFED7C1A00F1180200F55E7100F53870E6
:101C300002F0B3F9F7EE000A20EE200ABDEEC00A6A
:101C400010EE100A01B26E48C18408E16C4890EDB4
:101C50000A0A80ED020A90ED0B0A80ED010A6E4837
:101C6000006D502803D9002165488184F7E063485E
:101C7000B0F90C0002EE100AB8EEC22A6748D0EDA7
:101C8000002A22EE222A6648D0ED002A654890ED0F
:101C9000003A62EE832A644890ED003A02EE832A0D
:101CA000F0EE421A564890ED072AB0EE421A90ED37
:101CB000032AF0EE420A90ED012AB0EE420A00F14A
:101CC000140200F5FE7100F5B27002F066F9FFEE45
:101CD000000A20EE200A10EE104A204615F0DEFE23
:101CE00041EC180B5148006815F0D8FE41EC1E0B72
:101CF0001FEDC61BB0EE4E0AF0EE6E0A13F050FC5C
:101D0000B0EE40CAF0EE60CA4948006815F0C6FE61
:101D100041EC1D0B53EC1C2B15F022FB41EC1A0B74
:101D20004448006815F0BAFE41EC1F0B9FED421BC2
:101D3000B0EE4F0AF0EE6F0A13F032FC8DED000B9F
:101D40003F48006815F0AAFE41EC1E0B9DED000B0C
:101D500053EC102B15F004FB41EC1C0B284890EDC4
:101D6000070A3848D0ED000A20EE200A10EE101ABB
:101D7000084615F093FE41EC1D0B53EC1C2B14F0A0
:101D8000DBFF41EC1B0B53EC1A2B14F0D5FF41EC9D
:101D9000190B53EC182B14F0CFFFCDE902019DED88
:101DA000020B51EC100B15F017FA01B214488184A4
:101DB0001248B0F90E0002EE100AB8EEC22A22480C
:101DC000D0ED002A22EE222AF0EE421A0C4890EDC5
:101DD000082AB0EE421A90ED042AF0EE420A90ED85
:101DE000022AB0EE420A00F1180200F5127100F565
:101DF000D87002F0D2F8F7EE000A27E09830002001
:101E000084040020FC300020602500203C000020DD
:101E10003800002000000000202A0020640000207C
:101E20008400002090000020740000206C0000203E
:101E30007800002070000020000000000000084032
:101E4000800000207C0000206800002020EE200A96
:101E5000BDEEC00A10EE100A01B2B548C18404B04C
:101E6000BDEC108B10BD10B52DED048B0020B149D9
:101E70000870B149087000BF1FED1A0AAC4880ED28
:101E8000020AAE4890ED000AA94880ED040A1FED51
:101E90001F0A80ED010AAA4890ED121BB0EE410A1C
:101EA000F0EE610A51EC100B14F008FF14F012FF71
:101EB0009F49C860A14890ED040A084680ED070AD2
:101EC0009E4890ED030A084680ED080A90ED030A4B
:101ED000DFED9C0A80EE201ABDEEC10A10EE104A1A
:101EE0004FF4B47104FB01F000EE100AB8EEC00A22
:101EF0008F4880ED010A90ED010AD0ED030A30EE23
:101F0000600ADFED910AB4EEE00AF1EE10FA08DBA8
:101F100090ED010ADFED8B0A30EE600A80ED010AD8
:101F200015E0834890ED010AD0ED030A30EE600A17
:101F3000DFED860AB4EEE00AF1EE10FA07D290ED7A
:101F4000010ADFED800A30EE200A80ED010A7848B0
:101F5000D0ED071AB0EE611AD0ED031AF0EE610A67
:101F6000D0ED011AB0EE610A5FED561A00F11402CD
:101F700000F1CC01343002F010F8FFEE000A20EE40
:101F8000200ABDEEC00A10EE100A01B26848818432
:101F9000D0ED081AB0EE611AD0ED041AF0EE610A25
:101FA000D0ED021AB0EE610A5FED661A00F1180278
:101FB00000F58C71803001F0F0FFF7EE000A20EEA2
:101FC000200ABDEEC00A10EE100A01B25848C184C2
:101FD00090ED020AD0ED040A30EE600A10EE101AFD
:101FE000084615F05BFD41EC190BB0EE490AF0EE26
:101FF000690A13F049FAB0EE408AF0EE608A9FED6C
:10200000540B53EC102B51EC180B15F06DF93FD815
:10201000474890ED010AD0ED030A30EE600A10EE59
:10202000101A084615F03AFD41EC190BB0EE490ABA
:10203000F0EE690A13F028FAB0EE408AF0EE608AFA
:102040009FED450B53EC102B51EC180B15F04CF990
:102050001ED80120364981F83000384890ED000A3A
:102060003F4880ED000A90ED000A3E48D0ED000A9E
:1020700030EE200A3C4880ED000A394890ED000A15
:102080003A48D0ED000A30EE200A394880ED000AC7
:10209000BDEC048B10BD10B525480078032816D080
:1020A00003DC38B101281BD10EE00B2812D00C281C
:1020B00016D112E024211E48001D11F027FE002039
:1020C0001B4981F830000CE0FFF7CDFE09E0FFF777
:1020D000FEF906E0FFF742F803E0FEF794FE00E0A9
:1020E00000BF00BF124890ED020A2148D0ED000A5F
:1020F000B4EEE00AF1EE10FA05D890ED000A0C48B3
:1021000080ED020A0FE00A4890ED020A1648D0ED71
:10211000000AB4EEE00AF1EE10FA04DB90ED000ADA
:10212000034880ED020A024800780149487010BD5A
:102130008404002058000020590000206025002061
:10214000202A00200000B44300003543000033C3C0
:102150000000000000001040000000000000F83FF8
:10216000240000202C000020200000202800002057
:102170001C00002010B52DED088BFD480078FD49AE
:102180000870FD48807EFA49087008460078F949D1
:102190000978884206D00020F84908704870F8494C
:1021A00008734873F448807E012804D002287DD04B
:1021B00003287CD1C3E0F1480078012813D0EE4811
:1021C0004088A0F5806000EB400000B2EC49A1F827
:1021D0000F00E9480088A0F5806000EB400001B2E4
:1021E000E748A0F81110E5480078032857D1E249E4
:1021F000B1F90610A1F5806015F04BF841EC1B0B0E
:102200009FEDE00B53EC102B15F0AAF841EC190BE5
:10221000DA4890ED0A0A10EE101A084615F03EFC56
:1022200041EC1A0B53EC192B15F04EFB41EC180B3B
:1022300014F050FDD1498862084690ED0B0ACE4853
:10224000B0F90400A0F5806000EE900AF8EEE00A14
:102250009FEDCE1A00EE810A084680ED0B0A90ED44
:102260000A0ACB48D0ED000AB4EEE00AF1EE10FA0B
:1022700005D890ED000A084680ED0A0A0FE0BF4835
:1022800090ED0A0AC348D0ED000AB4EEE00AF1EE80
:1022900010FA04DB90ED000AB84880ED0A0AB7484E
:1022A000007801280AD0B548007801E0A7E1ACE148
:1022B0000C2803D0B14800780B2802D10120B04986
:1022C0000873AE480078012809D0AB48807E022808
:1022D00005D0AA48407810B90320A8490870A7483B
:1022E000407840B9A548007828B10120A34908707A
:1022F000002081F83000A1480078032803D1012094
:102300009F4981F844009D4890F83000012815D17C
:1023100003209A4908709848807F40B10720984967
:10232000087340F226219648A0F8131006E0032017
:102330009349087300219248A0F8131066E18F4872
:102340000078012878D08C4890F82D0038B103200F
:102350008B4988734FF4C8608F49088006E00220DB
:10236000874988734FF4FA708B490880824890F847
:10237000290030B18848B0F900008149A1F80F0068
:102380000FE07D4890F82B0038B183480088404228
:1023900000B27B49A1F80F0003E000207849A1F8C2
:1023A0000F00754890F82A00B8B17548807B032863
:1023B0000BD17949B1F90010484200EBD0714910B6
:1023C0000AB26F49A1F8112024E073480088404206
:1023D00001B26B48A0F811101CE0674890F82C007F
:1023E000A0B16748807B032809D16B49B1F900008F
:1023F00000EBD0714910624AA2F811100AE0664859
:10240000B0F900105E48A0F8111003E000215C480C
:10241000A0F811105948007803286AD15648407D29
:1024200050B95548B0F90C0010F1640F05DC6FF09D
:1024300063005149888108E05BE04F48B0F90C0027
:10244000642802DB64204C4988814B48B0F90E00B7
:1024500010F1640F04DC6FF063014748C18107E0AD
:102460004548B0F90E00642802DB64214248C1816E
:10247000424890ED0B0A4048B0F90C0000EE900A7B
:10248000F8EEE00A9FED451A00EE810A3B4880ED28
:102490000B0A90ED0A0A3848B0F90E0000EE900AD7
:1024A000F8EEE00A9FED3E1A00EE810A334880ED17
:1024B0000A0A90ED0A0A3648D0ED000AB4EEE00AA6
:1024C000F1EE10FA05D890ED000A2C4880ED0A0ACA
:1024D0000FE02A4890ED0A0A2E48D0ED000AB4EE2B
:1024E000E00AF1EE10FA04DB90ED000A234880EDDB
:1024F0000A0A22480078012807D0204800780C28D2
:1025000003D01E4800780B2802D101201C49087313
:102510001A480078012809D01748807E022805D083
:102520001648407810B903201449087013484078C1
:1025300040B91248007828B10120104908700020E5
:1025400081F830000D480078032803D101200C49A0
:1025500081F84400094890F8300001284ED106481F
:1025600090F84700F0B10C200449087027E0000003
:10257000960000209700002098300020840400205E
:10258000D80B0020FCA9F1D24D62803F6F12033CB2
:102590001C00002020000020940000208FC2753D08
:1025A0000AD7233D1D4890F8450018B10B201C495F
:1025B000087004E003201A4908701A490873174884
:1025C00090F83F0018B107201649087302E0032075
:1025D00014490873114890F8440020B101201049B3
:1025E00081F8320003E000200D4981F832000B48E9
:1025F00090F8380010B100200B49087006E0002068
:10260000074908700749087300E000BF00BF05488C
:10261000007B04494873BDEC088B10BD9830002046
:1026200084040020D80B00202804002010B50446A4
:1026300004F168030122042104F110000CF02EFAC9
:1026400004F178030122022104F138000CF026FA8B
:1026500004F590730422114604F118000CF01EFAE0
:1026600004F1E0030422114604F120000CF016FAF4
:1026700004F1200104F118000DF071FE04F5D0738F
:102680000422114604F148000CF008FA04F5C07366
:102690000422022104F128000CF000FA04F5B073C2
:1026A0000222042104F130000CF0F8F904F13001A9
:1026B00004F128000DF053FE04F5F07302221146D8
:1026C00004F140000CF0EAF904F1A00304221146E1
:1026D00004F150000CF0E2F904F18003022204211D
:1026E00004F158000CF0DAF904F5F87304221146ED
:1026F00004F160000CF0D2F910BD30B52DED028B65
:1027000095B00446B0EE408AF0EE608A0D467F48F0
:10271000007828B901207D4908707D48FFF786FFC1
:102720007C4B0422114613A80CF0B8F97A4B042212
:10273000114611A80CF0B2F9784B022204210FA81F
:102740000CF0ACF9764B042202210DA80CF0A6F98E
:10275000744B022211460BA80CF0A0F9724B022216
:10276000114609A80CF09AF9704B0122022107A822
:102770000CF094F96E4B0122022105A80CF08EF9A1
:102780006C4B0122042103A80CF088F96A4B01224A
:10279000042101A80CF082F9E06B80ED008AE06B67
:1027A000C0ED018A03AA04F1100104F118000CF035
:1027B0000CFF042204F168015E4810F0B4FB287895
:1027C000002871D013AA04F1500104F118000CF094
:1027D000FCFE11AA04F1200113A80CF0F6FE04F18E
:1027E000500204F1480111A80BF0C4FE0FAA04F135
:1027F000300104F150000CF0E8FE0DAA04F1500184
:1028000004F128000CF0E1FE0BAA04F130010DA840
:102810000CF0DBFE09AA04F140010BA80BF0AAFEA4
:102820000BA909A80CF046F904F158020BA90FA84E
:102830000CF0CBFE07AA04F1100104F128000CF003
:10284000C4FE05AA07A904F138000DF032FD03AA61
:1028500005A904F158000CF0B8FE01AA03A904F17F
:1028600010000BF087FE042204F16801324810F0DA
:102870005AFB13AA04F1280104F158000CF0A5FE3C
:1028800011AA13A904F160000DF013FD13AA04F1BD
:10289000500111A80CF099FE102204F1A0011D486E
:1028A00010F041FB00202870606990ED000A84ED73
:1028B000000A606990ED010A84ED010A606990EDFB
:1028C000020A84ED020A606990ED030A84ED030AAE
:1028D00015B0BDEC028B30BD10B504460C48FFF7B7
:1028E000A5FE9FED160A606980ED000A9FED130AB0
:1028F000606980ED010A9FED110A606980ED020AAE
:102900009FED0E0A606980ED030A10BDDC02002015
:102910009C000020000D0020900C0020400D0020A5
:10292000D00C0020600D0020F00C0020D40200200C
:10293000CC020020800C0020700D00200000000060
:10294000F0EE400A90ED010A80ED020A90ED040AD3
:1029500080ED050A90ED010A80ED020A90ED040A6F
:1029600080ED050A90ED020A90ED001A30EE010AA2
:1029700090ED021AC1EE001AC0ED031A90ED050A9F
:1029800090ED031AD0ED051A70EEE11A01EE210A5E
:1029900080ED040A90ED030AB7EE001A31EE400A0A
:1029A00090ED021A20EE010A80ED010A90ED040A72
:1029B000704710B52DED068BB0EE408A18EE100A68
:1029C00015F06CF841EC1A0B9FEDFE0B53EC102B3D
:1029D00014F0A2FE41EC190B14F07CF9FB490860DD
:1029E000084690ED000ADFEDFA0A20EE200ABDEC61
:1029F000068B10BD10B59FEDF71ADFEDF70AB3EEA9
:102A0000040A4FF47A7341F270720321F34801F023
:102A100086FA9FEDF01ADFEDEF0AB3EE0E0A42F2EE
:102A200010731A460321EE4801F079FAB1EE001A4C
:102A3000DFEDEC0A9FEDE60A42F2107344F638220D
:102A40000321E7484C3001F06AFA9FEDE21ADFED0E
:102A5000E60AB2EE080A32234FF4FA620321E34891
:102A600001F05DFA9FEDDB1ADFEDDA0AB3EE020A40
:102A700041F27C5342F210720321DD4801F04FFA1B
:102A80009FEDD41ADFEDD30A9FEDD10A42F6EC4355
:102A900043F68C420321D74801F041FA9FEDCD1A4D
:102AA000DFEDCC0A9FEDCA0A42F6EC4343F68C42B6
:102AB0000321D0484C3801F032FA9FEDCF0ACF48BD
:102AC00080ED090AB3EE040A80ED1F0A0120CB490C
:102AD00048709FEDCB0A084680ED210A10BDC94819
:102AE000B0F83F10B0F84E00081A0A2190FBF1F040
:102AF000C249A1F87800C348B0F83D00A1F88E00A3
:102B0000084690F87100012805D1B3EE060A084680
:102B100080ED1F0A25E0BB4890F83800012805D158
:102B2000B2EE0E0AB54880ED1F0A1AE0B54890F8DB
:102B30003800022805D1B3EE010AB04880ED1F0A23
:102B40000FE0B04890F83800032805D1B3EE020A30
:102B5000AA4880ED1F0A04E0B3EE030AA74880EDFF
:102B60001F0A704710B52DED048BA44890F8720031
:102B700001282DD1A14890F87000012828D19F4844
:102B80004078012824D1A0480068401C9E49086074
:102B90000846006814282BDA9848B0F87800042812
:102BA00026DD964890ED1F0A10EE101A084614F024
:102BB00075FF41EC190B9FED950B53EC102B14F0A6
:102BC000CFFB41EC180B14F085F88C49C8670FE077
:102BD00000208D490860894890ED1F0AB5EEC00AB3
:102BE000F1EE10FA04D07D4890ED040A80ED030A5E
:102BF000BDEC048B10BD10B52DED0A8BFFF76FFFF8
:102C0000FFF7B0FF7D4890ED1F0AB5EEC00AF1EE68
:102C100010FA1ED090ED1F0AF3EE040AB4EEE00A9B
:102C2000F1EE10FA16DDB0F87800001F4FF47A715B
:102C3000484300EE100AB8EEC00A7048D0ED1F0AF3
:102C400080EE201ABCEEC10A10EE100A6B49A1F802
:102C5000760061E0694890ED1F0AF2EE0A0AB4EED0
:102C6000E00AF1EE10FA2BDD90ED1F0A10EE101ABB
:102C7000084614F013FF41EC190B6049B1F87800D5
:102C800014F01EFB41EC1C0B9FED620B53EC102B60
:102C900014F01AFE41EC1B0B9FED600B53EC102B54
:102CA00014F05EFB41EC1A0B53EC192B14F000F9F5
:102CB00041EC180B14F0C0FA5049A1F876002BE053
:102CC0004E4890ED1F0A10EE101A084614F0E6FE6A
:102CD00041EC190B4949B1F8780014F0F1FA41ECD4
:102CE0001C0B9FED500B53EC102B14F0EDFD41EC41
:102CF0001B0B9FED4A0B53EC102B14F031FB41ECF6
:102D00001A0B53EC192B14F0D3F841EC180B14F0F8
:102D100093FA3A49A1F87600BDEC0A8B10BD10B5C4
:102D20002DED088B3749B1F83D0014F0C9FA41EC9C
:102D30001B0B9FED3E0B53EC102B14F011FB41ECE1
:102D4000190B3049B1F83F20B1F84E10501A14F069
:102D5000A0FA41EC1A0B53EC192B13F0EDFF41ECE8
:102D6000180B13F0B7FF2549C1F88400084690ED11
:102D7000210AF2EE0E0AB4EEE00AF1EE10FA02DDDC
:102D80000120487002E000201C494870BDEC088B0F
:102D900010BD10B52DED028B2D20184981F87A0059
:102DA000FFF729FF234800780B287DD021480078C1
:102DB0000C28FAD01148B0F87600002875DD0F48CD
:102DC0003AE000000000000000803B40A403002027
:102DD0000000484200000000CDCC4C3E800D002099
:102DE000DC1B0020CDCCCC3D0AD7233CB00E00200C
:102DF000FC0E00200C1D002000007AC4E002002020
:102E00000000A042DC2F0020A8030020333333331E
:102E10003333F33F0000000000000C4000000000CE
:102E200000408F40000000000000F83FFCA9F1D2F4
:102E30004D62603F8404002090F87200012834D174
:102E4000FE4890F870000128F9D1FC48407801282C
:102E5000F5D1FB480068401CF94908600968FA2967
:102E60000FD3F849D1F8A001002801DB014600E0AA
:102E70004142032905DA0120F34908700020F04996
:102E80000860F1480078012857D1F0480068401CDC
:102E9000EE49086008460068962804D90020EA49EF
:102EA0000870EA49086001E0A6E097E0E34890ED89
:102EB0001F0ADFEDE70A20EE200ADFEDE60A20EE2A
:102EC000200ADFEDE50A80EE201A90ED070A30EEC9
:102ED000410A80ED050ADB4890ED6A1BB0EE410A1D
:102EE000F0EE610A51EC100B13F0F4FED349C86107
:102EF000D448D0F8A00100EE100AB8EEC00A084687
:102F000080ED030AD0ED031AB0EE611AD0ED071A76
:102F1000F0EE610AD0ED051AB0EE610A5FED531ACA
:102F2000021DCE49CE4801F038F8BDEEC00A10EEC1
:102F3000100A00B2C149A1F86400C04890F87200BC
:102F400000284AD0C0480078002846D1BB4890ED00
:102F50001F0ADFEDBF0A20EE200ADFEDBE0A60EE99
:102F6000200A9FEDBD1A80EE810AD0ED070A30EEEF
:102F7000200A80ED050AB34890ED6A1BB0EE410AC5
:102F8000F0EE610A51EC100B13F0A4FEAB49C861DE
:102F9000AC48D0F8A00100EE100AB8EEC00A08460E
:102FA00080ED030AD0ED031AB0EE611AD0ED071AD6
:102FB000F0EE610AD0ED051AB0EE610A5FED7B1A02
:102FC000021DA649A64800F0E8FFBDEEC00A10EEBB
:102FD000100A00B29949A1F8640084E0A04890ED7D
:102FE000040A80ED030A00209449A1F86400944982
:102FF00008609649086076E0904890F872000128D1
:1030000063D19848007D01280ED19748007830B9E7
:10301000012095490870894981F8700007E0002077
:10302000864981F8700002E000208F4908708348CB
:1030300090F8700001280DD18048D0ED050A90F875
:103040007A0000EE100AB8EE400A30EE800A7B48A3
:1030500080ED050A7B4890ED6A1BB0EE410AF0EE68
:10306000610A9FED821B53EC112B51EC100B13F0F6
:103070001FFF41EC180B13F02DFE7049C861714819
:10308000B0F9B40100EE100AB8EEC00A084680EDAF
:10309000030AD0ED031AB0EE611AD0ED071AF0EE74
:1030A000610AD0ED051AB0EE610A5FEDB61A021D95
:1030B0007049714800F071FFBDEEC00A10EE100AB1
:1030C00000B25E49A1F864000DE0654890ED040A85
:1030D00080ED030A594890ED070A80ED050A0020AB
:1030E0005649A1F86400BDEC028B10BD10B52DED62
:1030F000028B2D20514981F87A00FFF77CFD5F4853
:1031000000780B286CD05D4800780C2868D04B48BC
:10311000B0F87600002855DD484890F87200012884
:1031200050D1464890F8700001284BD14348407870
:10313000012847D1414890ED1F0ADFED450A20EEF6
:10314000200ADFED440A20EE200A9FED431AC0EE6C
:10315000010A90ED070A30EE800A80ED050A394831
:1031600090ED6A1BB0EE410AF0EE610A51EC100BD3
:1031700013F0B0FD3149C8613248D0F8A00100EE2B
:10318000100AB8EEC00A084680ED030AD0ED031A13
:10319000B0EE611AD0ED071AF0EE610AD0ED051A13
:1031A000B0EE610A5FEDF51A021D2C492C4800F0C3
:1031B000F4FEBDEEC00A10EE100A00B21F49A1F8DD
:1031C0006400AAE0264890ED040A80ED030A00207E
:1031D0001A49A1F864001A4908601C4908609CE07B
:1031E000164890F8720001287DD11E48007D012804
:1031F0000ED11D48007830B901201B4908700F49D5
:1032000081F8700007E000200C4981F8700002E0AE
:10321000002015490870094890F87000012831D144
:103220000648D0ED050A90F87A0000EE100AB8EED4
:10323000400A30EE800A014822E00000E00200204F
:1032400098030020382D0020A00300209C030020BC
:1032500000003442000010420000FA43DC1B002052
:10326000800D002098300020A1030020000000C045
:10327000F30D4240FC0E0020B00E0020840400201C
:1032800080ED050AA24890ED6A1BB0EE410AF0EE0F
:10329000610A1FED0A1B53EC112B51EC100B13F0BC
:1032A00007FE41EC180B13F015FD9A49C8619848C8
:1032B000B0F9B40100EE100AB8EEC00A084680ED7D
:1032C000030AD0ED031AB0EE611AD0ED071AF0EE42
:1032D000610AD0ED051AB0EE610ADFED8F1A021D0A
:1032E0008E498F4800E00AE000F057FEBDEEC00AAC
:1032F00010EE100A00B28749A1F864000DE0894879
:1033000090ED040A80ED030A824890ED070A80EDF3
:10331000050A00207F49A1F86400BDEC028B10BDB6
:1033200010B57C4890F87200012820D17948D0ED82
:10333000280AB0EE600AFFF73CFB7648D0ED090A98
:10334000F1EE600A30EE200A774880ED030A7148FA
:10335000D0ED280AB0EE600AFFF72BFB6D48D0EDE8
:10336000090A30EEC00A704880ED160A08E09FEDA9
:103370006A0A6D4880ED030A9FED670A80ED160A20
:103380006A48D0F8A00100EE100AB8EEC00A6648FC
:1033900080ED040A6548D0F8F80100EE100AB8EE96
:1033A000C00A614880ED170A90ED031AF0EE410A59
:1033B00090ED041AB0EE410A00F056FABDEEC00AD4
:1033C00010EE100A00B25349A1F86800564890ED7B
:1033D000161AF0EE410A90ED171AB0EE410A4C3081
:1033E00000F042FABDEEC00A10EE100A01B24948E0
:1033F000A0F86A1010BD10B54D48807E012802D09B
:10340000032872D125E04A48C07F40B101204149DC
:1034100081F872000102474808F0C8FF08E0002068
:103420003C4981F872004FF48071424808F0C0FFB7
:103430003F48B0F9080040F2DC51884204DD012029
:10344000344981F8700003E00020324981F87000AF
:1034500052E03748007D012803D12E4981F87000E1
:1034600003E000202B4981F87000314890F84600B5
:1034700080B1284890F8720060B900202E49088079
:103480004FF480712B4808F091FF0120214981F809
:1034900072001BE0264890F83600B8B11D4890F83D
:1034A0007200012812D124480088401C224908805B
:1034B00008460088B0F57A7F08DB4FF480711D481C
:1034C00008F076FF0020134981F87200184890F840
:1034D000400020B101200F4981F8710003E0002075
:1034E0000C4981F8710007E0FFE70020094981F8E5
:1034F000700081F8720000BF00BF10BD10B5FFF76B
:103500007AFFFFF746FCFFF70BFFFFF708FC10BD43
:10351000382D0020E002002000000000FC0E0020FA
:10352000B00E0020800D0020C01C0020282B0020A1
:103530009830002000000240A203002010B59FED4B
:10354000A31ADFEDA20AB2EE0E0A0A2342F21072AB
:1035500003219F4800F0E3FC9FED9C1ADFED9B0ADE
:10356000B1EE000A0A234FF49672032198484C30BA
:1035700000F0D5FC9FED951ADFED940AB2EE000A3B
:103580000A2342F2107203219148983000F0C7FCE0
:103590009FED8E1ADFED8D0AB1EE000A0A234FF47B
:1035A000967203218A48E43000F0B9FC10BD8948C6
:1035B000807E012802D0032839D110E08548B0F977
:1035C000080040F2DC51884204DD022080491C39A9
:1035D000087603E001207E491C39087628E07D4802
:1035E00090F8420048B17A481C38007E012804D186
:1035F000022077491C39087618E0764890F83200A6
:10360000A0B173481C38007E02280FD17248008890
:10361000401C7149088008460088642806DB0120A8
:103620006B491C39087600206B49088000E000BF18
:1036300000BF704710B52DED048BFFF7B8FF64484D
:103640001C38807800286FD161491C3908769FEDBD
:10365000630A084680ED030A6148006C00EE100A18
:10366000B8EEC00A084680ED040A90ED031AF0EEA9
:10367000410A90ED041AB0EE410A1C3000F0F4F853
:10368000BDEEC00A10EE100A01B251481C3881820A
:103690005349B1F9560013F0FCFD41EC190BB0EEA3
:1036A000490AF0EE690A11F0EFFEB0EE408AF0EE42
:1036B000608A9FED4C0B53EC102B51EC180B13F060
:1036C000F5FF31D24649086C13F0E3FD41EC190BCC
:1036D000B0EE490AF0EE690A11F0D6FEB0EE408A6B
:1036E000F0EE608A9FED410B53EC102B51EC180B60
:1036F00013F0FAFD18D236481C380088401C3449B3
:103700001C39088008460088B0F57A7F0CDB344805
:1037100080683349886100212D481C38818201204E
:103720002B491C390876887029481C388078012874
:1037300049D1002026491C3908800846007E02280D
:1037400005D19FED2C0A084680ED010A05E09FEDAA
:103750001F0A1F481C3880ED010A2148006C00EE4A
:10376000100AB8EEC00A1A481C3880ED040A1C483A
:1037700090ED121BB0EE410AF0EE610A51EC100B15
:1037800013F0A8FA12491C3988600846D0ED041AD3
:10379000B0EE611AD0ED021AF0EE610AD0ED011A16
:1037A000B0EE610ADFED091A00F10C02B43100F548
:1037B000807000F0F2FBBDEEC00A10EE100A01B2FC
:1037C00003481C388182BDEC048B10BD0000000052
:1037D000640F002098300020AC0300200000C84295
:1037E000F02E002000000000005094400000000077
:1037F0000000F03F00C05AC5D0ED000AF4EEC00A48
:10380000F1EE10FA01DD80ED000AD0ED000AB1EE14
:10381000401AF4EEC10AF1EE10FA03D2F1EE400ABA
:10382000C0ED000A70470364C263816380ED000A43
:10383000C0ED010A80ED021A704780ED000AC0ED6C
:10384000010A80ED021ADFEDFE1AC0ED081ADFED65
:10385000FC1AC0ED091ADFEDFA1AC0ED0A1ADFED05
:10386000F81AC0ED0B1A704710B52DED088B044601
:10387000B0EE408AF0EE608A84ED048AC4ED038ADB
:1038800038EEC80A84ED070A94ED0C0AB5EEC00ABA
:10389000F1EE10FA27D094ED0C0A10EE101A08463B
:1038A00014F0FCF841EC190B94ED070A10EE101A15
:1038B000084614F0F3F841EC1B0BB0EE4B0AF0EEA7
:1038C0006B0A11F0E1FDB0EE40AAF0EE60AA53ECF5
:1038D000192B51EC1A0B13F0E9FE04D29FEDD80A14
:1038E000BDEC088B10BDA06B03283ED194ED000AFF
:1038F000D4ED070A20EE200A84ED080A94ED090AA7
:10390000D4ED010A94ED071A00EE810A84ED090A4C
:1039100094ED070AD4ED060A30EE600AD4ED020AEF
:1039200020EE200A84ED0A0AD4ED100AF8EE600AAF
:10393000B0EE600A04F12400FFF75EFF94ED080A80
:10394000D4ED090A30EE200AD4ED0A0A30EE200A3E
:1039500084ED0B0AD4ED0F0AF8EE600AB0EE600AAF
:1039600004F12C00FFF748FF42E0A06B04283FD190
:1039700094ED070AD4ED060A30EE600AD4ED000A91
:1039800020EE200A84ED080A94ED010AD4ED070A1E
:1039900020EE200A84ED090A94ED070AD4ED060A08
:1039A000B0EE001A01EE600AD4ED050A30EE200AEE
:1039B000D4ED020A20EE200A84ED0A0A94ED080AEA
:1039C000D4ED090A30EE200AD4ED0A0A30EE200ABE
:1039D000D4ED0B0A30EE200A84ED0B0AD4ED0F0A69
:1039E000F8EE600AB0EE600A04F12C00FFF704FF65
:1039F00094ED060A84ED050A94ED070A84ED060AA3
:103A000094ED0D0AB5EEC00AF1EE10FA25D094ED52
:103A10000D0A10EE101A084614F040F841EC190B8C
:103A200094ED0B0A10EE101A084614F037F841EC2A
:103A30001B0BB0EE4B0AF0EE6B0A11F025FDB0EE59
:103A400040AAF0EE60AA53EC192B51EC1A0B13F0BC
:103A50004BFC02D29FED7A0A42E794ED0B0A3FE756
:103A600010B52DED088B0446B0EE408AF0EE608A6A
:103A700084ED048AC4ED038A38EEC80A84ED070A8F
:103A800094ED0C0AB5EEC00AF1EE10FA27D094EDD1
:103A90000C0A10EE101A084614F000F841EC190B4D
:103AA00094ED070A10EE101A084613F0F7FF41ECE8
:103AB0001B0BB0EE4B0AF0EE6B0A11F0E5FCB0EE1A
:103AC00040AAF0EE60AA53EC192B51EC1A0B13F03C
:103AD000EDFD04D29FED5A0ABDEC088B10BDA06B22
:103AE00003283ED194ED000AD4ED070A20EE200A07
:103AF00084ED080A94ED090AD4ED010A94ED071A41
:103B000000EE810A84ED090A94ED070AD4ED060A55
:103B100030EE600AD4ED020A20EE200A84ED0A0A93
:103B2000D4ED100AF8EE600AB0EE600A04F1240049
:103B3000FFF762FE94ED080AD4ED090A30EE200A80
:103B4000D4ED0A0A30EE200A84ED0B0AD4ED0F0AF8
:103B5000F8EE600AB0EE600A04F12C00FFF74CFEAC
:103B60003EE0A06B04283BD194ED070AD4ED060A91
:103B700030EE600AD4ED000A20EE200A84ED080A37
:103B800094ED010AD4ED070A20EE200A84ED090A1B
:103B900094ED070AD4ED060AB0EE001A01EE600AB1
:103BA000D4ED050A30EE200AD4ED020A20EE200AF8
:103BB00084ED0A0A94ED080AD4ED0A0A30EE200AD0
:103BC000D4ED0B0A30EE200A84ED0B0AD4ED0F0A77
:103BD000F8EE600AB0EE600A04F12C00FFF70CFE6C
:103BE00094ED060A84ED050A94ED070A84ED060AB1
:103BF00094ED0D0AB5EEC00AF1EE10FA28D094ED5E
:103C00000D0A10EE101A084613F048FF41EC190B8C
:103C100094ED0B0A10EE101A084613F03FFF41EC2A
:103C20001B0BB0EE4B0AF0EE6B0A11F02DFCB0EE60
:103C300040AAF0EE60AA53EC192B51EC1A0B01E0EC
:103C40000000000013F050FB02D21FED030A43E70F
:103C500094ED0B0A40E710B52DED0A8B0446F0EE0B
:103C6000408AB0EE609AB0EE418AC4ED048A84EDD9
:103C7000039A39EE680A84ED070A18EE100A13F069
:103C80000DFF41EC1A0B94ED070A10EE101A0846CE
:103C900013F004FF41EC1C0BB0EE4C0AF0EE6C0A82
:103CA00011F0F2FBB0EE40BAF0EE60BA53EC1A2B12
:103CB00051EC1B0B13F018FB04D21FED1F0A84ED0F
:103CC000070A1CE094ED070AB4EEC80AF1EE10FAF8
:103CD00006DD94ED070A30EE480A84ED070A0EE08F
:103CE00094ED070AF1EE480AB4EEE00AF1EE10FA9C
:103CF00005D294ED070A30EE080A84ED070A18EEA3
:103D0000100A13F0CBFE41EC1A0B39EE680A10EEE4
:103D1000101A084613F0C2FE41EC1C0BB0EE4C0A20
:103D2000F0EE6C0A11F0B0FBB0EE40BAF0EE60BA03
:103D300053EC1A2B51EC1B0B13F0D6FA03D21FEDE8
:103D4000400A84ED070A94ED0C0AB5EEC00AF1EEC4
:103D500010FA27D094ED0C0A10EE101A084613F052
:103D60009DFE41EC1A0B94ED070A10EE101A08465E
:103D700013F094FE41EC1C0BB0EE4C0AF0EE6C0A12
:103D800011F082FBB0EE40BAF0EE60BA53EC1A2BA1
:103D900051EC1B0B13F08AFC04D21FED570ABDEC4B
:103DA0000A8B10BDA06B03283ED194ED000AD4ED20
:103DB000070A20EE200A84ED080A94ED090AD4EDE2
:103DC000010A94ED071A00EE810A84ED090A94EDC8
:103DD000070AD4ED060A30EE600AD4ED020A20EE9E
:103DE000200A84ED0A0AD4ED100AF8EE600AB0EE5B
:103DF000600A04F12400FFF7FFFC94ED080AD4EDFB
:103E0000090A30EE200AD4ED0A0A30EE200A84EDC9
:103E10000B0AD4ED0F0AF8EE600AB0EE600A04F166
:103E20002C00FFF7E9FC42E0A06B04283FD194EDA1
:103E3000070AD4ED060A30EE600AD4ED000A20EE3F
:103E4000200A84ED080A94ED010AD4ED070A20EE59
:103E5000200A84ED090A94ED070AD4ED060AB0EEB3
:103E6000001A01EE600AD4ED050A30EE200AD4ED06
:103E7000020A20EE200A84ED0A0A94ED080AD4ED25
:103E8000090A30EE200AD4ED0A0A30EE200AD4EDF9
:103E90000B0A30EE200A84ED0B0AD4ED0F0AF8EE7F
:103EA000600AB0EE600A04F12C00FFF7A5FC94ED67
:103EB000060A84ED050A94ED070A84ED060A94EDDE
:103EC0000D0AB5EEC00AF1EE10FA25D094ED0D0AF8
:103ED00010EE101A084613F0E1FD41EC1A0B94EDB8
:103EE0000B0A10EE101A084613F0D8FD41EC1C0B1B
:103EF000B0EE4C0AF0EE6C0A11F0C6FAB0EE40BA21
:103F0000F0EE60BA53EC1A2B51EC1B0B13F0ECF9EA
:103F100002D21FEDB50A42E794ED0B0A3FE72DE907
:103F2000F0412DED048B04460D4616461F46B0EEBB
:103F3000408AF0EE608AB0EE419A2A486064B0EEA2
:103F4000491AF0EE680AB0EE480A3B463246294666
:103F50002046D4F844C0E047BDEC048BBDE8F081B6
:103F60001FEDC90A80ED080A1FEDCB0A80ED090A92
:103F70001FEDCD0A80ED0A0A1FEDCF0A80ED0B0A76
:103F80001FEDD10A80ED050A1FEDD30A80ED060A68
:103F90001FEDD50A80ED070A704770B52DED048B33
:103FA00006460D461446B0EE408AF0EE608AB0EE4A
:103FB000419AF0EE619AF0EE480AB0EE680A304697
:103FC000FFF752FC30EE290A84ED000A94ED000A56
:103FD000F0EE400AB0EE490A2846FFF745FCBDEC7A
:103FE000048B70BD27380008F9A07047FA48704765
:103FF00070B505460C4620460FF08AFC70BD70B5C2
:1040000005460C4620460FF0B2FC70BD2DE9F05F6E
:104010000546884692462C46A06800EB0809606871
:10402000484525D2D4F814B060684600BBF1000FB3
:1040300001D1DFF8A8B300E076004E45FCD331464D
:10404000584602F04BFE07460FB9BDE8F09F3846D0
:10405000D4E902210FF07FFD206920B15846E168C4
:1040600002F044FE01E001202061E760666000BFCD
:10407000D4E902218818424651460FF06CFDC4F87D
:10408000089000BFE1E70146102901D201207047E6
:10409000B1F5006F01D20220F9E7B1F5802F01D20E
:1040A0000320F4E7B1F1007F01D20420EFE70520FF
:1040B000EDE70146802901D201207047B1F5804F1C
:1040C00001D20220F9E7B1F5001F01D20320F4E785
:1040D000B1F1805F01D20420EFE70520EDE7014652
:1040E000002901DA0A207047802901DA0120FAE765
:1040F000B1F5804F01DA0220F5E7B1F5001F01DAD2
:104100000320F0E7B1F1805F01DA0420EBE705203E
:10411000E9E770B505460E4634461CB92846FFF758
:10412000C8FF70BD082C01D20520FAE7B4F5806FF6
:1041300001D20620F5E7B4F5003F01D20720F0E7F1
:10414000B4F1807F01D20820EBE7B4F1004F01D237
:104150000920E6E70A20E4E72DE9F05F80460D46F6
:1041600092460026DAF8007015B90020BDE8F09FED
:10417000D8F80400FFF787FF814698F81C0000F08C
:10418000010008B909FB05F998F80900112814D2B3
:10419000DFE800F0150948392B4E20493A4F4A50C4
:1041A000541456667300002405E057F8240002F00A
:1041B000E3FD0644641CAC42F7D36EE000BF00246C
:1041C00005E057F82400FFF78AFF0644641CAC4260
:1041D000F7D362E0002405E057F82400FFF769FFF9
:1041E0000644641CAC42F7D357E0002408E007EB18
:1041F000C400D0E90021104602F0C7FD0644641C4B
:10420000AC42F4D349E000BF002408E007EBC4014E
:10421000D1E900211046FFF77CFF0644641CAC4244
:10422000F4D33AE000BF00BF042000FB056634E091
:1042300000BF00BF082000FB05662EE02E442CE0E6
:1042400000240AE057F824000FF066FC8346584625
:10425000FFF72FFF58440644641CAC42F2D31CE025
:10426000002407E057F834B05846FFF722FF5844BF
:104270000644641CAC42F5D30FE000240AE057F872
:10428000240000F0D6F883465846FFF712FF584442
:104290000644641CAC42F2D300BF00BF98F81C0077
:1042A00000F0010018B13046FFF703FF814409EB2D
:1042B00006005BE770B505460C460026687A1128B3
:1042C00060D2DFE800F01211141D1C1F13151E2010
:1042D0002D3909104D575800206808B9012000E019
:1042E0000020064650E000BF00BF00BF00BF00BF77
:1042F000206808B9012000E00020064644E000BF25
:1043000000BF00BF00BF00210846D4E90032594079
:104310005040014301D1012000E00020064633E077
:1043200094ED000AB5EEC00AF1EE10FA01D10120B9
:1043300000E00020064627E094ED001BB0EE410AA5
:10434000F0EE610A53EC102B9FED251B51EC110B85
:1043500012F006FF01D1012000E00020064613E024
:10436000206810B12068007808B9012000E0002022
:10437000064609E000BF206808B9012000E00020DF
:10438000064601E0012600BF00BF304670BD70B593
:1043900004460D4629462046FFF78CFF08B1002051
:1043A00070BD2946204600F0B0F8F9E770B5044624
:1043B0000E461546607A102802D0607A0E2814D175
:1043C000296811B1A06988420ED1002070BD00009B
:1043D000312E332E33000000FB4D0F00B0030020C0
:1043E000000000000000000002E00EB90020EDE730
:1043F0002946204600F089F8E8E770B504460E46E5
:1044000015466068B04201D0002070BD607A102867
:1044100002D0607A0E2807D1296811B1A0698842BC
:1044200001D10020F1E700BF2946204600F06DF8D9
:10443000EBE72DE9F0470546002728680068ED49BD
:10444000884200D105E040F2CB22EBA1F7480FF003
:1044500011FB002643E02868C06906EB460101EB2A
:10446000C60100EB8104206900EB0509E06800EB60
:104470000508207A28B94946204600F046F8074446
:104480002CE0207A012802D0207A03280BD1207F4B
:1044900000F0040038B14A462046D8F80010FFF773
:1044A000ACFF07441AE0207A012807D14A4620468B
:1044B000D8F80010FFF77AFF07440FE0207A0328AE
:1044C00005D149462046FFF762FF074406E04A4609
:1044D0002046D8F80010FFF73FFE0744761C2868F6
:1044E0008069B042B7D8002609E0A86800EB06143E
:1044F0002068FFF7C8FDA16808440744761C686877
:10450000B042F2D83846BDE8F0872DE9F0410646C2
:104510000D467068FFF7B7FD0446707A11285BD22C
:10452000DFE800F0100929211A2C152A222D323437
:10453000300F37454C00286802F01EFC2044BDE8CF
:10454000F08100BF2868FFF7CAFD2044F7E728681C
:10455000FFF7AFFD2044F2E7D5E90021104602F055
:1045600014FC2044EBE700BFD5E900211046FFF71B
:10457000D0FD2044E3E700BF201DE0E700BF04F1C9
:104580000800DCE7601CDAE7201DD8E704F108002A
:10459000D5E72F681FB138460FF0BEFA00E00020C3
:1045A00080464046FFF785FD20444044C7E72F681A
:1045B0003846FFF77EFD20443844C0E72F681FB11E
:1045C0003846FFF736FF00E0002080464046FFF700
:1045D00070FD20444044B2E740F2CD1286A194A081
:1045E0000FF048FA30B502460020802A21D3D3B21A
:1045F00043F080050346401CCD54D209802A18D3CD
:10460000D3B243F080050346401CCD54D209802A22
:104610000FD3D3B243F080050346401CCD54D209DA
:10462000802A06D3D3B243F080050346401CCD5404
:10463000D2090346401CCA5430BD70B505460C462D
:10464000002D1CDAE8B240F080002070802040EAA3
:10465000E5106070802040EAA530A070802040EA1C
:104660006550E070802040EA25702071FF202072A4
:10467000E071A0716071012060720A2070BD214656
:104680002846FFF7AFFFF9E72DE9F04707468846D0
:10469000144645463E462DB921463046FFF7A2FF57
:1046A000BDE8F087F0B240F080002070802040EA42
:1046B000D6106070802040EA9630A070802040EADA
:1046C0005650E070082D05D2280140EA167020717E
:1046D0000520E5E76807400E40EA167040F08000CC
:1046E0002071ED084FF0050907E0E8B240F08002C4
:1046F000484609F101092254ED09802DF5D24846BA
:1047000009F1010925544846CAE72DE9F04104465C
:104710000D46B4F1005F05D2E0002946FFF762FFC5
:10472000BDE8F0810020C00040EA5471E6002A464E
:104730003046FFF7A9FFF3E770B504460D4629465A
:104740002068FFF7E2FF06462878217908432870A1
:10475000A819D4E902210FF0FEF9A068304470BD19
:104760002DE9F05F81460E4614462146D9F8040033
:10477000FFF7CBFF054699F80900112874D2DFE84E
:1047800000F01309592D23651B5A2E665B677412BE
:104790007C9CB200207820706119306802F002FB26
:1047A0002844BDE8F09F00BF207820706119306870
:1047B000FFF743FF2844F4E7207820706119306840
:1047C000FFF710FF2844ECE7207820706219D6E943
:1047D0000071384602F0F1FA2844E2E700BF207881
:1047E00020706219D6E900713846FFF74DFF284462
:1047F000D7E70000F9EEAA282E2E5C454D4245442D
:104800004445445C73656E696F725C4175746F5F9B
:1048100053686F6F745C70726F746F5C70726F74DA
:104820006F6275662D632E6300000000BC86010870
:104830003000000000BF00BF207840F0050020706D
:104840006119306802F0C8FA2844AAE700BF00BF27
:10485000207840F0010020706219D6E900713846D6
:1048600002F0BEFA28449CE747E0207820706119E6
:10487000306802F0BCFA284493E7207840F0020048
:10488000207004EB0508376827B9002088F800007D
:10489000012010E038460FF03FF98246414650466D
:1048A000FFF7A0FE834608EB0B00524639460FF097
:1048B00052F90BEB0A00284473E7207840F002001D
:1048C00020706719D6F8008039464046FFF78AFE07
:1048D000824607EB0A00424671680FF03CF90AEB8A
:1048E000080028445DE7207840F00200207061193C
:1048F000306800F01BFA284453E740F27142AFF2EF
:104900000811AFF2D4000FF0B5F810B50446112C21
:1049100020D2DFE804F00A090C1211140B0D131554
:104920000E16180F1A1D1B0000BF00BF00BF00BFEE
:1049300000BF00BF042010BD00BF00BF00BF00BF0C
:1049400000BF0820F7E70420F5E700BF0420F2E7E6
:104950000820F0E74FF49E62AFF26411AFF230101E
:104960000FF088F870B505460E461446E200314651
:1049700028460FF0F0F870BD70B505460E46144697
:10498000A200314628460FF0E6F870BD0146022924
:1049900003D0072901D00A2901D104207047052935
:1049A00003D0092901D00B2901D10820F6E7012005
:1049B000F4E72DE9FF4F87B082460D461F46099860
:1049C000D0F800809AF81C0000F0010000286FD099
:1049D0001DB900200BB0BDE8F08F3946DAF80400AD
:1049E000FFF793FE8146387840F002003870CDF82A
:1049F00018909AF80900FFF7C9FF684305900598D9
:104A0000FFF757FB8346D94407EB09069AF80900DC
:104A10000E2870D2DFE800F01C2B075C3A114D081D
:104A20005D120913701B00BF00BF2A464146304685
:104A3000FFF7A2FF06EB850675E000BF00BF2A4620
:104A400041463046FFF78EFF06EBC5066BE000BF20
:104A5000CDF80880002407E0029951F8240031467F
:104A6000FFF7EBFD0644641CAC42F5D35BE0CDF8E8
:104A70000880002407E0029951F82400314602F032
:104A800091F90644641CAC42F5D34CE0CDF80880A3
:104A900000240AE0029800EBC40103C93246CDE9C4
:104AA000000102F08AF90644641CAC42F2D33AE0F9
:104AB00064E0CDF80880002407E0029951F8240052
:104AC0003146FFF78FFD0644641CAC42F5D32AE063
:104AD00000BFCDF8088000240AE0029800EBC40172
:104AE00003C93246CDE90001FFF7CEFD0644641C40
:104AF000AC42F2D317E00EE0CDF80880002407E0C6
:104B0000029951F82400314602F071F90644641C00
:104B1000AC42F5D307E040F29A52AFF22431AFF243
:104B2000F0200EF0A7FF00BF07EB0900301A049039
:104B30000498FFF7BEFA03900398834516D00BF153
:104B400001010398884200D106E04FF4B462AFF24D
:104B50005831F7A00EF08EFF07EB090107EB0902B1
:104B6000501C049A0FF03CF809F101090698391815
:104B70000498FFF737FD049848442BE700269AF87D
:104B80000900FFF7C2FE8146002407E0BA1941463A
:104B90005046FFF7E5FD0644C844641CAC42F5D31B
:104BA000304617E770B504460D461646294620469E
:104BB000FFF780FB08B1002070BD32462946204631
:104BC000FFF7CEFDF8E72DE9F04104460E46154605
:104BD0001F46607A102802D0607A0E2808D1296812
:104BE00011B1A069884202D10020BDE8F08102E045
:104BF0000EB90020F9E73A4629462046FFF7B0FDF6
:104C0000F3E72DE9F04104460E4615461F4660685D
:104C1000B04202D00020BDE8F081607A102802D0B6
:104C2000607A0E2807D1296811B1A069884201D1A4
:104C30000020F0E700BF3A4629462046FFF790FDE6
:104C4000E9E72DE9F04706460F4600243068006882
:104C5000C249884200D106E040F2C652AFF2684134
:104C6000BF480EF007FF4FF0000849E03068C06908
:104C700008EB480101EBC80100EB8105286900EB56
:104C8000060AE86800EB0609287A30B93A19514655
:104C90002846FFF765FD044430E0287A012802D059
:104CA000287A03280CD1287F00F0040040B13B197A
:104CB00052462846D9F80010FFF7A3FF04441DE030
:104CC000287A012808D13B1952462846D9F8001005
:104CD000FFF779FF044411E0287A032806D13A1936
:104CE00051462846FFF75EFF044407E03B19524651
:104CF0002846D9F80010FFF75CFE044408F10108CB
:104D0000306880694045B1D84FF0000808E0B268CB
:104D100002EB08103919FFF70FFD044408F10108F0
:104D200070684045F3D82046BDE8F0872DE9F04192
:104D300006460C4626B9002020700120BDE8F0810F
:104D4000611C3046FFF77DFF05462846FFF7B1F9A5
:104D50000746012F04D0E0192A46611C0EF040FFDF
:104D600021462846FFF73EFC2844E7E7FEB5044607
:104D70000D4669462068FFF7C8FC06469DF800000E
:104D8000217908438DF800006A46314628462B6891
:104D90009847D4E9021228462B689847A068304407
:104DA000FEBD2DE9FF5F81460D4690461E46002759
:104DB00099F809000E2872D2DFE800F01022075B94
:104DC000460B34085C0C090D720F00BF00BFAF002A
:104DD00086E000BF00BFEF0082E000BF00240CE0CF
:104DE00058F824006946FFF728FC82466A46514677
:104DF0003046336898475744641CAC42F0D36CE0AB
:104E000000240CE058F82400694601F0CBFF8246EC
:104E10006A4651463046336898475744641CAC4252
:104E2000F0D35AE000240CE058F824006946FFF75C
:104E3000D9FB82466A465146304633689847574404
:104E4000641CAC42F0D348E000240FE008EBC4003F
:104E50006A46D0E900B1584601F0AFFF82466A4683
:104E600051463046336898475744641CAC42EDD3F2
:104E700033E000BF00240FE008EBC4006A46D0E92D
:104E800000B15846FFF700FC82466A46514630465C
:104E9000336898475744641CAC42EDD31DE014E0DE
:104EA00000240CE058F82400694601F0A0FF824677
:104EB0006A4651463046336898475744641CAC42B2
:104EC000F0D3284604B0BDE8F09F40F26B72AFF219
:104ED000D861AFF2A4600EF0CDFD00BF3846F1E717
:104EE000424639463046336898473846EAE72DE966
:104EF000F04780460D461646002798F809000E2810
:104F000073D2DFE800F01138075F500C4408600DE1
:104F1000090E701000BF00BFA800BDE8F08700BFF9
:104F200000BFE800F9E700BFB146002420E0000020
:104F300061637475616C5F6C656E6774685F7369DB
:104F40007A65203D3D206C656E6774685F73697A91
:104F5000655F6D696E202B2031000000F9EEAA28F4
:104F6000BC86010859F82400FFF7B9F80744641C0F
:104F7000AC42F7D341E0B146002405E059F82400E3
:104F800001F0FAFE0744641CAC42F7D335E0B146A9
:104F9000002405E059F82400FFF78BF80744641C4F
:104FA000AC42F7D329E0B146002408E009EBC40085
:104FB000D0E90021104601F0E8FE0744641CAC4231
:104FC000F4D31AE000BFB146002408E009EBC400A6
:104FD000D0E900211046FFF79CF80744641CAC425E
:104FE000F4D30AE001E0284697E740F20572AFF2F9
:104FF000F871AFF2C4700EF03DFD00BF38468CE78B
:105000002DE9F04F85B004460F4692461D46DAF86A
:1050100000801FB9002005B0BDE8F08F207F00F0B0
:10502000010000282FD069466068FFF76EFB064636
:10503000424639462046FFF75AFF81469DF8000058
:1050400040F002008DF800000DEB06014846FFF726
:10505000C9FA06446A46314628462B6898472B46CB
:10506000424639462046FFF79CFE8346CB4500D199
:1050700006E040F28972AFF68001FBA00EF0FAFC68
:1050800006EB0900C7E74FF00009607AFFF73DFC27
:105090008346002607E02A464146204600F0C7F82E
:1050A0008144D844761CBE42F5D34846B3E770B578
:1050B00004460D46164629462046FFF7FBF808B180
:1050C000002070BD32462946204600F0B0F8F8E7CF
:1050D0002DE9F04104460E4615461F46607A102819
:1050E00002D0607A0E2808D1296811B1A0698842DF
:1050F00002D10020BDE8F08102E00EB90020F9E7FE
:105100003A462946204600F092F8F3E72DE9F041AF
:1051100004460E4615461F466068B04202D0002085
:10512000BDE8F081607A102802D0607A0E2807D19D
:10513000296811B1A069884201D10020F0E700BFC1
:105140003A462946204600F072F8E9E72DE9F04793
:1051500005468846002728680068C849884200D16B
:1051600006E04FF4F662AFF67011C5480EF082FC0F
:10517000002648E02868C06906EB460101EBC6013D
:1051800000EB8104206900EB050AE06800EB0509EB
:10519000207A30B942465146204600F048F807448C
:1051A00030E0207A012802D0207A03280CD1207F19
:1051B00000F0040040B1434652462046D9F80010A2
:1051C000FFF7A4FF07441DE0207A012808D14346D9
:1051D00052462046D9F80010FFF77AFF074411E045
:1051E000207A032806D1424651462046FFF75FFF4A
:1051F000074407E0434652462046D9F80010FFF71F
:10520000FFFE0744761C28688069B042B2D80026A9
:1052100007E0A96801EB06104146FFF7A7FD074428
:10522000761C6868B042F4D83846BDE8F0872DE9AE
:10523000F047CCB080460E46154647A9D8F8040082
:10524000FFF763FA044698F80900112874D2DFE8E2
:1052500000F01A095F4C3A742A604D7561768A191C
:105260009ABAD6009DF81C018DF81C0147AA1119A5
:10527000306801F097FD044447AA214628462B6870
:1052800098470EE100BF9DF81C018DF81C0147AA4C
:1052900011193068FFF7D1F9044447AA214628467E
:1052A0002B689847FDE09DF81C018DF81C0147AA6A
:1052B00011193068FFF796F9044447AA2146284699
:1052C0002B689847EDE09DF81C018DF81C0147A85C
:1052D0000219D6E90091484601F06FFD044447AA3F
:1052E000214628462B689847DBE000BF9DF81C014B
:1052F0008DF81C0147A80219D6E900914846FFF72E
:10530000C3F9044447AA214628462B689847C8E0B9
:1053100000BF00BF9DF81C0140F005008DF81C0186
:1053200047AA1119306801F057FD044447AA2146E5
:1053300028462B689847B4E0ABE000BF00BF9DF85B
:105340001C0140F001008DF81C0147A80219D6E9A4
:105350000091484601F044FD044447AA21462846EE
:105360002B6898479DE09DF81C018DF81C0147AA09
:105370001119306801F03BFD044447AA2146284634
:105380002B6898478DE037681FB138460EF0C4FB94
:1053900000E0002081469DF81C0140F002008DF8DD
:1053A0001C0147A801194846FFF71CF9044447AA05
:1053B000214628462B6898473A46494628462B6896
:1053C00098474C446DE0B146D9F800709DF81C0137
:1053D00040F002008DF81C0147A801193846FFF77C
:1053E00001F9044447AA214628462B689847D9F872
:1053F0000420394628462B6898473C4451E0D6F8AB
:10540000009018221F4901A80EF02CFC07A8049058
:105410009DF81C0140F002008DF81C01B9F1000F4D
:1054200001D1002704E001A94846FFF78FFE074697
:1054300047A801193846FFF7D5F8044447AA214682
:1054400028462B689847049A394628462B6898477F
:105450003C4400BF0598D0B10698A8B104990698BD
:105460004268904713E00000746D70203D3D20704D
:1054700061796C6F61645F6C656E0000F9EEAA285B
:10548000BC860108D87D010804980EF070FA00BFB0
:1054900007E040F26C62AFF6A041AFF66C400EF050
:1054A000E9FA00BF20464CB0BDE8F087F0B50646EB
:1054B000144616B94FF0FF30F0BD0022354622E009
:1054C00002EB550351F83300A04201DD9D1A19E0AB
:1054D000581C01EBC000406801EBC3077F68C01B8C
:1054E00051F833703844A04204DC581C57193D1A57
:1054F000024607E051F83300201A01EBC3077F682A
:105500003844D9E700BF012DDAD8B5B101EBC200AC
:105510004368501C01EBC0004068C71A51F83200C4
:10552000A04209DC51F832003844A04204DD51F8B1
:105530003200201A1844BFE700BF4FF0FF30BBE72E
:10554000F0B5064615461F46052E01D9052000E098
:10555000304684460878C0F3C3030424087800F07A
:10556000F80008B90020F0BD087800F00700387096
:10557000087800F0800010B92B600120F3E70122C9
:1055800011E0885C00F0800030B1885C00F07F00A2
:10559000A0400343E41D05E0885CA04003432B606A
:1055A000501CE0E7521C6245EBD30020DBE710B54E
:1055B0000246002005E011F8014B04F0800303B916
:1055C000401C131EA2F10102F5D110BD2DE9F74FC9
:1055D00086B081460E463068C569002445E104EB7B
:1055E000440000EBC40005EB8000007A02287AD169
:1055F00004EB440000EBC40005EB8000C06800EB46
:10560000090704EB440000EBC40005EB80000069CF
:1056100000EB090A04EB440000EBC40005EB80003A
:10562000C06800EB060804EB440000EBC40005EB87
:1056300080000069304405903868002851D0D8F8BF
:105640000000002842D004EB440101EBC40105EB4B
:105650008101487AFFF759F983463868D8F8002065
:10566000104400FB0BF1089801F038FB04900498FB
:1056700018B9002009B0BDE8F08F386800FB0BF2C4
:10568000DAF8001004980EF066FAD8F8003003FB40
:105690000BF2059B1968D7F800C0049B0CFB0B307C
:1056A0000EF059FA05980168089801F01FFBDAF826
:1056B0000010089801F01AFBDDE904010860386861
:1056C000D8F800100844C8F8000006E03868C8F8A8
:1056D0000000DAF800100598016000203860CAF870
:1056E0000000C0E0FFE704EB440000EBC40005EB62
:1056F0008000007A012808D004EB440000EBC400CD
:1057000005EB8000007A0328EBD104EB440000EBAA
:10571000C40005EB8000C06800EB090B04EB4400FB
:1057200000EBC40005EB8000C06830440590002009
:10573000049004EB440000EBC40005EB8000007F04
:1057400000F00400D0B105980068B0B9DBF8002083
:105750003368D3E90901FFF7A9FE029002980028F7
:1057600001DA002086E73068C169029800EB400248
:1057700002EBC00001EB800706E075E004EB44009B
:1057800000EBC40005EB8007386900EB09083869B5
:1057900000EB060AB8690390787A0E282FD00F28FC
:1057A00019D0102839D1D8F800000290DAF800009A
:1057B0000190029870B1019850B1089ADDE901108A
:1057C000FFF704FF08B9002054E70020049001E02F
:1057D000012004902CE0D8F80410DAF80420039893
:1057E00051B110B143688B4206D01AB120B1436861
:1057F000934201D1012300E00023049318E0D8F87C
:105800000020DAF800100398824203D0814201D1CF
:10581000012300E0002304930AE0DBF8000020B13C
:105820000598006808B9012000E00020049000BF3E
:1058300000BF0498B0B1787AFFF767F8029041464C
:105840005046029A0EF087F9404602990EF03CFA53
:10585000F86830B1DBF80010059801600020CBF843
:10586000000000BF00BF00BF641C30688069A04218
:105870003FF6B5AE0120FDE62DE9F04106460C46A7
:1058800017461D46112E31D2DFE806F021220924E9
:105890002515230A26160B172D203132330000BFA1
:1058A00000BF04F0030010B10020BDE8F081A008A3
:1058B00028600120F9E700BF00BF04F0070008B12D
:1058C0000020F2E7E00828600120EEE700BF00BFFB
:1058D00000BF00BF00BF00BF39462046FFF767FE8C
:1058E00028600120E1E72C600120DEE700BF00BF57
:1058F00000BF0020D9E702460B7803F07F00012AA1
:1059000017D94B7803F07F0340EAC310022A10D95D
:105910008B7803F07F0340EA8330032A09D9CB78E0
:1059200003F07F0340EA4350042A02D90B7940EA8E
:10593000037070472DE9F05F81460C46B9F1050F01
:1059400006D221464846FFF7D6FF0021BDE8F09F6A
:10595000207800F07F00C217617801F07F01CB173B
:10596000DB0143EA51634FEAC11C114640EA0C02D5
:105970001943A07800F07F00C3179B0343EA9043CC
:1059800042EA80321943E07800F07F00C3175B05DC
:1059900043EAD02342EA405641EA03074FF01C0A8B
:1059A0004FF0040810E014F8080000F07F054FEAFB
:1059B000E57B5246284659460EF000F806430F4351
:1059C0000AF1070A08F10108C845ECD33046394608
:1059D000BCE702460B46002106E0585C00F07F0061
:1059E00008B101207047491C9142F6D30020F9E725
:1059F0002DE9F047064688460EB9BDE8F0873568C0
:105A000030680068F849884200D105E040F6FF425E
:105A1000F649F7480EF02EF8B8F1000F01D1DFF883
:105A2000D483002030600024FAE004EB440101EB51
:105A3000C401E86900EB8100007F00F0040098B128
:105A400004EB440101EBC401E86900EB810040680C
:105A500004EB440202EBC402E96901EB8201C9686C
:105A60007158884200D0DAE004EB440101EBC40134
:105A7000E86900EB8100007A02285FD104EB440161
:105A800001EBC401E86900EB8100C06856F80090A2
:105A900004EB440101EBC401E86900EB81000069FB
:105AA0003758002F49D004EB440101EBC401E869E9
:105AB00000EB8100407A0E280CD14FF0000A06E07E
:105AC00057F82A10404601F011F90AF1010ACA45B7
:105AD000F6D32EE004EB440101EBC401E86900EBCE
