:020000040800F2
:10000000F8410020E1DC0008950200089702000892
:100010009B0200089F020008A302000800000000E5
:10002000000000000000000000000000A70200081F
:10003000A902000800000000AB020008AD020008A1
:10004000FBDC0008FBDC0008FBDC0008FBDC000834
:10005000FBDC0008FBDC0008FBDC0008FBDC000824
:10006000FBDC0008FBDC0008FBDC0008FBDC000814
:10007000FBDC0008FBDC0008FBDC000807AE000826
:10008000FBDC0008FBDC0008FBDC0008AFA4000878
:10009000C5A40008FBDC0008FBDC0008FBDC000852
:1000A000FBDC0008FBDC0008FBDC0008FBDC0008D4
:1000B000FBDC0008FBDC0008FBDC0008FBDC0008C4
:1000C000FBDC0008FBDC0008FBDC0008FBDC0008B4
:1000D000FBDC0008F7A70008FBDC000893AB000876
:1000E000FBDC0008FBDC0008FBDC0008FBDC000894
:1000F000FBDC0008FBDC0008FBDC0008FBDC000884
:10010000FBDC0008FBDC0008FBDC0008FBDC000873
:1001100091AD0008ADB0000857B40008FBDC000842
:10012000FBDC0008FBDC0008FBDC0008FBDC000853
:10013000FBDC0008FBDC0008FBDC0008FFA5000876
:1001400015A60008FBDC0008FBDC0008FBDC00084F
:10015000FBDC0008FBDC0008FBDC000885B30008C2
:10016000FBDC0008FBDC0008FBDC0008FBDC000813
:10017000FBDC0008FBDC0008FBDC0008FBDC000803
:10018000FBDC0008FBDC000800F002F800F06DF872
:100190000AA090E8000C82448344AAF10107DA45E2
:1001A00001D100F062F8AFF2090EBAE80F0013F0C7
:1001B000010F18BFFB1A43F0010318479C87010089
:1001C000BC8701000A444FF0000C10F8013B13F00B
:1001D000070408BF10F8014B1D1108BF10F8015BA0
:1001E000641E05D010F8016B641E01F8016BF9D193
:1001F00013F0080F1EBF10F8014BAD1C0C1B09D1EA
:100200006D1E58BF01F801CBFAD505E014F8016B5B
:1002100001F8016B6D1EF9D59142D6D370470000ED
:100220000023002400250026103A28BF78C1FBD8FF
:10023000520728BF30C148BF0B607047662917F0CE
:10024000F685002070471FB517F041FD9DE80300BB
:1002500013F08CFE14F05AF904000020002116F06F
:10026000BFFDE0601FBD10B510BD14F078FA114657
:10027000FFF7E9FF00F008F814F096FA03B4FFF76F
:10028000F2FF03BC14F038F900F01AF900F04FFA4D
:1002900000BFFEE7704700BFFEE700BFFEE700BFFC
:1002A000FEE700BFFEE770477047704770470000E9
:1002B0000CB50020019000907648006840F4803032
:1002C0007449086000BF7348006800F40030009073
:1002D0000198401C0190009818B90198B0F5A06FE2
:1002E000F1D16C48006800F4003010B1012000909A
:1002F00001E0002000900098012846D16548403078
:10030000006840F0805063494031086062480068EE
:1003100040F44040604908605E48083000685D492C
:10032000083108600846006840F40040086008464C
:10033000006840F4A05008605848091F0860081F72
:10034000006840F08070091F086000BF51480068D5
:1003500000F000700028F9D040F2057050490860A4
:100360004C480830006820F003004A490831086012
:100370000846006840F00200086000BF45480830A9
:10038000006800F00C000828F8D10CBD10B54548F5
:10039000006840F47000434908603E48006840F03F
:1003A00001003C49086000203A490831086039489A
:1003B00000683D490840374908603C48091D08600D
:1003C000081F006820F48020091F086000203149C0
:1003D0000C310860FFF76CFF4FF000603149803945
:1003E000086010BD70B50020002202230024022105
:1003F000284D08352D6805F00C0020B1042806D0E2
:10040000082834D107E02A4D2A4E356033E02A4DC2
:10041000284E35602FE01F4D2D1D2D68C5F38054EB
:100420001C4D2D1D2D6805F03F0154B1224DB5FB2B
:10043000F1F5184E361D3668C6F3881605FB06F230
:1004400009E01B4DB5FBF1F5124E361D3668C6F3BB
:10045000881605FB06F20F4D2D1D2D68C5F30145CD
:100460006D1C6B00B2FBF3F5124E356003E0104DCE
:10047000104E356000BF00BF064D08352D68C5F32E
:1004800003150E4E705D0B4D2D68C540094E35604D
:1004900070BD000000380240007000400854400762
:1004A000003C024088ED00E0FFFFF6FE1030002423
:1004B0000024F4000000002000127A000400002054
:1004C00010B54FF4A0600AF0DBFF0AF0C5F84A4807
:1004D0000AF0FCF84FF4E1300AF0EDF94FF4612036
:1004E0000AF0B1FA4FF4E1300AF07BFB4FF4E1304F
:1004F0000AF0BDFC0AF0A6FE0023032208211046E4
:1005000009F062FF002303220821104609F0F5FFDD
:100510000AF070FF10BD10B52DED088BB0EE409ABB
:10052000F0EE609AB0EE418A9FED341BB0EE490ABE
:10053000F0EE690A15F05AF8B0EE40AAF0EE60AAA3
:1005400051EC1A0B16F06EFC08EE100AB5EEC08ADC
:10055000F1EE10FA11D218EE100A17F047FB41EC39
:100560001B0B9FED260B53EC102B16F08DFC41EC72
:100570001A0B16F057FC08EE100AB0EE480ABDEC54
:10058000088B10BD10B52DED088BB0EE409AF0EE43
:10059000609AF0EE418AB0EE481AB0EE490AF0EEE9
:1005A000690AFFF7B8FFB0EE408A18EE100A17F09C
:1005B0001DFB41EC1A0B9FED130B53EC102B17F0A6
:1005C0001DF912D218EE100A17F010FB41EC1B0BAC
:1005D0009FED0A0B53EC102B17F01EFA41EC1A0B8F
:1005E00016F020FC08EE900A01E0F0EE488AB0EE2A
:1005F000680ABDEC088B10BDA08601000000000059
:1006000000807640000000000080664010B588B091
:100610004A480068401C4949086049494948D0EDAA
:10062000000A494890ED000A484801F0C2FE4349DB
:100630000868C11700EB91718910A0EB81010129B5
:1006400031D1434890F841004149B1F84C10404A3B
:10065000926C00EE102ABDEEC00A10EE102A12B203
:100660003C4BB3F91330CDE90332CDE905103948DD
:10067000B0F90F003749B1F91110374A126C12B2B4
:10068000354CCDE90021029094ED121BB0EE410AE9
:10069000F0EE610A2F4C237BA27B94F844102F4C80
:1006A000A07E07F0B1FA2549086800EBD071491027
:1006B000A0EB410109B902F07BFC2048006803214E
:1006C00090FBF1F201FB120018B901F072FB06F089
:1006D000C0F81A480068052190FBF1F201FB1200F6
:1006E000C0B91F4A11781A4A92F837001D4AD2ED54
:1006F000021AB0EE611AD2ED001AF1EE611AF0EEB4
:10070000610AD2ED011AB0EE610A174AF3EE0B1A34
:1007100007F011FC09480068642190FBF1F201FB2D
:100720001200012801D107F0FAFC08B010BD10B585
:1007300000F01CF801F060FF10BD00001400002064
:10074000642F002048000020440000209800002072
:10075000042E0020180B0020A0280020D82E0020F6
:10076000C4030020E0230020993A002010B540F295
:100770005471FE4813F072FB9FEDFD1ADFEDFC0A89
:100780009FEDFC0A0A234FF416720321FA4802F087
:10079000B4FFB2EE001ADFEDF90AB3EE020A042349
:1007A0004FF4FA720321F148803002F0A6FF9FED6A
:1007B000F41ADFEDF40A9FEDF40A44F6206346F6DE
:1007C00078120321F14802F098FFB2EE001ADFED33
:1007D000F00AB2EE030A04234FF4FA720321E3484D
:1007E000343002F08AFF9FEDEB1ADFEDEB0A9FED4C
:1007F000EB0A42F2107347F248120321E3484C38E7
:1008000002F07BFF9FEDDA1ADFEDD90AB2EE0E0A95
:100810001E234FF4FA720321DC48983002F06DFF7A
:100820009FEDD31ADFEDD70A9FEDD70A44F6206378
:1008300046F678120321DA4802F05FFF9FEDCC1AEA
:10084000DFEDCB0A9FEDD70A08234FF4C8720321CE
:10085000CE484C3002F051FF9FEDC51ADFEDD20AB1
:100860009FEDD20A42F2107347F248120321CC489E
:100870004C3802F042FF9FEDC71ADFEDC00AB2EE1E
:100880000E0A0A23C8220321C94802F036FF9FED51
:10089000B81ADFEDBC0A9FEDBC0A46F2A81346F673
:1008A00078120321C2484C3002F027FFB1EE0A1A39
:1008B000DFEDBD0A9FEDBF0A102396220321BC483D
:1008C0004C3802F01AFF9FEDAA1ADFEDB30A9FED34
:1008D000BA0A47F268431A460321B548983002F035
:1008E0000CFFB1EE041ADFEDB50AB2EE080A1423CC
:1008F00046220321B24802F000FF9FED9D1AF1EE5F
:100900000C0A9FEDB00A44F6206346F2A8120321B8
:10091000AB484C3002F0F1FEB2EE041ADFEDA70A4C
:10092000B3EE040A14233C220321A5484C3802F0FC
:10093000E4FE9FED901AF1EE000A9FEDA30A46F245
:10094000A8131A4603219A48983802F0D6FEB1EE51
:10095000041ADFED9A0AB2EE080A0A23C82203211C
:100960009A4802F0CAFE9FED831AF2EE000A9FED4C
:100970008B0A46F2A81346F67812032193484C30AE
:1009800002F0BBFEB2EE041ADFED8C0AB3EE040AED
:100990000423FA2203218D484C3802F0AEFE9FED6D
:1009A000751AF2EE000A9FED7D0A41F2883346F295
:1009B000A81203218548983002F09FFE10BD2DE952
:1009C000F0412DED108B92B0B0EE408A4FF01C0834
:1009D0007F4890ED000ADFED7F0A20EE200A10EE3E
:1009E000101A084617F002F941EC1B0BB0EE4B0A47
:1009F000F0EE6B0A14F08CFDB0EE40AAF0EE60AAA7
:100A000053EC1A2B9FED740B51EC100B16F0F8FA07
:100A100041EC190B16F006FA0546284617F0E6F8E1
:100A200041EC1D0BB0EE4D1AF0EE6D1A9FED6C0B04
:100A300014F06EFCB0EE40CAF0EE60CA9FED6A0B97
:100A400053EC102B51EC1C0B16F032FD41EC1A0B41
:100A500018EE100A17F0CAF841EC1B0B53EC1A2BD6
:100A600016F012FA41EC190B16F0DCF90E9028463C
:100A700017F0BCF841EC1A0B9FED560A28EE000A5D
:100A800010EE101A084617F0B1F841EC1C0BB0EE4E
:100A90004C0AF0EE6C0A14F03BFDB0EE40BAF0EEFA
:100AA00060BA53EC1A2B51EC1B0B16F001FD41EC14
:100AB000190B16F0B7F90FEE100A284617F096F842
:100AC00041EC1A0B9FED430A28EE000A10EE101AB3
:100AD000084617F08BF841EC1C0BB0EE4C0AF0EE18
:100AE0006C0A15F02DFCB0EE40BAF0EE60BA53EC93
:100AF0001A2B51EC1B0B16F0DBFC41EC190B16F01A
:100B000091F9064618FB08F000EE100AB8EEC00A8C
:100B1000F0EE408A2FEE0F0A10EE104A18EE900AFF
:100B200017F064F8CDE90801304617F05FF841ECA2
:100B30001B0BB0EE000A28EE800A10EE101A0846D1
:100B400017F054F841EC1D0B204617F04FF89FEDBD
:100B5000280B53EC102BCDE900019DED000B51EC5F
:100B6000100B16F0A5FC41EC1E0B45E0C403002061
:100B70000000000000004843C81900200AD7233CA9
:100B8000000070426F12833A00001643DC0400201C
:100B90009A99193E00002042CDCC4C3F000096436C
:100BA0000C0600209A992941CDCCCC3D000016447A
:100BB00004090020CDCC5C410000C843CDCC4C3EA4
:100BC000D40700200000AF430000E143340A0020B6
:100BD000E023002035FA8E3C9A99999999991B4007
:100BE000000000205C8F134000000020DCA54C407A
:100BF0009A9999999999234053EC1D2B16F000FA74
:100C000041EC1C0B53EC1B2B16F03EF9CDE9040113
:100C1000204616F0EBFF41EC1B0B9FEDFB0B53EC5A
:100C2000102B16F045FCCDE902019DED040B53ECB1
:100C3000102B9DED020B51EC100B16F039FCCDE999
:100C400006019DED080B53EC102B9DED060B51ECAE
:100C5000100B16F0D5F9CDE90C01204616F0C6FFB1
:100C6000CDE90A019DED0C0B53EC102B9DED0A0B09
:100C700051EC100B16F0D0FE41EC1A0BB0EE4A0A04
:100C8000F0EE6A0A15F0C0FBB0EE409AF0EE609A02
:100C900051EC190B16F0C6F80FEE900A204616F02C
:100CA000A5FF41EC1A0B1FED2E0B53EC102B16F089
:100CB000FFFB41EC190B16F0B5F811903FEE6F0AEF
:100CC00060EE280A9DED110A80EE801A11EE107A6E
:100CD000384616F08BFF41EC1A0BB0EE4A0AF0EEE4
:100CE0006A0A14F0A9F9B0EE409AF0EE609A51EC5D
:100CF000190B16F097F810909DED100ADFEDC40A5D
:100D000020EE200A8DED0F0A9DED0F0A12B0BDEC0A
:100D1000108BBDE8F08110B52DED088BBD48007833
:100D200070B9BD4890ED000ABC4880ED000ABA4891
:100D300090ED010ABA4880ED000A0120B54908701B
:100D4000B54890ED000AB74880ED040AB24890ED2E
:100D5000010AB44880ED030AAF4890ED030AB14898
:100D600080ED080AAC4890ED040AAE4880ED070A11
:100D7000AD48C07B48B1AC4890ED040AF7EE000ADC
:100D800030EE200A80ED040A04E01FED870AA64831
:100D900080ED040AA44890ED040AF7EE000AB4EED0
:100DA000E00AF1EE10FA7CD20120A04908709E48BA
:100DB000B0F9080000EE100AB8EEC00A9C48D0ED69
:100DC000000AB4EE600AF1EE10FA6BD19648B0F961
:100DD0000A0000EE100AB8EEC00A9648D0ED000AEC
:100DE000B4EE600AF1EE10FA74D18F49B1F908003F
:100DF00016F0F7FA41EC1B0B9FED8F0B53EC102B09
:100E000016F056FB41EC1A0B9FED8D1BB0EE4A0A13
:100E1000F0EE6A0A14F07CFAB0EE409AF0EE609AB6
:100E20001FED8F0B53EC102B51EC190B16F040FB00
:100E300041EC180B15F0F6FF834908607A49B1F9C7
:100E40000A0016F0CEFA41EC1B0B9FED7B0B53EC26
:100E5000102B16F02DFB41EC1A0B9FED791BB0EE19
:100E60004A0AF0EE6A0A14F053FAB0EE409AF0EE35
:100E7000609A1FEDA30B53EC102B51EC190B16F0DD
:100E800017FB41EC180B15F0CDFF70490860664860
:100E900090ED000A6C48D0ED000A30EE200A6C4854
:100EA00001E03EE016E0D0ED000A30EE200A69488D
:100EB00080ED000A5C4890ED010A0846D0ED000A7A
:100EC00030EE200A6448D0ED000A30EE200A634874
:100ED00080ED000A5448B0F9080000EE100AB8EEA0
:100EE000C00A534880ED000A4F48B0F90A0000EEEE
:100EF000100AB8EEC00A4F4880ED000A554890ED40
:100F0000000A484880ED010A544890ED000AFFF7B6
:100F100056FD5148D0ED000A30EE200A414880EDE0
:100F2000020A404890ED020AFBEE090AB4EEE00A1C
:100F3000F1EE10FA04D8BBEE090A80ED020A0DE0CA
:100F4000384890ED020ADFED460AB4EEE00AF1EE11
:100F500010FA03DB9FED420A80ED020A3348007865
:100F600058B92F4890ED000A2E4880ED010A2B4811
:100F700090ED000A2B4880ED020A2A48D0ED071AAE
:100F8000B0EE611AD0ED031AF0EE610AD0ED011A4D
:100F9000B0EE610ADFED331A00F1140200F5E161F1
:100FA00000F2246002F0E7FBFFEE000A20EE200AC8
:100FB000BDEEC00A10EE100A01B21A488184D0EDCD
:100FC000081AB0EE611AD0ED041AF0EE610AD0ED05
:100FD000021AB0EE610ADFED231A00F1180200F2E6
:100FE000BC6100F5CE6002F0C6FBF7EE000A20EE11
:100FF000200ABDEEC00A10EE100A01B20948C184F1
:10100000BDEC088B10BD00009A99999999993340CD
:10101000E12E654254000020E02300203C00002027
:1010200040000020C40300203C2F00205500002079
:101030004C00002050000020000000E0EF50743F02
:101040000000000000002040580000205C0000204C
:101050002C00002044000020300000204800002028
:1010600000000C420000000010B52DED088BFE487A
:10107000007870B9FD4890ED000AFD4880ED000A47
:10108000FA4890ED010AFB4880ED000A0120F6497C
:101090000870F64890ED000AF74880ED040AF3481E
:1010A00090ED010AF44880ED030AF04890ED030A40
:1010B000F14880ED080AED4890ED040AEE4880ED15
:1010C000070AEE48C07B48B1EC4890ED040AF7EE01
:1010D000000A30EE200A80ED040A04E01FED1F0A2A
:1010E000E64880ED040AE54890ED040AF7EE000AB0
:1010F000B4EEE00AF1EE10FA7ED20120E049087069
:10110000DE48B0F9080000EE100AB8EEC00ADD486B
:10111000D0ED000AB4EE600AF1EE10FA6DD1D748B6
:10112000B0F90A0000EE100AB8EEC00AD648D0EDB9
:10113000000AB4EE600AF1EE10FA74D1CF49B1F9A9
:10114000080016F04EF941EC1B0B1FED450B53EC5C
:10115000102B16F0ADF941EC1A0B1FED471BB0EE4A
:101160004A0AF0EE6A0A14F0D3F8B0EE409AF0EEB4
:10117000609A9FEDC60B53EC102B51EC190B16F037
:1011800097F941EC180B15F04DFEC2490860BB49B8
:10119000B1F90A0016F025F941EC1B0B1FED5A0BB3
:1011A00053EC102B16F084F941EC1A0B1FED5C1B6D
:1011B000B0EE4A0AF0EE6A0A14F0AAF8B0EE409ACD
:1011C000F0EE609A9FEDB10B53EC102B51EC190B24
:1011D00016F06EF941EC180B15F024FEAE490860CC
:1011E000A64890ED000AAB48D0ED000A30EE200A88
:1011F000AA48D0ED000A01E03CE014E030EE200AFD
:10120000A74880ED000A9D4890ED010A0846D0ED00
:10121000000A30EE200AA348D0ED000A30EE200A82
:10122000A14880ED000A9548B0F9080000EE100AC8
:10123000B8EEC00A934880ED000A9048B0F90A0061
:1012400000EE100AB8EEC00A8F4880ED000A9448FC
:1012500090ED000A884880ED010A934890ED000A5D
:10126000FFF7ADFB8F48D0ED000A30EE200A824830
:1012700080ED020A804890ED020AFBEE090AB4EE06
:10128000E00AF1EE10FA04D8BBEE090A80ED020A7A
:101290000DE0794890ED020A5FED8F0AB4EEE00AA6
:1012A000F1EE10FA03DB1FED920A80ED020A74489A
:1012B000007858B96F4890ED000A6F4880ED010A38
:1012C0006B4890ED000A6C4880ED020A6A48D0ED48
:1012D000071AB0EE611AD0ED031AF0EE610AD0EDF4
:1012E000011AB0EE610A5FEDA11A00F1140200F5D7
:1012F000956100F5717002F03EFAFFEE000A20EEF3
:10130000200ABDEEC00A10EE100A01B25A488184CC
:10131000D0ED081AB0EE611AD0ED041AF0EE610AB1
:10132000D0ED021AB0EE610A5FEDB21A00F11802B8
:1013300000F25C4100F5826002F01DFAF7EE000A4F
:1013400020EE200ABDEEC00A10EE100A01B24A4893
:10135000C184BDEC088B10BD10B52DED0A8BB0EE2D
:10136000409AF0EE609AB0EE418A9FED500B53EC3C
:10137000102B51EC190B16F09BF841EC1C0B9FED58
:101380004D0B53EC102B16F093F841EC1B0B9FED1B
:101390004B1BB0EE4B0AF0EE6B0A14F027F9B0EEDF
:1013A00040AAF0EE60AA51EC1A0B15F03BFD08EED6
:1013B000100AB5EEC08AF1EE10FA05D29FED410A8F
:1013C00038EE000AB0EE408A18EE100A16F00EFC55
:1013D00041EC100BBDEC0A8B10BD10B52DED108B40
:1013E00084B0394890ED121BB0EE410AF0EE610A6C
:1013F000364890ED001AFFF7AFFFB0EE408AF0EEEE
:10140000608A51EC180B15F00DFD30490860084654
:1014100090ED000ADFED2E0AB4EEE00AF1EE10FACC
:1014200009DB90ED000ADFED270A30EE600A29485B
:1014300080ED000A05E0254890ED000A254880ED82
:10144000000A9FED251A5FEDF90A224890ED000A87
:10145000224801F0EEFFB1EE400A214880ED000A7B
:10146000054890ED5E0A3DE054000020E023002096
:101470003C00002040000020C40300203C2F00203E
:10148000550000204C0000205000002000000020EB
:10149000DCA54C40580000205C0000202C000020FF
:1014A0004400002030000020480000200000000020
:1014B0000000F0BF000000A046DF913F0000006088
:1014C000FB211940DB0FC940A02800208400002028
:1014D000DB0F494088000020920A863EC819002090
:1014E0008C000020FE4880ED000AFE4880ED000AD6
:1014F000FB48006816F07AFB41EC190BB0EE490A84
:10150000F0EE690A14F068F8B0EE408AF0EE608AF6
:101510009FEDF50B53EC102B51EC180B16F06EF9F8
:1015200029D2EF48006816F061FB41EC190BEC483A
:10153000006816F05BFB41EC1C0BB0EE4C0AF0EEC1
:101540006C0A14F049F8B0EE40BAF0EE60BA9FEDC4
:10155000E60B53EC102B51EC1B0B15F0A9FF41ECE3
:101560001A0B53EC192B15F04BFD41EC180B15F031
:1015700059FCDB490860DB48006816F037FB41EC9A
:10158000190BB0EE490AF0EE690A14F025F8B0EE36
:10159000408AF0EE608A9FEDD60B53EC102B51EC95
:1015A000180B16F02BF929D2CE48006816F01EFB56
:1015B00041EC190BCB48006816F018FB41EC1C0BF2
:1015C000B0EE4C0AF0EE6C0A14F006F8B0EE40BA39
:1015D000F0EE60BA9FEDC60B53EC102B51EC1B0BD9
:1015E00015F066FF41EC1A0B53EC192B15F008FDB2
:1015F00041EC180B15F016FCBA490860B84890ED9C
:10160000000AB5EEC00AF1EE10FA21D0006816F01B
:10161000EDFA41EC190BB248006816F0E7FA41EC1C
:101620001B0BB0EE4B0AF0EE6B0A13F0D5FFB0EED9
:1016300040AAF0EE60AA53EC192B51EC1A0B15F0EE
:10164000DFFC41EC180B15F0EDFBAB49086004E042
:10165000B7EE000AA84880ED000AA84840780328A1
:101660000BD0A74890ED010AA44880ED0B0AA448CE
:1016700090ED000AA14880ED0A0AA14890ED000A09
:101680009E4880ED040A9E4890ED010A9B4880ED3B
:10169000030A9B4890ED030A984880ED080A984891
:1016A00090ED040A954880ED070A9648407D002891
:1016B0007ED0934890ED000A10EE101A084616F0FE
:1016C00095FA41EC190BB0EE481AB0EE490AF0EE6B
:1016D000690AFEF757FFB0EE408A894890ED010A8B
:1016E00010EE101A084616F081FA41EC190BB0EE14
:1016F000681AB0EE490AF0EE690AFEF743FFF0EE11
:10170000408A7E4880ED048AC0ED038A90ED010A8C
:10171000D0ED030A30EE600A10EE101A084616F0FB
:1017200065FA41EC1A0BB0EE4A0AF0EE6A0A13F0C1
:1017300053FFB0EE409AF0EE609A9FED730B53ECBE
:10174000102B51EC190B15F077FE04D201206B49D8
:1017500081F8310003E00020684981F831006848D1
:1017600090ED030A654880ED080A654890ED040A8B
:10177000624880ED070A664890ED010AB1EE400A22
:101780006448D0ED000A30EE200A5C4880ED020A81
:101790005F4890ED000AB1EE400A5F48D0ED000AC4
:1017A00030EE200A554880ED010A90ED010A00E074
:1017B000C8E0D0ED030A30EE600A10EE101A0846B9
:1017C00016F014FA41EC190B9FED540B53EC102B4F
:1017D00016F014F809D2494890ED010ADFED510ADC
:1017E00030EE600A80ED010A1DE0444890ED010AE8
:1017F000D0ED030A30EE600A10EE101A084616F01B
:10180000F5F941EC190B9FED480B53EC102B15F03B
:1018100013FE08D2394890ED010ADFED420A30EE9E
:10182000200A80ED010A354890ED020AFBEE090A14
:10183000B4EEE00AF1EE10FA04D8BBEE090A80ED2E
:10184000020A0DE02D4890ED020ADFED390AB4EEF0
:10185000E00AF1EE10FA03DB9FED350A80ED020A93
:101860002648D0ED071AB0EE611AD0ED031AF0EE5B
:10187000610AD0ED011AB0EE610ADFED2E1A00F117
:10188000140200F5BB6100F2F44001F074FFFFEEBA
:10189000000A20EE200ABDEEC00A10EE100A01B2C6
:1018A00016488184D0ED081AB0EE611AD0ED041A02
:1018B000F0EE610AD0ED021AB0EE610ADFED1D1AFA
:1018C00000F1180200F28C5100F5A86001F053FFFE
:1018D000F7EE000A20EE200ABDEEC00A2CE0000060
:1018E000680000206C0000200000000000003E4066
:1018F000000000000000144070000020C40300201D
:10190000E0230020D82E002000000000000000404E
:101910003C2F002038000020340000200000000090
:10192000008066400000B44300000000008066C0F4
:1019300000000C420000000010EE100A01B2FE4848
:10194000C184DFE0FC4890ED0A0A80ED020A90EDC8
:101950000B0A80ED010AF948006D502803D90021D7
:10196000F5488184CEE0F648B0F90C0002EE100A8A
:10197000B8EEC22AF348D0ED002A22EE222AF2481D
:10198000D0ED002AF14890ED003A62EE832AF0484B
:1019900090ED003A02EE832AF0EE421AE64890ED0E
:1019A000072AB0EE421A90ED032AF0EE420A90EDBB
:1019B000012AB0EE420A00F1140200F5FE7100F5B2
:1019C000B27001F0D8FEFFEE000A20EE200A10EE01
:1019D000104A204616F00AF941EC180BDD48006861
:1019E00016F004F941EC1E0B1FED391BB0EE4E0A48
:1019F000F0EE6E0A13F07CFEB0EE40CAF0EE60CA64
:101A0000D548006816F0F2F841EC1D0B53EC1C2B86
:101A100015F04EFD41EC1A0BD048006816F0E6F8C0
:101A200041EC1F0B9FEDCE1BB0EE4F0AF0EE6F0A9C
:101A300013F05EFE8DED000BCB48006816F0D6F873
:101A400041EC1E0B9DED000B53EC102B15F030FDFF
:101A500041EC1C0BB84890ED070AC448D0ED000AD1
:101A600020EE200A10EE101A084616F0BFF841ECDE
:101A70001D0B53EC1C2B15F007FA41EC1B0B53EC20
:101A80001A2B15F001FA41EC190B53EC182B15F039
:101A9000FBF9CDE902019DED020B51EC100B15F0A5
:101AA00043FC01B2A4488184A548B0F90E0002EEBF
:101AB000100AB8EEC22AAE48D0ED002A22EE222A41
:101AC000F0EE421A9C4890ED082AB0EE421A90EDD2
:101AD000042AF0EE420A90ED022AB0EE420A00F12A
:101AE000180200F5127100F5D87001F044FEF7EE0F
:101AF000000A20EE200ABDEEC00A10EE100A01B264
:101B00008D48C18404B0BDEC108B10BD10B52DED17
:101B1000048B0020974908709749087000BF1FED9B
:101B20007B0A854880ED020A944890ED000A8248BD
:101B300080ED040A1FED810A80ED010A7F4890EDD7
:101B4000121BB0EE410AF0EE610A51EC100B15F0D9
:101B50005DF915F067F97849C860884890ED040A86
:101B6000084680ED070A854890ED030A084680ED97
:101B7000080A90ED030A5FED950A80EE201ABDEE8B
:101B8000C10A10EE104A4FF4B47104FB01F000EEEC
:101B9000100AB8EEC00A684880ED010A90ED010A0B
:101BA000D0ED030A30EE600ADFED750AB4EEE00A0C
:101BB000F1EE10FA08DB90ED010A5FEDA60A30EEB7
:101BC000600A80ED010A15E05B4890ED010AD0ED56
:101BD000030A30EE600ADFED6B0AB4EEE00AF1EEC4
:101BE00010FA07D290ED010A5FEDB20A30EE200A3A
:101BF00080ED010A5048D0ED071AB0EE611AD0ED21
:101C0000031AF0EE610AD0ED011AB0EE610A5FED41
:101C1000B71A00F1140200F1CC01343001F0ABFD31
:101C2000FFEE000A20EE200ABDEEC00A10EE100AF8
:101C300001B241488184D0ED081AB0EE611AD0EDAE
:101C4000041AF0EE610AD0ED021AB0EE610A5FEDFF
:101C5000C71A00F1180200F58C71803001F08BFD7D
:101C6000F7EE000A20EE200ABDEEC00A10EE100AC0
:101C700001B23148C18490ED020AD0ED040A30EE81
:101C8000600A10EE101A084615F0B0FF41EC190B6F
:101C9000B0EE490AF0EE690A13F09EFCB0EE408AFD
:101CA000F0EE608A9FED380B53EC102B51EC180BC3
:101CB00015F0C2FB3FD8204890ED010AD0ED030A91
:101CC00030EE600A10EE101A084615F08FFF41EC56
:101CD000190BB0EE490AF0EE690A13F07DFCB0EE84
:101CE000408AF0EE608A9FED2A0B53EC102B51ECEA
:101CF000180B15F0A1FB1ED801200F4981F8300008
:101D00001E4890ED000A244880ED000A90ED000A7C
:101D10002248D0ED000A30EE200A214880ED000A6A
:101D20001D4890ED000A1F48D0ED000A30EE200A51
:101D30001D4880ED000A39E0C4030020A0280020DF
:101D4000D82E002060000020800000208C000020A1
:101D50007000002068000020740000206C0000204B
:101D600000000000000008407C00002078000020F7
:101D7000640000205400002055000020E0230020D3
:101D800000003543000033C3000000000000104095
:101D9000000000000000F83F200000202800002084
:101DA0001C0000202400002018000020BDEC048B43
:101DB00010BD10B525480078032816D003DC38B1D3
:101DC00001281BD10EE00B2812D00C2816D112E0EE
:101DD00024211E48001D12F041F800201B4981F803
:101DE00030000CE0FFF792FE09E0FFF7F6FA06E09C
:101DF000FFF73AF903E0FEF78EFF00E000BF00BFF7
:101E0000124890ED020A1248D0ED000AB4EEE00A42
:101E1000F1EE10FA05D890ED000A0C4880ED020AA8
:101E20000FE00A4890ED020A0A48D0ED000AB4EE2D
:101E3000E00AF1EE10FA04DB90ED000A034880EDB1
:101E4000020A024800780149487010BDC40300200E
:101E5000180000201C00002010B52DED088BFD4857
:101E60000078FD490870FD48807EFA4908700846F0
:101E70000078F9490978884206D00020F8490870AE
:101E80004870F84908734873F448807E012804D0EC
:101E900002287DD003287CD1C3E0F14800780128D6
:101EA00013D0EE484088A0F5806000EB400000B2FF
:101EB000EC49A1F80F00E9480088A0F5806000EB2C
:101EC000400001B2E748A0F81110E5480078032867
:101ED00057D1E249B1F90610A1F5806015F081FAF9
:101EE00041EC1B0B9FEDE00B53EC102B15F0E0FACF
:101EF00041EC190BDA4890ED0A0A10EE101A084668
:101F000015F074FE41EC1A0B53EC192B15F084FDFF
:101F100041EC180B14F086FFD1498862084690ED19
:101F20000B0ACE48B0F90400A0F5806000EE900ADC
:101F3000F8EEE00A9FEDCE1A00EE810A084680ED29
:101F40000B0A90ED0A0ACB48D0ED000AB4EEE00A85
:101F5000F1EE10FA05D890ED000A084680ED0A0A65
:101F60000FE0BF4890ED0A0AC348D0ED000AB4EE76
:101F7000E00AF1EE10FA04DB90ED000AB84880EDBB
:101F80000A0AB748007801280AD0B548007801E06D
:101F900093E198E10C2803D0B14800780B2802D1D6
:101FA0000120B0490873AE480078012809D0AB4839
:101FB000807E022805D0AA48407810B90320A8499D
:101FC0000870A748407840B9A548007828B101209A
:101FD000A3490870002081F83000A1480078032848
:101FE00003D101209F4981F844009D4890F83000BA
:101FF000012815D103209A4908709848807F40B184
:1020000007209849087340F226219648A0F813103B
:1020100006E003209349087300219248A0F81310AA
:1020200052E18F480078012878D08C4890F82D0034
:1020300038B103208B4988734FF4C8608F490880FA
:1020400006E00220874988734FF4FA708B490880B4
:10205000824890F8290030B18848B0F900008149E1
:10206000A1F80F000FE07D4890F82B0038B18348AD
:102070000088404200B27B49A1F80F0003E0002035
:102080007849A1F80F00754890F82A00B8B1754852
:10209000807B03280BD17949B1F90010484200EB4D
:1020A000D07149100AB26F49A1F8112024E0734899
:1020B0000088404201B26B48A0F811101CE067484C
:1020C00090F82C00A0B16748807B032809D16B49A8
:1020D000B1F9000000EBD0714910624AA2F811106A
:1020E0000AE06648B0F900105E48A0F8111003E05D
:1020F00000215C48A0F811105948007803286AD1E3
:102100005648407D50B95548B0F90C0010F1640FA5
:1021100005DC6FF063005149888108E05BE04F48BF
:10212000B0F90C00642802DB64204C4988814B48DC
:10213000B0F90E0010F1640F04DC6FF06301474842
:10214000C18107E04548B0F90E00642802DB642134
:102150004248C181424890ED0B0A4048B0F90C005A
:1021600000EE900AF8EEE00A9FED451A00EE810AB3
:102170003B4880ED0B0A90ED0A0A3848B0F90E0092
:1021800000EE900AF8EEE00A9FED3E1A00EE810A9A
:10219000334880ED0A0A90ED0A0A3648D0ED000A6D
:1021A000B4EEE00AF1EE10FA05D890ED000A2C48E2
:1021B00080ED0A0A0FE02A4890ED0A0A2E48D0ED79
:1021C000000AB4EEE00AF1EE10FA04DB90ED000A2A
:1021D000234880ED0A0A22480078012807D02048C9
:1021E00000780C2803D01E4800780B2802D101206B
:1021F0001C4908731A480078012809D01748807EC6
:10220000022805D01648407810B9032014490870F8
:102210001348407840B91248007828B1012010498D
:102220000870002081F830000D480078032803D1A1
:1022300001200C4981F84400094890F83000012839
:102240003AD1064890F84700F0B10C2004490870D4
:1022500027E000009200002093000020D82E0020EC
:10226000C4030020180B0020FCA9F1D24D62803F6E
:102270006F12033C180000201C000020900000207A
:102280008FC2753D0AD7233D134890F8450018B119
:102290000B201249087004E003201049087010490F
:1022A00008730D4890F83F0018B107200C490873D7
:1022B00002E003200A49087306E00020074908707D
:1022C0000749087300E000BF00BF0548007B0449D0
:1022D0004873BDEC088B10BDD82E0020C40300202D
:1022E000180B002010B5044604F1680301220421F4
:1022F00004F110000CF07AFC04F1780301220221B1
:1023000004F138000CF072FC04F5907304221146BD
:1023100004F118000CF06AFC04F1E00304221146F9
:1023200004F120000CF062FC04F1200104F118001B
:102330000EF0BDF804F5D0730422114604F14800F4
:102340000CF054FC04F5C0730422022104F12800AF
:102350000CF04CFC04F5B0730222042104F13000AF
:102360000CF044FC04F1300104F128000EF09FF859
:1023700004F5F0730222114604F140000CF036FC23
:1023800004F1A0030422114604F150000CF02EFCCD
:1023900004F180030222042104F158000CF026FC11
:1023A00004F5F8730422114604F160000CF01EFCE1
:1023B00010BD30B52DED028B95B00446B0EE408ACD
:1023C000F0EE608A0D467F48007828B901207D49EB
:1023D00008707D48FFF786FF7C4B0422114613A846
:1023E0000CF004FC7A4B0422114611A80CF0FEFB01
:1023F000784B022204210FA80CF0F8FB764B042244
:1024000002210DA80CF0F2FB744B022211460BA81E
:102410000CF0ECFB724B0222114609A80CF0E6FB13
:10242000704B0122022107A80CF0E0FB6E4B012249
:10243000022105A80CF0DAFB6C4B0122042103A851
:102440000CF0D4FB6A4B0122042101A80CF0CEFB56
:10245000E06B80ED008AE06BC0ED018A03AA04F115
:10246000100104F118000DF058F9042204F168017C
:102470005E4810F000FE2878002871D013AA04F1FD
:10248000500104F118000DF048F911AA04F12001DF
:1024900013A80DF042F904F1500204F1480111A80B
:1024A0000CF010F90FAA04F1300104F150000DF006
:1024B00034F90DAA04F1500104F128000DF02DF9B2
:1024C0000BAA04F130010DA80DF027F909AA04F1B7
:1024D00040010BA80CF0F6F80BA909A80CF092FB30
:1024E00004F158020BA90FA80DF017F907AA04F17F
:1024F000100104F128000DF010F905AA07A904F154
:1025000038000DF07EFF03AA05A904F158000DF074
:1025100004F901AA03A904F110000CF0D3F8042275
:1025200004F16801324810F0A6FD13AA04F1280155
:1025300004F158000DF0F1F811AA13A904F160009C
:102540000DF05FFF13AA04F1500111A80DF0E5F89A
:10255000102204F1A0011D4810F08DFD002028700C
:10256000606990ED000A84ED000A606990ED010A4F
:1025700084ED010A606990ED020A84ED020A606947
:1025800090ED030A84ED030A15B0BDEC028B30BD5B
:1025900010B504460C48FFF7A5FE9FED160A6069CA
:1025A00080ED000A9FED130A606980ED010A9FED3E
:1025B000110A606980ED020A9FED0E0A606980EDE4
:1025C000030A10BDD802002098000020400C002013
:1025D000D00B0020800C0020100C0020A00C00204C
:1025E000300C0020D0020020C8020020C00B0020C8
:1025F000B00C00200000000010B59FEDFD1ADFEDCB
:10260000FD0AB3EE040A4FF47A7341F270720321AB
:10261000F94801F072F89FEDF61ADFEDF50AB3EE16
:102620000E0A42F210731A460321F44801F065F8CD
:10263000B1EE001ADFEDF20A9FEDF20A42F21073DA
:1026400044F638220321ED484C3001F056F89FED56
:10265000E81ADFEDED0A9FEDED0AC8234FF47A6228
:102660000321EB4801F049F89FEDE11ADFEDE00AA4
:102670009FEDE80A41F27C5342F210720321E648D2
:1026800001F03BF89FEDDA1ADFEDD90A9FEDDD0A84
:1026900042F6EC4343F68C420321E04801F02DF86A
:1026A0009FEDD31ADFEDD20A9FEDD60A42F6EC4336
:1026B00043F68C420321D9484C3801F01EF89FEDB7
:1026C000D80AD84880ED090AB3EE040A80ED1F0A43
:1026D0000120D44948709FEDD40A084680ED210AB4
:1026E00010BDD248B0F83F10B0F84E00081A0A21C9
:1026F00090FBF1F0CB49A1F87800CC48B0F83D0050
:10270000A1F88E00084690F87100012805D1B3EEBB
:10271000060A084680ED1F0A25E0C44890F83800F4
:10272000012805D1B3EE020ABE4880ED1F0A1AE067
:10273000BE4890F83800022805D1B3EE020AB94825
:1027400080ED1F0A0FE0B94890F83800032805D142
:10275000B3EE030AB34880ED1F0A04E0B3EE030AA8
:10276000B04880ED1F0A704710B52DED048BAD48C1
:1027700090F8720001282DD1AA4890F87000012825
:1027800028D1A8484078012824D1A9480068401CD5
:10279000A74908600846006814282BDAA148B0F859
:1027A0007800042826DD9F4890ED1F0A10EE101ACD
:1027B000084615F01BFA41EC190B9FED9E0B53ECEC
:1027C000102B14F075FE41EC180B14F02BFB9549FF
:1027D000C8670FE0002096490860924890ED1F0AF4
:1027E000B5EEC00AF1EE10FA04D0834890ED040A69
:1027F00080ED030ABDEC048B10BD10B52DED0A8BE6
:10280000FFF76FFFFFF7B0FF864890ED1F0AB5EEA8
:10281000C00AF1EE10FA1ED090ED1F0AF3EE040A82
:10282000B4EEE00AF1EE10FA16DDB0F87800001F01
:102830004FF47A71484300EE100AB8EEC00A7948A6
:10284000D0ED1F0A80EE201ABCEEC10A10EE100A6D
:102850007449A1F8760061E0724890ED1F0AF2EE2B
:102860000A0AB4EEE00AF1EE10FA2BDD90ED1F0A31
:1028700010EE101A084615F0B9F941EC190B694928
:10288000B1F8780014F0C4FD41EC1C0B9FED6B0B0C
:1028900053EC102B15F0C0F841EC1B0B9FED690BAE
:1028A00053EC102B14F004FE41EC1A0B53EC192BD3
:1028B00014F0A6FB41EC180B14F066FD5949A1F881
:1028C00076002BE0574890ED1F0A10EE101A0846CC
:1028D00015F08CF941EC190B5249B1F8780014F05D
:1028E00097FD41EC1C0B9FED590B53EC102B15F091
:1028F00093F841EC1B0B9FED530B53EC102B14F092
:10290000D7FD41EC1A0B53EC192B14F079FB41EC79
:10291000180B14F039FD4349A1F87600BDEC0A8B81
:1029200010BD10B52DED088B4049B1F83D0014F0F5
:102930006FFD41EC1B0B9FED470B53EC102B14F07C
:10294000B7FD41EC190B3949B1F83F20B1F84E10F1
:10295000501A14F046FD41EC1A0B53EC192B14F0ED
:1029600093FA41EC180B14F05DFA2E49C1F884007B
:10297000084690ED210AF2EE0E0AB4EEE00AF1EEFE
:1029800010FA02DD0120487002E00020254948705D
:10299000BDEC088B10BD10B52DED028B2D2021490B
:1029A00081F87A00FFF729FF2C4800780B287DD0AA
:1029B0002A4800780C2879D01A48B0F87600002808
:1029C00075DD184890F87200012870D1154890F80C
:1029D000700001286BD113484078012867D1114855
:1029E00090ED1F0ADFED1E0A20EE200A3AE00000FB
:1029F00000000000CDCC4C3E500D0020601A00209D
:102A0000CDCCCC3D000048426F12833A00002042FA
:102A1000800E00200000B442CC0E0020901B00204D
:102A200000007AC4C00C00200000A042042E002048
:102A3000F8020020333333333333F33F0000000018
:102A400000000C400000000000408F40000000002B
:102A50000000F83FFCA9F1D24D62603FC4030020A2
:102A600000003442DFEDFE0A20EE200A9FEDFD1A41
:102A7000C0EE010A90ED070A30EE800A80ED050AEB
:102A8000F94890ED6A1BB0EE410AF0EE610A51EC94
:102A9000100B14F0C7F9F549C861F348D0F8A0014C
:102AA00000EE100AB8EEC00A084601E02CE01DE076
:102AB00080ED030AD0ED031AB0EE611AD0ED071ACB
:102AC000F0EE610AD0ED051AB0EE610A5FED381A3A
:102AD000021DE749E74800F04EFEBDEEC00A10EEC9
:102AE000100A00B2E149A1F8640084E0E14890EDE9
:102AF000040A80ED030A0020DC49A1F86400DE49E5
:102B00000860DE49086076E0D84890F87200012835
:102B100063D1DB48007D01280ED1DA48007830B956
:102B20000120D8490870D14981F8700007E00020E1
:102B3000CE4981F8700002E00020D2490870CB48ED
:102B400090F8700001280DD1C848D0ED050A90F822
:102B50007A0000EE100AB8EE400A30EE800AC34850
:102B600080ED050AC04890ED6A1BB0EE410AF0EE18
:102B7000610A9FEDC51B53EC112B51EC100B14F0A7
:102B80003FFA41EC180B14F04DF9B849C861B6484A
:102B9000B0F9B40100EE100AB8EEC00A084680EDA4
:102BA000030AD0ED031AB0EE611AD0ED071AF0EE69
:102BB000610AD0ED051AB0EE610A5FED731A021DCD
:102BC000B349B44800F0D7FDBDEEC00A10EE100ABC
:102BD00000B2A649A1F864000DE0A64890ED040AF1
:102BE00080ED030AA14890ED070A80ED050A002058
:102BF0009E49A1F86400BDEC028B10BD10B52DED0F
:102C0000028B2D20994981F87A00FFF7F6FDA24842
:102C100000780B286CD0A04800780C2868D0934826
:102C2000B0F87600002855DD904890F87200012831
:102C300050D18E4890F8700001284BD18B484078D5
:102C4000012847D1894890ED1F0A5FED7B0A20EEED
:102C5000200ADFED830A20EE200A9FED821AC0EEE3
:102C6000010A90ED070A30EE800A80ED050A7E48E1
:102C700090ED6A1BB0EE410AF0EE610A51EC100BC8
:102C800014F0D0F87949C8617748D0F8A00100EE77
:102C9000100AB8EEC00A084680ED030AD0ED031A08
:102CA000B0EE611AD0ED071AF0EE610AD0ED051A08
:102CB000B0EE610A5FEDB21A021D6D496D4800F079
:102CC0005AFDBDEEC00A10EE100A00B26749A1F825
:102CD000640084E0674890ED040A80ED030A002058
:102CE0006249A1F86400644908606449086076E0BC
:102CF0005E4890F87200012863D16148007D012888
:102D00000ED16048007830B901205E4908705749FB
:102D100081F8700007E00020544981F8700002E05B
:102D2000002058490870514890F8700001280DD1D2
:102D30004E48D0ED050A90F87A0000EE100AB8EE81
:102D4000400A30EE800A494880ED050A464890ED79
:102D50006A1BB0EE410AF0EE610A9FED4B1B53EC8B
:102D6000112B51EC100B14F04BF941EC180B14F033
:102D700059F83E49C8613C48B0F9B40100EE100A68
:102D8000B8EEC00A084680ED030AD0ED031AB0EE93
:102D9000611AD0ED071AF0EE610AD0ED051AB0EE17
:102DA000610A5FEDED1A021D39493A4800F0E3FC73
:102DB000BDEEC00A10EE100A00B22C49A1F8640062
:102DC0000DE02C4890ED040A80ED030A274890EDB1
:102DD000070A80ED050A00202449A1F86400BDEC33
:102DE000028B10BD10B5214890F8720001280ED159
:102DF0001E4890ED090AB1EE400A284880ED030A0A
:102E00001A4890ED090A254880ED160A08E09FED62
:102E1000240A224880ED030A9FED210A80ED160A5C
:102E20002048D0F8A00100EE100AB8EEC00A1B48F6
:102E300080ED040A1B48D0F8F80100EE100AB8EE45
:102E4000C00A164880ED170A90ED031AF0EE410A09
:102E500090ED041AB0EE410A00F0F4F824E000000E
:102E6000000010420000FA43B82B0020C00C0020E4
:102E7000601A0020500D0020EC020020F00200201B
:102E8000D82E0020F5020020000000C0F30D4240C3
:102E9000CC0E0020800E0020C4030020441B002024
:102EA00000000000A8290020BDEEC00A10EE100AA4
:102EB00000B24449A1F86800434890ED161AF0EEBC
:102EC000410A90ED171AB0EE410A4C3000F0BAF802
:102ED000BDEEC00A10EE100A01B23A48A0F86A101E
:102EE00010BD10B53948807E012802D0032856D184
:102EF00025E03648C07F40B10120324981F8720098
:102F00000102334809F0FAFA08E000202D4981F85F
:102F100072004FF480712E4809F0F2FA2B48B0F994
:102F2000080040F2DC51884204DD0120254981F887
:102F3000700003E00020234981F8700036E0234848
:102F4000007D012803D11F4981F8700003E00020B3
:102F50001C4981F870001D4890F8460040B10120DE
:102F6000184981F872000102194809F0C7FA08E00F
:102F70000020144981F872004FF48071144809F060
:102F8000BFFA124890F8400020B101200D4981F8A5
:102F9000710003E000200B4981F8710006E0002079
:102FA000084981F8700081F8720000BF00BF10BDB1
:102FB00010B5FFF796FFFFF7EEFCFFF713FFFFF7E3
:102FC000B0FC10BDC00C0020441B0020D82E0020F7
:102FD00000000240D0ED000AF4EEC00AF1EE10FA53
:102FE00001DD80ED000AD0ED000AB1EE401AF4EEEA
:102FF000C10AF1EE10FA03D2F1EE400AC0ED000A68
:1030000070470364C263816380ED000AC0ED010A6A
:1030100080ED021A704780ED000AC0ED010A80EDD4
:10302000021ADFEDFE1AC0ED081ADFEDFC1AC0ED42
:10303000091ADFEDFA1AC0ED0A1ADFEDF81AC0ED31
:103040000B1A704710B52DED088B0446B0EE408A80
:10305000F0EE608A84ED048AC4ED038A38EEC80A73
:1030600084ED070A94ED0C0AB5EEC00AF1EE10FAF1
:1030700027D094ED0C0A10EE101A084614F0B6FD95
:1030800041EC190B94ED070A10EE101A084614F0E3
:10309000ADFD41EC1B0BB0EE4B0AF0EE6B0A12F0EB
:1030A0009BFAB0EE40AAF0EE60AA53EC192B51EC5B
:1030B0001A0B14F0A3FB04D29FEDD80ABDEC088BC9
:1030C00010BDA06B03283ED194ED000AD4ED070A91
:1030D00020EE200A84ED080A94ED090AD4ED010AD5
:1030E00094ED071A00EE810A84ED090A94ED070AAF
:1030F000D4ED060A30EE600AD4ED020A20EE200A72
:1031000084ED0A0AD4ED100AF8EE600AB0EE600A07
:1031100004F12400FFF75EFF94ED080AD4ED090ADC
:1031200030EE200AD4ED0A0A30EE200A84ED0B0AB4
:10313000D4ED0F0AF8EE600AB0EE600A04F12C003C
:10314000FFF748FF42E0A06B04283FD194ED070A47
:10315000D4ED060A30EE600AD4ED000A20EE200A13
:1031600084ED080A94ED010AD4ED070A20EE200A46
:1031700084ED090A94ED070AD4ED060AB0EE001AB0
:1031800001EE600AD4ED050A30EE200AD4ED020A01
:1031900020EE200A84ED0A0A94ED080AD4ED090A0B
:1031A00030EE200AD4ED0A0A30EE200AD4ED0B0AE4
:1031B00030EE200A84ED0B0AD4ED0F0AF8EE600A17
:1031C000B0EE600A04F12C00FFF704FF94ED060A4C
:1031D00084ED050A94ED070A84ED060A94ED0D0AC4
:1031E000B5EEC00AF1EE10FA25D094ED0D0A10EEFE
:1031F000101A084614F0FAFC41EC190B94ED0B0A76
:1032000010EE101A084614F0F1FC41EC1B0BB0EE66
:103210004B0AF0EE6B0A12F0DFF9B0EE40AAF0EEC6
:1032200060AA53EC192B51EC1A0B14F005F902D2D9
:103230009FED7A0A42E794ED0B0A3FE710B52DEDBA
:10324000088B0446B0EE408AF0EE608A84ED048A72
:10325000C4ED038A38EEC80A84ED070A94ED0C0A1F
:10326000B5EEC00AF1EE10FA27D094ED0C0A10EE7C
:10327000101A084614F0BAFC41EC190B94ED070A39
:1032800010EE101A084614F0B1FC41EC1B0BB0EE26
:103290004B0AF0EE6B0A12F09FF9B0EE40AAF0EE86
:1032A00060AA53EC192B51EC1A0B14F0A7FA04D2B4
:1032B0009FED5A0ABDEC088B10BDA06B03283ED1D0
:1032C00094ED000AD4ED070A20EE200A84ED080AE6
:1032D00094ED090AD4ED010A94ED071A00EE810A73
:1032E00084ED090A94ED070AD4ED060A30EE600A6F
:1032F000D4ED020A20EE200A84ED0A0AD4ED100A69
:10330000F8EE600AB0EE600A04F12400FFF762FEF6
:1033100094ED080AD4ED090A30EE200AD4ED0A0A29
:1033200030EE200A84ED0B0AD4ED0F0AF8EE600AA5
:10333000B0EE600A04F12C00FFF74CFE3EE0A06BFB
:1033400004283BD194ED070AD4ED060A30EE600A5A
:10335000D4ED000A20EE200A84ED080A94ED010A5B
:10336000D4ED070A20EE200A84ED090A94ED070A3D
:10337000D4ED060AB0EE001A01EE600AD4ED050A9B
:1033800030EE200AD4ED020A20EE200A84ED0A0A6B
:1033900094ED080AD4ED0A0A30EE200AD4ED0B0AA7
:1033A00030EE200A84ED0B0AD4ED0F0AF8EE600A25
:1033B000B0EE600A04F12C00FFF70CFE94ED060A53
:1033C00084ED050A94ED070A84ED060A94ED0D0AD2
:1033D000B5EEC00AF1EE10FA28D094ED0D0A10EE09
:1033E000101A084614F002FC41EC190B94ED0B0A7C
:1033F00010EE101A084614F0F9FB41EC1B0BB0EE6E
:103400004B0AF0EE6B0A12F0E7F8B0EE40AAF0EECD
:1034100060AA53EC192B51EC1A0B01E000000000DC
:1034200014F00AF802D21FED030A43E794ED0B0AE9
:1034300040E710B52DED0A8B0446F0EE408AB0EE61
:10344000609AB0EE418AC4ED048A84ED039A39EEA5
:10345000680A84ED070A18EE100A14F0C7FB41EC65
:103460001A0B94ED070A10EE101A084614F0BEFB72
:1034700041EC1C0BB0EE4C0AF0EE6C0A12F0ACF80A
:10348000B0EE40BAF0EE60BA53EC1A2B51EC1B0BC5
:1034900013F0D2FF04D21FED1F0A84ED070A1CE0CF
:1034A00094ED070AB4EEC80AF1EE10FA06DD94EDC9
:1034B000070A30EE480A84ED070A0EE094ED070A89
:1034C000F1EE480AB4EEE00AF1EE10FA05D294EDFE
:1034D000070A30EE080A84ED070A18EE100A14F005
:1034E00085FB41EC1A0B39EE680A10EE101A0846FB
:1034F00014F07CFB41EC1C0BB0EE4C0AF0EE6C0AB5
:1035000012F06AF8B0EE40BAF0EE60BA53EC1A2B43
:1035100051EC1B0B13F090FF03D21FED400A84ED1A
:10352000070A94ED0C0AB5EEC00AF1EE10FA27D0A6
:1035300094ED0C0A10EE101A084614F057FB41ECFB
:103540001A0B94ED070A10EE101A084614F04EFB01
:1035500041EC1C0BB0EE4C0AF0EE6C0A12F03CF899
:10356000B0EE40BAF0EE60BA53EC1A2B51EC1B0BE4
:1035700014F044F904D21FED570ABDEC0A8B10BDBC
:10358000A06B03283ED194ED000AD4ED070A20EE8B
:10359000200A84ED080A94ED090AD4ED010A94ED9D
:1035A000071A00EE810A84ED090A94ED070AD4EDAA
:1035B000060A30EE600AD4ED020A20EE200A84EDFD
:1035C0000A0AD4ED100AF8EE600AB0EE600A04F1BF
:1035D0002400FFF7FFFC94ED080AD4ED090A30EE51
:1035E000200AD4ED0A0A30EE200A84ED0B0AD4ED4D
:1035F0000F0AF8EE600AB0EE600A04F12C00FFF743
:10360000E9FC42E0A06B04283FD194ED070AD4ED19
:10361000060A30EE600AD4ED000A20EE200A84ED9E
:10362000080A94ED010AD4ED070A20EE200A84ED81
:10363000090A94ED070AD4ED060AB0EE001A01EE6D
:10364000600AD4ED050A30EE200AD4ED020A20EE1D
:10365000200A84ED0A0A94ED080AD4ED090A30EE36
:10366000200AD4ED0A0A30EE200AD4ED0B0A30EE1F
:10367000200A84ED0B0AD4ED0F0AF8EE600AB0EED2
:10368000600A04F12C00FFF7A5FC94ED060A84ED16
:10369000050A94ED070A84ED060A94ED0D0AB5EECD
:1036A000C00AF1EE10FA25D094ED0D0A10EE101AB2
:1036B000084614F09BFA41EC1A0B94ED0B0A10EE3D
:1036C000101A084614F092FA41EC1C0BB0EE4C0AAA
:1036D000F0EE6C0A11F080FFB0EE40BAF0EE60BA86
:1036E00053EC1A2B51EC1B0B13F0A6FE02D21FED6C
:1036F000B50A42E794ED0B0A3FE72DE9F0412DEDC5
:10370000048B04460D4616461F46B0EE408AF0EE86
:10371000608AB0EE419A2A486064B0EE491AF0EE31
:10372000680AB0EE480A3B46324629462046D4F89D
:1037300044C0E047BDEC048BBDE8F0811FEDC90A31
:1037400080ED080A1FEDCB0A80ED090A1FEDCD0AB6
:1037500080ED0A0A1FEDCF0A80ED0B0A1FEDD10A9A
:1037600080ED050A1FEDD30A80ED060A1FEDD50A8C
:1037700080ED070A704770B52DED048B06460D46A7
:103780001446B0EE408AF0EE608AB0EE419AF0EE58
:10379000619AF0EE480AB0EE680A3046FFF752FC34
:1037A00030EE290A84ED000A94ED000AF0EE400A9A
:1037B000B0EE490A2846FFF745FCBDEC048B70BD0E
:1037C00003300008F9A07047FA48704770B5054605
:1037D0000C46204610F044F970BD70B505460C4605
:1037E000204610F06CF970BD2DE9F05F0546884663
:1037F00092462C46A06800EB08096068484525D22F
:10380000D4F814B060684600BBF1000F01D1DFF8B6
:10381000A8B300E076004E45FCD33146584602F08E
:103820004BFE07460FB9BDE8F09F3846D4E90221A8
:1038300010F039FA206920B15846E16802F044FEE0
:1038400001E001202061E760666000BFD4E9022149
:1038500088184246514610F026FAC4F8089000BF76
:10386000E1E70146102901D201207047B1F5006F50
:1038700001D20220F9E7B1F5802F01D20320F4E74D
:10388000B1F1007F01D20420EFE70520EDE701460A
:10389000802901D201207047B1F5804F01D202206A
:1038A000F9E7B1F5001F01D20320F4E7B1F1805F21
:1038B00001D20420EFE70520EDE70146002901DAF7
:1038C0000A207047802901DA0120FAE7B1F5804F1C
:1038D00001DA0220F5E7B1F5001F01DA0320F0E775
:1038E000B1F1805F01DA0420EBE70520E9E770B56C
:1038F00005460E4634461CB92846FFF7C8FF70BD82
:10390000082C01D20520FAE7B4F5806F01D2062019
:10391000F5E7B4F5003F01D20720F0E7B4F1807F6E
:1039200001D20820EBE7B4F1004F01D20920E6E70D
:103930000A20E4E72DE9F05F80460D469246002616
:10394000DAF8007015B90020BDE8F09FD8F804003F
:10395000FFF787FF814698F81C0000F0010008B9C6
:1039600009FB05F998F80900112814D2DFE800F0E6
:10397000150948392B4E20493A4F4A50541456667F
:103980007300002405E057F8240002F0E3FD06442C
:10399000641CAC42F7D36EE000BF002405E057F88A
:1039A0002400FFF78AFF0644641CAC42F7D362E0B0
:1039B000002405E057F82400FFF769FF0644641C63
:1039C000AC42F7D357E0002408E007EBC400D0E98D
:1039D0000021104602F0C7FD0644641CAC42F4D33B
:1039E00049E000BF002408E007EBC401D1E9002151
:1039F0001046FFF77CFF0644641CAC42F4D33AE067
:103A000000BF00BF042000FB056634E000BF00BF1C
:103A1000082000FB05662EE02E442CE000240AE07E
:103A200057F8240010F020F983465846FFF72FFF7F
:103A300058440644641CAC42F2D31CE0002407E066
:103A400057F834B05846FFF722FF58440644641C28
:103A5000AC42F5D30FE000240AE057F8240000F050
:103A6000D6F883465846FFF712FF58440644641CB4
:103A7000AC42F2D300BF00BF98F81C0000F0010078
:103A800018B13046FFF703FF814409EB06005BE7FE
:103A900070B505460C460026687A112860D2DFE82A
:103AA00000F01211141D1C1F13151E202D390910B2
:103AB0004D575800206808B9012000E00020064654
:103AC00050E000BF00BF00BF00BF00BF206808B9C2
:103AD000012000E00020064644E000BF00BF00BF18
:103AE00000BF00210846D4E900325940504001434C
:103AF00001D1012000E00020064633E094ED000AE9
:103B0000B5EEC00AF1EE10FA01D1012000E000206C
:103B1000064627E094ED001BB0EE410AF0EE610A84
:103B200053EC102B9FED251B51EC110B13F0C0FB38
:103B300001D1012000E00020064613E0206810B10A
:103B40002068007808B9012000E00020064609E05E
:103B500000BF206808B9012000E00020064601E00F
:103B6000012600BF00BF304670BD70B504460D464B
:103B700029462046FFF78CFF08B1002070BD29467A
:103B8000204600F0B0F8F9E770B504460E46154639
:103B9000607A102802D0607A0E2814D1296811B1F9
:103BA000A06988420ED1002070BD0000312E332E56
:103BB00033000000FB4D0F00FC020020000000005D
:103BC0000000000002E00EB90020EDE72946204683
:103BD00000F089F8E8E770B504460E4615466068BF
:103BE000B04201D0002070BD607A102802D0607A07
:103BF0000E2807D1296811B1A069884201D100209F
:103C0000F1E700BF2946204600F06DF8EBE72DE90B
:103C1000F0470546002728680068ED49884200D132
:103C200005E040F2CB22EBA1F7480FF0CBFF0026D6
:103C300043E02868C06906EB460101EBC60100EBD2
:103C40008104206900EB0509E06800EB0508207A93
:103C500028B94946204600F046F807442CE0207A6F
:103C6000012802D0207A03280BD1207F00F0040025
:103C700038B14A462046D8F80010FFF7ACFF074499
:103C80001AE0207A012807D14A462046D8F80010C9
:103C9000FFF77AFF07440FE0207A032805D1494651
:103CA0002046FFF762FF074406E04A462046D8F860
:103CB0000010FFF73FFE0744761C28688069B04279
:103CC000B7D8002609E0A86800EB06142068FFF7C3
:103CD000C8FDA16808440744761C6868B042F2D861
:103CE0003846BDE8F0872DE9F04106460D4670687C
:103CF000FFF7B7FD0446707A11285BD2DFE800F0C9
:103D0000100929211A2C152A222D3234300F37455B
:103D10004C00286802F01EFC2044BDE8F08100BF82
:103D20002868FFF7CAFD2044F7E72868FFF7AFFDD2
:103D30002044F2E7D5E90021104602F014FC2044AB
:103D4000EBE700BFD5E900211046FFF7D0FD204486
:103D5000E3E700BF201DE0E700BF04F10800DCE757
:103D6000601CDAE7201DD8E704F10800D5E72F68CA
:103D70001FB138460FF078FF00E000208046404633
:103D8000FFF785FD20444044C7E72F683846FFF71A
:103D90007EFD20443844C0E72F681FB13846FFF746
:103DA00036FF00E0002080464046FFF770FD2044CB
:103DB0004044B2E740F2CD1286A194A00FF002FF7A
:103DC00030B502460020802A21D3D3B243F08005CB
:103DD0000346401CCD54D209802A18D3D3B243F0F5
:103DE00080050346401CCD54D209802A0FD3D3B29C
:103DF00043F080050346401CCD54D209802A06D3E7
:103E0000D3B243F080050346401CCD54D20903468B
:103E1000401CCA5430BD70B505460C46002D1CDA56
:103E2000E8B240F080002070802040EAE510607029
:103E3000802040EAA530A070802040EA6550E07004
:103E4000802040EA25702071FF202072E071A0716F
:103E50006071012060720A2070BD21462846FFF77C
:103E6000AFFFF9E72DE9F047074688461446454677
:103E70003E462DB921463046FFF7A2FFBDE8F08748
:103E8000F0B240F080002070802040EAD6106070D0
:103E9000802040EA9630A070802040EA5650E070C2
:103EA000082D05D2280140EA167020710520E5E7AB
:103EB0006807400E40EA167040F080002071ED085F
:103EC0004FF0050907E0E8B240F08002484609F1EA
:103ED00001092254ED09802DF5D2484609F1010966
:103EE00025544846CAE72DE9F04104460D46B4F191
:103EF000005F05D2E0002946FFF762FFBDE8F081D0
:103F00000020C00040EA5471E6002A463046FFF720
:103F1000A9FFF3E770B504460D4629462068FFF770
:103F2000E2FF06462878217908432870A819D4E9C9
:103F300002210FF0B8FEA068304470BD2DE9F05F9B
:103F400081460E4614462146D9F80400FFF7CBFF00
:103F5000054699F80900112874D2DFE800F013092A
:103F6000592D23651B5A2E665B6774127C9CB20028
:103F7000207820706119306802F002FB2844BDE807
:103F8000F09F00BF2078207061193068FFF743FF71
:103F90002844F4E72078207061193068FFF710FF9B
:103FA0002844ECE7207820706219D6E90071384681
:103FB00002F0F1FA2844E2E700BF2078207062198D
:103FC000D6E900713846FFF74DFF2844D7E70000D7
:103FD000F9EEAA282E2E5C454D4245444445445CEA
:103FE00073656E696F725C4175746F5F53686F6F54
:103FF000745C70726F746F5C70726F746F627566F0
:104000002D632E63000000000C88010830000000C2
:1040100000BF00BF207840F00500207061193068B3
:1040200002F0C8FA2844AAE700BF00BF207840F099
:10403000010020706219D6E90071384602F0BEFA1C
:1040400028449CE747E0207820706119306802F02E
:10405000BCFA284493E7207840F00200207004EB7B
:104060000508376827B9002088F80000012010E013
:1040700038460FF0F9FD824641465046FFF7A0FE54
:10408000834608EB0B00524639460FF00CFE0BEB53
:104090000A00284473E7207840F002002070671976
:1040A000D6F8008039464046FFF78AFE824607EB85
:1040B0000A00424671680FF0F6FD0AEB080028443A
:1040C0005DE7207840F0020020706119306800F050
:1040D0001BFA284453E740F27142AFF20811AFF2E5
:1040E000D4000FF06FFD10B50446112C20D2DFE88C
:1040F00004F00A090C1211140B0D13150E16180FEB
:104100001A1D1B0000BF00BF00BF00BF00BF00BFE3
:10411000042010BD00BF00BF00BF00BF00BF0820CB
:10412000F7E70420F5E700BF0420F2E70820F0E7F6
:104130004FF49E62AFF26411AFF230100FF042FD07
:1041400070B505460E461446E200314628460FF08B
:10415000AAFD70BD70B505460E461446A200314654
:1041600028460FF0A0FD70BD0146022903D00729A3
:1041700001D00A2901D104207047052903D009295B
:1041800001D00B2901D10820F6E70120F4E72DE941
:10419000FF4F87B082460D461F460998D0F8008031
:1041A0009AF81C0000F0010000286FD01DB9002013
:1041B0000BB0BDE8F08F3946DAF80400FFF793FE44
:1041C0008146387840F002003870CDF818909AF89F
:1041D0000900FFF7C9FF684305900598FFF757FBF3
:1041E0008346D94407EB09069AF809000E2870D2D5
:1041F000DFE800F01C2B075C3A114D085D12091333
:10420000701B00BF00BF2A4641463046FFF7A2FFA1
:1042100006EB850675E000BF00BF2A4641463046E2
:10422000FFF78EFF06EBC5066BE000BFCDF80880F8
:10423000002407E0029951F824003146FFF7EBFD16
:104240000644641CAC42F5D35BE0CDF80880002442
:1042500007E0029951F82400314602F091F9064432
:10426000641CAC42F5D34CE0CDF8088000240AE091
:10427000029800EBC40103C93246CDE9000102F007
:104280008AF90644641CAC42F2D33AE064E0CDF80B
:104290000880002407E0029951F824003146FFF716
:1042A0008FFD0644641CAC42F5D32AE000BFCDF874
:1042B000088000240AE0029800EBC40103C93246DA
:1042C000CDE90001FFF7CEFD0644641CAC42F2D3F9
:1042D00017E00EE0CDF80880002407E0029951F8BD
:1042E0002400314602F071F90644641CAC42F5D357
:1042F00007E040F29A52AFF22431AFF2F0200FF013
:1043000061FC00BF07EB0900301A04900498FFF726
:10431000BEFA03900398834516D00BF10101039870
:10432000884200D106E04FF4B462AFF25831F7A0F2
:104330000FF048FC07EB090107EB0902501C049A37
:104340000FF0F6FC09F10109069839180498FFF7F7
:1043500037FD049848442BE700269AF80900FFF738
:10436000C2FE8146002407E0BA1941465046FFF7D5
:10437000E5FD0644C844641CAC42F5D3304617E75B
:1043800070B504460D46164629462046FFF780FBC9
:1043900008B1002070BD324629462046FFF7CEFD09
:1043A000F8E72DE9F04104460E4615461F46607AAF
:1043B000102802D0607A0E2808D1296811B1A069AE
:1043C000884202D10020BDE8F08102E00EB9002051
:1043D000F9E73A4629462046FFF7B0FDF3E72DE915
:1043E000F04104460E4615461F466068B04202D0B2
:1043F0000020BDE8F081607A102802D0607A0E2893
:1044000007D1296811B1A069884201D10020F0E7E5
:1044100000BF3A4629462046FFF790FDE9E72DE91F
:10442000F04706460F46002430680068C2498842BB
:1044300000D106E040F2C652AFF26841BF480FF02B
:10444000C1FB4FF0000849E03068C06908EB480143
:1044500001EBC80100EB8105286900EB060AE8685A
:1044600000EB0609287A30B93A1951462846FFF779
:1044700065FD044430E0287A012802D0287A032818
:104480000CD1287F00F0040040B13B195246284669
:10449000D9F80010FFF7A3FF04441DE0287A012893
:1044A00008D13B1952462846D9F80010FFF779FF8A
:1044B000044411E0287A032806D13A1951462846C7
:1044C000FFF75EFF044407E03B1952462846D9F83F
:1044D0000010FFF75CFE044408F1010830688069B1
:1044E0004045B1D84FF0000808E0B26802EB081070
:1044F0003919FFF70FFD044408F1010870684045C1
:10450000F3D82046BDE8F0872DE9F04106460C4679
:1045100026B9002020700120BDE8F081611C3046E2
:10452000FFF77DFF05462846FFF7B1F90746012F43
:1045300004D0E0192A46611C0FF0FAFB21462846F8
:10454000FFF73EFC2844E7E7FEB504460D46694602
:104550002068FFF7C8FC06469DF800002179084353
:104560008DF800006A46314628462B689847D4E902
:10457000021228462B689847A0683044FEBD2DE9FA
:10458000FF5F81460D4690461E46002799F80900B8
:104590000E2872D2DFE800F01022075B460B3408C9
:1045A0005C0C090D720F00BF00BFAF0086E000BFBA
:1045B00000BFEF0082E000BF00240CE058F82400A8
:1045C0006946FFF728FC82466A4651463046336802
:1045D00098475744641CAC42F0D36CE000240CE0D4
:1045E00058F82400694601F0CBFF82466A465146DE
:1045F0003046336898475744641CAC42F0D35AE0C5
:1046000000240CE058F824006946FFF7D9FB8246E5
:104610006A4651463046336898475744641CAC425A
:10462000F0D348E000240FE008EBC4006A46D0E96C
:1046300000B1584601F0AFFF82466A465146304607
:10464000336898475744641CAC42EDD333E000BF55
:1046500000240FE008EBC4006A46D0E900B15846D8
:10466000FFF700FC82466A46514630463368984759
:104670005744641CAC42EDD31DE014E000240CE070
:1046800058F82400694601F0A0FF82466A46514668
:104690003046336898475744641CAC42F0D32846F0
:1046A00004B0BDE8F09F40F26B72AFF2D861AFF298
:1046B000A4600FF087FA00BF3846F1E7424639465A
:1046C0003046336898473846EAE72DE9F047804698
:1046D0000D461646002798F809000E2873D2DFE829
:1046E00000F01138075F500C4408600D090E70107F
:1046F00000BF00BFA800BDE8F08700BF00BFE80012
:10470000F9E700BFB146002420E000006163747542
:10471000616C5F6C656E6774685F73697A65203D74
:104720003D206C656E6774685F73697A655F6D695B
:104730006E202B2031000000F9EEAA280C88010819
:1047400059F82400FFF7B9F80744641CAC42F7D3CA
:1047500041E0B146002405E059F8240001F0FAFEDA
:104760000744641CAC42F7D335E0B146002405E0B1
:1047700059F82400FFF78BF80744641CAC42F7D3C8
:1047800029E0B146002408E009EBC400D0E900218B
:10479000104601F0E8FE0744641CAC42F4D31AE072
:1047A00000BFB146002408E009EBC400D0E90021B5
:1047B0001046FFF79CF80744641CAC42F4D30AE0AF
:1047C00001E0284697E740F20572AFF2F871AFF2C8
:1047D000C4700FF0F7F900BF38468CE72DE9F04FB1
:1047E00085B004460F4692461D46DAF800801FB990
:1047F000002005B0BDE8F08F207F00F00100002808
:104800002FD069466068FFF76EFB06464246394680
:104810002046FFF75AFF81469DF8000040F0020055
:104820008DF800000DEB06014846FFF7C9FA064473
:104830006A46314628462B6898472B4642463946F9
:104840002046FFF79CFE8346CB4500D106E040F2B0
:104850008972AFF68001FBA00FF0B4F906EB0900F6
:10486000C7E74FF00009607AFFF73DFC834600265A
:1048700007E02A464146204600F0C7F88144D84464
:10488000761CBE42F5D34846B3E770B504460D46E4
:10489000164629462046FFF7FBF808B1002070BDF8
:1048A00032462946204600F0B0F8F8E72DE9F041FD
:1048B00004460E4615461F46607A102802D0607ADC
:1048C0000E2808D1296811B1A069884202D10020C0
:1048D000BDE8F08102E00EB90020F9E73A4629462A
:1048E000204600F092F8F3E72DE9F04104460E4629
:1048F00015461F466068B04202D00020BDE8F08136
:10490000607A102802D0607A0E2807D1296811B188
:10491000A069884201D10020F0E700BF3A4629464D
:10492000204600F072F8E9E72DE9F0470546884691
:10493000002728680068C849884200D106E04FF483
:10494000F662AFF67011C5480FF03CF9002648E05A
:104950002868C06906EB460101EBC60100EB810443
:10496000206900EB050AE06800EB0509207A30B900
:1049700042465146204600F048F8074430E0207A8D
:10498000012802D0207A03280CD1207F00F00400F7
:1049900040B1434652462046D9F80010FFF7A4FF25
:1049A00007441DE0207A012808D14346524620469C
:1049B000D9F80010FFF77AFF074411E0207A0328A6
:1049C00006D1424651462046FFF75FFF074407E005
:1049D000434652462046D9F80010FFF7FFFE074431
:1049E000761C28688069B042B2D8002607E0A96822
:1049F00001EB06104146FFF7A7FD0744761C6868E7
:104A0000B042F4D83846BDE8F0872DE9F047CCB085
:104A100080460E46154647A9D8F80400FFF763FA0A
:104A2000044698F80900112874D2DFE800F01A094A
:104A30005F4C3A742A604D7561768A199ABAD6002D
:104A40009DF81C018DF81C0147AA1119306801F06E
:104A500097FD044447AA214628462B6898470EE153
:104A600000BF9DF81C018DF81C0147AA1119306880
:104A7000FFF7D1F9044447AA214628462B689847F6
:104A8000FDE09DF81C018DF81C0147AA1119306842
:104A9000FFF796F9044447AA214628462B68984711
:104AA000EDE09DF81C018DF81C0147A80219D6E91C
:104AB0000091484601F06FFD044447AA214628466C
:104AC0002B689847DBE000BF9DF81C018DF81C01A6
:104AD00047A80219D6E900914846FFF7C3F90444F4
:104AE00047AA214628462B689847C8E000BF00BF68
:104AF0009DF81C0140F005008DF81C0147AA111912
:104B0000306801F057FD044447AA214628462B6827
:104B10009847B4E0ABE000BF00BF9DF81C0140F037
:104B200001008DF81C0147A80219D6E900914846FA
:104B300001F044FD044447AA214628462B689847C3
:104B40009DE09DF81C018DF81C0147AA11193068E1
:104B500001F03BFD044447AA214628462B689847AC
:104B60008DE037681FB138460FF07EF800E0002076
:104B700081469DF81C0140F002008DF81C0147A8F9
:104B800001194846FFF71CF9044447AA2146284664
:104B90002B6898473A46494628462B6898474C4424
:104BA0006DE0B146D9F800709DF81C0140F002009C
:104BB0008DF81C0147A801193846FFF701F9044494
:104BC00047AA214628462B689847D9F80420394639
:104BD00028462B6898473C4451E0D6F800901822AC
:104BE0001F4901A80FF0E6F807A804909DF81C01E2
:104BF00040F002008DF81C01B9F1000F01D100272F
:104C000004E001A94846FFF78FFE074647A80119AF
:104C10003846FFF7D5F8044447AA214628462B68B2
:104C20009847049A394628462B6898473C4400BF69
:104C30000598D0B10698A8B10499069842689047A3
:104C400013E00000746D70203D3D207061796C6F41
:104C500061645F6C656E0000F9EEAA280C8801089B
:104C6000287F010804980EF02AFF00BF07E040F2F9
:104C70006C62AFF6A041AFF66C400EF0A3FF00BF30
:104C800020464CB0BDE8F087F0B50646144616B98C
:104C90004FF0FF30F0BD0022354622E002EB550315
:104CA00051F83300A04201DD9D1A19E0581C01EBB8
:104CB000C000406801EBC3077F68C01B51F8337028
:104CC0003844A04204DC581C57193D1A024607E03C
:104CD00051F83300201A01EBC3077F683844D9E745
:104CE00000BF012DDAD8B5B101EBC2004368501CFA
:104CF00001EBC0004068C71A51F83200A04209DC3D
:104D000051F832003844A04204DD51F83200201A34
:104D10001844BFE700BF4FF0FF30BBE7F0B50646D1
:104D200015461F46052E01D9052000E03046844671
:104D30000878C0F3C3030424087800F0F80008B929
:104D40000020F0BD087800F007003870087800F007
:104D5000800010B92B600120F3E7012211E0885C8C
:104D600000F0800030B1885C00F07F00A040034379
:104D7000E41D05E0885CA04003432B60501CE0E785
:104D8000521C6245EBD30020DBE710B50246002041
:104D900005E011F8014B04F0800303B9401C131E19
:104DA000A2F10102F5D110BD2DE9F74F86B0814681
:104DB0000E463068C569002445E104EB440000EB71
:104DC000C40005EB8000007A02287AD104EB44008D
:104DD00000EBC40005EB8000C06800EB090704EBA2
:104DE000440000EBC40005EB8000006900EB090AF9
:104DF00004EB440000EBC40005EB8000C06800EB4E
:104E0000060804EB440000EBC40005EB80000069D9
:104E1000304405903868002851D0D8F800000028A8
:104E200042D004EB440101EBC40105EB8101487A57
:104E3000FFF759F983463868D8F80020104400FB82
:104E40000BF1089801F038FB0490049818B9002081
:104E500009B0BDE8F08F386800FB0BF2DAF80010FB
:104E600004980EF020FFD8F8003003FB0BF2059BEE
:104E70001968D7F800C0049B0CFB0B300EF013FF31
:104E800005980168089801F01FFBDAF800100898EF
:104E900001F01AFBDDE9040108603868D8F8001059
:104EA0000844C8F8000006E03868C8F80000DAF8DE
:104EB00000100598016000203860CAF80000C0E0CA
:104EC000FFE704EB440000EBC40005EB8000007A30
:104ED000012808D004EB440000EBC40005EB80007F
:104EE000007A0328EBD104EB440000EBC40005EB8F
:104EF0008000C06800EB090B04EB440000EBC40029
:104F000005EB8000C068304405900020049004EB5D
:104F1000440000EBC40005EB8000007F00F00400BB
:104F2000D0B105980068B0B9DBF800203368D3E948
:104F30000901FFF7A9FE02900298002801DA00207B
:104F400086E73068C169029800EB400202EBC000BE
:104F500001EB800706E075E004EB440000EBC400C1
:104F600005EB8007386900EB0908386900EB060A91
:104F7000B8690390787A0E282FD00F2819D01028FE
:104F800039D1D8F800000290DAF8000001900298B8
:104F900070B1019850B1089ADDE90110FFF704FFE4
:104FA00008B9002054E70020049001E0012004909B
:104FB0002CE0D8F80410DAF80420039851B110B1AD
:104FC00043688B4206D01AB120B14368934201D1A5
:104FD000012300E00023049318E0D8F80020DAF859
:104FE00000100398824203D0814201D1012300E0E6
:104FF000002304930AE0DBF8000020B10598006864
:1050000008B9012000E00020049000BF00BF049810
:10501000B0B1787AFFF767F8029041465046029A9D
:105020000EF041FE404602990EF0F6FEF86830B1EF
:10503000DBF80010059801600020CBF8000000BFED
:1050400000BF00BF641C30688069A0423FF6B5AE67
:105050000120FDE62DE9F04106460C4617461D46A7
:10506000112E31D2DFE806F0212209242515230A6A
:1050700026160B172D203132330000BF00BF04F07D
:10508000030010B10020BDE8F081A00828600120D5
:10509000F9E700BF00BF04F0070008B10020F2E705
:1050A000E00828600120EEE700BF00BF00BF00BF9E
:1050B00000BF00BF39462046FFF767FE2860012089
:1050C000E1E72C600120DEE700BF00BF00BF002049
:1050D000D9E702460B7803F07F00012A17D94B78F5
:1050E00003F07F0340EAC310022A10D98B7803F043
:1050F0007F0340EA8330032A09D9CB7803F07F038A
:1051000040EA4350042A02D90B7940EA0370704701
:105110002DE9F05F81460C46B9F1050F06D2214614
:105120004846FFF7D6FF0021BDE8F09F207800F049
:105130007F00C217617801F07F01CB17DB0143EAE2
:1051400051634FEAC11C114640EA0C021943A07892
:1051500000F07F00C3179B0343EA904342EA80328A
:105160001943E07800F07F00C3175B0543EAD023C2
:1051700042EA405641EA03074FF01C0A4FF0040888
:1051800010E014F8080000F07F054FEAE57B524676
:10519000284659460EF0BAFC06430F430AF1070AA7
:1051A00008F10108C845ECD330463946BCE7024651
:1051B0000B46002106E0585C00F07F0008B101209A
:1051C0007047491C9142F6D30020F9E72DE9F047DA
:1051D000064688460EB9BDE8F08735683068006835
:1051E000F849884200D105E040F6FF42F649F74809
:1051F0000EF0E8FCB8F1000F01D1DFF8D4830020F5
:1052000030600024FAE004EB440101EBC401E869DA
:1052100000EB8100007F00F0040098B104EB440132
:1052200001EBC401E86900EB8100406804EB440233
:1052300002EBC402E96901EB8201C9687158884236
:1052400000D0DAE004EB440101EBC401E86900EBB3
:105250008100007A02285FD104EB440101EBC40114
:10526000E86900EB8100C06856F8009004EB440147
:1052700001EBC401E86900EB810000693758002F99
:1052800049D004EB440101EBC401E86900EB810063
:10529000407A0E280CD14FF0000A06E057F82A1089
:1052A000404601F011F90AF1010ACA45F6D32EE091
:1052B00004EB440101EBC401E86900EB8100407A92
:1052C0000F280DD14FF0000A07E007EBCA00416834
:1052D000404601F0F9F80AF1010ACA45F5D316E093
:1052E00004EB440101EBC401E86900EB8100407A62
:1052F00010280CD14FF0000A06E057F82A0041466A
:10530000FFF764FF0AF1010ACA45F6D300BF394628
:10531000404601F0D9F86FE004EB440101EBC40111
:10532000E86900EB8100407A0E2818D104EB4401B3
:1053300001EBC401E86900EB8100006937586FB1E7
:1053400004EB440101EBC401E86900EB81008069D2
:10535000B84203D03946404601F0B6F84CE004EBC1
:10536000440101EBC401E86900EB8100407A0F2899
:105370001FD104EB440101EBC401E86900EB81009B
:1053800000693044476804EB440101EBC401E8695B
:1053900000EB8100D0F8189057B1B9F1000F03D09D
:1053A000D9F80400B84203D03946404601F08CF8E1
:1053B00022E004EB440101EBC401E86900EB810049
:1053C000407A102818D104EB440101EBC401E869CC
:1053D00000EB8100006937586FB104EB440101EB29
:1053E000C401E86900EB81008069B84203D04146FE
:1053F0003846FFF7EBFE00BF00BF641CA869A0425F
:105400003FF601AF002407E0B06800EB0410C1686C
:10541000404601F059F8641C7068A042F4D8B068A6
:1054200018B14046B16801F04FF83146404601F0EE
:105430004BF800BFCFE62DE9F05F05460E46174654
:105440009846D5F80890D9F80C00C41999F80900C5
:10545000FEF749FE8246D6F800B020680AFB00B18C
:1054600000234246284600F0F9FC10B90020BDE8B0
:10547000F09F2068401C20600120F8E702460B46A0
:105480000A2A00D90A22002105E0585C00F08000B9
:1054900000B902E0491C9142F7D300BF914201D10B
:1054A00000207047481CFCE72DE9F74F84B0054603
:1054B000A86803900398C168069801EB000A039955
:1054C000487AFEF710FE029005980168DAF800208D
:1054D000029800FB02186979286947186979E86819
:1054E000441A00260398407A0E286AD2DFE800F0BA
:1054F00016320791720E4F08920F0910AD1500BFBA
:1055000000BF6979E868401A8608BFE000BF00BFA5
:105510006979E868401AC608B8E000BF17E0394664
:105520002046FFF7ABFF8346BBF1000F03D10020FD
:1055300007B0BDE8F08F3946584601F07DF8314696
:10554000761C48F821005F44A4EB0B0400BF002C3C
:10555000E5D193E018E039462046FFF78FFF8346F8
:10556000BBF1000F01D10020E2E739465846FFF7B2
:10557000B0FD019001F068F83146761C48F8210032
:105580005F44A4EB0B0400BF002CE4D176E015E0EF
:1055900039462046FFF772FF8346BBF1000F01D169
:1055A0000020C5E739465846FFF793FD3146761C83
:1055B00048F821005F44A4EB0B0400BF002CE7D1A6
:1055C0005CE055E0F9EEAA28D43F00080C880108F9
:1055D000FC0200201AE039462046FFF74FFF8346C1
:1055E000BBF1000F01D10020A2E739465846FFF772
:1055F0008FFDCDE9000101F02FF83246761C08EB53
:10560000C20203C25F44A4EB0B0400BF002CE2D132
:1056100034E000BF16E039462046FFF72FFF8346EF
:10562000BBF1000F01D1002082E739465846FFF751
:105630006FFD3246761C08EBC20203C25F44A4EB46
:105640000B0400BF002CE6D118E026464FF00009FD
:105650000BE017F80900012801DD002068E717F8C2
:10566000090048F8290009F10109B145F1D305E025
:1056700040F62932FA49FBA00EF0A4FA00BFDAF88E
:1056800000003044CAF80000012051E7029806FBF0
:1056900000F2394640460EF006FBDAF800003044CE
:1056A000CAF80000012043E701460E2905D00F2962
:1056B00003D0102901D0012070470020FCE72DE91C
:1056C000F04104460F4615461E4601233246394630
:1056D000204600F0C3FB10B90020BDE8F081A068AF
:1056E000C06818B10120A168C96868500120F4E7BA
:1056F0002DE9FC5F80460C4616461F46D8F8080088
:10570000C06800EB0609D9F8000000285ED0D9F87F
:1057100000203368D3E90901FFF7B6FA009000983A
:10572000002802DA0020BDE8FC9F3068C1690098BB
:1057300000EB400202EBC00001EB8005687AFEF747
:10574000D2FC0190687A0E2804D00F2812D01028BD
:1057500035D124E0A246D5F818B0DAF8000040B1FF
:10576000DAF80000584504D03846DAF8001000F0A6
:10577000ABFE25E0A246D5F818B0DAF8040068B10F
:10578000BBF1000F05D0DAF80400DBF80410884202
:1057900004D03846DAF8041000F096FE10E0A24675
:1057A000D5F818B0DAF8000040B1DAF80000584532
:1057B00004D03946DAF80000FFF708FD00E000BF2A
:1057C00000BF204601990EF027FB00BF01233A4697
:1057D0002146404600F042FB08B90020A3E7D8F874
:1057E0000000C9F8000001209DE72DE9F0470446BC
:1057F0000D469046A768E7B96968481C6860A868C4
:1058000000EB01162068306020793071E068B060EC
:105810004046E16800F050FEF060F06810B90020EA
:10582000BDE8F087B2682169F0680EF03CFA01200B
:10583000F6E7386900EB0509387A30B101280BD05A
:1058400002281CD0032832D107E0012342464946F2
:10585000204600F003FBE3E700BF387F00F00400C0
:1058600030B143462A4649462046FFF741FFD7E775
:1058700043462A4649462046FFF721FFD0E72079D4
:1058800002280DD1387F00F0010018B9787AFFF7AF
:105890000BFF28B12A4649462046FFF705FEBFE721
:1058A00043462A4649462046FFF7C5FDB8E74FF470
:1058B00037626B496BA00EF085F970B504460E4651
:1058C000304661690EF0CAFA346000255AE005EBF3
:1058D000450101EBC501E06900EB8100806900280A
:1058E0004FD005EB450101EBC501E06900EB8100FC
:1058F000007A022845D005EB450303EBC503E269B6
:1059000002EB83021269901905EB450303EBC50313
:10591000E26902EB8302916905EB450303EBC503E2
:10592000E26902EB8302527A112A28D2DFE802F000
:10593000090A0B1213140C0D15160E171C0F241F39
:10594000250000BF00BF00BF00BF00BF00BF0A6846
:10595000026014E000BF00BF00BF00BF00BF0A68C4
:1059600002604A6842600AE00A68026007E00A686A
:1059700002604A68426002E000BF016000BF00BFF1
:1059800000BF6D1CA069A842A1D870BD70B50446C7
:105990000D462846E16A884770BD2DE9FF4FFDB0EE
:1059A0000446DDF8FCA180987C90E0697B904FF084
:1059B000000900201390129010900DF12C0B0A900A
:1059C00029492068884200D105E040F6ED3224499B
:1059D00026A00EF0F7F87E9808B932487E906169EB
:1059E0007E9800F069FD8046B8F1000F04D10020D8
:1059F0000DF5017DBDE8F08F2BA81490A069C01DA6
:105A0000C0080F900F9810280FD90F997E9800F0BA
:105A100053FD8346BBF1000F05D141467E9800F04F
:105A200053FD0020E4E701200A9058460F990EF03C
:105A3000F3F9E06A20B141462046FFF7A7FF03E0F3
:105A400041462046FFF739FF1CE108AB09AA504642
:105A50007C99FFF763F90790079800B9E7E123E025
:105A6000D43F000830000000F9EEAA2828646573CE
:105A700063292D3E6D61676963203D3D2050524F83
:105A8000544F4255465F435F5F4D45535341474531
:105A90005F44455343524950544F525F4D4147492B
:105AA00043000000FC0200207B9820B17B984068F6
:105AB0000999884219D0D4E90901099AFFF7E4F855
:105AC00001900198002804DA00271298401C1290D7
:105AD0000AE0E169019800EB400202EBC00001EB33
