:020000040800F2
:10000000302F0020BD820008BD010008BF0100089C
:10001000C3010008C7010008CB0100080000000070
:10002000000000000000000000000000CF010008F8
:10003000D101000800000000D3010008D50100082C
:10004000D7820008D7820008D7820008D78200082C
:10005000D7820008D7820008D7820008D78200081C
:10006000D7820008D7820008D7820008D78200080C
:10007000D7820008D7820008194F0008F9510008FC
:10008000D7820008D7820008D78200089746000868
:10009000AD460008D7820008D7820008D782000842
:1000A000D7820008D7820008D7820008D7820008CC
:1000B000B5580008D7580008F5580008D78200083E
:1000C000D7820008D7820008D7820008D7820008AC
:1000D000D7820008B7490008E34B0008C34E000868
:1000E000D7820008D7820008D7820008D78200088C
:1000F000D7820008D7820008D7820008D78200087C
:10010000D7820008D782000817590008D782000854
:10011000895100086B540008FD590008235A000853
:10012000D7820008D7820008D7820008D78200084B
:10013000D7820008D7820008D7820008E747000866
:10014000FD470008D7820008D7820008D782000840
:10015000D7820008D7820008D782000879560008A5
:10016000D7820008D7820008D7820008D78200080B
:10017000D7820008D7820008D7820008D7820008FB
:10018000D7820008D7820008DFF810D008F06AFC98
:1001900000480047A1010008AFF30080302F002085
:1001A00000F022F900F0CEF904E003480068401C9A
:1001B00001490860F9E7000000000020704700BF17
:1001C000FEE700BFFEE700BFFEE700BFFEE77047A7
:1001D00070477047704700000CB5002001900090F8
:1001E0007648006840F480307449086000BF734866
:1001F000006800F4003000900198401C01900098C5
:1002000018B90198B0F5A06FF1D16C48006800F4FE
:10021000003010B10120009001E000200090009813
:10022000012846D165484030006840F0805063495D
:10023000403108606248006840F44040604908600E
:100240005E48083000685D4908310860084600686B
:1002500040F4004008600846006840F4A050086080
:100260005848091F0860081F006840F08070091F87
:10027000086000BF5148006800F000700028F9D005
:1002800040F20570504908604C480830006820F082
:1002900003004A49083108600846006840F002003F
:1002A000086000BF45480830006800F00C000828CE
:1002B000F8D10CBD10B54548006840F470004349C2
:1002C00008603E48006840F001003C49086000209A
:1002D0003A4908310860394800683D4908403749C3
:1002E00008603C48091D0860081F006820F4802051
:1002F000091F0860002031490C310860FFF76CFFCE
:100300004FF0006031498039086010BD70B50020A1
:100310000022022300240221284D08352D6805F013
:100320000C0020B1042806D0082834D107E02A4D5B
:100330002A4E356033E02A4D284E35602FE01F4DA0
:100340002D1D2D68C5F380541C4D2D1D2D6805F005
:100350003F0154B1224DB5FBF1F5184E361D3668FC
:10036000C6F3881605FB06F209E01B4DB5FBF1F557
:10037000124E361D3668C6F3881605FB06F20F4D81
:100380002D1D2D68C5F301456D1C6B00B2FBF3F507
:10039000124E356003E0104D104E356000BF00BFB7
:1003A000064D08352D68C5F303150E4E705D0B4DD7
:1003B0002D68C540094E356070BD00000038024010
:1003C0000070004008544007003C024088ED00E007
:1003D000FFFFF6FE103000240024F400040000208B
:1003E00000127A000800002010B54FF4A06005F05C
:1003F00035FB04F025FA184804F048FA4FF4E130D0
:1004000004F035FB4FF4E13004F083FC4FF4E130AD
:1004100004F0CEFD4FF4165004F01DFF05F0A4F8D3
:10042000002303220821104604F0C2F8002303220F
:100430000821104604F055F905F08CF905F0B7F9DC
:1004400005F0EAF905F001FA05F076FA05F0A5FAEB
:1004500005F056F910BD0000A086010008B53D4822
:100460000068401C3B490860086800EBD0714910E7
:10047000A0EB410109B902F04BFB364800680321AB
:1004800090FBF1F201FB1200B8B93348B0F92E002D
:1004900000903148B0F92C30B0F92A20B0F928107A
:1004A0002E4803F0BFF82C48B0F92E0000231A465E
:1004B000194600902A4803F0B5F82649086800EB71
:1004C000D0714910A0EB410101290DD12248B0F9AA
:1004D000260000902048B0F92430B0F92220B0F96D
:1004E00020101E4803F012F91A4800680A2190FBF8
:1004F000F1F201FB120028B91A4803F0BFFF1A48B5
:1005000003F0AAFF134800684FF47A7190FBF1F2F0
:1005100001FB120038B90421144806F0DFFA022169
:10052000124806F0DBFA0B4800684FF4FA6190FBC2
:10053000F1F201FB1200012803D104210B4806F05F
:10054000CBFA08BD10B500200249086000F010F891
:1005500010BD000018000020C0010020006800400D
:1005600000640040360100203201002000080240F3
:1005700010B5A821FE4807F0FBFE0120FC490873D6
:10058000002048730864B1EE041ADFEDFA0AB1EEF8
:100590000C0A0A234FF4FA520321F74802F06DFEC9
:1005A000B2EE041ADFEDF30A9FEDF40A4FF4FA738A
:1005B00043F698220321F24802F05FFEB1EE041ADE
:1005C000DFEDEC0AB1EE0C0A0A234FF4FA520321D4
:1005D000E9484C3002F051FEB1EE001ADFEDE50AB9
:1005E0009FEDE80A4FF4FA7343F698220321E4489A
:1005F0004C3002F042FEB1EE001ADFEDDE0AB1EE41
:100600000C0A0A234FF4FA520321DB48983002F017
:1006100034FEB2EE001AF6EE000A9FEDD80A4FF44F
:10062000FA7343F698220321D548983002F025FE4C
:10063000B1EE001ADFEDD40AB1EE0C0A0A234FF432
:10064000FA520321CC48E43002F017FEB3EE041A4C
:10065000DFEDC80A9FEDC90A4FF4FA7343F69822FA
:100660000321C748E43002F008FE002414E004EB44
:10067000440101EB0411C54A02EB81009FEDC41A4D
:10068000DFEDC30A9FEDC30A4FF47A6343F6982265
:10069000032102F0F2FD641C042CE8DB9FEDBE1A7E
:1006A000DFEDBB0A9FEDBD0A0A234FF4167203214A
:1006B000BB4802F0E2FD10BDF0EE400AB3EE001AB6
:1006C000B3EE0E0A10EE810ABDEEC00AB54880ED09
:1006D000000A0068002803DC0020B249086015E029
:1006E000B3EE000A20EE801AAE4890ED000AB8EE94
:1006F000C00AB4EEC01AF1EE10FA07D8B3EE000A41
:1007000020EE800ABDEEC00A80ED000AB7EE000AB6
:10071000A54880ED000AA34890ED000AB8EEC00A93
:10072000704700B52DED0A8B89B0B0EE409A0020DD
:1007300022E000EB400101EB0011944A02EB810141
:1007400091ED000A00EB400101EB001102EB810189
:10075000D1ED020A70EE200A8549983131F9101066
:1007600000EE101AB8EEC00A20EE800A05A901EBCF
:10077000800181ED000A401C0428DADB002046E0FD
:1007800000EB400101EB0011804A02EB810191ED89
:10079000090A00EB400101EB001102EB8101D1EDF0
:1007A000000AB1EE601A7249A03131F9101000EE62
:1007B000901AF8EEE00A01EE200A00EB400101EB8E
:1007C000001102EB810191ED021A6949A03131F962
:1007D000101000EE901AF8EEE00A01EE600A00EB4D
:1007E000400101EB001102EB8101D1ED020A00EBA7
:1007F000400101EB001102EB810191ED061A00EEC0
:10080000C10A01A901EB800181ED000A401C042806
:10081000B6DB9DED050A20EE000ADDED060A9DED32
:10082000061A00EE810ADDED070A9DED071A00EEBB
:10083000810ADDED080A9DED081A00EE810ADFED60
:100840005B0A20EE208A9DED050ADDED010A20EE0F
:10085000200ADDED060A9DED021A00EE810ADDEDAB
:10086000070A9DED031A00EE810ADDED080A9DEDF1
:10087000041A00EE810ADFED4E0A20EE200ADDEDBB
:10088000050A9DED061A70EE810A9DED071A70EEBD
:10089000810A9DED081A70EE810A9FED461A01EE5D
:1008A000200A9DED051A3248B0F9A00000EE900A2A
:1008B000F8EEE00A61EE200ADDED061A2C48B0F9E8
:1008C000A20001EE100AB8EEC11A41EE810ADDED78
:1008D000071A2748B0F9A40001EE100AB8EEC11AB1
:1008E00041EE810ADDED081A2148B0F9A60001EEBB
:1008F000100AB8EEC11A41EE810A9FED2F1AF0EEF0
:10090000408A41EE208A9DED010A20EE000ADDEDCD
:10091000020A9DED021A00EE810ADDED030A9DED4B
:10092000031A00EE810ADDED040A9DED041A00EEC3
:10093000810ADFED1E0A20EE200ADDED010A9DEDA1
:10094000021A70EE810A9DED031A70EE810A9DED88
:10095000041A70EE810A9FED171A00EE810A9DEDD0
:10096000011A0348B0F9A00000EE900A26E000004A
:10097000C0010020CDCCCC3DB41300200000484382
:100980001416002000003443CDCCCC3E4417002088
:10099000000000000000B4420000484200009643FE
:1009A000A80E0020A40000207000002058DF2C3486
:1009B00058DFAC346019C0B762BEBC37F8EEE00A4D
:1009C00061EE200ADDED021AFE48B0F9A20001EE48
:1009D000100AB8EEC11A41EE810ADDED031AF9489A
:1009E000B0F9A40001EE100AB8EEC11A41EE810A76
:1009F000DDED041AF348B0F9A60001EE100AB8EED6
:100A0000C11A41EE810A1FED141A01EE200ADFED32
:100A1000EE0A30EE200A70EE499A28EEA80AF1EEAE
:100A2000000A68EE200A00EEE90A10EE101A0846E5
:100A300007F080FE41EC1C0B9FEDE40B53EC102BF8
:100A400007F0B3FC41EC1B0BB0EE4B0AF0EE6B0A67
:100A500008F0A2FDB0EE40AAF0EE60AA51EC1A0B2D
:100A600007F0ACFE00EE100AF1EE680A70EE200A04
:100A7000B0EE000A28EE001A80EE810A09B0BDEC43
:100A80000A8B00BD10B52DED108B8CB0002499E0C1
:100A9000CC49683131F9141001EE101AB8EEC11AC0
:100AA000F0EE410AC749703131F9141001EE101A05
:100AB000B8EEC11AB0EE410A04EB440101EB041197
:100AC000C44A02EB810002F0E1F9C34800EB840064
:100AD00080ED000AC04800EB840090ED000ADFEDD5
:100AE000BF0AB4EEE00AF1EE10FA07D89FEDBB0A98
:100AF000B94800EB840080ED000A12E0B64800EB34
:100B0000840090ED000ADFEDB60AB4EEE00AF1EEE3
:100B100010FA06DB9FEDB20AAF4800EB840080EDCF
:100B2000000AAD4800EB840090ED000A04EB44009D
:100B300000EB0410A74901EB8000D0ED040A20EE81
:100B4000200AA848D0ED000A20EE200AA64800EBB3
:100B5000840080ED000AA04800EB840090ED000ABC
:100B6000A248D0ED000A20EE200A9B4800EB84004A
:100B7000D0ED000A20EE200A974800EB8400D0ED6B
:100B8000000A9B4890ED001A01EE200A9948D0ED2A
:100B9000000A30EE200A984800EB840080ED000A3D
:100BA000914800EB840090ED000A934800EB84002C
:100BB000D0ED000A30EE200A904800EB840080ED72
:100BC000000A641C042CFFF663AF8C4890ED000A09
:100BD000D0ED010A30EE200AD0ED020A30EE200AF4
:100BE000D0ED030A30EE200A854880ED000A90ED32
:100BF000000AB5EEC00AF1EE10FA04D81FED9C0A07
:100C000080ED000A0DE07E4890ED000ADFED7D0AE0
:100C1000B4EEE00AF1EE10FA03DB9FED7A0A80ED04
:100C2000000A774890ED000ABCEEC00A10EE100AE8
:100C30007549088008460088002802DC00200880EA
:100C400015E07148008800EE100AB8EE400A6F48BF
:100C5000D0ED000AB4EEE00AF1EE10FA07DB90EDF9
:100C6000000ABCEEC00A10EE100A67490880684806
:100C7000008865490988401A66490880604890EDF7
:100C8000000A6248D0ED000AB4EEE00AF1EE10FA74
:100C90007EDD0024F7E0594800EB840090ED000A67
:100CA0005A48D0ED000A20EE200A5548D0ED000A3F
:100CB00080EE201A584800EB840080ED001A4F485F
:100CC00000EB840090ED000A4A48D0ED000AB4EE33
:100CD000E00AF1EE10FA73DD484800EB840090ED75
:100CE000000A4D4800EB8400D0ED000AB4EEE00AA3
:100CF000F1EE10FA64DD3D4890ED000A08A800EB23
:100D0000840080ED000A04EB440000EB041031493C
:100D100001EB8000D0ED040A354890ED000A31481F
:100D200090ED001A01EE200A04A800EB840080ED8B
:100D3000000A394800EB840090ED000A2D48D0ED00
:100D4000000A30EEC00A684600EB840080ED000A1D
:100D5000214800EB840090ED000A10EE101A0846BE
:100D600007F0E8FC41EC190B08A800EB840090EDBB
:100D7000000AF0EE000A20EE200A10EE101A0846D3
:100D800007F0D8FC41EC1B0B04A800EB840000E04A
:100D90007DE090ED000A20EE000A08A800EB840038
:100DA000D0ED000AB1EE001A60EE810A684600EB51
:100DB000840090ED001A00EEC10A10EE101A2DE02A
:100DC00059E00000C0010020FA7EEA3F0000000068
:100DD0000000F03F141600201803002000401CC63D
:100DE00000401C46940000202803002098000020AA
:100DF0009C000020A00000203803002048030020B1
:100E00008000002000007A4462000020740000206E
:100E10005E0000206000002058030020084607F014
:100E200089FC41EC1F0BB0EE4F0AF0EE6F0A08F0A0
:100E3000B3FBB0EE40DAF0EE60DA04A800EB840019
:100E400090ED000AB1EE400A10EE101A084607F0C5
:100E500071FC53EC1D2B07F0A8FA53EC1B2B07F089
:100E6000BDFB53EC192B07F0B9FB07F0A7FCFE49BB
:100E700041F8240006E0B7EE000AFB4800EB8400CE
:100E800080ED000A641C042CFFF605AF0BE0002087
:100E900007E0B7EE000AF44901EB800181ED000A9A
:100EA000401C0428F5DB002025E0EF4901EB800120
:100EB00091ED000AB5EEC00AF1EE10FA07D89FEDE9
:100EC000EB0AE94901EB800181ED000A12E0E649F5
:100ED00001EB800191ED000AF7EE000AB4EEE00AA2
:100EE000F1EE10FA06DBB7EE000ADF4901EB8001F4
:100EF00081ED000A401C0428D7DB0CB0BDEC108B40
:100F000010BD10B52DED028BD948D0F8260000EEAB
:100F1000100AFFF7D1FBD74880ED000AFFF7B2FDBA
:100F2000D348D0F8260000EE100AFFF7C5FBD248E0
:100F3000008800EE900AF8EE600A30EE600AB0EE2B
:100F4000408AFFF7EEFBCD4880ED000ACC4890EDDB
:100F5000000AB5EEC00AF1EE10FA04D89FEDC30AFC
:100F600080ED000A0DE0C64890ED000AF7EE000A99
:100F7000B4EEE00AF1EE10FA03DBB7EE000A80ED02
:100F8000000ABE4890ED000AB5EEC00AF1EE10FA74
:100F900004D89FEDB60A80ED000A0DE0B74890ED49
:100FA000000AF7EE000AB4EEE00AF1EE10FA03DBF5
:100FB000B7EE000A80ED000ABDEC028B10BDDFED3C
:100FC000B10AB4EEE00AF1EE10FA06DBDFEDAD0A8D
:100FD00070EE600AB0EE600A0AE0B5EEC00AF1EE0B
:100FE00010FA05D2DFEDA70A70EE200AB0EE600A13
:100FF000704710B52DED0A8BB0EE409AF0EE609A76
:10100000B0EE418A9FEDA00B53EC102B51EC190B65
:1010100007F072FA41EC1C0B9FED9D0B53EC102B6B
:1010200007F06AFA41EC1B0B9FED9B1BB0EE4B0ADD
:10103000F0EE6B0A08F002F9B0EE40AAF0EE60AAFA
:1010400051EC1A0B07F0BAFB08EE100AB5EEC08A95
:10105000F1EE10FA05D29FED8B0A38EE000AB0EEE1
:10106000408A18EE100A07F065FB41EC100BBDEC4E
:101070000A8B10BD9FED7D0A894880ED010A9FED26
:101080007B0A80ED000A9FED790A80ED020A9FED50
:10109000770A844880ED120A704710B5814890EDB8
:1010A000130ADFED810AB4EEE00AF1EE10FA08DB74
:1010B00090ED130ADFED730A30EE600A80ED140A3A
:1010C00004E0784890ED130A80ED140A7748B0F9EF
:1010D000090000EE100AB8EEC00A714880ED010A5E
:1010E0007248B0F9070000EE100AB8EEC00A6C486A
:1010F00080ED000A6D488078032805D19FED5B0ADA
:101100006B4880ED000A04E09FED580A684880EDC6
:10111000000A6448D0ED140AB0EE600A644890ED0D
:10112000001ADFED520A634801F04CFDB1EE400AAF
:101130005C4880ED120A10BD5C48B0F9090000EE71
:10114000100AB8EEC00A564880ED010A5748B0F9B7
:10115000070000EE100AB8EEC00A514880ED000A00
:101160009FED420A4F4880ED120A70474D4890EDBE
:10117000130ADFED4D0AB4EEE00AF1EE10FA08DBD7
:1011800090ED130ADFED3F0A30EE600A80ED140A9D
:1011900004E0444890ED130A80ED140A4348807837
:1011A000032804D140F226204349088003E04FF48D
:1011B000E170414908803D48B0F9090000EE100A8D
:1011C000B8EEC00A364880ED010A3848B0F9070089
:1011D00000EE100AB8EEC00A314880ED000A407BEC
:1011E00007280DD03548007818B901203349087018
:1011F00006E032480078012802D100202F4908700B
:101200002E48007850B92C480088404200EE100A61
:10121000B8EEC00A234880ED120A0CE02748007897
:10122000012808D12448008800EE100AB8EE400AD0
:101230001C4880ED120A704710B51C48B0F909002F
:1012400000EE100AB8EEC00A154880ED010A1748F2
:10125000B0F9070000EE100AB8EEC00A104880EDA1
:10126000000A10482CE00000880300200000000065
:10127000AC23002074000020620000206C000020DD
:1012800070000020DB0FC940000000000000F0BF2C
:10129000000000A046DF913F00000060FB211940E4
:1012A000C001002060010020DB0F49401623002010
:1012B00030000020A80E0020580000205A00002016
:1012C00090ED130A5FED110AB4EEE00AF1EE10FAA8
:1012D00008DB90ED130A5FED150A30EE600A80ED31
:1012E000140A04E0FE4890ED130A80ED140AFC484D
:1012F000D0ED140AB0EE600AFA4890ED001A5FEDE6
:10130000250AF94801F05EFCF54880ED120A10BD8F
:1013100010B52DED108BF24890ED140AF34880EDD6
:10132000000A002464E1C4EB041101EB41018722AF
:1013300002EB410007F0C1F99FEDED0B53EC102BD0
:1013400007F0DAF89FEDEC0B53EC102B07F046F9A1
:1013500041EC1D0BB0EE4D0AF0EE6D0A07F058FEA1
:10136000B0EE40BAF0EE60BADD4890ED120A10EE31
:10137000101A084607F0DEF953EC1B2B07F0BCF8F7
:1013800041EC190BD94890ED000AB1EE400A10EE7D
:10139000100A07F0CFF941EC1F0BB0EE4F0AF0EE48
:1013A0006F0A07F0CDFFB0EE40DAF0EE60DAD44815
:1013B00090ED010A10EE101A084607F0BBF953EC45
:1013C0001D2B07F099F841EC1B0BC84890ED000A63
:1013D000B1EE400A10EE100A07F0ACF941EC1F0B19
:1013E000B0EE4F0AF0EE6F0A07F012FEB0EE40DAF0
:1013F000F0EE60DAC24890ED000A10EE101A0846CE
:1014000007F098F953EC1D2B07F076F853EC1B2BE3
:1014100007F06CF853EC192B07F068F807F0CEF9D9
:10142000B84941F82400C4EB041101EB41012D221D
:1014300002EB410007F041F99FEDAD0B53EC102B8F
:1014400007F05AF89FEDAC0B53EC102B07F0C6F8E1
:1014500041EC1D0BB0EE4D0AF0EE6D0A07F0D8FD21
:10146000B0EE40BAF0EE60BA9D4890ED120A10EE70
:10147000101A084607F05EF953EC1B2B07F03CF8F6
:1014800041EC190B994890ED000AB1EE400A10EEBC
:10149000100A07F04FF941EC1F0BB0EE4F0AF0EEC7
:1014A0006F0A07F0B5FDB0EE40DAF0EE60DA94486E
:1014B00090ED010A10EE101A084607F03BF953ECC4
:1014C0001D2B07F019F841EC1B0B884890ED000A22
:1014D000B1EE400A10EE100A07F02CF941EC1F0B98
:1014E000B0EE4F0AF0EE6F0A07F02AFFB0EE40DAD6
:1014F000F0EE60DA824890ED000A10EE101A08460D
:1015000007F018F953EC1D2B06F0F6FF53EC1B2BDC
:1015100006F04BFF53EC192B06F0E8FF07F04EF9ED
:10152000794941F82400774800EB840090ED000AE7
:1015300010EE101A084607F0FDF841EC1B0B72483C
:1015400000EB840090ED000A10EE101A084607F038
:10155000F1F841EC1C0BB0EE4B1AF0EE6B1AB0EE4A
:101560004C0AF0EE6C0A07F053FCB0EE40AAF0EE25
:1015700060AA9FED610B53EC102B51EC1A0B06F097
:10158000BBFF9FED5B0B53EC102B07F027F807F028
:1015900015F95E4941F824005B4800EB840090EDAA
:1015A000000A20EE000A574800EB8400D0ED000A44
:1015B000544800EB840090ED001A00EE810A10EE12
:1015C000101A084607F0B6F841EC190BB0EE490ABC
:1015D000F0EE690A07F0E0FFB0EE408AF0EE608AB4
:1015E00051EC180B07F0EAF8494941F82400641C53
:1015F000042CFFF698AE00201AE0454901EB80016B
:1016000091ED000ABDEEC00A10EE101A0AB234497C
:10161000403121F810203D4901EB800191ED000A95
:101620002F49283101EB800181ED000A411CC8B22D
:101630000428E2DBBDEC108B10BD30B52DED108B16
:1016400085B01FEDF60AF0EE408A1FEDF80AB0EE05
:10165000408A1FEDFA0AB0EE40FA1FEDFC0AF0EEE8
:1016600040FA002001900290039004901C4890EDF5
:10167000140AB1EE400AB0EE409A2148007B0728D8
:1016800013D124480078012806D19FED230A39EEB2
:10169000000AB0EE409A08E01E48007828B99FED95
:1016A0001E0A39EE400AB0EE409A0024E1E0B0EEA6
:1016B00068FAF0EE48FAB0EE490A07F00DFD10485E
:1016C000D0ED000A20EE20AAB0EE490A07F09CFEF9
:1016D0000B48D0ED010A00EEC0AA00EE104A1DE052
:1016E0006001002030000020A80E0020C80000206B
:1016F0001F85EB51B81E09400000000000806640C5
:10170000C0010020C8030020D8030020A803002047
:10171000B80300205A000020920A863EB8EE400A24
:10172000DFEDFE0A60EE200AB0EE001A80EE810ABC
:10173000DFEDFB0A30EE200AF0EE409A07F0CCFC19
:10174000F848D0ED120A00EE80AAF0EE4A8AB0EE18
:10175000490A07F059FEF448D0ED000A20EE20AA0D
:10176000B0EE490A07F0B8FCEF48D0ED010A00EEF0
:1017700080AA00EE104AB8EE400ADFEDE80A20EE3B
:10178000200AB0EE001AC0EE010A9FEDE50A30EE25
:10179000800AF0EE409A07F037FEE248D0ED120AD8
:1017A00000EE80AAB0EE4A8A403030F9140000EE14
:1017B000100AB8EEC00A01A800EB840080ED000A10
:1017C00028EEA80A08EE080A10EE101A084606F0DD
:1017D000B1FF41EC1B0BB0EE4B0AF0EE6B0A07F0C9
:1017E000DBFEB0EE40AAF0EE60AA51EC1A0B06F058
:1017F00082FF01B2CB48403020F8141018EE900A56
:1018000006F098FF41EC1D0B18EE100A06F092FF4F
:1018100041EC1E0BB0EE4D1AF0EE6D1AB0EE4E0A12
:10182000F0EE6E0A07F0F4FAB0EE40CAF0EE60CACD
:1018300051EC1C0B06F0C2FF00EE100ADFEDBB0AF4
:1018400020EE200A10EE105A284606F073FF41ECF5
:101850001B0B1FED590B53EC102B06F0BFFE41EC98
:101860001A0B06F0ABFFAF49283141F82400601C89
:10187000C4B2042CFFF61BAFAD48C0ED008AAD48E2
:1018800080ED008A05B0BDEC108B30BD10B5FFF7C0
:10189000D4FE10BD10B52DED0C8BB0EE408AF0EEED
:1018A000608AB0EE419AF0EE619A9E4890ED120A7D
:1018B000B5EEC00AF1EE10FA27D090ED120A10EE44
:1018C000101A084606F036FF41EC1D0BB0EE4D0A2B
:1018D000F0EE6D0A07F0A8FCB0EE40BAF0EE60BA88
:1018E000904890ED090A10EE101A084606F022FF03
:1018F00041EC1C0B53EC1B2B06F070FE41EC1A0B59
:1019000006F05CFF8C49086004E09FED8C0A8A4871
:1019100080ED000A8A4890ED000A07F075FD8648C0
:10192000D0ED000A20EE200A10EE104A204606F004
:1019300001FF41EC1B0B51EC180B81F0004141EC15
:101940001D0B9FED800B53EC102B06F047FE41EC76
:101950001C0B53EC1B2B06F028FD41EC1A0B06F078
:101960002DFF7A490860764890ED000A07F04CFD9B
:101970007148D0ED000A20EE200A10EE104A2046F1
:1019800006F0D8FE41EC1B0B9FED6E0B53EC102BB9
:1019900051EC180B06F022FE41EC1C0B53EC1B2BF8
:1019A00006F003FD41EC1A0B06F008FF68490860D9
:1019B000634890ED000A07F08FFB5F48D0ED000A06
:1019C00020EE200A10EE104A204606F0B3FE41EC4D
:1019D0001B0B51EC190B81F0004141EC1D0B9FEDED
:1019E000590B53EC102B06F0F9FD41EC1C0B53EC9A
:1019F0001B2B06F0DAFC41EC1A0B06F0DFFE554912
:101A000008604F4890ED000A07F066FB4A48D0EDA9
:101A1000000A20EE200A10EE104A204606F08AFE48
:101A200041EC1B0B9FED470B53EC102B51EC190BAA
:101A300006F0D4FD41EC1C0B53EC1B2B06F0B5FC5F
:101A400041EC1A0B06F0BAFE434908603648007BA9
:101A5000072825D14148007801280ED1314890ED62
:101A6000080AD0ED130A30EE600ADFED3D0A30EED1
:101A7000600A334880ED000AE3E038480078002827
:101A80000DD1284890ED080AD0ED130A30EE600A17
:101A9000DFED330A30EE200A294880ED000AD0E05D
:101AA000204890ED140ADFED1E0AB4EEE00AF1EED4
:101AB00010FA20DD90ED140ADFED2A0AB4EEE00AF8
:101AC000F1EE10FA17D8D0ED140AB0EE600ADFED8F
:101AD0001B0A254801F0DAF9B1EE400A114880ED01
:101AE000120A90ED080AD0ED130A30EE600A14488D
:101AF00080ED000AA5E00B4890ED140ADFED190A0D
:101B0000B4EEE00AF1EE10FA4FDD90ED140ADFEDCD
:101B1000170AB4EEE00AF1EE10FA29E0DB0F4940B3
:101B2000DB0F49BF60010020C001002000003443EA
:101B3000A8000020AC0000203400002000000000BD
:101B4000380000200000000000000040B800002025
:101B5000BC000020C0000020C40000205A0000206B
:101B60005077563EDB0F493FA80E0020E4CB1640CD
:101B70001BD8D0ED140AB0EE600ADFEDFE0AFE4875
:101B800001F084F9B1EE400AFC4880ED120A90EDB4
:101B9000080AD0ED130A30EE600ADFEDF90A30EEE4
:101BA000200AF84880ED000A4BE0F44890ED140A52
:101BB0005FED120AB4EEE00AF1EE10FA08DA90EDE9
:101BC000140ADFEDF10AB4EEE00AF1EE10FA1CD2CD
:101BD000EA48D0ED130AB0EE600A5FED300AE6483D
:101BE00001F054F9B1EE400AE44880ED120A90ED9C
:101BF000080AD0ED130A30EE600ADFEDE10A30EE9C
:101C0000200AE04880ED000A1BE0DC48D0ED140A11
:101C1000B0EE600ADFEDDD0AD74801F037F9B1EE2A
:101C2000400AD64880ED120A90ED080AD0ED130A5A
:101C300030EE600ADFEDD20A30EE600AD14880ED66
:101C4000000ACE4890ED080ADFEDCA0AB4EEE00AB9
:101C5000F1EE10FA12DB90ED080A5FED500AB4EED7
:101C6000E00AF1EE10FA09D2C64890ED000ADFED65
:101C7000C10A30EE600A80ED000A38E0BF4890EDFE
:101C8000080A5FED5A0AB4EEE00AF1EE10FA12DB30
:101C900090ED080ADFEDBE0AB4EEE00AF1EE10FAAC
:101CA00009D2B84890ED000A5FED640A30EE600A90
:101CB00080ED000A1BE0B14890ED080ADFEDB40AA0
:101CC000B4EEE00AF1EE10FA11DB90ED080ADFED58
:101CD000AC0AB4EEE00AF1EE10FA08D2A94890ED91
:101CE000000ADFEDAB0A30EE600A80ED000AA94879
:101CF00090ED000A20EE000AA748D0ED000A90ED12
:101D0000001A00EE810A10EE101A084606F012FDC5
:101D100041EC1B0BB0EE4B0AF0EE6B0A07F03CFCFB
:101D2000B0EE40AAF0EE60AA51EC1A0B06F046FDA8
:101D30009A4948609A4890ED000A20EE000A9648B9
:101D4000D0ED000A90ED001A00EE810A10EE101A94
:101D5000084606F0EFFC41EC1A0BB0EE4A0AF0EE32
:101D60006A0A07F019FCB0EE40BAF0EE60BA51EC26
:101D70001B0B06F023FD89498860894890ED000A15
:101D800020EE000A8748D0ED000A90ED001A00EE20
:101D9000810A10EE101A084606F0CCFC41EC1B0B31
:101DA000B0EE4B0AF0EE6B0A07F0F6FBB0EE40AA7D
:101DB000F0EE60AA51EC1A0B06F000FD7749C860FE
:101DC000744890ED000A20EE000A7648D0ED000A33
:101DD00090ED001A00EE810A10EE101A084606F087
:101DE000A9FC41EC1B0BB0EE4B0AF0EE6B0A07F0BE
:101DF000D3FBB0EE40AAF0EE60AA51EC1A0B06F04D
:101E0000DDFC664908606348006806F093FC41EC1D
:101E10001B0B6148006806F08DFC41EC1C0BB0EE1A
:101E20004B1AF0EE6B1AB0EE4C0AF0EE6C0A06F0AC
:101E3000EFFFB0EE40AAF0EE60AA51EC1A0B06F0EC
:101E4000BDFC594948605648006806F073FC41ECF7
:101E50001B0B5148006806F06DFC41EC1C0BB0EE0A
:101E60004B1AF0EE6B1AB0EE4C0AF0EE6C0A06F06C
:101E7000CFFFB0EE40AAF0EE60AA51EC1A0B06F0CC
:101E80009DFC494988604648006806F053FC41ECD7
:101E90001B0B4448006806F04DFC41EC1C0BB0EEF7
:101EA0004B1AF0EE6B1AB0EE4C0AF0EE6C0A06F02C
:101EB000AFFFB0EE40AAF0EE60AA51EC1A0B06F0AC
:101EC0007DFC3949C8603348006806F033FC41ECBA
:101ED0001B0B3448006806F02DFC41EC1C0BB0EEE7
:101EE0004B1AF0EE6B1AB0EE4C0AF0EE6C0A06F0EC
:101EF0008FFFB0EE40AAF0EE60AA51EC1A0B06F08C
:101F00005DFC294908601D4890ED080ADFED190ABB
:101F1000B4EEE00AF1EE10FA79DB90ED080ADFED9D
:101F2000230AB4EEE00AF1EE10FA70D21B4890EDED
:101F3000030A1F4880ED000A184890ED000A1C486B
:101F400080ED010A154890ED010A194880ED020A5A
:101F5000124890ED020A164880ED030A084690EDFB
:101F6000030A144880ED000A084690ED000A114863
:101F700022E00000DB0FC93FA80E00206001002016
:101F8000DB0FC94038000020E4CB16C0DB0FC9BF0F
:101F9000E4CB9640C4000020BC0000207802002062
:101FA000C0000020B800002088020020DB0F49405C
:101FB000B8020020C802002080ED010A084690ED1A
:101FC000010AFE4880ED020A084690ED020AFB482D
:101FD00080ED030A002018E0F94901EB800191ED42
:101FE000000AF84901EB800181ED000AF34901EB99
:101FF000800191ED000A5FED210A30EE200AF249DE
:1020000001EB800181ED000A401C0428E4DBEF486D
:1020100090ED080A5FED1B0AB4EEE00AF1EE10FA4B
:1020200055DB90ED080A5FED260AB4EEE00AF1EE0A
:1020300010FA4CD2E34890ED020AE14880ED000A24
:10204000E04890ED030ADE4880ED010ADD4890ED9E
:10205000000ADB4880ED020ADA4890ED010AD84810
:1020600080ED030AD84890ED020AD44880ED000ABA
:10207000D54890ED030AD14880ED010AD24890ED91
:10208000000ACE4880ED020ACF4890ED010ACB4805
:1020900080ED030A002018E0C94901EB800191EDB1
:1020A000000AC84901EB800181ED000AC34901EB38
:1020B000800191ED000A5FED430A30EE200AC2492B
:1020C00001EB800181ED000A401C0428E4DBBF48DD
:1020D00090ED080A5FED520AB4EEE00AF1EE10FA54
:1020E00055DB90ED080A5FED5A0AB4EEE00AF1EE16
:1020F00010FA4CD2B34890ED010AB14880ED000AC5
:10210000B04890ED020AAE4880ED010AAD4890ED6E
:10211000030AAB4880ED020AAA4890ED000AA848DD
:1021200080ED030AA84890ED010AA44880ED000A5A
:10213000A54890ED020AA14880ED010AA24890ED61
:10214000030A9E4880ED020A9F4890ED000A9B48D2
:1021500080ED030A002018E0994901EB800191ED20
:10216000000A984901EB800181ED000A934901EBD7
:10217000800191ED000A5FED7A0A30EE200A924963
:1021800001EB800181ED000A401C0428E4DB8F484C
:1021900090ED120AB5EEC00AF1EE10FA4AD2894863
:1021A00090ED020A864880ED000A864890ED030A09
:1021B000834880ED010A834890ED000A804880ED55
:1021C000020A804890ED010A7D4880ED030A7E48AE
:1021D00090ED020A794880ED000A7B4890ED030AF1
:1021E000764880ED010A784890ED000A734880ED4A
:1021F000020A754890ED010A704880ED030A00203C
:1022000016E06F4901EB800191ED000AB1EE400A42
:102210006C4901EB800181ED000A684901EB800106
:1022200091ED000A684901EB800181ED000A401C34
:102230000428E6DB654890ED120AB5EEC00AF1EE1F
:1022400010FA37D1624890ED000AB5EEC00AF1EEFF
:1022500010FA06D190ED010AB5EEC00AF1EE10FABF
:1022600028D0B7EE000A574880ED000AB7EE000A02
:1022700080ED010AB7EE000A80ED020AB7EE000A0F
:1022800080ED030A514890ED140A4F4880ED000A92
:102290004E4890ED140A4C4880ED010A4B4890EDF1
:1022A000140A494880ED020A484890ED140A46484D
:1022B00080ED030A002026E0424901EB800191ED08
:1022C000000A4249D1ED120A20EE200ADFED410A50
:1022D00020EE200ABDEEC00A10EE101A0AB23B49E9
:1022E000403121F81020384901EB800191ED000ABE
:1022F000DFED390A20EE200A3449283101EB800154
:1023000081ED000A401C0428D6DBBDEC0C8B10BD0F
:1023100010B52DED028B002440E004EB440000EBEF
:10232000C4002E4901EBC00090ED121BB0EE410A33
:10233000F0EE610A9FED2A1B53EC112B51EC100BB0
:1023400006F0DAF806F03AFA01462148583040F82B
:1023500024101E48283000EB8400D0ED000A2248EB
:1023600050F82400B421484300EE100AB8EEC00A29
:1023700030EE800A1648483000EB840080ED000AF9
:102380001A4830F824001149403131F814104843FC
:1023900001B20E48403020F81410641C042CBCDB41
:1023A0000A48B0F84000404200B20849A1F8400095
:1023B0000846B0F84200404201B219E0C8020020CD
:1023C000B80200207802002088020020600100206E
:1023D000C0010020CDCCCC3EE12E6542C0180020CB
:1023E000000000000000F0BFE8030020CC00002047
:1023F000FE48A0F84210B0F84400404201B2FB4849
:10240000A0F84410B0F94600F849A1F846000020B1
:10241000A5E0F74901EB800191ED000AF449103184
:1024200001EB8001D1ED000A30EE600ADFEDF10A28
:10243000B4EEE00AF1EE10FA22DDED4901EB800185
:1024400091ED000AEA49103101EB8001D1ED000A5B
:1024500030EE600ADFEDE80AB4EEE00AF1EE10FAC1
:102460000ED2E64951F82010491EE44A42F82010E5
:10247000E34951F820104942E14A42F820106DE04A
:10248000DB4901EB800191ED000AD949103101EBE4
:102490008001D1ED000A30EE600ADFEDD70AB4EE1C
:1024A000E00AF1EE10FA07DDD44951F82010891E38
:1024B000D24A42F8201051E0CD4901EB800191ED64
:1024C000000ACB49103101EB8001D1ED000A30EE5A
:1024D000600ADFEDCC0AB4EEE00AF1EE10FA22D287
:1024E000C34901EB800191ED000AC149103101EBB4
:1024F0008001D1ED000A30EE600ADFEDC30AB4EED0
:10250000E00AF1EE10FA0EDDBC4951F82010491C2A
:10251000BA4A42F82010BA4951F820104942B84A44
:1025200042F820101AE0B24901EB800191ED000A57
:10253000AF49103101EB8001D1ED000A30EE600AA5
:10254000DFEDB10AB4EEE00AF1EE10FA06D2AB49C3
:1025500051F82010891CA94A42F82010401C042878
:10256000FFF657AF002418E0A14901EB840191ED7B
:10257000001AF0EE410A9E49103101EB840191ED01
:10258000001AB0EE410A04EB440101EB04119F4A2A
:1025900002EB810000F07AFC641C042CE4DB94481C
:1025A0004838007B032804D091484838007B07282E
:1025B0002AD100200FE000EB400101EBC001944A5A
:1025C00002EBC101B1F8401049420AB288492831F2
:1025D00021F81020401C0428EDDB002012E000EB65
:1025E000400101EB0011894A02EB810191ED0B0AD8
:1025F000BDEEC00A10EE101A0AB27D49203121F852
:102600001020401C0428EADBBDEC028B10BD10B585
:102610002DED048BFFF77CFE0024C2E004EB4400A8
:1026200000EBC4017B4800EBC100B0F840107048DB
:10263000583020F814106D48403030F814106C48B1
:10264000503020F81410694890ED090AB5EEC00A20
:10265000F1EE10FA20D190ED120A10EE101A084691
:1026600006F068F841EC190BB0EE490AF0EE690A81
:1026700006F0DAFDB0EE408AF0EE608A9FED660B60
:1026800053EC102B51EC180B06F068F804D2002123
:102690005748503020F81410614901EB8401D1ED06
:1026A000001A5349203131F9141001EE101AB8EE16
:1026B000C11A21EE811AF0EE410A4D49283131F953
:1026C000141001EE101AB8EEC11AB0EE410A04EB74
:1026D000440101EB0411534A02EB810000F0D6FBE8
:1026E0004349503131F9141001EE101AB8EEC11AF5
:1026F0004D49D1ED001A21EE211AF0EE410A3C4974
:10270000583131F9141001EE101AB8EEC11AB0EEBA
:10271000410A04EB440101EB0411444A02EB81003D
:1027200000F0B4FB3248483890ED000AB5EEC00A1C
:10273000F1EE10FA34D190ED010AB5EEC00AF1EED7
:1027400010FA2DD1294890ED120A10EE101A084601
:1027500005F0F0FF41EC190BB0EE490AF0EE690A02
:1027600006F062FDB0EE408AF0EE608A9FED300B1D
:1027700053EC102B51EC180B05F0F0FF10D2002099
:102780000CE09FED2D0A00EB400101EB0011254A02
:1027900002EB810181ED0B0A411CC8B20428F0DB79
:1027A000641C042CFFF63AAF00204FE01049483972
:1027B000097B032904D00E494839097B072940D1F8
:1027C00000EB400101EB0011184A02EB810191ED91
:1027D0000B0AF7EE000A20EE200ABDEEC00A10EE4A
:1027E000101A0AB20249283928E0000060010020CE
:1027F000080200200000B44200008743E8030020E4
:10280000CC0000200000B4C2000087C3B413002035
:10281000C0180020201A0020000000000000144012
:1028200088030020141600206C00002044170020AC
:10283000000000000000E03F0000000021F8102030
:1028400003E00022B64921F81020401C0428ADDB2B
:10285000B34C203CB4F99830002B01DB1C4600E05F
:102860005C42322C24DAAE4C203CB4F99A20002A87
:1028700001DB144600E05442322C19DAA84C203C0B
:10288000B4F99C10002901DB0C4600E04C42322CCC
:102890000EDAA34C203CB4F99E00002801DB04466C
:1028A00000E04442322C03DA00209E49086002E036
:1028B00001209C490860002033E099492039097BB8
:1028C000032904D096492039097B072923D100EB3D
:1028D000400101EB0011944A02EB810191ED0B0ADA
:1028E000BDEEC00A10EE101A09B200EE101AB8EED2
:1028F000C00AF7EE000A20EE200AFFEE000A20EEE2
:10290000200ABDEEC00A10EE101A0AB2844908313E
:1029100021F8102004E000228149083121F810201C
:10292000401C0428C9DBBDEC048B10BD10B52DED97
:10293000088B7E49086849687D4AC2E9160110463D
:10294000D0ED131AB0EE611A90ED162BB0EE420ADC
:10295000F0EE620AFEF74DFBB0EE409AF0EE609AA0
:1029600051EC190B05F02AFF7149C8641FED4E0A9E
:10297000B0EE408A6D491139B1F9070005F09DFEAE
:102980009FED6C0B53EC102B05F0B6FD05F0B3FE7C
:1029900000B26A49088065491139B1F9090005F0AA
:1029A0008CFE9FED640B53EC102B05F0A5FD05F09C
:1029B000A2FE00B2624908806049098811FB01F15A
:1029C0005F4A12885E4B1B8812FB031005F075FEF0
:1029D00041EC1A0BB0EE4A0AF0EE6A0A06F0DCFD92
:1029E000B0EE409AF0EE609A51EC190B05F0E6FE5D
:1029F0004F494862084690ED090ADFED520AB4EEED
:102A0000E00AF1EE10FA3FDB4C48B0F9000005F0A7
:102A100054FE41EC1A0B4A48B0F9000005F04DFE97
:102A200041EC1B0BB0EE4A1AF0EE6A1AB0EE4B0AFC
:102A3000F0EE6B0A06F0ECF9B0EE409AF0EE609A18
:102A400051EC190B05F0BAFE08EE100A9FED3E0A94
:102A500038EE000A10EE101A084605F06BFE41EC45
:102A60001A0B9FED3A1BB0EE4A0AF0EE6A0A06F026
:102A7000E5FBB0EE409AF0EE609A51EC190B05F0D0
:102A80009DFE2B49086204E01FED950A284880ED61
:102A9000090ABDEC088B10BD10B524481138C07868
:102AA0001F49203908730846007B072810D004DC32
:102AB000012807D0032814D107E008280BD00A28E2
:102AC0000FD10BE0FEF7D6FA0EE0FEF7E6FA0BE0C8
:102AD000FEF74CFB08E0FEF7AFFB05E0FEF72CFB32
:102AE00002E0FEF7C7FA00BF00BF10481138C078F7
:102AF0000B492039487310BD10B5FEF702FAFFF7F5
:102B000086FD10BD10B5FFF711FFFEF7BFFE10BD2B
:102B100010B5FFF7C1FFFFF7F5FFFFF7EDFF10BDA1
:102B2000E001002040000020141600202723002090
:102B300060010020CDCCCCCCCCCCF43F50000020A8
:102B40005200002000004842DB0FC9400000006036
:102B5000FB211940D0ED000AF4EEC00AF1EE10FAA4
:102B600001DD80ED000AD0ED000AB1EE401AF4EE6E
:102B7000C10AF1EE10FA03D2F1EE400AC0ED000AEC
:102B800070470364C263816380ED000AC0ED010AEF
:102B900080ED021A704780ED000AC0ED010A80ED59
:102BA000021ADFEDFB1AC0ED081ADFEDF91AC0EDCD
:102BB000091ADFEDF71AC0ED0A1ADFEDF51AC0EDBC
:102BC0000B1A704710B52DED0A8B0446F0EE408AC3
:102BD000B0EE609AB0EE418AC4ED048A84ED039AA7
:102BE00039EE680A84ED070A18EE100A05F0A2FD16
:102BF00041EC1A0B94ED070A10EE101A084605F086
:102C000099FD41EC1C0BB0EE4C0AF0EE6C0A06F09C
:102C10000BFBB0EE40BAF0EE60BA53EC1A2B51EC5D
:102C20001B0B05F09BFD04D29FEDD90A84ED070A2A
:102C30001CE094ED070AB4EEC80AF1EE10FA06DDC6
:102C400094ED070A30EE480A84ED070A0EE094ED91
:102C5000070AF1EE480AB4EEE00AF1EE10FA05D2E6
:102C600094ED070A30EE080A84ED070A18EE100A00
:102C700005F060FD41EC1A0B39EE680A10EE101AEF
:102C8000084605F057FD41EC1C0BB0EE4C0AF0EE87
:102C90006C0A06F0C9FAB0EE40BAF0EE60BA53EC36
:102CA0001A2B51EC1B0B05F059FD03D29FEDB80A0E
:102CB00084ED070A94ED0C0AB5EEC00AF1EE10FAA5
:102CC00027D094ED0C0A10EE101A084605F032FDDC
:102CD00041EC1A0B94ED070A10EE101A084605F0A5
:102CE00029FD41EC1C0BB0EE4C0AF0EE6C0A06F02C
:102CF0009BFAB0EE40BAF0EE60BA53EC1A2B51ECEE
:102D00001B0B05F043FD04D29FEDA10ABDEC0A8B1D
:102D100010BDA06B03283ED194ED000AD4ED070A44
:102D200020EE200A84ED080A94ED090AD4ED010A88
:102D300094ED071A00EE810A84ED090A94ED070A62
:102D4000D4ED060A30EE600AD4ED020A20EE200A25
:102D500084ED0A0AD4ED100AF8EE600AB0EE600ABB
:102D600004F12400FFF7F6FE94ED080AD4ED090AF9
:102D700030EE200AD4ED0A0A30EE200A84ED0B0A68
:102D8000D4ED0F0AF8EE600AB0EE600A04F12C00F0
:102D9000FFF7E0FE42E0A06B04283FD194ED070A64
:102DA000D4ED060A30EE600AD4ED000A20EE200AC7
:102DB00084ED080A94ED010AD4ED070A20EE200AFA
:102DC00084ED090A94ED070AD4ED060AB0EE001A64
:102DD00001EE600AD4ED050A30EE200AD4ED020AB5
:102DE00020EE200A84ED0A0A94ED080AD4ED090ABF
:102DF00030EE200AD4ED0A0A30EE200AD4ED0B0A98
:102E000030EE200A84ED0B0AD4ED0F0AF8EE600ACA
:102E1000B0EE600A04F12C00FFF79CFE94ED060A68
:102E200084ED050A94ED070A84ED060A94ED0D0A77
:102E3000B5EEC00AF1EE10FA25D094ED0D0A10EEB1
:102E4000101A084605F076FC41EC1A0B94ED0B0ABB
:102E500010EE101A084605F06DFC41EC1C0BB0EEAC
:102E60004C0AF0EE6C0A06F0DFF9B0EE40BAF0EE74
:102E700060BA53EC1A2B51EC1B0B05F06FFC02D21D
:102E80009FED430A42E794ED0B0A3FE710B52DEDA5
:102E9000088B0446B0EE408AF0EE608A84ED048A26
:102EA000C4ED038A38EEC80A84ED070A94ED0C0AD3
:102EB000B5EEC00AF1EE10FA27D094ED0C0A10EE30
:102EC000101A084605F036FC41EC190B94ED070A80
:102ED00010EE101A084605F02DFC41EC1B0BB0EE6D
:102EE0004B0AF0EE6B0A06F09FF9B0EE40AAF0EE46
:102EF00060AA53EC192B51EC1A0B05F047FC04D2D5
:102F00009FED230ABDEC088B10BDA06B032841D1B7
:102F100094ED000AD4ED070A20EE200A84ED080A99
:102F200094ED090AD4ED010A94ED071A00EE810A26
:102F300084ED090A94ED070AD4ED060A30EE600A22
:102F4000D4ED020A20EE200A84ED0A0AD4ED100A1C
:102F5000F8EE600AB0EE600A04F12400FFF7FAFD13
:102F600094ED080AD4ED090A30EE200AD4ED0A0ADD
:102F700030EE200A84ED0B0AD4ED0F0AF8EE600A59
:102F8000B0EE600A04F12C00FFF7E4FD45E000001C
:102F900000000000A06B04283FD194ED070AD4ED97
:102FA000060A30EE600AD4ED000A20EE200A84ED15
:102FB000080A94ED010AD4ED070A20EE200A84EDF8
:102FC000090A94ED070AD4ED060AB0EE001A01EEE4
:102FD000600AD4ED050A30EE200AD4ED020A20EE94
:102FE000200A84ED0A0A94ED080AD4ED090A30EEAD
:102FF000200AD4ED0A0A30EE200AD4ED0B0A30EE96
:10300000200A84ED0B0AD4ED0F0AF8EE600AB0EE48
:10301000600A04F12C00FFF79DFD94ED060A84ED93
:10302000050A94ED070A84ED060A94ED0D0AB5EE43
:10303000C00AF1EE10FA25D094ED0D0A10EE101A28
:10304000084605F077FB41EC190B94ED0B0A10EEE6
:10305000101A084605F06EFB41EC1B0BB0EE4B0A54
:10306000F0EE6B0A06F0E0F8B0EE40AAF0EE60AACF
:1030700053EC192B51EC1A0B05F070FB02D21FED2B
:103080003C0A3FE794ED0B0A3CE710B52DED088BA9
:103090000446B0EE408AF0EE608A84ED048AC4ED06
:1030A000038A38EEC80A84ED070A94ED0C0AB5EEDF
:1030B000C00AF1EE10FA27D094ED0C0A10EE101AA7
:1030C000084605F037FB41EC190B94ED070A10EEAA
:1030D000101A084605F02EFB41EC1B0BB0EE4B0A14
:1030E000F0EE6B0A06F0A0F8B0EE40AAF0EE60AA8F
:1030F00053EC192B51EC1A0B05F048FB04D21FEDD1
:103100005C0ABDEC088B10BDA06B03283ED194ED8A
:10311000000AD4ED070A20EE200A84ED080A94ED97
:10312000090AD4ED010A94ED071A00EE810A84ED34
:10313000090A94ED070AD4ED060A30EE600AD4EDD0
:10314000020A20EE200A84ED0A0AD4ED100AF8EEF5
:10315000600AB0EE600A04F12400FFF7FBFC94ED76
:10316000080AD4ED090A30EE200AD4ED0A0A30EE3E
:10317000200A84ED0B0AD4ED0F0AF8EE600AB0EED7
:10318000600A04F12C00FFF7E5FC3EE0A06B042888
:103190003BD194ED070AD4ED060A30EE600AD4ED77
:1031A000000A20EE200A84ED080A94ED010AD4ED0D
:1031B000070A20EE200A84ED090A94ED070AD4EDEF
:1031C000060AB0EE001A01EE600AD4ED050A30EEF0
:1031D000200AD4ED020A20EE200A84ED0A0A94EDBA
:1031E000080AD4ED0A0A30EE200AD4ED0B0A30EEBC
:1031F000200A84ED0B0AD4ED0F0AF8EE600AB0EE57
:10320000600A04F12C00FFF7A5FC94ED060A84ED9A
:10321000050A94ED070A84ED060A94ED0D0AB5EE51
:10322000C00AF1EE10FA25D094ED0D0A10EE101A36
:10323000084605F07FFA41EC190B94ED0B0A10EEED
:10324000101A084605F076FA41EC1B0BB0EE4B0A5B
:10325000F0EE6B0A05F0E8FFB0EE40AAF0EE60AACF
:1032600053EC192B51EC1A0B05F078FA02D21FED32
:10327000B80A46E794ED0B0A43E72DE9F0412DED3E
:10328000048B04460D4616461F46B0EE408AF0EE0B
:10329000608AB0EE419A2A486064B0EE491AF0EEB6
:1032A000680AB0EE480A3B46324629462046D4F822
:1032B00044C0E047BDEC048BBDE8F0811FEDCC0AB3
:1032C00080ED080A1FEDCE0A80ED090A1FEDD00A35
:1032D00080ED0A0A1FEDD20A80ED0B0A1FEDD40A19
:1032E00080ED050A1FEDD60A80ED060A1FEDD80A0B
:1032F00080ED070A704770B52DED048B06460D462C
:103300001446B0EE408AF0EE608AB0EE419AF0EEDC
:10331000619AF0EE480AB0EE680A3046FFF7B6FD53
:1033200030EE290A84ED000A94ED000AF0EE400A1E
:10333000B0EE490A2846FFF7A9FDBDEC048B70BD2D
:10334000832B000810B504462068B0F5027F0AD12F
:103350002C48C068401C2B49C86041F2C872214605
:10336000294800F039F910BD10B504462068A0F2D4
:103370000120072842D2DFE800F0040A10151B27BD
:10338000340021462048583000F013F937E0214638
:103390001D48B03000F00DF931E021461B4800F027
:1033A00008F92CE021461948583000F002F926E0CF
:1033B00014480068401C1349086040F2B662214678
:1033C000134800F009F91AE00E484068401C0D4906
:1033D000486041F2A17221460D48583000F0FCF8D7
:1033E0000DE008488068401C0649886040F6F242BB
:1033F00021460548583800F0EFF800E000BF00BF54
:1034000010BD0000B0210020C8190020D01A0020F3
:10341000C01800200A7BCB7A42EA032282618269CB
:103420008260826942600269521C026170472DE924
:10343000F04104460D460026002720686060287B86
:10344000E97A40EA0120206020686168401AE06063
:10345000E06810F5805F07DAA06B401CA063E068AD
:1034600000F50050E0610DE0E068B0F5805F07DD39
:10347000A06B401EA063E068A0F50050E06101E091
:10348000E068E0612168A06B01EB4030A06020683B
:10349000A269801A00EE100AF8EEC00AA06B4FF481
:1034A000B472504300EE100AB8EEC00A9FEDD11A74
:1034B00000EE810A10EE101A084605F03BF941ECC7
:1034C000100B84ED120BE269207D411C217504F183
:1034D000200141F82020207D062801D10020207500
:1034E000002605E004F1200050F826000744761C71
:1034F000062EF7DB062097FBF0F02064A97B687BA3
:1035000041EA002000B2A4F85400BDE8F08170B593
:1035100004460D4620686060287BE97A40EA012075
:10352000206020686168401AE060E06810F5805F04
:1035300007DAA06B401CA063E06800F50050E06172
:103540000DE0E068B0F5805F07DDA06B401EA06372
:10355000E068A0F50050E06101E0E068E06121680A
:10356000A06B01EB4030A0602068A269801A00EED9
:10357000100AF8EEC00AA06B4FF4B472504300EE8C
:10358000100AB8EEC00A9FED9C1A00EE810A10EEF8
:10359000101A084605F0CEF841EC100B84ED120B22
:1035A000687B000200B2A97B08432064687C206528
:1035B00070BD70B504460D46E06B401CE063E06BE7
:1035C000052804DC29462046FFF724FF03E02946AE
:1035D0002046FFF72CFF70BD70B504460E46154619
:1035E000E06B401CE063E06B022800DCA561314623
:1035F0002046FFF78CFFE06B0A2812DCA069A16867
:10360000401A10F57A6F03DA05F50050A06108E062
:10361000A069A168401AB0F57A6F02DDA5F50050E7
:10362000A06170BD2DE9F04186B007460C461546F5
:103630001E46DDF8308040F2FF10019000208DF82A
:103640000C008DF80D0008208DF80E00200A8DF872
:103650000F008DF81040290A8DF811108DF81250C6
:10366000310A8DF813108DF814604FEA18218DF887
:1036700015108DF816800EE060480068401C5F4908
:1036800008600846006840F6B831884203D100203F
:103690005A49086004E0B86800F0E0500028EBD018
:1036A00000BF01A9384602F0DBFB06B0BDE8F0819F
:1036B0002DE9F04186B080460C4615461E460C9F0B
:1036C00040F2FF20019000208DF80C008DF80D00D5
:1036D00008208DF80E00200A8DF80F008DF810409C
:1036E000290A8DF811108DF81250310A8DF8131037
:1036F0008DF81460390A8DF815108DF8167001A92F
:10370000404602F0ADFB06B0BDE8F0812DE9F04186
:1037100086B007460C4615461E46DDF830804FF44D
:103720000070019000208DF80C008DF80D0008202D
:103730008DF80E00200A8DF80F008DF81040290A30
:103740008DF811108DF81250310A8DF813108DF884
:1037500014604FEA18218DF815108DF816800EE0D0
:1037600027480068401C264908600846006840F663
:10377000B831884203D100202149086004E0B868CC
:1037800000F0E0500028EBD000BF01A9384602F05D
:1037900067FB06B0BDE8F0812DE9F04186B08046B8
:1037A0000C4615461E460C9F40F2FF10019000206B
:1037B0008DF80C008DF80D0008208DF80E00200A01
:1037C0008DF80F008DF81040290A8DF811108DF832
:1037D0001250310A8DF813108DF81460390A8DF8E3
:1037E00015108DF8167001A9404602F039FB06B09D
:1037F000BDE8F081FFFF333D0000343DDC000020D8
:10380000E0000020F0B503460C461888002113E0C4
:10381000675C80EA072000250BE0460000F4004CBE
:10382000BCF1000F03D041F2210C86EA0C063046B1
:103830006D1C082DF1D3491C9142E9D31880F0BDCD
:103840002DE9F84305460F4690464FF00009002049
:1038500000900626FE484078002859D0002085F8C0
:103860006300FB484078C0F3800078B1F9A1284696
:1038700004F089FDF84908600846006830B1F44852
:10388000007820F00400001DF1490870F0484078ED
:1038900000F0010078B1EFA1284604F074FDEE4974
:1038A00008600846006830B1E948007820F001005F
:1038B000401CE7490870E6484078C0F3400078B102
:1038C000E4A1284604F05FFDE3490860084600686B
:1038D00030B1DF48007820F00200801CDC4908701D
:1038E000DB484078C0F3C00078B1DCA1284604F082
:1038F0004AFDD94908600846006830B1D4480078CC
:1039000020F008000830D2490870002028600AE141
:1039100028785A28FBD16878A528F8D1A878E978C2
:1039200000EB0120801D4045F1D1B8F1080FEEDB1E
:10393000042229466846FFF765FFA8F10602A91D83
:103940006846FFF75FFF2879697900EB01201FFACD
:1039500080F9BDF800004845D9D10626E0E0AC1951
:103960002078C02860D008DC90280FD0A02813D081
:10397000A52829D0B0286FD13EE0D02870D0D1281A
:103980006CD0D9286BD0F028F5D1C3E06078B84965
:103990000870B01CC6B2C2E06078A17800EB0120CC
:1039A00000B2B3494880E078217900EB012000B2F1
:1039B000AF4988806079A17900EB012000B2AC4961
:1039C000C880F01DC6B2AAE06078A17800EB0120A3
:1039D00000B2A7490881E078217900EB012000B20C
:1039E000A34948816079A17900EB012000B2A04988
:1039F0008881F01DC6B292E06078A17800EB0120CA
:103A000000B29B49C881E078217900EB012000B227
:103A1000974908826079A17900EB012000B29449AE
:103A20004882F01DC6B27AE06078A17800EB0120F0
:103A300000B28F498882E078217900EB012000B242
:103A40008B49C8826079A17900EB012000B28849D6
:103A50000883F01DC6B262E05FE001E04CE03FE0A9
:103A60006078A17800EB012000B281494883E078BA
:103A7000217900EB012000B27D4988836079A1792A
:103A800000EB012000B27A49C8830846B0F91A0059
:103A900000EE100AB8EEC00ADFED760A20EE200A2A
:103AA000084680ED0F0AB0F91C0000EE100AB8EECF
:103AB000C00ADFED700A20EE200A084680ED100AE9
:103AC000B0F91E0000EE100AB8EEC00ADFED6A0A77
:103AD00020EE200A084680ED110AF01DC6B21EE055
:103AE000634854F8011F016261684162A168816204
:103AF00006F10D00C6B212E05D4854F8011FC16224
:103B000061680163A1684163E168816306F11100A6
:103B1000C6B204E0701DC6B201E0464600BF00BF59
:103B20004645FFF61CAF5248B0F91200404200EE85
:103B3000100AB8EEC00ADFED500A20EE200A87ED29
:103B4000040A4B48B0F91000404200EE100AB8EEEB
:103B5000C00ADFED490A20EE200A87ED030A444837
:103B6000B0F90E00404200EE100AB8EEC00ADFEDD8
:103B7000420A20EE200A87ED050A404890ED000A2F
:103B80003F4880ED000A3A4890ED110AB1EE400A34
:103B90003A4880ED000A90ED000A3948D0ED000A5D
:103BA00030EE600ADFED370AB4EEE00AF1EE10FA0B
:103BB00005DB35480068401E3349086013E02F4894
:103BC00090ED000A2E48D0ED000A30EE600ADFEDDD
:103BD0002F0AB4EEE00AF1EE10FA04D82A48006881
:103BE000401C294908602A4890ED000A294880EDC8
:103BF000000A1F4890ED080A254880ED000A90ED64
:103C0000000A2448D0ED000A30EE600ADFED1D0AFC
:103C1000B4EEE00AF1EE10FA05DB1F480068401E22
:103C20001D49086013E01A4890ED000A1948D0EDCC
:103C3000000A30EE600ADFED150AB4EEE00AF1EE9C
:103C400010FA04D814480068401C1349086025E0A5
:103C5000E40000204F4B0000E80000206E65772054
:103C60007061636B6574206974656D73000000009A
:103C7000C02100200AD7233CCDCCCC3DF000002051
:103C8000EC0000200000A543040100200000A5C3B3
:103C9000F8000020F40000200801002031480068EE
:103CA0004FF4B471484300EE100AB8EEC00A2E4833
:103CB000D0ED000A30EE200A87ED000A2B4890ED87
:103CC000000A2B4880ED000A2A4890ED090A27488F
:103CD00080ED000A90ED000A2548D0ED000A30EE94
:103CE000600A5FED180AB4EEE00AF1EE10FA05DBA7
:103CF00021480068401E2049086013E01B4890EDF1
:103D0000000A1B48D0ED000A30EE600A5FED210A80
:103D1000B4EEE00AF1EE10FA04D817480068401C2F
:103D200015490860154800684FF4B471484300EE27
:103D3000100AB8EEC00A1248D0ED000A30EE200A90
:103D400087ED010A0B4890ED100ADFED0E0A30EE08
:103D5000200A87ED020A90ED0F0A87ED000ABDE800
:103D6000F883000008010020F80000200001002076
:103D7000FC000020C02100200C01002004010020D4
:103D8000F0000020A470954030B5034605E013F81C
:103D9000010B80EA0204B348025D081EA1F1010193
:103DA000F5D1104630BD70B505460C4600260DB164
:103DB000022C01D8002070BD611EFF222846FFF7AB
:103DC000E3FF0646601E285CB04201D10120F2E705
:103DD0000020F0E770B505460C4600260DB1022C18
:103DE00000D870BD611EFF222846FFF7CDFF0646B2
:103DF000601E2E5400BFF4E730B5034613B94FF6EA
:103E0000FF7030BD09E013F8014B82EA0400C0B234
:103E1000954D35F8100080EA2222081EA1F101011B
:103E2000F1D11046EDE770B505460C4600260DB100
:103E3000022C01D8002070BDA11E8C4802882846A3
:103E4000FFF7DAFF0646F1B2A01E285C814206D1D8
:103E5000601E285CB0EB162F01D10120EBE700209B
:103E6000E9E770B505460C4600260DB1022C00D8D6
:103E700070BDA11E7D4802882846FFF7BDFF06469B
:103E8000A01E2E54310A601E295400BFF0E770B501
:103E900004460D4600260CB1022D01D8FF2070BD4E
:103EA000FF2229462046FFF76FFFF8E72DE9FC5F68
:103EB00005460F46092F01D8BDE8FC9F0024A14606
:103EC000CBE015F804A0601C295CA01C285C41EA2A
:103ED0000026601D295CA01D285C41EA002B2819E2
:103EE00000F1070828190168009100798DF8040095
:103EF00006F109001FFA80F9BAF1A50F77D1052163
:103F00006846FFF750FF002871D028194946FFF78F
:103F10008AFF0028F8D0BBF5017F6AD012DC40F29E
:103F20000311ABEB01008B452BD006DCBBF1010F7D
:103F30001AD0BBF1030F74D11CE0FE2828D0FF2853
:103F40006FD14BE0BBF5027F6DD006DCABF20620F3
:103F5000002856D001287BD15AE0ABF2013000286E
:103F600068D0022874D16CE032464146404804F0E3
:103F7000D8F96EE0324641463D480C3004F0D1F9A4
:103F800067E0324641463A48363004F0CAF960E00C
:103F90001B2E22D1324641463548393004F0C1F952
:103FA000334890F83900012809DB314890F839008E
:103FB000072804DC02202E4981F8C5000DE02C48BA
:103FC00090F839000B2808DB294890F839001128AF
:103FD00003DC0120264981F8C5003AE0102E05D106
:103FE000324641462248543004F09BF931E031E03A
:103FF000FFE7012E04D198F800001D4981F87400F4
:1040000027E0324641461A48763004F08AF920E02B
:10401000072E05D1324641461548773004F081F924
:1040200017E015E0FFE73246414611487E3004F0C4
:1040300078F90EE0324641460D48843004F071F9BB
:1040400007E0324641460A48AC3004F06AF900E025
:1040500000BF00BF04EB090084B2A7423FF731AFB5
:1040600000BF29E721A0000822A1000810010020BC
:104070000822002010B503463BB1087838B901206A
:1040800008701078401C107001E000200870107853
:1040900000EBD0746410A0EB44040CB9002010BDF8
:1040A0000120FCE7CB8A03400BB1012300E0002391
:1040B0001370704710B5044604F128022146012010
:1040C000FFF7F0FF04F1290221460420FFF7EAFF81
:1040D00004F12A0221460220FFF7E4FF04F12B023B
:1040E00021460820FFF7DEFF04F12C0221461020B4
:1040F000FFF7D8FF04F12E0221462020FFF7D2FF60
:1041000004F12F0221464020FFF7CCFF04F13002DA
:1041100021468020FFF7C6FF04F1310221464FF40B
:104120008070FFF7BFFF04F1320221464FF40070A8
:10413000FFF7B8FF04F1330221464FF48060FFF728
:10414000B1FF04F1340221464FF40060FFF7AAFFEB
:1041500004F12D0221464FF48050FFF7A3FF04F134
:10416000350221464FF40050FFF79CFF04F1360260
:1041700021464FF48040FFF795FF04F137022146B6
:104180004FF40040FFF78EFF94F82800914A9249BF
:10419000FFF770FF382108552921085D8F4A9049A3
:1041A000FFF768FF392108552A21085D8D4A8E499D
:1041B000FFF760FF3A2108552B21085D8B4A8C4997
:1041C000FFF758FF3B2108552C21085D894A8A4991
:1041D000FFF750FF3C2108552E21085D874A88498A
:1041E000FFF748FF3E2108552F21085D854A864983
:1041F000FFF740FF3F2108553021085D834A84497D
:10420000FFF738FF402108553121085D814A824976
:10421000FFF730FF412108553221085D7F4A804970
:10422000FFF728FF422108553321085D7D4A7E496A
:10423000FFF720FF432108553421085D7B4A7C4964
:10424000FFF718FF442108552D21085D794A7A4966
:10425000FFF710FF3D2108553521085D774A784961
:10426000FFF708FF452108553621085D754A764954
:10427000FFF700FF462108553721085D734A74494E
:10428000FFF7F8FE4721085510BD817AC176017FFE
:10429000C27E891A4177C27E0277417F01290ED101
:1042A000016A491C0162016A01EBD1725210A1EB53
:1042B000420212B90022827701E001228277417F17
:1042C00002290ED1416A491C4162416A01EBD17257
:1042D0005210A1EB420212B90022C27701E0012282
:1042E000C2777047C17A012901D1817608E0C17A8D
:1042F000032901D1817603E0C17A022900D18176B8
:10430000704730B504460D46122D00D030BD04B9BB
:10431000FCE72078617840EA0120C0F30A004D49AB
:1043200008806078C010A17840EA4110C0F30A000C
:1043300048494880A0788011E17840EA81002179DD
:1043400040EA8120C0F30A00424988802079401069
:10435000617940EAC110C0F30A003E49C880207C60
:10436000617C40EA0120C0F30A003A490881607983
:104370000011800888726079C0F30110C872A079BA
:10438000E17940EA012000B232498881207A617ADD
:1043900040EA012001B22F48C181A07AE17A40EAC7
:1043A000012001B22B480182217B0175617B41759F
:1043B000A07BE17B40EA01202649C8820846FFF73E
:1043C00091FF2448FFF761FF2248FFF773FE00BF0B
:1043D0009CE70000130100201201002015010020BD
:1043E00014010020170100201601002019010020EF
:1043F000180100201B0100201A0100201D010020CF
:104400001C0100201F0100201E01002021010020AE
:10441000200100202301002022010020250100208E
:10442000240100202701002026010020290100206E
:10443000280100202B0100202A0100202D0100204E
:104440002C0100202F0100202E010020310100202E
:1044500030010020CE22002010B504460448D0F8D8
:104460002600206019220349034800F02DFC10BDEE
:10447000AC2300202F2300203201002010B5044679
:1044800049480078022802D04748007810B9002037
:10449000207001E0012020704348B0F80F00A4F81C
:1044A000010041480079A4F80300404821680160F8
:1044B00021790171642100F065FD10BD70B50446DD
:1044C0000D462A222946204603F02BFF70BD0A68BC
:1044D000A2F22312062A2ED2DFE802F0030A1118F4
:1044E0001F26D1F80B200260D1F80F20426023E094
:1044F000D1F80B208260D1F80F20C2601CE0D1F807
:104500000B200261D1F80F20426115E0D1F80B2099
:104510008261D1F80F20C2610EE0D1F80B20026257
:10452000D1F80F20426207E0D1F80B208262D1F867
:104530000F20C26200E000BF00BF704730B585B0F9
:1045400005460C4618480078022802D01648007824
:1045500010B90020207001E0012020701248B0F84E
:104560000F00A4F8010010480079A4F803000F48D8
:1045700021680160217901714FF4407000900020A2
:104580008DF808008DF8090008208DF80A002068D1
:10459000CDF80B0020798DF80F006946284601F010
:1045A0005FFC05B030BD000016230020482300202A
:1045B000F0B58BB004460D4616461F46012108464D
:1045C00002F0ACFC0121480602F0F1FC09220B21AB
:1045D000964802F090FA09220C21944802F08BFAD6
:1045E0004FF4C050099002208DF8280009A98F4887
:1045F00002F0F6F914208DF8040003208DF8050070
:1046000001208DF806008DF8070001A801F02BFAB3
:10461000874801F093FA06A801F0B4FB00208DF85A
:104620001E0001208DF81F0000208DF820008DF85D
:1046300021008DF822008DF823008DF81A708DF876
:104640001B008DF81C508DF81D40ADF8186006A9B0
:10465000774801F08CFA00208DF812008DF81300D5
:1046600001208DF814000020ADF80800ADF80A0014
:10467000ADF80C00ADF80E00ADF8100001208DF87B
:10468000150002A801F0FDFA01220221684801F09C
:10469000F7FD0BB0F0BD10B50121654801F058FEE3
:1046A00018B10121624801F0EEFE10BD00B585B0E1
:1046B00002215F4801F04CFE88B104215C4801F002
:1046C000E2FE5C495A4801F020FE6A460021584843
:1046D00001F0BBFC00BF6846FEF734FE00BF05B02A
:1046E00000BDF0B58BB004460D4616461F460121AD
:1046F000022002F013FC0121880602F058FC092276
:104700000C214D4802F0F7F909220D214A4802F028
:10471000F2F94FF44050029002208DF80C0002A9EB
:10472000454802F05DF940208DF8040003208DF823
:1047300005008DF8060001208DF8070001A801F0A2
:1047400092F93F208DF8040003208DF805008DF8C4
:10475000060001208DF8070001A801F084F9374810
:1047600001F0ECF908A801F00DFB00208DF82600FF
:1047700001208DF8270000208DF828008DF82900F1
:104780008DF82A008DF82B008DF822008DF823007B
:104790008DF824508DF82540ADF8206008A92748F1
:1047A00001F0E5F90E208DF81A0000208DF81B00AD
:1047B00001208DF81C000020ADF81000ADF81200AB
:1047C000ADF81400ADF81600ADF8180001208DF812
:1047D0001D0004A801F055FA01220221174801F03A
:1047E0004FFD0BB0F0BD10B50121144801F0B0FD34
:1047F00018B10121114801F046FE10BD00B585B089
:1048000002210E4801F0A4FD68B102210B4801F01D
:104810003AFE6A460021094801F017FC00BF6846CD
:10482000FEF7A2FD00BF05B000BD00000000024081
:1048300000640040080000320004024000680040AC
:104840001CB50121042002F069FB06200090012024
:104850008DF8040000208DF8060003208DF8050077
:1048600001208DF807006946074802F0B9F80621D3
:10487000054802F031F90421034802F02FF9022122
:10488000014802F02BF91CBD0008024010B596B09B
:1048900004460121022002F041FB0121880502F0BB
:1048A0003DFB0121102002F093FB07221146F8483E
:1048B00002F021F914A802F0DBF880201490022005
:1048C0008DF8540000208DF8550001208DF8570018
:1048D00014A9EF4802F084F8EE4803F0C5FA10A8D6
:1048E00003F08FFB10940020ADF84400ADF84600B3
:1048F0004FF48060ADF848000420ADF84A00002075
:10490000ADF84C0010A9E34803F015FB012240214B
:10491000E04803F045FCE04801F008FE684601F07D
:10492000D0FE4FF000600090DA48001D0190DB4897
:1049300002900020039040200490002005904FF446
:10494000806006900020079008904FF480700990D6
:1049500000020A9000200B900C900D900E9069467A
:10496000CD4801F085FE0022CC494031CA4801F013
:10497000E0FE0121C84801F0E8FE0121C64801F02F
:10498000B1FE25208DF83C0000208DF83D008DF80B
:104990003E0001208DF83F000FA801F064F80122CD
:1049A00040F22441BB4803F004FC0121B94803F064
:1049B0004AFB16B010BD10B540F22441B54803F0D3
:1049C00033FC002852D0B3480088B2488088B248EF
:1049D00001F0CBFE20BB0021AF4801F083FEB049BF
:1049E000AD4801F0F8FEAC4801F09FFEC0F1400078
:1049F000AC4908604020A849091D0860081F0068EC
:104A000040F40020091F08600121A34801F06AFE5C
:104A100000BFA448008881B2A048FFF772FC25E0DF
:104A200000219D4801F05EFE9D499B4801F0D3FEA8
:104A3000994801F07AFEC0F140009A490860402090
:104A40009549091D0860081F006820F40020091F0F
:104A500008600121904801F045FE00BF91480088A0
:104A600081B28E484030FFF74CFC00BF10BD10B53E
:104A700096B004460121480402F099FA0121084643
:104A800002F04CFA0121480502F048FA07220221FF
:104A9000854802F030F807220321834802F02BF802
:104AA0000C20149002208DF8540003208DF855003E
:104AB00001208DF8570014A97B4801F091FF7B4835
:104AC00003F0D2F910A803F09CFA10940020ADF87E
:104AD0004C000C20ADF84A000020ADF84800ADF8BD
:104AE0004600ADF8440010A9704803F024FA0122F2
:104AF00080216E4803F054FB6D4801F017FD19202A
:104B000005904FF0006001904020049000200C9030
:104B10000D906848039000200E9009904FF480603B
:104B2000079000200A906148001D029000200F901D
:104B3000089006904FF480300B9001A95C4801F07A
:104B400097FD01215A4801F0CDFD0122402157482F
:104B500003F026FB01A801F0B4FD2020059080059C
:104B60000190002004900C900D9053480390002079
:104B70000E9009904FF48060079000200A904B48F7
:104B8000001D029000200F90089006904FF4803096
:104B90000B9001A94648183801F06AFD01214448EC
:104BA000183801F09FFD4FF4A06000F057FF262059
:104BB0008DF8000001208DF8030000208DF8010021
:104BC0008DF80200684600F04EFF012240F22441B9
:104BD000364803F0EEFA0121344803F034FA16B0F7
:104BE00010BD10B540F22441304803F01DFB30B336
:104BF0002E4800882D48001D008800BF19222E492C
:104C00002E4803F08EFB00BF00212948183801F020
:104C100069FD00BF2648183801F0B1FD0028F9D120
:104C200027492348183801F0D6FD20212048603854
:104C300001F079FD01211E48183801F053FD10BD27
:104C400070B504460D46164619222146194803F050
:104C500068FB00BF1B49164801F0A1FD0028F9D0F0
:104C60001849134801F0B7FD0021114801F03AFD41
:104C700000BF0F4801F083FD0028FAD119210C482C
:104C800001F051FD01210A4801F02CFD70BD00002A
:104C9000000402400010014040640240002800204F
:104CA000000030103C0100200000024000440040A1
:104CB000A06002402F23002080280020162300201F
:104CC000000C00200000202070B504460D4616465A
:104CD000FE482168016000BFFD49FE4801F05FFD0C
:104CE0000028F9D0FA49FB4801F075FD0021F94888
:104CF00001F0F8FC00BFF74801F041FD0028FAD1AF
:104D00001921F44801F00FFD0121F24801F0EAFCFD
:104D100070BD10B596B004460121022002F0FEF8E5
:104D20000121880402F043F90121480502F0F6F858
:104D300007220A21E84801F0DEFE07220B21E6489F
:104D400001F0D9FE02208DF8440003208DF84500C3
:104D500000208DF8460001208DF847008002109059
:104D600010A9DD4801F03CFE4FF40060109010A93E
:104D7000D94801F035FE27208DF8000002208DF87B
:104D8000010001208DF802008DF80300684600F054
:104D90006AFE12940020ADF84C00ADF84E00ADF85C
:104DA0005000ADF854000C20ADF8520012A9CB48C9
:104DB00003F0C1F8012240F22441C84803F0F9F998
:104DC0005021C64803F027FAC54803906420059097
:104DD00000200C900D900E9009904FF48060079089
:104DE00080100A90BD48001D029000200F9008908E
:104DF00006904FF400300B90800201900020049048
:104E000001A9B448783801F033FC0121B148783861
:104E100001F068FC01224021B04803F0C1F90122F1
:104E20008021AE4803F0BCF90021AA48483801F0BF
:104E300059FCA848483801F079FB00BFA54848381C
:104E400001F09DFC0028F9D14FF000600190A348CB
:104E5000001D0290A348039040200490002005907C
:104E600006904FF4806007900020089009900A9007
:104E70004FF480300B9000200C9003200D90002008
:104E80000E900F9001A99348483801F0F1FB0E20D5
:104E90008DF8000002208DF8010001208DF802003D
:104EA0008DF80300684600F0DEFD012210218948DC
:104EB000483801F0A4FC0121884803F0C4F816B07A
:104EC00010BD10B5002440F22441844803F0ACF931
:104ED00008B3824803F0E6F840F224417F4803F02B
:104EE000DEF900217B48783801F0FCFB00224021EC
:104EF0007A4803F055F900BF79497B48FFF7DEFA9D
:104F000000BF01224021754803F04AF90121714890
:104F1000783801F0E7FB10BD10B54FF0C0516D4877
:104F2000483801F03CFC50B100216A48483801F093
:104F3000D9FB4FF0C0516748483801F04CFC10BD18
:104F400070B504460D460021204601F0CBFB00BFA2
:104F5000204601F014FC0028FAD12946204601F031
:104F6000E2FB0121204601F0BDFB70BD70B5044697
:104F700000255C4D05F8014B012156484838FFF7E4
:104F8000DFFF70BD2DE9F04105460E4600240027E5
:104F9000544F00BF03E0285D3855601C84B2B44212
:104FA000F9DB31464B484838FFF7CAFFBDE8F081CE
:104FB00010B596B004460121042001F0AFFF012195
:104FC000C80401F0F4FF08220A21484801F093FDCB
:104FD00008220B21454801F08EFD0121480501F012
:104FE0009DFF4FF44060109002208DF84400002097
:104FF0008DF8460003208DF8450001208DF847000C
:1050000010A93A4801F0ECFC12940020ADF84C00D5
:10501000ADF84E00ADF850000C20ADF85200002065
:10502000ADF8540012A9324802F085FF0122402158
:105030002F4803F0B5F82748603801F077FA684642
:1050400001F03FFB4FF0006000902948001D0190E7
:1050500028480290002003906420049000200590CE
:105060004FF48060069000200790089009904FF45C
:1050700080300A9000200B900C900D900E906946A5
:105080001448603801F0F4FA01211248603801F048
:1050900029FB34208DF83C0003208DF83D008DF86D
:1050A0003E0001208DF83F000FA800F0DCFC01223B
:1050B00080210F4803F074F800210648303801F0D1
:1050C00011FB0448303801F031FA15E02F2300209D
:1050D00000002020A0600240000402400048004080
:1050E000A0280020CC290020AC230020000802408A
:1050F000004C00400429002000BFFB4801F03FFBAA
:105100000028FAD14FF000600090F8480190F8486C
:105110000290402003900020049005904FF480609E
:10512000069000200790089009904FF480300A9074
:1051300000200B9003200C9000200D900E906946EB
:10514000E94801F095FA0F208DF83C0003208DF816
:105150003D008DF83E0001208DF83F000FA800F0C3
:1051600082FC01221021E04801F049FB012240F2BB
:105170002441DE48001F03F01CF80121DB48001F1A
:1051800002F061FF16B010BD10B5002440F22441BA
:10519000D648001F03F048F808B3D448001F008821
:1051A000D24800880021D048303801F09BFAD1491C
:1051B000CD48303801F00FFBCB48303801F0B5FA5C
:1051C000C0F16400C4B200BF00BF6421C6483038DB
:1051D00001F0A9FA0121C448303801F083FA10BD6A
:1051E00070B504460D462946204601F09CFA01217F
:1051F000204601F077FA70BD10B5BF49BA4801F0FA
:10520000CEFA38B10021B84801F06CFABA49B64874
:1052100001F0E1FA10BD70B504460025B44D05F863
:10522000014B0121B048FFF7DBFF70BD2DE9F041D4
:1052300005460E4600240027AD4F00BF03E0285D61
:105240003855601C84B2B442F9DB3146A648FFF7FA
:10525000C7FFBDE8F08110B596B0044601210420D7
:1052600001F05CFE0121082001F058FE0121080533
:1052700001F09DFE0121480501F050FE02208DF84D
:10528000540000208DF856004FF4805014900120F7
:105290008DF8570003208DF8550014A9974801F0A8
:1052A0009FFB02208DF8540000208DF8560004204A
:1052B000149001208DF8570003208DF8550014A993
:1052C0008F4801F08DFB08220C218C4801F013FC63
:1052D000082202218A4801F00EFC10940020ADF84B
:1052E0004C000C20ADF84A000020ADF84800ADF8A5
:1052F0004600ADF8440010A9824802F01CFE0121CE
:10530000804802F0A0FE012240217E4802F048FFC2
:10531000684601F0D6F97C4802904FF40070049082
:10532000800400907748001D0190002003900590B4
:105330004FF48060069000200890079009904FF489
:1053400080300A9000200B900C900D900E906946D2
:105350006548603801F08CF901216348603801F03C
:10536000C1F9002269496048603801F0E2F9012181
:105370005D48603801F0E9F935208DF83C000120E6
:105380008DF83F008DF83D0002208DF83E000FA8FB
:1053900000F069FB012240F224415A4802F009FF63
:1053A0000121584802F04FFE01228021554802F0A9
:1053B000F7FE00214C48483001F094F94A48483043
:1053C00001F0B4F800BF4848483001F0D8F900288F
:1053D000F9D14FF0006000904A48001D01904C4800
:1053E00002904020039096200490002005904FF4F6
:1053F0008060069000200790089009900A900B901A
:1054000003200C9000200D900E90694636484830DD
:1054100001F02EF901213448483001F063F92F20C2
:105420008DF83C0002208DF83D0001208DF83E00F3
:105430008DF83F000FA800F016FB16B010BD70B538
:1054400004460D460021204601F04CF900BF2046DD
:1054500001F095F90028FAD12946204601F063F9B8
:105460000121204601F03EF970BD10B540F2244103
:10547000244802F0D9FE002875D02248008821482F
:1054800080881948603801F070F958BB002116482F
:10549000603801F027F91F491348603801F09BF983
:1054A0001148603801F041F9C0F500701A490860F0
:1054B0004FF400710C48603801F035F94FF40022C8
:1054C00012490948603801F04BF90121064860385B
:1054D00001F008F900BF1048008881B20A48FEF7C1
:1054E000E5FC40E01AE0000070600240044C00401F
:1054F000302A002000003010200000200008024068
:10550000000C024000500040002400200026002033
:10551000942A0020300000104001002000216C4837
:1055200001F0E0F86B496A4801F055F9684801F06C
:10553000FCF8C0F50070684908604FF400716448D9
:1055400001F0F1F800226549614801F009F90121F3
:105550005F4801F0C7F800BF5F48008881B260482B
:10556000FEF7A4FC00BF10BD00B597B001210420D8
:1055700001F0D4FC0121880501F0D0FC012120209C
:1055800001F026FD08220621564801F0B4FA08224F
:105590000721544801F0AFFAC020119002208DF885
:1055A000480000208DF84A0002208DF849000020B4
:1055B0008DF84B0011A94B4801F012FA4A4802F04D
:1055C00053FC4FF4E13013900020ADF85000ADF8DB
:1055D0005200ADF854000C20ADF856000020ADF894
:1055E000580013A9404802F0A6FC012240213E4881
:1055F00002F0D6FD3D4800F099FF4FF02060019089
:105600003948001D02903A4803900020049064201D
:105610000590002006904FF48060079000200890CD
:1056200009900A904FF480300B9000200C900D9060
:105630000E900F9001A92D4801F01AF801212B4876
:1056400001F050F847208DF8400003208DF841000C
:105650008DF8420001208DF8430010A800F003FAF5
:10566000012240F22441204802F0A3FD01211E48FE
:1056700002F0E9FC17B000BD10B540F224411A4811
:1056800002F0D2FD18B3184800881748001D0088A2
:105690000021164801F026F81649144801F09BF83D
:1056A000124801F042F8C0F164001349086000BFDD
:1056B0000846027811490E48FEF7C2F800BF64217F
:1056C0000A4801F030F80121084801F00BF810BD3C
:1056D0001060024030000010400100200024002033
:1056E0000026002000080240001401402864024007
:1056F00068290020000C00104401002078180020C8
:105700000EB50121022001F063FC4FF0FF30019043
:10571000A720ADF800000020ADF80800ADF80200A9
:105720000121C84801F066FE6946C64801F0F7FD50
:105730000121C44801F05EFE00221146C14801F07B
:105740002BFE0121BF4801F03DFE0121BD4801F0C3
:105750006FFE0EBD1FB50121042001F028FC1C20A6
:105760008DF8000000208DF8010002208DF8020065
:1057700001208DF80300684600F075F94FF0FF3006
:1057800002905320ADF804000020ADF80C00ADF8F5
:1057900006000121880701F02DFE01A94FF080408D
:1057A00001F0BDFD0121880701F042FE1FBD1FB5BC
:1057B0000121022001F0FBFB1D208DF800000020DC
:1057C0008DF8010002208DF8020001208DF8030001
:1057D000684600F048F94FF0FF300290A720ADF87E
:1057E00004000020ADF80C00ADF806000121964839
:1057F00001F000FE01A9954801F091FD01219248B8
:1058000001F016FE012211468F4802F029FA01210B
:105810008D4802F039FA1FBD0EB50121042001F0B8
:10582000C6FB4FF0FF3001905320ADF80000002080
:10583000ADF80800ADF802000121844801F0DAFD5E
:105840006946824801F06BFD0EBD1FB5012108209D
:1058500001F0ADFB32208DF8000000208DF8010032
:1058600002208DF8020001208DF80300684600F048
:10587000FAF84FF0FF300290A720ADF804000020A6
:10588000ADF80C00ADF806000121714801F0B2FD41
:1058900001A96F4801F043FD01216D4801F0C8FDE9
:1058A000012211466A4802F0DBF90121684802F042
:1058B000EBF91FBD10B50121880702F0E8F948B1E6
:1058C0000121880702F0F4F90121880702F0DCF9D0
:1058D00000BF00BF10BD10B501215B4802F0D7F931
:1058E00038B10121584802F0E3F90121564802F08D
:1058F000CBF910BD10B50121544802F0C8F948B1E8
:105900000121524802F0D4F90121504802F0BCF9BB
:1059100000BF00BF10BD10B501214D4802F0B7F91E
:1059200048B101214A4802F0C3F90121484802F078
:10593000ABF900BF00BF10BD1FB50121102001F061
:1059400036FB36208DF8000003208DF80100022080
:105950008DF8020001208DF80300684600F083F8FE
:105960005320ADF804000020ADF80600ADF80C009F
:1059700040F2E730029001A9364801F0D0FC012145
:10598000344801F055FD01221146324802F068F911
:105990000121304802F078F91FBD1FB50121102008
:1059A00001F005FB37208DF8000003208DF8010081
:1059B00002208DF8020001208DF80300684600F0F7
:1059C00052F85320ADF804000020ADF80600ADF801
:1059D0000C0040F2E730029001A91F4801F09FFC43
:1059E00001211D4801F024FD012211461A4802F050
:1059F00037F90121184802F047F91FBD10B5012100
:105A0000144802F044F958B10121124802F050F94B
:105A10000121104802F038F900BFFAF71FFD00BF5E
:105A200010BD10B501210C4802F031F948B1012137
:105A3000094802F03DF90121074802F025F900BFAD
:105A400000BF10BD000401400004004000080040F9
:105A5000000C004000100040001400403249014397
:105A6000324A1160704770B5002100230F22C478BC
:105A70001CB32E4C246804F4E064C4F5E064C4F361
:105A80000721C1F10404E3B20A4144789C40E1B229
:105A90008478144021430C07210E254C057861556C
:105AA000047804F01F050124AC4005786D11AD00A9
:105AB00005F1E025C5F8004109E0047804F01F0570
:105AC0000124AC401B4D0678761145F8264070BD88
:105AD000194A0A400243154B1B1F1A60704739B11F
