:020000040800F2
:10000000482F0020E5850008BD010008BF01000859
:10001000C3010008C7010008CB0100080000000070
:10002000000000000000000000000000CF010008F8
:10003000D101000800000000D3010008D50100082C
:10004000FF850008FF850008FF850008FF85000880
:10005000FF850008FF850008FF850008FF85000870
:10006000FF850008FF850008FF850008FF85000860
:10007000FF850008FF85000841520008215500084F
:10008000FF850008FF850008FF850008BF490008BC
:10009000D5490008FF850008FF850008FF85000896
:1000A000FF850008FF850008FF850008FF85000820
:1000B000DD5B0008FF5B00081D5C0008FF85000891
:1000C000FF850008FF850008FF850008FF85000800
:1000D000FF850008DF4C00080B4F0008EB510008BB
:1000E000FF850008FF850008FF850008FF850008E0
:1000F000FF850008FF850008FF850008FF850008D0
:10010000FF850008FF8500083F5C0008FF850008A8
:10011000B154000893570008255D00084B5D0008A6
:10012000FF850008FF850008FF850008FF8500089F
:10013000FF850008FF850008FF8500080F4B0008B9
:10014000254B0008FF850008FF850008FF85000893
:10015000FF850008FF850008FF850008A1590008F9
:10016000FF850008FF850008FF850008FF8500085F
:10017000FF850008FF850008FF850008FF8500084F
:10018000FF850008FF850008DFF810D008F016FE94
:1001900000480047A1010008AFF30080482F00206D
:1001A00000F022F900F0D6F904E003480068401C92
:1001B00001490860F9E7000000000020704700BF17
:1001C000FEE700BFFEE700BFFEE700BFFEE77047A7
:1001D00070477047704700000CB5002001900090F8
:1001E0007648006840F480307449086000BF734866
:1001F000006800F4003000900198401C01900098C5
:1002000018B90198B0F5A06FF1D16C48006800F4FE
:10021000003010B10120009001E000200090009813
:10022000012846D165484030006840F0805063495D
:10023000403108606248006840F44040604908600E
:100240005E48083000685D4908310860084600686B
:1002500040F4004008600846006840F4A050086080
:100260005848091F0860081F006840F08070091F87
:10027000086000BF5148006800F000700028F9D005
:1002800040F20570504908604C480830006820F082
:1002900003004A49083108600846006840F002003F
:1002A000086000BF45480830006800F00C000828CE
:1002B000F8D10CBD10B54548006840F470004349C2
:1002C00008603E48006840F001003C49086000209A
:1002D0003A4908310860394800683D4908403749C3
:1002E00008603C48091D0860081F006820F4802051
:1002F000091F0860002031490C310860FFF76CFFCE
:100300004FF0006031498039086010BD70B50020A1
:100310000022022300240221284D08352D6805F013
:100320000C0020B1042806D0082834D107E02A4D5B
:100330002A4E356033E02A4D284E35602FE01F4DA0
:100340002D1D2D68C5F380541C4D2D1D2D6805F005
:100350003F0154B1224DB5FBF1F5184E361D3668FC
:10036000C6F3881605FB06F209E01B4DB5FBF1F557
:10037000124E361D3668C6F3881605FB06F20F4D81
:100380002D1D2D68C5F301456D1C6B00B2FBF3F507
:10039000124E356003E0104D104E356000BF00BFB7
:1003A000064D08352D68C5F303150E4E705D0B4DD7
:1003B0002D68C540094E356070BD00000038024010
:1003C0000070004008544007003C024088ED00E007
:1003D000FFFFF6FE103000240024F400040000208B
:1003E00000127A000800002010B54FF4A06005F05C
:1003F000C9FC04F0B9FB184804F0DCFB4FF4E13011
:1004000004F0C9FC4FF4E13004F017FE4FF4E13082
:1004100004F062FF4FF4165005F0B1F805F038FA19
:10042000002303220821104604F056FA0023032279
:100430000821104604F0E9FA05F020FB05F04BFB1B
:1004400005F07EFB05F095FB05F00AFC05F039FC94
:1004500005F0EAFA10BD0000A086010008B5414889
:100460000068401C3F490860086800EBD0714910E3
:10047000A0EB410109B902F0E2FC3A48006803210F
:1004800090FBF1F201FB1200B8B93748B0F92E0029
:1004900000903548B0F92C30B0F92A20B0F9281076
:1004A000324803F059FA3048B0F92E0000231A46BA
:1004B000194600902E4803F04FFA2A49086800EBCD
:1004C000D0714910A0EB410101290DD12648B0F9A6
:1004D000260000902448B0F92430B0F92220B0F969
:1004E0002010224803F0ACFA1E480068142190FB4B
:1004F000F1F201FB120010B91E4804F059F9194835
:1005000000680A2190FBF1F201FB120010B91A48B1
:1005100004F03CF9134800684FF47A7190FBF1F253
:1005200001FB120038B90421144806F06BFC0221CB
:10053000124806F067FC0B4800684FF4FA6190FB24
:10054000F1F201FB1200012803D104210B4806F04F
:1005500057FC08BD10B500200249086000F010F8F3
:1005600010BD000018000020D801002000680040E5
:1005700000640040520100204E01002000080240AB
:1005800010B5A821FE4808F087F80120FC4908733F
:10059000002048730864B1EE041ADFEDFA0AB2EEE7
:1005A000000A0A234FF4FA520321F74802F0F9FF38
:1005B000B2EE041ADFEDF30A9FEDF40A4FF4FA737A
:1005C00043F698220321F24802F0EBFFB1EE041A41
:1005D000DFEDEC0AB2EE000A0A234FF4FA520321CF
:1005E000E9484C3002F0DDFFB1EE001ADFEDE50A1C
:1005F0009FEDE60A4FF4FA7343F698220321E4488C
:100600004C3002F0CEFFB1EE001ADFEDDE0AB2EEA2
:10061000000A0A234FF4FA520321DB48983002F013
:10062000C0FFB2EE001AF6EE000A9FEDD80A4FF4B2
:10063000FA7343F698220321D548983002F0B1FFAF
:10064000B1EE001ADFEDD30AB2EE000A0A234FF42E
:10065000FA520321CC48E43002F0A3FFB3EE041AAF
:10066000DFEDC80A9FEDC90A4FF4FA7343F69822EA
:100670000321C748E43002F094FF002414E004EBA7
:10068000440101EB0411C44A02EB81009FEDC31A3F
:10069000DFEDC20A9FEDC20A4FF47A6343F6982257
:1006A000032102F07EFF641C042CE8DB9FEDBD1AE1
:1006B000DFEDBA0A9FEDBC0A0A234FF47A620321E8
:1006C000BA4802F06EFF10BD00B52DED0A8B89B05F
:1006D000B0EE409A002022E000EB400101EB001157
:1006E000AD4A02EB810191ED000A00EB400101EB04
:1006F000001102EB8101D1ED020A70EE200AA0493F
:10070000983131F9101000EE101AB8EEC00A20EE40
:10071000800A05A901EB800181ED000A401C042834
:10072000DADB002046E000EB400101EB00119A4AC1
:1007300002EB810191ED090A00EB400101EB001190
:1007400002EB8101D1ED000AB1EE601A8C49A031B3
:1007500031F9101000EE901AF8EEE00A01EE200ACE
:1007600000EB400101EB001102EB810191ED021A57
:100770008349A03131F9101000EE901AF8EEE00A2A
:1007800001EE600A00EB400101EB001102EB810178
:10079000D1ED020A00EB400101EB001102EB8101F7
:1007A00091ED061A00EEC10A01A901EB800181ED6D
:1007B000000A401C0428B6DB9DED050A20EE000A65
:1007C000DDED060A9DED061A00EE810ADDED070A51
:1007D0009DED071A00EE810ADDED080A9DED081A6D
:1007E00000EE810ADFED720A20EE208A9DED050AF7
:1007F000DDED010A20EE200ADDED060A9DED021A6C
:1008000000EE810ADDED070A9DED031A00EE810A74
:10081000DDED080A9DED041A00EE810ADFED650AA0
:1008200020EE200ADDED050A9DED061A70EE810A24
:100830009DED071A70EE810A9DED081A70EE810A8F
:100840009FED5D1A01EE200A9DED051A4C48B0F9A6
:10085000A00000EE900AF8EEE00A61EE200ADDED5D
:10086000061A4748B0F9A20001EE100AB8EEC11A04
:1008700041EE810ADDED071A4148B0F9A40001EE0E
:10088000100AB8EEC11A41EE810ADDED081A3C48A3
:10089000B0F9A60001EE100AB8EEC11A41EE810AC5
:1008A0009FED461AF0EE408A41EE208A9DED010A46
:1008B00020EE000ADDED020A9DED021A00EE810A2B
:1008C000DDED030A9DED031A00EE810ADDED040A59
:1008D0009DED041A00EE810ADFED350A20EE200AB4
:1008E000DDED010A9DED021A70EE810A9DED031AFD
:1008F00070EE810A9DED041A70EE810A9FED2E1AAA
:1009000000EE810A9DED011A1D48B0F9A00000EE2D
:10091000900AF8EEE00A61EE200ADDED021A1848AE
:10092000B0F9A20001EE100AB8EEC11A41EE810A38
:10093000DDED031A1248B0F9A40001EE100AB8EE7A
:10094000C11A41EE810ADDED041A0D48B0F9A60086
:1009500001EE100AB8EEC11A41EE810A9FED171A96
:1009600001EE200ADFED160A30EE200A70EE499AF9
:1009700028EEA80AF1EE000A68EE200A22E0000044
:10098000D8010020CDCCCC3DCC1300200000484342
:100990002C160020CDCCCC3E5C17002000000000BF
:1009A0000000B4420000484200001644C00E00207F
:1009B00058DF2C3458DFAC346019C0B762BEBC3786
:1009C000FA7EEA3F00EEE90A10EE101A084608F037
:1009D0005EF841EC1C0B9FEDF80B53EC102B07F06D
:1009E00078FE41EC1B0BB0EE4B0AF0EE6B0A08F000
:1009F0007FFFB0EE40AAF0EE60AA51EC1A0B08F0AF
:100A000089F800EE100AF1EE680A70EE200AB0EEE6
:100A1000000A28EE001A80EE810A09B0BDEC0A8BAC
:100A200000BD10B52DED108B8CB0002498E0E4498A
:100A300031F9141001EE101AB8EEC11AF0EE410AA5
:100A4000DF49083131F9141001EE101AB8EEC11A5D
:100A5000B0EE410A04EB440101EB0411D94A02EB68
:100A6000810002F0A7FBD84800EB840080ED000A6B
:100A7000D54800EB840090ED000ADFEDD40AB4EE17
:100A8000E00AF1EE10FA07D89FEDD00ACE4800EB4D
:100A9000840080ED000A12E0CB4800EB840090ED6A
:100AA000000ADFEDCB0AB4EEE00AF1EE10FA06DB45
:100AB0009FEDC70AC44800EB840080ED000AC248DD
:100AC00000EB840090ED000A04EB440000EB0410FE
:100AD000BC4901EB8000D0ED040A20EE200ABD489D
:100AE000D0ED000A20EE200ABB4800EB840080ED28
:100AF000000AB54800EB840090ED000AB748D0ED3D
:100B0000000A20EE200AB04800EB8400D0ED000A75
:100B100020EE200AAC4800EB8400D0ED000AB0487B
:100B200090ED001A01EE200AAE48D0ED000A30EE3A
:100B3000200AAD4800EB840080ED000AA64800EBD7
:100B4000840090ED000AA84800EB8400D0ED000A74
:100B500030EE200AA54800EB840080ED000A641CFA
:100B6000042CFFF664AFA14890ED000AD0ED010A15
:100B700030EE200AD0ED020A30EE200AD0ED030A52
:100B800030EE200A9A4880ED000A90ED000AB5EE9A
:100B9000C00AF1EE10FA04D81FED800A80ED000AB9
:100BA0000DE0934890ED000ADFED920AB4EEE00A02
:100BB000F1EE10FA03DB9FED8F0A80ED000A8C48FE
:100BC00090ED000ABCEEC00A10EE100A8A490880B7
:100BD00008460088002802DC0020088015E08648CE
:100BE000008800EE100AB8EE400A8448D0ED000AF2
:100BF000B4EEE00AF1EE10FA07DB90ED000ABCEE6D
:100C0000C00A10EE100A7C4908807D4800887A49A5
:100C10000988401A7B490880754890ED000A77489A
:100C2000D0ED000AB4EEE00AF1EE10FA7EDD002409
:100C3000F6E06E4800EB840090ED000A6F48D0EDBE
:100C4000000A20EE200A6A48D0ED000A80EE201A41
:100C50006D4800EB840080ED001A644800EB8400CE
:100C600090ED000A5F48D0ED000AB4EEE00AF1EE24
:100C700010FA7CDD5D4800EB840090ED000A6248CC
:100C800000EB8400D0ED000AB4EEE00AF1EE10FAB9
:100C90006DDD524890ED000A08A800EB840080ED5D
:100CA000000A04EB440000EB0410464901EB80000D
:100CB000D0ED040A4A4890ED000A464890ED001A2B
:100CC00001EE200A04A800EB840080ED000A4E48E3
:100CD00000EB840090ED000A4248D0ED000A30EEAF
:100CE000C00A684600EB840080ED000A364800EB3D
:100CF000840090ED000A10EE101A084607F0C7FEB7
:100D000041EC190B08A800EB840090ED000AF0EE0E
:100D1000000A20EE200A10EE101A084607F0B7FE6F
:100D200041EC1B0B04A800EB840000E07CE090ED9C
:100D3000000A20EE000A08A800EB8400D0ED000AAB
:100D4000B1EE001A60EE810A684600EB840090ED77
:100D5000001A00EEC10A10EE101A084607F097FEBE
:100D600041EC1F0BB0EE4F0AF0EE6F0A00E04FE0CF
:100D700008F0BEFDB0EE40DAF0EE60DA04A800EB59
:100D8000840090ED000AB1EE400A10EE101A0846F9
:100D900007F07DFE53EC1D2B07F09BFC53EC1B2B47
:100DA00007F0B0FD53EC192B07F0ACFD07F0B2FED5
:100DB000164941F8240032E0000000000000F03F36
:100DC000400200202C1600203003002000401CC6EA
:100DD00000401C46940000204003002098000020A2
:100DE0009C000020A0000020500300206003002091
:100DF0008000002000007A4462000020740000207F
:100E00005E0000206000002070030020A00300208E
:100E1000B7EE000AFE4800EB840080ED000A641C77
:100E2000042CFFF606AF0BE0002007E0B7EE000A47
:100E3000F74901EB800181ED000A401C0428F5DB35
:100E4000002025E0F24901EB800191ED000AB5EEAA
:100E5000C00AF1EE10FA07D89FEDEE0AEC4901EB5B
:100E6000800181ED000A12E0E94901EB800191ED7A
:100E7000000AF7EE000AB4EEE00AF1EE10FA06DB23
:100E8000B7EE000AE24901EB800181ED000A401C47
:100E90000428D7DB0CB0BDEC108B10BDF0EE400A7F
:100EA000DD48007900EE100AB8EE400AB3EE001AF1
:100EB00020EE811AB4EEC10AF1EE10FA09DDD6482F
:100EC000007900EE100AB8EE400AD44880ED000A1E
:100ED00006E0B3EE000A20EE800AD04880ED000A5A
:100EE000CE4890ED000AB5EEC00AF1EE10FA04D833
:100EF0009FEDC80A80ED000A1EE0C748007900EEA9
:100F0000100AB8EE400AB3EE001A00EE810AC34898
:100F100090ED001AB4EEC10AF1EE10FA0CD8BE48FA
:100F2000007900EE100AB8EE400AB3EE001A00EEA7
:100F3000810ABA4880ED000AB7EE000AB84880ED91
:100F4000000AB64890ED000A704710B5B548D0F8D1
:100F5000260000EE100AF2EE0E0AB4EEE00AF1EE00
:100F600010FA13DDAF48D0F8260000EE100AFFF7A4
:100F700095FFAD4880ED000AFFF753FD9FEDAB0AEA
:100F8000FFF7A2FBAA4880ED000A1DE0A548D0F8B3
:100F9000260000EE100AFFF781FFA34880ED000A4B
:100FA000FFF73FFDA04890ED001AA248008800EE30
:100FB000900AF8EE600A71EE600AB0EE600AFFF780
:100FC00083FB9B4880ED000A954890ED000AB5EE42
:100FD000C00AF1EE10FA04D89FED8E0A80ED000AE7
:100FE0000DE08F4890ED000AF7EE000AB4EEE00A3B
:100FF000F1EE10FA03DBB7EE000A80ED000A8C4830
:1010000090ED000AB5EEC00AF1EE10FA04D89FED9B
:10101000810A80ED000A0DE0854890ED000AF7EEA8
:10102000000AB4EEE00AF1EE10FA03DBB7EE000AB4
:1010300080ED000A10BDDFED800AB4EEE00AF1EEAB
:1010400010FA06DBDFED7C0A70EE600AB0EE600A93
:101050000AE0B5EEC00AF1EE10FA05D2DFED760A2D
:1010600070EE200AB0EE600A704710B52DED0A8BC5
:10107000B0EE409AF0EE609AB0EE418A9FED6F0BB1
:1010800053EC102B51EC190B07F0CAFB41EC1C0B75
:101090009FED6C0B53EC102B07F0C2FB41EC1B0BCC
:1010A0009FED6A1BB0EE4B0AF0EE6B0A08F072FA85
:1010B000B0EE40AAF0EE60AA51EC1A0B07F02AFD40
:1010C00008EE100AB5EEC08AF1EE10FA05D29FEDD7
:1010D0005A0A38EE000AB0EE408A18EE100A07F0FD
:1010E000D6FC41EC100BBDEC0A8B10BD10B52DEDFC
:1010F000068BB0EE408AF0EE608A564890ED000A0A
:10110000F7EE000A30EE200A80ED000A18EE900A91
:1011100007F0BDFC41EC1A0B9FED4F0B53EC102B6D
:1011200007F07EFB41EC190B07F0F4FC4C4908601A
:10113000484890ED000A20EE080A4A4880ED000A6F
:10114000084690ED000A4748D0ED000A20EE200A3C
:1011500010EE101A084607F09AFC41EC1A0BB0EE9C
:101160004A0AF0EE6A0A08F097FAB0EE409AF0EEFA
:10117000609A51EC190B07F0CDFC3B4908603848E8
:1011800090ED000A3748D0ED000A20EE200A10EE5C
:10119000101A084607F07BFC41EC190B9FED330B4E
:1011A00053EC102B07F09EFC04D89FED1A0A2D4833
:1011B00080ED000A2C4890ED000ABDEC068B10BDB6
:1011C0009FED140A2B4880ED010A9FED120A80ED75
:1011D000000A9FED100A80ED020A9FED0E0A2648D4
:1011E00080ED120A704710B5234890ED130ADFED29
:1011F000230AB4EEE00AF1EE10FA41DB90ED130A97
:10120000DFED0D0A30EE600A80ED140A3DE00000CB
:10121000A0030020000000002E230020A8000020D2
:1012200070000020CA230020740000200000D24378
:101230006C00002062000020DB0FC94000000000AD
:101240000000F0BF000000A046DF913F00000060FA
:10125000FB211940D80000206E861BF0F9211940AF
:10126000E0000020D4000020DC0000201F85EB51AE
:10127000B81E1940D801002078010020DB0F49403A
:10128000FE4890ED130A80ED140AFD48B0F90C00F9
:1012900000EE100AB8EEC00AFA4880ED010AF848DC
:1012A000B0F90A0000EE100AB8EEC00AF54880ED69
:1012B000000AF3488078032805D11FED2A0AF24876
:1012C00080ED000A04E01FED2D0AEF4880ED000AD2
:1012D000EA48D0ED140AB0EE600AEB4890ED001A2F
:1012E0005FED340AE94801F001FEB1EE400AE3483F
:1012F00080ED120A10BDE248B0F90C0000EE100AB1
:10130000B8EEC00ADF4880ED010ADD48B0F90A00F6
:1013100000EE100AB8EEC00ADA4880ED000A1FEDB0
:10132000430AD64880ED120A704710B52DED0A8B9E
:10133000D24890ED130A5FED2F0AB4EEE00AF1EE09
:1013400010FA08DB90ED130A5FED450A30EE600AF3
:1013500080ED140A04E0C94890ED130A80ED140AE8
:10136000C748807803283CD1C64890ED000AB5EE06
:10137000C00AF1EE10FA34D190ED010AB5EEC00AC0
:10138000F1EE10FA2DD1C248008807F03BFB41EC8A
:10139000190BDFEDC00A9FEDC00AFFF7A7FE10EEA4
:1013A000104A204607F073FB41EC1C0B9FEDBB0B72
:1013B00053EC102B07F034FA41EC1B0B9FEDB90BEB
:1013C00053EC102B07F029FA41EC1A0B53EC192BB4
:1013D00007F026FA41EC180B07F040FBB3490880F0
:1013E00059E0B34890F83A00012803D14FF4FA705D
:1013F000AE490880AE4890F83A00022803D14FF475
:10140000FA70AA490880AA4890F83A00032803D144
:101410004FF4FA70A5490880A54890F83A000428CE
:1014200003D140F22620A1490880A14890F83A0053
:10143000052803D140F226209C4908809C4890F85A
:101440003A00062803D14FF416709849088098484E
:1014500090F83A00072803D14FF41670934908809A
:10146000934890F83A00082803D140F28A208F4927
:1014700008808F4890F83A00092803D14FF42F7064
:101480008A4908808A4890F83A000A2803D14FF424
:101490002F70864908807A48B0F90C0000EE100AD7
:1014A000B8EEC00A774880ED010A7548B0F90A0025
:1014B00000EE100AB8EEC00A724880ED000A407BC8
:1014C00007280DD07B48007818B9012079490870A9
:1014D00006E078480078012802D10020754908709C
:1014E0007448007850B971480088404200EE100AF4
:1014F000B8EEC00A614880ED120A0CE06D48007831
:10150000012808D16948008800EE100AB8EE400AA8
:101510005A4880ED120ABDEC0A8B10BD10B5584830
:10152000B0F90C0000EE100AB8EEC00A554880ED84
:10153000010A5348B0F90A0000EE100AB8EEC00ADA
:10154000504880ED000A4D4890ED130A5FEDC60A41
:10155000B4EEE00AF1EE10FA08DB90ED130A5FED4D
:10156000CA0A30EE600A80ED140A04E0434890EDA8
:10157000130A80ED140A4148D0ED140AB0EE600A57
:10158000414890ED001A5FEDDD0A404801F0AEFCE5
:101590003A4880ED120A10BD10B52DED108B37487A
:1015A00090ED140A444880ED000A00248EE1C4EB5B
:1015B000041101EB4101872202EB410007F011FA0F
:1015C0009FED3E0B53EC102B07F02AF99FED3D0BDE
:1015D00053EC102B07F096F941EC1D0BB0EE4D0AC1
:1015E000F0EE6D0A07F0C0FEB0EE40BAF0EE60BA61
:1015F000224890ED120A10EE101A084607F047FA3A
:1016000053EC1B2B07F00CF941EC190B2A4890ED19
:10161000000AB1EE400A10EE100A07F038FA41EC69
:101620001F0BB0EE4F0AF0EE6F0A08F035F8B0EE7F
:1016300040DAF0EE60DA134890ED010A10EE101A6D
:10164000084607F024FA53EC1D2B07F0E9F841ECAB
:101650001B0B194890ED000AB1EE400A10EE100A7B
:1016600007F015FA41EC1F0BB0EE4F0AF0EE6F0ACF
:1016700007F07AFEB0EE40DA28E0000078010020A2
:101680002E230020D801002030000020C00E0020B2
:10169000AC000020C3F5A83E6F12033B9A999999BC
:1016A0009999D93F9A9999999999014058000020A0
:1016B000202200205A000020E40000201F85EB516A
:1016C000B81E09400000000000806640F0EE60DABD
:1016D000FE4890ED000A10EE101A084607F0D7F900
:1016E00053EC1D2B07F09CF853EC1B2B07F092F8E2
:1016F00053EC192B07F08EF807F00CFAF44941F877
:101700002400C4EB041101EB41012D2202EB410046
:1017100007F067F91FED170B53EC102B07F080F85B
:101720001FED180B53EC102B07F0ECF841EC1D0BE0
:10173000B0EE4D0AF0EE6D0A07F016FEB0EE40BABC
:10174000F0EE60BAE34890ED120A10EE101A084667
:1017500007F09DF953EC1B2B07F062F841EC190BD5
:10176000DD4890ED000AB1EE400A10EE100A07F0D5
:101770008EF941EC1F0BB0EE4F0AF0EE6F0A07F046
:10178000F3FDB0EE40DAF0EE60DAD04890ED010AF9
:1017900010EE101A084607F07AF953EC1D2B07F0EB
:1017A0003FF841EC1B0BCC4890ED000AB1EE400A2B
:1017B00010EE100A07F06BF941EC1F0BB0EE4F0A68
:1017C000F0EE6F0A07F068FFB0EE40DAF0EE60DA94
:1017D000BE4890ED000A10EE101A084607F057F9BF
:1017E00053EC1D2B07F01CF853EC1B2B06F071FF7C
:1017F00053EC192B07F00EF807F08CF9B74941F8B4
:101800002400B34800EB840090ED000A10EE101A9B
:10181000084607F03CF941EC1B0BB04800EB840094
:1018200090ED000A10EE101A084607F030F941EC6E
:101830001C0BB0EE4B1AF0EE6B1AB0EE4C0AF0EE49
:101840006C0A07F091FCB0EE40AAF0EE60AA1FED22
:10185000630B53EC102B51EC1A0B06F0E1FF1FED5C
:10186000690B53EC102B07F04DF807F053F99C4926
:1018700041F82400994800EB840090ED000A20EE26
:10188000000A934800EB8400D0ED000A904800EB7A
:10189000840090ED001A00EE810A10EE101A08463E
:1018A00007F0F5F841EC190BB0EE490AF0EE690AC1
:1018B00008F01EF8B0EE408AF0EE608A51EC180B8A
:1018C00007F028F9874941F82400641C042CFFF62E
:1018D0006EAE00201AE0834901EB800191ED000A11
:1018E000BDEEC00A10EE101A0AB27A49403121F852
:1018F00010207B4901EB800191ED000A75492831E8
:1019000001EB800181ED000A411CC8B20428E2DB32
:10191000BDEC108B10BD30B52DED108B85B09FED5B
:10192000720AF0EE408A9FED700AB0EE408A9FED99
:101930006E0AB0EE40FA9FED6C0AF0EE40FA00201D
:101940000190029003900490624890ED140AB1EE69
:10195000400AB0EE409A5D48007B072813D16348E7
:101960000078012806D19FED620A39EE000AB0EE38
:10197000409A08E05D48007828B99FED5D0A39EE8D
:10198000400AB0EE409A0024DAE0B0EE68FAF0EED9
:1019900048FAB0EE490A07F04BFD4C48D0ED000A7A
:1019A00020EE20AAB0EE490A07F0DAFE4748D0ED53
:1019B000010A00EEC0AA00EE104AB8EE400ADFEDC0
:1019C0004D0A60EE200AB0EE001A80EE810ADFEDCB
:1019D0004A0A30EE200AF0EE409A07F029FD3D4811
:1019E000D0ED120A00EE80AAF0EE4A8AB0EE490A63
:1019F00007F0B6FE3548D0ED000A20EE20AAB0EE82
:101A0000490A07F015FD3148D0ED010A00EE80AA21
:101A100000EE104AB8EE400ADFED360A20EE200A4A
:101A2000B0EE001AC0EE010A9FED330A30EE800AD4
:101A3000F0EE409A07F094FE2648D0ED120A00EE30
:101A400080AAB0EE4A8A403030F9140000EE100A45
:101A5000B8EEC00A01A800EB840080ED000A28EE71
:101A6000A80A08EE080A10EE101A084607F00FF848
:101A700041EC1B0BB0EE4B0AF0EE6B0A07F038FF9F
:101A8000B0EE40AAF0EE60AA51EC1A0B06F0C7FFC8
:101A900001B21048403020F8141018EE900A06F0F9
:101AA000F6FF41EC1D0B18EE100A06F0F0FF41ECBA
:101AB0001E0BB0EE4D1AF0EE6D1AB0EE4E0AF0EEBF
:101AC0006E0A07F051FBB0EE40CA17E0D8010020C3
:101AD000E003002078010020E4000020F003002053
:101AE000C0030020D0030020000000005A000020A6
:101AF000920A863EDB0F4940DB0F49BFF0EE60CA19
:101B000051EC1C0B07F006F800EE100ADFEDFE0AA0
:101B100020EE200A10EE105A284606F0B8FF41ECDD
:101B20001B0B9FEDFA0B53EC102B06F0EBFE41EC78
:101B30001A0B06F0EFFFF74941F82400601CC4B20D
:101B4000042CFFF622AFF448C0ED008AF34880ED84
:101B5000008A05B0BDEC108B30BD10B5FFF7DBFE81
:101B600010BD10B52DED0C8BB0EE408AF0EE608A02
:101B7000B0EE419AF0EE619AE648283890ED120AEC
:101B8000B5EEC00AF1EE10FA28D090ED120A10EE70
:101B9000101A084606F07BFF41EC1D0BB0EE4D0A13
:101BA000F0EE6D0A07F0ECFCB0EE40BAF0EE60BA71
:101BB000D848283890ED090A10EE101A084606F0A9
:101BC00066FF41EC1C0B53EC1B2B06F09BFE41EC1B
:101BD0001A0B06F09FFFD249086004E01FED3E0A91
:101BE000CF4880ED000ACF4890ED000A07F0B8FD1D
:101BF000CB48D0ED000A20EE200A10EE104A204615
:101C000006F045FF41EC1B0B51EC180B81F0004135
:101C100041EC1D0B9FEDC40B53EC102B06F072FE34
:101C200041EC1C0B53EC1B2B06F053FD41EC1A0B43
:101C300006F070FFBE490860BA4890ED000A07F050
:101C40008FFDB748D0ED000A20EE200A10EE104AB2
:101C5000204606F01CFF41EC1B0B9FEDB30B53EC31
:101C6000102B51EC180B06F04DFE41EC1C0B53EC05
:101C70001B2B06F02EFD41EC1A0B06F04BFFAD4975
:101C80000860A84890ED000A07F0D2FBA448D0ED08
:101C9000000A20EE200A10EE104A204606F0F7FE59
:101CA00041EC1B0B51EC190B81F0004141EC1D0B79
:101CB0009FED9D0B53EC102B06F024FE41EC1C0B0A
:101CC00053EC1B2B06F005FD41EC1A0B06F022FF2E
:101CD00099490860934890ED000A07F0A9FB9048E5
:101CE000D0ED000A20EE200A10EE104A204606F041
:101CF000CEFE41EC1B0B9FED8C0B53EC102B51ECEB
:101D0000190B06F0FFFD41EC1C0B53EC1B2B06F0EE
:101D1000E0FC41EC1A0B06F0FDFE8849086088489B
:101D2000007B072827D18748007801280FD1794800
:101D3000283890ED080AD0ED130A30EE600ADFED86
:101D4000820A30EE600A774880ED000AC2E07D48E2
:101D5000007800280ED16F48283890ED080AD0EDA1
:101D6000130A30EE600ADFED780A30EE200A6D4883
:101D700080ED000AAEE06748283890ED140A5FED68
:101D8000A20AB4EEE00AF1EE10FA21DD90ED140A99
:101D9000DFED6E0AB4EEE00AF1EE10FA18D8D0EDDD
:101DA000140AB0EE600A5FEDB00A694801F002FA69
:101DB000B1EE400A5748283880ED120A90ED080A23
:101DC000D0ED130A30EE600A564880ED000A81E03B
:101DD0005048283890ED140ADFED5C0AB4EEE00AB2
:101DE000F1EE10FA25DD90ED140ADFED5A0AB4EE9B
:101DF000E00AF1EE10FA1CD8D0ED140AB0EE600A39
:101E0000DFED550A524801F0D5F9B1EE400A4148DC
:101E1000283880ED120A90ED080AD0ED130A30EE52
:101E2000600ADFED4E0A30EE200A3E4880ED000ADF
:101E300050E03848283890ED140ADFED460AB4EE39
:101E4000E00AF1EE10FA08DA90ED140ADFED440A28
:101E5000B4EEE00AF1EE10FA1ED22E482838D0ED8A
:101E6000130AB0EE600A5FEDDD0A394801F0A2F90D
:101E7000B1EE400A2748283880ED120A90ED080A92
:101E8000D0ED130A30EE600ADFED340A30EE200A9E
:101E9000244880ED000A1DE01E482838D0ED140AC1
:101EA000B0EE600ADFED2F0A294801F083F9B1EEA8
:101EB000400A1848283880ED120A90ED080AD0ED43
:101EC000130A30EE600ADFED250A30EE600A15488D
:101ED00080ED000A0F48283890ED080ADFED1E0A51
:101EE000B4EEE00AF1EE10FA45DB90ED080ADFED02
:101EF0001E0AB4EEE00AF1EE10FA3CD2094890ED69
:101F0000000ADFED150A31E0000034431F85EB5174
:101F1000B81E0940A0010020B0000020B40000203D
:101F200034000020380000200000000000000040C5
:101F3000C0000020C4000020C8000020CC00002009
:101F4000D80100205A0000205077563EDB0F493F51
:101F5000C00E0020E4CB1640DB0FC93FDB0FC940A9
:101F6000E4CB16C0DB0FC9BFDB0F494030EE600A7F
:101F700080ED000A38E0FE4890ED080A5FED060AA1
:101F8000B4EEE00AF1EE10FA12DB90ED080ADFED94
:101F9000F90AB4EEE00AF1EE10FA09D2F64890ED33
:101FA000000A5FED0F0A30EE600A80ED000A1BE0C8
:101FB000EF4890ED080ADFEDEF0AB4EEE00AF1EE2B
:101FC00010FA11DB90ED080A5FED1C0AB4EEE00A8E
:101FD000F1EE10FA08D2E84890ED000ADFEDE50ACC
:101FE00030EE600A80ED000AE44890ED000A20EE31
:101FF000000AE348D0ED000A90ED001A00EE810AD5
:1020000010EE101A084606F042FD41EC1B0BB0EE34
:102010004B0AF0EE6B0A07F06BFCB0EE40AAF0EE54
:1020200060AA51EC1A0B06F075FDD6494860D648F7
:1020300090ED000A20EE000AD148D0ED000A90EDA4
:10204000001A00EE810A10EE101A084606F01FFD75
:1020500041EC1A0BB0EE4A0AF0EE6A0A07F048FCAF
:10206000B0EE40BAF0EE60BA51EC1B0B06F052FD38
:10207000C4498860C44890ED000A20EE000AC348B5
:10208000D0ED000A90ED001A00EE810A10EE101A51
:10209000084606F0FCFC41EC1B0BB0EE4B0AF0EEE0
:1020A0006B0A07F025FCB0EE40AAF0EE60AA51ECF6
:1020B0001A0B06F02FFDB349C860B04890ED000A36
:1020C00020EE000AB148D0ED000A90ED001A00EEB3
:1020D000810A10EE101A084606F0D9FC41EC1B0BE1
:1020E000B0EE4B0AF0EE6B0A07F002FCB0EE40AA2D
:1020F000F0EE60AA51EC1A0B06F00CFDA149086045
:102100009E48006806F0C3FC41EC1B0B9C4800682D
:1021100006F0BDFC41EC1C0BB0EE4B1AF0EE6B1A56
:10212000B0EE4C0AF0EE6C0A07F01EF8B0EE40AAD2
:10213000F0EE60AA51EC1A0B06F0ECFC94494860F2
:102140009148006806F0A3FC41EC1B0B8C4800682A
:1021500006F09DFC41EC1C0BB0EE4B1AF0EE6B1A36
:10216000B0EE4C0AF0EE6C0A06F0FEFFB0EE40AAAC
:10217000F0EE60AA51EC1A0B06F0CCFC84498860A2
:102180008148006806F083FC41EC1B0B7F48006827
:1021900006F07DFC41EC1C0BB0EE4B1AF0EE6B1A16
:1021A000B0EE4C0AF0EE6C0A06F0DEFFB0EE40AA8C
:1021B000F0EE60AA51EC1A0B06F0ACFC7449C86052
:1021C0006E48006806F063FC41EC1B0B6F4800682A
:1021D00006F05DFC41EC1C0BB0EE4B1AF0EE6B1AF6
:1021E000B0EE4C0AF0EE6C0A06F0BEFFB0EE40AA6C
:1021F000F0EE60AA51EC1A0B06F08CFC6449086002
:102200005B4890ED080A5FEDAC0AB4EEE00AF1EE2F
:1022100010FA55DB90ED080A5FEDAD0AB4EEE00A66
:10222000F1EE10FA4CD2574890ED030A594880ED70
:10223000000A544890ED000A564880ED010A5148C2
:1022400090ED010A534880ED020A4E4890ED020AD3
:10225000504880ED030A084690ED030A4E4880ED91
:10226000000A084690ED000A4B4880ED010A084636
:1022700090ED010A484880ED020A084690ED020AF6
:10228000454880ED030A002018E0424901EB800137
:1022900091ED000A3B4901EB800181ED000A3E49C6
:1022A00001EB800191ED000A5FEDD50A30EE200AC6
:1022B000374901EB800181ED000A401C0428E4DB72
:1022C0002B4890ED080A5FEDD80AB4EEE00AF1EE73
:1022D00010FA6FDB90ED080ADFED260AB4EEE00A93
:1022E000F1EE10FA66D2274890ED020A294880EDF7
:1022F000000A244890ED030A264880ED010A21488F
:1023000090ED000A234880ED020A1E4890ED010A74
:10231000204880ED030A1E4890ED020A1E4880ED19
:10232000000A1B4890ED030A1B4880ED010A18487B
:1023300090ED000A184880ED020A154890ED010A58
:10234000154880ED030A002032E0124901EB8001BC
:1023500091ED000A0B4901EB800181ED000A0E4965
:1023600001EB800191ED000ADFED0C0A18E021E09D
:1023700078010020E4CB964038000020CC000020FB
:10238000C400002090020020C8000020C0000020EF
:10239000A0020020D0020020E0020020DB0F494014
:1023A00030EE200AFE4901EB800181ED000A401C5D
:1023B0000428CADBFB4890ED080A5FED120AB4EE70
:1023C000E00AF1EE10FA55DB90ED080ADFEDF60AAF
:1023D000B4EEE00AF1EE10FA4CD2F44890ED010AA6
:1023E000F34880ED000AF14890ED020AF04880EDD4
:1023F000010AEE4890ED030AED4880ED020AEB4831
:1024000090ED000AEA4880ED030AE54890ED010AE4
:10241000E84880ED000AE24890ED020AE54880EDC8
:10242000010ADF4890ED030AE24880ED020ADC4829
:1024300090ED000ADF4880ED030A002018E0DC4937
:1024400001EB800191ED000AD84901EB800181ED9B
:10245000000AD84901EB800191ED000A5FED3B0ACB
:1024600030EE200ACE4901EB800181ED000A401CCC
:102470000428E4DBCB4890ED120AB5EEC00AF1EE79
:1024800010FA4AD2C94890ED020AC94880ED000A04
:10249000C64890ED030AC64880ED010AC34890ED96
:1024A000000AC34880ED020AC04890ED010AC04806
:1024B00080ED030ABA4890ED020ABE4880ED000A9A
:1024C000B74890ED030ABB4880ED010AB44890ED8F
:1024D000000AB84880ED020AB14890ED010AB548FB
:1024E00080ED030A002016E0B14901EB800191ED77
:1024F000000AB1EE400AAD4901EB800181ED000A0E
:10250000AC4901EB800191ED000AA54901EB800186
:1025100081ED000A401C0428E6DBA24890ED120A77
:10252000B5EEC00AF1EE10FA37D1A34890ED000ADB
:10253000B5EEC00AF1EE10FA06D190ED010AB5EE43
:10254000C00AF1EE10FA28D0B7EE000A974880EDE5
:10255000000AB7EE000A80ED010AB7EE000A80ED2E
:10256000020AB7EE000A80ED030A8E4890ED140AC5
:102570008B4880ED000A8B4890ED140A884880ED66
:10258000010A884890ED140A854880ED020A8548C2
:1025900090ED140A824880ED030A002026E083496A
:1025A00001EB800191ED000A7E49D1ED120A20EE87
:1025B000200ADFED820A20EE200ABDEEC00A10EEEE
:1025C000101A0AB27749403121F81020744901EB02
:1025D000800191ED000ADFED7A0A20EE200A7149B0
:1025E000283101EB800181ED000A401C0428D6DB74
:1025F000BDEC0C8B10BD10B52DED028B002440E01E
:1026000004EB440000EBC4006E4901EBC00090ED08
:10261000121BB0EE410AF0EE610A9FED6B1B53EC0A
:10262000112B51EC100B06F0FBF806F073FA014683
:102630006148583040F824105A48283000EB840094
:10264000D0ED000A624850F82400B421484300EE5F
:10265000100AB8EEC00A30EE800A5748483000EB46
:10266000840080ED000A5B4830F824004D49403179
:1026700031F81410484301B24A48403020F8141091
:10268000641C042CBCDB4748B0F84000404200B258
:102690004449A1F840000846B0F84200404201B267
:1026A0004048A0F84210B0F84400404201B23D4812
:1026B000A0F84410B0F946003A49A1F846000020BD
:1026C000CDE03D49483101EB800191ED000A3A49E6
:1026D000583101EB8001D1ED000A30EE600ADFEDE8
:1026E0003E0AB4EEE00AF1EE10FA23DD3249483139
:1026F00001EB800191ED000A2F49583101EB800177
:10270000D1ED000A30EE600ADFED340AB4EEE00AE3
:10271000F1EE10FA0ED22E4951F82010491E2C4A23
:1027200042F820102B4951F820104942294A42F81A
:10273000201093E02049483101EB800191ED000A1F
:102740001D49583101EB8001D1ED000A30EE600ADD
:10275000DFED220AB4EEE00AF1EE10FA07DD1C49C3
:1027600051F82010891E1A4A42F8201076E01249CA
:10277000483101EB800191ED000A0F49583101EB1E
:102780008001D1ED000A30EE600ADFED150AB4EEEB
:10279000E00AF1EE10FA46D20749483122E0000083
:1027A000A002002078010020DB0FC9409002002029
:1027B000D0020020E0020020D8010020CDCCCC3E89
:1027C000E12E6542D8180020000000000000F0BF94
:1027D00000040020E80000200000B442000087430D
:1027E0000000B4C201EB800191ED000AFE4901EB4B
:1027F0008001D1ED000A30EE600ADFEDFC0AB4EE94
:10280000E00AF1EE10FA0EDDF94951F82010491CEA
:10281000F74A42F82010F74951F820104942F54A8A
:1028200042F820101AE0F049103901EB800191EDD7
:10283000000AED4901EB8001D1ED000A30EE600A9B
:10284000DFEDEA0AB4EEE00AF1EE10FA06D2E8494A
:1028500051F82010891CE64A42F82010401C042838
:10286000FFF62FAF002418E0DF49103901EB840197
:1028700091ED001AF0EE410ADB4901EB840191ED84
:10288000001AB0EE410A04EB440101EB0411DA4AEC
:1028900002EB810000F08EFC641C042CE4DBD248C7
:1028A0005838007B032804D0CF485838007B0728CD
:1028B0002AD100200FE000EB400101EBC001CF4A1C
:1028C00002EBC101B1F8401049420AB2C6491831C1
:1028D00021F81020401C0428EDDB002012E000EB62
:1028E000400101EB0011C44A02EB810191ED0B0A9A
:1028F000BDEEC00A10EE101A0AB2BB49103121F821
:102900001020401C0428EADBBDEC028B10BD10B582
:102910002DED048BFFF76FFE0024E1E004EB440093
:1029200000EBC401B64800EBC100B0F84010AE485F
:10293000483020F81410B34830F81410AA4840303A
:1029400020F81410AF48403890ED090AB5EEC00ADF
:10295000F1EE10FA20D190ED120A10EE101A08468E
:1029600006F095F841EC190BB0EE490AF0EE690A51
:1029700006F006FEB0EE408AF0EE608A9FEDA20BF4
:1029800053EC102B51EC180B06F094F804D20021F4
:102990009548403020F814109D4901EB8401D1ED99
:1029A000001A9149103131F9141001EE101AB8EEE5
:1029B000C11A21EE811AF0EE410A8B49183131F922
:1029C000141001EE101AB8EEC11AB0EE410A04EB71
:1029D000440101EB04118F4A02EB810000F0EAFB95
:1029E0008149403131F9141001EE101AB8EEC11AC4
:1029F0008949D1ED001A21EE211AF0EE410A7A49F7
:102A0000483131F9141001EE101AB8EEC11AB0EEC7
:102A1000410A04EB440101EB0411804A02EB8100FE
:102A200000F0C8FB7048583890ED000AB5EEC00AB7
:102A3000F1EE10FA40D190ED010AB5EEC00AF1EEC8
:102A400010FA39D16F48403890ED120A10EE101A82
:102A5000084606F01CF841EC190BB0EE490AF0EEFE
:102A6000690A06F08DFDB0EE408AF0EE608A9FEDB7
:102A70006C0B53EC102B51EC180B06F01BF81BD20F
:102A800069480068401C6849086008460068B0F55D
:102A9000FA7F24D200200CE09FED640A00EB400195
:102AA00001EB00115B4A02EB810181ED0B0A411C35
:102AB000C8B20428F0DB12E04B48583890ED000A09
:102AC000B5EEC00AF1EE10FA06D190ED010AB5EEAE
:102AD000C00AF1EE10FA02D0002053490860641CCD
:102AE000042CFFF61BAF002026E03F495839097B34
:102AF000032904D03C495839097B072916D100EB3A
:102B0000400101EB0011454A02EB810191ED0B0AF6
:102B1000F7EE000A20EE200ABDEEC00A10EE101AF1
:102B20000AB23149383921F8102004E000222E4938
:102B3000383921F81020401C0428D6DB2A4C583C98
:102B4000B4F99830002B01DB1C4600E05C42322CCB
:102B500024DA254C583CB4F99A20002A01DB1446AB
:102B600000E05442322C19DA1F4C583CB4F99C1046
:102B7000002901DB0C4600E04C42322C0EDA1A4CE4
:102B8000583CB4F99E00002801DB044600E04442B2
:102B9000322C03DA00202649086002E00120244993
:102BA0000860002058E010495839097B032904D0F7
:102BB0000D495839097B072949D100EB400101EB48
:102BC0000011144A02EB810191ED0B0ABDEEC00A1F
:102BD00010EE101A09B200EE101AB8EEC00AF7EEA5
:102BE000000A20EE200A25E030020020000087C302
:102BF00000040020E8000020CC130020D81800209A
:102C0000381A0020B8010020000000000000144025
:102C1000A00300202C1600206C0000205C17002070
:102C20000000000000004940D0000020000000002B
:102C300040000020FFEE000A20EE200ABDEEC00A90
:102C400010EE101A0AB2824921F8102003E0002287
:102C50007F4921F81020401C0428A4DBBDEC048B24
:102C600010BD10B52DED088B7A49486989697A4AFB
:102C7000C2E916011046D0ED131AB0EE611A90EDBC
:102C8000162BB0EE420AF0EE620AFEF7EEF9B0EE55
:102C9000409AF0EE609A51EC190B05F03BFF6E493B
:102CA000C8641FED1E0AB0EE408A6A49B1F90A00F5
:102CB00005F097FE9FED690B53EC102B05F0B0FD6E
:102CC00005F0ADFE00B2674908806249B1F90C0019
:102CD00005F087FE9FED610B53EC102B05F0A0FD76
:102CE00005F09DFE00B2604908805E49098811FB2D
:102CF00001F15D4A12885C4B1B8812FB031005F042
:102D000070FE41EC1A0BB0EE4A0AF0EE6A0A06F0C9
:102D1000EFFDB0EE409AF0EE609A51EC190B05F021
:102D2000F9FE4D494862084690ED090ADFED4F0A69
:102D3000B4EEE00AF1EE10FA3FDB4A48B0F90000C9
:102D400005F04FFE41EC1A0B4748B0F9000005F0C2
:102D500048FE41EC1B0BB0EE4A1AF0EE6A1AB0EED8
:102D60004B0AF0EE6B0A06F0FFF9B0EE409AF0EE77
:102D7000609A51EC190B05F0CDFE08EE100A9FED9C
:102D80003C0A38EE000A10EE101A084605F07FFEE5
:102D900041EC1A0B9FED371BB0EE4A0AF0EE6A0ABF
:102DA00006F0F8FBB0EE409AF0EE609A51EC190B89
:102DB00005F0B0FE2849086204E01FED640A2648C9
:102DC00080ED090ABDEC088B10BD10B52148C07814
:102DD0001F49283908730846007B072810D004DCF7
:102DE000012807D0032814D107E008280BD00A28AF
:102DF0000FD10BE0FEF7E4F90EE0FEF7F4F90BE07B
:102E0000FEF793FA08E0FEF789FB05E0FEF773FA98
:102E100002E0FEF7D5F900BF00BF0E48C0780C49AC
:102E20002839487310BD10B5FEF78FF8FFF76FFD16
:102E300010BD10B5FFF715FFFEF78FFE10BD10B5E2
:102E4000FFF7C3FFFFF7F5FFFFF7EDFF10BD000031
:102E5000000200202E23002078010020CDCCCCCC15
:102E6000CCCCF43F5000002052000020000048422B
:102E7000DB0FC94000000060FB211940D0ED000AC3
:102E8000F4EEC00AF1EE10FA01DD80ED000AD0ED9B
:102E9000000AB1EE401AF4EEC10AF1EE10FA03D2C4
:102EA000F1EE400AC0ED000A70470364C26381631B
:102EB00080ED000AC0ED010A80ED021A704780ED36
:102EC000000AC0ED010A80ED021ADFEDFB1AC0ED29
:102ED000081ADFEDF91AC0ED091ADFEDF71AC0ED97
:102EE0000A1ADFEDF51AC0ED0B1A704710B52DED7B
:102EF0000A8B0446F0EE408AB0EE609AB0EE418A4A
:102F0000C4ED048A84ED039A39EE680A84ED070A59
:102F100018EE100A05F0BBFD41EC1A0B94ED070A00
:102F200010EE101A084605F0B2FD41EC1C0BB0EE95
:102F30004C0AF0EE6C0A06F023FBB0EE40BAF0EE5D
:102F400060BA53EC1A2B51EC1B0B05F0B3FD04D205
:102F50009FEDD90A84ED070A1CE094ED070AB4EE50
:102F6000C80AF1EE10FA06DD94ED070A30EE480AC1
:102F700084ED070A0EE094ED070AF1EE480AB4EE7C
:102F8000E00AF1EE10FA05D294ED070A30EE080AD5
:102F900084ED070A18EE100A05F079FD41EC1A0BD2
:102FA00039EE680A10EE101A084605F070FD41EC83
:102FB0001C0BB0EE4C0AF0EE6C0A06F0E1FAB0EE33
:102FC00040BAF0EE60BA53EC1A2B51EC1B0B05F033
:102FD00071FD03D29FEDB80A84ED070A94ED0C0A47
:102FE000B5EEC00AF1EE10FA27D094ED0C0A10EEFF
:102FF000101A084605F04BFD41EC1A0B94ED070A38
:1030000010EE101A084605F042FD41EC1C0BB0EE24
:103010004C0AF0EE6C0A06F0B3FAB0EE40BAF0EEED
:1030200060BA53EC1A2B51EC1B0B05F05BFD04D27C
:103030009FEDA10ABDEC0A8B10BDA06B03283ED109
:1030400094ED000AD4ED070A20EE200A84ED080A68
:1030500094ED090AD4ED010A94ED071A00EE810AF5
:1030600084ED090A94ED070AD4ED060A30EE600AF1
:10307000D4ED020A20EE200A84ED0A0AD4ED100AEB
:10308000F8EE600AB0EE600A04F12400FFF7F6FEE5
:1030900094ED080AD4ED090A30EE200AD4ED0A0AAC
:1030A00030EE200A84ED0B0AD4ED0F0AF8EE600A28
:1030B000B0EE600A04F12C00FFF7E0FE42E0A06BE6
:1030C00004283FD194ED070AD4ED060A30EE600AD9
:1030D000D4ED000A20EE200A84ED080A94ED010ADE
:1030E000D4ED070A20EE200A84ED090A94ED070AC0
:1030F000D4ED060AB0EE001A01EE600AD4ED050A1E
:1031000030EE200AD4ED020A20EE200A84ED0A0AED
:1031100094ED080AD4ED090A30EE200AD4ED0A0A2B
:1031200030EE200AD4ED0B0A30EE200A84ED0B0AB3
:10313000D4ED0F0AF8EE600AB0EE600A04F12C003C
:10314000FFF79CFE94ED060A84ED050A94ED070A4C
:1031500084ED060A94ED0D0AB5EEC00AF1EE10FA00
:1031600025D094ED0D0A10EE101A084605F08FFCDC
:1031700041EC1A0B94ED0B0A10EE101A084605F0FC
:1031800086FC41EC1C0BB0EE4C0AF0EE6C0A06F02B
:10319000F7F9B0EE40BAF0EE60BA53EC1A2B51ECEE
:1031A0001B0B05F087FC02D29FED430A42E794ED2A
:1031B0000B0A3FE710B52DED088B0446B0EE408AB0
:1031C000F0EE608A84ED048AC4ED038A38EEC80A02
:1031D00084ED070A94ED0C0AB5EEC00AF1EE10FA80
:1031E00027D094ED0C0A10EE101A084605F04FFC9B
:1031F00041EC190B94ED070A10EE101A084605F081
:1032000046FC41EC1B0BB0EE4B0AF0EE6B0A06F0ED
:10321000B7F9B0EE40AAF0EE60AA53EC192B51ECCE
:103220001A0B05F05FFC04D29FED230ABDEC088B5E
:1032300010BDA06B032841D194ED000AD4ED070A1C
:1032400020EE200A84ED080A94ED090AD4ED010A63
:1032500094ED071A00EE810A84ED090A94ED070A3D
:10326000D4ED060A30EE600AD4ED020A20EE200A00
:1032700084ED0A0AD4ED100AF8EE600AB0EE600A96
:1032800004F12400FFF7FAFD94ED080AD4ED090AD1
:1032900030EE200AD4ED0A0A30EE200A84ED0B0A43
:1032A000D4ED0F0AF8EE600AB0EE600A04F12C00CB
:1032B000FFF7E4FD45E0000000000000A06B0428DB
:1032C0003FD194ED070AD4ED060A30EE600AD4ED42
:1032D000000A20EE200A84ED080A94ED010AD4EDDC
:1032E000070A20EE200A84ED090A94ED070AD4EDBE
:1032F000060AB0EE001A01EE600AD4ED050A30EEBF
:10330000200AD4ED020A20EE200A84ED0A0A94ED88
:10331000080AD4ED090A30EE200AD4ED0A0A30EE8C
:10332000200AD4ED0B0A30EE200A84ED0B0AD4ED0E
:103330000F0AF8EE600AB0EE600A04F12C00FFF705
:103340009DFD94ED060A84ED050A94ED070A84EDCF
:10335000060A94ED0D0AB5EEC00AF1EE10FA25D07A
:1033600094ED0D0A10EE101A084605F090FB41ECA2
:10337000190B94ED0B0A10EE101A084605F087FBA6
:1033800041EC1B0BB0EE4B0AF0EE6B0A06F0F8F8BE
:10339000B0EE40AAF0EE60AA53EC192B51EC1A0BD8
:1033A00005F088FB02D21FED3C0A3FE794ED0B0AC3
:1033B0003CE710B52DED088B0446B0EE408AF0EEE8
:1033C000608A84ED048AC4ED038A38EEC80A84ED6D
:1033D000070A94ED0C0AB5EEC00AF1EE10FA27D0F8
:1033E00094ED0C0A10EE101A084605F050FB41EC63
:1033F000190B94ED070A10EE101A084605F047FB6A
:1034000041EC1B0BB0EE4B0AF0EE6B0A06F0B8F87D
:10341000B0EE40AAF0EE60AA53EC192B51EC1A0B57
:1034200005F060FB04D21FED5C0ABDEC088B10BDFB
:10343000A06B03283ED194ED000AD4ED070A20EEDC
:10344000200A84ED080A94ED090AD4ED010A94EDEE
:10345000071A00EE810A84ED090A94ED070AD4EDFB
:10346000060A30EE600AD4ED020A20EE200A84ED4E
:103470000A0AD4ED100AF8EE600AB0EE600A04F110
:103480002400FFF7FBFC94ED080AD4ED090A30EEA6
:10349000200AD4ED0A0A30EE200A84ED0B0AD4ED9E
:1034A0000F0AF8EE600AB0EE600A04F12C00FFF794
:1034B000E5FC3EE0A06B04283BD194ED070AD4ED77
:1034C000060A30EE600AD4ED000A20EE200A84EDF0
:1034D000080A94ED010AD4ED070A20EE200A84EDD3
:1034E000090A94ED070AD4ED060AB0EE001A01EEBF
:1034F000600AD4ED050A30EE200AD4ED020A20EE6F
:10350000200A84ED0A0A94ED080AD4ED0A0A30EE86
:10351000200AD4ED0B0A30EE200A84ED0B0AD4ED1C
:103520000F0AF8EE600AB0EE600A04F12C00FFF713
:10353000A5FC94ED060A84ED050A94ED070A84EDD6
:10354000060A94ED0D0AB5EEC00AF1EE10FA25D088
:1035500094ED0D0A10EE101A084605F098FA41ECA9
:10356000190B94ED0B0A10EE101A084605F08FFAAD
:1035700041EC1B0BB0EE4B0AF0EE6B0A06F000F8C4
:10358000B0EE40AAF0EE60AA53EC192B51EC1A0BE6
:1035900005F090FA02D21FEDB80A46E794ED0B0A47
:1035A00043E72DE9F0412DED048B04460D46164608
:1035B0001F46B0EE408AF0EE608AB0EE419A2A488B
:1035C0006064B0EE491AF0EE680AB0EE480A3B4675
:1035D000324629462046D4F844C0E047BDEC048B6F
:1035E000BDE8F0811FEDCC0A80ED080A1FEDCE0A80
:1035F00080ED090A1FEDD00A80ED0A0A1FEDD20AFC
:1036000080ED0B0A1FEDD40A80ED050A1FEDD60AE6
:1036100080ED060A1FEDD80A80ED070A704770B5E5
:103620002DED048B06460D461446B0EE408AF0EEB2
:10363000608AB0EE419AF0EE619AF0EE480AB0EE80
:10364000680A3046FFF7B6FD30EE290A84ED000A1D
:1036500094ED000AF0EE400AB0EE490A2846FFF762
:10366000A9FDBDEC048B70BDAB2E000810B504465F
:103670002146304801F0C0F82068B0F5027F0AD139
:103680002D48C068401C2C49C86041F2C8722146D0
:103690002A4800F03BF910BD10B504462068A0F29E
:1036A0000120072842D2DFE800F0040A10151B278A
:1036B000340021462148583000F015F937E0214602
:1036C0001E48B03000F00FF931E021461C4800F0F0
:1036D0000AF92CE021461A48583000F004F926E097
:1036E00015480068401C1449086040F2B662214643
:1036F000144800F00BF91AE00F484068401C0E49CE
:10370000486040F6925221460E48583000F0FEF8CC
:103710000DE009488068401C0749886040F6F24285
:1037200021460648583800F0F1F800E000BF00BF1D
:1037300010BD0000F4230020C8210020E019002063
:10374000E81A0020D81800200A7BCB7A42EA03222C
:10375000826182698260826942600269521C0261F0
:1037600070472DE9F04104460D46002600272068E9
:103770006060287BE97A40EA012020602068616867
:10378000401AE060E06810F5805F07DAA06B401C2B
:10379000A063E06800F50050E0610DE0E068B0F57E
:1037A000805F07DDA06B401EA063E068A0F50050BD
:1037B000E06101E0E068E0612168A06B01EB40306E
:1037C000A0602068A269801A00EE100AF8EEC00A14
:1037D000A06B4FF4B472504300EE100AB8EEC00A6A
:1037E0009FEDD11A00EE810A10EE101A084605F07E
:1037F0004EF941EC100B84ED120BE269207D411C67
:10380000217504F1200141F82020207D062801D1F6
:1038100000202075002605E004F1200050F8260065
:103820000744761C062EF7DB062097FBF0F0206499
:10383000A97B687B41EA002000B2A4F85400BDE8EF
:10384000F08170B504460D4620686060287BE97AF7
:1038500040EA0120206020686168401AE060E0686A
:1038600010F5805F07DAA06B401CA063E06800F5EC
:103870000050E0610DE0E068B0F5805F07DDA06B0F
:10388000401EA063E068A0F50050E06101E0E06840
:10389000E0612168A06B01EB4030A0602068A26964
:1038A000801A00EE100AF8EEC00AA06B4FF4B47252
:1038B000504300EE100AB8EEC00A9FED9C1A00EECD
:1038C000810A10EE101A084605F0E1F841EC100BE1
:1038D00084ED120B687B000200B2A97B08432064D0
:1038E000687C206570BD70B504460D46E06B401CD9
:1038F000E063E06B052804DC29462046FFF724FF3F
:1039000003E029462046FFF72CFF70BD70B5044642
:103910000E461546E06B401CE063E06B022800DCBD
:10392000A56131462046FFF78CFFE06B0A2812DCC8
:10393000A069A168401A10F57A6F03DA05F5005006
:10394000A06108E0A069A168401AB0F57A6F02DDB5
:10395000A5F50050A06170BD2DE9F04186B0074685
:103960000C4615461E46DDF8308040F2FF100190EF
:1039700000208DF80C008DF80D0008208DF80E0049
:10398000200A8DF80F008DF81040290A8DF81110CB
:103990008DF81250310A8DF813108DF814604FEA2B
:1039A00018218DF815108DF816800EE0604800681B
:1039B000401C5F4908600846006840F6B8318842FC
:1039C00003D100205A49086004E0B86800F0E050D4
:1039D0000028EBD000BF01A9384602F0D5FB06B0A5
:1039E000BDE8F0812DE9F04186B080460C461546D1
:1039F0001E460C9F40F2FF20019000208DF80C0025
:103A00008DF80D0008208DF80E00200A8DF80F00AB
:103A10008DF81040290A8DF811108DF81250310AD6
:103A20008DF813108DF81460390A8DF815108DF883
:103A3000167001A9404602F0A7FB06B0BDE8F08170
:103A40002DE9F04186B007460C4615461E46DDF8C6
:103A500030804FF40070019000208DF80C008DF83C
:103A60000D0008208DF80E00200A8DF80F008DF84B
:103A70001040290A8DF811108DF81250310A8DF876
:103A800013108DF814604FEA18218DF815108DF879
:103A900016800EE027480068401C2649086008464A
:103AA000006840F6B831884203D1002021490860FF
:103AB00004E0B86800F0E0500028EBD000BF01A996
:103AC000384602F061FB06B0BDE8F0812DE9F04117
:103AD00086B080460C4615461E460C9F40F2FF10ED
:103AE000019000208DF80C008DF80D0008208DF855
:103AF0000E00200A8DF80F008DF81040290A8DF86D
:103B000011108DF81250310A8DF813108DF81460D1
:103B1000390A8DF815108DF8167001A9404602F08B
:103B200033FB06B0BDE8F081FFFF333D0000343DBC
:103B3000F8000020FC000020F0B503460C46188871
:103B4000002113E0675C80EA072000250BE04600B7
:103B500000F4004CBCF1000F03D041F2210C86EAC6
:103B60000C0630466D1C082DF1D3491C9142E9D357
:103B70001880F0BD2DE9F84305460F4690464FF0FA
:103B80000009002000900626FE484078002859D001
:103B9000002085F86300FB484078C0F3800078B1CE
:103BA000F9A1284604F083FDF8490860084600683A
:103BB00030B1F448007820F00400001DF14908708D
:103BC000F048407800F0010078B1EFA1284604F0F9
:103BD0006EFDEE4908600846006830B1E94800789B
:103BE00020F00100401CE7490870E6484078C0F327
:103BF000400078B1E4A1284604F059FDE34908608B
:103C00000846006830B1DF48007820F00200801CD0
:103C1000DC490870DB484078C0F3C00078B1DCA113
:103C2000284604F044FDD94908600846006830B1D0
:103C3000D448007820F008000830D24908700020ED
:103C400028600AE128785A28FBD16878A528F8D19D
:103C5000A878E97800EB0120801D4045F1D1B8F14A
:103C6000080FEEDB042229466846FFF765FFA8F13E
:103C70000602A91D6846FFF75FFF2879697900EB06
:103C800001201FFA80F9BDF800004845D9D1062669
:103C9000E0E0AC192078C02860D008DC90280FD074
:103CA000A02813D0A52829D0B0286FD13EE0D02875
:103CB00070D0D1286CD0D9286BD0F028F5D1C3E0D2
:103CC0006078B8490870B01CC6B2C2E06078A178CC
:103CD00000EB012000B2B3494880E078217900EB85
:103CE000012000B2AF4988806079A17900EB012002
:103CF00000B2AC49C880F01DC6B2AAE06078A178D5
:103D000000EB012000B2A7490881E078217900EB9F
:103D1000012000B2A34948816079A17900EB01201C
:103D200000B2A0498881F01DC6B292E06078A17807
:103D300000EB012000B29B49C881E078217900EBBB
:103D4000012000B2974908826079A17900EB012037
:103D500000B294494882F01DC6B27AE06078A1783A
:103D600000EB012000B28F498882E078217900EBD6
:103D7000012000B28B49C8826079A17900EB012053
:103D800000B288490883F01DC6B262E05FE001E03E
:103D90004CE03FE06078A17800EB012000B281495F
:103DA0004883E078217900EB012000B27D498883C7
:103DB0006079A17900EB012000B27A49C8830846F6
:103DC000B0F91A0000EE100AB8EEC00ADFED760A6C
:103DD00020EE200A084680ED0F0AB0F91C0000EE24
:103DE000100AB8EEC00ADFED700A20EE200A08467D
:103DF00080ED100AB0F91E0000EE100AB8EEC00AFD
:103E0000DFED6A0A20EE200A084680ED110AF01D57
:103E1000C6B21EE0634854F8011F01626168416246
:103E2000A168816206F10D00C6B212E05D4854F847
:103E3000011FC16261680163A1684163E168816338
:103E400006F11100C6B204E0701DC6B201E046469C
:103E500000BF00BF4645FFF61CAF5248B0F9120044
:103E6000404200EE100AB8EEC00ADFED500A20EE24
:103E7000200A87ED040A4B48B0F91000404200EEDA
:103E8000100AB8EEC00ADFED490A20EE200A87EDDD
:103E9000030A4448B0F90E00404200EE100AB8EEA2
:103EA000C00ADFED420A20EE200A87ED050A4048ED
:103EB00090ED000A3F4880ED000A3A4890ED110A63
:103EC000B1EE400A3A4880ED000A90ED000A394808
:103ED000D0ED000A30EE600ADFED370AB4EEE00AFA
:103EE000F1EE10FA05DB35480068401E33490860E2
:103EF00013E02F4890ED000A2E48D0ED000A30EE76
:103F0000600ADFED2F0AB4EEE00AF1EE10FA04D8F1
:103F10002A480068401C294908602A4890ED000A98
:103F2000294880ED000A1F4890ED080A254880EDD9
:103F3000000A90ED000A2448D0ED000A30EE600A35
:103F4000DFED1D0AB4EEE00AF1EE10FA05DB1F48C2
:103F50000068401E1D49086013E01A4890ED000AF1
:103F60001948D0ED000A30EE600ADFED150AB4EE14
:103F7000E00AF1EE10FA04D814480068401C134916
:103F8000086025E0000100204F4B000004010020E4
:103F90006E6577207061636B6574206974656D73FD
:103FA00000000000D82100200AD7233CCDCCCC3D16
:103FB0000C010020080100200000A5432001002082
:103FC0000000A5C3140100201001002024010020DE
:103FD000314800684FF4B471484300EE100AB8EE5F
:103FE000C00A2E48D0ED000A30EE200A87ED000A04
:103FF0002B4890ED000A2B4880ED000A2A4890EDEE
:10400000090A274880ED000A90ED000A2548D0ED06
:10401000000A30EE600A5FED180AB4EEE00AF1EE35
:1040200010FA05DB21480068401E2049086013E0B3
:104030001B4890ED000A1B48D0ED000A30EE600AE4
:104040005FED210AB4EEE00AF1EE10FA04D8174849
:104050000068401C15490860154800684FF4B471A9
:10406000484300EE100AB8EEC00A1248D0ED000A2C
:1040700030EE200A87ED010A0B4890ED100ADFEDC3
:104080000E0A30EE200A87ED020A90ED0F0A87ED46
:10409000000ABDE8F883000024010020140100207C
:1040A0001C01002018010020D82100202801002038
:1040B000200100200C010020A470954030B503467B
:1040C00005E013F8010B80EA0204B348025D081E04
:1040D000A1F10101F5D1104630BD70B505460C4681
:1040E00000260DB1022C01D8002070BD611EFF22F8
:1040F0002846FFF7E3FF0646601E285CB04201D168
:104100000120F2E70020F0E770B505460C460026D6
:104110000DB1022C00D870BD611EFF222846FFF7AA
:10412000CDFF0646601E2E5400BFF4E730B50346AF
:1041300013B94FF6FF7030BD09E013F8014B82EA66
:104140000400C0B2954D35F8100080EA2222081E06
:10415000A1F10101F1D11046EDE770B505460C461D
:1041600000260DB1022C01D8002070BDA11E8C4884
:1041700002882846FFF7DAFF0646F1B2A01E285C47
:10418000814206D1601E285CB0EB162F01D10120C0
:10419000EBE70020E9E770B505460C4600260DB1B7
:1041A000022C00D870BDA11E7D4802882846FFF76A
:1041B000BDFF0646A01E2E54310A601E295400BFC2
:1041C000F0E770B504460D4600260CB1022D01D86B
:1041D000FF2070BDFF2229462046FFF76FFFF8E75A
:1041E0002DE9FC5F05460F46092F01D8BDE8FC9F6D
:1041F0000024A146CBE015F804A0601C295CA01C9B
:10420000285C41EA0026601D295CA01D285C41EA6B
:10421000002B281900F1070828190168009100797E
:104220008DF8040006F109001FFA80F9BAF1A50F14
:1042300077D105216846FFF750FF002871D0281973
:104240004946FFF78AFF0028F8D0BBF5017F6AD006
:1042500012DC40F20311ABEB01008B452BD006DCE6
:10426000BBF1010F1AD0BBF1030F74D11CE0FE2883
:1042700028D0FF286FD14BE0BBF5027F6DD006DC64
:10428000ABF20620002856D001287BD15AE0ABF2D1
:104290000130002868D0022874D16CE032464146D3
:1042A000404804F0D2F96EE0324641463D480C30B9
:1042B00004F0CBF967E0324641463A48363004F024
:1042C000C4F960E01B2E22D13246414635483930D0
:1042D00004F0BBF9334890F83900012809DB314874
:1042E00090F83900072804DC02202E4981F8C50027
:1042F0000DE02C4890F839000B2808DB294890F88D
:104300003900112803DC0120264981F8C5003AE074
:10431000102E05D1324641462248543004F095F91A
:1043200031E031E0FFE7012E04D198F800001D498B
:1043300081F8740027E0324641461A48763004F08E
:1043400084F920E0072E05D13246414615487730E2
:1043500004F07BF917E015E0FFE7324641461148CB
:104360007E3004F072F90EE0324641460D4884304A
:1043700004F06BF907E0324641460A48AC3004F0DD
:1043800064F900E000BF00BF04EB090084B2A7425B
:104390003FF731AF00BF29E779A300087AA40008EE
:1043A0002C0100202022002010B503463BB10878E4
:1043B00038B9012008701078401C107001E000200E
:1043C0000870107800EBD0746410A0EB44040CB9B2
:1043D000002010BD0120FCE7CB8A03400BB1012374
:1043E00000E000231370704710B5044604F1280262
:1043F00021460120FFF7F0FF04F1290221460420A5
:10440000FFF7EAFF04F12A0221460220FFF7E4FF4A
:1044100004F12B0221460820FFF7DEFF04F12C02F5
:1044200021461020FFF7D8FF04F12E02214620205C
:10443000FFF7D2FF04F12F0221464020FFF7CCFF07
:1044400004F1300221468020FFF7C6FF04F131025B
:1044500021464FF48070FFF7BFFF04F1320221467E
:104460004FF40070FFF7B8FF04F1330221464FF418
:104470008060FFF7B1FF04F1340221464FF4006081
:10448000FFF7AAFF04F12D0221464FF48050FFF7F9
:10449000A3FF04F1350221464FF40050FFF79CFFC3
:1044A00004F1360221464FF48040FFF795FF04F1F6
:1044B000370221464FF40040FFF78EFF94F82800A2
:1044C000914A9249FFF770FF382108552921085D6C
:1044D0008F4A9049FFF768FF392108552A21085D66
:1044E0008D4A8E49FFF760FF3A2108552B21085D60
:1044F0008B4A8C49FFF758FF3B2108552C21085D5A
:10450000894A8A49FFF750FF3C2108552E21085D52
:10451000874A8849FFF748FF3E2108552F21085D4B
:10452000854A8649FFF740FF3F2108553021085D45
:10453000834A8449FFF738FF402108553121085D3F
:10454000814A8249FFF730FF412108553221085D39
:104550007F4A8049FFF728FF422108553321085D33
:104560007D4A7E49FFF720FF432108553421085D2D
:104570007B4A7C49FFF718FF442108552D21085D2F
:10458000794A7A49FFF710FF3D2108553521085D2A
:10459000774A7849FFF708FF452108553621085D1D
:1045A000754A7649FFF700FF462108553721085D17
:1045B000734A7449FFF7F8FE4721085510BD817A08
:1045C000C176017FC27E891A4177C27E0277417F20
:1045D00001290ED1016A491C0162016A01EBD17205
:1045E0005210A1EB420212B90022827701E00122AF
:1045F0008277417F02290ED1416A491C4162416A9A
:1046000001EBD1725210A1EB420212B90022C27723
:1046100001E00122C2777047C17A012901D1817678
:1046200008E0C17A032901D1817603E0C17A022929
:1046300000D18176704730B504460D46122D00D06A
:1046400030BD04B9FCE72078617840EA0120C0F36E
:104650000A004D4908806078C010A17840EA4110F6
:10466000C0F30A0048494880A0788011E17840EA08
:104670008100217940EA8120C0F30A004249888004
:1046800020794010617940EAC110C0F30A003E4928
:10469000C880207C617C40EA0120C0F30A003A49CE
:1046A000088160790011800888726079C0F3011078
:1046B000C872A079E17940EA012000B232498881CC
:1046C000207A617A40EA012001B22F48C181A07AA4
:1046D000E17A40EA012001B22B480182217B017579
:1046E000617B4175A07BE17B40EA01202649C882BD
:1046F0000846FFF791FF2448FFF761FF2248FFF7C4
:1047000073FE00BF9CE700002F0100202E01002057
:10471000310100203001002033010020320100204F
:10472000350100203401002037010020360100202F
:1047300039010020380100203B0100203A0100200F
:104740003D0100203C0100203F0100203E010020EF
:1047500041010020400100204301002042010020CF
:1047600045010020440100204701002046010020AF
:1047700049010020480100204B0100204A0100208F
:104780004D0100204C010020E622002010B5044617
:104790000448D0F8260020601C220349034800F09A
:1047A00027FC10BDCA2300204A2300204E01002010
:1047B00010B504464648407910B90020207001E049
:1047C000012020704248408AA4F801004048007946
:1047D000A4F803003F482168016021790171642138
:1047E00000F064FD10BD70B504460D462A2229462E
:1047F000204603F02AFF70BD0A68A2F22312062A9F
:104800002ED2DFE802F0030A11181F26D1F80B2080
:104810000260D1F80F20426023E0D1F80B208260C3
:10482000D1F80F20C2601CE0D1F80B200261D1F852
:104830000F20426115E0D1F80B208261D1F80F20E2
:10484000C2610EE0D1F80B200262D1F80F20426263
:1048500007E0D1F80B208262D1F80F20C26200E09D
:1048600000BF00BF704730B585B005460C461848FC
:104870000078022802D01648007810B90020207075
:1048800001E0012020701248408AA4F8010010487D
:104890000079A4F803000F482168016021790171B3
:1048A0004FF44070009000208DF808008DF809004A
:1048B00008208DF80A002068CDF80B0020798DF8CB
:1048C0000F006946284601F05FFC05B030BD0000CE
:1048D0002E23002066230020F0B58BB004460D4641
:1048E00016461F460121084602F0ACFC012148068D
:1048F00002F0F1FC09220B21964802F090FA0922FD
:104900000C21944802F08BFA4FF4C0500990022019
:104910008DF8280009A98F4802F0F6F914208DF8C7
:10492000040003208DF8050001208DF806008DF8A5
:10493000070001A801F02BFA874801F093FA06A8B6
:1049400001F0B4FB00208DF81E0001208DF81F003F
:1049500000208DF820008DF821008DF822008DF8C0
:1049600023008DF81A708DF81B008DF81C508DF8FF
:104970001D40ADF8186006A9774801F08CFA0020B8
:104980008DF812008DF8130001208DF8140000201E
:10499000ADF80800ADF80A00ADF80C00ADF80E0057
:1049A000ADF8100001208DF8150002A801F0FDFA05
:1049B00001220221684801F0F7FD0BB0F0BD10B5EF
:1049C0000121654801F058FE18B10121624801F04B
:1049D000EEFE10BD00B585B002215F4801F04CFE2F
:1049E00088B104215C4801F0E2FE5C495A4801F0BC
:1049F00020FE6A460021584801F0BBFC00BF684613
:104A0000FEF734FE00BF05B000BDF0B58BB0044624
:104A10000D4616461F460121022002F013FC01211B
:104A2000880602F058FC09220C214D4802F0F7F9E3
:104A300009220D214A4802F0F2F94FF44050029049
:104A400002208DF80C0002A9454802F05DF94020D3
:104A50008DF8040003208DF805008DF80600012074
:104A60008DF8070001A801F092F93F208DF80400AD
:104A700003208DF805008DF8060001208DF8070051
:104A800001A801F084F9374801F0ECF908A801F019
:104A90000DFB00208DF8260001208DF82700002056
:104AA0008DF828008DF829008DF82A008DF82B004C
:104AB0008DF822008DF823008DF824508DF82540C4
:104AC000ADF8206008A9274801F0E5F90E208DF81F
:104AD0001A0000208DF81B0001208DF81C0000201A
:104AE000ADF81000ADF81200ADF81400ADF81600E6
:104AF000ADF8180001208DF81D0004A801F055FA4A
:104B000001220221174801F04FFD0BB0F0BD10B596
:104B10000121144801F0B0FD18B10121114801F044
:104B200046FE10BD00B585B002210E4801F0A4FD7F
:104B300068B102210B4801F03AFE6A46002109489B
:104B400001F017FC00BF6846FEF7A6FD00BF05B0E8
:104B500000BD000000000240006400400800003278
:104B600000040240006800401CB50121042002F04E
:104B700069FB0620009001208DF8040000208DF8CC
:104B8000060003208DF8050001208DF80700694616
:104B9000074802F0B9F80621054802F031F904216E
:104BA000034802F02FF90221014802F02BF91CBD45
:104BB0000008024010B596B004460121022002F020
:104BC00041FB0121880502F03DFB0121102002F08C
:104BD00093FB07221146F84802F021F914A802F0CD
:104BE000DBF88020149002208DF8540000208DF80E
:104BF000550001208DF8570014A9EF4802F084F801
:104C0000EE4803F0C5FA10A803F08FFB10940020C3
:104C1000ADF84400ADF846004FF48060ADF84800B0
:104C20000420ADF84A000020ADF84C0010A9E3487C
:104C300003F015FB01224021E04803F045FCE04869
:104C400001F008FE684601F0D0FE4FF000600090D1
:104C5000DA48001D0190DB480290002003904020BC
:104C60000490002005904FF480600690002007908B
:104C700008904FF48070099000020A9000200B9079
:104C80000C900D900E906946CD4801F085FE0022F3
:104C9000CC494031CA4801F0E0FE0121C84801F08A
:104CA000E8FE0121C64801F0B1FE25208DF83C0048
:104CB00000208DF83D008DF83E0001208DF83F006A
:104CC0000FA801F064F8012240F22441BB4803F030
:104CD00004FC0121B94803F04AFB16B010BD10B521
:104CE00040F22441B54803F033FC002852D0B348C9
:104CF0000088B2488088B24801F0CBFE20BB00217A
:104D0000AF4801F083FEB049AD4801F0F8FEAC4871
:104D100001F09FFEC0F14000AC4908604020A84966
:104D2000091D0860081F006840F40020091F086082
:104D30000121A34801F06AFE00BFA448008881B2A7
:104D4000A048FFF778FC25E000219D4801F05EFEB9
:104D50009D499B4801F0D3FE994801F07AFEC0F1CD
:104D600040009A49086040209549091D0860081FC5
:104D7000006820F40020091F08600121904801F01C
:104D800045FE00BF9148008881B28E484030FFF751
:104D900052FC00BF10BD10B596B004460121480476
:104DA00002F099FA0121084602F04CFA0121480567
:104DB00002F048FA07220221854802F030F8072263
:104DC0000321834802F02BF80C20149002208DF868
:104DD000540003208DF8550001208DF8570014A9C8
:104DE0007B4801F091FF7B4803F0D2F910A803F053
:104DF0009CFA10940020ADF84C000C20ADF84A004D
:104E00000020ADF84800ADF84600ADF8440010A908
:104E1000704803F024FA012280216E4803F054FB0D
:104E20006D4801F017FD1C2005904FF000600190C7
:104E30004020049000200C900D90684803900020C2
:104E40000E9009904FF48060079000200A9061480E
:104E5000001D029000200F90089006904FF48030C3
:104E60000B9001A95C4801F097FD01215A4801F01F
:104E7000CDFD01224021574803F026FB01A801F097
:104E8000B4FD2020059080050190002004900C9036
:104E90000D905348039000200E9009904FF48060CD
:104EA000079000200A904B48001D029000200F90B0
:104EB000089006904FF480300B9001A946481838AE
:104EC00001F06AFD01214448183801F09FFD4FF4BC
:104ED000A06000F057FF26208DF8000001208DF81B
:104EE000030000208DF801008DF80200684600F0F4
:104EF0004EFF012240F22441364803F0EEFA012130
:104F0000344803F034FA16B010BD10B540F2244115
:104F1000304803F01DFB30B32E4800882D48001D9B
:104F2000008800BF1C222E492E4803F08EFB00BFD4
:104F300000212948183801F069FD00BF26481838BB
:104F400001F0B1FD0028F9D127492348183801F0B4
:104F5000D6FD20212048603801F079FD01211E484E
:104F6000183801F053FD10BD70B504460D461646C5
:104F70001C222146194803F068FB00BF1B49164854
:104F800001F0A1FD0028F9D01849134801F0B7FD40
:104F90000021114801F03AFD00BF0F4801F083FDE8
:104FA0000028FAD11C210C4801F051FD01210A48CA
:104FB00001F02CFD70BD0000000402400010014013
:104FC000406402401E2800200000301058010020DC
:104FD0000000024000440040A06002404A2300203C
:104FE0009E2800202E230020000C002000002020FE
:104FF00070B504460D461646FE482168016000BFA4
:10500000FD49FE4801F05FFD0028F9D0FA49FB4850
:1050100001F075FD0021F94801F0F8FC00BFF748E8
:1050200001F041FD0028FAD11C21F44801F00FFDE8
:105030000121F24801F0EAFC70BD10B596B00446BB
:105040000121022002F0FEF80121880402F043F958
:105050000121480502F0F6F807220A21E84801F08C
:10506000DEFE07220B21E64801F0D9FE02208DF872
:10507000440003208DF8450000208DF846000120F3
:105080008DF847008002109010A9DD4801F03CFE29
:105090004FF40060109010A9D94801F035FE272088
:1050A0008DF8000002208DF8010001208DF802002B
:1050B0008DF80300684600F06AFE12940020ADF8F7
:1050C0004C00ADF84E00ADF85000ADF854000C2087
:1050D000ADF8520012A9CB4803F0C1F8012240F20A
:1050E0002441C84803F0F9F95021C64803F027FAD3
:1050F000C54803906420059000200C900D900E9000
:1051000009904FF48060079080100A90BD48001D00
:10511000029000200F90089006904FF400300B9002
:10512000800201900020049001A9B448783801F071
:1051300033FC0121B148783801F068FC012240219C
:10514000B04803F0C1F901228021AE4803F0BCF958
:105150000021AA48483801F059FCA848483801F015
:1051600079FB00BFA548483801F09DFC0028F9D123
:105170004FF000600190A348001D0290A3480390E7
:10518000402004900020059006904FF48060079026
:105190000020089009900A904FF480300B90002076
:1051A0000C9003200D9000200E900F9001A99348C1
:1051B000483801F0F1FB0E208DF8000002208DF838
:1051C000010001208DF802008DF80300684600F010
:1051D000DEFD012210218948483801F0A4FC01219C
:1051E000884803F0C4F816B010BD10B5002440F292
:1051F0002441844803F0ACF908B3824803F0E6F890
:1052000040F224417F4803F0DEF900217B487838E2
:1052100001F0FCFB002240217A4803F055F900BF61
:1052200079497B48FFF7DFFA00BF0122402175482A
:1052300003F04AF901217148783801F0E7FB10BD0D
:1052400010B54FF0C0516D48483801F03CFC50B1EA
:1052500000216A48483801F0D9FB4FF0C051674837
:10526000483801F04CFC10BD70B504460D460021D5
:10527000204601F0CBFB00BF204601F014FC0028C3
:10528000FAD12946204601F0E2FB0121204601F037
:10529000BDFB70BD70B5044600255C4D05F8014BA3
:1052A000012156484838FFF7DFFF70BD2DE9F04176
:1052B00005460E4600240027544F00BF03E0285D3A
:1052C0003855601C84B2B442F9DB31464B4848384B
:1052D000FFF7CAFFBDE8F08110B596B00446012182
:1052E000042001F0AFFF0121C80401F0F4FF0822FF
:1052F0000A21484801F093FD08220B21454801F09E
:105300008EFD0121480501F09DFF4FF44060109093
:1053100002208DF8440000208DF8460003208DF80F
:10532000450001208DF8470010A93A4801F0ECFC37
:1053300012940020ADF84C00ADF84E00ADF85000CE
:105340000C20ADF852000020ADF8540012A93248EC
:1053500002F085FF012240212F4803F0B5F82748CD
:10536000603801F077FA684601F03FFB4FF00060CB
:1053700000902948001D01902848029000200390C9
:1053800064200490002005904FF480600690002077
:105390000790089009904FF480300A9000200B90FD
:1053A0000C900D900E9069461448603801F0F4FAA4
:1053B00001211248603801F029FB34208DF83C00AF
:1053C00003208DF83D008DF83E0001208DF83F0050
:1053D0000FA800F0DCFC012280210F4803F074F8D4
:1053E00000210648303801F011FB0448303801F044
:1053F00031FA15E04A23002000002020A06002407E
:105400000004024000480040BE280020EA29002095
:10541000CA23002000080240004C0040222900203E
:1054200000BFFB4801F03FFB0028FAD14FF00060BD
:105430000090F8480190F848029040200390002026
:10544000049005904FF4806006900020079008902B
:1054500009904FF480300A9000200B9003200C90AC
:1054600000200D900E906946E94801F095FA0F2052
:105470008DF83C0003208DF83D008DF83E000120A2
:105480008DF83F000FA800F082FC01221021E048B7
:1054900001F049FB012240F22441DE48001F03F0E5
:1054A0001CF80121DB48001F02F061FF16B010BD9F
:1054B00010B5002440F22441D648001F03F048F8FC
:1054C00008B3D448001F0088D24800880021D04883
:1054D000303801F09BFAD149CD48303801F00FFB4C
:1054E000CB48303801F0B5FAC0F16400C4B200BF57
:1054F00000BF6421C648303801F0A9FA0121C44830
:10550000303801F083FA10BD70B504460D462946C7
:10551000204601F09CFA0121204601F077FA70BD87
:1055200010B5BF49BA4801F0CEFA38B10021B848E9
:1055300001F06CFABA49B64801F0E1FA10BD70B555
:1055400004460025B44D05F8014B0121B048FFF792
:10555000DBFF70BD2DE9F04105460E460024002713
:10556000AD4F00BF03E0285D3855601C84B2B442E3
:10557000F9DB3146A648FFF7C7FFBDE8F08110B55B
:1055800096B004460121042001F05CFE01210820B0
:1055900001F058FE0121080501F09DFE012148059A
:1055A00001F050FE02208DF8540000208DF85600C6
:1055B0004FF48050149001208DF8570003208DF88F
:1055C000550014A9974801F09FFB02208DF8540064
:1055D00000208DF856000420149001208DF857000B
:1055E00003208DF8550014A98F4801F08DFB082287
:1055F0000C218C4801F013FC082202218A4801F09A
:105600000EFC10940020ADF84C000C20ADF84A00C0
:105610000020ADF84800ADF84600ADF8440010A9F0
:10562000824802F01CFE0121804802F0A0FE012207
:1056300040217E4802F048FF684601F0D6F97C48D8
:1056400002904FF400700490800400907748001D91
:1056500001900020039005904FF480600690002098
:105660000890079009904FF480300A9000200B902A
:105670000C900D900E9069466548603801F08CF9E9
:1056800001216348603801F0C1F90022694960488E
:10569000603801F0E2F901215D48603801F0E9F974
:1056A00035208DF83C0001208DF83F008DF83D003D
:1056B00002208DF83E000FA800F069FB012240F2A5
:1056C00024415A4802F009FF0121584802F04FFED8
:1056D00001228021554802F0F7FE00214C48483055
:1056E00001F094F94A48483001F0B4F800BF484846
:1056F000483001F0D8F90028F9D14FF0006000904F
:105700004A48001D01904C4802904020039096208A
:105710000490002005904FF48060069000200790D0
:10572000089009900A900B9003200C9000200D9097
:105730000E9069463648483001F02EF90121344870
:10574000483001F063F92F208DF83C0002208DF8DD
:105750003D0001208DF83E008DF83F000FA800F0BD
:1057600016FB16B010BD70B504460D46002120464C
:1057700001F04CF900BF204601F095F90028FAD15C
:105780002946204601F063F90121204601F03EF947
:1057900070BD10B540F22441244802F0D9FE002823
:1057A00075D022480088214880881948603801F067
:1057B00070F958BB00211648603801F027F91F49DD
:1057C0001348603801F09BF91148603801F041F945
:1057D000C0F500701A4908604FF400710C48603839
:1057E00001F035F94FF4002212490948603801F000
:1057F0004BF901210648603801F008F900BF104854
:10580000008881B20A48FEF7EBFC40E01AE0000095
:1058100070600240044C00404E2A0020000030100E
:105820002000002000080240000C02400050004010
:105830001E2400201E260020B22A00203000001066
:105840005C01002000216C4801F0E0F86B496A48D7
:1058500001F055F9684801F0FCF8C0F5007068499E
:1058600008604FF40071644801F0F1F800226549C6
:10587000614801F009F901215F4801F0C7F800BF54
:105880005F48008881B26048FEF7AAFC00BF10BDE7
:1058900000B597B00121042001F0D4FC0121880556
:1058A00001F0D0FC0121202001F026FD0822062174
:1058B000564801F0B4FA08220721544801F0AFFA23
:1058C000C020119002208DF8480000208DF84A0079
:1058D00002208DF8490000208DF84B0011A94B489B
:1058E00001F012FA4A4802F053FC4FF4E1301390F1
:1058F0000020ADF85000ADF85200ADF854000C2077
:10590000ADF856000020ADF8580013A9404802F049
:10591000A6FC012240213E4802F0D6FD3D4800F0A1
:1059200099FF4FF0206001903948001D02903A48DD
:1059300003900020049064200590002006904FF40E
:10594000806007900020089009900A904FF4803002
:105950000B9000200C900D900E900F9001A92D48F7
:1059600001F01AF801212B4801F050F847208DF87A
:10597000400003208DF841008DF8420001208DF891
:10598000430010A800F003FA012240F2244120480D
:1059900002F0A3FD01211E4802F0E9FC17B000BD92
:1059A00010B540F224411A4802F0D2FD18B318484D
:1059B00000881748001D00880021164801F026F8CD
:1059C0001649144801F09BF8124801F042F8C0F162
:1059D00064001349086000BF0846027811490E4868
:1059E000FEF7C8F800BF64210A4801F030F8012131
:1059F000084801F00BF810BD1060024030000010A4
:105A00005C0100201E2400201E2600200008024009
:105A1000001401402864024086290020000C001078
:105A200060010020901800200EB50121022001F035
:105A300063FC4FF0FF300190A720ADF8000000207C
:105A4000ADF80800ADF802000121C84801F066FE7B
:105A50006946C64801F0F7FD0121C44801F05EFE29
:105A600000221146C14801F02BFE0121BF4801F080
:105A70003DFE0121BD4801F06FFE0EBD1FB50121A5
:105A8000042001F028FC1C208DF8000000208DF877
:105A9000010002208DF8020001208DF80300684605
:105AA00000F075F94FF0FF3002905320ADF804007C
:105AB0000020ADF80C00ADF806000121880701F0C8
:105AC0002DFE01A94FF0804001F0BDFD01218807A6
:105AD00001F042FE1FBD1FB50121022001F0FBFBBA
