:020000040800F2
:10000000382F002051840008BD010008BF010008FE
:10001000C3010008C7010008CB0100080000000070
:10002000000000000000000000000000CF010008F8
:10003000D101000800000000D3010008D50100082C
:100040006B8400086B8400086B8400086B840008D4
:100050006B8400086B8400086B8400086B840008C4
:100060006B8400086B8400086B8400086B840008B4
:100070006B8400086B840008AD5000088D530008A5
:100080006B8400086B8400086B8400082B48000810
:10009000414800086B8400086B8400086B840008EA
:1000A0006B8400086B8400086B8400086B84000874
:1000B000495A00086B5A0008895A00086B840008E6
:1000C0006B8400086B8400086B8400086B84000854
:1000D0006B8400084B4B0008774D00085750000810
:1000E0006B8400086B8400086B8400086B84000834
:1000F0006B8400086B8400086B8400086B84000824
:100100006B8400086B840008AB5A00086B840008FD
:100110001D530008FF550008915B0008B75B0008FD
:100120006B8400086B8400086B8400086B840008F3
:100130006B8400086B8400086B8400087B4900080E
:10014000914900086B8400086B8400086B840008E8
:100150006B8400086B8400086B8400080D5800084D
:100160006B8400086B8400086B8400086B840008B3
:100170006B8400086B8400086B8400086B840008A3
:100180006B8400086B840008DFF810D008F034FDA1
:1001900000480047A1010008AFF30080382F00207D
:1001A00000F022F900F0D6F904E003480068401C92
:1001B00001490860F9E7000000000020704700BF17
:1001C000FEE700BFFEE700BFFEE700BFFEE77047A7
:1001D00070477047704700000CB5002001900090F8
:1001E0007648006840F480307449086000BF734866
:1001F000006800F4003000900198401C01900098C5
:1002000018B90198B0F5A06FF1D16C48006800F4FE
:10021000003010B10120009001E000200090009813
:10022000012846D165484030006840F0805063495D
:10023000403108606248006840F44040604908600E
:100240005E48083000685D4908310860084600686B
:1002500040F4004008600846006840F4A050086080
:100260005848091F0860081F006840F08070091F87
:10027000086000BF5148006800F000700028F9D005
:1002800040F20570504908604C480830006820F082
:1002900003004A49083108600846006840F002003F
:1002A000086000BF45480830006800F00C000828CE
:1002B000F8D10CBD10B54548006840F470004349C2
:1002C00008603E48006840F001003C49086000209A
:1002D0003A4908310860394800683D4908403749C3
:1002E00008603C48091D0860081F006820F4802051
:1002F000091F0860002031490C310860FFF76CFFCE
:100300004FF0006031498039086010BD70B50020A1
:100310000022022300240221284D08352D6805F013
:100320000C0020B1042806D0082834D107E02A4D5B
:100330002A4E356033E02A4D284E35602FE01F4DA0
:100340002D1D2D68C5F380541C4D2D1D2D6805F005
:100350003F0154B1224DB5FBF1F5184E361D3668FC
:10036000C6F3881605FB06F209E01B4DB5FBF1F557
:10037000124E361D3668C6F3881605FB06F20F4D81
:100380002D1D2D68C5F301456D1C6B00B2FBF3F507
:10039000124E356003E0104D104E356000BF00BFB7
:1003A000064D08352D68C5F303150E4E705D0B4DD7
:1003B0002D68C540094E356070BD00000038024010
:1003C0000070004008544007003C024088ED00E007
:1003D000FFFFF6FE103000240024F400040000208B
:1003E00000127A000800002010B54FF4A06005F05C
:1003F000FFFB04F0EFFA184804F012FB4FF4E13071
:1004000004F0FFFB4FF4E13004F04DFD4FF4E13018
:1004100004F098FE4FF4165004F0E7FF05F06EF973
:10042000002303220821104604F08CF90023032244
:100430000821104604F01FFA05F056FA05F081FA7B
:1004400005F0B4FA05F0CBFA05F040FB05F06FFBC0
:1004500005F020FA10BD0000A086010008B5414853
:100460000068401C3F490860086800EBD0714910E3
:10047000A0EB410109B902F023FC3A4800680321CE
:1004800090FBF1F201FB1200B8B93748B0F92E0029
:1004900000903548B0F92C30B0F92A20B0F9281076
:1004A000324803F08FF93048B0F92E0000231A4685
:1004B000194600902E4803F085F92A49086800EB98
:1004C000D0714910A0EB410101290DD12648B0F9A6
:1004D000260000902448B0F92430B0F92220B0F969
:1004E0002010224803F0E2F91E480068142190FB16
:1004F000F1F201FB120010B91E4804F08FF8194800
:1005000000680A2190FBF1F201FB120010B91A48B1
:1005100004F072F8134800684FF47A7190FBF1F21E
:1005200001FB120038B90421144806F0A1FB022196
:10053000124806F09DFB0B4800684FF4FA6190FBEF
:10054000F1F201FB1200012803D104210B4806F04F
:100550008DFB08BD10B500200249086000F010F8BE
:1005600010BD000018000020C801002000680040F5
:1005700000640040420100203E01002000080240CB
:1005800010B5A821FE4807F0BDFF0120FC49087303
:10059000002048730864B1EE041ADFEDFA0AB1EEE8
:1005A0000C0A0A234FF4FA520321F74802F02FFFF6
:1005B000B2EE041ADFEDF30A9FEDF40A4FF4FA737A
:1005C00043F698220321F24802F021FFB1EE041A0B
:1005D000DFEDEC0AB1EE0C0A0A234FF4FA520321C4
:1005E000E9484C3002F013FFB1EE001ADFEDE50AE6
:1005F0009FEDE80A4FF4FA7343F698220321E4488A
:100600004C3002F004FFB1EE001ADFEDDE0AB1EE6D
:100610000C0A0A234FF4FA520321DB48983002F007
:10062000F6FEB2EE001AF6EE000A9FEDD80A4FF47D
:10063000FA7343F698220321D548983002F0E7FE7A
:10064000B1EE001ADFEDD40AB1EE0C0A0A234FF422
:10065000FA520321CC48E43002F0D9FEB3EE041A7A
:10066000DFEDC80A9FEDC90A4FF4FA7343F69822EA
:100670000321C748E43002F0CAFE002414E004EB72
:10068000440101EB0411C54A02EB81009FEDC41A3D
:10069000DFEDC30A9FEDC30A4FF47A6343F6982255
:1006A000032102F0B4FE641C042CE8DB9FEDBE1AAB
:1006B000DFEDBB0A9FEDBD0A0A234FF4167203213A
:1006C000BB4802F0A4FE10BD00B52DED0A8B89B029
:1006D000B0EE409A002022E000EB400101EB001157
:1006E000AE4A02EB810191ED000A00EB400101EB03
:1006F000001102EB8101D1ED020A70EE200AA0493F
:10070000983131F9101000EE101AB8EEC00A20EE40
:10071000800A05A901EB800181ED000A401C042834
:10072000DADB002046E000EB400101EB00119B4AC0
:1007300002EB810191ED090A00EB400101EB001190
:1007400002EB8101D1ED000AB1EE601A8C49A031B3
:1007500031F9101000EE901AF8EEE00A01EE200ACE
:1007600000EB400101EB001102EB810191ED021A57
:100770008349A03131F9101000EE901AF8EEE00A2A
:1007800001EE600A00EB400101EB001102EB810178
:10079000D1ED020A00EB400101EB001102EB8101F7
:1007A00091ED061A00EEC10A01A901EB800181ED6D
:1007B000000A401C0428B6DB9DED050A20EE000A65
:1007C000DDED060A9DED061A00EE810ADDED070A51
:1007D0009DED071A00EE810ADDED080A9DED081A6D
:1007E00000EE810ADFED730A20EE208A9DED050AF6
:1007F000DDED010A20EE200ADDED060A9DED021A6C
:1008000000EE810ADDED070A9DED031A00EE810A74
:10081000DDED080A9DED041A00EE810ADFED660A9F
:1008200020EE200ADDED050A9DED061A70EE810A24
:100830009DED071A70EE810A9DED081A70EE810A8F
:100840009FED5E1A01EE200A9DED051A4C48B0F9A5
:10085000A00000EE900AF8EEE00A61EE200ADDED5D
:10086000061A4748B0F9A20001EE100AB8EEC11A04
:1008700041EE810ADDED071A4148B0F9A40001EE0E
:10088000100AB8EEC11A41EE810ADDED081A3C48A3
:10089000B0F9A60001EE100AB8EEC11A41EE810AC5
:1008A0009FED471AF0EE408A41EE208A9DED010A45
:1008B00020EE000ADDED020A9DED021A00EE810A2B
:1008C000DDED030A9DED031A00EE810ADDED040A59
:1008D0009DED041A00EE810ADFED360A20EE200AB3
:1008E000DDED010A9DED021A70EE810A9DED031AFD
:1008F00070EE810A9DED041A70EE810A9FED2F1AA9
:1009000000EE810A9DED011A1D48B0F9A00000EE2D
:10091000900AF8EEE00A61EE200ADDED021A1848AE
:10092000B0F9A20001EE100AB8EEC11A41EE810A38
:10093000DDED031A1248B0F9A40001EE100AB8EE7A
:10094000C11A41EE810ADDED041A0D48B0F9A60086
:1009500001EE100AB8EEC11A41EE810A9FED181A95
:1009600001EE200ADFED170A30EE200A70EE499AF8
:1009700028EEA80AF1EE000A68EE200A24E0000042
:10098000C8010020CDCCCC3DBC1300200000484362
:100990001C16002000003443CDCCCC3E4C17002068
:1009A000000000000000B4420000484200009643EE
:1009B000B00E002058DF2C3458DFAC346019C0B7BB
:1009C00062BEBC37FA7EEA3F00EEE90A10EE101A6A
:1009D000084607F079FF41EC1C0B9FEDF80B53EC38
:1009E000102B07F0ACFD41EC1B0BB0EE4B0AF0EE08
:1009F0006B0A08F099FEB0EE40AAF0EE60AA51EC46
:100A00001A0B07F0A5FF00EE100AF1EE680A70EE6F
:100A1000200AB0EE000A28EE001A80EE810A09B022
:100A2000BDEC0A8B00BD10B52DED108B8CB00024F1
:100A300098E0E44931F9141001EE101AB8EEC11A29
:100A4000F0EE410ADF49083131F9141001EE101AB5
:100A5000B8EEC11AB0EE410A04EB440101EB0411F7
:100A6000D94A02EB810002F0DBFAD84800EB84009F
:100A700080ED000AD54800EB840090ED000ADFED20
:100A8000D40AB4EEE00AF1EE10FA07D89FEDD00ACE
:100A9000CE4800EB840080ED000A12E0CB4800EB6A
:100AA000840090ED000ADFEDCB0AB4EEE00AF1EE2F
:100AB00010FA06DB9FEDC70AC44800EB840080ED06
:100AC000000AC24800EB840090ED000A04EB4400E9
:100AD00000EB0410BC4901EB8000D0ED040A20EECD
:100AE000200ABD48D0ED000A20EE200ABB4800EBEA
:100AF000840080ED000AB54800EB840090ED000A08
:100B0000B748D0ED000A20EE200AB04800EB840080
:100B1000D0ED000A20EE200AAC4800EB8400D0EDB6
:100B2000000AB04890ED001A01EE200AAE48D0ED60
:100B3000000A30EE200AAD4800EB840080ED000A88
:100B4000A64800EB840090ED000AA84800EB840062
:100B5000D0ED000A30EE200AA54800EB840080EDBD
:100B6000000A641C042CFFF664AFA14890ED000A53
:100B7000D0ED010A30EE200AD0ED020A30EE200A54
:100B8000D0ED030A30EE200A9A4880ED000A90ED7D
:100B9000000AB5EEC00AF1EE10FA04D81FED800A83
:100BA00080ED000A0DE0934890ED000ADFED920A17
:100BB000B4EEE00AF1EE10FA03DB9FED8F0A80ED50
:100BC000000A8C4890ED000ABCEEC00A10EE100A34
:100BD0008A49088008460088002802DC0020088036
:100BE00015E08648008800EE100AB8EE400A8448F6
:100BF000D0ED000AB4EEE00AF1EE10FA07DB90ED5A
:100C0000000ABCEEC00A10EE100A7C4908807D483C
:100C100000887A490988401A7B490880754890ED18
:100C2000000A7748D0ED000AB4EEE00AF1EE10FABF
:100C30007EDD0024F6E06E4800EB840090ED000AB3
:100C40006F48D0ED000A20EE200A6A48D0ED000A75
:100C500080EE201A6D4800EB840080ED001A644895
:100C600000EB840090ED000A5F48D0ED000AB4EE7E
:100C7000E00AF1EE10FA7CDD5D4800EB840090EDB7
:100C8000000A624800EB8400D0ED000AB4EEE00AEE
:100C9000F1EE10FA6DDD524890ED000A08A800EB65
:100CA000840080ED000A04EB440000EB0410464988
:100CB00001EB8000D0ED040A4A4890ED000A464856
:100CC00090ED001A01EE200A04A800EB840080EDEC
:100CD000000A4E4800EB840090ED000A4248D0ED37
:100CE000000A30EEC00A684600EB840080ED000A7E
:100CF000364800EB840090ED000A10EE101A08460A
:100D000007F0E2FD41EC190B08A800EB840090ED20
:100D1000000AF0EE000A20EE200A10EE101A084633
:100D200007F0D2FD41EC1B0B04A800EB840000E0AF
:100D30007CE090ED000A20EE000A08A800EB840099
:100D4000D0ED000AB1EE001A60EE810A684600EBB1
:100D5000840090ED001A00EEC10A10EE101A084649
:100D600007F0B2FD41EC1F0BB0EE4F0AF0EE6F0A38
:100D700000E04FE008F0D8FCB0EE40DAF0EE60DAC8
:100D800004A800EB840090ED000AB1EE400A10EEDA
:100D9000101A084607F098FD53EC1D2B07F0CFFB07
:100DA00053EC1B2B07F0E4FC53EC192B07F0E0FC91
:100DB00007F0CEFD164941F8240032E000000000A3
:100DC0000000F03F300200201C160020200300200D
:100DD00000401CC600401C46940000203003002048
:100DE000980000209C000020A0000020400300206C
:100DF000500300208000002000007A4462000020A0
:100E0000740000205E0000206000002060030020CD
:100E100090030020B7EE000AF84800EB840080ED54
:100E2000000A641C042CFFF606AF0BE0002007E06C
:100E3000B7EE000AF14901EB800181ED000A401C88
:100E40000428F5DB002025E0EC4901EB800191ED61
:100E5000000AB5EEC00AF1EE10FA07D89FEDE80AD5
:100E6000E64901EB800181ED000A12E0E34901EB64
:100E7000800191ED000AF7EE000AB4EEE00AF1EE0F
:100E800010FA06DBB7EE000ADC4901EB800181EDC8
:100E9000000A401C0428D7DB0CB0BDEC108B10BD41
:100EA000F0EE400AB3EE001AB3EE0E0A10EE810A1D
:100EB000D44880ED000A90ED000AB5EEC00AF1EECC
:100EC00010FA04D89FEDCE0A80ED000A15E0B3EECB
:100ED000001AB3EE0E0A10EE810ACA4890ED001A0D
:100EE000B4EEC10AF1EE10FA07D8B3EE001AB3EE71
:100EF0000E0A10EE810A80ED000AB7EE000AC24821
:100F000080ED000ABF4890ED000A704710B52DED46
:100F1000028BBE48C07901286AD1BC48807803287A
:100F200044D1BB48D0F82610084607F0CDFC41EC70
:100F3000180B9FEDB80B53EC102B07F0F1FC13D2FC
:100F4000B348D0F8260000EE100AFFF7A9FFB34817
:100F500080ED000AFFF767FD9FEDB10AFFF7B4FBD4
:100F6000B04880ED000A8DE0A948D0F8260000EED8
:100F7000100AFFF795FFA94880ED000AFFF753FD1F
:100F8000A64890ED001AA848008800EE900AF8EEF6
:100F9000600A71EE600AB0EE600AFFF795FBA148A7
:100FA00080ED000A0120A14908706BE09848D0F854
:100FB000260000EE100AFFF773FF984880ED000A44
:100FC000FFF731FD954890ED001A9748008800EE34
:100FD000900AF8EE600A71EE600AB0EE600AFFF760
:100FE00073FB904880ED000A01209049087049E0A9
:100FF00086488078022821D18548D0F8260000EE66
:10100000100AFFF74DFF854880ED000AFFF70BFD42
:10101000824890ED001A8448008800EE900AF8EEAD
:10102000600A71EE600AB0EE600AFFF74DFB7D4882
:1010300080ED000A01207D49087023E073480079A3
:10104000801E00EE900AF8EEE00AB0EE600AFFF7AC
:1010500027FF724880ED000AFFF7E5FC6B48007936
:10106000801E71490988401A00EE900AF8EEE00AE5
:10107000B0EE600AFFF728FB6A4880ED000A022004
:101080006A490870604890ED000AB5EEC00AF1EEBA
:1010900010FA04D89FED5A0A80ED000A0DE05A4874
:1010A00090ED000AF7EE000AB4EEE00AF1EE10FA55
:1010B00003DBB7EE000A80ED000A5A4890ED000A03
:1010C000B5EEC00AF1EE10FA04D89FED4D0A80ED9E
:1010D000000A0DE0534890ED000AF7EE000AB4EE66
:1010E000E00AF1EE10FA03DBB7EE000A80ED000A29
:1010F000BDEC028B10BDDFED4E0AB4EEE00AF1EE5E
:1011000010FA06DBDFED4A0A70EE600AB0EE600A04
:101110000AE0B5EEC00AF1EE10FA05D2DFED440A9E
:1011200070EE200AB0EE600A704710B52DED0A8B04
:10113000B0EE409AF0EE609AB0EE418A9FED3D0B22
:1011400053EC102B51EC190B07F0A0FA41EC1C0BDF
:101150009FED3A0B53EC102B07F098FA41EC1B0B68
:101160009FED381BB0EE4B0AF0EE6B0A08F02EF93B
:10117000B0EE40AAF0EE60AA51EC1A0B07F0E8FBC3
:1011800008EE100AB5EEC08AF1EE10FA05D29FED16
:10119000280A38EE000AB0EE408A18EE100A07F06E
:1011A00093FB41EC100BBDEC0A8B10BD9FED140AB4
:1011B000264880ED010A9FED120A80ED000A9FED9E
:1011C000100A80ED020A9FED0E0A214880ED120AF6
:1011D000704710B51E4890ED130ADFED1E0AB4EEFD
:1011E000E00AF1EE10FA37DB90ED130ADFED100A9A
:1011F00030EE600A80ED140A33E000009003002016
:1012000000000000A8000020700000201E23002025
:10121000BA230020000000000000294074000020D4
:101220000000D7436C00002062000020A4000020D2
:10123000DB0FC940000000000000F0BF000000A06C
:1012400046DF913F00000060FB211940C8010020EB
:1012500068010020DB0F4940FE4890ED130A80ED45
:10126000140AFD48B0F90C0000EE100AB8EEC00AEE
:10127000FA4880ED010AF848B0F90A0000EE100AB9
:10128000B8EEC00AF54880ED000AF34880780328DC
:1012900005D11FED250AF24880ED000A04E01FED9C
:1012A000280AEF4880ED000AEA48D0ED140AB0EEB3
:1012B000600AEB4890ED001A5FED2F0AE94801F053
:1012C0004BFDB1EE400AE34880ED120A10BDE24842
:1012D000B0F90C0000EE100AB8EEC00ADF4880ED4D
:1012E000010ADD48B0F90A0000EE100AB8EEC00AA3
:1012F000DA4880ED000A1FED3E0AD64880ED120A5A
:101300007047D44890ED130A5FED2E0AB4EEE00A60
:10131000F1EE10FA08DB90ED130A5FED3B0A30EEB8
:10132000600A80ED140A04E0CA4890ED130A80EDCB
:10133000140AC9488078032804D140F22620CA49FB
:10134000088003E04FF4E170C7490880C248B0F953
:101350000C0000EE100AB8EEC00AC04880ED010A89
:10136000BD48B0F90A0000EE100AB8EEC00ABB484A
:1013700080ED000A407B07280DD0BC48007818B9E2
:101380000120BA49087006E0B8480078012802D167
:101390000020B6490870B548007850B9B2480088B6
:1013A000404200EE100AB8EEC00AAA4880ED120AC8
:1013B0000CE0AE480078012808D1AB48008800EE68
:1013C000100AB8EE400AA34880ED120A704710B523
:1013D000A148B0F90C0000EE100AB8EEC00A9F4810
:1013E00080ED010A9C48B0F90A0000EE100AB8EE40
:1013F000C00A9A4880ED000A964890ED130A5FED06
:10140000740AB4EEE00AF1EE10FA08DB90ED130A6C
:101410005FED790A30EE600A80ED140A04E08D4831
:1014200090ED130A80ED140A8A48D0ED140AB0EE4C
:10143000600A8B4890ED001A5FED8F0A894801F031
:101440008BFC844880ED120A10BD10B52DED108B79
:10145000804890ED140A864880ED000A00247FE160
:10146000C4EB041101EB4101872202EB410007F0BC
:10147000EEF99FED800B53EC102B07F007F99FED71
:101480007F0B53EC102B07F073F941EC1D0BB0EE02
:101490004D0AF0EE6D0A07F083FEB0EE40BAF0EEB2
:1014A00060BA6C4890ED120A10EE101A084607F068
:1014B0000BFA53EC1B2B07F0E9F841EC190B6C48C5
:1014C00090ED000AB1EE400A10EE100A07F0FCF9A8
:1014D00041EC1F0BB0EE4F0AF0EE6F0A07F0F8FF79
:1014E000B0EE40DAF0EE60DA5C4890ED010A10EE02
:1014F000101A084607F0E8F953EC1D2B07F0C6F860
:1015000041EC1B0B5A4890ED000AB1EE400A10EE78
:10151000100A07F0D9F941EC1F0BB0EE4F0AF0EEBC
:101520006F0A07F03DFEB0EE40DAF0EE60DA4B48AD
:1015300090ED000A10EE101A084607F0C5F953ECBA
:101540001D2B07F0A3F853EC1B2B07F099F853EC75
:10155000192B07F095F807F0FBF94A4941F82400E8
:10156000C4EB041101EB41012D2202EB410007F015
:101570006EF99FED400B53EC102B07F087F89FEDB1
:101580003F0B53EC102B07F0F3F841EC1D0BB0EEC2
:101590004D0AF0EE6D0A07F003FEB0EE40BAF0EE31
:1015A00060BA2C4890ED120A10EE101A084607F0A7
:1015B0008BF953EC1B2B07F069F841EC190B2C4805
:1015C00090ED000AB1EE400A10EE100A07F07CF927
:1015D00041EC1F0BB0EE4F0AF0EE6F0A07F0E0FD92
:1015E000B0EE40DAF0EE60DA1C4890ED010A10EE41
:1015F000101A084607F068F953EC1D2B07F046F85F
:1016000041EC1B0B1A4890ED000AB1EE400A10EEB7
:10161000100A07F059F941EC1F0BB0EE4F0AF0EE3B
:101620006F0A07F055FFB0EE40DAF0EE60DA0B48D3
:1016300090ED000A10EE101A084607F045F953EC39
:101640001D2B07F023F853EC1B2B06F078FF53EC0F
:10165000192B19E0680100201E230020C80100207A
:1016600030000020B00E0020580000205A0000205A
:10167000D40000201F85EB51B81E09400000000077
:1016800000806640D003002006F0FAFF07F060F902
:10169000FE4941F82400FE4800EB840090ED000A6A
:1016A00010EE101A084607F00FF941EC1B0BF74833
:1016B00000EB840090ED000A10EE101A084607F0C7
:1016C00003F941EC1C0BB0EE4B1AF0EE6B1AB0EEC6
:1016D0004C0AF0EE6C0A07F063FCB0EE40AAF0EEA4
:1016E00060AA1FED1A0B53EC102B51EC1A0B06F0ED
:1016F000CDFF1FED200B53EC102B07F039F807F04E
:1017000027F9E44941F82400E04800EB840090ED1B
:10171000000A20EE000ADE4800EB8400D0ED000A4B
:10172000DB4800EB840090ED001A00EE810A10EE19
:10173000101A084607F0C8F841EC190BB0EE490A38
:10174000F0EE690A07F0F0FFB0EE408AF0EE608A32
:1017500051EC180B07F0FCF8CF4941F82400641C49
:10176000042CFFF67DAE002019E0CB4901EB80018F
:1017700091ED000ABDEEC00A10EE101A0AB2C74978
:1017800021F81020C34901EB800191ED000AC34903
:10179000183901EB800181ED000A411CC8B2042810
:1017A000E3DBBDEC108B10BD30B52DED108B85B09B
:1017B0009FEDBB0AF0EE408A9FEDB90AB0EE408A79
:1017C0009FEDB70AB0EE40FA9FEDB50AF0EE40FA91
:1017D00000200190029003900490B048403890EDB2
:1017E000140AB1EE400AB0EE409AAE48007B0728DA
:1017F00013D1AD480078012806D19FEDAC0A39EE2F
:10180000000AB0EE409A08E0A748007828B99FED9A
:10181000A70A39EE400AB0EE409A0024C3E0B0EEC9
:1018200068FAF0EE48FAB0EE490A07F01DFD9D484F
:10183000D0ED000A20EE20AAB0EE490A07F0ACFE77
:101840009848D0ED010A00EEC0AA00EE104AB8EEAA
:10185000400ADFED970A60EE200AB0EE001A80EE33
:10186000810ADFED940A30EE200AF0EE409A07F08C
:10187000FBFC8A484038D0ED120A00EE80AAF0EE58
:101880004A8AB0EE490A07F087FE8648D0ED000A82
:1018900020EE20AAB0EE490A07F0E6FC8148D0ED20
:1018A000010A00EE80AA00EE104AB8EE400ADFED11
:1018B000800A20EE200AB0EE001AC0EE010A9FED69
:1018C0007D0A30EE800AF0EE409A07F065FE73481C
:1018D0004038D0ED120A00EE80AAB0EE4A8A4030BD
:1018E00030F9140000EE100AB8EEC00A01A800EBAF
:1018F000840080ED000A28EEA80A08EE080A10EE1F
:10190000101A084606F0E0FF41EC1B0BB0EE4B0A44
:10191000F0EE6B0A07F008FFB0EE40AAF0EE60AA06
:1019200051EC1A0B06F0B1FF01B25C4820F814101C
:1019300018EE900A06F0C8FF41EC1D0B18EE100AD5
:1019400006F0C2FF41EC1E0BB0EE4D1AF0EE6D1A20
:10195000B0EE4E0AF0EE6E0A07F022FBB0EE40CA7F
:10196000F0EE60CA51EC1C0B06F0F2FF00EE100A1C
:10197000DFED510A20EE200A10EE105A284606F03C
:10198000A3FF41EC1B0B1FEDC50B53EC102B06F016
:10199000EFFE41EC1A0B06F0DBFF4049183941F825
:1019A0002400601CC4B2042CFFF639AF4348C0EDDC
:1019B000008A434880ED008A05B0BDEC108B30BD35
:1019C00010B5FFF7F1FE10BD10B52DED0C8BB0EE8C
:1019D000408AF0EE608AB0EE419AF0EE619A2F48AC
:1019E000403890ED120AB5EEC00AF1EE10FA28D098
:1019F00090ED120A10EE101A084606F065FF41EC51
:101A00001D0BB0EE4D0AF0EE6D0A07F0D5FCB0EEFE
:101A100040BAF0EE60BA2148403890ED090A10EE65
:101A2000101A084606F050FF41EC1C0B53EC1B2B20
:101A300006F09EFE41EC1A0B06F08AFF2149086071
:101A400004E09FED170A1F4880ED000A1E4890ED44
:101A5000000A07F0A1FD1B48D0ED000A20EE200A85
:101A600010EE104A204606F02FFF41EC1B0B51EC04
:101A7000180B81F0004141EC1D0B9FED140B53EC52
:101A8000102B06F075FE41EC1C0B23E0E003002058
:101A9000D0030020B0030020C0030020A8010020D4
:101AA00000000000C80100205A000020920A863E73
:101AB000DB0F4940DB0F49BF00003443AC0000207E
:101AC000B00000203400002038000020000000009A
:101AD0000000004053EC1B2B06F031FD41EC1A0BCB
:101AE00006F036FFFE490860FE4890ED000A07F058
:101AF00053FDFD48D0ED000A20EE200A10EE104AFA
:101B0000204606F0E1FE41EC1B0B1FED100B53ECE1
:101B1000102B51EC180B06F02BFE41EC1C0B53EC78
:101B20001B2B06F00CFD41EC1A0B06F011FFEF49E0
:101B30000860EC4890ED000A07F096FBEA48D0ED0B
:101B4000000A20EE200A10EE104A204606F0BCFEE5
:101B500041EC1B0B51EC190B81F0004141EC1D0BCA
:101B60001FED260B53EC102B06F002FE41EC1C0B74
:101B700053EC1B2B06F0E3FC41EC1A0B06F0E8FEDD
:101B8000DB490860D74890ED000A07F06DFBD648A6
:101B9000D0ED000A20EE200A10EE104A204606F092
:101BA00093FE41EC1B0B1FED370B53EC102B51EC4C
:101BB000190B06F0DDFD41EC1C0B53EC1B2B06F062
:101BC000BEFC41EC1A0B06F0C3FECA490860CA48C5
:101BD000007B072825D1C948007801280ED1C848C4
:101BE00090ED080AD0ED130A30EE600ADFEDC50A69
:101BF00030EE600ABB4880ED000AB8E0BF480078CC
:101C000000280DD1BE4890ED080AD0ED130A30EE41
:101C1000600ADFEDBC0A30EE200AB24880ED000A0F
:101C2000A5E0B74890ED140A5FED5E0AB4EEE00A55
:101C3000F1EE10FA20DD90ED140ADFEDB30AB4EEF8
:101C4000E00AF1EE10FA17D8D0ED140AB0EE600AEF
:101C50005FED6D0AAD4801F0E3F9B1EE400AA84826
:101C600080ED120A90ED080AD0ED130A30EE600AFA
:101C70009C4880ED000A7AE0A14890ED140ADFED5F
:101C8000A20AB4EEE00AF1EE10FA24DD90ED140A97
:101C9000DFED9F0AB4EEE00AF1EE10FA1BD8D0EDAA
:101CA000140AB0EE600ADFED9B0A984801F0B8F91B
:101CB000B1EE400A924880ED120A90ED080AD0ED8C
:101CC000130A30EE600ADFED940A30EE200A8548F0
:101CD00080ED000A4BE08A4890ED140ADFED8C0A93
:101CE000B4EEE00AF1EE10FA08DA90ED140ADFED36
:101CF0008B0AB4EEE00AF1EE10FA1CD28048D0ED67
:101D0000130AB0EE600A5FED960A804801F088F988
:101D1000B1EE400A7A4880ED120A90ED080AD0ED43
:101D2000130A30EE600ADFED7C0A30EE200A6D48BF
:101D300080ED000A1BE07248D0ED140AB0EE600A94
:101D4000DFED770A714801F06BF9B1EE400A6C489B
:101D500080ED120A90ED080AD0ED130A30EE600A09
:101D6000DFED6D0A30EE600A5E4880ED000A6448DF
:101D700090ED080ADFED670AB4EEE00AF1EE10FA22
:101D800012DB90ED080A5FEDB60AB4EEE00AF1EE60
:101D900010FA09D2534890ED000ADFED5E0A30EEEA
:101DA000600A80ED000A38E0554890ED080A5FEDC2
:101DB000C00AB4EEE00AF1EE10FA12DB90ED080A68
:101DC000DFED580AB4EEE00AF1EE10FA09D2454808
:101DD00090ED000A5FEDCA0A30EE600A80ED000A5D
:101DE0001BE0474890ED080ADFED4E0AB4EEE00A2A
:101DF000F1EE10FA11DB90ED080ADFED470AB4EEC0
:101E0000E00AF1EE10FA08D2364890ED000ADFED54
:101E1000450A30EE600A80ED000A364890ED000A6F
:101E200020EE000A3148D0ED000A90ED001A00EED5
:101E3000810A10EE101A084606F046FD41EC1B0B15
:101E4000B0EE4B0AF0EE6B0A07F06EFCB0EE40AA63
:101E5000F0EE60AA51EC1A0B06F07AFD32494860A8
:101E6000234890ED000A20EE000A2048D0ED000A39
:101E700090ED001A00EE810A10EE101A084606F0E6
:101E800023FD41EC1A0BB0EE4A0AF0EE6A0A07F0A5
:101E90004BFCB0EE40BAF0EE60BA51EC1B0B06F012
:101EA00057FD21498860124890ED000A20EE000A93
:101EB0000B48D0ED000A90ED001A00EE810A10EEFA
:101EC000101A084606F000FD41EC1B0BB0EE4B0A61
:101ED000F0EE6B0A07F028FCB0EE40AA26E0000006
:101EE000C00000203800002034000020C400002082
:101EF000C8000020CC000020C80100205A000020AB
:101F0000680100205077563EDB0F493FB00E00209D
:101F1000E4CB1640DB0FC93FDB0FC940E4CB16C052
:101F2000DB0FC9BFE4CB964080020020F0EE60AA30
:101F300051EC1A0B06F00CFDFE49C860FE4890ED0E
:101F4000000A20EE000AFD48D0ED000A90ED001ACC
:101F500000EE810A10EE101A084606F0B5FC41ECBE
:101F60001B0BB0EE4B0AF0EE6B0A07F0DDFBB0EE98
:101F700040AAF0EE60AA51EC1A0B06F0E9FCED491C
:101F80000860ED48006806F09FFC41EC1B0BEC4834
:101F9000006806F099FC41EC1C0BB0EE4B1AF0EE19
:101FA0006B1AB0EE4C0AF0EE6C0A06F0F9FFB0EED8
:101FB00040AAF0EE60AA51EC1A0B06F0C9FCE14908
:101FC0004860E148006806F07FFC41EC1B0BDC48F0
:101FD000006806F079FC41EC1C0BB0EE4B1AF0EEF9
:101FE0006B1AB0EE4C0AF0EE6C0A06F0D9FFB0EEB8
:101FF00040AAF0EE60AA51EC1A0B06F0A9FCD149F8
:102000008860D148006806F05FFC41EC1B0BCB48B0
:10201000006806F059FC41EC1C0BB0EE4B1AF0EED8
:102020006B1AB0EE4C0AF0EE6C0A06F0B9FFB0EE97
:1020300040AAF0EE60AA51EC1A0B06F089FCC149E7
:10204000C860BD48006806F03FFC41EC1B0BBB4874
:10205000006806F039FC41EC1C0BB0EE4B1AF0EEB8
:102060006B1AB0EE4C0AF0EE6C0A06F099FFB0EE77
:1020700040AAF0EE60AA51EC1A0B06F069FCB149D7
:102080000860B24890ED080A5FED5E0AB4EEE00A1F
:10209000F1EE10FA55DB90ED080ADFEDAD0AB4EE73
:1020A000E00AF1EE10FA4CD2A24890ED030AA948DA
:1020B00080ED000A9F4890ED000AA64880ED010AD5
:1020C0009C4890ED010AA34880ED020A994890EDE2
:1020D000020AA04880ED030A084690ED030A9E48D4
:1020E00080ED000A084690ED000A9B4880ED010A49
:1020F000084690ED010A984880ED020A084690EDE6
:10210000020A954880ED030A002018E0914901EB8E
:10211000800191ED000A874901EB800181ED000A01
:102120008D4901EB800191ED000A5FED860A30EEEA
:10213000200A844901EB800181ED000A401C04283B
:10214000E4DB824890ED080ADFED810AB4EEE00A94
:10215000F1EE10FA55DB90ED080A5FED8E0AB4EE51
:10216000E00AF1EE10FA4CD2724890ED020A79487A
:1021700080ED000A6F4890ED030A764880ED010A71
:102180006C4890ED000A734880ED020A694890EDB2
:10219000010A704880ED030A6A4890ED020A6E4811
:1021A00080ED000A674890ED030A6B4880ED010A54
:1021B000644890ED000A684880ED020A614890ED9D
:1021C000010A654880ED030A002018E0614901EB2F
:1021D000800191ED000A574901EB800181ED000A71
:1021E0005D4901EB800191ED000ADFED590A30EE07
:1021F000200A544901EB800181ED000A401C0428AB
:10220000E4DB524890ED080A5FEDBA0AB4EEE00A4A
:10221000F1EE10FA55DB90ED080A5FEDC10AB4EE5D
:10222000E00AF1EE10FA4CD2424890ED010A49481A
:1022300080ED000A3F4890ED020A464880ED010A11
:102240003C4890ED030A434880ED020A394890ED7E
:10225000000A404880ED030A3A4890ED010A3E48E2
:1022600080ED000A374890ED020A3B4880ED010AF4
:10227000344890ED030A384880ED020A314890ED69
:10228000000A354880ED030A002018E0314901EBCF
:10229000800191ED000A274901EB800181ED000AE0
:1022A0002D4901EB800191ED000A5FEDE20A30EE6D
:1022B000200A244901EB800181ED000A401C04281A
:1022C000E4DB224890ED120AB5EEC00AF1EE10FAF6
:1022D0005FD2184890ED020A1E4880ED000A1548AA
:1022E00090ED030A1B4880ED010A124890ED000AA8
:1022F000184880ED020A0F4890ED010A154880ED5C
:10230000030A104890ED020A134880ED000A0D48B8
:1023100090ED030A104880ED010A0A4890ED000A8A
:102320000D4880ED020A074890ED010A0A4880ED49
:10233000030A13E080020020CC000020C00000202F
:10234000C400002090020020C80000206801002086
:10235000DB0F4940C0020020D0020020002016E020
:10236000F74901EB800191ED000AB1EE400AF54911
:1023700001EB800181ED000AF34901EB800191ED51
:10238000000AF24901EB800181ED000A401C04289B
:10239000E6DBEF4890ED120AB5EEC00AF1EE10FA56
:1023A00037D1EC4890ED000AB5EEC00AF1EE10FA14
:1023B00006D190ED010AB5EEC00AF1EE10FA28D070
:1023C000B7EE000ADF4880ED000AB7EE000A80EDA4
:1023D000010AB7EE000A80ED020AB7EE000A80EDAE
:1023E000030ADB4890ED140AD84880ED000AD8486B
:1023F00090ED140AD54880ED010AD54890ED140AF5
:10240000D24880ED020AD24890ED140ACF4880ED00
:10241000030A002026E0CB4901EB800191ED000A80
:10242000CB49D1ED120A20EE200ADFEDCB0A20EED7
:10243000200ABDEEC00A10EE101A0AB2C44940319B
:1024400021F81020C14901EB800191ED000ADFED78
:10245000C30A20EE200ABE49283101EB800181ED3C
:10246000000A401C0428D6DBBDEC0C8B10BD10B557
:102470002DED028B002440E004EB440000EBC4008F
:10248000B74901EBC00090ED121BB0EE410AF0EE2F
:10249000610A9FEDB41B53EC112B51EC100B06F0AD
:1024A000F5F806F055FA0146AA48583040F82410CD
:1024B000A748283000EB8400D0ED000AAB4850F864
:1024C0002400B421484300EE100AB8EEC00A30EEF2
:1024D000800AA048483000EB840080ED000AA44840
:1024E00030F824009A49403131F81410484301B2C1
:1024F0009748403020F81410641C042CBCDB94482E
:10250000B0F84000404200B29149A1F840000846AE
:10251000B0F84200404201B28D48A0F84210B0F835
:102520004400404201B28A48A0F84410B0F9460085
:102530008749A1F846000020ABE08649483101EB0D
:10254000800191ED000A8349583101EB8001D1ED02
:10255000000A30EE600ADFED870AB4EEE00AF1EE21
:1025600010FA23DD7B49483101EB800191ED000A2F
:102570007849583101EB8001D1ED000A30EE600A54
:10258000DFED7D0AB4EEE00AF1EE10FA0ED27749E3
:1025900051F82010491E754A42F82010744951F82C
:1025A00020104942724A42F8201071E069494831CE
:1025B00001EB800191ED000A6649583101EB800181
:1025C000D1ED000A30EE600ADFED6B0AB4EEE00AEE
:1025D000F1EE10FA07DD654951F82010891E634AB3
:1025E00042F8201054E05B49483101EB800191ED45
:1025F000000A5849583101EB8001D1ED000A30EE54
:10260000600ADFED5E0AB4EEE00AF1EE10FA23D2C2
:102610005049483101EB800191ED000A4D49583194
:1026200001EB8001D1ED000A30EE600ADFED540AC3
:10263000B4EEE00AF1EE10FA0EDD4C4951F820102C
:10264000491C4A4A42F82010494951F82010494291
:10265000474A42F820101BE03E49483101EB800117
:1026600091ED000A3B49583101EB8001D1ED000AA0
:1026700030EE600ADFED420AB4EEE00AF1EE10FA45
:1026800006D23A4951F82010891C384A42F82010E5
:10269000401C0428FFF651AF002419E02D494831B1
:1026A00001EB840191ED001AF0EE410A29495831FD
:1026B00001EB840191ED001AB0EE410A04EB4401F4
:1026C00001EB04112F4A02EB810000F0A9FC641C0D
:1026D000042CE3DB1F48007B032803D01D48007B4C
:1026E00007282AD100200FE000EB400101EBC001D8
:1026F0001B4A02EBC101B1F8401049420AB2154928
:10270000703121F81020401C0428EDDB002012E07D
:1027100000EB400101EB00111A4A02EB810191ED3F
:102720000B0ABDEEC00A10EE101A0AB20949683150
:1027300021F81020401C0428EADBBDEC028B10BD00
:10274000C002002080020020D00200209002002061
:1027500068010020C8010020CDCCCC3EE12E6542AE
:10276000C8180020000000000000F0BFF0030020A7
:10277000D80000200000B442000087430000B4C22B
:10278000000087C3BC13002010B52DED048BFFF7AC
:102790006EFE0024DFE004EB440000EBC401FE48C1
:1027A00000EBC100B0F84010FC4820F81410FC48C1
:1027B00030F81410F948083820F81410F848403858
:1027C00090ED090AB5EEC00AF1EE10FA20D190EDB5
:1027D000120A10EE101A084606F076F841EC190BB2
:1027E000B0EE490AF0EE690A06F0E6FDB0EE408A66
:1027F000F0EE608A9FEDEB0B53EC102B51EC180BB5
:1028000006F076F804D20021E448083820F81410C5
:10281000E64901EB8401D1ED001AE049383931F97C
:10282000141001EE101AB8EEC11A21EE811AF0EE62
:10283000410ADA49303931F9141001EE101AB8EEB4
:10284000C11AB0EE410A04EB440101EB0411D84A6D
:1028500002EB810000F0E4FBD049083931F9141093
:1028600001EE101AB8EEC11AD249D1ED001A21EECC
:10287000211AF0EE410AC94931F9141001EE101A7B
:10288000B8EEC11AB0EE410A04EB440101EB0411A9
:10289000C94A02EB810000F0C3FBC048A03890EDAC
:1028A000000AB5EEC00AF1EE10FA40D190ED010A2F
:1028B000B5EEC00AF1EE10FA39D1B948403890EDC2
:1028C000120A10EE101A084605F0FEFF41EC190B33
:1028D000B0EE490AF0EE690A06F06EFDB0EE408AED
:1028E000F0EE608A9FEDB50B53EC102B51EC180BFA
:1028F00005F0FEFF1BD2B3480068401CB1490860D8
:1029000008460068B0F5FA7F24D200200CE09FED65
:10291000AE0A00EB400101EB0011A54A02EB810178
:1029200081ED0B0A411CC8B20428F0DB12E09B4881
:10293000A03890ED000AB5EEC00AF1EE10FA06D10B
:1029400090ED010AB5EEC00AF1EE10FA02D00020B7
:102950009C490860641C042CFFF61DAF002026E093
:102960008E49A039097B032904D08C49A039097B01
:10297000072916D100EB400101EB00118E4A02EB52
:10298000810191ED0B0AF7EE000A20EE200ABDEE60
:10299000C00A10EE101A0AB28049803921F81020BE
:1029A00004E000227D49803921F81020401C0428D1
:1029B000D6DB7A4CA03CB4F99830002B01DB1C46E6
:1029C00000E05C42322C24DA744CA03CB4F99A202A
:1029D000002A01DB144600E05442322C19DA6F4C15
:1029E000A03CB4F99C10002901DB0C4600E04C42ED
:1029F000322C0EDA694CA03CB4F99E00002801DBB1
:102A0000044600E04442322C03DA00206F4908609B
:102A100002E001206D490860002033E05F49A039E1
:102A2000097B032904D05D49A039097B072923D1FB
:102A300000EB400101EB00115D4A02EB810191EDD9
:102A40000B0ABDEEC00A10EE101A09B200EE101A01
:102A5000B8EEC00AF7EE000A20EE200AFFEE000AE8
:102A600020EE200ABDEEC00A10EE101A0AB24B4941
:102A7000783921F8102004E000224849783921F8FB
:102A80001020401C0428C9DBBDEC048B10BD10B520
:102A90002DED088B4E4948698969414A403AC2E99F
:102AA00016011046D0ED131AB0EE611A90ED162BF8
:102AB000B0EE420AF0EE620AFEF737FBB0EE409A43
:102AC000F0EE609A51EC190B05F042FF34494039A1
:102AD000C8649FED3D0AB0EE408A3D49B1F90A0055
:102AE00005F0B5FE9FED3B0B53EC102B05F0CEFD32
:102AF00005F0CBFE00B2394908803549B1F90C0028
:102B000005F0A5FE9FED330B53EC102B05F0BEFD39
:102B100005F0BBFE00B2324908803049098811FB3C
:102B200001F12F4A12882E4B1B8812FB031005F06F
:102B30008EFE41EC1A0BB0EE4A0AF0EE6A0A06F07D
:102B4000F3FDB0EE409AF0EE609A51EC190B05F0EF
:102B5000FFFE134940394862084690ED090ADFED4F
:102B6000210AB4EEE00AF1EE10FA69DB1B48B0F975
:102B7000000005F06CFE41EC1A0B1948B0F900009A
:102B800005F065FE41EC1B0BB0EE4A1AF0EE6A1A36
:102B9000B0EE4B0A28E00000281A0020680200204E
:102BA000A801002000000000000014409003002055
:102BB0001C1600206C0000204C17002000000000B4
:102BC00000004940D000002000000000400000202C
:102BD0001E230020CDCCCCCCCCCCF43F5000002028
:102BE0005200002000004842F0EE6B0A06F0D8F9CF
:102BF000B0EE409AF0EE609A51EC190B05F0A8FE89
:102C000008EE100A9FED320A38EE000A10EE101A94
:102C1000084605F059FE41EC1A0B9FED2E1BB0EE55
:102C20004A0AF0EE6A0A06F0D1FBB0EE409AF0EEE6
:102C3000609A51EC190B05F08BFE2849086204E0FC
:102C40001FED1F0A254880ED090ABDEC088B10BD59
:102C500010B52348C078234908730846007B07282D
:102C600010D004DC012807D0032814D107E008287D
:102C70000BD00A280FD10BE0FEF798FA0EE0FEF712
:102C8000A8FA0BE0FEF73DFB08E0FEF7A0FB05E02D
:102C9000FEF71DFB02E0FEF789FA00BF00BF1048F7
:102CA000C0781049487310BD10B5FEF72FF9FFF733
:102CB0006BFD10BD10B5FFF7EAFEFEF781FE10BDFB
:102CC00010B5FFF7C5FFFFF7F5FFFFF7EDFF10BDEC
:102CD000DB0FC94000000060FB21194068010020A3
:102CE0001E230020C8010020D0ED000AF4EEC00A27
:102CF000F1EE10FA01DD80ED000AD0ED000AB1EE30
:102D0000401AF4EEC10AF1EE10FA03D2F1EE400AD5
:102D1000C0ED000A70470364C263816380ED000A5E
:102D2000C0ED010A80ED021A704780ED000AC0ED87
:102D3000010A80ED021ADFEDFB1AC0ED081ADFED83
:102D4000F91AC0ED091ADFEDF71AC0ED0A1ADFED26
:102D5000F51AC0ED0B1A704710B52DED0A8B04461D
:102D6000F0EE408AB0EE609AB0EE418AC4ED048A7B
:102D700084ED039A39EE680A84ED070A18EE100A0A
:102D800005F0A2FD41EC1A0B94ED070A10EE101AA3
:102D9000084605F099FD41EC1C0BB0EE4C0AF0EE34
:102DA0006C0A06F009FBB0EE40BAF0EE60BA53ECE4
:102DB0001A2B51EC1B0B05F09BFD04D29FEDD90A99
:102DC00084ED070A1CE094ED070AB4EEC80AF1EEA0
:102DD00010FA06DD94ED070A30EE480A84ED070A82
:102DE0000EE094ED070AF1EE480AB4EEE00AF1EEC7
:102DF00010FA05D294ED070A30EE080A84ED070AAE
:102E000018EE100A05F060FD41EC1A0B39EE680A65
:102E100010EE101A084605F057FD41EC1C0BB0EE01
:102E20004C0AF0EE6C0A06F0C7FAB0EE40BAF0EECB
:102E300060BA53EC1A2B51EC1B0B05F059FD03D271
:102E40009FEDB80A84ED070A94ED0C0AB5EEC00AAE
:102E5000F1EE10FA27D094ED0C0A10EE101A084685
:102E600005F032FD41EC1A0B94ED070A10EE101A32
:102E7000084605F029FD41EC1C0BB0EE4C0AF0EEC3
:102E80006C0A06F099FAB0EE40BAF0EE60BA53EC74
:102E90001A2B51EC1B0B05F043FD04D29FEDA10A48
:102EA000BDEC0A8B10BDA06B03283ED194ED000A47
:102EB000D4ED070A20EE200A84ED080A94ED090AF1
:102EC000D4ED010A94ED071A00EE810A84ED090A97
:102ED00094ED070AD4ED060A30EE600AD4ED020A3A
:102EE00020EE200A84ED0A0AD4ED100AF8EE600AFA
:102EF000B0EE600A04F12400FFF7F6FE94ED080A34
:102F0000D4ED090A30EE200AD4ED0A0A30EE200A88
:102F100084ED0B0AD4ED0F0AF8EE600AB0EE600AF9
:102F200004F12C00FFF7E0FE42E0A06B04283FD143
:102F300094ED070AD4ED060A30EE600AD4ED000ADB
:102F400020EE200A84ED080A94ED010AD4ED070A68
:102F500020EE200A84ED090A94ED070AD4ED060A52
:102F6000B0EE001A01EE600AD4ED050A30EE200A38
:102F7000D4ED020A20EE200A84ED0A0A94ED080A34
:102F8000D4ED090A30EE200AD4ED0A0A30EE200A08
:102F9000D4ED0B0A30EE200A84ED0B0AD4ED0F0AB3
:102FA000F8EE600AB0EE600A04F12C00FFF79CFE18
:102FB00094ED060A84ED050A94ED070A84ED060AED
:102FC00094ED0D0AB5EEC00AF1EE10FA25D094ED9D
:102FD0000D0A10EE101A084605F076FC41EC1A0BAB
:102FE00094ED0B0A10EE101A084605F06DFC41EC4A
:102FF0001C0BB0EE4C0AF0EE6C0A06F0DDF9B0EEF8
:1030000040BAF0EE60BA53EC1A2B51EC1B0B05F0F2
:103010006FFC02D29FED430A42E794ED0B0A3FE7B3
:1030200010B52DED088B0446B0EE408AF0EE608AB4
:1030300084ED048AC4ED038A38EEC80A84ED070AD9
:1030400094ED0C0AB5EEC00AF1EE10FA27D094ED1B
:103050000C0A10EE101A084605F036FC41EC190B6C
:1030600094ED070A10EE101A084605F02DFC41EC0D
:103070001B0BB0EE4B0AF0EE6B0A06F09DF9B0EEBA
:1030800040AAF0EE60AA53EC192B51EC1A0B05F094
:1030900047FC04D29FED230ABDEC088B10BDA06B4A
:1030A000032841D194ED000AD4ED070A20EE200A4E
:1030B00084ED080A94ED090AD4ED010A94ED071A8B
:1030C00000EE810A84ED090A94ED070AD4ED060AA0
:1030D00030EE600AD4ED020A20EE200A84ED0A0ADE
:1030E000D4ED100AF8EE600AB0EE600A04F1240094
:1030F000FFF7FAFD94ED080AD4ED090A30EE200A34
:10310000D4ED0A0A30EE200A84ED0B0AD4ED0F0A42
:10311000F8EE600AB0EE600A04F12C00FFF7E4FD5F
:1031200045E0000000000000A06B04283FD194EDB2
:10313000070AD4ED060A30EE600AD4ED000A20EE4C
:10314000200A84ED080A94ED010AD4ED070A20EE66
:10315000200A84ED090A94ED070AD4ED060AB0EEC0
:10316000001A01EE600AD4ED050A30EE200AD4ED13
:10317000020A20EE200A84ED0A0A94ED080AD4ED32
:10318000090A30EE200AD4ED0A0A30EE200AD4ED06
:103190000B0A30EE200A84ED0B0AD4ED0F0AF8EE8C
:1031A000600AB0EE600A04F12C00FFF79DFD94ED7B
:1031B000060A84ED050A94ED070A84ED060A94EDEB
:1031C0000D0AB5EEC00AF1EE10FA25D094ED0D0A05
:1031D00010EE101A084605F077FB41EC190B94ED40
:1031E0000B0A10EE101A084605F06EFB41EC1B0BA3
:1031F000B0EE4B0AF0EE6B0A06F0DEF8B0EE40AA35
:10320000F0EE60AA53EC192B51EC1A0B05F070FB91
:1032100002D21FED3C0A3FE794ED0B0A3CE710B5E4
:103220002DED088B0446B0EE408AF0EE608A84ED06
:10323000048AC4ED038A38EEC80A84ED070A94EDC7
:103240000C0AB5EEC00AF1EE10FA27D094ED0C0A84
:1032500010EE101A084605F037FB41EC190B94EDFF
:10326000070A10EE101A084605F02EFB41EC1B0B66
:10327000B0EE4B0AF0EE6B0A06F09EF8B0EE40AAF4
:10328000F0EE60AA53EC192B51EC1A0B05F048FB39
:1032900004D21FED5C0ABDEC088B10BDA06B0328A7
:1032A0003ED194ED000AD4ED070A20EE200A84ED09
:1032B000080A94ED090AD4ED010A94ED071A00EE0C
:1032C000810A84ED090A94ED070AD4ED060A30EE6E
:1032D000600AD4ED020A20EE200A84ED0A0AD4ED39
:1032E000100AF8EE600AB0EE600A04F12400FFF75D
:1032F000FBFC94ED080AD4ED090A30EE200AD4ED67
:103300000A0A30EE200A84ED0B0AD4ED0F0AF8EE1B
:10331000600AB0EE600A04F12C00FFF7E5FC3EE025
:10332000A06B04283BD194ED070AD4ED060A30EED9
:10333000600AD4ED000A20EE200A84ED080A94ED1C
:10334000010AD4ED070A20EE200A84ED090A94ED63
:10335000070AD4ED060AB0EE001A01EE600AD4EDB9
:10336000050A30EE200AD4ED020A20EE200A84ED90
:103370000A0A94ED080AD4ED0A0A30EE200AD4EDC8
:103380000B0A30EE200A84ED0B0AD4ED0F0AF8EE9A
:10339000600AB0EE600A04F12C00FFF7A5FC94ED82
:1033A000060A84ED050A94ED070A84ED060A94EDF9
:1033B0000D0AB5EEC00AF1EE10FA25D094ED0D0A13
:1033C00010EE101A084605F07FFA41EC190B94ED47
:1033D0000B0A10EE101A084605F076FA41EC1B0BAA
:1033E000B0EE4B0AF0EE6B0A05F0E6FFB0EE40AA35
:1033F000F0EE60AA53EC192B51EC1A0B05F078FA99
:1034000002D21FEDB80A46E794ED0B0A43E72DE917
:10341000F0412DED048B04460D4616461F46B0EED6
:10342000408AF0EE608AB0EE419A2A486064B0EEBD
:10343000491AF0EE680AB0EE480A3B463246294681
:103440002046D4F844C0E047BDEC048BBDE8F081D1
:103450001FEDCC0A80ED080A1FEDCE0A80ED090AA7
:103460001FEDD00A80ED0A0A1FEDD20A80ED0B0A8B
:103470001FEDD40A80ED050A1FEDD60A80ED060A7D
:103480001FEDD80A80ED070A704770B52DED048B4B
:1034900006460D461446B0EE408AF0EE608AB0EE65
:1034A000419AF0EE619AF0EE480AB0EE680A3046B2
:1034B000FFF7B6FD30EE290A84ED000A94ED000A0C
:1034C000F0EE400AB0EE490A2846FFF7A9FDBDEC30
:1034D000048B70BD172D000810B5044621463048F6
:1034E00001F0C0F82068B0F5027F0AD12D48C0680D
:1034F000401C2C49C86041F2C87221462A4800F09D
:103500003BF910BD10B504462068A0F20120072841
:1035100042D2DFE800F0040A10151B2734002146D0
:103520002148583000F015F937E021461E48B030E8
:1035300000F00FF931E021461C4800F00AF92CE0B8
:1035400021461A48583000F004F926E01548006872
:10355000401C1449086040F2B6622146144800F04D
:103560000BF91AE00F484068401C0E49486041F2D0
:10357000A17221460E48583000F0FEF80DE00948CF
:103580008068401C0749886040F6F24221460648A0
:10359000583800F0F1F800E000BF00BF10BD000097
:1035A000E4230020B8210020D0190020D81A0020E0
:1035B000C81800200A7BCB7A42EA03228261826922
:1035C0008260826942600269521C026170472DE983
:1035D000F04104460D460026002720686060287BE5
:1035E000E97A40EA0120206020686168401AE060C2
:1035F000E06810F5805F07DAA06B401CA063E0680C
:1036000000F50050E0610DE0E068B0F5805F07DD97
:10361000A06B401EA063E068A0F50050E06101E0EF
:10362000E068E0612168A06B01EB4030A060206899
:10363000A269801A00EE100AF8EEC00AA06B4FF4DF
:10364000B472504300EE100AB8EEC00A9FEDD11AD2
:1036500000EE810A10EE101A084605F035F941EC2B
:10366000100B84ED120BE269207D411C217504F1E1
:10367000200141F82020207D062801D1002020755E
:10368000002605E004F1200050F826000744761CCF
:10369000062EF7DB062097FBF0F02064A97B687B01
:1036A00041EA002000B2A4F85400BDE8F08170B5F2
:1036B00004460D4620686060287BE97A40EA0120D4
:1036C000206020686168401AE060E06810F5805F63
:1036D00007DAA06B401CA063E06800F50050E061D1
:1036E0000DE0E068B0F5805F07DDA06B401EA063D1
:1036F000E068A0F50050E06101E0E068E061216869
:10370000A06B01EB4030A0602068A269801A00EE37
:10371000100AF8EEC00AA06B4FF4B472504300EEEA
:10372000100AB8EEC00A9FED9C1A00EE810A10EE56
:10373000101A084605F0C8F841EC100B84ED120B86
:10374000687B000200B2A97B08432064687C206586
:1037500070BD70B504460D46E06B401CE063E06B45
:10376000052804DC29462046FFF724FF03E029460C
:103770002046FFF72CFF70BD70B504460E46154677
:10378000E06B401CE063E06B022800DCA561314681
:103790002046FFF78CFFE06B0A2812DCA069A168C5
:1037A000401A10F57A6F03DA05F50050A06108E0C1
:1037B000A069A168401AB0F57A6F02DDA5F5005046
:1037C000A06170BD2DE9F04186B007460C46154654
:1037D0001E46DDF8308040F2FF10019000208DF889
:1037E0000C008DF80D0008208DF80E00200A8DF8D1
:1037F0000F008DF81040290A8DF811108DF8125025
:10380000310A8DF813108DF814604FEA18218DF8E5
:1038100015108DF816800EE060480068401C5F4966
:1038200008600846006840F6B831884203D100209D
:103830005A49086004E0B86800F0E0500028EBD076
:1038400000BF01A9384602F0D5FB06B0BDE8F08103
:103850002DE9F04186B080460C4615461E460C9F69
:1038600040F2FF20019000208DF80C008DF80D0033
:1038700008208DF80E00200A8DF80F008DF81040FA
:10388000290A8DF811108DF81250310A8DF8131095
:103890008DF81460390A8DF815108DF8167001A98D
:1038A000404602F0A7FB06B0BDE8F0812DE9F041EB
:1038B00086B007460C4615461E46DDF830804FF4AC
:1038C0000070019000208DF80C008DF80D0008208C
:1038D0008DF80E00200A8DF80F008DF81040290A8F
:1038E0008DF811108DF81250310A8DF813108DF8E3
:1038F00014604FEA18218DF815108DF816800EE02F
:1039000027480068401C264908600846006840F6C1
:10391000B831884203D100202149086004E0B8682A
:1039200000F0E0500028EBD000BF01A9384602F0BB
:1039300061FB06B0BDE8F0812DE9F04186B080461C
:103940000C4615461E460C9F40F2FF1001900020C9
:103950008DF80C008DF80D0008208DF80E00200A5F
:103960008DF80F008DF81040290A8DF811108DF890
:103970001250310A8DF813108DF81460390A8DF841
:1039800015108DF8167001A9404602F033FB06B001
:10399000BDE8F081FFFF333D0000343DE80000202A
:1039A000EC000020F0B503460C461888002113E017
:1039B000675C80EA072000250BE0460000F4004C1D
:1039C000BCF1000F03D041F2210C86EA0C06304610
:1039D0006D1C082DF1D3491C9142E9D31880F0BD2C
:1039E0002DE9F84305460F4690464FF000090020A8
:1039F00000900626FE484078002859D0002085F81F
:103A00006300FB484078C0F3800078B1F9A12846F4
:103A100004F083FDF84908600846006830B1F448B6
:103A2000007820F00400001DF1490870F04840784B
:103A300000F0010078B1EFA1284604F06EFDEE49D8
:103A400008600846006830B1E948007820F00100BD
:103A5000401CE7490870E6484078C0F3400078B160
:103A6000E4A1284604F059FDE349086008460068CF
:103A700030B1DF48007820F00200801CDC4908707B
:103A8000DB484078C0F3C00078B1DCA1284604F0E0
:103A900044FDD94908600846006830B1D448007830
:103AA00020F008000830D2490870002028600AE1A0
:103AB00028785A28FBD16878A528F8D1A878E97821
:103AC00000EB0120801D4045F1D1B8F1080FEEDB7D
:103AD000042229466846FFF765FFA8F10602A91DE2
:103AE0006846FFF75FFF2879697900EB01201FFA2C
:103AF00080F9BDF800004845D9D10626E0E0AC19B0
:103B00002078C02860D008DC90280FD0A02813D0DF
:103B1000A52829D0B0286FD13EE0D02870D0D12878
:103B20006CD0D9286BD0F028F5D1C3E06078B849C3
:103B30000870B01CC6B2C2E06078A17800EB01202A
:103B400000B2B3494880E078217900EB012000B24F
:103B5000AF4988806079A17900EB012000B2AC49BF
:103B6000C880F01DC6B2AAE06078A17800EB012001
:103B700000B2A7490881E078217900EB012000B26A
:103B8000A34948816079A17900EB012000B2A049E6
:103B90008881F01DC6B292E06078A17800EB012028
:103BA00000B29B49C881E078217900EB012000B286
:103BB000974908826079A17900EB012000B294490D
:103BC0004882F01DC6B27AE06078A17800EB01204F
:103BD00000B28F498882E078217900EB012000B2A1
:103BE0008B49C8826079A17900EB012000B2884935
:103BF0000883F01DC6B262E05FE001E04CE03FE008
:103C00006078A17800EB012000B281494883E07818
:103C1000217900EB012000B27D4988836079A17988
:103C200000EB012000B27A49C8830846B0F91A00B7
:103C300000EE100AB8EEC00ADFED760A20EE200A88
:103C4000084680ED0F0AB0F91C0000EE100AB8EE2D
:103C5000C00ADFED700A20EE200A084680ED100A47
:103C6000B0F91E0000EE100AB8EEC00ADFED6A0AD5
:103C700020EE200A084680ED110AF01DC6B21EE0B3
:103C8000634854F8011F016261684162A168816262
:103C900006F10D00C6B212E05D4854F8011FC16282
:103CA00061680163A1684163E168816306F1110005
:103CB000C6B204E0701DC6B201E0464600BF00BFB8
:103CC0004645FFF61CAF5248B0F91200404200EEE4
:103CD000100AB8EEC00ADFED500A20EE200A87ED88
:103CE000040A4B48B0F91000404200EE100AB8EE4A
:103CF000C00ADFED490A20EE200A87ED030A444896
:103D0000B0F90E00404200EE100AB8EEC00ADFED36
:103D1000420A20EE200A87ED050A404890ED000A8D
:103D20003F4880ED000A3A4890ED110AB1EE400A92
:103D30003A4880ED000A90ED000A3948D0ED000ABB
:103D400030EE600ADFED370AB4EEE00AF1EE10FA69
:103D500005DB35480068401E3349086013E02F48F2
:103D600090ED000A2E48D0ED000A30EE600ADFED3B
:103D70002F0AB4EEE00AF1EE10FA04D82A480068DF
:103D8000401C294908602A4890ED000A294880ED26
:103D9000000A1F4890ED080A254880ED000A90EDC2
:103DA000000A2448D0ED000A30EE600ADFED1D0A5B
:103DB000B4EEE00AF1EE10FA05DB1F480068401E81
:103DC0001D49086013E01A4890ED000A1948D0ED2B
:103DD000000A30EE600ADFED150AB4EEE00AF1EEFB
:103DE00010FA04D814480068401C1349086025E004
:103DF000F00000204F4B0000F40000206E6577209B
:103E00007061636B6574206974656D7300000000F8
:103E1000C82100200AD7233CCDCCCC3DFC0000209B
:103E2000F80000200000A543100100200000A5C3F9
:103E30000401002000010020140100203148006826
:103E40004FF4B471484300EE100AB8EEC00A2E4891
:103E5000D0ED000A30EE200A87ED000A2B4890EDE5
:103E6000000A2B4880ED000A2A4890ED090A2748ED
:103E700080ED000A90ED000A2548D0ED000A30EEF2
:103E8000600A5FED180AB4EEE00AF1EE10FA05DB05
:103E900021480068401E2049086013E01B4890ED4F
:103EA000000A1B48D0ED000A30EE600A5FED210ADF
:103EB000B4EEE00AF1EE10FA04D817480068401C8E
:103EC00015490860154800684FF4B471484300EE86
:103ED000100AB8EEC00A1248D0ED000A30EE200AEF
:103EE00087ED010A0B4890ED100ADFED0E0A30EE67
:103EF000200A87ED020A90ED0F0A87ED000ABDE85F
:103F0000F883000014010020040100200C010020AF
:103F100008010020C8210020180100201001002005
:103F2000FC000020A470954030B5034605E013F86E
:103F3000010B80EA0204B348025D081EA1F10101F1
:103F4000F5D1104630BD70B505460C4600260DB1C2
:103F5000022C01D8002070BD611EFF222846FFF709
:103F6000E3FF0646601E285CB04201D10120F2E763
:103F70000020F0E770B505460C4600260DB1022C76
:103F800000D870BD611EFF222846FFF7CDFF064610
:103F9000601E2E5400BFF4E730B5034613B94FF648
:103FA000FF7030BD09E013F8014B82EA0400C0B293
:103FB000954D35F8100080EA2222081EA1F101017A
:103FC000F1D11046EDE770B505460C4600260DB15F
:103FD000022C01D8002070BDA11E8C480288284602
:103FE000FFF7DAFF0646F1B2A01E285C814206D137
:103FF000601E285CB0EB162F01D10120EBE70020FA
:10400000E9E770B505460C4600260DB1022C00D834
:1040100070BDA11E7D4802882846FFF7BDFF0646F9
:10402000A01E2E54310A601E295400BFF0E770B55F
:1040300004460D4600260CB1022D01D8FF2070BDAC
:10404000FF2229462046FFF76FFFF8E72DE9FC5FC6
:1040500005460F46092F01D8BDE8FC9F0024A14664
:10406000CBE015F804A0601C295CA01C285C41EA88
:104070000026601D295CA01D285C41EA002B281940
:1040800000F1070828190168009100798DF80400F3
:1040900006F109001FFA80F9BAF1A50F77D10521C1
:1040A0006846FFF750FF002871D028194946FFF7EE
:1040B0008AFF0028F8D0BBF5017F6AD012DC40F2FD
:1040C0000311ABEB01008B452BD006DCBBF1010FDC
:1040D0001AD0BBF1030F74D11CE0FE2828D0FF28B2
:1040E0006FD14BE0BBF5027F6DD006DCABF2062052
:1040F000002856D001287BD15AE0ABF201300028CD
:1041000068D0022874D16CE032464146404804F041
:10411000D2F96EE0324641463D480C3004F0CBF90E
:1041200067E0324641463A48363004F0C4F960E070
:104130001B2E22D1324641463548393004F0BBF9B6
:10414000334890F83900012809DB314890F83900EC
:10415000072804DC02202E4981F8C5000DE02C4818
:1041600090F839000B2808DB294890F8390011280D
:1041700003DC0120264981F8C5003AE0102E05D164
:10418000324641462248543004F095F931E031E09E
:10419000FFE7012E04D198F800001D4981F8740052
:1041A00027E0324641461A48763004F084F920E090
:1041B000072E05D1324641461548773004F07BF989
:1041C00017E015E0FFE73246414611487E3004F023
:1041D00072F90EE0324641460D48843004F06BF926
:1041E00007E0324641460A48AC3004F064F900E08A
:1041F00000BF00BF04EB090084B2A7423FF731AF14
:1042000000BF29E7B1A10008B2A200081C010020EC
:104210001022002010B503463BB1087838B90120C0
:1042200008701078401C107001E0002008701078B1
:1042300000EBD0746410A0EB44040CB9002010BD56
:104240000120FCE7CB8A03400BB1012300E00023EF
:104250001370704710B5044604F12802214601206E
:10426000FFF7F0FF04F1290221460420FFF7EAFFDF
:1042700004F12A0221460220FFF7E4FF04F12B0299
:1042800021460820FFF7DEFF04F12C022146102012
:10429000FFF7D8FF04F12E0221462020FFF7D2FFBE
:1042A00004F12F0221464020FFF7CCFF04F1300239
:1042B00021468020FFF7C6FF04F1310221464FF46A
:1042C0008070FFF7BFFF04F1320221464FF4007007
:1042D000FFF7B8FF04F1330221464FF48060FFF787
:1042E000B1FF04F1340221464FF40060FFF7AAFF4A
:1042F00004F12D0221464FF48050FFF7A3FF04F193
:10430000350221464FF40050FFF79CFF04F13602BE
:1043100021464FF48040FFF795FF04F13702214614
:104320004FF40040FFF78EFF94F82800914A92491D
:10433000FFF770FF382108552921085D8F4A904901
:10434000FFF768FF392108552A21085D8D4A8E49FB
:10435000FFF760FF3A2108552B21085D8B4A8C49F5
:10436000FFF758FF3B2108552C21085D894A8A49EF
:10437000FFF750FF3C2108552E21085D874A8849E8
:10438000FFF748FF3E2108552F21085D854A8649E1
:10439000FFF740FF3F2108553021085D834A8449DB
:1043A000FFF738FF402108553121085D814A8249D5
:1043B000FFF730FF412108553221085D7F4A8049CF
:1043C000FFF728FF422108553321085D7D4A7E49C9
:1043D000FFF720FF432108553421085D7B4A7C49C3
:1043E000FFF718FF442108552D21085D794A7A49C5
:1043F000FFF710FF3D2108553521085D774A7849C0
:10440000FFF708FF452108553621085D754A7649B2
:10441000FFF700FF462108553721085D734A7449AC
:10442000FFF7F8FE4721085510BD817AC176017F5C
:10443000C27E891A4177C27E0277417F01290ED15F
:10444000016A491C0162016A01EBD1725210A1EBB1
:10445000420212B90022827701E001228277417F75
:1044600002290ED1416A491C4162416A01EBD172B5
:104470005210A1EB420212B90022C27701E00122E0
:10448000C2777047C17A012901D1817608E0C17AEB
:10449000032901D1817603E0C17A022900D1817616
:1044A000704730B504460D46122D00D030BD04B91A
:1044B000FCE72078617840EA0120C0F30A004D490A
:1044C00008806078C010A17840EA4110C0F30A006B
:1044D00048494880A0788011E17840EA810021793C
:1044E00040EA8120C0F30A004249888020794010C8
:1044F000617940EAC110C0F30A003E49C880207CBF
:10450000617C40EA0120C0F30A003A4908816079E1
:104510000011800888726079C0F30110C872A07918
:10452000E17940EA012000B232498881207A617A3B
:1045300040EA012001B22F48C181A07AE17A40EA25
:10454000012001B22B480182217B0175617B4175FD
:10455000A07BE17B40EA01202649C8820846FFF79C
:1045600091FF2448FFF761FF2248FFF773FE00BF69
:104570009CE700001F0100201E01002021010020F7
:10458000200100202301002022010020250100201D
:1045900024010020270100202601002029010020FD
:1045A000280100202B0100202A0100202D010020DD
:1045B0002C0100202F0100202E01002031010020BD
:1045C000300100203301002032010020350100209D
:1045D000340100203701002036010020390100207D
:1045E000380100203B0100203A0100203D0100205D
:1045F0003C010020D622002010B504460448D0F823
:10460000260020601C220349034800F027FC10BD4F
:10461000BA2300203A2300203E01002010B50446B2
:104620004648407910B90020207001E00120207038
:104630004248408AA4F8010040480079A4F80300E9
:104640003F482168016021790171642100F064FD17
:1046500010BD70B504460D462A222946204603F0B7
:104660002AFF70BD0A68A2F22312062A2ED2DFE8C2
:1046700002F0030A11181F26D1F80B200260D1F8AE
:104680000F20426023E0D1F80B208260D1F80F2088
:10469000C2601CE0D1F80B200261D1F80F2042610A
:1046A00015E0D1F80B208261D1F80F20C2610EE035
:1046B000D1F80B200262D1F80F20426207E0D1F856
:1046C0000B208262D1F80F20C26200E000BF00BF61
:1046D000704730B585B005460C461848007802286A
:1046E00002D01648007810B90020207001E00120A7
:1046F00020701248408AA4F8010010480079A4F8FC
:1047000003000F4821680160217901714FF4407066
:10471000009000208DF808008DF8090008208DF821
:104720000A002068CDF80B0020798DF80F0069464B
:10473000284601F05FFC05B030BD00001E230020BC
:1047400056230020F0B58BB004460D4616461F4692
:104750000121084602F0ACFC0121480602F0F1FC00
:1047600009220B21964802F090FA09220C21944864
:1047700002F08BFA4FF4C050099002208DF8280007
:1047800009A98F4802F0F6F914208DF804000320DF
:104790008DF8050001208DF806008DF8070001A8AE
:1047A00001F02BFA874801F093FA06A801F0B4FB58
:1047B00000208DF81E0001208DF81F0000208DF8CC
:1047C00020008DF821008DF822008DF823008DF84F
:1047D0001A708DF81B008DF81C508DF81D40ADF837
:1047E000186006A9774801F08CFA00208DF81200B5
:1047F0008DF8130001208DF814000020ADF808009A
:10480000ADF80A00ADF80C00ADF80E00ADF81000E0
:1048100001208DF8150002A801F0FDFA0122022105
:10482000684801F0F7FD0BB0F0BD10B501216548F7
:1048300001F058FE18B10121624801F0EEFE10BDF2
:1048400000B585B002215F4801F04CFE88B104211B
:104850005C4801F0E2FE5C495A4801F020FE6A46DD
:104860000021584801F0BBFC00BF6846FEF734FE4B
:1048700000BF05B000BDF0B58BB004460D4616462E
:104880001F460121022002F013FC0121880602F0DC
:1048900058FC09220C214D4802F0F7F909220D219C
:1048A0004A4802F0F2F94FF44050029002208DF88D
:1048B0000C0002A9454802F05DF940208DF8040083
:1048C00003208DF805008DF8060001208DF8070003
:1048D00001A801F092F93F208DF8040003208DF823
:1048E00005008DF8060001208DF8070001A801F0F1
:1048F00084F9374801F0ECF908A801F00DFB00201D
:104900008DF8260001208DF8270000208DF8280062
:104910008DF829008DF82A008DF82B008DF82200E3
:104920008DF823008DF824508DF82540ADF82060D7
:1049300008A9274801F0E5F90E208DF81A0000209B
:104940008DF81B0001208DF81C000020ADF8100030
:10495000ADF81200ADF81400ADF81600ADF818006F
:1049600001208DF81D0004A801F055FA0122022152
:10497000174801F04FFD0BB0F0BD10B501211448F0
:1049800001F0B0FD18B10121114801F046FE10BD43
:1049900000B585B002210E4801F0A4FD68B10221E6
:1049A0000B4801F03AFE6A460021094801F017FC65
:1049B00000BF6846FEF7A6FD00BF05B000BD0000C1
:1049C0000000024000640040080000320004024081
:1049D000006800401CB50121042002F069FB06209C
:1049E000009001208DF8040000208DF806000320BF
:1049F0008DF8050001208DF807006946074802F090
:104A0000B9F80621054802F031F90421034802F003
:104A10002FF90221014802F02BF91CBD00080240C9
:104A200010B596B004460121022002F041FB01219D
:104A3000880502F03DFB0121102002F093FB0722C4
:104A40001146F84802F021F914A802F0DBF88020A2
:104A5000149002208DF8540000208DF8550001209C
:104A60008DF8570014A9EF4802F084F8EE4803F0DF
:104A7000C5FA10A803F08FFB10940020ADF8440095
:104A8000ADF846004FF48060ADF848000420ADF862
:104A90004A000020ADF84C0010A9E34803F015FBD4
:104AA00001224021E04803F045FCE04801F008FE07
:104AB000684601F0D0FE4FF000600090DA48001D1B
:104AC0000190DB48029000200390402004900020D9
:104AD00005904FF4806006900020079008904FF4F6
:104AE0008070099000020A9000200B900C900D90AD
:104AF0000E906946CD4801F085FE0022CC49403138
:104B0000CA4801F0E0FE0121C84801F0E8FE012199
:104B1000C64801F0B1FE25208DF83C0000208DF83C
:104B20003D008DF83E0001208DF83F000FA801F0F8
:104B300064F8012240F22441BB4803F004FC012147
:104B4000B94803F04AFB16B010BD10B540F224413D
:104B5000B54803F033FC002852D0B3480088B2486F
:104B60008088B24801F0CBFE20BB0021AF4801F0A5
:104B700083FEB049AD4801F0F8FEAC4801F09FFE5D
:104B8000C0F14000AC4908604020A849091D0860F8
:104B9000081F006840F40020091F08600121A34895
:104BA00001F06AFE00BFA448008881B2A048FFF768
:104BB00078FC25E000219D4801F05EFE9D499B4860
:104BC00001F0D3FE994801F07AFEC0F140009A4905
:104BD000086040209549091D0860081F006820F4FE
:104BE0000020091F08600121904801F045FE00BF28
:104BF0009148008881B28E484030FFF752FC00BFD8
:104C000010BD10B596B004460121480402F099FA8F
:104C10000121084602F04CFA0121480502F048FA49
:104C200007220221854802F030F807220321834839
:104C300002F02BF80C20149002208DF85400032071
:104C40008DF8550001208DF8570014A97B4801F01C
:104C500091FF7B4803F0D2F910A803F09CFA10945E
:104C60000020ADF84C000C20ADF84A000020ADF853
:104C70004800ADF84600ADF8440010A9704803F0B4
:104C800024FA012280216E4803F054FB6D4801F0A4
:104C900017FD1C2005904FF000600190402004900B
:104CA00000200C900D906848039000200E90099011
:104CB0004FF48060079000200A906148001D029028
:104CC00000200F90089006904FF480300B9001A9BF
:104CD0005C4801F097FD01215A4801F0CDFD012209
:104CE0004021574803F026FB01A801F0B4FD202025
:104CF000059080050190002004900C900D90534881
:104D0000039000200E9009904FF4806007900020DF
:104D10000A904B48001D029000200F9008900690CA
:104D20004FF480300B9001A94648183801F06AFD15
:104D300001214448183801F09FFD4FF4A06000F0B5
:104D400057FF26208DF8000001208DF80300002079
:104D50008DF801008DF80200684600F04EFF012238
:104D600040F22441364803F0EEFA0121344803F0C2
:104D700034FA16B010BD10B540F22441304803F0AB
:104D80001DFB30B32E4800882D48001D008800BF51
:104D90001C222E492E4803F08EFB00BF002129481B
:104DA000183801F069FD00BF2648183801F0B1FD40
:104DB0000028F9D127492348183801F0D6FD2021D1
:104DC0002048603801F079FD01211E48183801F0B3
:104DD00053FD10BD70B504460D4616461C222146F3
:104DE000194803F068FB00BF1B49164801F0A1FDFC
:104DF0000028F9D01849134801F0B7FD00211148E7
:104E000001F03AFD00BF0F4801F083FD0028FAD100
:104E10001C210C4801F051FD01210A4801F02CFD34
:104E200070BD0000000402400010014040640240D8
:104E30000E28002000003010480100200000024031
:104E400000440040A06002403A2300208E28002049
:104E50001E230020000C00200000202070B5044616
:104E60000D461646FE482168016000BFFD49FE4818
:104E700001F05FFD0028F9D0FA49FB4801F075FD0B
:104E80000021F94801F0F8FC00BFF74801F041FDAE
:104E90000028FAD11C21F44801F00FFD0121F2484D
:104EA00001F0EAFC70BD10B596B004460121022065
:104EB00002F0FEF80121880402F043F901214805BF
:104EC00002F0F6F807220A21E84801F0DEFE072288
:104ED0000B21E64801F0D9FE02208DF844000320A2
:104EE0008DF8450000208DF8460001208DF8470020
:104EF0008002109010A9DD4801F03CFE4FF40060E4
:104F0000109010A9D94801F035FE27208DF8000037
:104F100002208DF8010001208DF802008DF80300B9
:104F2000684600F06AFE12940020ADF84C00ADF81F
:104F30004E00ADF85000ADF854000C20ADF8520012
:104F400012A9CB4803F0C1F8012240F22441C8481D
:104F500003F0F9F95021C64803F027FAC548039039
:104F60006420059000200C900D900E9009904FF455
:104F70008060079080100A90BD48001D02900020BC
:104F80000F90089006904FF400300B908002019033
:104F90000020049001A9B448783801F033FC0121C5
:104FA000B148783801F068FC01224021B04803F094
:104FB000C1F901228021AE4803F0BCF90021AA48C2
:104FC000483801F059FCA848483801F079FB00BF87
:104FD000A548483801F09DFC0028F9D14FF0006049
:104FE0000190A348001D0290A34803904020049024
:104FF0000020059006904FF48060079000200890F4
:1050000009900A904FF480300B9000200C90032000
:105010000D9000200E900F9001A99348483801F0A0
:10502000F1FB0E208DF8000002208DF80100012018
:105030008DF802008DF80300684600F0DEFD0122C5
:1050400010218948483801F0A4FC0121884803F068
:10505000C4F816B010BD10B5002440F224418448B5
:1050600003F0ACF908B3824803F0E6F840F22441BB
:105070007F4803F0DEF900217B48783801F0FCFB23
:10508000002240217A4803F055F900BF79497B4856
:10509000FFF7DFFA00BF01224021754803F04AF90B
:1050A00001217148783801F0E7FB10BD10B54FF0D1
:1050B000C0516D48483801F03CFC50B100216A48AD
:1050C000483801F0D9FB4FF0C0516748483801F02B
:1050D0004CFC10BD70B504460D460021204601F081
:1050E000CBFB00BF204601F014FC0028FAD1294672
:1050F000204601F0E2FB0121204601F0BDFB70BD1E
:1051000070B5044600255C4D05F8014B0121564859
:105110004838FFF7DFFF70BD2DE9F04105460E4628
:1051200000240027544F00BF03E0285D3855601C61
:1051300084B2B442F9DB31464B484838FFF7CAFF26
:10514000BDE8F08110B596B004460121042001F0BD
:10515000AFFF0121C80401F0F4FF08220A214848EA
:1051600001F093FD08220B21454801F08EFD01213D
:10517000480501F09DFF4FF44060109002208DF82B
:10518000440000208DF8460003208DF845000120E2
:105190008DF8470010A93A4801F0ECFC1294002069
:1051A000ADF84C00ADF84E00ADF850000C20ADF855
:1051B00052000020ADF8540012A9324802F085FFD9
:1051C000012240212F4803F0B5F82748603801F04C
:1051D00077FA684601F03FFB4FF0006000902948E5
:1051E000001D019028480290002003906420049044
:1051F000002005904FF480600690002007900890F2
:1052000009904FF480300A9000200B900C900D9084
:105210000E9069461448603801F0F4FA01211248F2
:10522000603801F029FB34208DF83C0003208DF814
:105230003D008DF83E0001208DF83F000FA800F0E2
:10524000DCFC012280210F4803F074F8002106489D
:10525000303801F011FB0448303801F031FA15E024
:105260003A23002000002020A060024000040240F9
:1052700000480040AE280020DA290020BA23002090
:1052800000080240004C00401229002000BFFB48EB
:1052900001F03FFB0028FAD14FF000600090F84881
:1052A0000190F8480290402003900020049005905F
:1052B0004FF48060069000200790089009904FF40A
:1052C00080300A9000200B9003200C9000200D905D
:1052D0000E906946E94801F095FA0F208DF83C00E0
:1052E00003208DF83D008DF83E0001208DF83F0031
:1052F0000FA800F082FC01221021E04801F049FBD8
:10530000012240F22441DE48001F03F01CF8012175
:10531000DB48001F02F061FF16B010BD10B500247D
:1053200040F22441D648001F03F048F808B3D4489F
:10533000001F0088D24800880021D048303801F092
:105340009BFAD149CD48303801F00FFBCB483038BB
:1053500001F0B5FAC0F16400C4B200BF00BF64211F
:10536000C648303801F0A9FA0121C448303801F0AC
:1053700083FA10BD70B504460D462946204601F05B
:105380009CFA0121204601F077FA70BD10B5BF49A3
:10539000BA4801F0CEFA38B10021B84801F06CFAF1
:1053A000BA49B64801F0E1FA10BD70B504460025CF
:1053B000B44D05F8014B0121B048FFF7DBFF70BD8C
:1053C0002DE9F04105460E4600240027AD4F00BFF1
:1053D00003E0285D3855601C84B2B442F9DB3146E5
:1053E000A648FFF7C7FFBDE8F08110B596B00446A8
:1053F0000121042001F05CFE0121082001F058FE8B
:105400000121080501F09DFE0121480501F050FE33
:1054100002208DF8540000208DF856004FF4805083
:10542000149001208DF8570003208DF8550014A921
:10543000974801F09FFB02208DF8540000208DF862
:1054400056000420149001208DF8570003208DF899
:10545000550014A98F4801F08DFB08220C218C48BF
:1054600001F013FC082202218A4801F00EFC10947E
:105470000020ADF84C000C20ADF84A000020ADF83B
:105480004800ADF84600ADF8440010A9824802F08B
:105490001CFE0121804802F0A0FE012240217E482E
:1054A00002F048FF684601F0D6F97C4802904FF4BC
:1054B00000700490800400907748001D0190002047
:1054C000039005904FF480600690002008900790AC
:1054D00009904FF480300A9000200B900C900D90B2
:1054E0000E9069466548603801F08CF901216348E7
:1054F000603801F0C1F9002269496048603801F064
:10550000E2F901215D48603801F0E9F935208DF8B4
:105510003C0001208DF83F008DF83D0002208DF801
:105520003E000FA800F069FB012240F224415A48D6
:1055300002F009FF0121584802F04FFE01228021AC
:10554000554802F0F7FE00214C48483001F094F92C
:105550004A48483001F0B4F800BF4848483001F0EC
:10556000D8F90028F9D14FF0006000904A48001D9A
:1055700001904C4802904020039096200490002017
:1055800005904FF4806006900020079008900990E5
:105590000A900B9003200C9000200D900E9069460D
:1055A0003648483001F02EF901213448483001F0E6
:1055B00063F92F208DF83C0002208DF83D0001207A
:1055C0008DF83E008DF83F000FA800F016FB16B0D6
:1055D00010BD70B504460D460021204601F04CF97F
:1055E00000BF204601F095F90028FAD1294620464F
:1055F00001F063F90121204601F03EF970BD10B5BC
:1056000040F22441244802F0D9FE002875D02248F7
:105610000088214880881948603801F070F958BB2B
:1056200000211648603801F027F91F4913486038F7
:1056300001F09BF91148603801F041F9C0F50070A4
:105640001A4908604FF400710C48603801F035F9D0
:105650004FF4002212490948603801F04BF901214A
:105660000648603801F008F900BF1048008881B290
:105670000A48FEF7EBFC40E01AE0000070600240D0
:10568000044C00403E2A0020000030102000002082
:1056900000080240000C0240005000400E24002090
:1056A0000E260020A22A0020300000104C0100200D
:1056B00000216C4801F0E0F86B496A4801F055F9A7
:1056C000684801F0FCF8C0F50070684908604FF4C4
:1056D0000071644801F0F1F800226549614801F069
:1056E00009F901215F4801F0C7F800BF5F48008851
:1056F00081B26048FEF7AAFC00BF10BD00B597B0AC
:105700000121042001F0D4FC0121880501F0D0FC26
:105710000121202001F026FD08220621564801F033
:10572000B4FA08220721544801F0AFFAC0201190C2
:1057300002208DF8480000208DF84A0002208DF8E4
:10574000490000208DF84B0011A94B4801F012FAD6
:105750004A4802F053FC4FF4E13013900020ADF8BA
:105760005000ADF85200ADF854000C20ADF85600D2
:105770000020ADF8580013A9404802F0A6FC012211
:1057800040213E4802F0D6FD3D4800F099FF4FF021
:10579000206001903948001D02903A480390002093
:1057A000049064200590002006904FF480600790DC
:1057B0000020089009900A904FF480300B90002050
:1057C0000C900D900E900F9001A92D4801F01AF841
:1057D00001212B4801F050F847208DF840000320AC
:1057E0008DF841008DF8420001208DF8430010A88B
:1057F00000F003FA012240F22441204802F0A3FD08
:1058000001211E4802F0E9FC17B000BD10B540F2BE
:1058100024411A4802F0D2FD18B3184800881748EE
:10582000001D00880021164801F026F8164914488A
:1058300001F09BF8124801F042F8C0F164001349EE
:10584000086000BF0846027811490E48FEF7C8F804
:1058500000BF64210A4801F030F80121084801F036
:105860000BF810BD10600240300000104C01002009
:105870000E2400200E2600200008024000140140E3
:105880002864024076290020000C001050010020FE
:10589000801800200EB50121022001F063FC4FF0BA
:1058A000FF300190A720ADF800000020ADF80800FF
:1058B000ADF802000121C84801F066FE6946C648FD
:1058C00001F0F7FD0121C44801F05EFE00221146FF
:1058D000C14801F02BFE0121BF4801F03DFE01212E
:1058E000BD4801F06FFE0EBD1FB50121042001F07F
:1058F00028FC1C208DF8000000208DF801000220FB
:105900008DF8020001208DF80300684600F075F95B
:105910004FF0FF3002905320ADF804000020ADF8A6
:105920000C00ADF806000121880701F02DFE01A949
:105930004FF0804001F0BDFD0121880701F042FEDB
:105940001FBD1FB50121022001F0FBFB1D208DF8BA
:10595000000000208DF8010002208DF802000120D7
:105960008DF80300684600F048F94FF0FF300290D0
:10597000A720ADF804000020ADF80C00ADF806003B
:105980000121964801F000FE01A9954801F091FD22
:105990000121924801F016FE012211468F4802F0C3
:1059A00029FA01218D4802F039FA1FBD0EB50121F7
:1059B000042001F0C6FB4FF0FF3001905320ADF8FA
:1059C00000000020ADF80800ADF802000121844875
:1059D00001F0DAFD6946824801F06BFD0EBD1FB58E
:1059E0000121082001F0ADFB32208DF800000020DD
:1059F0008DF8010002208DF8020001208DF80300CF
:105A0000684600F0FAF84FF0FF300290A720ADF89A
:105A100004000020ADF80C00ADF80600012171482B
:105A200001F0B2FD01A96F4801F043FD01216D486D
:105A300001F0C8FD012211466A4802F0DBF901219C
:105A4000684802F0EBF91FBD10B50121880702F08C
:105A5000E8F948B10121880702F0F4F9012188072B
:105A600002F0DCF900BF00BF10BD10B501215B489A
:105A700002F0D7F938B10121584802F0E3F90121C9
:105A8000564802F0CBF910BD10B50121544802F080
:105A9000C8F948B10121524802F0D4F90121504817
:105AA00002F0BCF900BF00BF10BD10B501214D4888
:105AB00002F0B7F948B101214A4802F0C3F90121C7
:105AC000484802F0ABF900BF00BF10BD1FB501216F
:105AD000102001F036FB36208DF8000003208DF8F1
