:020000040800F2
:10000000502F00208D850008BD010008BF010008A9
:10001000C3010008C7010008CB0100080000000070
:10002000000000000000000000000000CF010008F8
:10003000D101000800000000D3010008D50100082C
:10004000A7850008A7850008A7850008A7850008E0
:10005000A7850008A7850008A7850008A7850008D0
:10006000A7850008A7850008A7850008A7850008C0
:10007000A7850008A7850008E9510008C9540008B1
:10008000A7850008A7850008A7850008674900081C
:100090007D490008A7850008A7850008A7850008F6
:1000A000A7850008A7850008A7850008A785000880
:1000B000855B0008A75B0008C55B0008A7850008F2
:1000C000A7850008A7850008A7850008A785000860
:1000D000A7850008874C0008B34E0008935100081C
:1000E000A7850008A7850008A7850008A785000840
:1000F000A7850008A7850008A7850008A785000830
:10010000A7850008A7850008E75B0008A785000809
:10011000595400083B570008CD5C0008F35C000808
:10012000A7850008A7850008A7850008A7850008FF
:10013000A7850008A7850008A7850008B74A00081A
:10014000CD4A0008A7850008A7850008A7850008F4
:10015000A7850008A7850008A78500084959000859
:10016000A7850008A7850008A7850008A7850008BF
:10017000A7850008A7850008A7850008A7850008AF
:10018000A7850008A7850008DFF810D008F0EAFD71
:1001900000480047A1010008AFF30080502F002065
:1001A00000F022F900F0D6F904E003480068401C92
:1001B00001490860F9E7000000000020704700BF17
:1001C000FEE700BFFEE700BFFEE700BFFEE77047A7
:1001D00070477047704700000CB5002001900090F8
:1001E0007648006840F480307449086000BF734866
:1001F000006800F4003000900198401C01900098C5
:1002000018B90198B0F5A06FF1D16C48006800F4FE
:10021000003010B10120009001E000200090009813
:10022000012846D165484030006840F0805063495D
:10023000403108606248006840F44040604908600E
:100240005E48083000685D4908310860084600686B
:1002500040F4004008600846006840F4A050086080
:100260005848091F0860081F006840F08070091F87
:10027000086000BF5148006800F000700028F9D005
:1002800040F20570504908604C480830006820F082
:1002900003004A49083108600846006840F002003F
:1002A000086000BF45480830006800F00C000828CE
:1002B000F8D10CBD10B54548006840F470004349C2
:1002C00008603E48006840F001003C49086000209A
:1002D0003A4908310860394800683D4908403749C3
:1002E00008603C48091D0860081F006820F4802051
:1002F000091F0860002031490C310860FFF76CFFCE
:100300004FF0006031498039086010BD70B50020A1
:100310000022022300240221284D08352D6805F013
:100320000C0020B1042806D0082834D107E02A4D5B
:100330002A4E356033E02A4D284E35602FE01F4DA0
:100340002D1D2D68C5F380541C4D2D1D2D6805F005
:100350003F0154B1224DB5FBF1F5184E361D3668FC
:10036000C6F3881605FB06F209E01B4DB5FBF1F557
:10037000124E361D3668C6F3881605FB06F20F4D81
:100380002D1D2D68C5F301456D1C6B00B2FBF3F507
:10039000124E356003E0104D104E356000BF00BFB7
:1003A000064D08352D68C5F303150E4E705D0B4DD7
:1003B0002D68C540094E356070BD00000038024010
:1003C0000070004008544007003C024088ED00E007
:1003D000FFFFF6FE103000240024F400040000208B
:1003E00000127A000800002010B54FF4A06005F05C
:1003F0009DFC04F08DFB184804F0B0FB4FF4E13095
:1004000004F09DFC4FF4E13004F0EBFD4FF4E130DB
:1004100004F036FF4FF4165005F085F805F00CFA9D
:10042000002303220821104604F02AFA00230322A5
:100430000821104604F0BDFA05F0F4FA05F01FFBA0
:1004400005F052FB05F069FB05F0DEFB05F00DFC45
:1004500005F0BEFA10BD0000A086010008B54148B5
:100460000068401C3F490860086800EBD0714910E3
:10047000A0EB410109B902F0B7FC3A48006803213A
:1004800090FBF1F201FB1200B8B93748B0F92E0029
:1004900000903548B0F92C30B0F92A20B0F9281076
:1004A000324803F02DFA3048B0F92E0000231A46E6
:1004B000194600902E4803F023FA2A49086800EBF9
:1004C000D0714910A0EB410101290DD12648B0F9A6
:1004D000260000902448B0F92430B0F92220B0F969
:1004E0002010224803F080FA1E480068142190FB77
:1004F000F1F201FB120010B91E4804F02DF9194861
:1005000000680A2190FBF1F201FB120010B91A48B1
:1005100004F010F9134800684FF47A7190FBF1F27F
:1005200001FB120038B90421144806F03FFC0221F7
:10053000124806F03BFC0B4800684FF4FA6190FB50
:10054000F1F201FB1200012803D104210B4806F04F
:100550002BFC08BD10B500200249086000F010F81F
:1005600010BD000018000020E001002000680040DD
:10057000006400405A01002056010020000802409B
:1005800010B5A821FE4808F05BF80120FC4908736B
:10059000002048730864B1EE041ADFEDFA0AB2EEE7
:1005A000000A0A234FF4FA520321F74802F0CDFF64
:1005B000B2EE041ADFEDF30A9FEDF40A4FF4FA737A
:1005C00043F698220321F24802F0BFFFB1EE041A6D
:1005D000DFEDEC0AB2EE000A0A234FF4FA520321CF
:1005E000E9484C3002F0B1FFB1EE001ADFEDE50A48
:1005F0009FEDE60A4FF4FA7343F698220321E4488C
:100600004C3002F0A2FFB1EE001ADFEDDE0AB2EECE
:10061000000A0A234FF4FA520321DB48983002F013
:1006200094FFB2EE001AF6EE000A9FEDD80A4FF4DE
:10063000FA7343F698220321D548983002F085FFDB
:10064000B1EE001ADFEDCF0AB2EE000A0A234FF432
:10065000FA520321CC48E43002F077FFB2EE041ADC
:10066000DFEDC80A9FEDC90A4FF4FA7343F69822EA
:100670000321C748E43002F068FF002414E004EBD3
:10068000440101EB0411C34A02EB81009FEDC21A41
:10069000DFEDC10A9FEDC10A4FF47A6343F6982259
:1006A000032102F052FF641C042CE8DB9FEDBC1A0E
:1006B000DFEDB90A9FEDBB0A0A234FF47A620321EA
:1006C000B94802F042FF10BD00B52DED0A8B89B08C
:1006D000B0EE409A002022E000EB400101EB001157
:1006E000AC4A02EB810191ED000A00EB400101EB05
:1006F000001102EB8101D1ED020A70EE200AA0493F
:10070000983131F9101000EE101AB8EEC00A20EE40
:10071000800A05A901EB800181ED000A401C042834
:10072000DADB002046E000EB400101EB0011994AC2
:1007300002EB810191ED090A00EB400101EB001190
:1007400002EB8101D1ED000AB1EE601A8C49A031B3
:1007500031F9101000EE901AF8EEE00A01EE200ACE
:1007600000EB400101EB001102EB810191ED021A57
:100770008349A03131F9101000EE901AF8EEE00A2A
:1007800001EE600A00EB400101EB001102EB810178
:10079000D1ED020A00EB400101EB001102EB8101F7
:1007A00091ED061A00EEC10A01A901EB800181ED6D
:1007B000000A401C0428B6DB9DED050A20EE000A65
:1007C000DDED060A9DED061A00EE810ADDED070A51
:1007D0009DED071A00EE810ADDED080A9DED081A6D
:1007E00000EE810ADFED710A20EE208A9DED050AF8
:1007F000DDED010A20EE200ADDED060A9DED021A6C
:1008000000EE810ADDED070A9DED031A00EE810A74
:10081000DDED080A9DED041A00EE810ADFED640AA1
:1008200020EE200ADDED050A9DED061A70EE810A24
:100830009DED071A70EE810A9DED081A70EE810A8F
:100840009FED5C1A01EE200A9DED051A4C48B0F9A7
:10085000A00000EE900AF8EEE00A61EE200ADDED5D
:10086000061A4748B0F9A20001EE100AB8EEC11A04
:1008700041EE810ADDED071A4148B0F9A40001EE0E
:10088000100AB8EEC11A41EE810ADDED081A3C48A3
:10089000B0F9A60001EE100AB8EEC11A41EE810AC5
:1008A0009FED451AF0EE408A41EE208A9DED010A47
:1008B00020EE000ADDED020A9DED021A00EE810A2B
:1008C000DDED030A9DED031A00EE810ADDED040A59
:1008D0009DED041A00EE810ADFED340A20EE200AB5
:1008E000DDED010A9DED021A70EE810A9DED031AFD
:1008F00070EE810A9DED041A70EE810A9FED2D1AAB
:1009000000EE810A9DED011A1D48B0F9A00000EE2D
:10091000900AF8EEE00A61EE200ADDED021A1848AE
:10092000B0F9A20001EE100AB8EEC11A41EE810A38
:10093000DDED031A1248B0F9A40001EE100AB8EE7A
:10094000C11A41EE810ADDED041A0D48B0F9A60086
:1009500001EE100AB8EEC11A41EE810A9FED161A97
:1009600001EE200ADFED150A30EE200A70EE499AFA
:1009700028EEA80AF1EE000A68EE200A20E0000046
:10098000E0010020CDCCCC3DD41300200000484332
:100990003416002064170020000000000000B4425C
:1009A0000000484200001644C80E002058DF2C34D6
:1009B00058DFAC346019C0B762BEBC37FA7EEA3F7C
:1009C00000EEE90A10EE101A084608F034F841EC7F
:1009D0001C0B9FEDFD0B53EC102B07F04EFE41EC72
:1009E0001B0BB0EE4B0AF0EE6B0A08F055FFB0EEB1
:1009F00040AAF0EE60AA51EC1A0B08F05FF800EE86
:100A0000100AF1EE680A70EE200AB0EE000A28EE35
:100A1000001A80EE810A09B0BDEC0A8B00BD10B54A
:100A20002DED108B8CB0002498E0E94931F91410B9
:100A300001EE101AB8EEC11AF0EE410AE44908318D
:100A400031F9141001EE101AB8EEC11AB0EE410AD5
:100A500004EB440101EB0411DE4A02EB810002F0D9
:100A60007DFBDD4800EB840080ED000ADA4800EBF6
:100A7000840090ED000ADFEDD90AB4EEE00AF1EE51
:100A800010FA07D89FEDD50AD34800EB840080ED1B
:100A9000000A12E0D04800EB840090ED000ADFED80
:100AA000D00AB4EEE00AF1EE10FA06DB9FEDCC0AB4
:100AB000C94800EB840080ED000AC74800EB8400C1
:100AC00090ED000A04EB440000EB0410C14901EB77
:100AD0008000D0ED040A20EE200AC248D0ED000AC2
:100AE00020EE200AC04800EB840080ED000ABA48DE
:100AF00000EB840090ED000ABC48D0ED000A20EE27
:100B0000200AB54800EB8400D0ED000A20EE200A50
:100B1000B14800EB8400D0ED000AB54890ED001A12
:100B200001EE200AB348D0ED000A30EE200AB248A8
:100B300000EB840080ED000AAB4800EB840090EDF0
:100B4000000AAD4800EB8400D0ED000A30EE200A28
:100B5000AA4800EB840080ED000A641C042CFFF618
:100B600064AFA64890ED000AD0ED010A30EE200AED
:100B7000D0ED020A30EE200AD0ED030A30EE200A52
:100B80009F4880ED000A90ED000AB5EEC00AF1EE34
:100B900010FA04D81FED800A80ED000A0DE0984895
:100BA00090ED000ADFED970AB4EEE00AF1EE10FADC
:100BB00003DB9FED940A80ED000A914890ED000A56
:100BC000BCEEC00A10EE100A8F4908800846008863
:100BD000002802DC0020088015E08B48008800EE29
:100BE000100AB8EE400A8948D0ED000AB4EEE00AD7
:100BF000F1EE10FA07DB90ED000ABCEEC00A10EE31
:100C0000100A814908808248D0ED000A7E48008899
:100C100000EE100AB8EE400A30EEC00ABCEEC00A80
:100C200010EE100A7B490880754890ED000A77485D
:100C3000D0ED000AB4EEE00AF1EE10FA7EDD0024F9
:100C4000F6E06E4800EB840090ED000A6F48D0EDAE
:100C5000000A20EE200A6A48D0ED000A80EE201A31
:100C60006D4800EB840080ED001A644800EB8400BE
:100C700090ED000A5F48D0ED000AB4EEE00AF1EE14
:100C800010FA7CDD5D4800EB840090ED000A6248BC
:100C900000EB8400D0ED000AB4EEE00AF1EE10FAA9
:100CA0006DDD524890ED000A08A800EB840080ED4D
:100CB000000A04EB440000EB0410464901EB8000FD
:100CC000D0ED040A4A4890ED000A464890ED001A1B
:100CD00001EE200A04A800EB840080ED000A4E48D3
:100CE00000EB840090ED000A4248D0ED000A30EE9F
:100CF000C00A684600EB840080ED000A364800EB2D
:100D0000840090ED000A10EE101A084607F093FEDA
:100D100041EC190B08A800EB840090ED000AF0EEFE
:100D2000000A20EE200A10EE101A084607F083FE93
:100D300041EC1B0B04A800EB840000E07CE090ED8C
:100D4000000A20EE000A08A800EB8400D0ED000A9B
:100D5000B1EE001A60EE810A684600EB840090ED67
:100D6000001A00EEC10A10EE101A084607F063FEE2
:100D700041EC1F0BB0EE4F0AF0EE6F0A00E04FE0BF
:100D800008F08AFDB0EE40DAF0EE60DA04A800EB7D
:100D9000840090ED000AB1EE400A10EE101A0846E9
:100DA00007F049FE53EC1D2B07F067FC53EC1B2B9F
:100DB00007F07CFD53EC192B07F078FD07F07EFE61
:100DC000164941F8240032E0000000000000F03F26
:100DD00048020020341600203803002000401CC6C2
:100DE00000401C4698000020480300209C00002082
:100DF000A0000020A4000020580300206803002069
:100E00008400002000007A44620000207800002066
:100E1000740000206000002078030020A803002058
:100E2000B7EE000AFD4800EB840080ED000A641C68
:100E3000042CFFF606AF0BE0002007E0B7EE000A37
:100E4000F64901EB800181ED000A401C0428F5DB26
:100E5000002025E0F14901EB800191ED000AB5EE9B
:100E6000C00AF1EE10FA07D89FEDED0AEB4901EB4D
:100E7000800181ED000A12E0E84901EB800191ED6B
:100E8000000AF7EE000AB4EEE00AF1EE10FA06DB13
:100E9000B7EE000AE14901EB800181ED000A401C38
:100EA0000428D7DB0CB0BDEC108B10BDF0EE400A6F
:100EB000B3EE001AB3EE090A10EE810AD94880EDAC
:100EC000000A90ED000AB5EEC00AF1EE10FA04D85F
:100ED0009FEDD30A80ED000A11E0B3EE000A20EE88
:100EE000800AD04890ED001AB4EEC10AF1EE10FA73
:100EF00005D8B3EE000A20EE800A80ED000AB7EEB6
:100F0000000AC94880ED000AC64890ED000A704703
:100F100010B5C648D0F8260000EE100AF2EE0E0A10
:100F2000B4EEE00AF1EE10FA13DDC048D0F8260066
:100F300000EE100AFFF7BAFFBD4880ED000AFFF788
:100F40006EFD9FEDBC0AFFF7BFFBBB4880ED000ABA
:100F50001DE0B648D0F8260000EE100AFFF7A6FF05
:100F6000B34880ED000AFFF75AFDB14890ED001A32
:100F7000B248008800EE900AF8EE600A71EE600A4E
:100F8000B0EE600AFFF7A0FBAB4880ED000AA64870
:100F900090ED000AB5EEC00AF1EE10FA04D89FED0C
:100FA000A00A80ED000A0DE09F4890ED000AF7EEE0
:100FB000000AB4EEE00AF1EE10FA03DBB7EE000A25
:100FC00080ED000A9C4890ED000AB5EEC00AF1EEF3
:100FD00010FA04D89FED920A80ED000A0DE09648C1
:100FE00090ED000AF7EE000AB4EEE00AF1EE10FA16
:100FF00003DBB7EE000A80ED000A10BDDFED900ABA
:10100000B4EEE00AF1EE10FA06DBDFED8D0A70EEC9
:10101000600AB0EE600A0AE0B5EEC00AF1EE10FA1E
:1010200005D2DFED870A70EE200AB0EE600A704745
:1010300010B52DED0A8BB0EE409AF0EE609AB0EE4E
:10104000418A9FED800B53EC102B51EC190B07F0EC
:10105000BBFB41EC1C0B9FED7D0B53EC102B07F001
:10106000B3FB41EC1B0B9FED7B1BB0EE4B0AF0EE8C
:101070006B0A08F063FAB0EE40AAF0EE60AA51ECF9
:101080001A0B07F01BFD08EE100AB5EEC08AF1EE50
:1010900010FA05D29FED6A0A38EE000AB0EE408AD7
:1010A00018EE100A07F0C7FC41EC100BBDEC0A8BE0
:1010B00010BD10B52DED068BB0EE408AF0EE608AC3
:1010C000664890ED000AF7EE000A30EE200A80ED47
:1010D000000A18EE900A07F0AEFC41EC1A0B9FEDE7
:1010E000600B53EC102B07F06FFB41EC190B07F072
:1010F000E5FC5D490860594890ED000A20EE080AB9
:101100005A4880ED000A084690ED000A5748D0ED95
:10111000000A20EE200A10EE101A084607F08BFC99
:1011200041EC1A0BB0EE4A0AF0EE6A0A08F088FAAF
:10113000B0EE409AF0EE609A51EC190B07F0BEFC4D
:101140004B490860484890ED000A4848D0ED000A35
:1011500020EE200A10EE101A084607F06CFC41EC55
:10116000190B9FED440B53EC102B07F08FFC04D8A8
:101170009FED2B0A3D4880ED000A3D4890ED000AA6
:10118000BDEC068B10BD9FED260A3C4880ED010AA0
:101190009FED230A80ED000A9FED210A80ED020AEF
:1011A0009FED1F0A364880ED120A704710B534488B
:1011B00090ED130ADFED330AB4EEE00AF1EE10FA17
:1011C00008DB90ED130ADFED1E0A30EE600A80EDB9
:1011D000140A04E02A4890ED130A80ED140A2A4804
:1011E000B0F90C0000EE100AB8EEC00A234880EDFA
:1011F000010A2548B0F90A0000EE100AB8EEC00A4C
:101200001E4880ED000A20488078032840D19FEDD9
:10121000040A1E4880ED000A3FE00000A8030020F9
:1012200000000000AC00002070000020D22300204D
:10123000740000200000D2436C00002062000020F7
:10124000DB0FC940000000000000F0BF000000A05C
:1012500046DF913F00000060FB211940E0000020C4
:101260006E861BF0F9211940E8000020DC00002008
:10127000E40000201F85EB51B81E1940E00100205A
:1012800080010020DB0F4940362300203000002081
:101290001FED1D0AFE4880ED000AFE48D0ED140A3D
:1012A000B0EE600AFA4890ED001A5FED230AFA48A2
:1012B00001F0F0FDB1EE400AF64880ED120A10BDD3
:1012C000F648B0F90C0000EE100AB8EEC00AF44877
:1012D00080ED010AF148B0F90A0000EE100AB8EEFC
:1012E000C00AEF4880ED000A1FED330AE94880ED9F
:1012F000120A704710B52DED0A8BE64890ED130ADF
:101300005FED200AB4EEE00AF1EE10FA08DB90ED92
:10131000130A5FED350A30EE600A80ED140A04E02E
:10132000DC4890ED130A80ED140ADC48807803282D
:101330003CD1DB4890ED000AB5EEC00AF1EE10FAA0
:1013400034D190ED010AB5EEC00AF1EE10FA2DD1BC
:10135000D448008807F02AFB41EC190BDFEDD20AD4
:101360009FEDD20AFFF7A5FE10EE104A204607F0C7
:1013700062FB41EC1C0B9FEDCE0B53EC102B07F0E6
:1013800023FA41EC1B0B9FEDCC0B53EC102B07F019
:1013900018FA41EC1A0B53EC192B07F015FA41EC33
:1013A000180B07F02FFBC649088059E0C54890F894
:1013B0003A00012803D14FF4FA70C1490880C148AE
:1013C00090F83A00022803D14FF4FA70BC49088023
:1013D000BC4890F83A00032803D14FF4FA70B8499A
:1013E0000880B84890F83A00042803D140F226203B
:1013F000B3490880B34890F83A00052803D140F279
:101400002620AF490880AF4890F83A00062803D15B
:101410004FF41670AA490880AA4890F83A000728A5
:1014200003D14FF41670A6490880A64890F83A00F8
:10143000082803D140F28A20A1490880A14890F8E9
:101440003A00092803D14FF42F709D4908809D4828
:1014500090F83A000A2803D14FF42F709849088079
:101460008E48B0F90C0000EE100AB8EEC00A8C48A5
:1014700080ED010A8948B0F90A0000EE100AB8EEC2
:10148000C00A874880ED000A407B07280DD08E48AF
:10149000007818B901208C49087006E08A48007865
:1014A000012802D10020884908708748007850B987
:1014B00083480088404200EE100AB8EEC00A754822
:1014C00080ED120A0CE080480078012808D17C48A1
:1014D000008800EE100AB8EE400A6E4880ED120A4D
:1014E000BDEC0A8B10BD10B56C48B0F90C0000EED5
:1014F000100AB8EEC00A6A4880ED010A6748B0F9E0
:101500000A0000EE100AB8EEC00A654880ED000A35
:10151000604890ED130A5FEDB60AB4EEE00AF1EE12
:1015200010FA08DB90ED130A5FEDBB0A30EE600A9B
:1015300080ED140A04E0574890ED130A80ED140A78
:101540005448D0ED140AB0EE600A514890ED001AEC
:101550005FEDCD0A504801F09DFC4E4880ED120A27
:1015600010BD10B52DED108B4A4890ED140A574868
:1015700080ED000A00248FE1C4EB041101EB41016E
:10158000872202EB410007F000FA9FED510B53EC6C
:10159000102B07F019F99FED500B53EC102B07F0AF
:1015A00085F941EC1D0BB0EE4D0AF0EE6D0A07F027
:1015B000AFFEB0EE40BAF0EE60BA364890ED120AD7
:1015C00010EE101A084607F036FA53EC1B2B07F002
:1015D000FBF841EC190B3D4890ED000AB1EE400AD2
:1015E00010EE100A07F027FA41EC1F0BB0EE4F0A7D
:1015F000F0EE6F0A08F024F8B0EE40DAF0EE60DAB0
:10160000274890ED010A10EE101A084607F013FA69
:1016100053EC1D2B07F0D8F841EC1B0B2B4890ED39
:10162000000AB1EE400A10EE100A07F004FA41EC8D
:101630001F0BB0EE4F0AF0EE6F0A07F069FEB0EE36
:1016400040DAF0EE60DA164890ED000A10EE101A5B
:10165000084607F0F0F953EC1D2B07F0B5F853ECF2
:101660001B2B07F0ABF853EC192B07F0A7F807F08A
:1016700025FA1B4941F82400C4EB041101EB410198
:101680002D2202EB410007F080F99FED110B29E0BC
:101690003000002080010020C80E002036230020EA
:1016A000E0010020B0000020C3F5A83E6F12033B0C
:1016B0009A9999999999D93F9A99999999990140A3
:1016C00058000020282200205A000020EC000020B2
:1016D0001F85EB51B81E09400000000000806640E5
:1016E000E803002053EC102B07F06EF81FED060BFB
:1016F00053EC102B07F0DAF841EC1D0BB0EE4D0A5D
:10170000F0EE6D0A07F004FEB0EE40BAF0EE60BAFB
:10171000F94890ED120A10EE101A084607F08BF9FE
:1017200053EC1B2B07F050F841EC190BF34890EDEC
:10173000000AB1EE400A10EE100A07F07CF941EC05
:101740001F0BB0EE4F0AF0EE6F0A07F0E1FDB0EEAE
:1017500040DAF0EE60DAEA4890ED010A10EE101A75
:10176000084607F068F953EC1D2B07F02DF841EC03
:101770001B0BE24890ED000AB1EE400A10EE100A91
:1017800007F059F941EC1F0BB0EE4F0AF0EE6F0A6B
:1017900007F056FFB0EE40DAF0EE60DAD84890ED90
:1017A000000A10EE101A084607F045F953EC1D2BFD
:1017B00007F00AF853EC1B2B06F05FFF53EC192BD4
:1017C00006F0FCFF07F07AF9CE4941F82400CE4834
:1017D00000EB840090ED000A10EE101A084607F0A6
:1017E0002AF941EC1B0BC74800EB840090ED000A7E
:1017F00010EE101A084607F01EF941EC1C0BB0EE73
:101800004B1AF0EE6B1AB0EE4C0AF0EE6C0A07F0D1
:101810007FFCB0EE40AAF0EE60AA1FED510B53EC36
:10182000102B51EC1A0B06F0CFFF1FED570B53ECAA
:10183000102B07F03BF807F041F9B44941F82400B8
:10184000B04800EB840090ED000A20EE000AAE489C
:1018500000EB8400D0ED000AAB4800EB840090ED73
:10186000001A00EE810A10EE101A084607F0E3F89D
:1018700041EC190BB0EE490AF0EE690A08F00CF8D9
:10188000B0EE408AF0EE608A51EC180B07F016F9C2
:101890009F4941F82400641C042CFFF66DAE002023
:1018A0001AE09B4901EB800191ED000ABDEEC00AF0
:1018B00010EE101A0AB29049403121F810209349D5
:1018C00001EB800191ED000A8B49283101EB800189
:1018D00081ED000A411CC8B20428E2DBBDEC108B8C
:1018E00010BD30B52DED108B85B09FED8A0AF0EE5E
:1018F000408A9FED880AB0EE408A9FED860AB0EEDE
:1019000040FA9FED840AF0EE40FA00200190029028
:1019100003900490784890ED140AB1EE400AB0EEBE
:10192000409A7748007B072813D17B48007801282C
:1019300006D19FED7A0A39EE000AB0EE409A08E02F
:101940007548007828B99FED760A39EE400AB0EE66
:10195000409A0024C2E0B0EE68FAF0EE48FAB0EE29
:10196000490A07F039FD6648D0ED000A20EE20AAAA
:10197000B0EE490A07F0C8FE6148D0ED010A00EE5A
:10198000C0AA00EE104AB8EE400ADFED660A60EE2B
:10199000200AB0EE001A80EE810ADFED630A30EE15
:1019A000200AF0EE409A07F017FD5348D0ED120AD6
:1019B00000EE80AAF0EE4A8AB0EE490A07F0A4FED3
:1019C0004F48D0ED000A20EE20AAB0EE490A07F0F9
:1019D00003FD4B48D0ED010A00EE80AA00EE104A4C
:1019E000B8EE400ADFED4F0A20EE200AB0EE001AF2
:1019F000C0EE010A9FED4C0A30EE800AF0EE409AEC
:101A000007F082FE3C48D0ED120A00EE80AAB0EE4C
:101A10004A8A403030F9140000EE100AB8EEC00ACD
:101A200001A800EB840080ED000A28EEA80A08EE69
:101A3000080A10EE101A084606F0FDFF41EC1B0BD9
:101A4000B0EE4B0AF0EE6B0A07F026FFB0EE40AAAC
:101A5000F0EE60AA51EC1A0B06F0B5FF01B2264871
:101A6000403020F8141018EE900A06F0E4FF41EC24
:101A70001D0B18EE100A06F0DEFF41EC1E0BB0EE57
:101A80004D1AF0EE6D1AB0EE4E0AF0EE6E0A07F047
:101A90003FFBB0EE40CAF0EE60CA51EC1C0B07F001
:101AA0000DF800EE100ADFED210A20EE200A10EEFC
:101AB000105A284606F0BFFF41EC1B0B1FEDFC0B34
:101AC00053EC102B06F0F2FE41EC1A0B06F0F6FF79
:101AD0000949283141F82400601CC4B2042CFFF6E7
:101AE0003AAF1348C0ED008A124880ED008A05B075
:101AF000BDEC108B30BD000080010020EC00002008
:101B0000E0010020F8030020E8030020C8030020C3
:101B1000D8030020000000005A000020C2B8B23DE7
:101B2000C2B8B23EDB0F4940DB0F49BF000034436F
:101B3000B4000020B800002010B5FFF7D2FE10BDA1
:101B400010B52DED0C8BB0EE408AF0EE608AB0EE51
:101B5000419AF0EE619AFE4890ED120AB5EEC00A85
:101B6000F1EE10FA27D090ED120A10EE101A084686
:101B700006F061FF41EC1D0BB0EE4D0AF0EE6D0A70
:101B800007F0D2FCB0EE40BAF0EE60BAF04890ED4B
:101B9000090A10EE101A084606F04DFF41EC1C0B26
:101BA00053EC1B2B06F082FE41EC1A0B06F086FF6D
:101BB000E849086004E01FED290AE64880ED000AC4
:101BC000E54890ED000A07F09FFDE248D0ED000ADD
:101BD00020EE200A10EE104A204606F02CFF41ECC1
:101BE0001B0B51EC180B81F0004141EC1D0B9FEDDC
:101BF000DB0B53EC102B06F059FE41EC1C0B53ECA5
:101C00001B2B06F03AFD41EC1A0B06F057FFD549A5
:101C10000860D14890ED000A07F076FDCD48D0ED80
:101C2000000A20EE200A10EE104A204606F003FFBC
:101C300041EC1B0B9FEDC90B53EC102B51EC180B17
:101C400006F034FE41EC1C0B53EC1B2B06F015FD8B
:101C500041EC1A0B06F032FFC3490860BE4890ED14
:101C6000000A07F0B9FBBB48D0ED000A20EE200ABD
:101C700010EE104A204606F0DEFE41EC1B0B51EC44
:101C8000190B81F0004141EC1D0B9FEDB40B53EC9F
:101C9000102B06F00BFE41EC1C0B53EC1B2B06F03B
:101CA000ECFC41EC1A0B06F009FFB0490860AA48A9
:101CB00090ED000A07F090FBA648D0ED000A20EE58
:101CC000200A10EE104A204606F0B5FE41EC1B0B30
:101CD0009FEDA20B53EC102B51EC190B06F0E6FD17
:101CE00041EC1C0B53EC1B2B06F0C7FC41EC1A0B10
:101CF00006F0E4FE9E4908609E48007B072825D137
:101D00009D48007801280ED1914890ED080AD0ED49
:101D1000130A30EE600ADFED990A30EE600A8E4851
:101D200080ED000AB8E09448007800280DD188487A
:101D300090ED080AD0ED130A30EE600ADFED8F0A4D
:101D400030EE200A844880ED000AA5E0804890ED3E
:101D5000140A5FED8B0AB4EEE00AF1EE10FA20DD12
:101D600090ED140ADFED860AB4EEE00AF1EE10FA07
:101D700017D8D0ED140AB0EE600A5FED9A0A8148D8
:101D800001F0ECF9B1EE400A714880ED120A90EDD5
:101D9000080AD0ED130A30EE600A6F4880ED000AA1
:101DA0007AE06B4890ED140ADFED750AB4EEE00AB4
:101DB000F1EE10FA24DD90ED140ADFED730AB4EEB3
:101DC000E00AF1EE10FA1BD8D0ED140AB0EE600A6A
:101DD000DFED6E0A6B4801F0C1F9B1EE400A5C48D4
:101DE00080ED120A90ED080AD0ED130A30EE600A79
:101DF000DFED670A30EE200A574880ED000A4BE01D
:101E0000534890ED140ADFED600AB4EEE00AF1EEFB
:101E100010FA08DA90ED140ADFED5E0AB4EEE00A7B
:101E2000F1EE10FA1CD24A48D0ED130AB0EE600A67
:101E30005FEDC40A534801F091F9B1EE400A4448FD
:101E400080ED120A90ED080AD0ED130A30EE600A18
:101E5000DFED4F0A30EE200A3F4880ED000A1BE01C
:101E60003B48D0ED140AB0EE600ADFED4B0A45485E
:101E700001F074F9B1EE400A354880ED120A90ED98
:101E8000080AD0ED130A30EE600ADFED410A30EEA9
:101E9000600A314880ED000A2D4890ED080ADFED18
:101EA0003B0AB4EEE00AF1EE10FA12DB90ED080AFC
:101EB0005FEDE40AB4EEE00AF1EE10FA09D226482A
:101EC00090ED000ADFED310A30EE600A80ED000A85
:101ED00038E01F4890ED080A5FEDEE0AB4EEE00A24
:101EE000F1EE10FA12DB90ED080ADFED2C0AB4EEE9
:101EF000E00AF1EE10FA09D2174890ED000A5FED02
:101F0000F70A30EE600A80ED000A1BE0104890ED01
:101F1000080ADFED220AB4EEE00AF1EE10FA11DB56
:101F200090ED080ADFED1A0AB4EEE00AF1EE10FABD
:101F300008D2094890ED000ADFED180A30EE600A79
:101F400080ED000A0A4890ED000A20EE000A27E022
:101F50008001002034000020380000200000000034
:101F600000000040C8000020CC000020D00000206D
:101F7000D4000020E00100205A0000205077563E97
:101F8000DB0F493FC80E0020E4CB1640DB0FC93FF2
:101F9000DB0FC940E4CB16C0DB0FC9BFE4CB9640D2
:101FA000FE48D0ED000A90ED001A00EE810A10EE16
:101FB000101A084606F03FFD41EC1B0BB0EE4B0A31
:101FC000F0EE6B0A07F068FCB0EE40AAF0EE60AAF3
:101FD00051EC1A0B06F072FDF1494860F14890EDA2
:101FE000000A20EE000AED48D0ED000A90ED001A3C
:101FF00000EE810A10EE101A084606F01CFD41ECB6
:102000001A0BB0EE4A0AF0EE6A0A07F045FCB0EE91
:1020100040BAF0EE60BA51EC1B0B06F04FFDE04900
:102020008860E04890ED000A20EE000ADE48D0ED1E
:10203000000A90ED001A00EE810A10EE101A084610
:1020400006F0F9FC41EC1B0BB0EE4B0AF0EE6B0A0C
:1020500007F022FCB0EE40AAF0EE60AA51EC1A0B99
:1020600006F02CFDCE49C860D04890ED000A20EE65
:10207000000ACD48D0ED000A90ED001A00EE810A6A
:1020800010EE101A084606F0D6FC41EC1B0BB0EE21
:102090004B0AF0EE6B0A07F0FFFBB0EE40AAF0EE41
:1020A00060AA51EC1A0B06F009FDBD490860BF4853
:1020B000006806F0C0FC41EC1B0BB848006806F055
:1020C000BAFC41EC1C0BB0EE4B1AF0EE6B1AB0EE02
:1020D0004C0AF0EE6C0A07F01BF8B0EE40AAF0EEE6
:1020E00060AA51EC1A0B06F0E9FCB1494860AD4812
:1020F000006806F0A0FC41EC1B0BA848006806F045
:102100009AFC41EC1C0BB0EE4B1AF0EE6B1AB0EEE1
:102110004C0AF0EE6C0A06F0FBFFB0EE40AAF0EEBF
:1021200060AA51EC1A0B06F0C9FCA14988609D48D1
:10213000006806F080FC41EC1B0B9B48006806F031
:102140007AFC41EC1C0BB0EE4B1AF0EE6B1AB0EEC1
:102150004C0AF0EE6C0A06F0DBFFB0EE40AAF0EE9F
:1021600060AA51EC1A0B06F0A9FC9149C8608F488F
:10217000006806F060FC41EC1B0B8B48006806F021
:102180005AFC41EC1C0BB0EE4B1AF0EE6B1AB0EEA1
:102190004C0AF0EE6C0A06F0BBFFB0EE40AAF0EE7F
:1021A00060AA51EC1A0B06F089FC8149086081484D
:1021B00090ED080A5FED8B0AB4EEE00AF1EE10FA3A
:1021C00055DB90ED080ADFED7C0AB4EEE00AF1EE93
:1021D00010FA4CD2724890ED030A784880ED000A5C
:1021E0006F4890ED000A754880ED010A6C4890ED4B
:1021F000010A724880ED020A694890ED020A6F48B0
:1022000080ED030A084690ED030A6D4880ED000A50
:10221000084690ED000A6A4880ED010A084690EDF4
:10222000010A674880ED020A084690ED020A6448F8
:1022300080ED030A002018E0604901EB800191ED78
:10224000000A574901EB800181ED000A5C4901EB6E
:10225000800191ED000A5FEDB30A30EE200A544987
:1022600001EB800181ED000A401C0428E4DB5148A9
:1022700090ED080ADFED500AB4EEE00AF1EE10FA34
:1022800055DB90ED080A5FEDBB0AB4EEE00AF1EE13
:1022900010FA4CD2424890ED020A484880ED000AFC
:1022A0003F4890ED030A454880ED010A3C4890ED17
:1022B000000A424880ED020A394890ED010A3F4881
:1022C00080ED030A3A4890ED020A3D4880ED000A8D
:1022D000374890ED030A3A4880ED010A344890ED02
:1022E000000A374880ED020A314890ED010A34486F
:1022F00080ED030A002018E0304901EB800191EDE8
:10230000000A274901EB800181ED000A2C4901EB0D
:10231000800191ED000ADFED280A30EE200A244901
:1023200001EB800181ED000A401C0428E4DB214818
:1023300090ED080A5FEDE70AB4EEE00AF1EE10FA5C
:102340006BDB90ED080A5FEDEE0AB4EEE00AF1EE09
:1023500010FA62D2124890ED010A184880ED000A86
:102360000F4890ED020A154880ED010A0C4890EDE7
:10237000030A124880ED020A094890ED000A0F484E
:1023800080ED030A0A4890ED010A0D4880ED000A2D
:10239000074890ED020A0A4814E00000CC00002033
:1023A00098020020D0000020C8000020D4000020A7
:1023B000A802002080010020DB0F4940D802002045
:1023C000E802002080ED010AFE4890ED030AFE4875
:1023D00080ED020AFB4890ED000AFB4880ED030AFD
:1023E000002018E0F94901EB800191ED000AF8495D
:1023F00001EB800181ED000AF34901EB800191EDD1
:10240000000ADFEDF40A30EE200AEE4901EB80010C
:1024100081ED000A401C0428E4DBEF4890ED120A2D
:10242000B5EEC00AF1EE10FA4AD2E94890ED020A80
:10243000E64880ED000AE64890ED030AE34880EDA7
:10244000010AE34890ED000AE04880ED020AE04806
:1024500090ED010ADD4880ED030ADA4890ED020AAA
:10246000D94880ED000AD74890ED030AD64880EDA0
:10247000010AD44890ED000AD34880ED020AD14801
:1024800090ED010AD04880ED030A002016E0CF4904
:1024900001EB800191ED000AB1EE400ACC4901EB5D
:1024A000800181ED000AC84901EB800191ED000A2D
:1024B000C44901EB800181ED000A401C0428E6DBE1
:1024C000C54890ED120AB5EEC00AF1EE10FA37D108
:1024D000C24890ED000AB5EEC00AF1EE10FA06D13E
:1024E00090ED010AB5EEC00AF1EE10FA28D0B7EE71
:1024F000000AB74880ED000AB7EE000A80ED010A35
:10250000B7EE000A80ED020AB7EE000A80ED030A7A
:10251000B14890ED140AAB4880ED000AAE4890ED4A
:10252000140AA84880ED010AAB4890ED140AA548AA
:1025300080ED020AA84890ED140AA24880ED030A33
:10254000002026E0A24901EB800191ED000AA2499A
:10255000D1ED120A20EE200ADFEDA10A20EE200ABA
:10256000BDEEC00A10EE101A0AB29B49403121F8A4
:102570001020944901EB800191ED000ADFED990AEA
:1025800020EE200A9449283101EB800181ED000AF8
:10259000401C0428D6DBBDEC0C8B10BD10B52DED16
:1025A000028B002440E004EB440000EBC4008E49A1
:1025B00001EBC00090ED121BB0EE410AF0EE610A93
:1025C0009FED8A1B53EC112B51EC100B06F0FCF81D
:1025D00006F074FA01468148583040F824107E48CD
:1025E000283000EB8400D0ED000A824850F8240027
:1025F000B421484300EE100AB8EEC00A30EE800A5B
:102600007648483000EB840080ED000A7A4830F8C4
:1026100024007149403131F81410484301B26E482A
:10262000403020F81410641C042CBCDB6A48B0F85D
:102630004000404200B26849A1F840000846B0F8A6
:102640004200404201B26448A0F84210B0F8440091
:10265000404201B26048A0F84410B0F946005E491B
:10266000A1F846000020ABE05C49483101EB800155
:1026700091ED000A5949583101EB8001D1ED000A72
:1026800030EE600ADFED5D0AB4EEE00AF1EE10FA1A
:1026900023DD5249483101EB800191ED000A4F4999
:1026A000583101EB8001D1ED000A30EE600ADFED18
:1026B000540AB4EEE00AF1EE10FA0ED24D4951F888
:1026C0002010491E4B4A42F820104B4951F8201067
:1026D0004942494A42F8201071E04049483101EB33
:1026E000800191ED000A3D49583101EB8001D1EDA7
:1026F000000A30EE600ADFED420AB4EEE00AF1EEC5
:1027000010FA07DD3B4951F82010891E394A42F87A
:10271000201054E03149483101EB800191ED000A6D
:102720002E49583101EB8001D1ED000A30EE600AEC
:10273000DFED340AB4EEE00AF1EE10FA23D22749B5
:10274000483101EB800191ED000A2449583101EB39
:102750008001D1ED000A30EE600ADFED2B0AB4EE05
:10276000E00AF1EE10FA0EDD224951F82010491C62
:10277000204A42F82010204951F8201049421E4AB0
:1027800042F820101BE01549483101EB800191ED22
:10279000000A1249583101EB8001D1ED000A30EEF8
:1027A000600ADFED190AB4EEE00AF1EE10FA06D283
:1027B000104951F82010891C0E4A42F82010401C84
:1027C000042823E0A8020020E8020020D80200200C
:1027D00098020020E4CB964080010020E001002018
:1027E000CDCCCC3EE12E6542E01800200000000078
:1027F0000000F0BF08040020F00000200000B442F8
:10280000000087430000B4C2000087C3FFF62CAF6E
:10281000002418E0FE4901EB840191ED001AF0EE6E
:10282000410AFB49103101EB840191ED001AB0EE31
:10283000410A04EB440101EB0411F64A02EB81006A
:1028400000F08CFC641C042CE4DBF1484838007B6D
:10285000032804D0EE484838007B07282AD10020FE
:102860000FE000EB400101EBC001EB4A02EBC101BC
:10287000B1F8401049420AB2E549283121F8102048
:10288000401C0428EDDB002012E000EB400101EBCE
:102890000011E04A02EB810191ED0B0ABDEEC00A86
:1028A00010EE101A0AB2DA49203121F81020401C2B
:1028B0000428EADBBDEC028B10BD10B52DED048BB6
:1028C000FFF76CFE0024E1E004EB440000EBC401E0
:1028D000D24800EBC100B0F84010CD48583020F885
:1028E0001410CF4830F81410C948503020F8141094
:1028F000CB48403890ED090AB5EEC00AF1EE10FA67
:1029000020D190ED120A10EE101A084606F093F846
:1029100041EC190BB0EE490AF0EE690A06F004FE2C
:10292000B0EE408AF0EE608A9FEDBE0B53EC102BA8
:1029300051EC180B06F092F804D20021B448503044
:1029400020F81410B94901EB8401D1ED001AB04907
:10295000203131F9141001EE101AB8EEC11A21EE2F
:10296000811AF0EE410AAA49283131F9141001EE1A
:10297000101AB8EEC11AB0EE410A04EB440101EBA3
:102980000411AB4A02EB810000F0E8FBA049503192
:1029900031F9141001EE101AB8EEC11AA549D1EDA3
:1029A000001A21EE211AF0EE410A9949583131F905
:1029B000141001EE101AB8EEC11AB0EE410A04EB81
:1029C000440101EB04119C4A02EB810000F0C6FBBC
:1029D0008F48483890ED000AB5EEC00AF1EE10FAC3
:1029E00040D190ED010AB5EEC00AF1EE10FA39D1EE
:1029F0008B48403890ED120A10EE101A084606F087
:102A00001AF841EC190BB0EE490AF0EE690A06F02B
:102A10008BFDB0EE408AF0EE608A9FED880B53ECA0
:102A2000102B51EC180B06F019F81BD285480068E2
:102A3000401C8449086008460068B0F5FA7F24D23B
:102A400000200CE09FED800A00EB400101EB00113B
:102A5000774A02EB810181ED0B0A411CC8B20428C0
:102A6000F0DB12E06A48483890ED000AB5EEC00A83
:102A7000F1EE10FA06D190ED010AB5EEC00AF1EEC2
:102A800010FA02D000206F490860641C042CFFF685
:102A90001BAF002026E05E494839097B032904D09A
:102AA0005B494839097B072916D100EB400101EB4E
:102AB0000011614A02EB810191ED0B0AF7EE000A69
:102AC00020EE200ABDEEC00A10EE101A0AB25049DC
:102AD000283921F8102004E000224D49283921F836
:102AE0001020401C0428D6DB494C483CB4F99830EF
:102AF000002B01DB1C4600E05C42322C24DA444C03
:102B0000483CB4F99A20002A01DB144600E0544204
:102B1000322C19DA3E4C483CB4F99C10002901DBF8
:102B20000C4600E04C42322C0EDA394C483CB4F9E9
:102B30009E00002801DB044600E04442322C03DA08
:102B400000204249086002E001204049086000205E
:102B500033E02F494839097B032904D02C494839EF
:102B6000097B072923D100EB400101EB0011304A1A
:102B700002EB810191ED0B0ABDEEC00A10EE101AB6
:102B800009B200EE101AB8EEC00AF7EE000A20EE05
:102B9000200AFFEE000A20EE200ABDEEC00A10EE69
:102BA000101A0AB21A49203921F8102004E0002234
:102BB0001749203921F81020401C0428C9DBBDEC3E
:102BC000048B10BD10B52DED088B2149486989692A
:102BD000134A403AC2E916011046D0ED131AB0EE7E
:102BE000611A90ED162BB0EE420AF0EE620AFEF783
:102BF0001FFAB0EE409AF0EE609A51EC190B05F016
:102C00005DFF07494039C8649FED0F0A22E00000CC
:102C100028020020D4130020E0180020401A0020D1
:102C2000C00100200000000000001440A8030020A4
:102C3000341600206C000020641700200000000003
:102C400000004940D80000200000000040000020A3
:102C500036230020B0EE408A6749B1F90A0005F03A
:102C600094FE9FED660B53EC102B05F0ADFD05F0C7
:102C7000AAFE00B2634908805F49B1F90C0005F073
:102C800084FE9FED5E0B53EC102B05F09DFD05F0CF
:102C90009AFE00B25C4908805A49098811FB01F18B
:102CA000594A1288584B1B8812FB031005F06DFE21
:102CB00041EC1A0BB0EE4A0AF0EE6A0A06F0ECFD9F
:102CC000B0EE409AF0EE609A51EC190B05F0F6FE6A
:102CD0004E494862084690ED090ADFED4D0AB4EE10
:102CE000E00AF1EE10FA3FDB4648B0F9000005F0CB
:102CF0004CFE41EC1A0B4448B0F9000005F045FECB
:102D000041EC1B0BB0EE4A1AF0EE6A1AB0EE4B0A19
:102D1000F0EE6B0A06F0FCF9B0EE409AF0EE609A25
:102D200051EC190B05F0CAFE08EE100A9FED390AA6
:102D300038EE000A10EE101A084605F07CFE41EC51
:102D40001A0B9FED351BB0EE4A0AF0EE6A0A06F048
:102D5000F5FBB0EE409AF0EE609A51EC190B05F0DD
:102D6000ADFE2A49086204E01FED490A274880EDBC
:102D7000090ABDEC088B10BD10B51F48C078284962
:102D800008730846007B072810D004DC012807D010
:102D9000032814D107E008280BD00A280FD10BE034
:102DA000FEF7F1F90EE0FEF701FA0BE0FEF7A2FAEA
:102DB00008E0FEF798FB05E0FEF782FA02E0FEF776
:102DC000E2F900BF00BF0C48C0781549487310BD38
:102DD00010B5FEF79DF8FFF770FD10BD10B5FFF7B9
:102DE000F1FEFEF7A9FE10BD10B5FFF7C5FFFFF716
:102DF000F5FFFFF7EDFF10BD36230020CDCCCCCC86
:102E0000CCCCF43F50000020520000208001002074
:102E100000004842DB0FC94000000060FB21194060
:102E2000E0010020D0ED000AF4EEC00AF1EE10FA45
:102E300001DD80ED000AD0ED000AB1EE401AF4EE9B
:102E4000C10AF1EE10FA03D2F1EE400AC0ED000A19
:102E500070470364C263816380ED000AC0ED010A1C
:102E600080ED021A704780ED000AC0ED010A80ED86
:102E7000021ADFEDFB1AC0ED081ADFEDF91AC0EDFA
:102E8000091ADFEDF71AC0ED0A1ADFEDF51AC0EDE9
:102E90000B1A704710B52DED0A8B0446F0EE408AF0
:102EA000B0EE609AB0EE418AC4ED048A84ED039AD4
:102EB00039EE680A84ED070A18EE100A05F0BBFD2A
:102EC00041EC1A0B94ED070A10EE101A084605F0B3
:102ED000B2FD41EC1C0BB0EE4C0AF0EE6C0A06F0B1
:102EE00023FBB0EE40BAF0EE60BA53EC1A2B51EC73
:102EF0001B0B05F0B3FD04D29FEDD90A84ED070A40
:102F00001CE094ED070AB4EEC80AF1EE10FA06DDF3
:102F100094ED070A30EE480A84ED070A0EE094EDBE
:102F2000070AF1EE480AB4EEE00AF1EE10FA05D213
:102F300094ED070A30EE080A84ED070A18EE100A2D
:102F400005F079FD41EC1A0B39EE680A10EE101A03
:102F5000084605F070FD41EC1C0BB0EE4C0AF0EE9B
:102F60006C0A06F0E1FAB0EE40BAF0EE60BA53EC4B
:102F70001A2B51EC1B0B05F071FD03D29FEDB80A23
:102F800084ED070A94ED0C0AB5EEC00AF1EE10FAD2
:102F900027D094ED0C0A10EE101A084605F04BFDF0
:102FA00041EC1A0B94ED070A10EE101A084605F0D2
:102FB00042FD41EC1C0BB0EE4C0AF0EE6C0A06F040
:102FC000B3FAB0EE40BAF0EE60BA53EC1A2B51EC03
:102FD0001B0B05F05BFD04D29FEDA10ABDEC0A8B33
:102FE00010BDA06B03283ED194ED000AD4ED070A72
:102FF00020EE200A84ED080A94ED090AD4ED010AB6
:1030000094ED071A00EE810A84ED090A94ED070A8F
:10301000D4ED060A30EE600AD4ED020A20EE200A52
:1030200084ED0A0AD4ED100AF8EE600AB0EE600AE8
:1030300004F12400FFF7F6FE94ED080AD4ED090A26
:1030400030EE200AD4ED0A0A30EE200A84ED0B0A95
:10305000D4ED0F0AF8EE600AB0EE600A04F12C001D
:10306000FFF7E0FE42E0A06B04283FD194ED070A91
:10307000D4ED060A30EE600AD4ED000A20EE200AF4
:1030800084ED080A94ED010AD4ED070A20EE200A27
:1030900084ED090A94ED070AD4ED060AB0EE001A91
:1030A00001EE600AD4ED050A30EE200AD4ED020AE2
:1030B00020EE200A84ED0A0A94ED080AD4ED090AEC
:1030C00030EE200AD4ED0A0A30EE200AD4ED0B0AC5
:1030D00030EE200A84ED0B0AD4ED0F0AF8EE600AF8
:1030E000B0EE600A04F12C00FFF79CFE94ED060A96
:1030F00084ED050A94ED070A84ED060A94ED0D0AA5
:10310000B5EEC00AF1EE10FA25D094ED0D0A10EEDE
:10311000101A084605F08FFC41EC1A0B94ED0B0ACF
:1031200010EE101A084605F086FC41EC1C0BB0EEC0
:103130004C0AF0EE6C0A06F0F7F9B0EE40BAF0EE89
:1031400060BA53EC1A2B51EC1B0B05F087FC02D232
:103150009FED430A42E794ED0B0A3FE710B52DEDD2
:10316000088B0446B0EE408AF0EE608A84ED048A53
:10317000C4ED038A38EEC80A84ED070A94ED0C0A00
:10318000B5EEC00AF1EE10FA27D094ED0C0A10EE5D
:10319000101A084605F04FFC41EC190B94ED070A94
:1031A00010EE101A084605F046FC41EC1B0BB0EE81
:1031B0004B0AF0EE6B0A06F0B7F9B0EE40AAF0EE5B
:1031C00060AA53EC192B51EC1A0B05F05FFC04D2EA
:1031D0009FED230ABDEC088B10BDA06B032841D1E5
:1031E00094ED000AD4ED070A20EE200A84ED080AC7
:1031F00094ED090AD4ED010A94ED071A00EE810A54
:1032000084ED090A94ED070AD4ED060A30EE600A4F
:10321000D4ED020A20EE200A84ED0A0AD4ED100A49
:10322000F8EE600AB0EE600A04F12400FFF7FAFD40
:1032300094ED080AD4ED090A30EE200AD4ED0A0A0A
:1032400030EE200A84ED0B0AD4ED0F0AF8EE600A86
:10325000B0EE600A04F12C00FFF7E4FD45E0000049
:1032600000000000A06B04283FD194ED070AD4EDC4
:10327000060A30EE600AD4ED000A20EE200A84ED42
:10328000080A94ED010AD4ED070A20EE200A84ED25
:10329000090A94ED070AD4ED060AB0EE001A01EE11
:1032A000600AD4ED050A30EE200AD4ED020A20EEC1
:1032B000200A84ED0A0A94ED080AD4ED090A30EEDA
:1032C000200AD4ED0A0A30EE200AD4ED0B0A30EEC3
:1032D000200A84ED0B0AD4ED0F0AF8EE600AB0EE76
:1032E000600A04F12C00FFF79DFD94ED060A84EDC1
:1032F000050A94ED070A84ED060A94ED0D0AB5EE71
:10330000C00AF1EE10FA25D094ED0D0A10EE101A55
:10331000084605F090FB41EC190B94ED0B0A10EEFA
:10332000101A084605F087FB41EC1B0BB0EE4B0A68
:10333000F0EE6B0A06F0F8F8B0EE40AAF0EE60AAE4
:1033400053EC192B51EC1A0B05F088FB02D21FED40
:103350003C0A3FE794ED0B0A3CE710B52DED088BD6
:103360000446B0EE408AF0EE608A84ED048AC4ED33
:10337000038A38EEC80A84ED070A94ED0C0AB5EE0C
:10338000C00AF1EE10FA27D094ED0C0A10EE101AD4
:10339000084605F050FB41EC190B94ED070A10EEBE
:1033A000101A084605F047FB41EC1B0BB0EE4B0A28
:1033B000F0EE6B0A06F0B8F8B0EE40AAF0EE60AAA4
:1033C00053EC192B51EC1A0B05F060FB04D21FEDE6
:1033D0005C0ABDEC088B10BDA06B03283ED194EDB8
:1033E000000AD4ED070A20EE200A84ED080A94EDC5
:1033F000090AD4ED010A94ED071A00EE810A84ED62
:10340000090A94ED070AD4ED060A30EE600AD4EDFD
:10341000020A20EE200A84ED0A0AD4ED100AF8EE22
:10342000600AB0EE600A04F12400FFF7FBFC94EDA3
:10343000080AD4ED090A30EE200AD4ED0A0A30EE6B
:10344000200A84ED0B0AD4ED0F0AF8EE600AB0EE04
:10345000600A04F12C00FFF7E5FC3EE0A06B0428B5
:103460003BD194ED070AD4ED060A30EE600AD4EDA4
:10347000000A20EE200A84ED080A94ED010AD4ED3A
:10348000070A20EE200A84ED090A94ED070AD4ED1C
:10349000060AB0EE001A01EE600AD4ED050A30EE1D
:1034A000200AD4ED020A20EE200A84ED0A0A94EDE7
:1034B000080AD4ED0A0A30EE200AD4ED0B0A30EEE9
:1034C000200A84ED0B0AD4ED0F0AF8EE600AB0EE84
:1034D000600A04F12C00FFF7A5FC94ED060A84EDC8
:1034E000050A94ED070A84ED060A94ED0D0AB5EE7F
:1034F000C00AF1EE10FA25D094ED0D0A10EE101A64
:10350000084605F098FA41EC190B94ED0B0A10EE01
:10351000101A084605F08FFA41EC1B0BB0EE4B0A6F
:10352000F0EE6B0A06F000F8B0EE40AAF0EE60AAEA
:1035300053EC192B51EC1A0B05F090FA02D21FED47
:10354000B80A46E794ED0B0A43E72DE9F0412DED6B
:10355000048B04460D4616461F46B0EE408AF0EE38
:10356000608AB0EE419A2A486064B0EE491AF0EEE3
:10357000680AB0EE480A3B46324629462046D4F84F
:1035800044C0E047BDEC048BBDE8F0811FEDCC0AE0
:1035900080ED080A1FEDCE0A80ED090A1FEDD00A62
:1035A00080ED0A0A1FEDD20A80ED0B0A1FEDD40A46
:1035B00080ED050A1FEDD60A80ED060A1FEDD80A38
:1035C00080ED070A704770B52DED048B06460D4659
:1035D0001446B0EE408AF0EE608AB0EE419AF0EE0A
:1035E000619AF0EE480AB0EE680A3046FFF7B6FD81
:1035F00030EE290A84ED000A94ED000AF0EE400A4C
:10360000B0EE490A2846FFF7A9FDBDEC048B70BD5A
:10361000532E000810B504462146304801F0C0F88A
:103620002068B0F5027F0AD12D48C068401C2C49A3
:10363000C86041F2C87221462A4800F03BF910BD2B
:1036400010B504462068A0F20120072842D2DFE826
:1036500000F0040A10151B27340021462148583079
:1036600000F015F937E021461E48B03000F00FF9A0
:1036700031E021461C4800F00AF92CE021461A48A6
:10368000583000F004F926E015480068401C144941
:10369000086040F2B6622146144800F00BF91AE0C7
:1036A0000F484068401C0E49486040F6925221463F
:1036B0000E48583000F0FEF80DE009488068401CC4
:1036C0000749886040F6F24221460648583800F023
:1036D000F1F800E000BF00BF10BD0000FC23002097
:1036E000D0210020E8190020F01A0020E018002066
:1036F0000A7BCB7A42EA0322826182698260826914
:1037000042600269521C026170472DE9F041044693
:103710000D460026002720686060287BE97A40EA91
:103720000120206020686168401AE060E06810F5C0
:10373000805F07DAA06B401CA063E06800F50050D2
:10374000E0610DE0E068B0F5805F07DDA06B401E32
:10375000A063E068A0F50050E06101E0E068E0618E
:103760002168A06B01EB4030A0602068A269801A3C
:1037700000EE100AF8EEC00AA06B4FF4B47250438A
:1037800000EE100AB8EEC00A9FEDD11A00EE810AD1
:1037900010EE101A084605F04EF941EC100B84EDBE
:1037A000120BE269207D411C217504F1200141F8D2
:1037B0002020207D062801D100202075002605E06C
:1037C00004F1200050F826000744761C062EF7DB93
:1037D000062097FBF0F02064A97B687B41EA00207B
:1037E00000B2A4F85400BDE8F08170B504460D465F
:1037F00020686060287BE97A40EA01202060206828
:103800006168401AE060E06810F5805F07DAA06B3D
:10381000401CA063E06800F50050E0610DE0E06846
:10382000B0F5805F07DDA06B401EA063E068A0F5E7
:103830000050E06101E0E068E0612168A06B01EB0D
:103840004030A0602068A269801A00EE100AF8EEED
:10385000C00AA06B4FF4B472504300EE100AB8EEE9
:10386000C00A9FED9C1A00EE810A10EE101A08465D
:1038700005F0E1F841EC100B84ED120B687B0002BF
:1038800000B2A97B08432064687C206570BD70B5D8
:1038900004460D46E06B401CE063E06B052804DC49
:1038A00029462046FFF724FF03E029462046FFF77C
:1038B0002CFF70BD70B504460E461546E06B401CEB
:1038C000E063E06B022800DCA56131462046FFF78B
:1038D0008CFFE06B0A2812DCA069A168401A10F581
:1038E0007A6F03DA05F50050A06108E0A069A168CD
:1038F000401AB0F57A6F02DDA5F50050A06170BDE9
:103900002DE9F04186B007460C4615461E46DDF807
:10391000308040F2FF10019000208DF80C008DF8EF
:103920000D0008208DF80E00200A8DF80F008DF88C
:103930001040290A8DF811108DF81250310A8DF8B7
:1039400013108DF814604FEA18218DF815108DF8BA
:1039500016800EE060480068401C5F490860084619
:10396000006840F6B831884203D100205A49086007
:1039700004E0B86800F0E0500028EBD000BF01A9D7
:10398000384602F0D5FB06B0BDE8F0812DE9F041E4
:1039900086B080460C4615461E460C9F40F2FF201E
:1039A000019000208DF80C008DF80D0008208DF896
:1039B0000E00200A8DF80F008DF81040290A8DF8AE
:1039C00011108DF81250310A8DF813108DF8146013
:1039D000390A8DF815108DF8167001A9404602F0CD
:1039E000A7FB06B0BDE8F0812DE9F04186B007469F
:1039F0000C4615461E46DDF830804FF400700190ED
:103A000000208DF80C008DF80D0008208DF80E00B8
:103A1000200A8DF80F008DF81040290A8DF811103A
:103A20008DF81250310A8DF813108DF814604FEA9A
:103A300018218DF815108DF816800EE027480068C3
:103A4000401C264908600846006840F6B8318842A4
:103A500003D100202149086004E0B86800F0E0507C
:103A60000028EBD000BF01A9384602F061FB06B088
:103A7000BDE8F0812DE9F04186B080460C46154640
:103A80001E460C9F40F2FF10019000208DF80C00A4
:103A90008DF80D0008208DF80E00200A8DF80F001B
:103AA0008DF81040290A8DF811108DF81250310A46
:103AB0008DF813108DF81460390A8DF815108DF8F3
:103AC000167001A9404602F033FB06B0BDE8F08154
:103AD000FFFF333D0000343D0001002004010020C1
:103AE000F0B503460C461888002113E0675C80EAB5
:103AF000072000250BE0460000F4004CBCF1000F4D
:103B000003D041F2210C86EA0C0630466D1C082DCC
:103B1000F1D3491C9142E9D31880F0BD2DE9F84357
:103B200005460F4690464FF00009002000900626FB
:103B3000FE484078002859D0002085F86300FB48F3
:103B40004078C0F3800078B1F9A1284604F083FDE5
:103B5000F84908600846006830B1F448007820F061
:103B60000400001DF1490870F048407800F00100A1
:103B700078B1EFA1284604F06EFDEE4908600846D2
:103B8000006830B1E948007820F00100401CE749A6
:103B90000870E6484078C0F3400078B1E4A12846B8
:103BA00004F059FDE34908600846006830B1DF4879
:103BB000007820F00200801CDC490870DB48407867
:103BC000C0F3C00078B1DCA1284604F044FDD94917
:103BD00008600846006830B1D448007820F008003A
:103BE0000830D2490870002028600AE128785A2855
:103BF000FBD16878A528F8D1A878E97800EB0120F6
:103C0000801D4045F1D1B8F1080FEEDB04222946B2
:103C10006846FFF765FFA8F10602A91D6846FFF791
:103C20005FFF2879697900EB01201FFA80F9BDF860
:103C300000004845D9D10626E0E0AC192078C0281C
:103C400060D008DC90280FD0A02813D0A52829D058
:103C5000B0286FD13EE0D02870D0D1286CD0D928C0
:103C60006BD0F028F5D1C3E06078B8490870B01C7B
:103C7000C6B2C2E06078A17800EB012000B2B3497F
:103C80004880E078217900EB012000B2AF498880BC
:103C90006079A17900EB012000B2AC49C880F01D29
:103CA000C6B2AAE06078A17800EB012000B2A74973
:103CB0000881E078217900EB012000B2A349488116
:103CC0006079A17900EB012000B2A0498881F01D44
:103CD000C6B292E06078A17800EB012000B29B4967
:103CE000C881E078217900EB012000B29749088271
:103CF0006079A17900EB012000B294494882F01D5F
:103D0000C6B27AE06078A17800EB012000B28F495A
:103D10008882E078217900EB012000B28B49C882CB
:103D20006079A17900EB012000B288490883F01D79
:103D3000C6B262E05FE001E04CE03FE06078A1786D
:103D400000EB012000B281494883E078217900EB43
:103D5000012000B27D4988836079A17900EB0120C0
:103D600000B27A49C8830846B0F91A0000EE100A7A
:103D7000B8EEC00ADFED760A20EE200A084680ED94
:103D80000F0AB0F91C0000EE100AB8EEC00ADFED11
:103D9000700A20EE200A084680ED100AB0F91E00D5
:103DA00000EE100AB8EEC00ADFED6A0A20EE200A23
:103DB000084680ED110AF01DC6B21EE0634854F8B3
:103DC000011F016261684162A168816206F10D0014
:103DD000C6B212E05D4854F8011FC1626168016318
:103DE000A1684163E168816306F11100C6B204E095
:103DF000701DC6B201E0464600BF00BF4645FFF653
:103E00001CAF5248B0F91200404200EE100AB8EE62
:103E1000C00ADFED500A20EE200A87ED040A4B4865
:103E2000B0F91000404200EE100AB8EEC00ADFED13
:103E3000490A20EE200A87ED030A4448B0F90E0033
:103E4000404200EE100AB8EEC00ADFED420A20EE52
:103E5000200A87ED050A404890ED000A3F4880EDB2
:103E6000000A3A4890ED110AB1EE400A3A4880ED56
:103E7000000A90ED000A3948D0ED000A30EE600AE1
:103E8000DFED370AB4EEE00AF1EE10FA05DB354853
:103E90000068401E3349086013E02F4890ED000A87
:103EA0002E48D0ED000A30EE600ADFED2F0AB4EEA6
:103EB000E00AF1EE10FA04D82A480068401C2949AB
:103EC00008602A4890ED000A294880ED000A1F4842
:103ED00090ED080A254880ED000A90ED000A24487C
:103EE000D0ED000A30EE600ADFED1D0AB4EEE00A04
:103EF000F1EE10FA05DB1F480068401E1D490860FE
:103F000013E01A4890ED000A1948D0ED000A30EE8F
:103F1000600ADFED150AB4EEE00AF1EE10FA04D8FB
:103F200014480068401C1349086025E0080100207F
:103F30004F4B00000C0100206E6577207061636BB1
:103F40006574206974656D7300000000E021002035
:103F50000AD7233CCDCCCC3D140100201001002019
:103F60000000A543280100200000A5C31C0100207B
:103F7000180100202C010020314800684FF4B47172
:103F8000484300EE100AB8EEC00A2E48D0ED000AF1
:103F900030EE200A87ED000A2B4890ED000A2B48EE
:103FA00080ED000A2A4890ED090A274880ED000AB2
:103FB00090ED000A2548D0ED000A30EE600A5FED72
:103FC000180AB4EEE00AF1EE10FA05DB21480068A9
:103FD000401E2049086013E01B4890ED000A1B4872
:103FE000D0ED000A30EE600A5FED210AB4EEE00A7F
:103FF000F1EE10FA04D817480068401C1549086013
:10400000154800684FF4B471484300EE100AB8EE4A
:10401000C00A1248D0ED000A30EE200A87ED010AEE
:104020000B4890ED100ADFED0E0A30EE200A87ED06
:10403000020A90ED0F0A87ED000ABDE8F883000040
:104040002C0100201C010020240100202001002060
:10405000E021002030010020280100201401002070
:10406000A470954030B5034605E013F8010B80EAD3
:104070000204B348025D081EA1F10101F5D110460A
:1040800030BD70B505460C4600260DB1022C01D896
:10409000002070BD611EFF222846FFF7E3FF0646A1
:1040A000601E285CB04201D10120F2E70020F0E759
:1040B00070B505460C4600260DB1022C00D870BD27
:1040C000611EFF222846FFF7CDFF0646601E2E54D4
:1040D00000BFF4E730B5034613B94FF6FF7030BDAB
:1040E00009E013F8014B82EA0400C0B2954D35F89F
:1040F000100080EA2222081EA1F10101F1D1104630
:10410000EDE770B505460C4600260DB1022C01D82E
:10411000002070BDA11E8C4802882846FFF7DAFFF8
:104120000646F1B2A01E285C814206D1601E285CC2
:10413000B0EB162F01D10120EBE70020E9E770B5C5
:1041400005460C4600260DB1022C00D870BDA11EFC
:104150007D4802882846FFF7BDFF0646A01E2E5464
:10416000310A601E295400BFF0E770B504460D46C1
:1041700000260CB1022D01D8FF2070BDFF22294678
:104180002046FFF76FFFF8E72DE9FC5F05460F4675
:10419000092F01D8BDE8FC9F0024A146CBE015F80B
:1041A00004A0601C295CA01C285C41EA0026601D5C
:1041B000295CA01D285C41EA002B281900F10708A2
:1041C00028190168009100798DF8040006F10900B2
:1041D0001FFA80F9BAF1A50F77D105216846FFF7DC
:1041E00050FF002871D028194946FFF78AFF0028A0
:1041F000F8D0BBF5017F6AD012DC40F20311ABEBC3
:1042000001008B452BD006DCBBF1010F1AD0BBF1AE
:10421000030F74D11CE0FE2828D0FF286FD14BE09B
:10422000BBF5027F6DD006DCABF20620002856D02D
:1042300001287BD15AE0ABF20130002868D0022877
:1042400074D16CE032464146404804F0D2F96EE049
:10425000324641463D480C3004F0CBF967E0324627
:1042600041463A48363004F0C4F960E01B2E22D1B2
:10427000324641463548393004F0BBF9334890F8AE
:104280003900012809DB314890F83900072804DC9F
:1042900002202E4981F8C5000DE02C4890F8390025
:1042A0000B2808DB294890F83900112803DC01208D
:1042B000264981F8C5003AE0102E05D13246414624
:1042C0002248543004F095F931E031E0FFE7012E47
:1042D00004D198F800001D4981F8740027E03246A7
:1042E00041461A48763004F084F920E0072E05D1C3
:1042F000324641461548773004F07BF917E015E067
:10430000FFE73246414611487E3004F072F90EE074
:10431000324641460D48843004F06BF907E03246DE
:1043200041460A48AC3004F064F900E000BF00BF29
:1043300004EB090084B2A7423FF731AF00BF29E781
:1043400021A3000822A40008340100202822002014
:1043500010B503463BB1087838B9012008701078D1
:10436000401C107001E000200870107800EBD07441
:104370006410A0EB44040CB9002010BD0120FCE740
:10438000CB8A03400BB1012300E000231370704778
:1043900010B5044604F1280221460120FFF7F0FF82
:1043A00004F1290221460420FFF7EAFF04F12A0262
:1043B00021460220FFF7E4FF04F12B0221460820EA
:1043C000FFF7DEFF04F12C0221461020FFF7D8FF93
:1043D00004F12E0221462020FFF7D2FF04F12F0224
:1043E00021464020FFF7CCFF04F130022146802017
:1043F000FFF7C6FF04F1310221464FF48070FFF74A
:10440000BFFF04F1320221464FF40070FFF7B8FFFE
:1044100004F1330221464FF48060FFF7B1FF04F14D
:10442000340221464FF40060FFF7AAFF04F12D0289
:1044300021464FF48050FFF7A3FF04F135022146D7
:104440004FF40050FFF79CFF04F1360221464FF471
:104450008040FFF795FF04F1370221464FF40040FA
:10446000FFF78EFF94F82800914A9249FFF770FFFA
:10447000382108552921085D8F4A9049FFF768FFC8
:10448000392108552A21085D8D4A8E49FFF760FFC2
:104490003A2108552B21085D8B4A8C49FFF758FFBC
:1044A0003B2108552C21085D894A8A49FFF750FFB6
:1044B0003C2108552E21085D874A8849FFF748FFAF
:1044C0003E2108552F21085D854A8649FFF740FFA8
:1044D0003F2108553021085D834A8449FFF738FFA2
:1044E000402108553121085D814A8249FFF730FF9C
:1044F000412108553221085D7F4A8049FFF728FF96
:10450000422108553321085D7D4A7E49FFF720FF8F
:10451000432108553421085D7B4A7C49FFF718FF89
:10452000442108552D21085D794A7A49FFF710FF8B
:104530003D2108553521085D774A7849FFF708FF86
:10454000452108553621085D754A7649FFF700FF79
:10455000462108553721085D734A7449FFF7F8FE74
:104560004721085510BD817AC176017FC27E891A24
:104570004177C27E0277417F01290ED1016A491C31
:104580000162016A01EBD1725210A1EB420212B931
:104590000022827701E001228277417F02290ED139
:1045A000416A491C4162416A01EBD1725210A1EB90
:1045B000420212B90022C27701E00122C27770479D
:1045C000C17A012901D1817608E0C17A032901D19C
:1045D000817603E0C17A022900D18176704730B537
:1045E00004460D46122D00D030BD04B9FCE72078FA
:1045F000617840EA0120C0F30A004D4908806078E4
:10460000C010A17840EA4110C0F30A004849488030
:10461000A0788011E17840EA8100217940EA812088
:10462000C0F30A004249888020794010617940EA4D
:10463000C110C0F30A003E49C880207C617C40EA7A
:104640000120C0F30A003A4908816079001180080E
:1046500088726079C0F30110C872A079E17940EAEC
:10466000012000B232498881207A617A40EA012033
:1046700001B22F48C181A07AE17A40EA012001B25B
:104680002B480182217B0175617B4175A07BE17B19
:1046900040EA01202649C8820846FFF791FF2448D6
:1046A000FFF761FF2248FFF773FE00BF9CE70000A1
:1046B0003701002036010020390100203801002098
:1046C0003B0100203A0100203D0100203C01002078
:1046D0003F0100203E010020410100204001002058
:1046E0004301002042010020450100204401002038
:1046F0004701002046010020490100204801002018
:104700004B0100204A0100204D0100204C010020F7
:104710004F0100204E0100205101002050010020D7
:1047200053010020520100205501002054010020B7
:10473000EE22002010B504460448D0F82600206080
:104740001C220349034800F027FC10BDD22300209F
:10475000522300205601002010B5044646484079F7
:1047600010B90020207001E0012020704248408AEA
:10477000A4F8010040480079A4F803003F482168EC
:10478000016021790171642100F064FD10BD70B5F4
:1047900004460D462A222946204603F02AFF70BD12
:1047A0000A68A2F22312062A2ED2DFE802F0030AD8
:1047B00011181F26D1F80B200260D1F80F2042609B
:1047C00023E0D1F80B208260D1F80F20C2601CE0FA
:1047D000D1F80B200261D1F80F20426115E0D1F829
:1047E0000B208261D1F80F20C2610EE0D1F80B20BE
:1047F0000262D1F80F20426207E0D1F80B208262FA
:10480000D1F80F20C26200E000BF00BF704730B592
:1048100085B005460C4618480078022802D0164894
:10482000007810B90020207001E0012020701248AB
:10483000408AA4F8010010480079A4F803000F484A
:1048400021680160217901714FF4407000900020CF
:104850008DF808008DF8090008208DF80A002068FE
:10486000CDF80B0020798DF80F006946284601F03D
:104870005FFC05B030BD0000362300206E23002011
:10488000F0B58BB004460D4616461F46012108467A
:1048900002F0ACFC0121480602F0F1FC09220B21D8
:1048A000964802F090FA09220C21944802F08BFA03
:1048B0004FF4C050099002208DF8280009A98F48B4
:1048C00002F0F6F914208DF8040003208DF805009D
:1048D00001208DF806008DF8070001A801F02BFAE1
:1048E000874801F093FA06A801F0B4FB00208DF888
:1048F0001E0001208DF81F0000208DF820008DF88B
:1049000021008DF822008DF823008DF81A708DF8A3
:104910001B008DF81C508DF81D40ADF8186006A9DD
:10492000774801F08CFA00208DF812008DF8130002
:1049300001208DF814000020ADF80800ADF80A0041
:10494000ADF80C00ADF80E00ADF8100001208DF8A8
:10495000150002A801F0FDFA01220221684801F0C9
:10496000F7FD0BB0F0BD10B50121654801F058FE10
:1049700018B10121624801F0EEFE10BD00B585B00E
:1049800002215F4801F04CFE88B104215C4801F02F
:10499000E2FE5C495A4801F020FE6A460021584870
:1049A00001F0BBFC00BF6846FEF734FE00BF05B057
:1049B00000BDF0B58BB004460D4616461F460121DA
:1049C000022002F013FC0121880602F058FC0922A3
:1049D0000C214D4802F0F7F909220D214A4802F056
:1049E000F2F94FF44050029002208DF80C0002A919
:1049F000454802F05DF940208DF8040003208DF851
:104A000005008DF8060001208DF8070001A801F0CF
:104A100092F93F208DF8040003208DF805008DF8F1
:104A2000060001208DF8070001A801F084F937483D
:104A300001F0ECF908A801F00DFB00208DF826002C
:104A400001208DF8270000208DF828008DF829001E
:104A50008DF82A008DF82B008DF822008DF82300A8
:104A60008DF824508DF82540ADF8206008A927481E
:104A700001F0E5F90E208DF81A0000208DF81B00DA
:104A800001208DF81C000020ADF81000ADF81200D8
:104A9000ADF81400ADF81600ADF8180001208DF83F
:104AA0001D0004A801F055FA01220221174801F067
:104AB0004FFD0BB0F0BD10B50121144801F0B0FD61
:104AC00018B10121114801F046FE10BD00B585B0B6
:104AD00002210E4801F0A4FD68B102210B4801F04B
:104AE0003AFE6A460021094801F017FC00BF6846FB
:104AF000FEF7A6FD00BF05B000BD000000000240AB
:104B000000640040080000320004024000680040D9
:104B10001CB50121042002F069FB06200090012051
:104B20008DF8040000208DF8060003208DF80500A4
:104B300001208DF807006946074802F0B9F8062100
:104B4000054802F031F90421034802F02FF902214F
:104B5000014802F02BF91CBD0008024010B596B0C8
:104B600004460121022002F041FB0121880502F0E8
:104B70003DFB0121102002F093FB07221146F8486B
:104B800002F021F914A802F0DBF880201490022032
:104B90008DF8540000208DF8550001208DF8570045
:104BA00014A9EF4802F084F8EE4803F0C5FA10A803
:104BB00003F08FFB10940020ADF84400ADF84600E0
:104BC0004FF48060ADF848000420ADF84A000020A2
:104BD000ADF84C0010A9E34803F015FB0122402179
:104BE000E04803F045FCE04801F008FE684601F0AB
:104BF000D0FE4FF000600090DA48001D0190DB48C5
:104C000002900020039040200490002005904FF473
:104C1000806006900020079008904FF48070099003
:104C200000020A9000200B900C900D900E906946A7
:104C3000CD4801F085FE0022CC494031CA4801F040
:104C4000E0FE0121C84801F0E8FE0121C64801F05C
:104C5000B1FE25208DF83C0000208DF83D008DF838
:104C60003E0001208DF83F000FA801F064F80122FA
:104C700040F22441BB4803F004FC0121B94803F091
:104C80004AFB16B010BD10B540F22441B54803F000
:104C900033FC002852D0B3480088B2488088B2481C
:104CA00001F0CBFE20BB0021AF4801F083FEB049EC
:104CB000AD4801F0F8FEAC4801F09FFEC0F14000A5
:104CC000AC4908604020A849091D0860081F006819
:104CD00040F40020091F08600121A34801F06AFE8A
:104CE00000BFA448008881B2A048FFF778FC25E007
:104CF00000219D4801F05EFE9D499B4801F0D3FED6
:104D0000994801F07AFEC0F140009A4908604020BD
:104D10009549091D0860081F006820F40020091F3C
:104D200008600121904801F045FE00BF91480088CD
:104D300081B28E484030FFF752FC00BF10BD10B565
:104D400096B004460121480402F099FA0121084670
:104D500002F04CFA0121480502F048FA072202212C
:104D6000854802F030F807220321834802F02BF82F
:104D70000C20149002208DF8540003208DF855006B
:104D800001208DF8570014A97B4801F091FF7B4862
:104D900003F0D2F910A803F09CFA10940020ADF8AB
:104DA0004C000C20ADF84A000020ADF84800ADF8EA
:104DB0004600ADF8440010A9704803F024FA01221F
:104DC00080216E4803F054FB6D4801F017FD1C2054
:104DD00005904FF0006001904020049000200C905E
:104DE0000D906848039000200E9009904FF4806069
:104DF000079000200A906148001D029000200F904B
:104E0000089006904FF480300B9001A95C4801F0A7
:104E100097FD01215A4801F0CDFD0122402157485C
:104E200003F026FB01A801F0B4FD202005908005C9
:104E30000190002004900C900D90534803900020A6
:104E40000E9009904FF48060079000200A904B4824
:104E5000001D029000200F90089006904FF48030C3
:104E60000B9001A94648183801F06AFD0121444819
:104E7000183801F09FFD4FF4A06000F057FF262086
:104E80008DF8000001208DF8030000208DF801004E
:104E90008DF80200684600F04EFF012240F22441E6
:104EA000364803F0EEFA0121344803F034FA16B024
:104EB00010BD10B540F22441304803F01DFB30B363
:104EC0002E4800882D48001D008800BF1C222E4956
:104ED0002E4803F08EFB00BF00212948183801F04E
:104EE00069FD00BF2648183801F0B1FD0028F9D14E
:104EF00027492348183801F0D6FD20212048603882
:104F000001F079FD01211E48183801F053FD10BD54
:104F100070B504460D4616461C222146194803F07A
:104F200068FB00BF1B49164801F0A1FD0028F9D01D
:104F30001849134801F0B7FD0021114801F03AFD6E
:104F400000BF0F4801F083FD0028FAD11C210C4856
:104F500001F051FD01210A4801F02CFD70BD000057
:104F60000004024000100140406402402628002056
:104F700000003010600100200000024000440040AA
:104F8000A060024052230020A628002036230020E3
:104F9000000C00200000202070B504460D46164687
:104FA000FE482168016000BFFD49FE4801F05FFD39
:104FB0000028F9D0FA49FB4801F075FD0021F948B5
:104FC00001F0F8FC00BFF74801F041FD0028FAD1DC
:104FD0001C21F44801F00FFD0121F24801F0EAFC28
:104FE00070BD10B596B004460121022002F0FEF813
:104FF0000121880402F043F90121480502F0F6F886
:1050000007220A21E84801F0DEFE07220B21E648CC
:1050100001F0D9FE02208DF8440003208DF84500F0
:1050200000208DF8460001208DF847008002109086
:1050300010A9DD4801F03CFE4FF40060109010A96B
:10504000D94801F035FE27208DF8000002208DF8A8
:10505000010001208DF802008DF80300684600F081
:105060006AFE12940020ADF84C00ADF84E00ADF889
:105070005000ADF854000C20ADF8520012A9CB48F6
:1050800003F0C1F8012240F22441C84803F0F9F9C5
:105090005021C64803F027FAC548039064200590C4
:1050A00000200C900D900E9009904FF480600790B6
:1050B00080100A90BD48001D029000200F900890BB
:1050C00006904FF400300B90800201900020049075
:1050D00001A9B448783801F033FC0121B14878388F
:1050E00001F068FC01224021B04803F0C1F901221F
:1050F0008021AE4803F0BCF90021AA48483801F0ED
:1051000059FCA848483801F079FB00BFA548483849
:1051100001F09DFC0028F9D14FF000600190A348F8
:10512000001D0290A34803904020049000200590A9
:1051300006904FF4806007900020089009900A9034
:105140004FF480300B9000200C9003200D90002035
:105150000E900F9001A99348483801F0F1FB0E2002
:105160008DF8000002208DF8010001208DF802006A
:105170008DF80300684600F0DEFD01221021894809
:10518000483801F0A4FC0121884803F0C4F816B0A7
:1051900010BD10B5002440F22441844803F0ACF95E
:1051A00008B3824803F0E6F840F224417F4803F058
:1051B000DEF900217B48783801F0FCFB0022402119
:1051C0007A4803F055F900BF79497B48FFF7DFFAC9
:1051D00000BF01224021754803F04AF901217148BE
:1051E000783801F0E7FB10BD10B54FF0C0516D48A5
:1051F000483801F03CFC50B100216A48483801F0C1
:10520000D9FB4FF0C0516748483801F04CFC10BD45
:1052100070B504460D460021204601F0CBFB00BFCF
:10522000204601F014FC0028FAD12946204601F05E
:10523000E2FB0121204601F0BDFB70BD70B50446C4
:1052400000255C4D05F8014B012156484838FFF711
:10525000DFFF70BD2DE9F04105460E460024002712
:10526000544F00BF03E0285D3855601C84B2B4423F
:10527000F9DB31464B484838FFF7CAFFBDE8F081FB
:1052800010B596B004460121042001F0AFFF0121C2
:10529000C80401F0F4FF08220A21484801F093FDF8
:1052A00008220B21454801F08EFD0121480501F03F
:1052B0009DFF4FF44060109002208DF844000020C4
:1052C0008DF8460003208DF8450001208DF8470039
:1052D00010A93A4801F0ECFC12940020ADF84C0003
:1052E000ADF84E00ADF850000C20ADF85200002093
:1052F000ADF8540012A9324802F085FF0122402186
:105300002F4803F0B5F82748603801F077FA68466F
:1053100001F03FFB4FF0006000902948001D019014
:1053200028480290002003906420049000200590FB
:105330004FF48060069000200790089009904FF489
:1053400080300A9000200B900C900D900E906946D2
:105350001448603801F0F4FA01211248603801F075
:1053600029FB34208DF83C0003208DF83D008DF89A
:105370003E0001208DF83F000FA800F0DCFC012268
:1053800080210F4803F074F800210648303801F0FE
:1053900011FB0448303801F031FA15E052230020A7
:1053A00000002020A06002400004024000480040AD
:1053B000C6280020F2290020D22300200008024045
:1053C000004C00402A29002000BFFB4801F03FFBB1
:1053D0000028FAD14FF000600090F8480190F8489A
:1053E0000290402003900020049005904FF48060CC
:1053F000069000200790089009904FF480300A90A2
:1054000000200B9003200C9000200D900E90694618
:10541000E94801F095FA0F208DF83C0003208DF843
:105420003D008DF83E0001208DF83F000FA800F0F0
:1054300082FC01221021E04801F049FB012240F2E8
:105440002441DE48001F03F01CF80121DB48001F47
:1054500002F061FF16B010BD10B5002440F22441E7
:10546000D648001F03F048F808B3D448001F00884E
:10547000D24800880021D048303801F09BFAD14949
:10548000CD48303801F00FFBCB48303801F0B5FA89
:10549000C0F16400C4B200BF00BF6421C648303808
:1054A00001F0A9FA0121C448303801F083FA10BD97
:1054B00070B504460D462946204601F09CFA0121AC
:1054C000204601F077FA70BD10B5BF49BA4801F027
:1054D000CEFA38B10021B84801F06CFABA49B648A2
:1054E00001F0E1FA10BD70B504460025B44D05F891
:1054F000014B0121B048FFF7DBFF70BD2DE9F04102
:1055000005460E4600240027AD4F00BF03E0285D8E
:105510003855601C84B2B442F9DB3146A648FFF727
:10552000C7FFBDE8F08110B596B004460121042004
:1055300001F05CFE0121082001F058FE0121080560
:1055400001F09DFE0121480501F050FE02208DF87A
:10555000540000208DF856004FF480501490012024
:105560008DF8570003208DF8550014A9974801F0D5
:105570009FFB02208DF8540000208DF85600042077
:10558000149001208DF8570003208DF8550014A9C0
:105590008F4801F08DFB08220C218C4801F013FC90
:1055A000082202218A4801F00EFC10940020ADF878
:1055B0004C000C20ADF84A000020ADF84800ADF8D2
:1055C0004600ADF8440010A9824802F01CFE0121FB
:1055D000804802F0A0FE012240217E4802F048FFF0
:1055E000684601F0D6F97C4802904FF400700490B0
:1055F000800400907748001D0190002003900590E2
:105600004FF48060069000200890079009904FF4B6
:1056100080300A9000200B900C900D900E906946FF
:105620006548603801F08CF901216348603801F069
:10563000C1F9002269496048603801F0E2F90121AE
:105640005D48603801F0E9F935208DF83C00012013
:105650008DF83F008DF83D0002208DF83E000FA828
:1056600000F069FB012240F224415A4802F009FF90
:105670000121584802F04FFE01228021554802F0D6
:10568000F7FE00214C48483001F094F94A48483070
:1056900001F0B4F800BF4848483001F0D8F90028BC
:1056A000F9D14FF0006000904A48001D01904C482D
:1056B00002904020039096200490002005904FF423
:1056C0008060069000200790089009900A900B9047
:1056D00003200C9000200D900E906946364848300B
:1056E00001F02EF901213448483001F063F92F20F0
:1056F0008DF83C0002208DF83D0001208DF83E0021
:105700008DF83F000FA800F016FB16B010BD70B565
:1057100004460D460021204601F04CF900BF20460A
:1057200001F095F90028FAD12946204601F063F9E5
:105730000121204601F03EF970BD10B540F2244130
:10574000244802F0D9FE002875D02248008821485C
:1057500080881948603801F070F958BB002116485C
:10576000603801F027F91F491348603801F09BF9B0
:105770001148603801F041F9C0F500701A4908601D
:105780004FF400710C48603801F035F94FF40022F5
:1057900012490948603801F04BF901210648603888
:1057A00001F008F900BF1048008881B20A48FEF7EE
:1057B000EBFC40E01AE0000070600240044C004046
:1057C000562A00200000301020000020000802406F
:1057D000000C024000500040262400202626002015
:1057E000BA2A0020300000106401002000216C481B
:1057F00001F0E0F86B496A4801F055F9684801F09A
:10580000FCF8C0F50070684908604FF40071644806
:1058100001F0F1F800226549614801F009F9012120
:105820005F4801F0C7F800BF5F48008881B2604858
:10583000FEF7AAFC00BF10BD00B597B001210420FF
:1058400001F0D4FC0121880501F0D0FC01212020C9
:1058500001F026FD08220621564801F0B4FA08227C
:105860000721544801F0AFFAC020119002208DF8B2
:10587000480000208DF84A0002208DF849000020E1
:105880008DF84B0011A94B4801F012FA4A4802F07A
:1058900053FC4FF4E13013900020ADF85000ADF808
:1058A0005200ADF854000C20ADF856000020ADF8C1
:1058B000580013A9404802F0A6FC012240213E48AE
:1058C00002F0D6FD3D4800F099FF4FF020600190B6
:1058D0003948001D02903A4803900020049064204B
:1058E0000590002006904FF48060079000200890FB
:1058F00009900A904FF480300B9000200C900D908E
:105900000E900F9001A92D4801F01AF801212B48A3
:1059100001F050F847208DF8400003208DF8410039
:105920008DF8420001208DF8430010A800F003FA22
:10593000012240F22441204802F0A3FD01211E482B
:1059400002F0E9FC17B000BD10B540F224411A483E
:1059500002F0D2FD18B3184800881748001D0088CF
:105960000021164801F026F81649144801F09BF86A
:10597000124801F042F8C0F164001349086000BF0A
:105980000846027811490E48FEF7C8F800BF6421A6
:105990000A4801F030F80121084801F00BF810BD69
:1059A0001060024030000010640100202624002016
:1059B000262600200008024000140140286402400E
:1059C0008E290020000C001068010020981800208B
:1059D0000EB50121022001F063FC4FF0FF30019071
:1059E000A720ADF800000020ADF80800ADF80200D7
:1059F0000121C84801F066FE6946C64801F0F7FD7E
:105A00000121C44801F05EFE00221146C14801F0A8
:105A10002BFE0121BF4801F03DFE0121BD4801F0F0
:105A20006FFE0EBD1FB50121042001F028FC1C20D3
:105A30008DF8000000208DF8010002208DF8020092
:105A400001208DF80300684600F075F94FF0FF3033
:105A500002905320ADF804000020ADF80C00ADF822
:105A600006000121880701F02DFE01A94FF08040BA
:105A700001F0BDFD0121880701F042FE1FBD1FB5E9
:105A80000121022001F0FBFB1D208DF80000002009
:105A90008DF8010002208DF8020001208DF803002E
:105AA000684600F048F94FF0FF300290A720ADF8AB
:105AB00004000020ADF80C00ADF806000121964866
:105AC00001F000FE01A9954801F091FD01219248E5
:105AD00001F016FE012211468F4802F029FA012139
