:020000040800F2
:10000000502F002085850008BD010008BF010008B1
:10001000C3010008C7010008CB0100080000000070
:10002000000000000000000000000000CF010008F8
:10003000D101000800000000D3010008D50100082C
:100040009F8500089F8500089F8500089F85000800
:100050009F8500089F8500089F8500089F850008F0
:100060009F8500089F8500089F8500089F850008E0
:100070009F8500089F850008E1510008C1540008D1
:100080009F8500089F8500089F8500085F4900083C
:10009000754900089F8500089F8500089F85000816
:1000A0009F8500089F8500089F8500089F850008A0
:1000B0007D5B00089F5B0008BD5B00089F85000812
:1000C0009F8500089F8500089F8500089F85000880
:1000D0009F8500087F4C0008AB4E00088B5100083C
:1000E0009F8500089F8500089F8500089F85000860
:1000F0009F8500089F8500089F8500089F85000850
:100100009F8500089F850008DF5B00089F85000829
:100110005154000833570008C55C0008EB5C000828
:100120009F8500089F8500089F8500089F8500081F
:100130009F8500089F8500089F850008AF4A00083A
:10014000C54A00089F8500089F8500089F85000814
:100150009F8500089F8500089F8500084159000879
:100160009F8500089F8500089F8500089F850008DF
:100170009F8500089F8500089F8500089F850008CF
:100180009F8500089F850008DFF810D008F0E6FD85
:1001900000480047A1010008AFF30080502F002065
:1001A00000F022F900F0D6F904E003480068401C92
:1001B00001490860F9E7000000000020704700BF17
:1001C000FEE700BFFEE700BFFEE700BFFEE77047A7
:1001D00070477047704700000CB5002001900090F8
:1001E0007648006840F480307449086000BF734866
:1001F000006800F4003000900198401C01900098C5
:1002000018B90198B0F5A06FF1D16C48006800F4FE
:10021000003010B10120009001E000200090009813
:10022000012846D165484030006840F0805063495D
:10023000403108606248006840F44040604908600E
:100240005E48083000685D4908310860084600686B
:1002500040F4004008600846006840F4A050086080
:100260005848091F0860081F006840F08070091F87
:10027000086000BF5148006800F000700028F9D005
:1002800040F20570504908604C480830006820F082
:1002900003004A49083108600846006840F002003F
:1002A000086000BF45480830006800F00C000828CE
:1002B000F8D10CBD10B54548006840F470004349C2
:1002C00008603E48006840F001003C49086000209A
:1002D0003A4908310860394800683D4908403749C3
:1002E00008603C48091D0860081F006820F4802051
:1002F000091F0860002031490C310860FFF76CFFCE
:100300004FF0006031498039086010BD70B50020A1
:100310000022022300240221284D08352D6805F013
:100320000C0020B1042806D0082834D107E02A4D5B
:100330002A4E356033E02A4D284E35602FE01F4DA0
:100340002D1D2D68C5F380541C4D2D1D2D6805F005
:100350003F0154B1224DB5FBF1F5184E361D3668FC
:10036000C6F3881605FB06F209E01B4DB5FBF1F557
:10037000124E361D3668C6F3881605FB06F20F4D81
:100380002D1D2D68C5F301456D1C6B00B2FBF3F507
:10039000124E356003E0104D104E356000BF00BFB7
:1003A000064D08352D68C5F303150E4E705D0B4DD7
:1003B0002D68C540094E356070BD00000038024010
:1003C0000070004008544007003C024088ED00E007
:1003D000FFFFF6FE103000240024F400040000208B
:1003E00000127A000800002010B54FF4A06005F05C
:1003F00099FC04F089FB184804F0ACFB4FF4E130A1
:1004000004F099FC4FF4E13004F0E7FD4FF4E130E3
:1004100004F032FF4FF4165005F081F805F008FAA9
:10042000002303220821104604F026FA00230322A9
:100430000821104604F0B9FA05F0F0FA05F01BFBAC
:1004400005F04EFB05F065FB05F0DAFB05F009FC55
:1004500005F0BAFA10BD0000A086010008B54148B9
:100460000068401C3F490860086800EBD0714910E3
:10047000A0EB410109B902F0B8FC3A480068032139
:1004800090FBF1F201FB1200B8B93748B0F92E0029
:1004900000903548B0F92C30B0F92A20B0F9281076
:1004A000324803F029FA3048B0F92E0000231A46EA
:1004B000194600902E4803F01FFA2A49086800EBFD
:1004C000D0714910A0EB410101290DD12648B0F9A6
:1004D000260000902448B0F92430B0F92220B0F969
:1004E0002010224803F07CFA1E480068142190FB7B
:1004F000F1F201FB120010B91E4804F029F9194865
:1005000000680A2190FBF1F201FB120010B91A48B1
:1005100004F00CF9134800684FF47A7190FBF1F283
:1005200001FB120038B90421144806F03BFC0221FB
:10053000124806F037FC0B4800684FF4FA6190FB54
:10054000F1F201FB1200012803D104210B4806F04F
:1005500027FC08BD10B500200249086000F010F823
:1005600010BD000018000020E001002000680040DD
:10057000006400405A01002056010020000802409B
:1005800010B5A821FE4808F057F80120FC4908736F
:10059000002048730864B1EE041ADFEDFA0AB2EEE7
:1005A000000A0A234FF4FA520321F74802F0C9FF68
:1005B000B2EE041ADFEDF30A9FEDF40A4FF4FA737A
:1005C00043F698220321F24802F0BBFFB1EE041A71
:1005D000DFEDEC0AB2EE000A0A234FF4FA520321CF
:1005E000E9484C3002F0ADFFB1EE001ADFEDE50A4C
:1005F0009FEDE60A4FF4FA7343F698220321E4488C
:100600004C3002F09EFFB1EE001ADFEDDE0AB2EED2
:10061000000A0A234FF4FA520321DB48983002F013
:1006200090FFB2EE001AF6EE000A9FEDD80A4FF4E2
:10063000FA7343F698220321D548983002F081FFDF
:10064000B1EE001ADFEDCF0AB2EE000A0A234FF432
:10065000FA520321CC48E43002F073FFB2EE041AE0
:10066000DFEDC80A9FEDC90A4FF4FA7343F69822EA
:100670000321C748E43002F064FF002414E004EBD7
:10068000440101EB0411C34A02EB81009FEDC21A41
:10069000DFEDC10A9FEDC10A4FF47A6343F6982259
:1006A000032102F04EFF641C042CE8DB9FEDBC1A12
:1006B000DFEDB90A9FEDBB0A0A2341F270720321F4
:1006C000B94802F03EFF10BD00B52DED0A8B89B090
:1006D000B0EE409A002022E000EB400101EB001157
:1006E000AC4A02EB810191ED000A00EB400101EB05
:1006F000001102EB8101D1ED020A70EE200AA0493F
:10070000983131F9101000EE101AB8EEC00A20EE40
:10071000800A05A901EB800181ED000A401C042834
:10072000DADB002046E000EB400101EB0011994AC2
:1007300002EB810191ED090A00EB400101EB001190
:1007400002EB8101D1ED000AB1EE601A8C49A031B3
:1007500031F9101000EE901AF8EEE00A01EE200ACE
:1007600000EB400101EB001102EB810191ED021A57
:100770008349A03131F9101000EE901AF8EEE00A2A
:1007800001EE600A00EB400101EB001102EB810178
:10079000D1ED020A00EB400101EB001102EB8101F7
:1007A00091ED061A00EEC10A01A901EB800181ED6D
:1007B000000A401C0428B6DB9DED050A20EE000A65
:1007C000DDED060A9DED061A00EE810ADDED070A51
:1007D0009DED071A00EE810ADDED080A9DED081A6D
:1007E00000EE810ADFED710A20EE208A9DED050AF8
:1007F000DDED010A20EE200ADDED060A9DED021A6C
:1008000000EE810ADDED070A9DED031A00EE810A74
:10081000DDED080A9DED041A00EE810ADFED640AA1
:1008200020EE200ADDED050A9DED061A70EE810A24
:100830009DED071A70EE810A9DED081A70EE810A8F
:100840009FED5C1A01EE200A9DED051A4C48B0F9A7
:10085000A00000EE900AF8EEE00A61EE200ADDED5D
:10086000061A4748B0F9A20001EE100AB8EEC11A04
:1008700041EE810ADDED071A4148B0F9A40001EE0E
:10088000100AB8EEC11A41EE810ADDED081A3C48A3
:10089000B0F9A60001EE100AB8EEC11A41EE810AC5
:1008A0009FED451AF0EE408A41EE208A9DED010A47
:1008B00020EE000ADDED020A9DED021A00EE810A2B
:1008C000DDED030A9DED031A00EE810ADDED040A59
:1008D0009DED041A00EE810ADFED340A20EE200AB5
:1008E000DDED010A9DED021A70EE810A9DED031AFD
:1008F00070EE810A9DED041A70EE810A9FED2D1AAB
:1009000000EE810A9DED011A1D48B0F9A00000EE2D
:10091000900AF8EEE00A61EE200ADDED021A1848AE
:10092000B0F9A20001EE100AB8EEC11A41EE810A38
:10093000DDED031A1248B0F9A40001EE100AB8EE7A
:10094000C11A41EE810ADDED041A0D48B0F9A60086
:1009500001EE100AB8EEC11A41EE810A9FED161A97
:1009600001EE200ADFED150A30EE200A70EE499AFA
:1009700028EEA80AF1EE000A68EE200A20E0000046
:10098000E0010020CDCCCC3DD41300200000484332
:100990003416002064170020000000000000B4425C
:1009A0000000484200001644C80E002058DF2C34D6
:1009B00058DFAC346019C0B762BEBC37FA7EEA3F7C
:1009C00000EEE90A10EE101A084608F030F841EC83
:1009D0001C0B9FEDFE0B53EC102B07F04AFE41EC75
:1009E0001B0BB0EE4B0AF0EE6B0A08F051FFB0EEB5
:1009F00040AAF0EE60AA51EC1A0B08F05BF800EE8A
:100A0000100AF1EE680A70EE200AB0EE000A28EE35
:100A1000001A80EE810A09B0BDEC0A8B00BDF0EE31
:100A2000400AB3EE001AB3EE090A10EE810AE94853
:100A300080ED000A90ED000AB5EEC00AF1EE10FA62
:100A400004D81FED2B0A80ED000A11E0B3EE000A76
:100A500020EE800ADF4890ED001AB4EEC10AF1EEF4
:100A600010FA05D8B3EE000A20EE800A80ED000AE5
:100A7000B7EE000AD84880ED000AD64890ED000A8B
:100A8000704710B52DED108B8CB0002498E0D34941
:100A900031F9141001EE101AB8EEC11AF0EE410A45
:100AA000CE49083131F9141001EE101AB8EEC11A0E
:100AB000B0EE410A04EB440101EB0411C84A02EB19
:100AC000810002F047FBC74800EB840080ED000A7C
:100AD000C44800EB840090ED000ADFEDC30AB4EED9
:100AE000E00AF1EE10FA07D89FEDBF0ABD4800EB0F
:100AF000840080ED000A12E0BA4800EB840090ED1B
:100B0000000ADFEDBA0AB4EEE00AF1EE10FA06DBF5
:100B10009FEDB60AB34800EB840080ED000AB148AF
:100B200000EB840090ED000A04EB440000EB04109D
:100B3000AB4901EB8000D0ED040A20EE200AAC485E
:100B4000D0ED000A20EE200AAA4800EB840080EDD8
:100B5000000AA44800EB840090ED000AA648D0EDFE
:100B6000000A20EE200A9F4800EB8400D0ED000A26
:100B700020EE200A9B4800EB8400D0ED000A9F483D
:100B800090ED001A01EE200A9D48D0ED000A30EEEB
:100B9000200A9C4800EB840080ED000A954800EB99
:100BA000840090ED000A974800EB8400D0ED000A25
:100BB00030EE200A944800EB840080ED000A641CAB
:100BC000042CFFF664AF904890ED000AD0ED010AC6
:100BD00030EE200AD0ED020A30EE200AD0ED030AF2
:100BE00030EE200A894880ED000A90ED000AB5EE4B
:100BF000C00AF1EE10FA04D81FED990A80ED000A40
:100C00000DE0824890ED000ADFED810AB4EEE00AC3
:100C1000F1EE10FA03DB9FED7E0A80ED000A7B48BF
:100C200090ED000ABCEEC00A10EE100A7949088067
:100C300008460088002802DC0020088015E075487E
:100C4000008800EE100AB8EE400A7348D0ED000AA2
:100C5000B4EEE00AF1EE10FA07DB90ED000ABCEE0C
:100C6000C00A10EE100A6B4908806C48D0ED000AEB
:100C70006848008800EE100AB8EE400A30EEC00A5C
:100C8000BCEEC00A10EE100A654908805F4890ED7E
:100C9000000A6148D0ED000AB4EEE00AF1EE10FA65
:100CA0007EDD0024F9E0584800EB840090ED000A56
:100CB0005948D0ED000A20EE200A5448D0ED000A31
:100CC00080EE201A574800EB840080ED001A4E4851
:100CD00000EB840090ED000A4948D0ED000AB4EE24
:100CE000E00AF1EE10FA6FDD474800EB840090ED6A
:100CF000000A4C4800EB8400D0ED000AB4EEE00A94
:100D0000F1EE10FA60DD3C4890ED000A08A800EB17
:100D1000840080ED000A04EB440000EB041030492D
:100D200001EB8000D0ED040A344890ED000A304811
:100D300090ED001A01EE200A04A800EB840080ED7B
:100D4000000A384800EB840090ED000A2C48D0EDF2
:100D5000000A30EEC00A684600EB840080ED000A0D
:100D6000204800EB840090ED000A10EE101A0846AF
:100D700007F05DFE41EC190B08A800EB840090ED34
:100D8000000AF0EE000A20EE200A10EE101A0846C3
:100D900007F04DFE41EC1B0B04A800EB840000E0C3
:100DA0007FE090ED000A20EE000A08A800EB840026
:100DB000D0ED000AB1EE001A60EE810A684600EB41
:100DC000840090ED001A2FE05FE0000000000000BA
:100DD0000000F03FAC00002070000020480200201E
:100DE000341600203803002000401CC600401C467A
:100DF00098000020480300209C000020A000002054
:100E0000A400002058030020680300208400002074
:100E100000007A4462000020780000207400002066
:100E2000600000207803002000EEC10A10EE101AC6
:100E3000084607F0FCFD41EC1F0BB0EE4F0AF0EE48
:100E40006F0A08F025FDB0EE40DAF0EE60DA04A893
:100E500000EB840090ED000AB1EE400A10EE101A8B
:100E6000084607F0E4FD53EC1D2B07F002FC53ECA1
:100E70001B2B07F017FD53EC192B07F013FD07F0A0
:100E800019FEFE4941F8240006E0B7EE000AFB48CF
:100E900000EB840080ED000A641C042CFFF603AF15
:100EA0000BE0002007E0B7EE000AF44901EB8001F7
:100EB00081ED000A401C0428F5DB002025E0EF4905
:100EC00001EB800191ED000AB5EEC00AF1EE10FAD7
:100ED00007D89FEDEB0AE94901EB800181ED000A9B
:100EE00012E0E64901EB800191ED000AF7EE000AFD
:100EF000B4EEE00AF1EE10FA06DBB7EE000ADF49C5
:100F000001EB800181ED000A401C0428D7DB0CB006
:100F1000BDEC108B10BD10B5DA48D0F8260000EEFD
:100F2000100AF2EE0E0AB4EEE00AF1EE10FA13DD4A
:100F3000D448D0F8260000EE100AFFF770FDD24822
:100F400080ED000AFFF79DFD9FEDD00AFFF7BCFB87
:100F5000CF4880ED000A1AE0CA48D0F8260000EE1B
:100F6000100AFFF75CFDC84880ED000A90ED001AFA
:100F7000C848008800EE900AF8EE600A71EE600A38
:100F8000B0EE600AFFF7A0FBC14880ED000AC2483E
:100F900090ED000AB5EEC00AF1EE10FA04D89FED0C
:100FA000B80A80ED000A0DE0BB4890ED000AF7EEAC
:100FB000000AB4EEE00AF1EE10FA03DBB7EE000A25
:100FC00080ED000AB24890ED000AB5EEC00AF1EEDD
:100FD00010FA04D89FEDAA0A80ED000A0DE0AC4893
:100FE00090ED000AF7EE000AB4EEE00AF1EE10FA16
:100FF00003DBB7EE000A80ED000A10BDDFEDA70AA3
:10100000B4EEE00AF1EE10FA06DBDFEDA40A70EEB2
:10101000600AB0EE600A0AE0B5EEC00AF1EE10FA1E
:1010200005D2DFED9E0A70EE200AB0EE600A70472E
:1010300010B52DED0A8BB0EE409AF0EE609AB0EE4E
:10104000418A9FED970B53EC102B51EC190B07F0D5
:10105000B7FB41EC1C0B9FED940B53EC102B07F0EE
:10106000AFFB41EC1B0B9FED921BB0EE4B0AF0EE79
:101070006B0A08F05FFAB0EE40AAF0EE60AA51ECFD
:101080001A0B07F017FD08EE100AB5EEC08AF1EE54
:1010900010FA05D29FED810A38EE000AB0EE408AC0
:1010A00018EE100A07F0C3FC41EC100BBDEC0A8BE4
:1010B00010BD10B52DED068BB0EE408AF0EE608AC3
:1010C0007D4890ED000AF7EE000A30EE200A80ED30
:1010D000000A18EE900A07F0AAFC41EC1A0B9FEDEB
:1010E000770B53EC102B07F06BFB41EC190B07F05F
:1010F000E1FC74490860704890ED000A20EE080A8F
:10110000714880ED000A084690ED000A6E48D0ED67
:10111000000A20EE200A10EE101A084607F087FC9D
:1011200041EC1A0BB0EE4A0AF0EE6A0A08F084FAB3
:10113000B0EE409AF0EE609A51EC190B07F0BAFC51
:10114000624908605F4890ED000A5F48D0ED000AF0
:1011500020EE200A10EE101A084607F068FC41EC59
:10116000190B9FED5B0B53EC102B07F08BFC04D895
:101170009FED430A544880ED000A544890ED000A60
:10118000BDEC068B10BD9FED3E0A534880ED010A71
:101190009FED3B0A80ED000A9FED390A80ED020ABF
:1011A0009FED370A4D4880ED120A704710B54B4845
:1011B00090ED130ADFED4A0AB4EEE00AF1EE10FA00
:1011C00008DB90ED130ADFED350A30EE600A80EDA2
:1011D000140A04E0414890ED130A80ED140A4148D6
:1011E000B0F90C0000EE100AB8EEC00A3A4880EDE3
:1011F000010A3C48B0F90A0000EE100AB8EEC00A35
:10120000354880ED000A37488078032805D19FEDE6
:101210001C0A354880ED000A04E09FED190A3248A7
:1012200080ED000A2D48D0ED140AB0EE600A2E4879
:1012300090ED001ADFED120A2C4801F027FEB1EE06
:10124000400A264880ED120A10BD2648B0F90C006D
:1012500000EE100AB8EEC00A1F4880ED010A2148CE
:10126000B0F90A0000EE100AB8EEC00A1A4880ED84
:10127000000A9FED030A19483AE00000A803002085
:1012800000000000D2230020740000200000D243A0
:101290006C0000206200002070000020DB0FC940BD
:1012A000000000000000F0BF000000A046DF913FFA
:1012B00000000060FB211940E00000206E861BF05A
:1012C000F9211940E8000020DC000020E4000020A3
:1012D0001F85EB51B81E1940E0010020800100205D
:1012E000DB0F49403623002030000020C80E0020CC
:1012F00080ED120A704710B52DED0A8BFE4890ED77
:10130000130A5FED090AB4EEE00AF1EE10FA08DB09
:1013100090ED130A5FED1F0A30EE600A80ED140AAB
:1013200004E0F54890ED130A80ED140AF348807844
:1013300003283CD1F24890ED000AB5EEC00AF1EE68
:1013400010FA34D190ED010AB5EEC00AF1EE10FAB0
:101350002DD1EC48008807F025FB41EC190BDFED9F
:10136000EA0A9FEDEA0AFFF7A4FE10EE104A2046B3
:1013700007F05DFB41EC1C0B9FEDE50B53EC102BD4
:1013800007F01EFA41EC1B0B9FEDE30B53EC102B07
:1013900007F013FA41EC1A0B53EC192B07F010FA73
:1013A00041EC180B07F02AFBDD49088059E0DD48C5
:1013B00090F83A00012803D14FF4FA70D849088018
:1013C000D84890F83A00022803D14FF4FA70D44973
:1013D0000880D44890F83A00032803D14FF4FA70FB
:1013E000CF490880CF4890F83A00042803D140F252
:1013F0002620CB490880CB4890F83A00052803D135
:1014000040F22620C6490880C64890F83A000628CF
:1014100003D14FF41670C2490880C24890F83A00D0
:10142000072803D14FF41670BD490880BD4890F8D5
:101430003A00082803D140F28A20B9490880B94807
:1014400090F83A00092803D14FF42F70B44908806E
:10145000B44890F83A000A2803D14FF42F70B049ED
:101460000880A648B0F90C0000EE100AB8EEC00AD9
:10147000A34880ED010AA148B0F90A0000EE100A65
:10148000B8EEC00A9E4880ED000A407B07280DD0C8
:10149000A548007818B90120A349087006E0A248C1
:1014A0000078012802D100209F4908709E480078EA
:1014B00050B99B480088404200EE100AB8EEC00ABE
:1014C0008D4880ED120A0CE097480078012808D179
:1014D0009348008800EE100AB8EE400A864880ED76
:1014E000120ABDEC0A8B10BD10B58448B0F90C008F
:1014F00000EE100AB8EEC00A814880ED010A7F486C
:10150000B0F90A0000EE100AB8EEC00A7C4880ED7F
:10151000000A794890ED130A5FEDA00AB4EEE00AE4
:10152000F1EE10FA08DB90ED130A5FEDA40A30EE3D
:10153000600A80ED140A04E06F4890ED130A80ED14
:10154000140A6D48D0ED140AB0EE600A774890EDA9
:10155000001A5FEDB50A764801F098FC664880ED08
:10156000120A10BD10B52DED108B634890ED140AD2
:10157000704880ED000A00248FE1C4EB041101EBF8
:101580004101872202EB410007F0FBF99FED6A0B56
:1015900053EC102B07F014F99FED690B53EC102B53
:1015A00007F080F941EC1D0BB0EE4D0AF0EE6D0A2C
:1015B00007F0AAFEB0EE40BAF0EE60BA4E4890EDE9
:1015C000120A10EE101A084607F031FA53EC1B2BE2
:1015D00007F0F6F841EC190B564890ED000AB1EE11
:1015E000400A10EE100A07F022FA41EC1F0BB0EE91
:1015F0004F0AF0EE6F0A08F01FF8B0EE40DAF0EE96
:1016000060DA3F4890ED010A10EE101A084607F024
:101610000EFA53EC1D2B07F0D3F841EC1B0B454899
:1016200090ED000AB1EE400A10EE100A07F0FFF943
:1016300041EC1F0BB0EE4F0AF0EE6F0A07F064FEAC
:10164000B0EE40DAF0EE60DA2D4890ED000A10EED0
:10165000101A084607F0EBF953EC1D2B07F0B0F811
:1016600053EC1B2B07F0A6F853EC192B07F0A2F84C
:1016700007F020FA344941F82400C4EB041101EBCF
:1016800041012D2202EB410007F07BF99FED2A0B6F
:1016900053EC102B07F094F89FED290B53EC102B13
:1016A00007F000F941EC1D0BB0EE4D0AF0EE6D0AAB
:1016B00007F02AFEB0EE40BAF0EE60BA0E4890EDA8
:1016C000120A10EE101A084607F0B1F953EC1B2B62
:1016D00007F076F841EC190B164890ED000AB1EED0
:1016E000400A10EE100A07F0A2F941EC1F0BB0EE11
:1016F0004F0AF0EE6F0A29E0800100203623002017
:10170000E0010020B0000020C3F5A83E6F12033BAB
:101710009A9999999999D93F9A9999999999014042
:1017200058000020282200205A000020300000200D
:10173000C80E0020EC0000201F85EB51B81E0940A8
:101740000000000000806640E803002007F0DCFD98
:10175000B0EE40DAF0EE60DAFE4890ED010A10EEED
:10176000101A084607F063F953EC1D2B07F028F810
:1017700041EC1B0BF84890ED000AB1EE400A10EE68
:10178000100A07F054F941EC1F0BB0EE4F0AF0EECF
:101790006F0A07F051FFB0EE40DAF0EE60DAED4884
:1017A00090ED000A10EE101A084607F040F953ECCD
:1017B0001D2B07F005F853EC1B2B06F05AFF53ECDA
:1017C000192B06F0F7FF07F075F9E44941F82400FA
:1017D000E34800EB840090ED000A10EE101A084672
:1017E00007F025F941EC1B0BDC4800EB840090ED81
:1017F000000A10EE101A084607F019F941EC1C0B0C
:10180000B0EE4B1AF0EE6B1AB0EE4C0AF0EE6C0A2A
:1018100007F07AFCB0EE40AAF0EE60AA1FED380B9C
:1018200053EC102B51EC1A0B06F0CAFF1FED3E0BC8
:1018300053EC102B07F036F807F03CF9C94941F892
:101840002400C64800EB840090ED000A20EE000A58
:10185000C34800EB8400D0ED000AC14800EB8400CF
:1018600090ED001A00EE810A10EE101A084607F0FB
:10187000DEF841EC190BB0EE490AF0EE690A08F007
:1018800007F8B0EE408AF0EE608A51EC180B07F0D2
:1018900011F9B54941F82400641C042CFFF66DAE23
:1018A000002019E0B04901EB800191ED000ABDEE86
:1018B000C00A10EE101A0AB2AC4921F81020A9494A
:1018C00001EB800191ED000AA849183901EB800174
:1018D00081ED000A411CC8B20428E3DBBDEC108B8B
:1018E00010BD30B52DED108B85B09FEDA10AF0EE47
:1018F000408A9FED9F0AB0EE408A9FED9D0AB0EEB0
:1019000040FA9FED9B0AF0EE40FA00200190029011
:10191000039004909548403890ED140AB1EE400AC7
:10192000B0EE409A8B48007B072813D1914800788D
:10193000012806D19FED900A39EE000AB0EE409AD8
:1019400008E08C48007828B99FED8C0A39EE400AEF
:10195000B0EE409A0024C3E0B0EE68FAF0EE48FA28
:10196000B0EE490A07F034FD7A48D0ED000A20EEC7
:1019700020AAB0EE490A07F0C3FE7648D0ED010A6E
:1019800000EEC0AA00EE104AB8EE400ADFED7C0A75
:1019900060EE200AB0EE001A80EE810ADFED790ACF
:1019A00030EE200AF0EE409A07F012FD6F48403802
:1019B000D0ED120A00EE80AAF0EE4A8AB0EE490A93
:1019C00007F09EFE6348D0ED000A20EE20AAB0EE9C
:1019D000490A07F0FDFC5F48D0ED010A00EE80AA3D
:1019E00000EE104AB8EE400ADFED650A20EE200A4C
:1019F000B0EE001AC0EE010A9FED620A30EE800AD6
:101A0000F0EE409A07F07CFE58484038D0ED120ABC
:101A100000EE80AAB0EE4A8A403030F9140000EEA1
:101A2000100AB8EEC00A01A800EB840080ED000A9D
:101A300028EEA80A08EE080A10EE101A084606F06A
:101A4000F6FF41EC1B0BB0EE4B0AF0EE6B0A07F011
:101A50001FFFB0EE40AAF0EE60AA51EC1A0B06F0A0
:101A6000AEFF01B2414820F8141018EE900A06F0BB
:101A7000DEFF41EC1D0B18EE100A06F0D8FF41EC1A
:101A80001E0BB0EE4D1AF0EE6D1AB0EE4E0AF0EEEF
:101A90006E0A07F039FBB0EE40CAF0EE60CA51ECB6
:101AA0001C0B07F007F800EE100ADFED370A20EEF6
:101AB000200A10EE105A284606F0B9FF41EC1B0B25
:101AC0001FEDE30B53EC102B06F0ECFE41EC1A0B70
:101AD00006F0F0FF2549183941F82400601CC4B213
:101AE000042CFFF639AF2948C0ED008A284880ED64
:101AF000008A05B0BDEC108B30BD10B5FFF7F1FECC
:101B000010BD10B52DED0C8BB0EE408AF0EE608A62
:101B1000B0EE419AF0EE619A1448403890ED120A06
:101B2000B5EEC00AF1EE10FA49D090ED120A10EEAF
:101B3000101A084606F07BFF41EC1D0BB0EE4D0A73
:101B4000F0EE6D0A07F0ECFCB0EE40BAF0EE60BAD1
:101B500006481FE0E0010020EC000020F803002010
:101B6000E8030020C8030020D8030020C0010020A3
:101B7000000000005A000020C2B8B23DC2B8B23E18
:101B8000DB0F4940DB0F49BF00003443B4000020A5
:101B9000B8000020403890ED090A10EE101A0846EF
:101BA00006F045FF41EC1C0B53EC1B2B06F07AFEB4
:101BB00041EC1A0B06F07EFFFE49086004E01FEDC1
:101BC000140AFC4880ED000AFB4890ED000A07F07B
:101BD00097FDF848D0ED000A20EE200A10EE104ADA
:101BE000204606F024FF41EC1B0B51EC180B81F052
:101BF000004141EC1D0B9FEDF10B53EC102B06F057
:101C000051FE41EC1C0B53EC1B2B06F032FD41EC5A
:101C10001A0B06F04FFFEB490860E74890ED000A09
:101C200007F06EFDE348D0ED000A20EE200A10EE2A
:101C3000104A204606F0FBFE41EC1B0B9FEDDF0B2C
:101C400053EC102B51EC180B06F02CFE41EC1C0B46
:101C500053EC1B2B06F00DFD41EC1A0B06F02AFF8E
:101C6000D9490860D44890ED000A07F0B1FBD1488B
:101C7000D0ED000A20EE200A10EE104A204606F0B1
:101C8000D6FE41EC1B0B51EC190B81F0004141ECED
:101C90001D0B9FEDCA0B53EC102B06F003FE41EC1D
:101CA0001C0B53EC1B2B06F0E4FC41EC1A0B06F06A
:101CB00001FFC6490860C04890ED000A07F088FBA4
:101CC000BC48D0ED000A20EE200A10EE104A204653
:101CD00006F0ADFE41EC1B0B9FEDB80B53EC102B47
:101CE00051EC190B06F0DEFD41EC1C0B53EC1B2BE9
:101CF00006F0BFFC41EC1A0B06F0DCFEB4490860AC
:101D0000B448007B072825D1B348007801280ED1BC
:101D1000B24890ED080AD0ED130A30EE600ADFED0C
:101D2000B00A30EE600AA44880ED000AB8E0AA4884
:101D3000007800280DD1A94890ED080AD0ED130ACB
:101D400030EE600ADFEDA60A30EE200A9A4880EDF8
:101D5000000AA5E0A14890ED140A5FED760AB4EE02
:101D6000E00AF1EE10FA20DD90ED140ADFED9D0A95
:101D7000B4EEE00AF1EE10FA17D8D0ED140AB0EE86
:101D8000600A5FED850A984801F0E4F9B1EE400A77
:101D9000924880ED120A90ED080AD0ED130A30EE59
:101DA000600A854880ED000A7AE08C4890ED140ABC
:101DB000DFED8C0AB4EEE00AF1EE10FA24DD90EDCE
:101DC000140ADFED8A0AB4EEE00AF1EE10FA1BD82D
:101DD000D0ED140AB0EE600ADFED850A824801F00A
:101DE000B9F9B1EE400A7D4880ED120A90ED080A7B
:101DF000D0ED130A30EE600ADFED7E0A30EE200AE5
:101E00006D4880ED000A4BE0744890ED140ADFED58
:101E1000770AB4EEE00AF1EE10FA08DA90ED140A4F
:101E2000DFED750AB4EEE00AF1EE10FA1CD26B4851
:101E3000D0ED130AB0EE600A5FEDAF0A6A4801F018
:101E400089F9B1EE400A654880ED120A90ED080A62
:101E5000D0ED130A30EE600ADFED660A30EE200A9C
:101E6000554880ED000A1BE05C48D0ED140AB0EE46
:101E7000600ADFED620A5C4801F06CF9B1EE400ADD
:101E8000564880ED120A90ED080AD0ED130A30EEA4
:101E9000600ADFED580A30EE600A474880ED000A1C
:101EA0004E4890ED080ADFED520AB4EEE00AF1EE7A
:101EB00010FA12DB90ED080A5FEDCF0AB4EEE00AEB
:101EC000F1EE10FA09D23C4890ED000ADFED480A25
:101ED00030EE600A80ED000A38E0404890ED080AD4
:101EE0005FEDD90AB4EEE00AF1EE10FA12DB90EDE4
:101EF000080ADFED430AB4EEE00AF1EE10FA09D267
:101F00002D4890ED000A5FEDE20A30EE600A80EDA8
:101F1000000A1BE0314890ED080ADFED390AB4EE03
:101F2000E00AF1EE10FA11DB90ED080ADFED310A5C
:101F3000B4EEE00AF1EE10FA08D21F4890ED000A64
:101F4000DFED2F0A30EE600A80ED000A204890EDA8
:101F5000000A20EE000A1C48D0ED000A90ED001A9D
:101F600000EE810A10EE101A084606F060FD41EC02
:101F70001B0BB0EE4B0AF0EE6B0A07F089FCB0EEDB
:101F800040AAF0EE60AA51EC1A0B06F093FD1D4931
:101F900048600E4890ED000A20EE000A0A48D0ED95
:101FA000000A90ED001A00EE810A10EE101A0846A1
:101FB0002AE000003400002038000020000000006B
:101FC00000000040C8000020CC000020D00000200D
:101FD000D4000020E00100205A00002080010020F1
:101FE0005077563EDB0F493FC80E0020E4CB164029
:101FF000DB0FC93FDB0FC940E4CB16C0DB0FC9BF05
:10200000E4CB96409802002006F011FD41EC1A0B3B
:10201000B0EE4A0AF0EE6A0A07F03AFCB0EE40BAB7
:10202000F0EE60BA51EC1B0B06F044FDFE498860EF
:10203000FE4890ED000A20EE000AFD48D0ED000AAF
:1020400090ED001A00EE810A10EE101A084606F014
:10205000EEFC41EC1B0BB0EE4B0AF0EE6B0A07F006
:1020600017FCB0EE40AAF0EE60AA51EC1A0B06F095
:1020700021FDED49C860EF4890ED000A20EE000A0E
:10208000EB48D0ED000A90ED001A00EE810A10EE48
:10209000101A084606F0CBFC41EC1B0BB0EE4B0AC5
:1020A000F0EE6B0A07F0F4FBB0EE40AAF0EE60AA87
:1020B00051EC1A0B06F0FEFCDB490860DD480068B5
:1020C00006F0B5FC41EC1B0BDB48006806F0AFFCEA
:1020D00041EC1C0BB0EE4B1AF0EE6B1AB0EE4C0A52
:1020E000F0EE6C0A07F010F8B0EE40AAF0EE60AA2D
:1020F00051EC1A0B06F0DEFCD0494860CB48006872
:1021000006F095FC41EC1B0BCB48006806F08FFCF9
:1021100041EC1C0BB0EE4B1AF0EE6B1AB0EE4C0A11
:10212000F0EE6C0A06F0F0FFB0EE40AAF0EE60AA06
:1021300051EC1A0B06F0BEFCC0498860BB48006831
:1021400006F075FC41EC1B0BB948006806F06FFC0B
:1021500041EC1C0BB0EE4B1AF0EE6B1AB0EE4C0AD1
:10216000F0EE6C0A06F0D0FFB0EE40AAF0EE60AAE6
:1021700051EC1A0B06F09EFCB049C860AD480068EF
:1021800006F055FC41EC1B0BA948006806F04FFC1B
:1021900041EC1C0BB0EE4B1AF0EE6B1AB0EE4C0A91
:1021A000F0EE6C0A06F0B0FFB0EE40AAF0EE60AAC6
:1021B00051EC1A0B06F07EFCA0490860A04890ED97
:1021C000080A5FED750AB4EEE00AF1EE10FA55DB8D
:1021D00090ED080ADFED9B0AB4EEE00AF1EE10FA8A
:1021E0004CD2914890ED030A974880ED000A8E4842
:1021F00090ED000A944880ED010A8B4890ED010AA9
:10220000914880ED020A884890ED020A8E4880EDE0
:10221000030A084690ED030A8C4880ED000A084640
:1022200090ED000A894880ED010A084690ED010A08
:10223000864880ED020A084690ED020A834880ED48
:10224000030A002018E0804901EB800191ED000AAB
:10225000754901EB800181ED000A7C4901EB8001A9
:1022600091ED000A5FED9E0A30EE200A734901EB02
:10227000800181ED000A401C0428E4DB704890EDE9
:10228000080ADFED700AB4EEE00AF1EE10FA55DB51
:1022900090ED080A5FEDA60AB4EEE00AF1EE10FA3E
:1022A0004CD2614890ED020A674880ED000A5E4812
:1022B00090ED030A644880ED010A5B4890ED000A46
:1022C000614880ED020A584890ED010A5E4880EDB1
:1022D000030A5A4890ED020A5C4880ED000A57480C
:1022E00090ED030A594880ED010A544890ED000A28
:1022F000564880ED020A514890ED010A534880ED9E
:10230000030A002018E0504901EB800191ED000A1A
:10231000454901EB800181ED000A4C4901EB800148
:1023200091ED000ADFED470A30EE200A434901EB48
:10233000800181ED000A401C0428E4DB404890ED58
:10234000080A5FEDD10AB4EEE00AF1EE10FA55DBAF
:1023500090ED080A5FEDD90AB4EEE00AF1EE10FA4A
:102360004CD2314890ED010A374880ED000A2E48E2
:1023700090ED020A344880ED010A2B4890ED030AE3
:10238000314880ED020A284890ED000A2E4880ED81
:10239000030A2A4890ED010A2C4880ED000A2748DC
:1023A00090ED020A294880ED010A244890ED030AC5
:1023B000264880ED020A214890ED000A234880ED6E
:1023C000030A002018E0204901EB800191ED000A8A
:1023D000154901EB800181ED000A1C4901EB8001E8
:1023E00091ED000A5FEDFA0A30EE200A134901EB85
:1023F000800181ED000A401C0428E4DB104890EDC8
:10240000120AB5EEC00AF1EE10FA5FD2064890ED5E
:10241000020A0D4880ED000A034890ED030A0A48BD
:1024200080ED010A004813E098020020D00000204F
:10243000C8000020D4000020CC000020A80200200A
:1024400080010020DB0F4940D8020020E802002074
:1024500090ED000AFC4880ED020AFC4890ED010A6C
:10246000F94880ED030AFA4890ED020AF94880ED38
:10247000000AF74890ED030AF64880ED010AF44897
:1024800090ED000AF34880ED020AF14890ED010A50
:10249000F04880ED030A002016E0EB4901EB8001D3
:1024A00091ED000AB1EE400AE84901EB800181EDAF
:1024B000000AE84901EB800191ED000AE44901EBD3
:1024C000800181ED000A401C0428E6DBE24890ED23
:1024D000120AB5EEC00AF1EE10FA37D1DF4890EDDE
:1024E000000AB5EEC00AF1EE10FA06D190ED010A2D
:1024F000B5EEC00AF1EE10FA28D0B7EE000AD348C4
:1025000080ED000AB7EE000A80ED010AB7EE000A7E
:1025100080ED020AB7EE000A80ED030ACE4890ED86
:10252000140ACB4880ED000ACB4890ED140AC84845
:1025300080ED010AC84890ED140AC54880ED020AF2
:10254000C54890ED140AC24880ED030A002026E039
:10255000BE4901EB800191ED000ABF49D1ED120A9D
:1025600020EE200ADFEDBE0A20EE200ABDEEC00AF2
:1025700010EE101A0AB2B849403121F81020B449BF
:1025800001EB800191ED000ADFEDB60A20EE200A92
:10259000B149283101EB800181ED000A401C04287B
:1025A000D6DBBDEC0C8B10BD10B52DED028B0024DD
:1025B00040E004EB440000EBC400AB4901EBC00079
:1025C00090ED121BB0EE410AF0EE610A9FEDA71BE1
:1025D00053EC112B51EC100B06F0F2F806F06AFAEE
:1025E00001469E48583040F824109B48283000EBA4
:1025F0008400D0ED000A9F4850F82400B4214843DD
:1026000000EE100AB8EEC00A30EE800A9348483057
:1026100000EB840080ED000A974830F824008E49D2
:10262000403131F81410484301B28B48403020F853
:102630001410641C042CBCDB8748B0F840004042F6
:1026400000B28549A1F840000846B0F94200A1F85F
:1026500042000846B0F94400A1F844000846B0F82A
:102660004600404201B27C48A0F846100020ABE092
:102670007A49483101EB800191ED000A77495831E0
:1026800001EB8001D1ED000A30EE600ADFED7B0A3C
:10269000B4EEE00AF1EE10FA23DD7049483101EBA7
:1026A000800191ED000A6D49583101EB8001D1EDB7
:1026B000000A30EE600ADFED720AB4EEE00AF1EED5
:1026C00010FA0ED26B4951F82010491E694A42F89F
:1026D0002010694951F820104942674A42F82010F9
:1026E00071E05E49483101EB800191ED000A5B49E0
:1026F000583101EB8001D1ED000A30EE600ADFEDC8
:10270000600AB4EEE00AF1EE10FA07DD594951F81B
:102710002010891E574A42F8201054E04F49483192
:1027200001EB800191ED000A4C49583101EB800129
:10273000D1ED000A30EE600ADFED520AB4EEE00A95
:10274000F1EE10FA23D24549483101EB800191EDB9
:10275000000A4249583101EB8001D1ED000A30EE08
:10276000600ADFED490AB4EEE00AF1EE10FA0EDD80
:10277000404951F82010491C3E4A42F820103E4979
:1027800051F8201049423C4A42F820101BE03349DE
:10279000483101EB800191ED000A3049583101EBDD
:1027A0008001D1ED000A30EE600ADFED370AB4EEA9
:1027B000E00AF1EE10FA06D22E4951F82010891CD9
:1027C0002C4A42F82010401C0428FFF651AF002488
:1027D00019E02249483101EB840191ED001AF0EE35
:1027E000410A1E49583101EB840191ED001AB0EE07
:1027F000410A04EB440101EB0411244A02EB81007D
:1028000000F0A8FC641C042CE3DB1448007B0328C4
:1028100003D01248007B07284ED100200FE000EBC8
:10282000400101EBC001104A02EBC101B1F84010B8
:1028300049420AB20949703121F81020401C04288D
:10284000EDDB002036E00000D802002098020020D6
:10285000A8020020E802002080010020E001002002
:10286000CDCCCC3EE12E6542E018002000000000F7
:102870000000F0BF08040020F00000200000B44277
:10288000000087430000B4C2000087C3D4130020B7
:1028900000EB400101EB0011FE4A02EB810191EDDA
:1028A0000B0ABDEEC00A10EE101A0AB2FA4921F85E
:1028B0001020401C0428EBDBBDEC028B10BD10B5D2
:1028C0002DED048BFFF770FE0024D9E004EB4400EB
:1028D00000EBC401F14800EBC100B0F84010EE4835
:1028E000383020F81410EE4830F81410EA48303030
:1028F00020F81410EA48403890ED090AB5EEC00AF5
:10290000F1EE10FA20D190ED120A10EE101A0846DE
:1029100006F08DF841EC190BB0EE490AF0EE690AA9
:1029200006F0FEFDB0EE408AF0EE608A9FEDDD0B12
:1029300053EC102B51EC180B06F08CF804D200214C
:10294000D548303020F81410D34931F9141001EE75
:10295000101AB8EEC11AF0EE410ACF49083131F928
:10296000141001EE101AB8EEC11AB0EE410A04EBD1
:10297000440101EB0411CD4A02EB810000F0EAFBB7
:10298000C549303131F9141001EE101AB8EEC11AF0
:10299000C749D1ED001A21EE211AF0EE410ABE49D5
:1029A000383131F9141001EE101AB8EEC11AB0EE38
:1029B000410A04EB440101EB0411BE4A02EB810021
:1029C00000F0C8FBB448683890ED000AB5EEC00AC4
:1029D000F1EE10FA40D190ED010AB5EEC00AF1EE29
:1029E00010FA39D1AE48403890ED120A10EE101AA4
:1029F000084606F01CF841EC190BB0EE490AF0EE5F
:102A0000690A06F08DFDB0EE408AF0EE608A9FED17
:102A1000AA0B53EC102B51EC180B06F01BF81BD231
:102A2000A7480068401CA649086008460068B0F541
:102A3000FA7F24D200200CE09FEDA20A00EB4001B7
:102A400001EB0011994A02EB810181ED0B0A411C57
:102A5000C8B20428F0DB12E08F48683890ED000A15
:102A6000B5EEC00AF1EE10FA06D190ED010AB5EE0E
:102A7000C00AF1EE10FA02D0002091490860641CEF
:102A8000042CFFF623AF002026E083496839097B38
:102A9000032904D080496839097B072916D100EB46
:102AA000400101EB0011834A02EB810191ED0B0A19
:102AB000F7EE000A20EE200ABDEEC00A10EE101A52
:102AC0000AB27549483921F8102004E00022724901
:102AD000483921F81020401C0428D6DB6E4C683C95
:102AE000B4F99830002B01DB1C4600E05C42322C2C
:102AF00024DA694C683CB4F99A20002A01DB1446B8
:102B000000E05442322C19DA634C683CB4F99C1052
:102B1000002901DB0C4600E04C42322C0EDA5E4C00
:102B2000683CB4F99E00002801DB044600E0444202
:102B3000322C03DA00206449086002E00120624977
:102B40000860002033E054496839097B032904D028
:102B500051496839097B072923D100EB400101EB7A
:102B60000011524A02EB810191ED0B0ABDEEC00A41
:102B700010EE101A09B200EE101AB8EEC00AF7EE05
:102B8000000A20EE200AFFEE000A20EE200ABDEE29
:102B9000C00A10EE101A0AB23F49403921F810203D
:102BA00004E000223C49403921F81020401C042850
:102BB000C9DBBDEC048B10BD10B52DED088B43496E
:102BC00048698969364A403AC2E916011046D0ED93
:102BD000131AB0EE611A90ED162BB0EE420AF0EE29
:102BE000620AFEF725FAB0EE409AF0EE609A51ECD8
:102BF000190B05F05FFF2A494039C8649FED310A7F
:102C0000B0EE408A3149B1F90A0005F0BAFE9FEDF5
:102C1000300B53EC102B05F0D3FD05F0D0FE00B2C5
:102C20002D4908802949B1F90C0005F0AAFE9FED55
:102C3000280B53EC102B05F0C3FD05F0C0FE00B2CD
:102C4000264908802449098811FB01F1234A12888A
:102C5000224B1B8812FB031005F093FE41EC1A0B6C
:102C6000B0EE4A0AF0EE6A0A06F012FEB0EE409AA2
:102C7000F0EE609A51EC190B05F01CFF0849403941
:102C80004862084690ED090ADFED150AB4EEE00A45
:102C900028E00000D413002048020020401A002041
:102CA000C001002000000000000014403416002085
:102CB0006C00002064170020000000000000494064
:102CC000D800002000000000400000203623002033
:102CD000CDCCCCCCCCCCF43F500000205200002016
:102CE00000004842F1EE10FA3FDB4448B0F9000022
:102CF00005F047FE41EC1A0B4148B0F9000005F021
:102D000040FE41EC1B0BB0EE4A1AF0EE6A1AB0EE30
:102D10004B0AF0EE6B0A06F0F7F9B0EE409AF0EECF
:102D2000609A51EC190B05F0C5FE08EE100A9FEDF4
:102D3000350A38EE000A10EE101A084605F077FE44
:102D400041EC1A0B9FED301BB0EE4A0AF0EE6A0A16
:102D500006F0F0FBB0EE409AF0EE609A51EC190BE1
:102D600005F0A8FE2A49086204E01FED2A0A284857
:102D700080ED090ABDEC088B10BD10B52548C07860
:102D8000254908730846007B072810D004DC012879
:102D900007D0032814D107E008280BD00A280FD148
:102DA0000BE0FEF7F0F90EE0FEF700FA0BE0FEF79D
:102DB000A2FA08E0FEF798FB05E0FEF746FA02E00B
:102DC000FEF7E1F900BF00BF1248C078124948730E
:102DD00010BD10B5FEF79FF8FFF771FD10BD10B5DF
:102DE000FFF7EAFEFEF789FE10BD10B5FFF7C5FF3D
:102DF000FFF7F5FFFFF7EDFF10BD000050000020CA
:102E000052000020DB0FC94000000060FB21194088
:102E10008001002036230020E0010020D0ED000AD0
:102E2000F4EEC00AF1EE10FA01DD80ED000AD0EDFB
:102E3000000AB1EE401AF4EEC10AF1EE10FA03D224
:102E4000F1EE400AC0ED000A70470364C26381637B
:102E500080ED000AC0ED010A80ED021A704780ED96
:102E6000000AC0ED010A80ED021ADFEDFB1AC0ED89
:102E7000081ADFEDF91AC0ED091ADFEDF71AC0EDF7
:102E80000A1ADFEDF51AC0ED0B1A704710B52DEDDB
:102E90000A8B0446F0EE408AB0EE609AB0EE418AAA
:102EA000C4ED048A84ED039A39EE680A84ED070ABA
:102EB00018EE100A05F0BBFD41EC1A0B94ED070A61
:102EC00010EE101A084605F0B2FD41EC1C0BB0EEF6
:102ED0004C0AF0EE6C0A06F023FBB0EE40BAF0EEBE
:102EE00060BA53EC1A2B51EC1B0B05F0B3FD04D266
:102EF0009FEDD90A84ED070A1CE094ED070AB4EEB1
:102F0000C80AF1EE10FA06DD94ED070A30EE480A21
:102F100084ED070A0EE094ED070AF1EE480AB4EEDC
:102F2000E00AF1EE10FA05D294ED070A30EE080A35
:102F300084ED070A18EE100A05F079FD41EC1A0B32
:102F400039EE680A10EE101A084605F070FD41ECE3
:102F50001C0BB0EE4C0AF0EE6C0A06F0E1FAB0EE93
:102F600040BAF0EE60BA53EC1A2B51EC1B0B05F093
:102F700071FD03D29FEDB80A84ED070A94ED0C0AA7
:102F8000B5EEC00AF1EE10FA27D094ED0C0A10EE5F
:102F9000101A084605F04BFD41EC1A0B94ED070A98
:102FA00010EE101A084605F042FD41EC1C0BB0EE85
:102FB0004C0AF0EE6C0A06F0B3FAB0EE40BAF0EE4E
:102FC00060BA53EC1A2B51EC1B0B05F05BFD04D2DD
:102FD0009FEDA10ABDEC0A8B10BDA06B03283ED16A
:102FE00094ED000AD4ED070A20EE200A84ED080AC9
:102FF00094ED090AD4ED010A94ED071A00EE810A56
:1030000084ED090A94ED070AD4ED060A30EE600A51
:10301000D4ED020A20EE200A84ED0A0AD4ED100A4B
:10302000F8EE600AB0EE600A04F12400FFF7F6FE45
:1030300094ED080AD4ED090A30EE200AD4ED0A0A0C
:1030400030EE200A84ED0B0AD4ED0F0AF8EE600A88
:10305000B0EE600A04F12C00FFF7E0FE42E0A06B46
:1030600004283FD194ED070AD4ED060A30EE600A39
:10307000D4ED000A20EE200A84ED080A94ED010A3E
:10308000D4ED070A20EE200A84ED090A94ED070A20
:10309000D4ED060AB0EE001A01EE600AD4ED050A7E
:1030A00030EE200AD4ED020A20EE200A84ED0A0A4E
:1030B00094ED080AD4ED090A30EE200AD4ED0A0A8C
:1030C00030EE200AD4ED0B0A30EE200A84ED0B0A14
:1030D000D4ED0F0AF8EE600AB0EE600A04F12C009D
:1030E000FFF79CFE94ED060A84ED050A94ED070AAD
:1030F00084ED060A94ED0D0AB5EEC00AF1EE10FA61
:1031000025D094ED0D0A10EE101A084605F08FFC3C
:1031100041EC1A0B94ED0B0A10EE101A084605F05C
:1031200086FC41EC1C0BB0EE4C0AF0EE6C0A06F08B
:10313000F7F9B0EE40BAF0EE60BA53EC1A2B51EC4E
:103140001B0B05F087FC02D29FED430A42E794ED8A
:103150000B0A3FE710B52DED088B0446B0EE408A10
:10316000F0EE608A84ED048AC4ED038A38EEC80A62
:1031700084ED070A94ED0C0AB5EEC00AF1EE10FAE0
:1031800027D094ED0C0A10EE101A084605F04FFCFB
:1031900041EC190B94ED070A10EE101A084605F0E1
:1031A00046FC41EC1B0BB0EE4B0AF0EE6B0A06F04E
:1031B000B7F9B0EE40AAF0EE60AA53EC192B51EC2F
:1031C0001A0B05F05FFC04D29FED230ABDEC088BBF
:1031D00010BDA06B032841D194ED000AD4ED070A7D
:1031E00020EE200A84ED080A94ED090AD4ED010AC4
:1031F00094ED071A00EE810A84ED090A94ED070A9E
:10320000D4ED060A30EE600AD4ED020A20EE200A60
:1032100084ED0A0AD4ED100AF8EE600AB0EE600AF6
:1032200004F12400FFF7FAFD94ED080AD4ED090A31
:1032300030EE200AD4ED0A0A30EE200A84ED0B0AA3
:10324000D4ED0F0AF8EE600AB0EE600A04F12C002B
:10325000FFF7E4FD45E0000000000000A06B04283B
:103260003FD194ED070AD4ED060A30EE600AD4EDA2
:10327000000A20EE200A84ED080A94ED010AD4ED3C
:10328000070A20EE200A84ED090A94ED070AD4ED1E
:10329000060AB0EE001A01EE600AD4ED050A30EE1F
:1032A000200AD4ED020A20EE200A84ED0A0A94EDE9
:1032B000080AD4ED090A30EE200AD4ED0A0A30EEED
:1032C000200AD4ED0B0A30EE200A84ED0B0AD4ED6F
:1032D0000F0AF8EE600AB0EE600A04F12C00FFF766
:1032E0009DFD94ED060A84ED050A94ED070A84ED30
:1032F000060A94ED0D0AB5EEC00AF1EE10FA25D0DB
:1033000094ED0D0A10EE101A084605F090FB41EC02
:10331000190B94ED0B0A10EE101A084605F087FB06
:1033200041EC1B0BB0EE4B0AF0EE6B0A06F0F8F81E
:10333000B0EE40AAF0EE60AA53EC192B51EC1A0B38
:1033400005F088FB02D21FED3C0A3FE794ED0B0A23
:103350003CE710B52DED088B0446B0EE408AF0EE48
:10336000608A84ED048AC4ED038A38EEC80A84EDCD
:10337000070A94ED0C0AB5EEC00AF1EE10FA27D058
:1033800094ED0C0A10EE101A084605F050FB41ECC3
:10339000190B94ED070A10EE101A084605F047FBCA
:1033A00041EC1B0BB0EE4B0AF0EE6B0A06F0B8F8DE
:1033B000B0EE40AAF0EE60AA53EC192B51EC1A0BB8
:1033C00005F060FB04D21FED5C0ABDEC088B10BD5C
:1033D000A06B03283ED194ED000AD4ED070A20EE3D
:1033E000200A84ED080A94ED090AD4ED010A94ED4F
:1033F000071A00EE810A84ED090A94ED070AD4ED5C
:10340000060A30EE600AD4ED020A20EE200A84EDAE
:103410000A0AD4ED100AF8EE600AB0EE600A04F170
:103420002400FFF7FBFC94ED080AD4ED090A30EE06
:10343000200AD4ED0A0A30EE200A84ED0B0AD4EDFE
:103440000F0AF8EE600AB0EE600A04F12C00FFF7F4
:10345000E5FC3EE0A06B04283BD194ED070AD4EDD7
:10346000060A30EE600AD4ED000A20EE200A84ED50
:10347000080A94ED010AD4ED070A20EE200A84ED33
:10348000090A94ED070AD4ED060AB0EE001A01EE1F
:10349000600AD4ED050A30EE200AD4ED020A20EECF
:1034A000200A84ED0A0A94ED080AD4ED0A0A30EEE7
:1034B000200AD4ED0B0A30EE200A84ED0B0AD4ED7D
:1034C0000F0AF8EE600AB0EE600A04F12C00FFF774
:1034D000A5FC94ED060A84ED050A94ED070A84ED37
:1034E000060A94ED0D0AB5EEC00AF1EE10FA25D0E9
:1034F00094ED0D0A10EE101A084605F098FA41EC0A
:10350000190B94ED0B0A10EE101A084605F08FFA0D
:1035100041EC1B0BB0EE4B0AF0EE6B0A06F000F824
:10352000B0EE40AAF0EE60AA53EC192B51EC1A0B46
:1035300005F090FA02D21FEDB80A46E794ED0B0AA7
:1035400043E72DE9F0412DED048B04460D46164668
:103550001F46B0EE408AF0EE608AB0EE419A2A48EB
:103560006064B0EE491AF0EE680AB0EE480A3B46D5
:10357000324629462046D4F844C0E047BDEC048BCF
:10358000BDE8F0811FEDCC0A80ED080A1FEDCE0AE0
:1035900080ED090A1FEDD00A80ED0A0A1FEDD20A5C
:1035A00080ED0B0A1FEDD40A80ED050A1FEDD60A47
:1035B00080ED060A1FEDD80A80ED070A704770B546
:1035C0002DED048B06460D461446B0EE408AF0EE13
:1035D000608AB0EE419AF0EE619AF0EE480AB0EEE1
:1035E000680A3046FFF7B6FD30EE290A84ED000A7E
:1035F00094ED000AF0EE400AB0EE490A2846FFF7C3
:10360000A9FDBDEC048B70BD4B2E000810B504461F
:103610002146304801F0C0F82068B0F5027F0AD199
:103620002D48C068401C2C49C8604FF46A6221468E
:103630002A4800F03BF910BD10B504462068A0F2FE
:103640000120072842D2DFE800F0040A10151B27EA
:10365000340021462148583000F015F937E0214662
:103660001E48B03000F00FF931E021461C4800F050
:103670000AF92CE021461A48583000F004F926E0F7
:1036800015480068401C144908604FF48C722146AC
:10369000144800F00BF91AE00F484068401C0E492E
:1036A000486040F2DB7221460E48583000F0FEF8C8
:1036B0000DE009488068401C0749886040F62652A2
:1036C00021460648583800F0F1F800E000BF00BF7E
:1036D00010BD0000FC230020D0210020E8190020AC
:1036E000F01A0020E01800200A7BCB7A42EA03227D
:1036F000826182698260826942600269521C026151
:1037000070472DE9F04104460D4600260027206849
:103710006060287BE97A40EA0120206020686168C7
:10372000401AE060E06810F5805F07DAA06B401C8B
:10373000A063E06800F50050E0610DE0E068B0F5DE
:10374000805F07DDA06B401EA063E068A0F500501D
:10375000E06101E0E068E0612168A06B01EB4030CE
:10376000A0602068A269801A00EE100AF8EEC00A74
:10377000A06B4FF4B472504300EE100AB8EEC00ACA
:103780009FEDD11A00EE810A10EE101A084605F0DE
:103790004EF941EC100B84ED120BE269207D411CC7
:1037A000217504F1200141F82020207D062801D157
:1037B00000202075002605E004F1200050F82600C6
:1037C0000744761C062EF7DB062097FBF0F02064FA
:1037D000A97B687B41EA002000B2A4F85400BDE850
:1037E000F08170B504460D4620686060287BE97A58
:1037F00040EA0120206020686168401AE060E068CB
:1038000010F5805F07DAA06B401CA063E06800F54C
:103810000050E0610DE0E068B0F5805F07DDA06B6F
:10382000401EA063E068A0F50050E06101E0E068A0
:10383000E0612168A06B01EB4030A0602068A269C4
:10384000801A00EE100AF8EEC00AA06B4FF4B472B2
:10385000504300EE100AB8EEC00A9FED9C1A00EE2D
:10386000810A10EE101A084605F0E1F841EC100B41
:1038700084ED120B687B000200B2A97B0843206430
:10388000687C206570BD70B504460D46E06B401C39
:10389000E063E06B052804DC29462046FFF724FF9F
:1038A00003E029462046FFF72CFF70BD70B50446A3
:1038B0000E461546E06B401CE063E06B022800DC1E
:1038C000A56131462046FFF78CFFE06B0A2812DC29
:1038D000A069A168401A10F57A6F03DA05F5005067
:1038E000A06108E0A069A168401AB0F57A6F02DD16
:1038F000A5F50050A06170BD2DE9F04186B00746E6
:103900000C4615461E46DDF8308040F2FF1001904F
:1039100000208DF80C008DF80D0008208DF80E00A9
:10392000200A8DF80F008DF81040290A8DF811102B
:103930008DF81250310A8DF813108DF814604FEA8B
:1039400018218DF815108DF816800EE0604800687B
:10395000401C5F4908600846006840F6B83188425C
:1039600003D100205A49086004E0B86800F0E05034
:103970000028EBD000BF01A9384602F0D5FB06B005
:10398000BDE8F0812DE9F04186B080460C46154631
:103990001E460C9F40F2FF20019000208DF80C0085
:1039A0008DF80D0008208DF80E00200A8DF80F000C
:1039B0008DF81040290A8DF811108DF81250310A37
:1039C0008DF813108DF81460390A8DF815108DF8E4
:1039D000167001A9404602F0A7FB06B0BDE8F081D1
:1039E0002DE9F04186B007460C4615461E46DDF827
:1039F00030804FF40070019000208DF80C008DF89D
:103A00000D0008208DF80E00200A8DF80F008DF8AB
:103A10001040290A8DF811108DF81250310A8DF8D6
:103A200013108DF814604FEA18218DF815108DF8D9
:103A300016800EE027480068401C264908600846AA
:103A4000006840F6B831884203D10020214908605F
:103A500004E0B86800F0E0500028EBD000BF01A9F6
:103A6000384602F061FB06B0BDE8F0812DE9F04177
:103A700086B080460C4615461E460C9F40F2FF104D
:103A8000019000208DF80C008DF80D0008208DF8B5
:103A90000E00200A8DF80F008DF81040290A8DF8CD
:103AA00011108DF81250310A8DF813108DF8146032
:103AB000390A8DF815108DF8167001A9404602F0EC
:103AC00033FB06B0BDE8F081FFFF333D0000343D1D
:103AD0000001002004010020F0B503460C461888C0
:103AE000002113E0675C80EA072000250BE0460018
:103AF00000F4004CBCF1000F03D041F2210C86EA27
:103B00000C0630466D1C082DF1D3491C9142E9D3B7
:103B10001880F0BD2DE9F84305460F4690464FF05A
:103B20000009002000900626FE484078002859D061
:103B3000002085F86300FB484078C0F3800078B12E
:103B4000F9A1284604F083FDF8490860084600689A
:103B500030B1F448007820F00400001DF1490870ED
:103B6000F048407800F0010078B1EFA1284604F059
:103B70006EFDEE4908600846006830B1E9480078FB
:103B800020F00100401CE7490870E6484078C0F387
:103B9000400078B1E4A1284604F059FDE3490860EB
:103BA0000846006830B1DF48007820F00200801C31
:103BB000DC490870DB484078C0F3C00078B1DCA174
:103BC000284604F044FDD94908600846006830B131
:103BD000D448007820F008000830D249087000204E
:103BE00028600AE128785A28FBD16878A528F8D1FE
:103BF000A878E97800EB0120801D4045F1D1B8F1AB
:103C0000080FEEDB042229466846FFF765FFA8F19E
:103C10000602A91D6846FFF75FFF2879697900EB66
:103C200001201FFA80F9BDF800004845D9D10626C9
:103C3000E0E0AC192078C02860D008DC90280FD0D4
:103C4000A02813D0A52829D0B0286FD13EE0D028D5
:103C500070D0D1286CD0D9286BD0F028F5D1C3E032
:103C60006078B8490870B01CC6B2C2E06078A1782C
:103C700000EB012000B2B3494880E078217900EBE5
:103C8000012000B2AF4988806079A17900EB012062
:103C900000B2AC49C880F01DC6B2AAE06078A17835
:103CA00000EB012000B2A7490881E078217900EB00
:103CB000012000B2A34948816079A17900EB01207D
:103CC00000B2A0498881F01DC6B292E06078A17868
:103CD00000EB012000B29B49C881E078217900EB1C
:103CE000012000B2974908826079A17900EB012098
:103CF00000B294494882F01DC6B27AE06078A1789B
:103D000000EB012000B28F498882E078217900EB36
:103D1000012000B28B49C8826079A17900EB0120B3
:103D200000B288490883F01DC6B262E05FE001E09E
:103D30004CE03FE06078A17800EB012000B28149BF
:103D40004883E078217900EB012000B27D49888327
:103D50006079A17900EB012000B27A49C883084656
:103D6000B0F91A0000EE100AB8EEC00ADFED760ACC
:103D700020EE200A084680ED0F0AB0F91C0000EE84
:103D8000100AB8EEC00ADFED700A20EE200A0846DD
:103D900080ED100AB0F91E0000EE100AB8EEC00A5D
:103DA000DFED6A0A20EE200A084680ED110AF01DB8
:103DB000C6B21EE0634854F8011F016261684162A7
:103DC000A168816206F10D00C6B212E05D4854F8A8
:103DD000011FC16261680163A1684163E168816399
:103DE00006F11100C6B204E0701DC6B201E04646FD
:103DF00000BF00BF4645FFF61CAF5248B0F91200A5
:103E0000404200EE100AB8EEC00ADFED500A20EE84
:103E1000200A87ED040A4B48B0F91000404200EE3A
:103E2000100AB8EEC00ADFED490A20EE200A87ED3D
:103E3000030A4448B0F90E00404200EE100AB8EE02
:103E4000C00ADFED420A20EE200A87ED050A40484D
:103E500090ED000A3F4880ED000A3A4890ED110AC3
:103E6000B1EE400A3A4880ED000A90ED000A394868
:103E7000D0ED000A30EE600ADFED370AB4EEE00A5A
:103E8000F1EE10FA05DB35480068401E3349086042
:103E900013E02F4890ED000A2E48D0ED000A30EED6
:103EA000600ADFED2F0AB4EEE00AF1EE10FA04D852
:103EB0002A480068401C294908602A4890ED000AF9
:103EC000294880ED000A1F4890ED080A254880ED3A
:103ED000000A90ED000A2448D0ED000A30EE600A96
:103EE000DFED1D0AB4EEE00AF1EE10FA05DB1F4823
:103EF0000068401E1D49086013E01A4890ED000A52
:103F00001948D0ED000A30EE600ADFED150AB4EE74
:103F1000E00AF1EE10FA04D814480068401C134976
:103F2000086025E0080100204F4B00000C01002034
:103F30006E6577207061636B6574206974656D735D
:103F400000000000E02100200AD7233CCDCCCC3D6E
:103F500014010020100100200000A54328010020CA
:103F60000000A5C31C010020180100202C01002026
:103F7000314800684FF4B471484300EE100AB8EEBF
:103F8000C00A2E48D0ED000A30EE200A87ED000A64
:103F90002B4890ED000A2B4880ED000A2A4890ED4E
:103FA000090A274880ED000A90ED000A2548D0ED67
:103FB000000A30EE600A5FED180AB4EEE00AF1EE96
:103FC00010FA05DB21480068401E2049086013E014
:103FD0001B4890ED000A1B48D0ED000A30EE600A45
:103FE0005FED210AB4EEE00AF1EE10FA04D81748AA
:103FF0000068401C15490860154800684FF4B4710A
:10400000484300EE100AB8EEC00A1248D0ED000A8C
:1040100030EE200A87ED010A0B4890ED100ADFED23
:104020000E0A30EE200A87ED020A90ED0F0A87EDA6
:10403000000ABDE8F88300002C0100201C010020CC
:104040002401002020010020E02100203001002078
:104050002801002014010020A470954030B50346CB
:1040600005E013F8010B80EA0204B348025D081E64
:10407000A1F10101F5D1104630BD70B505460C46E1
:1040800000260DB1022C01D8002070BD611EFF2258
:104090002846FFF7E3FF0646601E285CB04201D1C8
:1040A0000120F2E70020F0E770B505460C46002637
:1040B0000DB1022C00D870BD611EFF222846FFF70B
:1040C000CDFF0646601E2E5400BFF4E730B5034610
:1040D00013B94FF6FF7030BD09E013F8014B82EAC7
:1040E0000400C0B2954D35F8100080EA2222081E67
:1040F000A1F10101F1D11046EDE770B505460C467E
:1041000000260DB1022C01D8002070BDA11E8C48E4
:1041100002882846FFF7DAFF0646F1B2A01E285CA7
:10412000814206D1601E285CB0EB162F01D1012020
:10413000EBE70020E9E770B505460C4600260DB117
:10414000022C00D870BDA11E7D4802882846FFF7CA
:10415000BDFF0646A01E2E54310A601E295400BF22
:10416000F0E770B504460D4600260CB1022D01D8CB
:10417000FF2070BDFF2229462046FFF76FFFF8E7BA
:104180002DE9FC5F05460F46092F01D8BDE8FC9FCD
:104190000024A146CBE015F804A0601C295CA01CFB
:1041A000285C41EA0026601D295CA01D285C41EACC
:1041B000002B281900F107082819016800910079DF
:1041C0008DF8040006F109001FFA80F9BAF1A50F75
:1041D00077D105216846FFF750FF002871D02819D4
:1041E0004946FFF78AFF0028F8D0BBF5017F6AD067
:1041F00012DC40F20311ABEB01008B452BD006DC47
:10420000BBF1010F1AD0BBF1030F74D11CE0FE28E3
:1042100028D0FF286FD14BE0BBF5027F6DD006DCC4
:10422000ABF20620002856D001287BD15AE0ABF231
:104230000130002868D0022874D16CE03246414633
:10424000404804F0D2F96EE0324641463D480C3019
:1042500004F0CBF967E0324641463A48363004F084
:10426000C4F960E01B2E22D1324641463548393030
:1042700004F0BBF9334890F83900012809DB3148D4
:1042800090F83900072804DC02202E4981F8C50087
:104290000DE02C4890F839000B2808DB294890F8ED
:1042A0003900112803DC0120264981F8C5003AE0D5
:1042B000102E05D1324641462248543004F095F97B
:1042C00031E031E0FFE7012E04D198F800001D49EC
:1042D00081F8740027E0324641461A48763004F0EF
:1042E00084F920E0072E05D1324641461548773043
:1042F00004F07BF917E015E0FFE73246414611482C
:104300007E3004F072F90EE0324641460D488430AA
:1043100004F06BF907E0324641460A48AC3004F03D
:1043200064F900E000BF00BF04EB090084B2A742BB
:104330003FF731AF00BF29E719A300081AA400080E
:10434000340100202822002010B503463BB1087834
:1043500038B9012008701078401C107001E000206E
:104360000870107800EBD0746410A0EB44040CB912
:10437000002010BD0120FCE7CB8A03400BB10123D4
:1043800000E000231370704710B5044604F12802C2
:1043900021460120FFF7F0FF04F129022146042005
:1043A000FFF7EAFF04F12A0221460220FFF7E4FFAB
:1043B00004F12B0221460820FFF7DEFF04F12C0256
:1043C00021461020FFF7D8FF04F12E0221462020BD
:1043D000FFF7D2FF04F12F0221464020FFF7CCFF68
:1043E00004F1300221468020FFF7C6FF04F13102BC
:1043F00021464FF48070FFF7BFFF04F132022146DF
:104400004FF40070FFF7B8FF04F1330221464FF478
:104410008060FFF7B1FF04F1340221464FF40060E1
:10442000FFF7AAFF04F12D0221464FF48050FFF759
:10443000A3FF04F1350221464FF40050FFF79CFF23
:1044400004F1360221464FF48040FFF795FF04F156
:10445000370221464FF40040FFF78EFF94F8280002
:10446000914A9249FFF770FF382108552921085DCC
:104470008F4A9049FFF768FF392108552A21085DC6
:104480008D4A8E49FFF760FF3A2108552B21085DC0
:104490008B4A8C49FFF758FF3B2108552C21085DBA
:1044A000894A8A49FFF750FF3C2108552E21085DB3
:1044B000874A8849FFF748FF3E2108552F21085DAC
:1044C000854A8649FFF740FF3F2108553021085DA6
:1044D000834A8449FFF738FF402108553121085DA0
:1044E000814A8249FFF730FF412108553221085D9A
:1044F0007F4A8049FFF728FF422108553321085D94
:104500007D4A7E49FFF720FF432108553421085D8D
:104510007B4A7C49FFF718FF442108552D21085D8F
:10452000794A7A49FFF710FF3D2108553521085D8A
:10453000774A7849FFF708FF452108553621085D7D
:10454000754A7649FFF700FF462108553721085D77
:10455000734A7449FFF7F8FE4721085510BD817A68
:10456000C176017FC27E891A4177C27E0277417F80
:1045700001290ED1016A491C0162016A01EBD17265
:104580005210A1EB420212B90022827701E001220F
:104590008277417F02290ED1416A491C4162416AFA
:1045A00001EBD1725210A1EB420212B90022C27784
:1045B00001E00122C2777047C17A012901D18176D9
:1045C00008E0C17A032901D1817603E0C17A02298A
:1045D00000D18176704730B504460D46122D00D0CB
:1045E00030BD04B9FCE72078617840EA0120C0F3CF
:1045F0000A004D4908806078C010A17840EA411057
:10460000C0F30A0048494880A0788011E17840EA68
:104610008100217940EA8120C0F30A004249888064
:1046200020794010617940EAC110C0F30A003E4988
:10463000C880207C617C40EA0120C0F30A003A492E
:10464000088160790011800888726079C0F30110D8
:10465000C872A079E17940EA012000B2324988812C
:10466000207A617A40EA012001B22F48C181A07A04
:10467000E17A40EA012001B22B480182217B0175D9
:10468000617B4175A07BE17B40EA01202649C8821D
:104690000846FFF791FF2448FFF761FF2248FFF724
:1046A00073FE00BF9CE700003701002036010020A8
:1046B00039010020380100203B0100203A01002090
:1046C0003D0100203C0100203F0100203E01002070
:1046D0004101002040010020430100204201002050
:1046E0004501002044010020470100204601002030
:1046F00049010020480100204B0100204A01002010
:104700004D0100204C0100204F0100204E010020EF
:1047100051010020500100205301002052010020CF
:104720005501002054010020EE22002010B504465F
:104730000448D0F8260020601C220349034800F0FA
:1047400027FC10BDD2230020522300205601002058
:1047500010B504464648407910B90020207001E0A9
:10476000012020704248408AA4F8010040480079A6
:10477000A4F803003F482168016021790171642198
:1047800000F064FD10BD70B504460D462A2229468E
:10479000204603F02AFF70BD0A68A2F22312062AFF
:1047A0002ED2DFE802F0030A11181F26D1F80B20E1
:1047B0000260D1F80F20426023E0D1F80B20826024
:1047C000D1F80F20C2601CE0D1F80B200261D1F8B3
:1047D0000F20426115E0D1F80B208261D1F80F2043
:1047E000C2610EE0D1F80B200262D1F80F204262C4
:1047F00007E0D1F80B208262D1F80F20C26200E0FE
:1048000000BF00BF704730B585B005460C4618485C
:104810000078022802D01648007810B900202070D5
:1048200001E0012020701248408AA4F801001048DD
:104830000079A4F803000F48216801602179017113
:104840004FF44070009000208DF808008DF80900AA
:1048500008208DF80A002068CDF80B0020798DF82B
:104860000F006946284601F05FFC05B030BD00002E
:10487000362300206E230020F0B58BB004460D4691
:1048800016461F460121084602F0ACFC01214806ED
:1048900002F0F1FC09220B21964802F090FA09225D
:1048A0000C21944802F08BFA4FF4C050099002207A
:1048B0008DF8280009A98F4802F0F6F914208DF828
:1048C000040003208DF8050001208DF806008DF806
:1048D000070001A801F02BFA874801F093FA06A817
:1048E00001F0B4FB00208DF81E0001208DF81F00A0
:1048F00000208DF820008DF821008DF822008DF821
:1049000023008DF81A708DF81B008DF81C508DF85F
:104910001D40ADF8186006A9774801F08CFA002018
:104920008DF812008DF8130001208DF8140000207E
:10493000ADF80800ADF80A00ADF80C00ADF80E00B7
:10494000ADF8100001208DF8150002A801F0FDFA65
:1049500001220221684801F0F7FD0BB0F0BD10B54F
:104960000121654801F058FE18B10121624801F0AB
:10497000EEFE10BD00B585B002215F4801F04CFE8F
:1049800088B104215C4801F0E2FE5C495A4801F01C
:1049900020FE6A460021584801F0BBFC00BF684673
:1049A000FEF734FE00BF05B000BDF0B58BB0044685
:1049B0000D4616461F460121022002F013FC01217C
:1049C000880602F058FC09220C214D4802F0F7F944
:1049D00009220D214A4802F0F2F94FF440500290AA
:1049E00002208DF80C0002A9454802F05DF9402034
:1049F0008DF8040003208DF805008DF806000120D5
:104A00008DF8070001A801F092F93F208DF804000D
:104A100003208DF805008DF8060001208DF80700B1
:104A200001A801F084F9374801F0ECF908A801F079
:104A30000DFB00208DF8260001208DF827000020B6
:104A40008DF828008DF829008DF82A008DF82B00AC
:104A50008DF822008DF823008DF824508DF8254024
:104A6000ADF8206008A9274801F0E5F90E208DF87F
:104A70001A0000208DF81B0001208DF81C0000207A
:104A8000ADF81000ADF81200ADF81400ADF8160046
:104A9000ADF8180001208DF81D0004A801F055FAAA
:104AA00001220221174801F04FFD0BB0F0BD10B5F7
:104AB0000121144801F0B0FD18B10121114801F0A5
:104AC00046FE10BD00B585B002210E4801F0A4FDE0
:104AD00068B102210B4801F03AFE6A4600210948FC
:104AE00001F017FC00BF6846FEF7A6FD00BF05B049
:104AF00000BD0000000002400064004008000032D9
:104B000000040240006800401CB50121042002F0AE
:104B100069FB0620009001208DF8040000208DF82C
:104B2000060003208DF8050001208DF80700694676
:104B3000074802F0B9F80621054802F031F90421CE
:104B4000034802F02FF90221014802F02BF91CBDA5
:104B50000008024010B596B004460121022002F080
:104B600041FB0121880502F03DFB0121102002F0EC
:104B700093FB07221146F84802F021F914A802F02D
:104B8000DBF88020149002208DF8540000208DF86E
:104B9000550001208DF8570014A9EF4802F084F861
:104BA000EE4803F0C5FA10A803F08FFB1094002024
:104BB000ADF84400ADF846004FF48060ADF8480011
:104BC0000420ADF84A000020ADF84C0010A9E348DD
:104BD00003F015FB01224021E04803F045FCE048CA
:104BE00001F008FE684601F0D0FE4FF00060009032
:104BF000DA48001D0190DB4802900020039040201D
:104C00000490002005904FF48060069000200790EB
:104C100008904FF48070099000020A9000200B90D9
:104C20000C900D900E906946CD4801F085FE002253
:104C3000CC494031CA4801F0E0FE0121C84801F0EA
:104C4000E8FE0121C64801F0B1FE25208DF83C00A8
:104C500000208DF83D008DF83E0001208DF83F00CA
:104C60000FA801F064F8012240F22441BB4803F090
:104C700004FC0121B94803F04AFB16B010BD10B581
:104C800040F22441B54803F033FC002852D0B34829
:104C90000088B2488088B24801F0CBFE20BB0021DA
:104CA000AF4801F083FEB049AD4801F0F8FEAC48D2
:104CB00001F09FFEC0F14000AC4908604020A849C7
:104CC000091D0860081F006840F40020091F0860E3
:104CD0000121A34801F06AFE00BFA448008881B208
:104CE000A048FFF778FC25E000219D4801F05EFE1A
:104CF0009D499B4801F0D3FE994801F07AFEC0F12E
:104D000040009A49086040209549091D0860081F25
:104D1000006820F40020091F08600121904801F07C
:104D200045FE00BF9148008881B28E484030FFF7B1
:104D300052FC00BF10BD10B596B0044601214804D6
:104D400002F099FA0121084602F04CFA01214805C7
:104D500002F048FA07220221854802F030F80722C3
:104D60000321834802F02BF80C20149002208DF8C8
:104D7000540003208DF8550001208DF8570014A928
:104D80007B4801F091FF7B4803F0D2F910A803F0B3
:104D90009CFA10940020ADF84C000C20ADF84A00AD
:104DA0000020ADF84800ADF84600ADF8440010A969
:104DB000704803F024FA012280216E4803F054FB6E
:104DC0006D4801F017FD1C2005904FF00060019028
:104DD0004020049000200C900D9068480390002023
:104DE0000E9009904FF48060079000200A9061486F
:104DF000001D029000200F90089006904FF4803024
:104E00000B9001A95C4801F097FD01215A4801F07F
:104E1000CDFD01224021574803F026FB01A801F0F7
:104E2000B4FD2020059080050190002004900C9096
:104E30000D905348039000200E9009904FF480602D
:104E4000079000200A904B48001D029000200F9010
:104E5000089006904FF480300B9001A9464818380E
:104E600001F06AFD01214448183801F09FFD4FF41C
:104E7000A06000F057FF26208DF8000001208DF87B
:104E8000030000208DF801008DF80200684600F054
:104E90004EFF012240F22441364803F0EEFA012190
:104EA000344803F034FA16B010BD10B540F2244176
:104EB000304803F01DFB30B32E4800882D48001DFC
:104EC000008800BF1C222E492E4803F08EFB00BF35
:104ED00000212948183801F069FD00BF264818381C
:104EE00001F0B1FD0028F9D127492348183801F015
:104EF000D6FD20212048603801F079FD01211E48AF
:104F0000183801F053FD10BD70B504460D46164625
:104F10001C222146194803F068FB00BF1B491648B4
:104F200001F0A1FD0028F9D01849134801F0B7FDA0
:104F30000021114801F03AFD00BF0F4801F083FD48
:104F40000028FAD11C210C4801F051FD01210A482A
:104F500001F02CFD70BD0000000402400010014073
:104F6000406402402628002000003010600100202C
:104F70000000024000440040A06002405223002094
:104F8000A628002036230020000C0020000020204E
:104F900070B504460D461646FE482168016000BF04
:104FA000FD49FE4801F05FFD0028F9D0FA49FB48B1
:104FB00001F075FD0021F94801F0F8FC00BFF74849
:104FC00001F041FD0028FAD11C21F44801F00FFD49
:104FD0000121F24801F0EAFC70BD10B596B004461C
:104FE0000121022002F0FEF80121880402F043F9B9
:104FF0000121480502F0F6F807220A21E84801F0ED
:10500000DEFE07220B21E64801F0D9FE02208DF8D2
:10501000440003208DF8450000208DF84600012053
:105020008DF847008002109010A9DD4801F03CFE89
:105030004FF40060109010A9D94801F035FE2720E8
:105040008DF8000002208DF8010001208DF802008B
:105050008DF80300684600F06AFE12940020ADF857
:105060004C00ADF84E00ADF85000ADF854000C20E7
:10507000ADF8520012A9CB4803F0C1F8012240F26A
:105080002441C84803F0F9F95021C64803F027FA33
:10509000C54803906420059000200C900D900E9060
:1050A00009904FF48060079080100A90BD48001D61
:1050B000029000200F90089006904FF400300B9063
:1050C000800201900020049001A9B448783801F0D2
:1050D00033FC0121B148783801F068FC01224021FD
:1050E000B04803F0C1F901228021AE4803F0BCF9B9
:1050F0000021AA48483801F059FCA848483801F076
:1051000079FB00BFA548483801F09DFC0028F9D183
:105110004FF000600190A348001D0290A348039047
:10512000402004900020059006904FF48060079086
:105130000020089009900A904FF480300B900020D6
:105140000C9003200D9000200E900F9001A9934821
:10515000483801F0F1FB0E208DF8000002208DF898
:10516000010001208DF802008DF80300684600F070
:10517000DEFD012210218948483801F0A4FC0121FC
:10518000884803F0C4F816B010BD10B5002440F2F2
:105190002441844803F0ACF908B3824803F0E6F8F0
:1051A00040F224417F4803F0DEF900217B48783843
:1051B00001F0FCFB002240217A4803F055F900BFC2
:1051C00079497B48FFF7DFFA00BF0122402175488B
:1051D00003F04AF901217148783801F0E7FB10BD6E
:1051E00010B54FF0C0516D48483801F03CFC50B14B
:1051F00000216A48483801F0D9FB4FF0C051674898
:10520000483801F04CFC10BD70B504460D46002135
:10521000204601F0CBFB00BF204601F014FC002823
:10522000FAD12946204601F0E2FB0121204601F097
:10523000BDFB70BD70B5044600255C4D05F8014B03
:10524000012156484838FFF7DFFF70BD2DE9F041D6
:1052500005460E4600240027544F00BF03E0285D9A
:105260003855601C84B2B442F9DB31464B484838AB
:10527000FFF7CAFFBDE8F08110B596B004460121E2
:10528000042001F0AFFF0121C80401F0F4FF08225F
:105290000A21484801F093FD08220B21454801F0FE
:1052A0008EFD0121480501F09DFF4FF440601090F4
:1052B00002208DF8440000208DF8460003208DF870
:1052C000450001208DF8470010A93A4801F0ECFC98
:1052D00012940020ADF84C00ADF84E00ADF850002F
:1052E0000C20ADF852000020ADF8540012A932484D
:1052F00002F085FF012240212F4803F0B5F827482E
:10530000603801F077FA684601F03FFB4FF000602B
:1053100000902948001D0190284802900020039029
:1053200064200490002005904FF4806006900020D7
:105330000790089009904FF480300A9000200B905D
:105340000C900D900E9069461448603801F0F4FA04
:1053500001211248603801F029FB34208DF83C000F
:1053600003208DF83D008DF83E0001208DF83F00B0
:105370000FA800F0DCFC012280210F4803F074F834
:1053800000210648303801F011FB0448303801F0A4
:1053900031FA15E05223002000002020A0600240D6
:1053A0000004024000480040C6280020F2290020E6
:1053B000D223002000080240004C00402A2900208F
:1053C00000BFFB4801F03FFB0028FAD14FF000601E
:1053D0000090F8480190F848029040200390002087
:1053E000049005904FF4806006900020079008908C
:1053F00009904FF480300A9000200B9003200C900D
:1054000000200D900E906946E94801F095FA0F20B2
:105410008DF83C0003208DF83D008DF83E00012002
:105420008DF83F000FA800F082FC01221021E04817
:1054300001F049FB012240F22441DE48001F03F045
:105440001CF80121DB48001F02F061FF16B010BDFF
:1054500010B5002440F22441D648001F03F048F85C
:1054600008B3D448001F0088D24800880021D048E3
:10547000303801F09BFAD149CD48303801F00FFBAC
:10548000CB48303801F0B5FAC0F16400C4B200BFB7
:1054900000BF6421C648303801F0A9FA0121C44890
:1054A000303801F083FA10BD70B504460D46294628
:1054B000204601F09CFA0121204601F077FA70BDE8
:1054C00010B5BF49BA4801F0CEFA38B10021B8484A
:1054D00001F06CFABA49B64801F0E1FA10BD70B5B6
:1054E00004460025B44D05F8014B0121B048FFF7F3
:1054F000DBFF70BD2DE9F04105460E460024002774
:10550000AD4F00BF03E0285D3855601C84B2B44243
:10551000F9DB3146A648FFF7C7FFBDE8F08110B5BB
:1055200096B004460121042001F05CFE0121082010
:1055300001F058FE0121080501F09DFE01214805FA
:1055400001F050FE02208DF8540000208DF8560026
:105550004FF48050149001208DF8570003208DF8EF
:10556000550014A9974801F09FFB02208DF85400C4
:1055700000208DF856000420149001208DF857006B
:1055800003208DF8550014A98F4801F08DFB0822E7
:105590000C218C4801F013FC082202218A4801F0FA
:1055A0000EFC10940020ADF84C000C20ADF84A0021
:1055B0000020ADF84800ADF84600ADF8440010A951
:1055C000824802F01CFE0121804802F0A0FE012268
:1055D00040217E4802F048FF684601F0D6F97C4839
:1055E00002904FF400700490800400907748001DF2
:1055F00001900020039005904FF4806006900020F9
:105600000890079009904FF480300A9000200B908A
:105610000C900D900E9069466548603801F08CF949
:1056200001216348603801F0C1F9002269496048EE
:10563000603801F0E2F901215D48603801F0E9F9D4
:1056400035208DF83C0001208DF83F008DF83D009D
:1056500002208DF83E000FA800F069FB012240F205
:1056600024415A4802F009FF0121584802F04FFE38
:1056700001228021554802F0F7FE00214C484830B5
:1056800001F094F94A48483001F0B4F800BF4848A6
:10569000483001F0D8F90028F9D14FF000600090AF
:1056A0004A48001D01904C480290402003909620EB
:1056B0000490002005904FF4806006900020079031
:1056C000089009900A900B9003200C9000200D90F8
:1056D0000E9069463648483001F02EF901213448D1
:1056E000483001F063F92F208DF83C0002208DF83E
:1056F0003D0001208DF83E008DF83F000FA800F01E
:1057000016FB16B010BD70B504460D4600212046AC
:1057100001F04CF900BF204601F095F90028FAD1BC
:105720002946204601F063F90121204601F03EF9A7
:1057300070BD10B540F22441244802F0D9FE002883
:1057400075D022480088214880881948603801F0C7
:1057500070F958BB00211648603801F027F91F493D
:105760001348603801F09BF91148603801F041F9A5
:10577000C0F500701A4908604FF400710C48603899
:1057800001F035F94FF4002212490948603801F060
:105790004BF901210648603801F008F900BF1048B4
:1057A000008881B20A48FEF7EBFC40E01AE00000F6
:1057B00070600240044C0040562A00200000301067
:1057C0002000002000080240000C02400050004071
:1057D0002624002026260020BA2A002030000010AF
:1057E0006401002000216C4801F0E0F86B496A4830
:1057F00001F055F9684801F0FCF8C0F500706849FF
:1058000008604FF40071644801F0F1F80022654926
:10581000614801F009F901215F4801F0C7F800BFB4
:105820005F48008881B26048FEF7AAFC00BF10BD47
:1058300000B597B00121042001F0D4FC01218805B6
:1058400001F0D0FC0121202001F026FD08220621D4
:10585000564801F0B4FA08220721544801F0AFFA83
:10586000C020119002208DF8480000208DF84A00D9
:1058700002208DF8490000208DF84B0011A94B48FB
:1058800001F012FA4A4802F053FC4FF4E130139051
:105890000020ADF85000ADF85200ADF854000C20D7
:1058A000ADF856000020ADF8580013A9404802F0AA
:1058B000A6FC012240213E4802F0D6FD3D4800F002
:1058C00099FF4FF0206001903948001D02903A483E
:1058D00003900020049064200590002006904FF46F
:1058E000806007900020089009900A904FF4803063
:1058F0000B9000200C900D900E900F9001A92D4858
:1059000001F01AF801212B4801F050F847208DF8DA
:10591000400003208DF841008DF8420001208DF8F1
:10592000430010A800F003FA012240F2244120486D
:1059300002F0A3FD01211E4802F0E9FC17B000BDF2
:1059400010B540F224411A4802F0D2FD18B31848AD
:1059500000881748001D00880021164801F026F82D
:105960001649144801F09BF8124801F042F8C0F1C2
:1059700064001349086000BF0846027811490E48C8
:10598000FEF7C8F800BF64210A4801F030F8012191
:10599000084801F00BF810BD106002403000001004
:1059A0006401002026240020262600200008024052
:1059B00000140140286402408E290020000C0010D1
:1059C00068010020981800200EB50121022001F086
:1059D00063FC4FF0FF300190A720ADF800000020DD
:1059E000ADF80800ADF802000121C84801F066FEDC
:1059F0006946C64801F0F7FD0121C44801F05EFE8A
:105A000000221146C14801F02BFE0121BF4801F0E0
:105A10003DFE0121BD4801F06FFE0EBD1FB5012105
:105A2000042001F028FC1C208DF8000000208DF8D7
:105A3000010002208DF8020001208DF80300684665
:105A400000F075F94FF0FF3002905320ADF80400DC
:105A50000020ADF80C00ADF806000121880701F028
:105A60002DFE01A94FF0804001F0BDFD0121880706
:105A700001F042FE1FBD1FB50121022001F0FBFB1A
:105A80001D208DF8000000208DF8010002208DF807
:105A9000020001208DF80300684600F048F94FF03D
:105AA000FF300290A720ADF804000020ADF80C00F4
:105AB000ADF806000121964801F000FE01A99548C5
:105AC00001F091FD0121924801F016FE01221146DC
:105AD0008F4802F029FA01218D4802F039FA1FBDE2
