:020000040800F2
:10000000282F0020D1810008BD010008BF01000891
:10001000C3010008C7010008CB0100080000000070
:10002000000000000000000000000000CF010008F8
:10003000D101000800000000D3010008D50100082C
:10004000EB810008EB810008EB810008EB810008E0
:10005000EB810008EB810008EB810008EB810008D0
:10006000EB810008EB810008EB810008EB810008C0
:10007000EB810008EB8100083B4E00081751000897
:10008000EB810008EB810008EB8100080F460008B7
:1000900025460008EB810008EB810008EB81000891
:1000A000EB810008EB810008EB810008EB81000880
:1000B000C9570008EB57000809580008EB810008F1
:1000C000EB810008EB810008EB810008EB81000860
:1000D000EB8100082F4900085B4B0008E94D000840
:1000E000EB810008EB810008EB810008EB81000840
:1000F000EB810008EB810008EB810008EB81000830
:10010000EB810008EB8100082B580008EB81000808
:10011000A9500008895300081159000837590008F0
:10012000EB810008EB810008EB810008EB810008FF
:10013000EB810008EB810008EB8100085F470008B5
:1001400075470008EB810008EB810008EB8100088F
:10015000EB810008EB810008EB810008A155000845
:10016000EB810008EB810008EB810008EB810008BF
:10017000EB810008EB810008EB810008EB810008AF
:10018000EB810008EB810008DFF810D008F0F4FBE9
:1001900000480047A1010008AFF30080282F00208D
:1001A00000F022F900F0CBF904E003480068401C9D
:1001B00001490860F9E7000000000020704700BF17
:1001C000FEE700BFFEE700BFFEE700BFFEE77047A7
:1001D00070477047704700000CB5002001900090F8
:1001E0007648006840F480307449086000BF734866
:1001F000006800F4003000900198401C01900098C5
:1002000018B90198B0F5A06FF1D16C48006800F4FE
:10021000003010B10120009001E000200090009813
:10022000012846D165484030006840F0805063495D
:10023000403108606248006840F44040604908600E
:100240005E48083000685D4908310860084600686B
:1002500040F4004008600846006840F4A050086080
:100260005848091F0860081F006840F08070091F87
:10027000086000BF5148006800F000700028F9D005
:1002800040F20570504908604C480830006820F082
:1002900003004A49083108600846006840F002003F
:1002A000086000BF45480830006800F00C000828CE
:1002B000F8D10CBD10B54548006840F470004349C2
:1002C00008603E48006840F001003C49086000209A
:1002D0003A4908310860394800683D4908403749C3
:1002E00008603C48091D0860081F006820F4802051
:1002F000091F0860002031490C310860FFF76CFFCE
:100300004FF0006031498039086010BD70B50020A1
:100310000022022300240221284D08352D6805F013
:100320000C0020B1042806D0082834D107E02A4D5B
:100330002A4E356033E02A4D284E35602FE01F4DA0
:100340002D1D2D68C5F380541C4D2D1D2D6805F005
:100350003F0154B1224DB5FBF1F5184E361D3668FC
:10036000C6F3881605FB06F209E01B4DB5FBF1F557
:10037000124E361D3668C6F3881605FB06F20F4D81
:100380002D1D2D68C5F301456D1C6B00B2FBF3F507
:10039000124E356003E0104D104E356000BF00BFB7
:1003A000064D08352D68C5F303150E4E705D0B4DD7
:1003B0002D68C540094E356070BD00000038024010
:1003C0000070004008544007003C024088ED00E007
:1003D000FFFFF6FE103000240024F400040000208B
:1003E00000127A000800002010B54FF4A06005F05C
:1003F000BFFA04F0E1F9184804F004FA4FF4E130D0
:1004000004F0F1FA4FF4E13004F018FC4FF4E1305D
:1004100004F05FFD4FF4165004F0ACFE05F01DF83B
:10042000002303220821104604F07EF80023032253
:100430000821104604F011F905F016F905F041F90C
:1004400005F074F905F08BF905F000FA05F02FFAC4
:1004500005F0E0F810BD0000A086010008B53B489B
:100460000068401C39490860086800EBD0714910E9
:10047000A0EB410109B902F043FB344800680321B5
:1004800090FBF1F201FB1200B8B93148B0F92E002F
:1004900000902F48B0F92C30B0F92A20B0F928107C
:1004A0002C4803F0B7F82A48B0F92E0000231A466A
:1004B00019460090284803F0ADF82449086800EB7D
:1004C000D0714910A0EB410101290DD12048B0F9AC
:1004D000260000901E48B0F92430B0F92220B0F96F
:1004E00020101C4803F00AF9184800680A2190FB04
:1004F000F1F201FB120010B9184803F0A5FF1348F0
:1005000000684FF47A7190FBF1F201FB120038B9E8
:100510000421134806F06CFA0221114806F068FA2B
:100520000A4800684FF4FA6190FBF1F201FB1200F7
:10053000012803D104210A4806F058FA08BD10B575
:1005400000200249086000F00DF810BD18000020DE
:10055000B801002000680040006400403201002023
:100560000008024010B5A821FE4807F08BFE0120CC
:10057000FC490873002048730864B1EE041ADFEDEB
:10058000FA0AB1EE0C0A0A234FF4FA520321F74893
:1005900002F06BFEB2EE041ADFEDF30A9FEDF40AEF
:1005A0004FF4FA7343F698220321F24802F05DFEFD
:1005B000B1EE041ADFEDEC0AB1EE0C0A0A234FF497
:1005C000FA520321E9484C3002F04FFEB1EE001A16
:1005D000DFEDE50A9FEDE80A4FF4FA7343F698223F
:1005E0000321E4484C3002F040FEB1EE001ADFED8A
:1005F000DE0AB1EE0C0A0A234FF4FA520321DB485B
:10060000983002F032FEB2EE001AF6EE000A9FEDCC
:10061000D80A4FF4FA7343F698220321D54898304C
:1006200002F023FEB1EE001ADFEDD40AB1EE0C0A9F
:100630000A234FF4FA520321CC48E43002F015FEAD
:10064000B3EE041ADFEDC80A9FEDC90A4FF4FA733E
:1006500043F698220321C748E43002F006FE002446
:1006600014E004EB440101EB0411C54A02EB8100E4
:100670009FEDC41ADFEDC30A9FEDC30A4FF47A63FE
:1006800043F69822032102F0F0FD641C042CE8DB01
:100690009FEDBC1ADFEDBB0A9FEDB50A0A234FF4AC
:1006A00016720321B94802F0E0FD10BDF0EE400AD9
:1006B000B3EE001AB3EE0E0A10EE810ABDEEC00AC8
:1006C000B34880ED000A0068002803DC0020B04930
:1006D000086015E0B3EE000A20EE801AAC4890EDF9
:1006E000000AB8EEC00AB4EEC01AF1EE10FA07D84C
:1006F000B3EE000A20EE800ABDEEC00A80ED000ACB
:10070000B7EE000AA34880ED000AA14890ED000A68
:10071000B8EEC00A704700B52DED0A8B89B0B0EE77
:10072000409A002022E000EB400101EB0011944AC6
:1007300002EB810191ED000A00EB400101EB001199
:1007400002EB8101D1ED020A70EE200A8549983151
:1007500031F9101000EE101AB8EEC00A20EE800A2F
:1007600005A901EB800181ED000A401C0428DADBB9
:10077000002046E000EB400101EB0011804A02EB53
:10078000810191ED090A00EB400101EB001102EB40
:100790008101D1ED000AB1EE601A7249A03131F940
:1007A000101000EE901AF8EEE00A01EE200A00EBBD
:1007B000400101EB001102EB810191ED021A694940
:1007C000A03131F9101000EE901AF8EEE00A01EEB7
:1007D000600A00EB400101EB001102EB8101D1ED59
:1007E000020A00EB400101EB001102EB810191EDE7
:1007F000061A00EEC10A01A901EB800181ED000A91
:10080000401C0428B6DB9DED050A20EE000ADDED54
:10081000060A9DED061A00EE810ADDED070A9DED40
:10082000071A00EE810ADDED080A9DED081A00EEB8
:10083000810ADFED590A20EE208A9DED050ADDEDE3
:10084000010A20EE200ADDED060A9DED021A00EEF7
:10085000810ADDED070A9DED031A00EE810ADDED48
:10086000080A9DED041A00EE810ADFED4C0A20EE25
:10087000200ADDED050A9DED061A70EE810A9DED58
:10088000071A70EE810A9DED081A70EE810A9FED3D
:10089000441A01EE200A9DED051A3248B0F9A00075
:1008A00000EE900AF8EEE00A61EE200ADDED061A8D
:1008B0002C48B0F9A20001EE100AB8EEC11A41EEC0
:1008C000810ADDED071A2748B0F9A40001EE100AED
:1008D000B8EEC11A41EE810ADDED081A2148B0F9DF
:1008E000A60001EE100AB8EEC11A41EE810A9FED92
:1008F0002D1AF0EE408A41EE208A9DED010A20EE8D
:10090000000ADDED020A9DED021A00EE810ADDED1E
:10091000030A9DED031A00EE810ADDED040A9DED48
:10092000041A00EE810ADFED1C0A20EE200ADDED3C
:10093000010A9DED021A70EE810A9DED031A70EE18
:10094000810A9DED041A70EE810A9FED151A00EEE2
:10095000810A9DED011A0348B0F9A00000EE900A4B
:1009600022E00000B8010020CDCCCC3DAC1300202B
:10097000000048430C16002000003443CDCCCC3E90
:100980003C170020000000000000B442A00E002030
:10099000A40000207000002058DF2C3458DFAC3455
:1009A0006019C0B762BEBC37F8EEE00A61EE200AFB
:1009B000DDED021AFE48B0F9A20001EE100AB8EE11
:1009C000C11A41EE810ADDED031AF948B0F9A4001D
:1009D00001EE100AB8EEC11A41EE810ADDED041AEB
:1009E000F348B0F9A60001EE100AB8EEC11A41EEC4
:1009F000810A1FED141A01EE200ADFEDEE0A30EE37
:100A0000200A70EE499A28EEA80AF1EE000A68EE74
:100A1000200A00EEE90A10EE101A084607F014FE4C
:100A200041EC1C0B9FEDE40B53EC102B07F047FC43
:100A300041EC1B0BB0EE4B0AF0EE6B0A08F034FDF4
:100A4000B0EE40AAF0EE60AA51EC1A0B07F040FE9F
:100A500000EE100AF1EE680A70EE200AB0EE000A0D
:100A600028EE001A80EE810A09B0BDEC0A8B00BDA9
:100A700010B52DED108B8CB0002499E0CC49683175
:100A800031F9141001EE101AB8EEC11AF0EE410A55
:100A9000C749703131F9141001EE101AB8EEC11ABD
:100AA000B0EE410A04EB440101EB0411C44A02EB2D
:100AB000810002F0E3F9C34800EB840080ED000AF6
:100AC000C04800EB840090ED000ADFEDBF0AB4EEF1
:100AD000E00AF1EE10FA07D89FEDBB0AB94800EB27
:100AE000840080ED000A12E0B64800EB840090ED2F
:100AF000000ADFEDB60AB4EEE00AF1EE10FA06DB0A
:100B00009FEDB20AAF4800EB840080ED000AAD48CB
:100B100000EB840090ED000A04EB440000EB0410AD
:100B2000A74901EB8000D0ED040A20EE200AA84876
:100B3000D0ED000A20EE200AA64800EB840080EDEC
:100B4000000AA04800EB840090ED000AA248D0ED16
:100B5000000A20EE200A9B4800EB8400D0ED000A3A
:100B600020EE200A974800EB8400D0ED000A9B4855
:100B700090ED001A01EE200A9948D0ED000A30EEFF
:100B8000200A984800EB840080ED000A914800EBB1
:100B9000840090ED000A934800EB8400D0ED000A39
:100BA00030EE200A904800EB840080ED000A641CBF
:100BB000042CFFF663AF8C4890ED000AD0ED010ADB
:100BC00030EE200AD0ED020A30EE200AD0ED030A02
:100BD00030EE200A854880ED000A90ED000AB5EE5F
:100BE000C00AF1EE10FA04D81FED9A0A80ED000A4F
:100BF0000DE07E4890ED000ADFED7D0AB4EEE00ADC
:100C0000F1EE10FA03DB9FED7A0A80ED000A7748D7
:100C100090ED000ABCEEC00A10EE100A754908807B
:100C200008460088002802DC0020088015E0714892
:100C3000008800EE100AB8EE400A6F48D0ED000AB6
:100C4000B4EEE00AF1EE10FA07DB90ED000ABCEE1C
:100C5000C00A10EE100A6749088068480088654994
:100C60000988401A66490880604890ED000A624889
:100C7000D0ED000AB4EEE00AF1EE10FA7EDD0024B9
:100C8000F7E0594800EB840090ED000A5A48D0ED97
:100C9000000A20EE200A5548D0ED000A80EE201A06
:100CA000584800EB840080ED001A4F4800EB8400A8
:100CB00090ED000A4A48D0ED000AB4EEE00AF1EEE9
:100CC00010FA73DD484800EB840090ED000A4D48AF
:100CD00000EB8400D0ED000AB4EEE00AF1EE10FA69
:100CE00064DD3D4890ED000A08A800EB840080ED2B
:100CF000000A04EB440000EB0410314901EB8000D2
:100D0000D0ED040A354890ED000A314890ED001A04
:100D100001EE200A04A800EB840080ED000A3948A7
:100D200000EB840090ED000A2D48D0ED000A30EE73
:100D3000C00A684600EB840080ED000A214800EB01
:100D4000840090ED000A10EE101A084607F07CFCB3
:100D500041EC190B08A800EB840090ED000AF0EEBE
:100D6000000A20EE200A10EE101A084607F06CFC6C
:100D700041EC1B0B04A800EB840000E07DE090ED4B
:100D8000000A20EE000A08A800EB8400D0ED000A5B
:100D9000B1EE001A60EE810A684600EB840090ED27
:100DA000001A00EEC10A10EE101A2DE059E0000002
:100DB000B8010020FA7EEA3F000000000000F03F8A
:100DC0000C1600201003002000401CC600401C46EA
:100DD0009400002020030020980000209C000020A8
:100DE000A0000020300300204003002080000020ED
:100DF00000007A4462000020740000205E000020A1
:100E00006000002050030020084607F01DFC41EC64
:100E10001F0BB0EE4F0AF0EE6F0A08F045FBB0EE84
:100E200040DAF0EE60DA04A800EB840090ED000AEE
:100E3000B1EE400A10EE101A084607F005FC53EC1C
:100E40001D2B07F03CFA53EC1B2B07F051FB53EC26
:100E5000192B07F04DFB07F03BFCFE4941F824003D
:100E600006E0B7EE000AFB4800EB840080ED000AC4
:100E7000641C042CFFF605AF0BE0002007E0B7EE82
:100E8000000AF44901EB800181ED000A401C0428AE
:100E9000F5DB002025E0EF4901EB800191ED000A30
:100EA000B5EEC00AF1EE10FA07D89FEDEB0AE9495A
:100EB00001EB800181ED000A12E0E64901EB8001BF
:100EC00091ED000AF7EE000AB4EEE00AF1EE10FA36
:100ED00006DBB7EE000ADF4901EB800181ED000A75
:100EE000401C0428D7DB0CB0BDEC108B10BD10B536
:100EF0002DED028BD948D0F8260000EE100AFFF73E
:100F0000D5FBD74880ED000AFFF7B2FDD348D0F8F3
:100F1000260000EE100AFFF7C9FBD248008800EE59
:100F2000900AF8EE600A30EE600AB0EE408AFFF7F1
:100F3000F2FBCD4880ED000ACC4890ED000AB5EEFA
:100F4000C00AF1EE10FA04D89FEDC30A80ED000A42
:100F50000DE0C64890ED000AF7EE000AB4EEE00A94
:100F6000F1EE10FA03DBB7EE000A80ED000ABE488E
:100F700090ED000AB5EEC00AF1EE10FA04D89FED2C
:100F8000B60A80ED000A0DE0B74890ED000AF7EED2
:100F9000000AB4EEE00AF1EE10FA03DBB7EE000A45
:100FA00080ED000ABDEC028B10BDDFEDB10AB4EE9E
:100FB000E00AF1EE10FA06DBDFEDAD0A70EE600A32
:100FC000B0EE600A0AE0B5EEC00AF1EE10FA05D202
:100FD000DFEDA70A70EE200AB0EE600A704710B588
:100FE0002DED0A8BB0EE409AF0EE609AB0EE418A99
:100FF0009FEDA00B53EC102B51EC190B07F006FAE8
:1010000041EC1C0B9FED9D0B53EC102B07F0FEF9F0
:1010100041EC1B0B9FED9B1BB0EE4B0AF0EE6B0AF5
:1010200008F094F8B0EE40AAF0EE60AA51EC1A0B6A
:1010300007F04EFB08EE100AB5EEC08AF1EE10FA8A
:1010400005D29FED8B0A38EE000AB0EE408A18EE0A
:10105000100A07F0F9FA41EC100BBDEC0A8B10BD39
:101060009FED7D0A894880ED010A9FED7B0A80EDA6
:10107000000A9FED790A80ED020A9FED770A844805
:1010800080ED120A704710B5814890ED130ADFED2C
:10109000810AB4EEE00AF1EE10FA08DB90ED130AD3
:1010A000DFED730A30EE600A80ED140A04E0784840
:1010B00090ED130A80ED140A7748B0F9090000EEAC
:1010C000100AB8EEC00A714880ED010A7248B0F902
:1010D000070000EE100AB8EEC00A6C4880ED000A66
:1010E0006D488078032805D19FED5B0A6B4880ED41
:1010F000000A04E09FED6A0A684880ED000A64482F
:10110000D0ED140AB0EE600A644890ED001ADFEDED
:10111000520A644801F04EFDB1EE400A5C4880ED91
:10112000120A10BD5C48B0F9090000EE100AB8EED2
:10113000C00A564880ED010A5748B0F9070000EE92
:10114000100AB8EEC00A514880ED000A9FED420A2D
:101150004F4880ED120A70474D4890ED130ADFEDBD
:101160004D0AB4EEE00AF1EE10FA08DB90ED130A36
:10117000DFED3F0A30EE600A80ED140A04E04448D7
:1011800090ED130A80ED140A43488078032804D1B7
:1011900040F226204449088003E04FF4E1704249C0
:1011A00008803D48B0F9090000EE100AB8EEC00A08
:1011B000364880ED010A3848B0F9070000EE100A01
:1011C000B8EEC00A314880ED000A407B07280DD0F8
:1011D0003648007818B901203449087006E03348D1
:1011E0000078012802D10020304908702F4800788B
:1011F00050B92D480088404200EE100AB8EEC00AEF
:10120000234880ED120A0CE028480078012808D114
:101210002548008800EE100AB8EE400A1C4880ED10
:10122000120A704710B51C48B0F9090000EE100A08
:10123000B8EEC00A154880ED010A1748B0F907005A
:1012400000EE100AB8EEC00A104880ED000A1048FF
:101250002EE0000080030020000000008B2300200F
:1012600074000020620000206C000020700000204C
:10127000DB0FC940000000000000F0BF000000A02C
:1012800046DF913F00000060FB211940B8010020BB
:1012900058010020DB0F49400E23002030000020C1
:1012A0002DF9853EA00E0020580000205A00002095
:1012B00090ED130A5FED120AB4EEE00AF1EE10FAB7
:1012C00008DB90ED130A5FED160A30EE600A80ED40
:1012D000140A04E0FE4890ED130A80ED140AFC485D
:1012E000D0ED140AB0EE600AFA4890ED001A5FEDF6
:1012F000260AF94801F05EFCF54880ED120A10BD9F
:1013000010B52DED108BF24890ED140AF34880EDE6
:10131000000A002464E1C4EB041101EB41018722BF
:1013200002EB410007F053F99FEDED0B53EC102B4E
:1013300007F06CF89FEDEC0B53EC102B07F0D8F88E
:1013400041EC1D0BB0EE4D0AF0EE6D0A07F0E8FD22
:10135000B0EE40BAF0EE60BADD4890ED120A10EE41
:10136000101A084607F070F953EC1B2B07F04EF8E3
:1013700041EC190BD94890ED000AB1EE400A10EE8D
:10138000100A07F061F941EC1F0BB0EE4F0AF0EEC6
:101390006F0A07F05DFFB0EE40DAF0EE60DAD44895
:1013A00090ED010A10EE101A084607F04DF953ECC3
:1013B0001D2B07F02BF841EC1B0BC84890ED000AE1
:1013C000B1EE400A10EE100A07F03EF941EC1F0B97
:1013D000B0EE4F0AF0EE6F0A07F0A2FDB0EE40DA71
:1013E000F0EE60DAC24890ED000A10EE101A0846DE
:1013F00007F02AF953EC1D2B07F008F853EC1B2BD0
:1014000006F0FEFF53EC192B06F0FAFF07F060F927
:10141000B84941F82400C4EB041101EB41012D222D
:1014200002EB410007F0D3F89FEDAD0B53EC102B0E
:1014300006F0ECFF9FEDAC0B53EC102B07F058F8C7
:1014400041EC1D0BB0EE4D0AF0EE6D0A07F068FDA1
:10145000B0EE40BAF0EE60BA9D4890ED120A10EE80
:10146000101A084607F0F0F853EC1B2B06F0CEFFDD
:1014700041EC190B994890ED000AB1EE400A10EECC
:10148000100A07F0E1F841EC1F0BB0EE4F0AF0EE46
:101490006F0A07F045FDB0EE40DAF0EE60DA9448EE
:1014A00090ED010A10EE101A084607F0CDF853EC43
:1014B0001D2B06F0ABFF41EC1B0B884890ED000A9A
:1014C000B1EE400A10EE100A07F0BEF841EC1F0B17
:1014D000B0EE4F0AF0EE6F0A07F0BAFEB0EE40DA57
:1014E000F0EE60DA824890ED000A10EE101A08461D
:1014F00007F0AAF853EC1D2B06F088FF53EC1B2BCA
:1015000006F0DDFE53EC192B06F07AFF07F0E0F849
:10151000794941F82400774800EB840090ED000AF7
:1015200010EE101A084607F08FF841EC1B0B7248BA
:1015300000EB840090ED000A10EE101A084607F048
:1015400083F841EC1C0BB0EE4B1AF0EE6B1AB0EEC8
:101550004C0AF0EE6C0A07F0E3FBB0EE40AAF0EEA6
:1015600060AA9FED610B53EC102B51EC1A0B06F0A7
:101570004DFF9FED5B0B53EC102B06F0B9FF07F00E
:10158000A7F85E4941F824005B4800EB840090ED29
:10159000000A20EE000A574800EB8400D0ED000A54
:1015A000544800EB840090ED001A00EE810A10EE22
:1015B000101A084607F048F841EC190BB0EE490A3A
:1015C000F0EE690A07F070FFB0EE408AF0EE608A34
:1015D00051EC180B07F07CF8494941F82400641CD1
:1015E000042CFFF698AE00201AE0454901EB80017B
:1015F00091ED000ABDEEC00A10EE101A0AB234498D
:10160000403121F810203D4901EB800191ED000AA5
:101610002F49283101EB800181ED000A411CC8B23D
:101620000428E2DBBDEC108B10BD30B52DED108B26
:1016300085B01FEDF70AF0EE408A1FEDF90AB0EE13
:10164000408A1FEDFB0AB0EE40FA9FED2E0AF0EE45
:1016500040FA002001900290039004901C4890ED05
:10166000140AB1EE400AB0EE409A2148007B0728E8
:1016700013D125480078012806D19FED240A39EEC0
:10168000000AB0EE409A08E01F48007828B99FEDA4
:101690001F0A39EE400AB0EE409A0024E3E0B0EEB3
:1016A00068FAF0EE48FAB0EE490A07F09DFC1048DF
:1016B000D0ED000A20EE20AAB0EE490A07F02CFE79
:1016C0000B48D0ED010A00EEC0AA00EE104A1FE060
:1016D0005801002030000020A00E0020C80000208B
:1016E0001F85EB51B81E09400000000000806640D5
:1016F000B8010020C0030020D0030020A003002078
:10170000B0030020000000005A000020920A863E2C
:10171000B8EE400ADFEDFE0A60EE200AB0EE001AD5
:1017200080EE810ADFEDFB0A30EE200AF0EE409AEF
:1017300007F05AFCF848D0ED120A00EE80AAF0EE4D
:101740004A8AB0EE490A07F0E7FDF448D0ED000AF6
:1017500020EE20AAB0EE490A07F046FCEF48D0ED93
:10176000010A00EE80AA00EE104AB8EE400ADFED52
:10177000E80A20EE200AB0EE001AC0EE010A9FED42
:10178000E50A30EE800AF0EE409A07F0C5FDE24827
:10179000D0ED120A00EE80AAB0EE4A8A403030F94D
:1017A000140000EE100AB8EEC00A01A800EB840095
:1017B00080ED000A28EEA80A08EE080A10EE101ABA
:1017C000084606F041FF41EC1B0BB0EE4B0AF0EE71
:1017D0006B0A07F069FEB0EE40AAF0EE60AA51EC89
:1017E0001A0B06F012FF01B2CB48403020F814105B
:1017F00018EE900A06F028FF41EC1D0B18EE100AB7
:1018000006F022FF41EC1E0BB0EE4D1AF0EE6D1A01
:10181000B0EE4E0AF0EE6E0A07F082FAB0EE40CA61
:10182000F0EE60CA51EC1C0B06F052FF00EE100AFD
:10183000DFEDBB0A20EE200A10EE105A284606F013
:1018400003FF41EC1B0B1FED5A0B53EC102B06F062
:101850004FFE41EC1A0B06F03BFFAF49283141F82F
:101860002400601CC4B2042CFFF619AFAD48C0EDD3
:10187000008AAD4880ED008A05B0BDEC108B30BD0C
:1018800010B5FFF7D2FE10BD10B52DED0C8BB0EEEC
:10189000408AF0EE608AB0EE419AF0EE619A9E487E
:1018A00090ED120AB5EEC00AF1EE10FA27D090EDD5
:1018B000120A10EE101A084606F0C6FE41EC1D0B87
:1018C000B0EE4D0AF0EE6D0A07F036FCB0EE40BA0D
:1018D000F0EE60BA904890ED090A10EE101A084632
:1018E00006F0B2FE41EC1C0B53EC1B2B06F000FE85
:1018F00041EC1A0B06F0ECFE8C49086004E01FED89
:101900007F0A8A4880ED000A894890ED000A07F0B6
:1019100003FD8648D0ED000A20EE200A10EE104AA2
:10192000204606F091FE41EC1B0B51EC180B81F0A8
:10193000004141EC1D0B9FED7F0B53EC102B06F08B
:10194000D7FD41EC1C0B53EC1B2B06F0B8FC41EC13
:101950001A0B06F0BDFE79490860754890ED000A43
:1019600007F0DAFC7148D0ED000A20EE200A10EEF4
:10197000104A204606F068FE41EC1B0B9FED6D0BF4
:1019800053EC102B51EC180B06F0B2FD41EC1C0B84
:1019900053EC1B2B06F093FC41EC1A0B06F098FE5F
:1019A00067490860624890ED000A07F01DFB5F4838
:1019B000D0ED000A20EE200A10EE104A204606F074
:1019C00043FE41EC1B0B51EC190B81F0004141EC43
:1019D0001D0B9FED580B53EC102B06F089FD41ECCD
:1019E0001C0B53EC1B2B06F06AFC41EC1A0B06F0A7
:1019F0006FFE544908604E4890ED000A07F0F4FA73
:101A00004A48D0ED000A20EE200A10EE104A204687
:101A100006F01AFE41EC1B0B9FED460B53EC102B0E
:101A200051EC190B06F064FD41EC1C0B53EC1B2B25
:101A300006F045FC41EC1A0B06F04AFE42490860EC
:101A40003648007B072825D14048007801280ED170
:101A5000314890ED080AD0ED130A30EE600ADFED50
:101A60003C0A30EE600A324880ED000AE1E0374877
:101A7000007800280DD1284890ED080AD0ED130A0F
:101A800030EE600ADFED320A30EE200A284880EDA1
:101A9000000ACEE0204890ED140ADFED1E0AB4EEF5
:101AA000E00AF1EE10FA20DD90ED140ADFED290ACC
:101AB000B4EEE00AF1EE10FA17D8D0ED140AB0EE49
:101AC000600A5FEDF00A244801F0D8F9B1EE400A4F
:101AD000114880ED120A90ED080AD0ED130A30EE9D
:101AE000600A134880ED000AA3E00B4890ED140A49
:101AF000DFED180AB4EEE00AF1EE10FA4DDD90EDDC
:101B0000140ADFED160AB4EEE00AF1EE10FA27E04F
:101B1000DB0F4940DB0F49BF58010020B80100200E
:101B200000003443A8000020AC0000203400002056
:101B3000380000200000000000000040B800002035
:101B4000BC000020C0000020C40000205A0000207B
:101B50005077563EDB0F493FA00E0020E4CB1640E5
:101B60001BD8D0ED140AB0EE600ADFEDFE0AFE4885
:101B700001F084F9B1EE400AFC4880ED120A90EDC4
:101B8000080AD0ED130A30EE600ADFEDF90A30EEF4
:101B9000200AF84880ED000A4BE0F44890ED140A62
:101BA0005FED120AB4EEE00AF1EE10FA08DA90EDF9
:101BB000140ADFEDF10AB4EEE00AF1EE10FA1CD2DD
:101BC000EA48D0ED130AB0EE600A5FED2F0AE6484E
:101BD00001F054F9B1EE400AE44880ED120A90EDAC
:101BE000080AD0ED130A30EE600ADFEDE10A30EEAC
:101BF000200AE04880ED000A1BE0DC48D0ED140A22
:101C0000B0EE600ADFEDDD0AD74801F037F9B1EE3A
:101C1000400AD64880ED120A90ED080AD0ED130A6A
:101C200030EE600ADFEDD20A30EE600AD14880ED76
:101C3000000ACE4890ED080ADFEDCA0AB4EEE00AC9
:101C4000F1EE10FA12DB90ED080A5FED4F0AB4EEE8
:101C5000E00AF1EE10FA09D2C64890ED000ADFED75
:101C6000C10A30EE600A80ED000A38E0BF4890ED0E
:101C7000080A5FED590AB4EEE00AF1EE10FA12DB41
:101C800090ED080ADFEDBE0AB4EEE00AF1EE10FABC
:101C900009D2B84890ED000A5FED630A30EE600AA1
:101CA00080ED000A1BE0B14890ED080ADFEDB40AB0
:101CB000B4EEE00AF1EE10FA11DB90ED080ADFED68
:101CC000AC0AB4EEE00AF1EE10FA08D2A94890EDA1
:101CD000000ADFEDAB0A30EE600A80ED000AA94889
:101CE00090ED000A20EE000AA748D0ED000A90ED22
:101CF000001A00EE810A10EE101A084606F0A4FC45
:101D000041EC1B0BB0EE4B0AF0EE6B0A07F0CCFB7C
:101D1000B0EE40AAF0EE60AA51EC1A0B06F0D8FC27
:101D20009A4948609A4890ED000A20EE000A9648C9
:101D3000D0ED000A90ED001A00EE810A10EE101AA4
:101D4000084606F081FC41EC1A0BB0EE4A0AF0EEB0
:101D50006A0A07F0A9FBB0EE40BAF0EE60BA51ECA7
:101D60001B0B06F0B5FC89498860894890ED000A94
:101D700020EE000A8748D0ED000A90ED001A00EE30
:101D8000810A10EE101A084606F05EFC41EC1B0BAF
:101D9000B0EE4B0AF0EE6B0A07F086FBB0EE40AAFD
:101DA000F0EE60AA51EC1A0B06F092FC7749C8607D
:101DB000744890ED000A20EE000A7648D0ED000A43
:101DC00090ED001A00EE810A10EE101A084606F097
:101DD0003BFC41EC1B0BB0EE4B0AF0EE6B0A07F03C
:101DE00063FBB0EE40AAF0EE60AA51EC1A0B06F0CD
:101DF0006FFC664908606348006806F025FC41EC0A
:101E00001B0B6148006806F01FFC41EC1C0BB0EE98
:101E10004B1AF0EE6B1AB0EE4C0AF0EE6C0A06F0BC
:101E20007FFFB0EE40AAF0EE60AA51EC1A0B06F06C
:101E30004FFC594948605648006806F005FC41ECE3
:101E40001B0B5148006806F0FFFB41EC1C0BB0EE89
:101E50004B1AF0EE6B1AB0EE4C0AF0EE6C0A06F07C
:101E60005FFFB0EE40AAF0EE60AA51EC1A0B06F04C
:101E70002FFC494988604648006806F0E5FB41ECC4
:101E80001B0B4448006806F0DFFB41EC1C0BB0EE76
:101E90004B1AF0EE6B1AB0EE4C0AF0EE6C0A06F03C
:101EA0003FFFB0EE40AAF0EE60AA51EC1A0B06F02C
:101EB0000FFC3949C8603348006806F0C5FB41ECA7
:101EC0001B0B3448006806F0BFFB41EC1C0BB0EE66
:101ED0004B1AF0EE6B1AB0EE4C0AF0EE6C0A06F0FC
:101EE0001FFFB0EE40AAF0EE60AA51EC1A0B06F00C
:101EF000EFFB294908601D4890ED080ADFED190A3B
:101F0000B4EEE00AF1EE10FA79DB90ED080ADFEDAD
:101F1000230AB4EEE00AF1EE10FA70D21B4890EDFD
:101F2000030A1F4880ED000A184890ED000A1C487B
:101F300080ED010A154890ED010A194880ED020A6A
:101F4000124890ED020A164880ED030A084690ED0B
:101F5000030A144880ED000A084690ED000A114873
:101F600022E00000DB0FC93FA00E00205801002036
:101F7000DB0FC94038000020E4CB16C0DB0FC9BF1F
:101F8000E4CB9640C4000020BC000020700200207A
:101F9000C0000020B800002080020020DB0F494074
:101FA000B0020020C002002080ED010A084690ED3A
:101FB000010AFE4880ED020A084690ED020AFB483D
:101FC00080ED030A002018E0F94901EB800191ED52
:101FD000000AF84901EB800181ED000AF34901EBA9
:101FE000800191ED000A5FED210A30EE200AF249EE
:101FF00001EB800181ED000A401C0428E4DBEF487E
:1020000090ED080A5FED1B0AB4EEE00AF1EE10FA5B
:1020100055DB90ED080A5FED260AB4EEE00AF1EE1A
:1020200010FA4CD2E34890ED020AE14880ED000A34
:10203000E04890ED030ADE4880ED010ADD4890EDAE
:10204000000ADB4880ED020ADA4890ED010AD84820
:1020500080ED030AD84890ED020AD44880ED000ACA
:10206000D54890ED030AD14880ED010AD24890EDA1
:10207000000ACE4880ED020ACF4890ED010ACB4815
:1020800080ED030A002018E0C94901EB800191EDC1
:10209000000AC84901EB800181ED000AC34901EB48
:1020A000800191ED000A5FED430A30EE200AC2493B
:1020B00001EB800181ED000A401C0428E4DBBF48ED
:1020C00090ED080A5FED520AB4EEE00AF1EE10FA64
:1020D00055DB90ED080A5FED5A0AB4EEE00AF1EE26
:1020E00010FA4CD2B34890ED010AB14880ED000AD5
:1020F000B04890ED020AAE4880ED010AAD4890ED7F
:10210000030AAB4880ED020AAA4890ED000AA848ED
:1021100080ED030AA84890ED010AA44880ED000A6A
:10212000A54890ED020AA14880ED010AA24890ED71
:10213000030A9E4880ED020A9F4890ED000A9B48E2
:1021400080ED030A002018E0994901EB800191ED30
:10215000000A984901EB800181ED000A934901EBE7
:10216000800191ED000A5FED7A0A30EE200A924973
:1021700001EB800181ED000A401C0428E4DB8F485C
:1021800090ED120AB5EEC00AF1EE10FA4AD2894873
:1021900090ED020A864880ED000A864890ED030A19
:1021A000834880ED010A834890ED000A804880ED65
:1021B000020A804890ED010A7D4880ED030A7E48BE
:1021C00090ED020A794880ED000A7B4890ED030A01
:1021D000764880ED010A784890ED000A734880ED5A
:1021E000020A754890ED010A704880ED030A00204C
:1021F00016E06F4901EB800191ED000AB1EE400A53
:102200006C4901EB800181ED000A684901EB800116
:1022100091ED000A684901EB800181ED000A401C44
:102220000428E6DB654890ED120AB5EEC00AF1EE2F
:1022300010FA37D1624890ED000AB5EEC00AF1EE0F
:1022400010FA06D190ED010AB5EEC00AF1EE10FACF
:1022500028D0B7EE000A574880ED000AB7EE000A12
:1022600080ED010AB7EE000A80ED020AB7EE000A1F
:1022700080ED030A514890ED140A4F4880ED000AA2
:102280004E4890ED140A4C4880ED010A4B4890ED01
:10229000140A494880ED020A484890ED140A46485D
:1022A00080ED030A002026E0424901EB800191ED18
:1022B000000A4249D1ED120A20EE200ADFED410A60
:1022C00020EE200ABDEEC00A10EE101A0AB23B49F9
:1022D000403121F81020384901EB800191ED000ACE
:1022E000DFED390A20EE200A3449283101EB800164
:1022F00081ED000A401C0428D6DBBDEC0C8B10BD20
:1023000010B52DED028B002440E004EB440000EBFF
:10231000C4002E4901EBC00090ED121BB0EE410A43
:10232000F0EE610A9FED2A1B53EC112B51EC100BC0
:1023300006F06CF806F0CCF901462148583040F818
:1023400024101E48283000EB8400D0ED000A2248FB
:1023500050F82400B421484300EE100AB8EEC00A39
:1023600030EE800A1648483000EB840080ED000A09
:102370001A4830F824001149403131F8141048430C
:1023800001B20E48403020F81410641C042CBCDB51
:102390000A48B0F84000404200B20849A1F84000A5
:1023A0000846B0F84200404201B219E0C0020020E5
:1023B000B00200207002002080020020580100209E
:1023C000B8010020CDCCCC3EE12E6542B8180020EB
:1023D000000000000000F0BFE0030020CC0000205F
:1023E000FE48A0F84210B0F84400404201B2FB4859
:1023F000A0F84410B0F94600F849A1F846000020C2
:10240000A5E0F74901EB800191ED000AF449103194
:1024100001EB8001D1ED000A30EE600ADFEDF10A38
:10242000B4EEE00AF1EE10FA22DDED4901EB800195
:1024300091ED000AEA49103101EB8001D1ED000A6B
:1024400030EE600ADFEDE80AB4EEE00AF1EE10FAD1
:102450000ED2E64951F82010491EE44A42F82010F5
:10246000E34951F820104942E14A42F820106DE05A
:10247000DB4901EB800191ED000AD949103101EBF4
:102480008001D1ED000A30EE600ADFEDD70AB4EE2C
:10249000E00AF1EE10FA07DDD44951F82010891E48
:1024A000D24A42F8201051E0CD4901EB800191ED74
:1024B000000ACB49103101EB8001D1ED000A30EE6A
:1024C000600ADFEDCC0AB4EEE00AF1EE10FA22D297
:1024D000C34901EB800191ED000AC149103101EBC4
:1024E0008001D1ED000A30EE600ADFEDC30AB4EEE0
:1024F000E00AF1EE10FA0EDDBC4951F82010491C3B
:10250000BA4A42F82010BA4951F820104942B84A54
:1025100042F820101AE0B24901EB800191ED000A67
:10252000AF49103101EB8001D1ED000A30EE600AB5
:10253000DFEDB10AB4EEE00AF1EE10FA06D2AB49D3
:1025400051F82010891CA94A42F82010401C042888
:10255000FFF657AF002418E0A14901EB840191ED8B
:10256000001AF0EE410A9E49103101EB840191ED11
:10257000001AB0EE410A04EB440101EB04119F4A3A
:1025800002EB810000F07AFC641C042CE4DB94482C
:102590004838007B032804D091484838007B07283E
:1025A0002AD100200FE000EB400101EBC001944A6A
:1025B00002EBC101B1F8401049420AB28849283102
:1025C00021F81020401C0428EDDB002012E000EB75
:1025D000400101EB0011894A02EB810191ED0B0AE8
:1025E000BDEEC00A10EE101A0AB27D49203121F862
:1025F0001020401C0428EADBBDEC028B10BD10B596
:102600002DED048BFFF77CFE0024C2E004EB4400B8
:1026100000EBC4017B4800EBC100B0F840107048EB
:10262000583020F814106D48403030F814106C48C1
:10263000503020F81410694890ED090AB5EEC00A30
:10264000F1EE10FA20D190ED120A10EE101A0846A1
:1026500005F0FAFF41EC190BB0EE490AF0EE690AF9
:1026600006F06AFDB0EE408AF0EE608A9FED660BE0
:1026700053EC102B51EC180B05F0FAFF04D200219B
:102680005748503020F81410614901EB8401D1ED16
:10269000001A5349203131F9141001EE101AB8EE26
:1026A000C11A21EE811AF0EE410A4D49283131F963
:1026B000141001EE101AB8EEC11AB0EE410A04EB84
:1026C000440101EB0411534A02EB810000F0D6FBF8
:1026D0004349503131F9141001EE101AB8EEC11A05
:1026E0004D49D1ED001A21EE211AF0EE410A3C4984
:1026F000583131F9141001EE101AB8EEC11AB0EECB
:10270000410A04EB440101EB0411444A02EB81004D
:1027100000F0B4FB3248483890ED000AB5EEC00A2C
:10272000F1EE10FA34D190ED010AB5EEC00AF1EEE7
:1027300010FA2DD1294890ED120A10EE101A084611
:1027400005F082FF41EC190BB0EE490AF0EE690A80
:1027500006F0F2FCB0EE408AF0EE608A9FED300B9E
:1027600053EC102B51EC180B05F082FF10D2002017
:102770000CE09FED2D0A00EB400101EB0011254A12
:1027800002EB810181ED0B0A411CC8B20428F0DB89
:10279000641C042CFFF63AAF00204FE01049483982
:1027A000097B032904D00E494839097B072940D108
:1027B00000EB400101EB0011184A02EB810191EDA1
:1027C0000B0AF7EE000A20EE200ABDEEC00A10EE5A
:1027D000101A0AB20249283928E0000058010020E6
:1027E000000200200000B44200008743E003002004
:1027F000CC0000200000B4C2000087C3AC1300204E
:10280000B8180020181A0020000000000000144032
:10281000800300200C1600206C0000203C170020D4
:10282000000000000000E03F0000000021F8102040
:1028300003E00022B64921F81020401C0428ADDB3B
:10284000B34C203CB4F99830002B01DB1C4600E06F
:102850005C42322C24DAAE4C203CB4F99A20002A97
:1028600001DB144600E05442322C19DAA84C203C1B
:10287000B4F99C10002901DB0C4600E04C42322CDC
:102880000EDAA34C203CB4F99E00002801DB04467C
:1028900000E04442322C03DA00209E49086002E046
:1028A00001209C490860002033E099492039097BC8
:1028B000032904D096492039097B072923D100EB4D
:1028C000400101EB0011944A02EB810191ED0B0AEA
:1028D000BDEEC00A10EE101A09B200EE101AB8EEE2
:1028E000C00AF7EE000A20EE200AFFEE000A20EEF2
:1028F000200ABDEEC00A10EE101A0AB2844908314F
:1029000021F8102004E000228149083121F810202C
:10291000401C0428C9DBBDEC048B10BD10B52DEDA7
:10292000088B7E49086849687D4AC2E9160110464D
:10293000D0ED131AB0EE611A90ED162BB0EE420AEC
:10294000F0EE620AFEF74BFBB0EE409AF0EE609AB2
:1029500051EC190B05F0BCFE7149C8641FED4E0A1D
:10296000B0EE408A6D491139B1F9070005F02FFE2C
:102970009FED6C0B53EC102B05F048FD05F045FE68
:1029800000B26A49088065491139B1F9090005F0BA
:102990001EFE9FED640B53EC102B05F037FD05F088
:1029A00034FE00B2624908806049098811FB01F1D8
:1029B0005F4A12885E4B1B8812FB031005F007FE6E
:1029C00041EC1A0BB0EE4A0AF0EE6A0A06F06CFD12
:1029D000B0EE409AF0EE609A51EC190B05F078FEDB
:1029E0004F494862084690ED090ADFED520AB4EEFD
:1029F000E00AF1EE10FA3FDB4C48B0F9000005F0B8
:102A0000E6FD41EC1A0B4A48B0F9000005F0DFFD85
:102A100041EC1B0BB0EE4A1AF0EE6A1AB0EE4B0A0C
:102A2000F0EE6B0A06F07CF9B0EE409AF0EE609A98
:102A300051EC190B05F04CFE08EE100A9FED3E0A12
:102A400038EE000A10EE101A084605F0FDFD41ECC4
:102A50001A0B9FED3A1BB0EE4A0AF0EE6A0A06F036
:102A600075FBB0EE409AF0EE609A51EC190B05F050
:102A70002FFE2B49086204E01FED950A284880EDDF
:102A8000090ABDEC088B10BD10B524481138C07878
:102A90001F49203908730846007B072810D004DC42
:102AA000012807D0032814D107E008280BD00A28F2
:102AB0000FD10BE0FEF7D4FA0EE0FEF7E4FA0BE0DC
:102AC000FEF74AFB08E0FEF7ADFB05E0FEF72AFB48
:102AD00002E0FEF7C5FA00BF00BF10481138C07809
:102AE0000B492039487310BD10B5FEF700FAFFF707
:102AF00086FD10BD10B5FFF711FFFEF7C1FE10BD3A
:102B000010B5FFF7C1FFFFF7F5FFFFF7EDFF10BDB1
:102B1000D8010020400000200C1600201F230020B8
:102B200058010020CDCCCCCCCCCCF43F50000020C0
:102B30005200002000004842DB0FC9400000006046
:102B4000FB211940D0ED000AF4EEC00AF1EE10FAB4
:102B500001DD80ED000AD0ED000AB1EE401AF4EE7E
:102B6000C10AF1EE10FA03D2F1EE400AC0ED000AFC
:102B700070470364C263816380ED000AC0ED010AFF
:102B800080ED021A704780ED000AC0ED010A80ED69
:102B9000021ADFEDFB1AC0ED081ADFEDF91AC0EDDD
:102BA000091ADFEDF71AC0ED0A1ADFEDF51AC0EDCC
:102BB0000B1A704710B52DED0A8B0446F0EE408AD3
:102BC000B0EE609AB0EE418AC4ED048A84ED039AB7
:102BD00039EE680A84ED070A18EE100A05F034FD94
:102BE00041EC1A0B94ED070A10EE101A084605F096
:102BF0002BFD41EC1C0BB0EE4C0AF0EE6C0A06F01B
:102C00009BFAB0EE40BAF0EE60BA53EC1A2B51ECDE
:102C10001B0B05F02DFD04D29FEDD90A84ED070AA8
:102C20001CE094ED070AB4EEC80AF1EE10FA06DDD6
:102C300094ED070A30EE480A84ED070A0EE094EDA1
:102C4000070AF1EE480AB4EEE00AF1EE10FA05D2F6
:102C500094ED070A30EE080A84ED070A18EE100A10
:102C600005F0F2FC41EC1A0B39EE680A10EE101A6E
:102C7000084605F0E9FC41EC1C0BB0EE4C0AF0EE06
:102C80006C0A06F059FAB0EE40BAF0EE60BA53ECB6
:102C90001A2B51EC1B0B05F0EBFC03D29FEDB80A8D
:102CA00084ED070A94ED0C0AB5EEC00AF1EE10FAB5
:102CB00027D094ED0C0A10EE101A084605F0C4FC5B
:102CC00041EC1A0B94ED070A10EE101A084605F0B5
:102CD000BBFC41EC1C0BB0EE4C0AF0EE6C0A06F0AB
:102CE0002BFAB0EE40BAF0EE60BA53EC1A2B51EC6E
:102CF0001B0B05F0D5FC04D29FEDA10ABDEC0A8B9D
:102D000010BDA06B03283ED194ED000AD4ED070A54
:102D100020EE200A84ED080A94ED090AD4ED010A98
:102D200094ED071A00EE810A84ED090A94ED070A72
:102D3000D4ED060A30EE600AD4ED020A20EE200A35
:102D400084ED0A0AD4ED100AF8EE600AB0EE600ACB
:102D500004F12400FFF7F6FE94ED080AD4ED090A09
:102D600030EE200AD4ED0A0A30EE200A84ED0B0A78
:102D7000D4ED0F0AF8EE600AB0EE600A04F12C0000
:102D8000FFF7E0FE42E0A06B04283FD194ED070A74
:102D9000D4ED060A30EE600AD4ED000A20EE200AD7
:102DA00084ED080A94ED010AD4ED070A20EE200A0A
:102DB00084ED090A94ED070AD4ED060AB0EE001A74
:102DC00001EE600AD4ED050A30EE200AD4ED020AC5
:102DD00020EE200A84ED0A0A94ED080AD4ED090ACF
:102DE00030EE200AD4ED0A0A30EE200AD4ED0B0AA8
:102DF00030EE200A84ED0B0AD4ED0F0AF8EE600ADB
:102E0000B0EE600A04F12C00FFF79CFE94ED060A78
:102E100084ED050A94ED070A84ED060A94ED0D0A87
:102E2000B5EEC00AF1EE10FA25D094ED0D0A10EEC1
:102E3000101A084605F008FC41EC1A0B94ED0B0A39
:102E400010EE101A084605F0FFFB41EC1C0BB0EE2B
:102E50004C0AF0EE6C0A06F06FF9B0EE40BAF0EEF4
:102E600060BA53EC1A2B51EC1B0B05F001FC02D29B
:102E70009FED430A42E794ED0B0A3FE710B52DEDB5
:102E8000088B0446B0EE408AF0EE608A84ED048A36
:102E9000C4ED038A38EEC80A84ED070A94ED0C0AE3
:102EA000B5EEC00AF1EE10FA27D094ED0C0A10EE40
:102EB000101A084605F0C8FB41EC190B94ED070AFF
:102EC00010EE101A084605F0BFFB41EC1B0BB0EEEC
:102ED0004B0AF0EE6B0A06F02FF9B0EE40AAF0EEC6
:102EE00060AA53EC192B51EC1A0B05F0D9FB04D254
:102EF0009FED230ABDEC088B10BDA06B032841D1C8
:102F000094ED000AD4ED070A20EE200A84ED080AA9
:102F100094ED090AD4ED010A94ED071A00EE810A36
:102F200084ED090A94ED070AD4ED060A30EE600A32
:102F3000D4ED020A20EE200A84ED0A0AD4ED100A2C
:102F4000F8EE600AB0EE600A04F12400FFF7FAFD23
:102F500094ED080AD4ED090A30EE200AD4ED0A0AED
:102F600030EE200A84ED0B0AD4ED0F0AF8EE600A69
:102F7000B0EE600A04F12C00FFF7E4FD45E000002C
:102F800000000000A06B04283FD194ED070AD4EDA7
:102F9000060A30EE600AD4ED000A20EE200A84ED25
:102FA000080A94ED010AD4ED070A20EE200A84ED08
:102FB000090A94ED070AD4ED060AB0EE001A01EEF4
:102FC000600AD4ED050A30EE200AD4ED020A20EEA4
:102FD000200A84ED0A0A94ED080AD4ED090A30EEBD
:102FE000200AD4ED0A0A30EE200AD4ED0B0A30EEA6
:102FF000200A84ED0B0AD4ED0F0AF8EE600AB0EE59
:10300000600A04F12C00FFF79DFD94ED060A84EDA3
:10301000050A94ED070A84ED060A94ED0D0AB5EE53
:10302000C00AF1EE10FA25D094ED0D0A10EE101A38
:10303000084605F009FB41EC190B94ED0B0A10EE64
:10304000101A084605F000FB41EC1B0BB0EE4B0AD2
:10305000F0EE6B0A06F070F8B0EE40AAF0EE60AA4F
:1030600053EC192B51EC1A0B05F002FB02D21FEDA9
:103070003C0A3FE794ED0B0A3CE710B52DED088BB9
:103080000446B0EE408AF0EE608A84ED048AC4ED16
:10309000038A38EEC80A84ED070A94ED0C0AB5EEEF
:1030A000C00AF1EE10FA27D094ED0C0A10EE101AB7
:1030B000084605F0C9FA41EC190B94ED070A10EE29
:1030C000101A084605F0C0FA41EC1B0BB0EE4B0A93
:1030D000F0EE6B0A06F030F8B0EE40AAF0EE60AA0F
:1030E00053EC192B51EC1A0B05F0DAFA04D21FED50
:1030F0005C0ABDEC088B10BDA06B03283ED194ED9B
:10310000000AD4ED070A20EE200A84ED080A94EDA7
:10311000090AD4ED010A94ED071A00EE810A84ED44
:10312000090A94ED070AD4ED060A30EE600AD4EDE0
:10313000020A20EE200A84ED0A0AD4ED100AF8EE05
:10314000600AB0EE600A04F12400FFF7FBFC94ED86
:10315000080AD4ED090A30EE200AD4ED0A0A30EE4E
:10316000200A84ED0B0AD4ED0F0AF8EE600AB0EEE7
:10317000600A04F12C00FFF7E5FC3EE0A06B042898
:103180003BD194ED070AD4ED060A30EE600AD4ED87
:10319000000A20EE200A84ED080A94ED010AD4ED1D
:1031A000070A20EE200A84ED090A94ED070AD4EDFF
:1031B000060AB0EE001A01EE600AD4ED050A30EE00
:1031C000200AD4ED020A20EE200A84ED0A0A94EDCA
:1031D000080AD4ED0A0A30EE200AD4ED0B0A30EECC
:1031E000200A84ED0B0AD4ED0F0AF8EE600AB0EE67
:1031F000600A04F12C00FFF7A5FC94ED060A84EDAB
:10320000050A94ED070A84ED060A94ED0D0AB5EE61
:10321000C00AF1EE10FA25D094ED0D0A10EE101A46
:10322000084605F011FA41EC190B94ED0B0A10EE6B
:10323000101A084605F008FA41EC1B0BB0EE4B0AD9
:10324000F0EE6B0A05F078FFB0EE40AAF0EE60AA4F
:1032500053EC192B51EC1A0B05F00AFA02D21FEDB0
:10326000B80A46E794ED0B0A43E72DE9F0412DED4E
:10327000048B04460D4616461F46B0EE408AF0EE1B
:10328000608AB0EE419A2A486064B0EE491AF0EEC6
:10329000680AB0EE480A3B46324629462046D4F832
:1032A00044C0E047BDEC048BBDE8F0811FEDCC0AC3
:1032B00080ED080A1FEDCE0A80ED090A1FEDD00A45
:1032C00080ED0A0A1FEDD20A80ED0B0A1FEDD40A29
:1032D00080ED050A1FEDD60A80ED060A1FEDD80A1B
:1032E00080ED070A704770B52DED048B06460D463C
:1032F0001446B0EE408AF0EE608AB0EE419AF0EEED
:10330000619AF0EE480AB0EE680A3046FFF7B6FD63
:1033100030EE290A84ED000A94ED000AF0EE400A2E
:10332000B0EE490A2846FFF7A9FDBDEC048B70BD3D
:10333000732B000810B504462068B0F5027F0AD14F
:103340002C48C068401C2B49C86041F2C872214615
:10335000294800F039F910BD10B504462068A0F2E4
:103360000120072842D2DFE800F0040A10151B27CD
:10337000340021462048583000F013F937E0214648
:103380001D48B03000F00DF931E021461B4800F037
:1033900008F92CE021461948583000F002F926E0DF
:1033A00014480068401C1349086040F2B662214688
:1033B000134800F009F91AE00E484068401C0D4916
:1033C000486041F2A17221460D48583000F0FCF8E7
:1033D0000DE008488068401C0649886040F6F242CB
:1033E00021460548583800F0EFF800E000BF00BF64
:1033F00010BD0000A8210020C0190020C81A00201C
:10340000B81800200A7BCB7A42EA032282618269E3
:103410008260826942600269521C026170472DE934
:10342000F04104460D460026002720686060287B96
:10343000E97A40EA0120206020686168401AE06073
:10344000E06810F5805F07DAA06B401CA063E068BD
:1034500000F50050E0610DE0E068B0F5805F07DD49
:10346000A06B401EA063E068A0F50050E06101E0A1
:10347000E068E0612168A06B01EB4030A06020684B
:10348000A269801A00EE100AF8EEC00AA06B4FF491
:10349000B472504300EE100AB8EEC00A9FEDD11A84
:1034A00000EE810A10EE101A084605F0CDF841EC46
:1034B000100B84ED120BE269207D411C217504F193
:1034C000200141F82020207D062801D10020207510
:1034D000002605E004F1200050F826000744761C81
:1034E000062EF7DB062097FBF0F02064A97B687BB3
:1034F00041EA002000B2A4F85400BDE8F08170B5A4
:1035000004460D4620686060287BE97A40EA012085
:10351000206020686168401AE060E06810F5805F14
:1035200007DAA06B401CA063E06800F50050E06182
:103530000DE0E068B0F5805F07DDA06B401EA06382
:10354000E068A0F50050E06101E0E068E06121681A
:10355000A06B01EB4030A0602068A269801A00EEE9
:10356000100AF8EEC00AA06B4FF4B472504300EE9C
:10357000100AB8EEC00A9FED9C1A00EE810A10EE08
:10358000101A084605F060F841EC100B84ED120BA0
:10359000687B000200B2A97B08432064687C206538
:1035A00070BD70B504460D46E06B401CE063E06BF7
:1035B000052804DC29462046FFF724FF03E02946BE
:1035C0002046FFF72CFF70BD70B504460E46154629
:1035D000E06B401CE063E06B022800DCA561314633
:1035E0002046FFF78CFFE06B0A2812DCA069A16877
:1035F000401A10F57A6F03DA05F50050A06108E073
:10360000A069A168401AB0F57A6F02DDA5F50050F7
:10361000A06170BD2DE9F04186B007460C46154605
:103620001E46DDF8308040F2FF10019000208DF83A
:103630000C008DF80D0008208DF80E00200A8DF882
:103640000F008DF81040290A8DF811108DF81250D6
:10365000310A8DF813108DF814604FEA18218DF897
:1036600015108DF816800EE060480068401C5F4918
:1036700008600846006840F6B831884203D100204F
:103680005A49086004E0B86800F0E0500028EBD028
:1036900000BF01A9384602F06DFB06B0BDE8F0811D
:1036A0002DE9F04186B080460C4615461E460C9F1B
:1036B00040F2FF20019000208DF80C008DF80D00E5
:1036C00008208DF80E00200A8DF80F008DF81040AC
:1036D000290A8DF811108DF81250310A8DF8131047
:1036E0008DF81460390A8DF815108DF8167001A93F
:1036F000404602F03FFB06B0BDE8F0812DE9F04105
:1037000086B007460C4615461E46DDF830804FF45D
:103710000070019000208DF80C008DF80D0008203D
:103720008DF80E00200A8DF80F008DF81040290A40
:103730008DF811108DF81250310A8DF813108DF894
:1037400014604FEA18218DF815108DF816800EE0E0
:1037500027480068401C264908600846006840F673
:10376000B831884203D100202149086004E0B868DC
:1037700000F0E0500028EBD000BF01A9384602F06D
:10378000F9FA06B0BDE8F0812DE9F04186B0804637
:103790000C4615461E460C9F40F2FF10019000207B
:1037A0008DF80C008DF80D0008208DF80E00200A11
:1037B0008DF80F008DF81040290A8DF811108DF842
:1037C0001250310A8DF813108DF81460390A8DF8F3
:1037D00015108DF8167001A9404602F0CBFA06B01C
:1037E000BDE8F081FFFF333D0000343DDC000020E8
:1037F000E0000020F0B503460C461888002113E0D5
:10380000675C80EA072000250BE0460000F4004CCE
:10381000BCF1000F03D041F2210C86EA0C063046C1
:103820006D1C082DF1D3491C9142E9D31880F0BDDD
:103830002DE9F84305460F4690464FF00009002059
:1038400000900626FE484078002859D0002085F8D0
:103850006300FB484078C0F3800078B1F9A12846A6
:1038600004F01BFDF84908600846006830B1F448D0
:10387000007820F00400001DF1490870F0484078FD
:1038800000F0010078B1EFA1284604F006FDEE49F2
:1038900008600846006830B1E948007820F001006F
:1038A000401CE7490870E6484078C0F3400078B112
:1038B000E4A1284604F0F1FCE349086008460068EA
:1038C00030B1DF48007820F00200801CDC4908702D
:1038D000DB484078C0F3C00078B1DCA1284604F092
:1038E000DCFCD94908600846006830B1D44800784B
:1038F00020F008000830D2490870002028600AE152
:1039000028785A28FBD16878A528F8D1A878E978D2
:1039100000EB0120801D4045F1D1B8F1080FEEDB2E
:10392000042229466846FFF765FFA8F10602A91D93
:103930006846FFF75FFF2879697900EB01201FFADD
:1039400080F9BDF800004845D9D10626E0E0AC1961
:103950002078C02860D008DC90280FD0A02813D091
:10396000A52829D0B0286FD13EE0D02870D0D1282A
:103970006CD0D9286BD0F028F5D1C3E06078B84975
:103980000870B01CC6B2C2E06078A17800EB0120DC
:1039900000B2B3494880E078217900EB012000B201
:1039A000AF4988806079A17900EB012000B2AC4971
:1039B000C880F01DC6B2AAE06078A17800EB0120B3
:1039C00000B2A7490881E078217900EB012000B21C
:1039D000A34948816079A17900EB012000B2A04998
:1039E0008881F01DC6B292E06078A17800EB0120DA
:1039F00000B29B49C881E078217900EB012000B238
:103A0000974908826079A17900EB012000B29449BE
:103A10004882F01DC6B27AE06078A17800EB012000
:103A200000B28F498882E078217900EB012000B252
:103A30008B49C8826079A17900EB012000B28849E6
:103A40000883F01DC6B262E05FE001E04CE03FE0B9
:103A50006078A17800EB012000B281494883E078CA
:103A6000217900EB012000B27D4988836079A1793A
:103A700000EB012000B27A49C8830846B0F91A0069
:103A800000EE100AB8EEC00ADFED760A20EE200A3A
:103A9000084680ED0F0AB0F91C0000EE100AB8EEDF
:103AA000C00ADFED700A20EE200A084680ED100AF9
:103AB000B0F91E0000EE100AB8EEC00ADFED6A0A87
:103AC00020EE200A084680ED110AF01DC6B21EE065
:103AD000634854F8011F016261684162A168816214
:103AE00006F10D00C6B212E05D4854F8011FC16234
:103AF00061680163A1684163E168816306F11100B7
:103B0000C6B204E0701DC6B201E0464600BF00BF69
:103B10004645FFF61CAF5248B0F91200404200EE95
:103B2000100AB8EEC00ADFED500A20EE200A87ED39
:103B3000040A4B48B0F91000404200EE100AB8EEFB
:103B4000C00ADFED490A20EE200A87ED030A444847
:103B5000B0F90E00404200EE100AB8EEC00ADFEDE8
:103B6000420A20EE200A87ED050A404890ED000A3F
:103B70003F4880ED000A3A4890ED110AB1EE400A44
:103B80003A4880ED000A90ED000A3948D0ED000A6D
:103B900030EE600ADFED370AB4EEE00AF1EE10FA1B
:103BA00005DB35480068401E3349086013E02F48A4
:103BB00090ED000A2E48D0ED000A30EE600ADFEDED
:103BC0002F0AB4EEE00AF1EE10FA04D82A48006891
:103BD000401C294908602A4890ED000A294880EDD8
:103BE000000A1F4890ED080A254880ED000A90ED74
:103BF000000A2448D0ED000A30EE600ADFED1D0A0D
:103C0000B4EEE00AF1EE10FA05DB1F480068401E32
:103C10001D49086013E01A4890ED000A1948D0EDDC
:103C2000000A30EE600ADFED150AB4EEE00AF1EEAC
:103C300010FA04D814480068401C1349086025E0B5
:103C4000E40000204F4B0000E80000206E65772064
:103C50007061636B6574206974656D7300000000AA
:103C6000B82100200AD7233CCDCCCC3DF000002069
:103C7000EC0000200000A543040100200000A5C3C3
:103C8000F8000020F40000200801002031480068FE
:103C90004FF4B471484300EE100AB8EEC00A2E4843
:103CA000D0ED000A30EE200A87ED000A2B4890ED97
:103CB000000A2B4880ED000A2A4890ED090A27489F
:103CC00080ED000A90ED000A2548D0ED000A30EEA4
:103CD000600A5FED180AB4EEE00AF1EE10FA05DBB7
:103CE00021480068401E2049086013E01B4890ED01
:103CF000000A1B48D0ED000A30EE600A5FED210A91
:103D0000B4EEE00AF1EE10FA04D817480068401C3F
:103D100015490860154800684FF4B471484300EE37
:103D2000100AB8EEC00A1248D0ED000A30EE200AA0
:103D300087ED010A0B4890ED100ADFED0E0A30EE18
:103D4000200A87ED020A90ED0F0A87ED000ABDE810
:103D5000F883000008010020F80000200001002086
:103D6000FC000020B82100200C01002004010020EC
:103D7000F0000020A470954030B5034605E013F82C
:103D8000010B80EA0204B348025D081EA1F10101A3
:103D9000F5D1104630BD70B505460C4600260DB174
:103DA000022C01D8002070BD611EFF222846FFF7BB
:103DB000E3FF0646601E285CB04201D10120F2E715
:103DC0000020F0E770B505460C4600260DB1022C28
:103DD00000D870BD611EFF222846FFF7CDFF0646C2
:103DE000601E2E5400BFF4E730B5034613B94FF6FA
:103DF000FF7030BD09E013F8014B82EA0400C0B245
:103E0000954D35F8100080EA2222081EA1F101012B
:103E1000F1D11046EDE770B505460C4600260DB110
:103E2000022C01D8002070BDA11E8C4802882846B3
:103E3000FFF7DAFF0646F1B2A01E285C814206D1E8
:103E4000601E285CB0EB162F01D10120EBE70020AB
:103E5000E9E770B505460C4600260DB1022C00D8E6
:103E600070BDA11E7D4802882846FFF7BDFF0646AB
:103E7000A01E2E54310A601E295400BFF0E770B511
:103E800004460D4600260CB1022D01D8FF2070BD5E
:103E9000FF2229462046FFF76FFFF8E72DE9FC5F78
:103EA00005460F46092F01D8BDE8FC9F0024A14616
:103EB000CBE015F804A0601C295CA01C285C41EA3A
:103EC0000026601D295CA01D285C41EA002B2819F2
:103ED00000F1070828190168009100798DF80400A5
:103EE00006F109001FFA80F9BAF1A50F77D1052173
:103EF0006846FFF750FF002871D028194946FFF7A0
:103F00008AFF0028F8D0BBF5017F6AD012DC40F2AE
:103F10000311ABEB01008B452BD006DCBBF1010F8D
:103F20001AD0BBF1030F74D11CE0FE2828D0FF2863
:103F30006FD14BE0BBF5027F6DD006DCABF2062003
:103F4000002856D001287BD15AE0ABF2013000287E
:103F500068D0022874D16CE032464146404804F0F3
:103F60006AF96EE0324641463D480C3004F063F990
:103F700067E0324641463A48363004F05CF960E08A
:103F80001B2E22D1324641463548393004F053F9D0
:103F9000334890F83900012809DB314890F839009E
:103FA000072804DC02202E4981F8C5000DE02C48CA
:103FB00090F839000B2808DB294890F839001128BF
:103FC00003DC0120264981F8C5003AE0102E05D116
:103FD000324641462248543004F02DF931E031E0B8
:103FE000FFE7012E04D198F800001D4981F8740004
:103FF00027E0324641461A48763004F01CF920E0AA
:10400000072E05D1324641461548773004F013F9A2
:1040100017E015E0FFE73246414611487E3004F0D4
:104020000AF90EE0324641460D48843004F003F9A7
:1040300007E0324641460A48AC3004F0FCF800E0A4
:1040400000BF00BF04EB090084B2A7423FF731AFC5
:1040500000BF29E7319F000832A0000810010020AE
:104060000022002010B503463BB1087838B9012082
:1040700008701078401C107001E000200870107863
:1040800000EBD0746410A0EB44040CB9002010BD08
:104090000120FCE7CB8A03400BB1012300E00023A1
:1040A0001370704710B5044604F128022146012020
:1040B000FFF7F0FF04F1290221460420FFF7EAFF91
:1040C00004F12A0221460220FFF7E4FF04F12B024B
:1040D00021460820FFF7DEFF04F12C0221461020C4
:1040E000FFF7D8FF04F12E0221462020FFF7D2FF70
:1040F00004F12F0221464020FFF7CCFF04F13002EB
:1041000021468020FFF7C6FF04F1310221464FF41B
:104110008070FFF7BFFF04F1320221464FF40070B8
:10412000FFF7B8FF04F1330221464FF48060FFF738
:10413000B1FF04F1340221464FF40060FFF7AAFFFB
:1041400004F12D0221464FF48050FFF7A3FF04F144
:10415000350221464FF40050FFF79CFF04F1360270
:1041600021464FF48040FFF795FF04F137022146C6
:104170004FF40040FFF78EFF94F82800914A9249CF
:10418000FFF770FF382108552921085D8F4A9049B3
:10419000FFF768FF392108552A21085D8D4A8E49AD
:1041A000FFF760FF3A2108552B21085D8B4A8C49A7
:1041B000FFF758FF3B2108552C21085D894A8A49A1
:1041C000FFF750FF3C2108552E21085D874A88499A
:1041D000FFF748FF3E2108552F21085D854A864993
:1041E000FFF740FF3F2108553021085D834A84498D
:1041F000FFF738FF402108553121085D814A824987
:10420000FFF730FF412108553221085D7F4A804980
:10421000FFF728FF422108553321085D7D4A7E497A
:10422000FFF720FF432108553421085D7B4A7C4974
:10423000FFF718FF442108552D21085D794A7A4976
:10424000FFF710FF3D2108553521085D774A784971
:10425000FFF708FF452108553621085D754A764964
:10426000FFF700FF462108553721085D734A74495E
:10427000FFF7F8FE4721085510BD817AC176017F0E
:10428000C27E891A4177C27E0277417F01290ED111
:10429000016A491C0162016A01EBD1725210A1EB63
:1042A000420212B90022827701E001228277417F27
:1042B00002290ED1416A491C4162416A01EBD17267
:1042C0005210A1EB420212B90022C27701E0012292
:1042D000C2777047C17A012901D1817608E0C17A9D
:1042E000032901D1817603E0C17A022900D18176C8
:1042F000704730B504460D46122D00D030BD04B9CC
:10430000FCE72078617840EA0120C0F30A004D49BB
:1043100008806078C010A17840EA4110C0F30A001C
:1043200048494880A0788011E17840EA81002179ED
:1043300040EA8120C0F30A00424988802079401079
:10434000617940EAC110C0F30A003E49C880207C70
:10435000617C40EA0120C0F30A003A490881607993
:104360000011800888726079C0F30110C872A079CA
:10437000E17940EA012000B232498881207A617AED
:1043800040EA012001B22F48C181A07AE17A40EAD7
:10439000012001B22B480182217B0175617B4175AF
:1043A000A07BE17B40EA01202649C8820846FFF74E
:1043B00091FF2448FFF761FF2248FFF773FE00BF1B
:1043C0009CE70000130100201201002015010020CD
:1043D00014010020170100201601002019010020FF
:1043E000180100201B0100201A0100201D010020DF
:1043F0001C0100201F0100201E01002021010020BF
:10440000200100202301002022010020250100209E
:10441000240100202701002026010020290100207E
:10442000280100202B0100202A0100202D0100205E
:104430002C0100202F0100202E010020310100203E
:1044400030010020C622002010B504463448007810
:10445000022802D03248007810B90020207001E014
:10446000012020702E48B0F80F00A4F801002C485D
:104470000079A4F803002B482168016021790171BB
:10448000642100F010FD10BD70B504460D462A22CF
:104490002946204603F0CFFE70BD0A68A2F223121F
:1044A00032B9D1F80B200260D1F80F20426000E051
:1044B00000BF00BF704730B585B005460C461848B0
:1044C0000078022802D01648007810B90020207029
:1044D00001E0012020701248B0F80F00A4F801009C
:1044E0000F480079A4F803000E4821680160217983
:1044F00001714FF44070009000208DF808008DF895
:10450000090008208DF80A002068CDF80B002079FA
:104510008DF80F006946284601F02CFC05B030BD2F
:104520000E23002027230020F0B58BB004460D4653
:1045300016461F460121084602F07AFC0121480672
:1045400002F0BFFC09220B21964802F05EFA092214
:104550000C21944802F059FA4FF4C05009900220FF
:104560008DF8280009A98F4802F0C4F914208DF8AD
:10457000040003208DF8050001208DF806008DF859
:10458000070001A801F0F9F9874801F061FA06A8CF
:1045900001F082FB00208DF81E0001208DF81F0025
:1045A00000208DF820008DF821008DF822008DF874
:1045B00023008DF81A708DF81B008DF81C508DF8B3
:1045C0001D40ADF8186006A9774801F05AFA00209E
:1045D0008DF812008DF8130001208DF814000020D2
:1045E000ADF80800ADF80A00ADF80C00ADF80E000B
:1045F000ADF8100001208DF8150002A801F0CBFAEB
:1046000001220221684801F0C5FD0BB0F0BD10B5D4
:104610000121654801F026FE18B10121624801F030
:10462000BCFE10BD00B585B002215F4801F01AFE46
:1046300088B104215C4801F0B0FE5C495A4801F0A1
:10464000EEFD6A460021584801F089FC00BF68462B
:10465000FEF770FE00BF05B000BDF0B58BB004469C
:104660000D4616461F460121022002F0E1FB012102
:10467000880602F026FC09220C214D4802F0C5F9FB
:1046800009220D214A4802F0C0F94FF4405002902F
:1046900002208DF80C0002A9454802F02BF94020B9
:1046A0008DF8040003208DF805008DF80600012028
:1046B0008DF8070001A801F060F93F208DF8040093
:1046C00003208DF805008DF8060001208DF8070005
:1046D00001A801F052F9374801F0BAF908A801F031
:1046E000DBFA00208DF8260001208DF8270000203D
:1046F0008DF828008DF829008DF82A008DF82B0000
:104700008DF822008DF823008DF824508DF8254077
:10471000ADF8206008A9274801F0B3F90E208DF804
:104720001A0000208DF81B0001208DF81C000020CD
:10473000ADF81000ADF81200ADF81400ADF8160099
:10474000ADF8180001208DF81D0004A801F023FA2F
:1047500001220221174801F01DFD0BB0F0BD10B57C
:104760000121144801F07EFD18B10121114801F02A
:1047700014FE10BD00B585B002210E4801F072FD97
:1047800068B102210B4801F008FE6A460021094881
:1047900001F0E5FB00BF6846FEF7DEFD00BF05B097
:1047A00000BD00000000024000640040080000322C
:1047B00000040240006800401CB50121042002F002
:1047C00037FB0620009001208DF8040000208DF8B2
:1047D000060003208DF8050001208DF807006946CA
:1047E000074802F087F80621054802F0FFF8042187
:1047F000034802F0FDF80221014802F0F9F81CBD5F
:104800000008024010B596B004460121022002F0D3
:104810000FFB0121880502F00BFB0121102002F0A3
:1048200061FB07221146F74802F0EFF814A802F0E6
:10483000A9F88020149002208DF8540000208DF8F3
:10484000550001208DF8570014A9EE4802F052F8E7
:10485000ED4803F093FA10A803F05DFB10940020DC
:10486000ADF84400ADF846004FF48060ADF8480064
:104870000420ADF84A000020ADF84C0010A9E24831
:1048800003F0E3FA01224021DF4803F013FCDF4884
:1048900001F0D6FD684601F09EFE4FF000600090EA
:1048A000D948001D0190DA48029000200390402072
:1048B0000490002005904FF480600690002007903F
:1048C00008904FF48070099000020A9000200B902D
:1048D0000C900D900E906946CC4801F053FE0022DA
:1048E000CB494031C94801F0AEFE0121C74801F073
:1048F000B6FE0121C54801F07FFE25208DF83C0061
:1049000000208DF83D008DF83E0001208DF83F001D
:104910000FA801F032F8012240F22441BA4803F016
:10492000D2FB0121B84803F018FB16B010BD10B53A
:1049300040F22441B44803F001FC002852D0B248B0
:104940000088B1488088B14801F099FE20BB002161
:10495000AE4801F051FEAF49AC4801F0C6FEAB488D
:1049600001F06DFEC0F14000AB4908604020A7494E
:10497000091D0860081F006840F40020091F086036
:104980000121A24801F038FE00BFA348008881B28F
:104990009F48FFF7AEFC25E000219C4801F02CFE6B
:1049A0009C499A4801F0A1FE984801F048FEC0F1E8
:1049B00040009949086040209449091D0860081F7B
:1049C000006820F40020091F086001218F4801F0D1
:1049D00013FE00BF9048008881B28D484030FFF739
:1049E00088FC00BF10BD10B596B0044601214804F4
:1049F00002F067FA0121084602F01AFA012148057F
:104A000002F016FA07220221844801F0FEFF072275
:104A10000321824801F0F9FF0C20149002208DF848
:104A2000540003208DF8550001208DF8570014A97B
:104A30007A4801F05FFF7A4803F0A0F910A803F06C
:104A40006AFA10940020ADF84C000C20ADF84A0032
:104A50000020ADF84800ADF84600ADF8440010A9BC
:104A60006F4803F0F2F9012280216D4803F022FB28
:104A70006C4801F0E5FC192005904FF000600190B2
:104A80004020049000200C900D9067480390002077
:104A90000E9009904FF48060079000200A906048C3
:104AA000001D029000200F90089006904FF4803077
:104AB0000B9001A95B4801F065FD0121594801F007
:104AC0009BFD01224021564803F0F4FA01A801F0B1
:104AD00082FD2020059080050190002004900C901C
:104AE0000D905248039000200E9009904FF4806082
:104AF000079000200A904A48001D029000200F9065
:104B0000089006904FF480300B9001A94548183862
:104B100001F038FD01214348183801F06DFD4FF4D4
:104B2000A06000F025FF26208DF8000001208DF800
:104B3000030000208DF801008DF80200684600F0A7
:104B40001CFF012240F22441354803F0BCFA012148
:104B5000334803F002FA16B010BD10B540F22441FC
:104B60002F4803F0EBFA30B32D4800882C48001D85
:104B7000008800BF19222D492D4803F05CFB00BFBF
:104B800000212848183801F037FD00BF25481838A3
:104B900001F07FFD0028F9D126492248183801F09C
:104BA000A4FD20211F48603801F047FD01211D4868
:104BB000183801F021FD10BD10B504461922214618
:104BC000194803F038FB00BF1B49164801F071FD7E
:104BD0000028F9D01849134801F087FD0021114839
:104BE00001F00AFD00BF0F4801F053FD0028FAD183
:104BF00019210C4801F021FD01210A4801F0FCFCBB
:104C000010BD00000004024000100140406402405A
:104C1000DF27002000003010380100200000024093
:104C200000440040A06002400F2A00205F280020BE
:104C30000E230020000C00200000202010B596B0AC
:104C400004460121022002F0F3F80121880402F059
:104C500038F90121480502F0EBF807220A21FE4845
:104C600001F0D3FE07220B21FB4801F0CEFE02200B
:104C70008DF8440003208DF8450000208DF8460093
:104C800001208DF847008002109010A9F24801F031
:104C900031FE4FF40060109010A9EF4801F02AFE99
:104CA00027208DF8000002208DF8010001208DF8EA
:104CB00002008DF80300684600F05FFE12940020A9
:104CC000ADF84C00ADF84E00ADF85000ADF8540012
:104CD0000C20ADF8520012A9E04803F0B6F801220A
:104CE00040F22441DD4803F0EEF95021DB4803F0A7
:104CF0001CFADB4803906420059000200C900D9076
:104D00000E9009904FF48060079080100A90D3486D
:104D1000001D029000200F90089006904FF4003084
:104D20000B90800201900020049001A9CD4801F071
:104D300029FC0121CB4801F05FFC01224021C7483A
:104D400003F0B8F901228021C44803F0B3F900212F
:104D5000C448303001F050FCC248303001F070FBE4
:104D600000BFC048303001F094FC0028F9D14FF06A
:104D700000600190B948001D0290BB48039040209C
:104D800004900020059006904FF48060079000206A
:104D9000089009900A904FF480300B9000200C90FE
:104DA00003200D9000200E900F9001A9AD483030E7
:104DB00001F0E8FB0E208DF8000002208DF80100C4
:104DC00001208DF802008DF80300684600F0D5FD43
:104DD00001221021A348303001F09BFC01219F48A3
:104DE00003F0BBF816B010BD10B5002440F224410A
:104DF0009A4803F0A3F9F8B1984803F0DDF840F2BF
:104E00002441964803F0D5F90021964801F0F4FBBF
:104E100000224021914803F04DF900BF904993488A
:104E2000FFF732FB00BF012240218C4803F042F91A
:104E300001218C4801F0E0FB10BD10B54FF0C051CE
:104E40008848303001F035FC50B1002185483030C1
:104E500001F0D2FB4FF0C0518248303001F045FCE8
:104E600010BD70B504460D460021204601F0C4FB7C
:104E700000BF204601F00DFC0028FAD1294620464B
:104E800001F0DBFB0121204601F0B6FB70BD70B5DF
:104E900004460025744D05F8014B0121714830305E
:104EA000FFF7DFFF70BD2DE9F04105460E460024F7
:104EB00000276D4F00BF03E0285D3855601C84B2A9
:104EC000B442F9DB314667483030FFF7CAFFBDE82E
:104ED000F08110B596B004460121042001F0A8FF2E
:104EE0000121C80401F0EDFF08220A21604801F009
:104EF0008CFD08220B215E4801F087FD0121480549
:104F000001F096FF4FF44060109002208DF84400AD
:104F100000208DF8460003208DF8450001208DF813
:104F2000470010A9524801F0E5FC12940020ADF8AA
:104F30004C00ADF84E00ADF850000C20ADF852001A
:104F40000020ADF8540012A94A4802F07EFF012269
:104F50004021484803F0AEF84248183001F070FA9A
:104F6000684601F038FB4FF0006000904148001D9A
:104F7000019041480290002003906420049000209A
:104F800005904FF4806006900020079008900990EB
:104F90004FF480300A9000200B900C900D900E90F2
:104FA00069463048183001F0EDFA01212D481830DB
:104FB00001F022FB34208DF83C0003208DF83D00E9
:104FC0008DF83E0001208DF83F000FA800F0D5FCC1
:104FD00001228021274803F06DF800212148483044
:104FE00001F00AFB1F48483001F02AFA00BF1D48B3
:104FF000483001F04EFB0028F9D14FF000600090DE
:105000001C48001D01901D48029040200390002084
:10501000049005904FF4806006900020079008905F
:1050200009904FF480300A9000200B9003200C90E0
:1050300000200D900E9069460A48483001F0A2FA0F
:105040000F208DF83C0003208DF83D008DF83E00C8
:1050500001208DF83F0013E00004024000480040AA
:105060007F28002028600240AB2900208B230020ED
:1050700000080240004C0040E3280020282A0020BD
:105080000FA800F07AFC01221021FE4801F041FB3C
:10509000012240F22441FC4803F015F80121FA48AE
:1050A00002F05BFF16B010BD10B5002440F22441A1
:1050B000F54803F043F808B3F3480088F248001DB0
:1050C00000880021EF48303801F096FAEF49ED48AA
:1050D000303801F00AFBEB48303801F0B0FAC0F18B
:1050E0006400C4B200BF00BF6421E648303801F05C
:1050F000A4FA0121E348303801F07EFA10BD70B502
:1051000004460D462946204601F097FA0121204623
:1051100001F072FA70BD10B5DD49DA4801F0C9FA44
:1051200038B10021D74801F067FAD949D54801F0D4
:10513000DCFA10BD70B504460025D64D05F8014BCC
:105140000121D048FFF7DBFF70BD2DE9F041054696
:105150000E4600240027CF4F00BF03E0285D3855DE
:10516000601C84B2B442F9DB3146C648FFF7C7FF82
:10517000BDE8F08110B596B004460121042001F08D
:1051800057FE0121082001F053FE0121080501F01E
:1051900098FE0121480501F04BFE02208DF85400D5
:1051A00000208DF856004FF48050149001208DF8A7
:1051B000570003208DF8550014A9B74801F09AFB59
:1051C00002208DF8540000208DF856000420149021
:1051D00001208DF8570003208DF8550014A9AF4821
:1051E00001F088FB08220C21AB4801F00EFC0822DC
:1051F0000221AA4801F009FC10940020ADF84C00EF
:105200000C20ADF84A000020ADF84800ADF846008B
:10521000ADF8440010A9A24802F017FE0121A048F1
:1052200002F09BFE012240219D4802F043FF6846A8
:1052300001F0D1F99B4802904FF400700490800473
:1052400000909748001D01900020039005904FF4B6
:105250008060069000200890079009904FF48030FD
:105260000A9000200B900C900D900E906946854896
:10527000603801F087F901218248603801F0BCF9FB
:10528000002289497F48603801F0DDF901217D481D
:10529000603801F0E4F935208DF83C0001208DF8EC
:1052A0003F008DF83D0002208DF83E000FA800F071
:1052B00064FB012240F22441794802F004FF0121FD
:1052C000774802F04AFE01228021754802F0F2FE82
:1052D00000216C48483001F08FF96A48483001F0ED
:1052E000AFF800BF6748483001F0D3F90028F9D182
:1052F0004FF0006000906A48001D01906B480290DA
:105300004020039096200490002005904FF4806088
:10531000069000200790089009900A900B900320B7
:105320000C9000200D900E9069465648483001F0D0
:1053300029F901215348483001F05EF92F208DF8FA
:105340003C0002208DF83D0001208DF83E008DF8D4
:105350003F000FA800F011FB16B010BD70B5044659
:105360000D460021204601F047F900BF204601F01C
:1053700090F90028FAD12946204601F05EF9012172
:10538000204601F039F970BD10B540F2244144487F
:1053900002F0D4FE00285FD0414800884048808851
:1053A0003848603801F06BF958BB00213548603847
:1053B00001F022F93E493348603801F096F931484E
:1053C000603801F03CF9C0F500703A4908604FF4CC
:1053D00000712C48603801F030F94FF40022324956
:1053E0002848603801F046F901212648603801F06C
:1053F00003F900BF2F48008881B22A48FEF74EFD0E
:105400002AE000211F48603801F0F6F828491D48BD
:10541000603801F06AF91B48603801F010F9C0F5F6
:105420000070244908604FF400711648603801F09C
:1054300004F900221B491348603801F01BF90121CF
:105440001048603801F0D8F800BF1A48008881B2CF
:105450001548FEF723FD00BF10BD00B597B0012130
:10546000042001F0E5FC0121880501F0E1FC0121A7
:10547000202001F037FD08220621074801F0C5FA77
:10548000082219E070600240004C0040000030101B
:1054900020000020282A002000080240000C0240C2
:1054A00000500040DF230020DF2500208C2A002050
:1054B000300000103C01002007214F4801F0A5FA00
:1054C000C020119002208DF8480000208DF84A007D
:1054D00002208DF8490000208DF84B0011A94648A4
:1054E00001F008FA454802F049FC4FF4E13013900E
:1054F0000020ADF85000ADF85200ADF854000C207B
:10550000ADF856000020ADF8580013A93B4802F052
:105510009CFC01224021394802F0CCFD384800F0C3
:105520008FFF4FF0206001903448001D02903548F5
:1055300003900020049064200590002006904FF412
:10554000806007900020089009900A904FF4803006
:105550000B9000200C900D900E900F9001A9284800
:1055600001F010F80121264801F046F847208DF897
:10557000400003208DF841008DF8420001208DF895
:10558000430010A800F0F9F9012240F224411B4821
:1055900002F099FD0121194802F0DFFC17B000BDAF
:1055A00010B540F22441154802F0C8FD18B3134865
:1055B00000881248001D00880021114801F01CF8E5
:1055C00011490F4801F091F80D4801F038F8C0F189
:1055D00064000E49086000BF084602780C4909487B
:1055E000FEF726F900BF6421054801F026F80121E5
:1055F000034801F001F810BD00080240001401400A
:105600002864024047290020000C001040010020BF
:10561000701800200EB50121022001F063FC4FF04C
:10562000FF300190A720ADF800000020ADF8080081
:10563000ADF802000121C84801F066FE6946C6487F
:1056400001F0F7FD0121C44801F05EFE0022114681
:10565000C14801F02BFE0121BF4801F03DFE0121B0
:10566000BD4801F06FFE0EBD1FB50121042001F001
:1056700028FC1C208DF8000000208DF8010002207D
:105680008DF8020001208DF80300684600F075F9DE
:105690004FF0FF3002905320ADF804000020ADF829
:1056A0000C00ADF806000121880701F02DFE01A9CC
:1056B0004FF0804001F0BDFD0121880701F042FE5E
:1056C0001FBD1FB50121022001F0FBFB1D208DF83D
:1056D000000000208DF8010002208DF8020001205A
:1056E0008DF80300684600F048F94FF0FF30029053
:1056F000A720ADF804000020ADF80C00ADF80600BE
:105700000121964801F000FE01A9954801F091FDA4
:105710000121924801F016FE012211468F4802F045
:1057200029FA01218D4802F039FA1FBD0EB5012179
:10573000042001F0C6FB4FF0FF3001905320ADF87C
:1057400000000020ADF80800ADF8020001218448F7
:1057500001F0DAFD6946824801F06BFD0EBD1FB510
:105760000121082001F0ADFB32208DF8000000205F
:105770008DF8010002208DF8020001208DF8030051
:10578000684600F0FAF84FF0FF300290A720ADF81D
:1057900004000020ADF80C00ADF8060001217148AE
:1057A00001F0B2FD01A96F4801F043FD01216D48F0
:1057B00001F0C8FD012211466A4802F0DBF901211F
:1057C000684802F0EBF91FBD10B50121880702F00F
:1057D000E8F948B10121880702F0F4F901218807AE
:1057E00002F0DCF900BF00BF10BD10B501215B481D
:1057F00002F0D7F938B10121584802F0E3F901214C
:10580000564802F0CBF910BD10B50121544802F002
:10581000C8F948B10121524802F0D4F90121504899
:1058200002F0BCF900BF00BF10BD10B501214D480A
:1058300002F0B7F948B101214A4802F0C3F9012149
:10584000484802F0ABF900BF00BF10BD1FB50121F1
:10585000102001F036FB36208DF8000003208DF873
:10586000010002208DF8020001208DF80300684637
:1058700000F083F85320ADF804000020ADF80600D6
:10588000ADF80C0040F2E730029001A9364801F073
:10589000D0FC0121344801F055FD01221146324867
:1058A00002F068F90121304802F078F91FBD1FB5F8
:1058B0000121102001F005FB37208DF800000320A6
:1058C0008DF8010002208DF8020001208DF8030000
:1058D000684600F052F85320ADF804000020ADF8FF
:1058E0000600ADF80C0040F2E730029001A91F4815
:1058F00001F09FFC01211D4801F024FD0122114609
:105900001A4802F037F90121184802F047F91FBD83
:1059100010B50121144802F044F958B10121124890
:1059200002F050F90121104802F038F900BFFAF7EF
:1059300095FD00BF10BD10B501210C4802F031F9F2
:1059400048B10121094802F03DF90121074802F060
:1059500025F900BF00BF10BD000401400004004055
:1059600000080040000C00400010004000140040FF
:1059700032490143324A1160704770B5002100235B
:105980000F22C4781CB32E4C246804F4E064C4F5E0
:10599000E064C4F30721C1F10404E3B20A4144788E
:1059A0009C40E1B28478144021430C07210E254C21
:1059B00005786155047804F01F050124AC40057892
:1059C0006D11AD0005F1E025C5F8004109E004784E
:1059D00004F01F050124AC401B4D0678761145F8F4
:1059E000264070BD194A0A400243154B1B1F1A601E
:1059F000704739B1124A121D12680243104B1B1D29
:105A00001A6006E00E4A121D126882430C4B1B1DE1
:105A10001A607047042808D14FF0E021096941F06D
:105A200004014FF0E022116107E04FF0E021096925
:105A300021F004014FF0E022116170470000FA05E7
:105A40000CED00E000E400E080E100E080FFFF1FDB
:105A500010B50446FE48844209D10121480601F0F0
:105A600085FA00214FF0007001F080FA08E0012172
:105A7000880601F07BFA00214FF0806001F076FA91
:105A800010BD30B5024600200023146824F0020443
:105A90001460146844F00104146000E05B1C546856
:105AA00004F001041CB94FF6FF74A342F6D1546808
:105AB00004F001040CB900206CE08C79012C04D1B5
:105AC000146844F08004146003E0146824F0800437
:105AD0001460CC79012C04D1146844F040041460A3
