:020000040800F2
:10000000E847002091AC0008A9020008AB020008F4
:10001000AF020008B3020008B702000800000000A9
:10002000000000000000000000000000BB0200080B
:10003000BD02000800000000BF020008C102000865
:10004000ABAC0008ABAC0008ABAC0008ABAC000834
:10005000ABAC0008ABAC0008ABAC0008ABAC000824
:10006000ABAC0008ABAC0008ABAC0008ABAC000814
:10007000ABAC0008ABAC0008ABAC0008F37A0008EE
:10008000ABAC0008ABAC0008ABAC0008CF7000080C
:10009000E5700008ABAC0008ABAC0008ABAC0008E6
:1000A000ABAC0008ABAC0008ABAC0008ABAC0008D4
:1000B000ABAC0008ABAC0008ABAC0008ABAC0008C4
:1000C000ABAC0008ABAC0008ABAC0008ABAC0008B4
:1000D000ABAC000853740008897600087D780008EE
:1000E000ABAC0008ABAC0008ABAC0008ABAC000894
:1000F000ABAC0008ABAC0008ABAC0008ABAC000884
:10010000ABAC0008ABAC0008ABAC0008ABAC000873
:100110007B7A0008997D000833810008ABAC0008A9
:10012000ABAC0008ABAC0008ABAC0008ABAC000853
:10013000ABAC0008ABAC0008ABAC00081F72000809
:1001400035720008ABAC0008ABAC0008ABAC0008E3
:10015000ABAC0008ABAC0008ABAC00086F8000088B
:10016000ABAC0008ABAC0008ABAC0008ABAC000813
:10017000ABAC0008ABAC0008ABAC0008ABAC000803
:10018000ABAC0008ABAC000800F002F800F069F876
:100190000AA090E8000C82448344AAF10107DA45E2
:1001A00001D100F05EF8AFF2090EBAE80F0013F0CB
:1001B000010F18BFFB1A43F001031847D04E01008E
:1001C000F04E01000A444FF0000C10F8013B13F010
:1001D000070408BF10F8014B1D1108BF10F8015BA0
:1001E000641E05D010F8016B641E01F8016BF9D193
:1001F00013F0080F1EBF10F8014BAD1C0C1B09D1EA
:100200006D1E58BF01F801CBFAD505E014F8016B5B
:1002100001F8016B6D1EF9D59142D6D370470000ED
:100220000023002400250026103A28BF78C1FBD8FF
:10023000520728BF30C148BF0B607047662914F0D1
:10024000BC83002070471FB514F007FB10F0D6FFE9
:1002500004000020002113F0B7FBE0601FBD10B5C3
:1002600010BD11F0CCF81146FFF7EDFF00F008F8D3
:1002700011F0EAF803B4FFF7F2FF03BC10F0B4FF8B
:1002800000F028F900F0BAFA06E004484068044992
:10029000B0FBF1F003490860F7E70000001000E050
:1002A0004090020000000020704700BFFEE700BF42
:1002B000FEE700BFFEE700BFFEE7704770477047EC
:1002C000704700000CB5002001900090764800684F
:1002D00040F480307449086000BF7348006800F43F
:1002E000003000900198401C0190009818B90198C6
:1002F000B0F5A06FF1D16C48006800F4003010B187
:100300000120009001E0002000900098012846D1D3
:1003100065484030006840F08050634940310860D3
:100320006248006840F44040604908605E48083018
:1003300000685D49083108600846006840F40040E4
:1003400008600846006840F4A05008605848091F3B
:100350000860081F006840F08070091F086000BF37
:100360005148006800F000700028F9D040F2057094
:10037000504908604C480830006820F003004A49A2
:10038000083108600846006840F00200086000BFBD
:1003900045480830006800F00C000828F8D10CBD72
:1003A00010B54548006840F47000434908603E4875
:1003B000006840F001003C49086000203A490831DB
:1003C0000860394800683D490840374908603C48A2
:1003D000091D0860081F006820F48020091F0860BC
:1003E000002031490C310860FFF76CFF4FF00060CE
:1003F00031498039086010BD70B500200022022309
:1004000000240221284D08352D6805F00C0020B18C
:10041000042806D0082834D107E02A4D2A4E35603A
:1004200033E02A4D284E35602FE01F4D2D1D2D68DD
:10043000C5F380541C4D2D1D2D6805F03F0154B1AE
:10044000224DB5FBF1F5184E361D3668C6F38816F9
:1004500005FB06F209E01B4DB5FBF1F5124E361D0A
:100460003668C6F3881605FB06F20F4D2D1D2D6864
:10047000C5F301456D1C6B00B2FBF3F5124E356000
:1004800003E0104D104E356000BF00BF064D08352B
:100490002D68C5F303150E4E705D0B4D2D68C540DC
:1004A000094E356070BD0000003802400070004009
:1004B00008544007003C024088ED00E0FFFFF6FED4
:1004C000103000240024F4000400002000127A0000
:1004D0000800002010B54FF4A06007F0A9FF4D48B8
:1004E00006F022FF4FF4E13007F013F84FF46120DB
:1004F00007F03AF94FF4E13007F0E8F94FF4E13052
:1005000007F02BFB07F014FD06F0B6FEA82007F05D
:1005100025FE002303220821104606F065FD002376
:1005200003220821104606F0F8FD07F0D1FD10BDAA
:1005300010B52DED088BB0EE409AF0EE609AB0EE5B
:10054000418A9FED351BB0EE490AF0EE690A11F0C1
:1005500041FEB0EE40AAF0EE60AA51EC1A0B13F087
:1005600055FA08EE100AB5EEC08AF1EE10FA11D273
:1005700018EE100A14F000F941EC1B0B9FED260B4E
:1005800053EC102B13F074FA41EC1A0B13F03EFAF3
:1005900008EE100AB0EE480ABDEC088B10BD10B58D
:1005A0002DED088BB0EE409AF0EE609AF0EE418AA5
:1005B000B0EE481AB0EE490AF0EE690AFFF7B8FF4C
:1005C000B0EE408A18EE100A14F0D6F841EC1A0B7F
:1005D0009FED130B53EC102B13F0D6FE12D218EE36
:1005E000100A14F0C9F841EC1B0B9FED0B0B53ECF8
:1005F000102B13F0D7FF41EC1A0B13F007FA08EE9B
:10060000900A01E0F0EE488AB0EE680ABDEC088B73
:1006100010BD0000A08601000000000000807640B0
:10062000000000000080664010B58AB0774800687E
:10063000401C7649086076497648D0ED000A764835
:1006400090ED000A754802F03AF870490868C11741
:1006500000EB91718910A0EB810101293DD1704817
:10066000C07B704991F838106E4A92F84320C2F36B
:1006700040026C4B93F84130CDE90632CDE90810C9
:100680006848B0F84C10806C00EE100ABDEEC00A4D
:1006900010EE100A00B2624AB2F91420604BB3F9AE
:1006A0001030CDE90232CDE904015D48B0F9120005
:1006B0005D49096C09B25C4CCDE9001094ED121B48
:1006C000B0EE410AF0EE610A554C237BA27B94F810
:1006D0004410564CA07E04F0DBFC4C49086800EB4B
:1006E000D0714910A0EB410119B903F01AF803F0D9
:1006F000D9F846480068032190FBF1F201FB120093
:1007000018B901F061FC03F0E3FD404800680521E1
:1007100090FBF1F201FB1200D8B9454A1178454A25
:1007200092ED1C2AF0EE421A3E4A92F83700424AF5
:1007300092ED022AB0EE421A92ED002AB1EE422A60
:10074000F0EE420A92ED012AB0EE420A3B4A06F070
:10075000E4FB2E480068642190FBF1F201FB1200DB
:10076000012801D104F06BFD284800684FF47A712C
:1007700090FBF1F201FB1200B0F5FA7F03D10121E9
:100780002F4808F093FE214800684FF47A7190FBDF
:10079000F1F201FB120018B90121294808F088FE86
:1007A0001A4800684FF4FA6190FBF1F201FB120065
:1007B00010BB2448807A642804D10221204808F024
:1007C00075FE19E01F48807A422804D102211C4896
:1007D00008F06EFE10E00221194808F067FE0B4891
:1007E00000684FF47A6190FBF1F201FB120018B936
:1007F0000221134808F05CFE0AB010BD10B500F0ED
:1008000023F802F07FF802F0DDFF10BD1800002091
:10081000102F0020500000204C000020AC000020D1
:10082000D40B0020C42D002050280020802E002052
:1008300080040020F002002090230020883A00204D
:10084000000802408434002010B540F25471FE4884
:1008500010F027FA9FEDFD1ADFEDFC0A9FEDFC0A70
:100860000A234FF416720321FA4803F08EFCB2EE0D
:10087000001ADFEDF90AB3EE020A04234FF4FA720C
:100880000321F148803003F080FC9FEDF41ADFED86
:10089000F40A9FEDF40A44F6206346F67812032129
:1008A000F14803F072FCB2EE001ADFEDF00AB2EE8E
:1008B000030A04234FF4FA720321E348343003F0AF
:1008C00064FC9FEDEB1ADFEDEB0A9FEDEB0A42F2C1
:1008D000107347F248120321E3484C3803F055FCEB
:1008E0009FEDDA1ADFEDD90AB2EE040A0823C82216
:1008F0000321DD48983003F048FC9FEDD41ADFED6A
:10090000D80A9FEDDE0A4FF4FA6346F2A8120321DB
:10091000DB4803F03AFCB1EE041ADFEDCC0AB2EE8C
:10092000040A08234FF482720321CF484C3003F0AD
:100930002CFC9FEDC61ADFEDC80A9FEDCF0A40F6EA
:10094000B83347F248120321CD484C3803F01DFC60
:100950009FEDC71ADFEDC00AB2EE0E0A0A23C822C5
:100960000321C84803F011FC9FEDB81ADFEDBC0A63
:100970009FEDBC0A46F2A81346F678120321C1483F
:100980004C3003F002FC9FEDB11ADFEDBF0A9FED82
:10099000BF0A102396220321BA484C3803F0F5FB16
:1009A0009FEDAA1ADFEDB30A9FEDB30A47F2684341
:1009B0001A460321B348983003F0E7FB9FEDAC1AC9
:1009C000DFEDB10AB3EE010A0F23C8220321AC48C0
:1009D000983003F0DAFB9FED9D1ADFEDAB0A9FED37
:1009E000AC0A4FF4FA6346F2A8120321A94803F0B7
:1009F000CCFBB1EE041ADFEDA80AB2EE0B0A082315
:100A00004FF4827203219E484C3003F0BEFB9FEDF1
:100A10008F1ADFED8E0A9FEDA10A40F6B83347F238
:100A2000481203219B484C3803F0AFFBB1EE041A87
:100A3000DFED9B0AB2EE080A1423462203219548F3
:100A4000983003F0A2FB9FED811AF1EE0C0A9FEDA6
:100A5000950A44F6206346F2A81203218948E43837
:100A600003F093FBB2EE041ADFED8D0AB3EE040A35
:100A700014233C22032187484C3003F086FB9FED72
:100A8000741AF1EE000A9FED880A46F2A8131A467E
:100A900003217C48983803F078FBB1EE041ADFEDAF
:100AA000800AB3EE020A0A23C82203217F4803F01A
:100AB0006CFB9FED661AF2EE000A9FED6A0A46F2A1
:100AC000A81346F67812032178484C3003F05DFBFA
:100AD0009FED5E1ADFED720AB2EE0E0A04234FF4A8
:100AE0008272032171484C3803F04FFB9FED571A77
:100AF000F2EE000A9FED600A41F2883346F2A81236
:100B000003216A48983003F040FB10BD2DE9F04105
:100B10002DED108B92B0B0EE408A4FF01C08644867
:100B200090ED000ADFED630A20EE200A10EE101AA5
:100B3000084613F021FE41EC1B0BB0EE4B0AF0EE21
:100B40006B0A11F0D9FAB0EE40AAF0EE60AA53ECAD
:100B50001A2B9FED590B51EC100B13F045F841EC9B
:100B6000190B12F053FF0546284613F005FE41EC21
:100B70001D0BB0EE4D1AF0EE6D1A9FED510B11F0FA
:100B8000BBF9B0EE40CAF0EE60CA9FED4F0B53ECDC
:100B9000102B51EC1C0B13F051FA41EC1A0B18EE10
:100BA000100A13F0E9FD41EC1B0B53EC1A2B12F069
:100BB0005FFF41EC190B12F029FF0E90284613F04D
:100BC000DBFD41EC1A0B9FED3B0A28EE000A10EE0C
:100BD000101A084613F0D0FD41EC1C0BB0EE4C0A85
:100BE000F0EE6C0A11F088FAB0EE40BAF0EE60BA9E
:100BF00053EC1A2B51EC1B0B13F020FA41EC190BA0
:100C000012F004FF0FEE100A284613F0B5FD41EC78
:100C10001A0B9FED280A28EE000A10EE101A08465B
:100C200013F0AAFD41EC1C0BB0EE4C0AF0EE6C0A7E
:100C300012F07AF9B0EE40BAF0EE60BA53EC1A2B2B
:100C400051EC1B0B44E00000800400200000000079
:100C500000004843401B00200AD7233C000070429C
:100C60006F12833A00001643980500209A99193EA6
:100C700000002042CDCC4C3F0000964300002043B2
:100C8000C8060020C0090020CDCCCC3D9A99D9409F
:100C900000003443F807002017B7D1380000F043B4
:100CA000CDCC4C3E0000AF430000E143F00A0020F1
:100CB0009023002035FA8E3C9A99999999991B4076
:100CC000000000205C8F134000000020DCA54C4099
:100CD00013F0B4F941EC190B12F098FE064618FB1C
:100CE00008F000EE100AB8EEC00AF0EE408A2FEECF
:100CF0000F0A10EE104A18EE900A13F03DFDCDE9F0
:100D00000801304613F038FD41EC1B0BB0EE000A31
:100D100028EE800A10EE101A084613F02DFD41EC63
:100D20001D0B204613F028FD9FEDFE0B53EC102BFE
:100D3000CDE900019DED000B51EC100B13F07EF995
:100D400041EC1E0B53EC1D2B12F04EFF41EC1C0B23
:100D500053EC1B2B12F08CFECDE90401204613F05E
:100D60000BFD41EC1B0B9FEDF10B53EC102B13F023
:100D700065F9CDE902019DED040B53EC102B9DEDBF
:100D8000020B51EC100B13F059F9CDE906019DED62
:100D9000080B53EC102B9DED060B51EC100B12F0D1
:100DA00023FFCDE90C01204613F0E6FCCDE90A0152
:100DB0009DED0C0B53EC102B9DED0A0B51EC100B21
:100DC00013F0F0FB41EC1A0BB0EE4A0AF0EE6A0A9F
:100DD00012F00EF9B0EE409AF0EE609A51EC190B59
:100DE00012F014FE0FEE900A204613F0C5FC41EC01
:100DF0001A0B9FEDCC0B53EC102B13F01FF941ECA9
:100E0000190B12F003FE11903FEE6F0A60EE280AF4
:100E10009DED110A80EE801A11EE107A384613F01B
:100E2000ABFC41EC1A0BB0EE4A0AF0EE6A0A10F085
:100E3000F7FEB0EE409AF0EE609A51EC190B12F00A
:100E4000E5FD10909DED100ADFEDBA0A20EE200AB4
:100E50008DED0F0A9DED0F0A12B0BDEC108BBDE8B1
:100E6000F08110B52DED088B0020B34981F83200D8
:100E7000B248007870B9B24890ED000AB14880EDF0
:100E8000000AAF4890ED010AAF4880ED000A01204A
:100E9000AA490870AA4890ED000AA74880ED040A04
:100EA000A74890ED010AA44880ED030AA44890EDFC
:100EB000030AA14880ED080AA14890ED040A9E4863
:100EC00080ED070AA148C07B48B1A04890ED040A14
:100ED000F7EE000A30EE200A80ED040A04E01FED70
:100EE000A50A9A4880ED040A984890ED040AF7EEA6
:100EF000000AB4EEE00AF1EE10FA7CD20120944927
:100F000008709248B0F9080000EE100AB8EEC00A66
:100F10009048D0ED000AB4EE600AF1EE10FA6BD101
:100F20008A48B0F90A0000EE100AB8EEC00A8A48F2
:100F3000D0ED000AB4EE600AF1EE10FA74D18349E4
:100F4000B1F9080013F013F841EC1B0B9FED830B74
:100F500053EC102B13F072F841EC1A0B9FED811B30
:100F6000B0EE4A0AF0EE6A0A10F0C6FFB0EE409A00
:100F7000F0EE609A1FEDAC0B53EC102B51EC190BFB
:100F800013F05CF841EC180B12F040FD7749086053
:100F90006E49B1F90A0012F0EAFF41EC1B0B9FED1C
:100FA0006F0B53EC102B13F049F841EC1A0B9FED2B
:100FB0006D1BB0EE4A0AF0EE6A0A10F09DFFB0EE2B
:100FC000409AF0EE609A1FEDC00B53EC102B51ECE1
:100FD000190B13F033F841EC180B12F017FD6449AC
:100FE00008605A4890ED000A6048D0ED000A30EEE3
:100FF000200A604801E045E016E0D0ED000A30EE3E
:10100000200A5D4880ED000A504890ED010A08462C
:10101000D0ED000A30EE200A5848D0ED000A30EE3C
:10102000200A574880ED000A4848B0F9080000EE51
:10103000100AB8EEC00A474880ED000A4348B0F9EC
:101040000A0000EE100AB8EEC00A434880ED000A1C
:101050004C48407DB0B1484890ED000AB1EE400ADE
:10106000354880ED010A464890ED000AFFF74EFD35
:10107000B1EE400A4148D0ED000A30EE200A2E4879
:1010800080ED020A2C4890ED020AFBEE090AB4EE4C
:10109000E00AF1EE10FA04D8BBEE090A80ED020A6C
:1010A0000DE0254890ED020AF3EE010AB4EEE00AE5
:1010B000F1EE10FA03DBB3EE010A80ED020A2448D8
:1010C000007858B9204890ED000A1B4880ED010ACD
:1010D0001C4890ED000A184880ED020A1648D0ED31
:1010E000071AB0EE611AD0ED031AF0EE610AD0EDE6
:1010F000011AB0EE610ADFED241A00F1140200F5C6
:10110000E16100F2246003F07EF8FFEE000A20EEB9
:10111000200ABDEEC00A10EE100A01B20648818412
:1011200034E000009A999999999923409A9999994C
:1011300099993340E12E6542800400205C00002034
:10114000902300204400002048000020E82E0020CA
:101150005D0000205400002058000020000000E046
:10116000EF50743F000000000000204060000020AD
:1011700064000020340000204C00002038000020D3
:1011800050000020802E002000000000D0ED081A42
:10119000B0EE611AD0ED041AF0EE610AD0ED021A39
:1011A000B0EE610A5FED081A00F1180200F2BC61AE
:1011B00000F5CE6003F027F8F7EE000A20EE200AD3
:1011C000BDEEC00A10EE100A01B2FE48C184BDECAB
:1011D000088B10BD10B52DED088B0020F94981F862
:1011E0003200F948007870B9F84890ED000AF848E4
:1011F00080ED000AF54890ED010AF64880ED000AFE
:101200000120F1490870F14890ED000AED4880EDA9
:10121000040AEE4890ED010AEA4880ED030AEB4823
:1012200090ED030AE74880ED080AE84890ED040ACB
:10123000E44880ED070AE848C07B48B1E64890EDF5
:10124000040AF7EE000A30EE200A80ED040A04E0FA
:101250001FED330AE04880ED040ADF4890ED040AF0
:10126000F7EE000AB4EEE00AF1EE10FA7ED20120A9
:10127000DA490870D848B0F9080000EE100AB8EE54
:10128000C00AD748D0ED000AB4EE600AF1EE10FAB9
:101290006DD1D148B0F90A0000EE100AB8EEC00ACC
:1012A000D048D0ED000AB4EE600AF1EE10FA5ED13B
:1012B000C949B1F9080012F05AFE41EC1B0B1FEDB1
:1012C000590B53EC102B12F0B9FE41EC1A0B1FED29
:1012D0005B1BB0EE4A0AF0EE6A0A10F00DFEB0EEAB
:1012E000409AF0EE609A9FEDC00B53EC102B51EC3E
:1012F000190B12F0A3FE41EC180B12F087FBBC494E
:101300000860B549B1F90A0012F031FE41EC1B0B3F
:101310001FED6E0B53EC102B12F090FE41EC1A0BEC
:101320001FED701BB0EE4A0AF0EE6A0A10F0E4FD01
:10133000B0EE409AF0EE609A9FEDAB0B53EC102BA1
:1013400051EC190B12F07AFE41EC180B12F05EFB17
:10135000A8490860A04890ED000AA548D0ED000A11
:1013600030EE200AA448D0ED000A01E049E034E064
:1013700030EE200AA14880ED000A974890ED010A5E
:101380000846D0ED000A30EE200A9D48D0ED000A54
:1013900030EE200A9B4880ED000A9B48407D98B1C2
:1013A000964890ED000A874880ED010A954890ED37
:1013B000000AFFF7ABFB9248D0ED000A30EE200A9E
:1013C000804880ED020A08E07E4890ED0A0A80ED30
:1013D000020A90ED0B0A80ED010A7F48B0F908007F
:1013E00000EE100AB8EEC00A7D4880ED000A7A4887
:1013F000B0F90A0000EE100AB8EEC00A794880ED94
:10140000000A704890ED020AFBEE090AB4EEE00A09
:10141000F1EE10FA04D8BBEE090A80ED020A0DE0E5
:10142000684890ED020AF3EE010AB4EEE00AF1EE2C
:1014300010FA03DBB3EE010A80ED020A6748007878
:1014400058B9644890ED000A5E4880ED010A604892
:1014500090ED000A5B4880ED020A5A48D0ED071A69
:10146000B0EE611AD0ED031AF0EE610AD0ED011A68
:10147000B0EE610A5FEDBC1A00F1140200F595614F
:1014800000F5717002F0BFFEFFEE000A20EE200AA8
:10149000BDEEC00A10EE100A01B24A488184D0EDB8
:1014A000081AB0EE611AD0ED041AF0EE610AD0ED20
:1014B000021AB0EE610A5FEDCC1A00F1180200F2D8
:1014C0005C4100F5826002F09EFEF7EE000A20EE1D
:1014D000200ABDEEC00A10EE100A01B23948C184DC
:1014E000BDEC088B10BD10B52DED0A8BB0EE409A07
:1014F000F0EE609AB0EE418A9FED440B53EC102B56
:1015000051EC190B12F09AFD41EC1C0B9FED410BB5
:1015100053EC102B12F092FD41EC1B0B9FED3F1B87
:10152000B0EE4B0AF0EE6B0A10F054FEB0EE40AA9B
:10153000F0EE60AA51EC1A0B12F068FA08EE100AED
:10154000B5EEC08AF1EE10FA05D29FED360A38EEFC
:10155000000AB0EE408A18EE100A13F00DF941ECC3
:10156000100BBDEC0A8B10BD10B52DED108B84B0A7
:101570002D4890ED121BB0EE410AF0EE610A2B48A7
:1015800090ED001AFFF7AFFFB0EE408AF0EE608AF0
:1015900051EC180B12F03AFA24490860084690ED15
:1015A000000ADFED230AB4EEE00AF1EE10FA43DBA5
:1015B00090ED000ADFED1B0A30EE600A1D4880ED59
:1015C000000A3FE0800400205C00002090230020FF
:1015D0004400002048000020E82E00205D0000208C
:1015E000540000205800002000000020DCA54C40E2
:1015F0006000002064000020340000204C00002027
:101600003800002050000020802E00200000000044
:101610000000F0BF000000A046DF913F0000006026
:10162000FB211940DB0FC94050280020900000200A
:10163000DB0F494094000020FE4890ED000AFE4870
:1016400080ED000A9FEDFD1ADFEDFD0AFA4890EDEE
:10165000000AFC4802F035FCB1EE400AFA4880ED81
:10166000000AFA4890ED5E0AF94880ED000AF94850
:1016700080ED000AF648006813F07EF841EC190B83
:10168000B0EE490AF0EE690A10F09AFDB0EE408A19
:10169000F0EE608A9FEDF00B53EC102B51EC180B21
:1016A00012F072FE29D2EA48006813F065F841ECA6
:1016B000190BE748006813F05FF841EC1C0BB0EE23
:1016C0004C0AF0EE6C0A10F07BFDB0EE40BAF0EE82
:1016D00060BA9FEDE10B53EC102B51EC1B0B12F099
:1016E000ADFC41EC1A0B53EC192B12F07DFA41ECD6
:1016F000180B12F08BF9D6490860D648006813F031
:101700003BF841EC190BB0EE490AF0EE690A10F013
:1017100057FDB0EE408AF0EE608A9FEDD10B53EC9E
:10172000102B51EC180B12F02FFE29D2C94800687B
:1017300013F022F841EC190BC648006813F01CF8AE
:1017400041EC1C0BB0EE4C0AF0EE6C0A10F038FDC8
:10175000B0EE40BAF0EE60BA9FEDC10B53EC102B27
:1017600051EC1B0B12F06AFC41EC1A0B53EC192BD9
:1017700012F03AFA41EC180B12F048F9B54908603A
:10178000B34890ED000AB5EEC00AF1EE10FA21D090
:10179000006812F0F1FF41EC190BAD48006812F03F
:1017A000EBFF41EC1B0BB0EE4B0AF0EE6B0A10F0B6
:1017B00007FDB0EE40AAF0EE60AA53EC192B51ECF5
:1017C0001A0B12F011FA41EC180B12F01FF9A6498E
:1017D000086004E0B7EE000AA34880ED000A9B48C9
:1017E000407803280BD0A14890ED010A974880ED7E
:1017F0000B0A9E4890ED000A944880ED0A0A93482F
:1018000090F8320001287DD19948807A002879D05B
:101810009848C07C002876D0944890ED000A10EEDD
:10182000101A084612F0A8FF41EC190BB0EE481A46
:10183000B0EE490AF0EE690AFEF7B1FEB0EE408A5A
:101840008A4890ED010A10EE101A084612F094FF33
:1018500041EC190BB0EE681AB0EE490AF0EE690AD5
:10186000FEF79DFEF0EE408A784880ED048AC0EDD8
:10187000038A90ED010AD0ED030A30EE600A10EE03
:10188000101A084612F078FF41EC1A0BB0EE4A0A23
:10189000F0EE6A0A10F094FCB0EE409AF0EE609A16
:1018A0009FED750B53EC102B51EC190B12F08AFBCA
:1018B00004D20120654981F8310003E0002063492A
:1018C00081F83100694890ED030A604880ED080A0C
:1018D000664890ED040A5D4880ED070A6448D0F838
:1018E000050000EE100AB5EEC00AF1EE10FA11D0B4
:1018F0005F48D0F8010000EE100AB5EEC00AF1EE24
:1019000010FA01E021E179E004D05948D0F8010053
:101910005B4908605648D0F8010000EE100AB1EEAD
:10192000400A5848D0ED000A30EE200A474880EDC2
:10193000020A534890ED000A5348D0ED000A30EEF9
:10194000200A424880ED010A90ED010AD0ED030A19
:1019500030EE600A10EE101A084612F00DFF41EC4E
:10196000190B9FED4A0B53EC102B12F00DFD09D211
:10197000364890ED010ADFED470A30EE600A80ED4F
:10198000010A1DE0314890ED010AD0ED030A30EE66
:10199000600A10EE101A084612F0EEFE41EC190B28
:1019A0009FED3D0B53EC102B12F00CFB08D2274897
:1019B00090ED010ADFED370A30EE200A80ED010AD2
:1019C000224890ED020AFBEE090AB4EEE00AF1EEBD
:1019D00010FA04D8BBEE090A80ED020A0DE01B489C
:1019E00090ED020AF3EE010AB4EEE00AF1EE10FA0D
:1019F00003DBB3EE010A80ED020A5AE01B4890EDCA
:101A0000000A124880ED040A184890ED010A0F48B8
:101A100080ED030A154890ED030A0C4880ED080A92
:101A2000124890ED040A094880ED070A0F4890ED2E
:101A3000000A35E09000002094000020920A863EC3
:101A400000000000401B00209800002080040020BF
:101A500074000020780000200000000000003E40DC
:101A600000000000000014407C00002090230020B3
:101A700084340020503400200000000000000040AA
:101A800068000020400000203C0000200000000012
:101A9000008066400000B44300000000008066C083
:101AA000FE4880ED020AFE4890ED010AFB4880EDF9
:101AB000010AFA4890ED072AFA48D0ED002A22EEF2
:101AC000222AF0EE421AF54890ED072AB0EE421AAB
:101AD00090ED032AF0EE420A90ED012AB0EE420AA0
:101AE00000F1140200F54B7100F5257002F08BFB3C
:101AF000FFEE000A20EE200ABDEEC00A10EE100A2A
:101B000001B2E6488184D0ED081AB0EE611AD0ED3A
:101B1000041AF0EE610AD0ED021AB0EE610A5FED30
:101B2000381A00F1180200F55E7100F5387002F005
:101B30006AFBF7EE000A20EE200ABDEEC00A10EEA6
:101B4000100A01B2D548C184F6E0D54890ED000AEC
:101B5000D24880ED040AD24890ED010ACF4880EDCA
:101B6000030ACF4890ED030ACC4880ED080ACC4820
:101B700090ED040AC94880ED070A90ED0A0A80ED4D
:101B8000020A90ED0B0A80ED010AC748006D50284B
:101B900003D90021C1488184CEE0C448B0F90C00CB
:101BA00002EE100AB8EEC22AC148D0ED002A22EE99
:101BB000222AC048D0ED002ABF4890ED003A62EEDC
:101BC000832ABE4890ED003A02EE832AF0EE421AD4
:101BD000B24890ED072AB0EE421A90ED032AF0EEDB
:101BE000420A90ED012AB0EE420A00F1140200F51B
:101BF000FE7100F5B27002F006FBFFEE000A20EE67
:101C0000200A10EE104A204612F0B6FD41EC180BE7
:101C1000AB48006812F0B0FD41EC1E0B1FED6A1BD3
:101C2000B0EE4E0AF0EE6E0A10F056FBB0EE40CA6F
:101C3000F0EE60CAA348006812F09EFD41EC1D0B57
:101C400053EC1C2B12F0FAF941EC1A0B9E48006879
:101C500012F092FD41EC1F0B9FED9C1BB0EE4F0A62
:101C6000F0EE6F0A10F038FB8DED000B994800681C
:101C700012F082FD41EC1E0B9DED000B53EC102B7E
:101C800012F0DCF941EC1C0B844890ED070A854802
:101C9000D0ED000A20EE200A10EE101A084612F0CD
:101CA0006BFD41EC1D0B53EC1C2B11F0E1FE41ECE4
:101CB0001B0B53EC1A2B11F0DBFE41EC190B53EC10
:101CC000182B11F0D5FECDE902019DED020B51EC70
:101CD000100B12F01DF901B2704881847348B0F9FD
:101CE0000E0002EE100AB8EEC22A7B48D0ED002AA0
:101CF00022EE222AF0EE421A684890ED082AB0EE51
:101D0000421A90ED042AF0EE420A90ED022AB0EE5B
:101D1000420A00F1180200F5127100F5D87002F0C5
:101D200072FAF7EE000A20EE200ABDEEC00A10EEAD
:101D3000100A01B25948C18404B0BDEC108B10BD2B
:101D400010B52DED048B00206449087064490870BB
:101D500000BF1FEDC50A514880ED020A504890EDC2
:101D6000000A4E4880ED040A1FEDCB0A80ED010AFF
:101D70004D4890ED121BB0EE410AF0EE610A51ECB5
:101D8000100B11F037FE11F041FE4449C860444881
:101D900090ED040A084680ED070A414890ED030AD9
:101DA000084680ED080A90ED030A5FEDC60A80EE52
:101DB000201ABDEEC10A10EE104A4FF4B47104FBB4
:101DC00001F000EE100AB8EEC00A344880ED010AB6
:101DD00090ED010AD0ED030A30EE600ADFED410A12
:101DE000B4EEE00AF1EE10FA08DB90ED010A5FEDC7
:101DF000D70A30EE600A80ED010A15E0274890ED21
:101E0000010AD0ED030A30EE600ADFED370AB4EEC6
:101E1000E00AF1EE10FA07D290ED010A5FEDE30A55
:101E200030EE200A80ED010A1C48D0ED071AB0EE12
:101E3000611AD0ED031AF0EE610AD0ED011AB0EE8E
:101E4000610ADFED2A1A00F1140200F1CC013430EE
:101E500002F0D9F9FFEE000A20EE200ABDEEC00A1A
:101E600010EE100A01B20D488184D0ED081AB0EED0
:101E7000611AD0ED041AF0EE610AD0ED021AB0EE4C
:101E8000610ADFED1A1A00F1180200F58C7180303A
:101E900002F0B9F9F7EE000A2AE000008004002001
:101EA000902300208400002050280020802E002055
:101EB0006C0000208C000020980000207C00002096
:101EC0007400002080000020780000200000000046
:101ED0000000084088000020700000205C00002006
:101EE0005D00002000003543000033C30000000007
:101EF00020EE200ABDEEC00A10EE100A01B25948C9
:101F0000C18490ED020AD0ED040A30EE600A10EEB2
:101F1000101A084612F030FC41EC190BB0EE490AD9
:101F2000F0EE690A10F04CF9B0EE408AF0EE608AEB
:101F30009FED4D0B53EC102B51EC180B12F042F8A7
:101F40003FD8484890ED010AD0ED030A30EE600A10
:101F500010EE101A084612F00FFC41EC190BB0EE0F
:101F6000490AF0EE690A10F02BF9B0EE408AF0EE63
:101F7000608A9FED3F0B53EC102B51EC180B12F0C5
:101F800021F81ED80120374981F830003A4890EDF9
:101F9000000A3A4880ED000A90ED000A3848D0ED7A
:101FA000000A30EE200A374880ED000A334890EDF1
:101FB000000A3548D0ED000A30EE200A334880EDA3
:101FC000000ABDEC048B10BD10B52648007803282C
:101FD00016D003DC38B101281BD10EE00B2812D03B
:101FE0000C2816D112E024211E48001D0EF059FEC7
:101FF00000201C4981F830000CE0FFF7A1FE09E049
:10200000FFF7B2FA06E0FFF7E5F803E0FEF729FF75
:1020100000E000BF00BF134890ED020A1B48D0ED5E
:10202000000AB4EEE00AF1EE10FA05D890ED000ACD
:102030000C4880ED020A0FE00A4890ED020A1148B0
:10204000D0ED000AB4EEE00AF1EE10FA04DB90EDF8
:10205000000A044880ED020A0248007801494870ED
:1020600010BD0000800400200000000000001040AF
:10207000000000000000F83F90230020280000200E
:1020800030000020240000202C0000202000002030
:1020900010B52DED088BF7480078F7490870F74820
:1020A000807EF449087008460078F3490978884230
:1020B00006D00020F24908704870F249087348734E
:1020C000EE48807E012804D002287DD003287CD1F0
:1020D000BFE0EB480078012811D0E8484088A0F51F
:1020E000806000EB400000B2E6490882E3480088C7
:1020F000A0F5806000EB400001B2E2484182E04878
:102100000078032857D1DD49B1F90610A1F58060A8
:1021100011F02DFF41EC1B0B9FEDDB0B53EC102B53
:1021200011F08CFF41EC190BD54890ED0A0A10EE26
:10213000101A084612F020FB41EC1A0B53EC192B35
:1021400012F030FA41EC180B11F060FCCC498862B7
:10215000084690ED0B0AC948B0F90400A0F580606C
:1021600000EE900AF8EEE00A9FEDC91A00EE810A2F
:10217000084680ED0B0A90ED0A0AC648D0ED000A29
:10218000B4EEE00AF1EE10FA05D890ED000A084628
:1021900080ED0A0A0FE0BA4890ED0A0ABE48D0ED79
:1021A000000AB4EEE00AF1EE10FA04DB90ED000A4A
:1021B000B34880ED0A0AB248007801280AD0B04836
:1021C00000780C2806D001E0D8E1DDE1AC480078C9
:1021D0000B2802D10120AB490873A94800780128D7
:1021E00009D0A648807E022805D0A548407810B9BD
:1021F0000320A3490870A248407840B9A04800785D
:1022000028B101209E490870002081F830009C48C8
:102210000078032803D101209A4981F844009848A6
:1022200090F83000012813D1032095490870934895
:10223000807F38B107209349087340F226219148E6
:10224000818205E003208F49087300218D48818237
:102250009BE18B480078012870D0884890F82D00C9
:1022600038B10320874988734FF496608B49088002
:1022700006E00220834988734FF4FA70874908808A
:102280007E4890F8290028B18448B0F900007D49C3
:1022900008820DE0794890F82B0030B17F48008823
:1022A000404200B27749088202E000207549088266
:1022B000724890F82A00A8B17248807B03280AD19E
:1022C0007649B1F90010484200EBD07149100AB2CA
:1022D0006C494A8220E071480088404201B2694856
:1022E000418219E0654890F82C0090B16548807BE8
:1022F000032808D16949B1F9000000EBD0714910F9
:10230000604A518208E06548B0F900105D4841829A
:1023100002E000215B4841825948007803286AD1D5
:102320005648407D50B95548B0F90C0010F1640F83
:1023300005DC6FF063005149888108E05BE04F489D
:10234000B0F90C00642802DB64204C4988814B48BA
:10235000B0F90E0010F1640F04DC6FF06301474820
:10236000C18107E04548B0F90E00642802DB642112
:102370004248C181424890ED0B0A4048B0F90C0038
:1023800000EE900AF8EEE00A9FED451A00EE810A91
:102390003B4880ED0B0A90ED0A0A3848B0F90E0070
:1023A00000EE900AF8EEE00A9FED3E1A00EE810A78
:1023B000334880ED0A0A90ED0A0A3648D0ED000A4B
:1023C000B4EEE00AF1EE10FA05D890ED000A2C48C0
:1023D00080ED0A0A0FE02A4890ED0A0A2E48D0ED57
:1023E000000AB4EEE00AF1EE10FA04DB90ED000A08
:1023F000234880ED0A0A22480078012807D02048A7
:1024000000780C2803D01E4800780B2802D1012048
:102410001C4908731A480078012809D01748807EA3
:10242000022805D01648407810B9032014490870D6
:102430001348407840B91248007828B1012010496B
:102440000870002081F830000D480078032803D17F
:1024500001200C4981F84400094890F83000012817
:1024600074D1064890F84700F0B10C200449087078
:1024700027E00000A0000020A1000020802E002006
:1024800080040020D40B0020FCA9F1D24D62803FD3
:102490006F12033C20000020240000209C0000203C
:1024A0008FC2753D0AD7233D474890F8450018B1C3
:1024B0000B204649087004E0032044490870444951
:1024C0000873414890F83F0038B10720404908732D
:1024D00000213D4880F8401030E03D48C07B022894
:1024E00002D101203B4908703A480078012822D1E6
:1024F0003749C8733848006830B9384840683849A7
:10250000B0FBF1F0344908600720314908733348C3
:1025100040683349B0FBF1F02F490968401AB0F523
:10252000FA6F0BD903202A49087300202A49086052
:102530002849087002E00320254908732248407D9D
:1025400028B10120214981F8320004E015E0002083
:102550001E4981F832001C4890F8380010B1002064
:1025600020490870184890F8400018B10120184917
:10257000C87302E000201649C87306E00020134922
:1025800008701349087300E000BF00BF1048007BCB
:102590000F494873BDEC088B10BD012080F31388F0
:1025A00000BF00BFBFF34F8F0F48006800F4E0602A
:1025B0000E490843001D0C490860BFF34F8F00BF50
:1025C00000BF00BFFDE70000802E00208004002037
:1025D000D40B0020AA030020A4000020001000E07B
:1025E00040900200D80300200CED00E00000FA0546
:1025F00010B5044604F168030122042104F110001F
:1026000009F0CCFA04F178030122022104F1380028
:1026100009F0C4FA04F590730422114604F118007D
:1026200009F0BCFA04F1E0030422114604F1200091
:1026300009F0B4FA04F1200104F118000AF00FFFC8
:1026400004F5D0730422114604F1480009F0A6FAFB
:1026500004F5C0730422022104F1280009F09EFA57
:1026600004F5B0730222042104F1300009F096FA57
:1026700004F1300104F128000AF0F1FE04F5F073D2
:102680000222114604F1400009F088FA04F1A00387
:102690000422114604F1500009F080FA04F180038D
:1026A0000222042104F1580009F078FA04F5F873C5
:1026B0000422114604F1600009F070FA10BD30B533
:1026C0002DED028B95B00446B0EE408AF0EE608AA4
:1026D0000D467F48007828B901207D4908707D4863
:1026E000FFF786FF7C4B0422114613A809F056FA27
:1026F0007A4B0422114611A809F050FA784B0222B5
:1027000004210FA809F04AFA764B042202210DA8F1
:1027100009F044FA744B022211460BA809F03EFA64
:10272000724B0222114609A809F038FA704B0122B7
:10273000022107A809F032FA6E4B0122022105A8F6
:1027400009F02CFA6C4B0122042103A809F026FAA7
:102750006A4B0122042101A809F020FAE06B80ED08
:10276000008AE06BC0ED018A03AA04F1100104F1B4
:10277000180009F0AAFF042204F168015E480DF078
:1027800052FC2878002871D013AA04F1500104F1FA
:10279000180009F09AFF11AA04F1200113A809F00A
:1027A00094FF04F1500204F1480111A808F062FFFF
:1027B0000FAA04F1300104F1500009F086FF0DAAC0
:1027C00004F1500104F1280009F07FFF0BAA04F185
:1027D00030010DA809F079FF09AA04F140010BA806
:1027E00008F048FF0BA909A809F0E4F904F1580220
:1027F0000BA90FA809F069FF07AA04F1100104F161
:10280000280009F062FF05AA07A904F138000AF0C0
:10281000D0FD03AA05A904F1580009F056FF01AA4A
:1028200003A904F1100008F025FF042204F1680157
:1028300032480DF0F8FB13AA04F1280104F1580006
:1028400009F043FF11AA13A904F160000AF0B1FDD9
:1028500013AA04F1500111A809F037FF102204F166
:10286000A0011D480DF0DFFB00202870606990ED8D
:10287000000A84ED000A606990ED010A84ED010A06
:10288000606990ED020A84ED020A606990ED030A26
:1028900084ED030A15B0BDEC028B30BD10B50446C3
:1028A0000C48FFF7A5FE9FED160A606980ED000A4F
:1028B0009FED130A606980ED010A9FED110A6069BE
:1028C00080ED020A9FED0E0A606980ED030A10BDDB
:1028D000EC020020AC000020FC0C00208C0C00203E
:1028E0003C0D0020CC0C00205C0D0020EC0C0020E6
:1028F000E4020020DC0200207C0C00206C0D002093
:102900000000000010B5B2EE041ADFEDFE0AB3EECF
:10291000040A4FF47A7341F270720321FA4801F00D
:1029200034FC9FEDFA1ADFEDF90AB3EE0E0A42F21B
:10293000107347F248120321F54801F026FC9FED81
:10294000F31ADFEDF40A9FEDF40A32234FF4FA6232
:102950000321F24801F019FC9FEDEC1ADFEDEB0AC0
:10296000B3EE040A41F27C5342F210720321EC48A8
:1029700001F00BFC9FEDE51ADFEDE40A9FEDE90A9B
:102980004FF4FA7343F68C420321E74801F0FDFB54
:102990009FEDDE1ADFEDDD0A9FEDE20A4FF4FA73D8
:1029A00043F68C420321E0484C3801F0EEFB9FEDEA
:1029B000DF0ADF4880ED050A0120DD4948709FED00
:1029C000DD0A084680ED150A10BDF0EE400AB3EEB0
:1029D0000B0A30EE600AD84880ED000A90ED000A3C
:1029E000B3EE041A20EE010A7047D448B0F83F1045
:1029F000B0F84E00081A0A2190FBF1F000EE100A20
:102A0000B8EEC00ACA4880ED110ACC48B0F83D00C3
:102A1000C749A1F85E00C94890F83800012805D1DF
:102A2000B2EE0C0A084680ED130A67E0C34890F83E
:102A30003800022805D1B3EE000ABD4880ED130A24
:102A40005CE0BE4890F83800032805D1B3EE020AD6
:102A5000B74880ED130A51E0B84890F838000428D0
:102A600005D1B3EE030AB24880ED130A46E0B3483D
:102A700090F83800052805D1B3EE040AAC4880ED83
:102A8000130A3BE0AD4890F83800062805D1B3EEB4
:102A9000050AA74880ED130A30E0A84890F83800EE
:102AA000072805D1B3EE080AA14880ED130A25E0F6
:102AB000A24890F83800082805D1B3EE090A9C48CE
:102AC00080ED130A1AE09D4890F83800092805D1D6
:102AD000B3EE090A964880ED130A0FE0974890F884
:102AE00038000A2805D1B3EE0A0A914880ED130A8E
:102AF00004E0B3EE030A8E4880ED130A704710B568
:102B00002DED0A8BFFF771FF894890ED130AB5EEA2
:102B1000C00AF1EE10FA7CD0884890F838000B28F3
:102B200078D2DFE800F07706356478A7D6EEEDECD2
:102B3000EB007F4890ED130A10EE101A084611F0D2
:102B40001BFE41EC190B7A4890ED110A10EE101A99
:102B5000084611F011FE41EC1C0B9FED790B53EC74
:102B6000102B11F01FFD41EC1B0B9FED770B53EC6D
:102B7000102B11F063FA41EC1A0B53EC192B11F0E6
:102B800033F841EC180B10F041FF69490864D2E1B9
:102B9000674890ED130A10EE101A084611F0ECFD8C
:102BA00041EC190B624890ED110A10EE101A08461C
:102BB00011F0E2FD41EC1C0B9FED610B53EC102B6F
:102BC00011F0F0FC41EC1B0B9FED5F0B53EC102B55
:102BD00011F034FA41EC1A0B53EC192B11F004F8F4
:102BE00041EC180B10F012FF51490864A3E1504862
:102BF00090ED110AF1EE000A30EE600ADFED540AA2
:102C000020EE200AD0ED130A80EE201A80ED101A73
:102C100091E191E17DE1464890ED130A10EE101A22
:102C2000084611F0A9FD41EC190B414890ED110A3D
:102C300010EE101A084611F09FFD41EC1C0B9FEDA1
:102C4000450B53EC102B11F0ADFC41EC1B0B9FED31
:102C50003E0B53EC102B11F0F1F941EC1A0B53EC35
:102C6000192B10F0C1FF41EC180B10F0CFFE3049CA
:102C7000086460E12E4890ED130A10EE101A084621
:102C800011F07AFD41EC190B294890ED110A10EE74
:102C9000101A084611F070FD41EC1C0B9FED2F0B34
:102CA00053EC102B11F07EFC41EC1B0B9FED260B1F
:102CB00053EC102B11F0C2F941EC1A0B53EC192B09
:102CC00010F092FF41EC180B10F0A0FE18490864B8
:102CD00031E1174890ED130A10EE101A084611F072
:102CE0004BFD41EC190B124890ED110A10EE101A31
:102CF000084611F041FD41EC1C0B33E0DAE0AAE09C
:102D00007AE04AE0CDCC4C3E7C0D00200000000073
:102D1000600E00200AD7233C9A997941C80D002003
:102D2000140E002000004842F80E002000007AC473
:102D3000F00200200000A04284030020C42D0020E7
:102D40009A999999999905400000000000408F4098
:102D500000007A44CDCCCCCCCCCC10409A99999937
:102D6000999911409FEDFE0B53EC102B11F01AFCBA
:102D700041EC1B0B1FED0C0B53EC102B11F05EF90B
:102D800041EC1A0B53EC192B10F02EFF41EC180BF1
:102D900010F03CFEF4490864CDE0F34890ED130ACE
:102DA00010EE101A084611F0E7FC41EC190BEE4842
:102DB00090ED110A10EE101A084611F0DDFC41ECFE
:102DC0001C0B9FEDEA0B53EC102B11F0EBFB41ECCD
:102DD0001B0B1FED230B53EC102B11F02FF941ECC3
:102DE0001A0B53EC192B10F0FFFE41EC180B10F0EE
:102DF0000DFEDD4908649EE0DB4890ED130A10EEFD
:102E0000101A084611F0B8FC41EC190BD64890EDA9
:102E1000110A10EE101A084611F0AEFC41EC1C0B22
:102E20009FEDD40B53EC102B11F0BCFB41EC1B0BB2
:102E30001FED3B0B53EC102B11F000F941EC1A0B7A
:102E400053EC192B10F0D0FE41EC180B10F0DEFD06
:102E5000C54908646FE0C44890ED130A10EE101ADB
:102E6000084611F089FC41EC190BBF4890ED110A9E
:102E700010EE101A084611F07FFC41EC1C0B9FED80
:102E8000BF0B53EC102B11F08DFB41EC1B0B1FED16
:102E9000520B53EC102B11F0D1F841EC1A0B53EC00
:102EA000192B10F0A1FE41EC180B10F0AFFDAE494C
:102EB000086440E0AC4890ED130A10EE101A084682
:102EC00011F05AFC41EC1A0BA74890ED110A10EED4
:102ED000101A084611F050FC41EC1C0B9FEDA90B99
:102EE00053EC102B11F05EFB41EC1B0B1FED6A0B3A
:102EF00053EC102B11F0A2F841EC180B53EC1A2BE9
:102F000010F072FE41EC190B10F080FD9649086438
:102F100011E0954890ED110AF1EE000A30EE600ADA
:102F20005FED750A20EE200AD0ED130A80EE201A1C
:102F300080ED101A00BF00BFBDEC0A8B10BD10B5AC
:102F40002DED048B884890F83C00012831D186484B
:102F500090F83A0001282CD183484078012828D1E4
:102F60008A480068401C894908600846006814289F
:102F700034DA7D4890ED110AF1EE000AB4EEE00A71
:102F8000F1EE10FA2ADD90ED130A10EE101A084641
:102F900011F0F2FB41EC190B9FED7D0B53EC102B64
:102FA00011F04CF841EC180B10F030FD6E49C8647C
:102FB00014E00020754908606B4890ED130AB5EEE7
:102FC000C00AF1EE10FA04D0734890ED040A80EDC7
:102FD000030A1FEDB20A644880ED130ABDEC048BAE
:102FE00010BD10B52DED088B6C49B1F83D0010F007
:102FF000D5FF41EC1B0B9FED6A0B53EC102B11F02E
:103000001DF841EC190B6549B1F83F20B1F84E109D
:10301000501A10F0ACFF41EC1A0B53EC192B10F0C6
:1030200027FD41EC180B10F0F1FC4F4948650846AC
:10303000D0ED150A5C4890ED000AB8EEC00AF4EE37
:10304000C00AF1EE10FA02DD0120487002E0002013
:1030500045494870BDEC088B10BD10B52DED028BB5
:103060002D20414981F84800FFF749FD4F4800787D
:103070000B2873D04D4800780C28FAD03A4890EDD0
:10308000100AB5EEC00AF1EE10FA68DD90F83C00C7
:10309000012864D1344890F83A000128F9D1324827
:1030A00040780128F5D142480068401C404908603A
:1030B0000968C8290FD33F49D1F8A001002801DBD6
:1030C000014600E04142032905DA01203A4908702F
:1030D00000203749086038480078012876D1374801
:1030E0000068401C3549086008460068642804D917
:1030F000002031490870314908601B4890ED130ADF
:10310000DFED2F0A20EE200ADFED2E0A20EE200A46
:10311000DFED2D0A80EE201A90ED040A30EE410A10
:1031200080ED030A234890ED6A1BB0EE410AF0EEF1
:10313000610A51EC100B10F069FC0B4908611D4845
:10314000D0F8A00100EE100AB8EEC00A084680EDE3
:10315000020AD0ED021AB0EE611A38E0AFE09CE04E
:103160006666666666661240F00200200000000097
:1031700000001440333333333333174033333333A6
:1031800033331B409A99999999991D4088030020DF
:10319000333333333333F33F7C0D0020C42D002011
:1031A000FCA9F1D24D62603F68030020800400203A
:1031B0008C030020682B0020940300209003002043
:1031C00000003442000010420000FA4315E0D0ED48
:1031D000041AF0EE610AD0ED031AB0EE610ADFEDD9
:1031E000FE1A021DFD49FE4801F00DF8BDEEC00AB1
:1031F00010EE100A00B2FB498886FA4890F83C00AD
:10320000D8B3F9480078C0BBF64890ED130A5FEDDB
:10321000140A20EE200A5FED150A60EE200A1FED69
:10322000161A80EE810AD0ED040A30EE200A80EDF5
:10323000030AEE4890ED6A1BB0EE410AF0EE610A17
:1032400051EC100B10F0E2FBE6490861E748D0F8BA
:10325000A00100EE100AB8EEC00A084680ED020A8E
:10326000D0ED021AB0EE611AD0ED041AF0EE610A48
:10327000D0ED031AB0EE610A00E01AE0DFEDD61AD5
:10328000021DD649D64800F0BEFFBDEEC00A10EEC2
:10329000100A00B2D34988860BE0D14890ED040AA9
:1032A00080ED030A0020CF498886D1490860D149C2
:1032B00008600020D0490860D0490860EBE0CE48A3
:1032C0000068E0B90120CE490870C84890ED6A1B3B
:1032D000B0EE410AF0EE610A9FEDCA1B53EC112BD0
:1032E00051EC100B10F080FC41EC180B10F08EFB31
:1032F000BC490861084690ED040A80ED030ABE4807
:103300000068401CBC490860B64890F83C000128A1
:103310007ED1BE48007D012805D1BD480068401C13
:10332000BB49086002E00020B9490860B84800685D
:10333000B0F5967F0BDDB74800684FF4487190FBFD
:10334000F1F201FB120010B90020B3490870AF4838
:10335000007D012804D0AD4890F8280001280ED146
:10336000AD48007830B90120AB4908709D4981F81B
:103370003A0007E000209B4981F83A0002E0002073
:10338000A54908709E48007848B3A4480068401CCE
:10339000A249086008460068B0F5C87F0EDA914877
:1033A000D0ED030A90F8480000EE100AB8EE400A8B
:1033B00030EEC00A8B4880ED030A28E000209749D0
:1033C0000860884890ED040A80ED030A00208C49CB
:1033D00008708A480068401C8849086017E08148E6
:1033E00090F83A00012812D17E48D0ED030A90F8F7
:1033F000480000EE100AB8EE400A30EE800A794824
:1034000080ED030A7D480068401C7C49086000E0AC
:1034100039E0764890ED6A1BB0EE410AF0EE610AA1
:103420009FED7F1B53EC112B51EC100B10F0DCFBCC
:1034300041EC180B10F0EAFA6A4908616B48B0F9E0
:10344000B40100EE100AB8EEC00A084680ED020A88
:10345000D0ED021AB0EE611AD0ED041AF0EE610A56
:10346000D0ED031AB0EE610ADFED5B1A021D6E4962
:103470006E4800F0C8FEBDEEC00A10EE100A00B2A1
:103480005849888607E0574890ED040A80ED030A02
:10349000002054498886BDEC028B10BD10B5514800
:1034A00090F83C00012820D14E48D0ED1C0AB0EE27
:1034B000600AFFF78AFA4B48D0ED050A30EEC00AE1
:1034C0005B4880ED030A4748D0ED1C0AB0EE600A65
:1034D000FFF77BFA4348D0ED050AF1EE600A30EEC3
:1034E000200A534880ED160A08E09FED3B0A504839
:1034F00080ED030A9FED380A80ED160A4D48D0F89A
:10350000A00100EE100AB8EEC00A494880ED040A96
:103510004848D0F8F80100EE100AB8EEC00A444856
:1035200080ED170A90ED031AF0EE410A90ED041AAF
:10353000B0EE410A00F0CEFABDEEC00A10EE100A5D
:1035400000B22849C8863A4890ED161AF0EE410AB2
:1035500090ED171AB0EE410A4C3000F0BBFABDEE08
:10356000C00A10EE100A01B21E48018710BD10B546
:103570002648807E012804D002282CD0032873D14D
:1035800066E02248C07F98B10120164981F83C00CE
:10359000294890F83200012804D10102274805F09B
:1035A00087FF0EE04FF48071244805F07FFF08E0AC
:1035B00000200C4981F83C004FF480711F4805F051
:1035C00077FF1248B0F9080040F2DC5188423ADD3A
:1035D0000120044934E096E000000000600E002065
:1035E0007C0D0020F002002094030020682B0020B6
:1035F0008C0300209003002070030020780300203B
:1036000074030020CBA145B6F30D4240802E00206C
:103610007C03002018000020950300206C0300208C
:10362000000000C0F30D4240140E0020C80D002021
:10363000AC0E002058290020800400200000024029
:1036400081F83A0003E00020574981F83A0066E02B
:103650005648407D01280DD15448007D012804D1F1
:10366000514981F83A0011E058E000204E4981F8B4
:103670003A000BE04D48007D012803D14A4981F80A
:103680003A0003E00020484981F83A00474890F8A2
:10369000360038B346480068401C45490860084673
:1036A0000068B0F57A7F13DA01203F4981F83C00C9
:1036B000404890F83200012804D101023E4805F04C
:1036C000F7FE12E04FF480713B4805F0EFFE0CE08E
:1036D0000020354981F83C004FF48071364805F0F0
:1036E000E7FE02E0002032490860304890F84000D0
:1036F00020B101202C4981F83B0003E000202A4939
:1037000081F83B000BE00020274981F83C0081F85C
:103710003A002A4908602A49086000E000BF00BF5B
:1037200010BD10B5FFF723FFFFF75BFCFFF795FC1B
:10373000FFF7B4FE10BDF0EE400A90ED010A80EDF7
:10374000020A90ED040A80ED050A90ED010A80ED71
:10375000020A90ED040A80ED050A90ED020A90ED50
:10376000001A30EE010A90ED021AC1EE001AC0ED07
:10377000031A90ED050A90ED031AD0ED051A70EECC
:10378000E11A01EE210A80ED040A90ED030AB7EE7A
:10379000001A31EE400A90ED021A20EE010A80ED87
:1037A000010A90ED040A7047F0020020802E0020EC
:1037B00080030020800400200000024070030020ED
:1037C0007803002010B59FED9D1ADFED9C0AB2EE44
:1037D0000E0A0A2342F210720321994800F0D5FC28
:1037E0009FED961ADFED950AB1EE000A0A234FF419
:1037F0009672032192484C3000F0C7FC9FED8F1A5F
:10380000DFED8E0AB2EE000A0A2342F210720321A3
:103810008B48983000F0B9FC9FED881ADFED870ADD
:10382000B1EE000A0A234FF4967203218448E43073
:1038300000F0ABFC10BD8348807E012802D0032835
:103840002DD110E07F48B0F9080040F2DC518842E9
:1038500004DD02207A491C39087603E0012078490A
:103860001C3908761CE0774890F8320048B174485B
:103870001C38007E012804D1022071491C390876C9
:103880000CE0704890F8330040B16D481C38007E61
:10389000022803D101206A491C39087600E000BFE4
:1038A00000BF704710B52DED048BFFF7C4FF6448CF
:1038B0001C38807800286FD161491C3908769FED4B
:1038C000620A084680ED030A6048006C00EE100AA8
:1038D000B8EEC00A084680ED040A90ED031AF0EE37
:1038E000410A90ED041AB0EE410A1C3000F0F2F8E3
:1038F000BDEEC00A10EE100A01B251481C38818298
:103900005249B1F9560010F032FB41EC190BB0EE00
:10391000490AF0EE690A0EF053FCB0EE408AF0EE70
:10392000608A9FED4B0B53EC102B51EC180B10F0F1
:103930002BFD31D24549086C10F019FB41EC190BF5
:10394000B0EE490AF0EE690A0EF03AFCB0EE408A99
:10395000F0EE608A9FED400B53EC102B51EC180BEE
:1039600010F030FB18D236481C380088401C34490F
:103970001C39088008460088B0F57A7F0CDB334894
:1039800080683249886100212D481C3881820120DD
:103990002B491C390876887029481C388078012802
:1039A00049D1002026491C3908800846007E02289B
:1039B00005D19FED2B0A084680ED010A05E09FED39
:1039C0001F0A1F481C3880ED010A2048006C00EED9
:1039D000100AB8EEC00A1A481C3880ED040A1B48C9
:1039E00090ED121BB0EE410AF0EE610A51EC100BA3
:1039F00010F00CF812491C3988600846D0ED041A02
:103A0000B0EE611AD0ED021AF0EE610AD0ED011AA3
:103A1000B0EE610ADFED091A00F10C02B43100F5D5
:103A2000807000F0F0FBBDEEC00A10EE100A01B28B
:103A300003481C388182BDEC048B10BD00000000DF
:103A4000600F0020802E00200000C842202D0020A2
:103A50000000000000509440000000000000F03F13
:103A600000C05AC5D0ED000AF4EEC00AF1EE10FA1B
:103A700001DD80ED000AD0ED000AB1EE401AF4EE4F
:103A8000C10AF1EE10FA03D2F1EE400AC0ED000ACD
:103A900070470364C263816380ED000AC0ED010AD0
:103AA00080ED021A704780ED000AC0ED010A80ED3A
:103AB000021ADFEDFE1AC0ED081ADFEDFC1AC0EDA8
:103AC000091ADFEDFA1AC0ED0A1ADFEDF81AC0ED97
:103AD0000B1A704710B52DED088B0446B0EE408AE6
:103AE000F0EE608A84ED048AC4ED038A38EEC80AD9
:103AF00084ED070A94ED0C0AB5EEC00AF1EE10FA57
:103B000027D094ED0C0A10EE101A084610F034FE7F
:103B100041EC190B94ED070A10EE101A084610F04C
:103B20002BFE41EC1B0BB0EE4B0AF0EE6B0A0EF0D5
:103B300047FBB0EE40AAF0EE60AA53EC192B51EC13
:103B40001A0B10F021FC04D29FEDD80ABDEC088BB3
:103B500010BDA06B03283ED194ED000AD4ED070AF6
:103B600020EE200A84ED080A94ED090AD4ED010A3A
:103B700094ED071A00EE810A84ED090A94ED070A14
:103B8000D4ED060A30EE600AD4ED020A20EE200AD7
:103B900084ED0A0AD4ED100AF8EE600AB0EE600A6D
:103BA00004F12400FFF75EFF94ED080AD4ED090A42
:103BB00030EE200AD4ED0A0A30EE200A84ED0B0A1A
:103BC000D4ED0F0AF8EE600AB0EE600A04F12C00A2
:103BD000FFF748FF42E0A06B04283FD194ED070AAD
:103BE000D4ED060A30EE600AD4ED000A20EE200A79
:103BF00084ED080A94ED010AD4ED070A20EE200AAC
:103C000084ED090A94ED070AD4ED060AB0EE001A15
:103C100001EE600AD4ED050A30EE200AD4ED020A66
:103C200020EE200A84ED0A0A94ED080AD4ED090A70
:103C300030EE200AD4ED0A0A30EE200AD4ED0B0A49
:103C400030EE200A84ED0B0AD4ED0F0AF8EE600A7C
:103C5000B0EE600A04F12C00FFF704FF94ED060AB1
:103C600084ED050A94ED070A84ED060A94ED0D0A29
:103C7000B5EEC00AF1EE10FA25D094ED0D0A10EE63
:103C8000101A084610F078FD41EC190B94ED0B0A60
:103C900010EE101A084610F06FFD41EC1B0BB0EE51
:103CA0004B0AF0EE6B0A0EF08BFAB0EE40AAF0EE83
:103CB00060AA53EC192B51EC1A0B10F083F902D2C5
:103CC0009FED7A0A42E794ED0B0A3FE710B52DED20
:103CD000088B0446B0EE408AF0EE608A84ED048AD8
:103CE000C4ED038A38EEC80A84ED070A94ED0C0A85
:103CF000B5EEC00AF1EE10FA27D094ED0C0A10EEE2
:103D0000101A084610F038FD41EC190B94ED070A23
:103D100010EE101A084610F02FFD41EC1B0BB0EE10
:103D20004B0AF0EE6B0A0EF04BFAB0EE40AAF0EE42
:103D300060AA53EC192B51EC1A0B10F025FB04D29E
:103D40009FED5A0ABDEC088B10BDA06B03283ED135
:103D500094ED000AD4ED070A20EE200A84ED080A4B
:103D600094ED090AD4ED010A94ED071A00EE810AD8
:103D700084ED090A94ED070AD4ED060A30EE600AD4
:103D8000D4ED020A20EE200A84ED0A0AD4ED100ACE
:103D9000F8EE600AB0EE600A04F12400FFF762FE5C
:103DA00094ED080AD4ED090A30EE200AD4ED0A0A8F
:103DB00030EE200A84ED0B0AD4ED0F0AF8EE600A0B
:103DC000B0EE600A04F12C00FFF74CFE3EE0A06B61
:103DD00004283BD194ED070AD4ED060A30EE600AC0
:103DE000D4ED000A20EE200A84ED080A94ED010AC1
:103DF000D4ED070A20EE200A84ED090A94ED070AA3
:103E0000D4ED060AB0EE001A01EE600AD4ED050A00
:103E100030EE200AD4ED020A20EE200A84ED0A0AD0
:103E200094ED080AD4ED0A0A30EE200AD4ED0B0A0C
:103E300030EE200A84ED0B0AD4ED0F0AF8EE600A8A
:103E4000B0EE600A04F12C00FFF70CFE94ED060AB8
:103E500084ED050A94ED070A84ED060A94ED0D0A37
:103E6000B5EEC00AF1EE10FA28D094ED0D0A10EE6E
:103E7000101A084610F080FC41EC190B94ED0B0A67
:103E800010EE101A084610F077FC41EC1B0BB0EE58
:103E90004B0AF0EE6B0A0EF093F9B0EE40AAF0EE8A
:103EA00060AA53EC192B51EC1A0B01E00000000042
:103EB00010F088F802D21FED030A43E794ED0B0AD5
:103EC00040E710B52DED0A8B0446F0EE408AB0EEC7
:103ED000609AB0EE418AC4ED048A84ED039A39EE0B
:103EE000680A84ED070A18EE100A10F045FC41EC50
:103EF0001A0B94ED070A10EE101A084610F03CFC5D
:103F000041EC1C0BB0EE4C0AF0EE6C0A0EF058F9C6
:103F1000B0EE40BAF0EE60BA53EC1A2B51EC1B0B2A
:103F200010F050F804D21FED1F0A84ED070A1CE0C0
:103F300094ED070AB4EEC80AF1EE10FA06DD94ED2E
:103F4000070A30EE480A84ED070A0EE094ED070AEE
:103F5000F1EE480AB4EEE00AF1EE10FA05D294ED63
:103F6000070A30EE080A84ED070A18EE100A10F06E
:103F700003FC41EC1A0B39EE680A10EE101A0846E1
:103F800010F0FAFB41EC1C0BB0EE4C0AF0EE6C0AA0
:103F90000EF016F9B0EE40BAF0EE60BA53EC1A2B00
:103FA00051EC1B0B10F00EF803D21FED400A84ED0C
:103FB000070A94ED0C0AB5EEC00AF1EE10FA27D00C
:103FC00094ED0C0A10EE101A084610F0D5FB41ECE7
:103FD0001A0B94ED070A10EE101A084610F0CCFBED
:103FE00041EC1C0BB0EE4C0AF0EE6C0A0EF0E8F857
:103FF000B0EE40BAF0EE60BA53EC1A2B51EC1B0B4A
:1040000010F0C2F904D21FED570ABDEC0A8B10BDA7
:10401000A06B03283ED194ED000AD4ED070A20EEF0
:10402000200A84ED080A94ED090AD4ED010A94ED02
:10403000071A00EE810A84ED090A94ED070AD4ED0F
:10404000060A30EE600AD4ED020A20EE200A84ED62
:104050000A0AD4ED100AF8EE600AB0EE600A04F124
:104060002400FFF7FFFC94ED080AD4ED090A30EEB6
:10407000200AD4ED0A0A30EE200A84ED0B0AD4EDB2
:104080000F0AF8EE600AB0EE600A04F12C00FFF7A8
:10409000E9FC42E0A06B04283FD194ED070AD4ED7F
:1040A000060A30EE600AD4ED000A20EE200A84ED04
:1040B000080A94ED010AD4ED070A20EE200A84EDE7
:1040C000090A94ED070AD4ED060AB0EE001A01EED3
:1040D000600AD4ED050A30EE200AD4ED020A20EE83
:1040E000200A84ED0A0A94ED080AD4ED090A30EE9C
:1040F000200AD4ED0A0A30EE200AD4ED0B0A30EE85
:10410000200A84ED0B0AD4ED0F0AF8EE600AB0EE37
:10411000600A04F12C00FFF7A5FC94ED060A84ED7B
:10412000050A94ED070A84ED060A94ED0D0AB5EE32
:10413000C00AF1EE10FA25D094ED0D0A10EE101A17
:10414000084610F019FB41EC1A0B94ED0B0A10EE27
:10415000101A084610F010FB41EC1C0BB0EE4C0A94
:10416000F0EE6C0A0EF02CF8B0EE40BAF0EE60BA49
:1041700053EC1A2B51EC1B0B0FF024FF02D21FED56
:10418000B50A42E794ED0B0A3FE72DE9F0412DED2A
:10419000048B04460D4616461F46B0EE408AF0EEEC
:1041A000608AB0EE419A2A486064B0EE491AF0EE97
:1041B000680AB0EE480A3B46324629462046D4F803
:1041C00044C0E047BDEC048BBDE8F0811FEDC90A97
:1041D00080ED080A1FEDCB0A80ED090A1FEDCD0A1C
:1041E00080ED0A0A1FEDCF0A80ED0B0A1FEDD10A00
:1041F00080ED050A1FEDD30A80ED060A1FEDD50AF2
:1042000080ED070A704770B52DED048B06460D460C
:104210001446B0EE408AF0EE608AB0EE419AF0EEBD
:10422000619AF0EE480AB0EE680A3046FFF752FC99
:1042300030EE290A84ED000A94ED000AF0EE400AFF
:10424000B0EE490A2846FFF745FCBDEC048B70BD73
:10425000933A000810B504462068A0F2012030B15E
:1042600001280FD0022807D0032815D10FE02146DE
:10427000254800F0B7F910E021462348583000F0F7
:10428000B1F90AE02146214800F0ACF905E02146E9
:104290001F4800F0A7F900E000BF00BF10BD10B537
:1042A00004462068A0F2052010B101280DD105E0D8
:1042B00032222146174800F0A8F907E040F20A52DE
:1042C0002146154800F0A1F900BF00BF00BF10BD96
:1042D00008B5002000901148B0F92620B0F924104C
:1042E00000230F4800F0B7F90E48B0F91400009011
:1042F0000D48B0F93830B0F93420B0F936100B4819
:1043000000F055FA08BD0000B82A0020C82C002093
:10431000202D002050280020F827002080040020B5
:1043200000680040440F0020F002002000640040BC
:1043300070B505460C464C22A91D39480CF03AFCD4
:10434000374890ED0D0AB1EE400A84ED000A354879
:1043500090ED000A344880ED000A314890ED0E0AD5
:10436000304880ED000A90ED000A2F48D0ED000A99
:1043700030EE600ADFED2D0AB4EEE00AF1EE10FA3D
:1043800005DB2B480068401E2949086013E02548DA
:1043900090ED000A2448D0ED000A30EE600ADFED0F
:1043A000250AB4EEE00AF1EE10FA04D820480068BD
:1043B000401C1F4908601E4800684FF4B471484310
:1043C00000EE100AB8EEC00A1648D0ED000A30EE32
:1043D000200AB1EE400A84ED010A114890ED0C0A62
:1043E00084ED020A90ED060AB1EE400A84ED030A5C
:1043F00090ED080AB1EE400A84ED040A90ED070A38
:1044000084ED050A90ED030A84ED060A90ED050A95
:1044100084ED070A90ED040A84ED080A70BD0000DF
:10442000782D00209C030020980300200000A24368
:10443000A00300200000A2C30A7BCB7A42EA032239
:10444000826182698260826942600269521C0261F3
:1044500070472DE9F04104460D46002600272068EC
:104460006060287BE97A40EA01202060206861686A
:10447000401AE060E06810F5805F07DAA06B401C2E
:10448000A063E06800F50050E0610DE0E068B0F581
:10449000805F07DDA06B401EA063E068A0F50050C0
:1044A000E06101E0E068E0612168A06B01EB403071
:1044B000A0602068A269801A00EE100AF8EEC00A17
:1044C000A06B4FF4B472504300EE100AB8EEC00A6D
:1044D0009FEDFE1A00EE810A10EE101A084610F049
:1044E0004BF941EC100B84ED120BE269207D411C6D
:1044F000217504F1200141F82020207D062801D1FA
:1045000000202075002605E004F1200050F8260068
:104510000744761C062EF7DB062097FBF0F020649C
:10452000A97B687B41EA002000B2A4F85400297CF2
:10453000E87B41EA002000B2A4F85600BDE8F08113
:1045400070B504460D4620686060287BE97A40EA31
:104550000120206020686168401AE060E06810F582
:10456000805F07DAA06B401CA063E06800F5005094
:10457000E0610DE0E068B0F5805F07DDA06B401EF4
:10458000A063E068A0F50050E06101E0E068E06150
:104590002168A06B01EB4030A0602068A269801AFE
:1045A00000EE100AF8EEC00AA06B4FF4B47250434C
:1045B00000EE100AB8EEC00A9FEDC51A00EE810A9F
:1045C00010EE101A084610F0D7F841EC100B84EDED
:1045D000120B687B000200B2A97B08432064687C50
:1045E000206570BD70B504460D46E06B401CE0636D
:1045F000E06B052804DC29462046FFF71DFF03E099
:1046000029462046FFF725FF70BD70B504460E46CB
:104610001546E06B401CE063E06B022800DCA561FE
:1046200031462046FFF78CFFE06B0A2812DCA069B8
:10463000A168401A10F57A6F03DA05F50050A06101
:1046400008E0A069A168401AB0F57A6F02DDA5F50F
:104650000050A06170BD2DE9F04186B080460C4647
:1046600015461E460C9F201E01DB014600E041421C
:1046700047F2481291420ADD201E01DB014600E0AC
:10468000414247F24812624392FBF1F10CB2281EFC
:1046900001DB014600E0414247F2481291420ADD47
:1046A000281E01DB014600E0414247F248126A43FE
:1046B00092FBF1F10DB2301E01DB014600E04142F8
:1046C00047F2481291420ADD301E01DB014600E04C
:1046D000414247F24812724392FBF1F10EB2381E8A
:1046E00001DB014600E0414247F2481291420ADDF7
:1046F000381E01DB014600E0414247F248127A438E
:1047000092FBF1F10FB240F2FF10019000208DF802
:104710000C008DF80D0008208DF80E00200A8DF891
:104720000F008DF81040290A8DF811108DF81250E5
:10473000310A8DF813108DF81460390A8DF81510B0
:104740008DF8167001A9404604F074F806B0BDE873
:10475000F0812DE9F04186B080460C4615461E4694
:104760000C9F40F2FF20019000208DF80C008DF886
:104770000D0008208DF80E00200A8DF80F008DF82E
:104780001040290A8DF811108DF81250310A8DF859
:1047900013108DF81460390A8DF815108DF8167005
:1047A00001A9404604F046F806B0BDE8F0812DE9C5
:1047B000F04186B080460C4615461E460C9F201ED2
:1047C00001DB014600E0414247F2481291420ADD16
:1047D000201E01DB014600E0414247F248126243DD
:1047E00092FBF1F10CB2281E01DB014600E04142D0
:1047F00047F2481291420ADD281E01DB014600E023
:10480000414247F248126A4392FBF1F10DB2301E69
:1048100001DB014600E0414247F2481291420ADDC5
:10482000301E01DB014600E0414247F2481272436C
:1048300092FBF1F10EB2381E01DB014600E041426D
:1048400047F2481291420ADD381E01DB014600E0C2
:10485000414247F248127A4392FBF1F10FB24FF412
:104860000070019000208DF80C008DF80D000820DC
:104870008DF80E00200A8DF80F008DF81040290ADF
:104880008DF811108DF81250310A8DF813108DF833
:104890001460390A8DF815108DF8167001A940467C
:1048A00003F0C8FF06B0BDE8F0812DE9F04186B005
:1048B00080460C4615461E460C9F40F2FF100190A4
:1048C00000208DF80C008DF80D0003E0FFFF333D54
:1048D0000000343D08208DF80E00200A8DF80F00EE
:1048E0008DF81040290A8DF811108DF81250310AF8
:1048F0008DF813108DF81460390A8DF815108DF8A5
:10490000167001A9404603F095FF06B0BDE8F0819E
:1049100030B5034605E013F8010B80EA0204D448E1
:10492000025D081EA1F10101F5D1104630BD70B540
:1049300005460C4600260DB1022C01D8002070BDA2
:10494000611EFF222846FFF7E3FF0646601E285C33
:10495000B04201D10120F2E70020F0E770B5054632
:104960000C4600260DB1022C00D870BD611EFF223E
:104970002846FFF7CDFF0646601E2E5400BFF4E721
:1049800030B5034613B94FF6FF7030BD09E013F898
:10499000014B82EA0400C0B2B64D35F8100080EA3F
:1049A0002222081EA1F10101F1D11046EDE770B5F8
:1049B00005460C4600260DB1022C01D8002070BD22
:1049C000A11EAD4802882846FFF7DAFF0646F1B27D
:1049D000A01E285C814206D1601E285CB0EB162F19
:1049E00001D10120EBE70020E9E770B505460C4650
:1049F00000260DB1022C00D870BDA11E9E48028871
:104A00002846FFF7BDFF0646A01E2E54310A601E41
:104A1000295400BFF0E770B504460D4600260CB1DE
:104A2000022D01D8FF2070BDFF2229462046FFF746
:104A30006FFFF8E72DE9FC5F05460F46092F01D807
:104A4000BDE8FC9F0024A0460DE115F80490601C11
:104A5000295CA01C285C41EA0026601D295CA01D81
:104A6000285C41EA002A281900F1070B281901687F
:104A7000009100798DF8040006F109001FFA80F812
:104A8000B9F1A50F71D105216846FFF750FF002845
:104A90006BD028194146FFF78AFF0028F8D0BAF5F5
:104AA000017F63D010DCBAF5817F2CD006DCBAF12F
:104AB000010F1BD0BAF1030F79D11DE0AAF201203A
:104AC00040B30128F8D149E0BAF5027F70D006DC86
:104AD000AAF20620002852D00128EDD169E0AAF2FE
:104AE000013000287ED00228E6D1B0E03246594697
:104AF00062480CF05FF8B2E0324659465F480C302D
:104B00000CF058F8ABE0324659465C4830300CF0B7
:104B100051F8A4E032465946584837300CF04AF86C
:104B2000564890F83700012809DB544890F83700C0
:104B3000072804DC0220514981F8BB000DE04F48F2
:104B400090F837000B2808DB4C4890F83700112804
:104B500003DC0120494981F8BB0080E03246594618
:104B6000464844300CF026F879E079E0052E05D16E
:104B700032465946414864300CF01CF86FE032462A
:104B800059463E486C300CF015F83C4890F86C00E3
:104B9000000958B9394890F86C0000F00F0028B1AE
:104BA0003748C07B10B102203549C87357E055E043
:104BB00021E0072E1ED13246594630486D300BF0A9
:104BC000F9FF2E48006F00EE100AF3EE040AB4EE6F
:104BD000E00AF1EE10FA06D2B3EE0C0A2948FEF70D
:104BE000AAFD07E02CE02548006F00EE100A2548DA
:104BF000FEF7A1FD33E032465946204874300BF0F1
:104C0000D9FF21480088214908801C48B0F8740069
:104C10001D490880084600881C490988401A002858
:104C200002DC1948008800B919E0184800881649C4
:104C30000988401A164909880844154908800EE079
:104C4000324659460D487A300BF0B4FF07E0324641
:104C500059460A48A2300BF0ADFF00E000BF00BF8C
:104C600004EB080084B2A7423FF7EFAE00BFE7E6CF
:104C7000AF4A0108B04B0108AC030020C42D00204E
:104C8000D40B002050030020A6030020A403002022
:104C9000A803002010B503463BB1087838B90120BD
:104CA00008701078401C107001E000200870107827
:104CB00000EBD0746410A0EB44040CB9002010BDCC
:104CC0000120FCE7CB8A03400BB1012300E0002365
:104CD0001370704710B5044604F1290221460120E3
:104CE000FFF7F0FF04F12A0221460420FFF7EAFF54
:104CF00004F12B0221460220FFF7E4FF04F12C020D
:104D000021460820FFF7DEFF04F12D022146102086
:104D1000FFF7D8FF04F12F0221462020FFF7D2FF32
:104D200004F1300221464020FFF7CCFF04F13102AC
:104D300021468020FFF7C6FF04F1320221464FF4DE
:104D40008070FFF7BFFF04F1330221464FF400707B
:104D5000FFF7B8FF04F1340221464FF48060FFF7FB
:104D6000B1FF04F1350221464FF40060FFF7AAFFBE
:104D700004F12E0221464FF48050FFF7A3FF04F107
:104D8000360221464FF40050FFF79CFF04F1370232
:104D900021464FF48040FFF795FF04F13802214689
:104DA0004FF40040FFF78EFF94F82900974A984986
:104DB000FFF770FF392108552A21085D954A964969
:104DC000FFF768FF3A2108552B21085D934A944963
:104DD000FFF760FF3B2108552C21085D914A92495D
:104DE000FFF758FF3C2108552D21085D8F4A904957
:104DF000FFF750FF3D2108552F21085D8D4A8E4950
:104E0000FFF748FF3F2108553021085D8B4A8C4948
:104E1000FFF740FF402108553121085D894A8A4942
:104E2000FFF738FF412108553221085D874A88493C
:104E3000FFF730FF422108553321085D854A864936
:104E4000FFF728FF432108553421085D834A844930
:104E5000FFF720FF442108553521085D814A82492A
:104E6000FFF718FF452108552E21085D7F4A80492C
:104E7000FFF710FF3E2108553621085D7D4A7E4927
:104E8000FFF708FF462108553721085D7B4A7C491A
:104E9000FFF700FF472108553821085D794A7A4914
:104EA000FFF7F8FE4821085510BD817AC176017FD1
:104EB000C27E891A4177C27E0277417F01290ED1D5
:104EC000016A491C0162016A01EBD1725210A1EB27
:104ED000420212B90022827701E001228277417FEB
:104EE00002290ED1416A491C4162416A01EBD1722B
:104EF0005210A1EB420212B90022C27701E0012256
:104F0000C277B0F90810A1F58061052903DA002203
:104F100028210A5402E0012228210A547047C17A4C
:104F2000012901D1817608E0C17A032901D1817676
:104F300003E0C17A022900D18176704730B504467A
:104F40000D46122D00D030BD04B9FCE72078617801
:104F500040EA0120C0F30A004C4908806078C01084
:104F6000A17840EA4110C0F30A0048494880A0787F
:104F70008011E17840EA8100217940EA8120C0F384
:104F80000A004249888020794010617940EAC110C6
:104F9000C0F30A003D49C880207C617C40EA0120C2
:104FA000C0F30A00394908816079001180088872CD
:104FB0006079C0F30110C872A079E17940EA01205C
:104FC00000B232498881207A617A40EA012001B238
:104FD0002E48C181A07AE17A40EA012001B22B4833
:104FE0000182217B0175617B4175A07BE17B40EAF9
:104FF00001202649C8820846FFF791FF2348FFF7A2
:1050000054FF2248FFF766FE00BF9CE7AF03002075
:10501000AE030020B1030020B0030020B303002042
:10502000B2030020B5030020B4030020B703002022
:10503000B6030020B9030020B8030020BB03002002
:10504000BA030020BD030020BC030020BF030020E2
:10505000BE030020C1030020C0030020C3030020C2
:10506000C2030020C5030020C4030020C7030020A2
:10507000C6030020C9030020C8030020CB03002082
:10508000CA030020CD030020CC030020802E002086
:105090002DE9F05F2DED028B04460D4616461F46A6
:1050A000B0EE408AF0EE608ADDE90EABDDE90C89F6
:1050B0001748047045708670C770024618EE100AD3
:1050C00018EE901A506191611046A0F80880A0F87F
:1050D0000A90A0F80CA0A0F80EB011461098088213
:1050E000119848821298087113984871094890F8ED
:1050F000380088710848C07BC871084602F0F2FA8F
:10510000BDEC028BBDE8F09F0A68026070470000AA
:10511000C92E0020C42D0020D40B002070B52DED29
:105120000E8B82B006460D46B0EE408A9FEDFE0A19
:1051300028EE000A10EE104A20460FF01DFB41EC4D
:105140001E0BB0EE4E0AF0EE6E0A0DF0EDFEB0EE64
:1051500040CAF0EE60CA28460EF009FF41EC1D0B74
:1051600053EC1C2B0EF06AFF41EC1A0B20460FF09B
:1051700003FB41EC1E0BB0EE4E0AF0EE6E0A0CF093
:10518000BBFFB0EE40CAF0EE60CA30460EF0EFFE54
:1051900041EC1D0B53EC1C2B0EF050FF41EC1B0B94
:1051A00053EC1A2B0FF0FEF941EC190B0EF0B0FE88
:1051B00000B2ADF8040020460FF0DEFA41EC1E0B01
:1051C000B0EE4E0AF0EE6E0A0CF096FFB0EE40CA5A
:1051D000F0EE60CA28460EF0CAFE41EC1D0B53ECFF
:1051E0001C2B0EF02BFF41EC1B0B20460FF0C4FADA
:1051F00041EC1E0BB0EE4E0AF0EE6E0A0DF094FE7E
:10520000B0EE40CAF0EE60CA30460EF0B0FE41EC9F
:105210001D0B53EC1C2B0EF011FF41EC190B53EC42
:105220001B2B0EF025FC41EC1A0B0EF071FE00B2A8
:10523000ADF80600019802B0BDEC0E8B70BD10B544
:105240002DED028B82B0B94890F83740672C1BD007
:1052500006DC032C09D0042C0CD0052C23D10EE045
:10526000682C16D0692C1ED118E040F20310B0490A
:10527000088018E04FF48270AD49088013E040F2D6
:105280000510AB4908800EE040F26710A84908807D
:1052900009E04FF4B470A649088004E040F26910B8
:1052A000A349088000BF00BFA24800780F2881F002
:1052B0008585DFE810F0830D0F007B00F9008C017D
:1052C000090283020603A003280416054808C00843
:1052D000D709FC0C042098490870012048709348B5
:1052E00090F837008870914890F837000012C87025
:1052F0008F48007808718E480088001248718F48E6
:10530000807C20F00700401C8C4988740846408A45
:1053100020F47070803048820846807C20F038008D
:10532000083088740020C873002184480174032168
:10533000417440F2B721B0F8170061F38C007F4947
:10534000A1F817004B217D48008B61F34F107B497A
:10535000088340F21E517948B0F81B0061F38C00BD
:105360007649A1F81B0069217448808B61F34F10C6
:10537000724988830846C07C20F03C000C30C87419
:105380000846C08A6FF309000830C88269226A485B
:10539000801D0BF00FFC6A48A5236F226649009020
:1053A00040F2013002F079FD01F009BD10206249A0
:1053B0000870012048705D4890F8370088705B489D
:1053C00090F837000012C8705948007808715848A2
:1053D0000088001248715B48C07820F00700401C2C
:1053E0005849C8700846B0F8030020F47070403087
:1053F000A1F803000846C07820F038003830C870A3
:10540000002008700220487000208870C8214D4894
:10541000008961F38C004B4908814FF43971494888
:10542000B0F8090061F34F104649A1F80900084699
:10543000B0F807006FF30900001DA1F80700142160
:105440004048808861F38E103E4988800C213D4899
:10545000B0F8050061F3CF103A49A1F805000846FD
:10546000007920F03C00083008715220C8734F21A9
:105470003448017454214174412181745421C17410
:10548000452101753A2141752D2201462A48801D8A
:105490000BF090FB2A48A52333222749009040F2C5
:1054A000013002F0FAFC7FE7102023490870012048
:1054B00048701E4890F8370088701C4890F83700F4
:1054C0000012C8701A480078087119480088001244
:1054D00048711D48C07820F00700401C1A49C87068
:1054E0000846B0F8030020F470704030A1F80300C3
:1054F0000846C07820F038003830C87000200870A6
:1055000048700420887040F2B7210F48008961F389
:105510008C000D4908814B210B48B0F8090061F35C
:105520004F10094912E0000035FA8E3CC42D0020CE
:10553000DE030020D8030020982F002041320020F5
:10554000DA2F0020CA300020F7300020A1F809002F
:105550000846B0F807006FF30900001DA1F8070026
:105560001421FE48808861F38E10FC498880082150
:10557000FA48B0F8050061F3CF10F849A1F805002A
:105580000846007920F03C00143008715620C8739A
:105590004F21F24801744C214174542181744121FE
:1055A000C17447210175452141753A2181752D222C
:1055B0000146EB480BF0FEFAEA48A5233322E849FE
:1055C000891F009040F2013002F067FCECE61020E9
:1055D000E349891F087001204870E34890F83700BC
:1055E0008870E14890F837000012C870DF480078F2
:1055F0000871DE48008800124871DD48C07820F04C
:105600000700401CDA49C8700846B0F8030020F4CF
:1056100070704030A1F803000846C07820F03800D0
:105620003830C8700020087048700520887040F23B
:10563000B721CF48008961F38C00CD4908814B2107
:10564000CB48B0F8090061F34F10C949A1F809002F
:105650000846B0F807006FF30900001DA1F8070025
:105660001421C348808861F38E10C14988800421C9
:10567000BF48B0F8050061F3CF10BD49A1F805009F
:105680000846007920F03C0014300871B9480168E0
:1056900008460FF071F841EC180B53EC182BB6A12B
:1056A000B3480F300BF03EFA2D22B149AC480BF055
:1056B00081FAAC48A5233322A949891F009040F202
:1056C000013002F0EAFB6FE61020A549891F08703F
:1056D00001204870A44890F837008870A24890F8DC
:1056E00037000012C870A148007808719F480088F0
:1056F00000124871A148C07820F00700401C9F4963
:10570000C8700846B0F8030020F470704030A1F86B
:1057100003000846C07820F038003830C8700020F8
:1057200008700320487000208870C82193480089C1
:1057300061F38C00914908814FF420718F48B0F8D3
:10574000090061F34F108D49A1F809000846B0F82F
:1057500007006FF30900001DA1F807001421874816
:10576000808861F38E108549888008218348B0F8CD
:10577000050061F3CF108149A1F8050008460079C2
:1057800020F03C00083008714420C8734F217B484A
:1057900001744174522181743A21C1742D22014651
:1057A0006F480BF007FA6F48A52333226C49891F15
:1057B000009040F2013002F070FBF5E510206849DE
:1057C000891F087001204870674890F8370088707A
:1057D000654890F837000012C87064480078087176
:1057E00062480088001248716548C07820F00700C0
:1057F000401C6349C8700846B0F8030020F470707C
:105800004030A1F803000846C07820F03800383056
:10581000C870002008700320487006208870C821D6
:105820005748008961F38C005549088140F24E21A8
:105830005348B0F8090061F34F105149A1F809002D
:105840000846B0F807006FF30900001DA1F8070033
:1058500014214B48808861F38E10494988800821C3
:105860004748B0F8050061F3CF104549A1F805009D
:105870000846007920F03C00083008714620C873C3
:1058800052213F48017449214174432181745421BC
:10589000C174492101754F2141754E2181753A210D
:1058A000C1752D2201462E480BF084F92D48A52301
:1058B00033222B49891F009040F2013002F0EDFAAB
:1058C00072E510202649891F08700120487026487B
:1058D00090F837008870244890F837000012C8709C
:1058E0002248007808712148008800124871254834
:1058F000C07820F00700401C2249C8700846B0F864
:10590000030020F470704030A1F803000846C0780E
:1059100020F038003830C87000200870032048702C
:1059200007208870C8211748008961F38C00154949
:10593000088140F2B2211348B0F8090061F34F101A
:105940001049A1F809000846B0F807006FF30900F4
:10595000001DA1F8070014210A4815E0F7300020C7
:105960009E2F0020DA2F0020C42D0020DE0300200F
:1059700024310020CE030020256600007030002076
:105980009D3000207E310020808861F38E10FE491A
:1059900088800821FC48B0F8050061F3CF10FA496F
:1059A000A1F805000846007920F03C000830087195
:1059B0004320C8734C21F4480174492141744D219E
:1059C00081744221C174492101754E2141754721DD
:1059D00081753A21C1752D220146EC480BF0EAF899
:1059E000EB48A5233322E949891F009040F201309A
:1059F00002F053FAD8E41020E449891F087001200E
:105A00004870E44890F837008870E24890F8370012
:105A10000012C870E04800780871DF480088001262
:105A20004871DE48C07820F00700401CDB49C87090
:105A30000846B0F8030020F470704030A1F803006D
:105A40000846C07820F038003830C8700020087050
:105A50000320487000208870E621D048008961F357
:105A60008C00CE4908814FF40C71CC48B0F8090085
:105A700061F34F10C949A1F809000846B0F80700C2
:105A80006FF30900001DA1F807001421C3488088A6
:105A900061F38E10C14988800421C048B0F8050028
:105AA00061F3CF10BD49A1F80500BD48008800EEA4
:105AB000100AB8EE400AF7EE000A20EE200A10EEB7
:105AC000101A08460EF058FE41EC180B53EC182B38
:105AD000AFF25C11B1480F300BF024F8AF480079F9
