:020000040800F2
:10000000D0640020B19D0008A9020008AB020008DE
:10001000AF020008B3020008B702000800000000A9
:10002000000000000000000000000000BB0200080B
:10003000BD02000800000000BF020008C102000865
:10004000CB9D0008CB9D0008CB9D0008CB9D0008F0
:10005000CB9D0008CB9D0008CB9D0008CB9D0008E0
:10006000CB9D0008CB9D0008CB9D0008CB9D0008D0
:10007000CB9D0008CB9D00087D740008AB74000880
:10008000CB9D00084F740008CB9D00089B630008BF
:10009000B1630008CB9D0008CB9D0008CB9D0008F4
:1000A000CB9D0008CB9D0008CB9D0008CB9D000890
:1000B000CB9D0008CB9D0008CB9D0008CB9D000880
:1000C000CB9D0008CB9D0008CB9D0008CB9D000870
:1000D000CB9D0008156B00089D6C00080B6E000896
:1000E000CB9D0008CB9D0008CB9D0008CB9D000850
:1000F000CB9D0008CB9D0008CB9D0008D97400085B
:10010000CB9D0008CB9D0008CB9D0008CB9D00082F
:10011000A36F00081971000857660008CB9D0008FE
:10012000CB9D0008CB9D0008CB9D0008CB9D00080F
:10013000CB9D0008CB9D0008CB9D0008EB64000818
:1001400001650008CB9D0008CB9D0008CB9D0008F1
:10015000CB9D0008077500082174000895720008FF
:10016000CB9D0008CB9D0008CB9D0008CB9D0008CF
:10017000CB9D0008CB9D0008CB9D0008CB9D0008BF
:10018000CB9D0008CB9D000800F002F800F069F854
:100190000AA090E8000C82448344AAF10107DA45E2
:1001A00001D100F05EF8AFF2090EBAE80F0013F0CB
:1001B000010F18BFFB1A43F001031847B83F0100B5
:1001C000D83F01000A444FF0000C10F8013B13F037
:1001D000070408BF10F8014B1D1108BF10F8015BA0
:1001E000641E05D010F8016B641E01F8016BF9D193
:1001F00013F0080F1EBF10F8014BAD1C0C1B09D1EA
:100200006D1E58BF01F801CBFAD505E014F8016B5B
:1002100001F8016B6D1EF9D59142D6D370470000ED
:100220000023002400250026103A28BF78C1FBD8FF
:10023000520728BF30C148BF0B607047662913F0D2
:100240003084002070471FB513F07BFB10F064F87A
:1002500004000020002112F02BFCE0601FBD10B54F
:1002600010BD10F056F91146FFF7EDFF00F008F849
:1002700010F074F903B4FFF7F2FF03BC10F042F87A
:1002800000F028F900F0EDFA06E00448406804495F
:10029000B0FBF1F003490860F7E70000001000E050
:1002A0004090020000000020704700BFFEE700BF42
:1002B000FEE700BFFEE700BFFEE7704770477047EC
:1002C000704700000CB5002001900090764800684F
:1002D00040F480307449086000BF7348006800F43F
:1002E000003000900198401C0190009818B90198C6
:1002F000B0F5A06FF1D16C48006800F4003010B187
:100300000120009001E0002000900098012846D1D3
:1003100065484030006840F08050634940310860D3
:100320006248006840F44040604908605E48083018
:1003300000685D49083108600846006840F40040E4
:1003400008600846006840F4A05008605848091F3B
:100350000860081F006840F08070091F086000BF37
:100360005148006800F000700028F9D040F2057094
:10037000504908604C480830006820F003004A49A2
:10038000083108600846006840F00200086000BFBD
:1003900045480830006800F00C000828F8D10CBD72
:1003A00010B54548006840F47000434908603E4875
:1003B000006840F001003C49086000203A490831DB
:1003C0000860394800683D490840374908603C48A2
:1003D000091D0860081F006820F48020091F0860BC
:1003E000002031490C310860FFF76CFF4FF00060CE
:1003F00031498039086010BD70B500200022022309
:1004000000240221284D08352D6805F00C0020B18C
:10041000042806D0082834D107E02A4D2A4E35603A
:1004200033E02A4D284E35602FE01F4D2D1D2D68DD
:10043000C5F380541C4D2D1D2D6805F03F0154B1AE
:10044000224DB5FBF1F5184E361D3668C6F38816F9
:1004500005FB06F209E01B4DB5FBF1F5124E361D0A
:100460003668C6F3881605FB06F20F4D2D1D2D6864
:10047000C5F301456D1C6B00B2FBF3F5124E356000
:1004800003E0104D104E356000BF00BF064D08352B
:100490002D68C5F303150E4E705D0B4D2D68C540DC
:1004A000094E356070BD0000003802400070004009
:1004B00008544007003C024088ED00E0FFFFF6FED4
:1004C000103000240024F4000400002000127A0000
:1004D0000800002038B54FF4A06007F039F801207B
:1004E00000905F48002301225E49D0F8D445A04720
:1004F000012000905C48012300224FF4E131D0F844
:10050000D445A047012000905848012300224FF411
:100510006121D0F8D445A047012000905448012320
:1005200000224FF4E131D0F8D445A04701200090DB
:10053000504801231A464FF4E131D0F8D445A04782
:10054000012000904C4800231A464FF4E131D0F8C6
:10055000D445A04705F0F6FFA82006F091F8002347
:1005600003220821104605F0A5FE002303220821DE
:10057000104605F038FF06F03DF838BD10B52DEDFA
:10058000088BB0EE409AF0EE609AB0EE418A9FED93
:100590003B1BB0EE490AF0EE690A10F08FFEB0EE98
:1005A00040AAF0EE60AA51EC1A0B12F0A3FA08EE82
:1005B000100AB5EEC08AF1EE10FA11D218EE100A48
:1005C00013F04EF941EC1B0B9FED2C0B53EC102B51
:1005D00012F0C2FA41EC1A0B12F08CFA08EE100A73
:1005E000B0EE480ABDEC088B10BD10B52DED088BA0
:1005F000B0EE409AF0EE609AF0EE418AB0EE481A02
:10060000B0EE490AF0EE690AFFF7B8FFB0EE408A93
:1006100018EE100A13F024F941EC1A0B9FED190B98
:1006200053EC102B12F024FF12D218EE100A13F024
:1006300017F941EC1B0B9FED110B53EC102B13F032
:1006400025F841EC1A0B12F055FA08EE900A01E079
:10065000F0EE488AB0EE680ABDEC088B10BD0000D1
:1006600018060020A0860100F80B0020D8110020F9
:10067000B8170020981D00207823002000000000FB
:1006800000807640000000000080664010B58AB00F
:1006900078480068401C7749086077497748D0ED72
:1006A000000A774890ED000A764802F03CF871495C
:1006B0000868C11700EB91718910A0EB8101012935
:1006C0003ED17148C07B714991F838106F4A92F859
:1006D0004320C2F340026D4B93F84130CDE906321E
:1006E000CDE908106948B0F84C006849896C00EE03
:1006F000101ABDEEC00A10EE101A0AB26249B1F922
:100700001410614BB3F91030CDE90231CDE904206A
:100710005D48B0F912005E49096C09B25C4CCDE944
:10072000001094ED121BB0EE410AF0EE610A564C37
:10073000237BA27B94F84410564CA07E04F0DCFC92
:100740004C49086800EBD0714910A0EB410119B980
:1007500003F01BF803F0DAF846480068032190FB29
:10076000F1F201FB120018B901F062FC03F0E4FDA4
:1007700040480068052190FBF1F201FB1200D8B956
:10078000454A1178454A92ED1C2AF0EE421A3F4A3A
:1007900092F83700424A92ED022AB0EE421A92EDE8
:1007A000002AB1EE422AF0EE420A92ED012AB0EEA2
:1007B000420A3C4A05F013FD2E480068642190FB74
:1007C000F1F201FB1200012801D104F0DFFC2948FD
:1007D00000684FF47A7190FBF1F201FB1200B0F562
:1007E000FA7F03D10121304807F0F0FE214800686C
:1007F0004FF47A7190FBF1F201FB120018B901215C
:10080000294807F0E5FE1B4800684FF4FA6190FBA9
:10081000F1F201FB120010BB2448807A642804D155
:100820000221214807F0D2FE19E02048807A4228B0
:1008300004D102211C4807F0CBFE10E002211A4827
:1008400007F0C4FE0B4800684FF47A6190FBF1F2A8
:1008500001FB120018B90221134807F0B9FE0AB0D3
:1008600010BD10B500F024F802F080F802F0DEFFB1
:1008700010BD00001800002010540020500000207F
:100880004C000020AC000020D4300020C4520020D6
:10089000504D00208053002080290020F0020020CD
:1008A00090480020F41C002000080240505800200E
:1008B00010B540F25471FE480FF083FA9FEDFD1A17
:1008C000DFEDFC0A9FEDFC0A0A234FF416720321A8
:1008D000FA4803F08EFCB2EE001ADFEDF90AB3EE2F
:1008E000020A04234FF4FA720321F148803003F026
:1008F00080FC9FEDF41ADFEDF40A9FEDF40A44F654
:10090000206346F678120321F14803F072FCB2EE40
:10091000001ADFEDF00AB2EE030A04234FF4FA7274
:100920000321E348343003F064FC9FEDEB1ADFED64
:10093000EB0A9FEDEB0A42F2107347F248120321D3
:10094000E3484C3803F055FC9FEDDA1ADFEDD90A85
:10095000B2EE040A0823C8220321DD48983003F0D0
:1009600048FC9FEDD41ADFEDD80A9FEDDE0A4FF464
:10097000FA6346F2A8120321DB4803F03AFCB1EE19
:10098000041ADFEDCC0AB2EE040A08234FF4827297
:100990000321CF484C3003F02CFC9FEDC61ADFED4D
:1009A000C80A9FEDCF0A40F6B83347F24812032138
:1009B000CD484C3803F01DFC9FEDC71ADFEDC00A8F
:1009C000B2EE0E0A0A23C8220321C84803F011FC24
:1009D0009FEDB81ADFEDBC0A9FEDBC0A46F2A813E2
:1009E00046F678120321C1484C3003F002FC9FED1B
:1009F000B11ADFEDBF0A9FEDBF0A10239622032133
:100A0000BA484C3803F0F5FB9FEDAA1ADFEDB30AA4
:100A10009FEDB30A47F268431A460321B348983062
:100A200003F0E7FB9FEDAC1ADFEDB10AB3EE010A6C
:100A30000F23C8220321AC48983003F0DAFB9FED66
:100A40009D1ADFEDAB0A9FEDAC0A4FF4FA6346F254
:100A5000A8120321A94803F0CCFBB1EE041ADFED84
:100A6000A80AB2EE0B0A08234FF4827203219E48B3
:100A70004C3003F0BEFB9FED8F1ADFED8E0A9FED29
:100A8000A10A40F6B83347F2481203219B484C387C
:100A900003F0AFFBB1EE041ADFED9B0AB2EE080AD9
:100AA0001423462203219548983003F0A2FB9FEDC2
:100AB000811AF1EE0C0A9FED950A44F6206346F286
:100AC000A81203218948E43803F093FBB2EE041A1C
:100AD000DFED8D0AB3EE040A14233C22032187487C
:100AE0004C3003F086FB9FED741AF1EE000A9FED87
:100AF000880A46F2A8131A4603217C48983803F066
:100B000078FBB1EE041ADFED800AB3EE020A0A2385
:100B1000C82203217F4803F06CFB9FED661AF2EEBA
:100B2000000A9FED6A0A46F2A81346F678120321DE
:100B300078484C3003F05DFB9FED5E1ADFED720AE2
:100B4000B2EE0E0A04234FF48272032171484C382E
:100B500003F04FFB9FED571AF2EE000A9FED600A7B
:100B600041F2883346F2A81203216A48983003F014
:100B700040FB10BD2DE9F0412DED108B92B0B0EE91
:100B8000408A4FF01C08644890ED000ADFED630ACC
:100B900020EE200A10EE101A084612F061FE41EC19
:100BA0001B0BB0EE4B0AF0EE6B0A10F019FBB0EE27
:100BB00040AAF0EE60AA53EC1A2B9FED590B51ECB2
:100BC000100B12F085F841EC190B11F093FF05465C
:100BD000284612F045FE41EC1D0BB0EE4D1AF0EE2A
:100BE0006D1A9FED510B10F003FAB0EE40CAF0EE13
:100BF00060CA9FED4F0B53EC102B51EC1C0B12F005
:100C000091FA41EC1A0B18EE100A12F029FE41EC91
:100C10001B0B53EC1A2B11F09FFF41EC190B11F039
:100C200069FF0E90284612F01BFE41EC1A0B9FED57
:100C30003B0A28EE000A10EE101A084612F010FEC9
:100C400041EC1C0BB0EE4C0AF0EE6C0A10F0C8FA46
:100C5000B0EE40BAF0EE60BA53EC1A2B51EC1B0B1D
:100C600012F060FA41EC190B11F044FF0FEE100A7C
:100C7000284612F0F5FD41EC1A0B9FED280A28EEEC
:100C8000000A10EE101A084612F0EAFD41EC1C0BA7
:100C9000B0EE4C0AF0EE6C0A11F0BAF9B0EE40BAC0
:100CA000F0EE60BA53EC1A2B51EC1B0B44E0000041
:100CB0008029002000000000000048434040002040
:100CC0000AD7233C000070426F12833A000016439B
:100CD000982A00209A99193E00002042CDCC4C3F22
:100CE0000000964300002043C82B0020C02E0020A7
:100CF000CDCCCC3D9A99D94000003443F82C00204B
:100D000017B7D1380000F043CDCC4C3E0000AF43C4
:100D10000000E143F02F00209048002035FA8E3C7F
:100D20009A99999999991B40000000205C8F134073
:100D300000000020DCA54C4012F0F4F941EC190B46
:100D400011F0D8FE064618FB08F000EE100AB8EEC7
:100D5000C00AF0EE408A2FEE0F0A10EE104A18EE8D
:100D6000900A12F07DFDCDE90801304612F078FDC1
:100D700041EC1B0BB0EE000A28EE800A10EE101AB0
:100D8000084612F06DFD41EC1D0B204612F068FD87
:100D90009FEDFE0B53EC102BCDE900019DED000BF8
:100DA00051EC100B12F0BEF941EC1E0B53EC1D2B55
:100DB00011F08EFF41EC1C0B53EC1B2B11F0CCFE01
:100DC000CDE90401204612F04BFD41EC1B0B9FEDD9
:100DD000F10B53EC102B12F0A5F9CDE902019DEDBA
:100DE000040B53EC102B9DED020B51EC100B12F089
:100DF00099F9CDE906019DED080B53EC102B9DED03
:100E0000060B51EC100B11F063FFCDE90C012046ED
:100E100012F026FDCDE90A019DED0C0B53EC102BD1
:100E20009DED0A0B51EC100B12F030FC41EC1A0B4B
:100E3000B0EE4A0AF0EE6A0A11F04EF9B0EE409AAE
:100E4000F0EE609A51EC190B11F054FE0FEE900A7F
:100E5000204612F005FD41EC1A0B9FEDCC0B53EC34
:100E6000102B12F05FF941EC190B11F043FE1190B9
:100E70003FEE6F0A60EE280A9DED110A80EE801A9F
:100E800011EE107A384612F0EBFC41EC1A0BB0EE82
:100E90004A0AF0EE6A0A0FF03FFFB0EE409AF0EE19
:100EA000609A51EC190B11F025FE10909DED100A7F
:100EB000DFEDBA0A20EE200A8DED0F0A9DED0F0A34
:100EC00012B0BDEC108BBDE8F08110B52DED088B94
:100ED0000020B34981F83200B248007870B9B248B6
:100EE00090ED000AB14880ED000AAF4890ED010A8C
:100EF000AF4880ED000A0120AA490870AA4890ED89
:100F0000000AA74880ED040AA74890ED010AA4480A
:100F100080ED030AA44890ED030AA14880ED080A79
:100F2000A14890ED040A9E4880ED070AA148C07BC5
:100F300048B1A04890ED040AF7EE000A30EE200A0E
:100F400080ED040A04E01FEDA50A9A4880ED040A2A
:100F5000984890ED040AF7EE000AB4EEE00AF1EECC
:100F600010FA7CD20120944908709248B0F9080028
:100F700000EE100AB8EEC00A9048D0ED000AB4EEB8
:100F8000600AF1EE10FA6BD18A48B0F90A0000EE5F
:100F9000100AB8EEC00A8A48D0ED000AB4EE600A22
:100FA000F1EE10FA74D18349B1F9080012F053F848
:100FB00041EC1B0B9FED830B53EC102B12F0B2F89E
:100FC00041EC1A0B9FED811BB0EE4A0AF0EE6A0A63
:100FD00010F00EF8B0EE409AF0EE609A1FEDAC0BF8
:100FE00053EC102B51EC190B12F09CF841EC180B40
:100FF00011F080FD774908606E49B1F90A0012F0DE
:101000002AF841EC1B0B9FED6F0B53EC102B12F0E9
:1010100089F841EC1A0B9FED6D1BB0EE4A0AF0EE19
:101020006A0A0FF0E5FFB0EE409AF0EE609A1FED0D
:10103000C00B53EC102B51EC190B12F073F841EC70
:10104000180B11F057FD644908605A4890ED000AEA
:101050006048D0ED000A30EE200A604801E045E02B
:1010600016E0D0ED000A30EE200A5D4880ED000A5F
:10107000504890ED010A0846D0ED000A30EE200AF3
:101080005848D0ED000A30EE200A574880ED000A9B
:101090004848B0F9080000EE100AB8EEC00A474808
:1010A00080ED000A4348B0F90A0000EE100AB8EEDD
:1010B000C00A434880ED000A4C48407DB0B1484822
:1010C00090ED000AB1EE400A354880ED010A46482D
:1010D00090ED000AFFF74EFDB1EE400A4148D0ED19
:1010E000000A30EE200A2E4880ED020A2C4890EDCE
:1010F000020AFBEE090AB4EEE00AF1EE10FA04D897
:10110000BBEE090A80ED020A0DE0254890ED020AC7
:10111000F3EE010AB4EEE00AF1EE10FA03DBB3EEEF
:10112000010A80ED020A2448007858B9204890ED61
:10113000000A1B4880ED010A1C4890ED000A18487F
:1011400080ED020A1648D0ED071AB0EE611AD0ED14
:10115000031AF0EE610AD0ED011AB0EE610ADFED7C
:10116000241A00F1140200F5E16100F2246003F09A
:101170007EF8FFEE000A20EE200ABDEEC00A10EE57
:10118000100A01B20648818434E000009A999999C6
:10119000999923409A99999999993340E12E6542FA
:1011A000802900205C00002090480020440000209E
:1011B00048000020E85300205D000020540000207B
:1011C00058000020000000E0EF50743F00000000D5
:1011D0000000204060000020640000203400002057
:1011E0004C000020380000205000002080530020D8
:1011F00000000000D0ED081AB0EE611AD0ED041A1C
:10120000F0EE610AD0ED021AB0EE610A5FED081A45
:1012100000F1180200F2BC6100F5CE6003F027F87F
:10122000F7EE000A20EE200ABDEEC00A10EE100A0A
:1012300001B2FE48C184BDEC088B10BD10B52DED88
:10124000088B0020F94981F83200F948007870B91C
:10125000F84890ED000AF84880ED000AF54890ED56
:10126000010AF64880ED000A0120F1490870F148B2
:1012700090ED000AED4880ED040AEE4890ED010A79
:10128000EA4880ED030AEB4890ED030AE74880ED59
:10129000080AE84890ED040AE44880ED070AE848A7
:1012A000C07B48B1E64890ED040AF7EE000A30EE44
:1012B000200A80ED040A04E01FED330AE04880EDC7
:1012C000040ADF4890ED040AF7EE000AB4EEE00AE3
:1012D000F1EE10FA7ED20120DA490870D848B0F950
:1012E000080000EE100AB8EEC00AD748D0ED000A98
:1012F000B4EE600AF1EE10FA6DD1D148B0F90A00EF
:1013000000EE100AB8EEC00AD048D0ED000AB4EEE4
:10131000600AF1EE10FA5ED1C949B1F9080011F086
:101320009AFE41EC1B0B1FED590B53EC102B11F0E7
:10133000F9FE41EC1A0B1FED5B1BB0EE4A0AF0EE12
:101340006A0A0FF055FEB0EE409AF0EE609A9FEDFB
:10135000C00B53EC102B51EC190B11F0E3FE41ECD8
:10136000180B11F0C7FBBC490860B549B1F90A0078
:1013700011F071FE41EC1B0B1FED6E0B53EC102BAB
:1013800011F0D0FE41EC1A0B1FED701BB0EE4A0AB3
:10139000F0EE6A0A0FF02CFEB0EE409AF0EE609A82
:1013A0009FEDAB0B53EC102B51EC190B11F0BAFE67
:1013B00041EC180B11F09EFBA8490860A04890ED85
:1013C000000AA548D0ED000A30EE200AA448D0ED6E
:1013D000000A01E049E034E030EE200AA14880ED47
:1013E000000A974890ED010A0846D0ED000A30EE59
:1013F000200A9D48D0ED000A30EE200A9B4880ED7F
:10140000000A9B48407D98B1964890ED000A8748B5
:1014100080ED010A954890ED000AFFF7ABFB92487A
:10142000D0ED000A30EE200A804880ED020A08E084
:101430007E4890ED0A0A80ED020A90ED0B0A80EDDD
:10144000010A7F48B0F9080000EE100AB8EEC00AA1
:101450007D4880ED000A7A48B0F90A0000EE100AD3
:10146000B8EEC00A794880ED000A704890ED020A93
:10147000FBEE090AB4EEE00AF1EE10FA04D8BBEE76
:10148000090A80ED020A0DE0684890ED020AF3EEC9
:10149000010AB4EEE00AF1EE10FA03DBB3EE010A42
:1014A00080ED020A6748007858B9644890ED000A58
:1014B0005E4880ED010A604890ED000A5B4880EDCF
:1014C000020A5A48D0ED071AB0EE611AD0ED031A9D
:1014D000F0EE610AD0ED011AB0EE610A5FEDBC1AC0
:1014E00000F1140200F5956100F5717002F0BFFE85
:1014F000FFEE000A20EE200ABDEEC00A10EE100A30
:1015000001B24A488184D0ED081AB0EE611AD0EDDC
:10151000041AF0EE610AD0ED021AB0EE610A5FED36
:10152000CC1A00F1180200F25C4100F5826002F072
:101530009EFEF7EE000A20EE200ABDEEC00A10EE75
:10154000100A01B23948C184BDEC088B10BD10B53A
:101550002DED0A8BB0EE409AF0EE609AB0EE418A23
:101560009FED440B53EC102B51EC190B11F0DAFDED
:1015700041EC1C0B9FED410B53EC102B11F0D2FDF5
:1015800041EC1B0B9FED3F1BB0EE4B0AF0EE6B0ADC
:101590000FF094FEB0EE40AAF0EE60AA51EC1A0BE8
:1015A00011F0A8FA08EE100AB5EEC08AF1EE10FAB2
:1015B00005D29FED360A38EE000AB0EE408A18EEEA
:1015C000100A12F04DF941EC100BBDEC0A8B10BD66
:1015D00010B52DED108B84B02D4890ED121BB0EEA0
:1015E000410AF0EE610A2B4890ED001AFFF7AFFFB9
:1015F000B0EE408AF0EE608A51EC180B11F07AFAE6
:1016000024490860084690ED000ADFED230AB4EE95
:10161000E00AF1EE10FA43DB90ED000ADFED1B0A61
:1016200030EE600A1D4880ED000A3FE0802900206E
:101630005C0000209048002044000020480000206A
:10164000E85300205D0000205400002058000020D6
:1016500000000020DCA54C40600000206400002059
:10166000340000204C0000203800002050000020F2
:1016700080530020000000000000F0BF000000A028
:1016800046DF913F00000060FB211940DB0FC9409D
:10169000504D002090000020DB0F494094000020B6
:1016A000FE4890ED000AFE4880ED000A9FEDFD1A0D
:1016B000DFEDFD0AFA4890ED000AFC4802F035FC27
:1016C000B1EE400AFA4880ED000AFA4890ED5E0A51
:1016D000F94880ED000AF94880ED000AF6480068F4
:1016E00012F0BEF841EC190BB0EE490AF0EE690AAF
:1016F0000FF0DAFDB0EE408AF0EE608A9FEDF00B5D
:1017000053EC102B51EC180B11F0B2FE29D2EA4821
:10171000006812F0A5F841EC190BE748006812F0D8
:101720009FF841EC1C0BB0EE4C0AF0EE6C0A0FF087
:10173000BBFDB0EE40BAF0EE60BA9FEDE10B53ECAA
:10174000102B51EC1B0B11F0EDFC41EC1A0B53EC80
:10175000192B11F0BDFA41EC180B11F0CBF9D64959
:101760000860D648006812F07BF841EC190BB0EE27
:10177000490AF0EE690A0FF097FDB0EE408AF0EEEC
:10178000608A9FEDD10B53EC102B51EC180B11F02C
:101790006FFE29D2C948006812F062F841EC190BBB
:1017A000C648006812F05CF841EC1C0BB0EE4C0A25
:1017B000F0EE6C0A0FF078FDB0EE40BAF0EE60BAD1
:1017C0009FEDC10B53EC102B51EC1B0B11F0AAFC3D
:1017D00041EC1A0B53EC192B11F07AFA41EC180B6F
:1017E00011F088F9B5490860B34890ED000AB5EEEC
:1017F000C00AF1EE10FA21D0006812F031F841EC85
:10180000190BAD48006812F02BF841EC1B0BB0EE41
:101810004B0AF0EE6B0A0FF047FDB0EE40AAF0EE77
:1018200060AA53EC192B51EC1A0B11F051FA41EC50
:10183000180B11F05FF9A649086004E0B7EE000A42
:10184000A34880ED000A9B48407803280BD0A148AC
:1018500090ED010A974880ED0B0A9E4890ED000A32
:10186000944880ED0A0A934890F8320001287DD10F
:101870009948807A002879D09848C07C002876D092
:10188000944890ED000A10EE101A084611F0E8FF97
:1018900041EC190BB0EE481AB0EE490AF0EE690AB5
:1018A000FEF7A3FEB0EE408A8A4890ED010A10EEE2
:1018B000101A084611F0D4FF41EC190BB0EE681A6B
:1018C000B0EE490AF0EE690AFEF78FFEF0EE408AAC
:1018D000784880ED048AC0ED038A90ED010AD0EDCE
:1018E000030A30EE600A10EE101A084611F0B8FF35
:1018F00041EC1A0BB0EE4A0AF0EE6A0A0FF0D4FC83
:10190000B0EE409AF0EE609A9FED750B53EC102B01
:1019100051EC190B11F0CAFB04D20120654981F882
:10192000310003E00020634981F83100694890EDFF
:10193000030A604880ED080A664890ED040A5D4895
:1019400080ED070A6448D0F8050000EE100AB5EEF5
:10195000C00AF1EE10FA11D05F48D0F8010000EE95
:10196000100AB5EEC00AF1EE10FA01E021E179E0CB
:1019700004D05948D0F801005B4908605648D0F8B7
:10198000010000EE100AB1EE400A5848D0ED000AFE
:1019900030EE200A474880ED020A534890ED000AD5
:1019A0005348D0ED000A30EE200A424880ED010A8B
:1019B00090ED010AD0ED030A30EE600A10EE101A25
:1019C000084611F04DFF41EC190B9FED4A0B53EC0B
:1019D000102B11F04DFD09D2364890ED010ADFEDD4
:1019E000470A30EE600A80ED010A1DE0314890EDB3
:1019F000010AD0ED030A30EE600A10EE101A084614
:101A000011F02EFF41EC190B9FED3D0B53EC102B09
:101A100011F04CFB08D2274890ED010ADFED370AA0
:101A200030EE200A80ED010A224890ED020AFBEE1A
:101A3000090AB4EEE00AF1EE10FA04D8BBEE090A86
:101A400080ED020A0DE01B4890ED020AF3EE010A58
:101A5000B4EEE00AF1EE10FA03DBB3EE010A80ED1A
:101A6000020A5AE01B4890ED000A124880ED040A71
:101A7000184890ED010A0F4880ED030A154890EDD3
:101A8000030A0C4880ED080A124890ED040A094840
:101A900080ED070A0F4890ED000A35E09000002025
:101AA00094000020920A863E000000004040002082
:101AB0009800002080290020740000207800002079
:101AC0000000000000003E40000000000000144044
:101AD0007C00002090480020505800201C58002016
:101AE00000000000000000406800002040000020CE
:101AF0003C00002000000000008066400000B4436D
:101B000000000000008066C0FE4880ED020AFE482A
:101B100090ED010AFB4880ED010AFA4890ED072A92
:101B2000FA48D0ED002A22EE222AF0EE421AF548B9
:101B300090ED072AB0EE421A90ED032AF0EE420A29
:101B400090ED012AB0EE420A00F1140200F54B714B
:101B500000F5257002F08BFBFFEE000A20EE200A54
:101B6000BDEEC00A10EE100A01B2E6488184D0ED45
:101B7000081AB0EE611AD0ED041AF0EE610AD0ED49
:101B8000021AB0EE610A5FED381A00F1180200F592
:101B90005E7100F5387002F06AFBF7EE000A20EE85
:101BA000200ABDEEC00A10EE100A01B2D548C18469
:101BB000F6E0D54890ED000AD24880ED040AD248FC
:101BC00090ED010ACF4880ED030ACF4890ED030A5B
:101BD000CC4880ED080ACC4890ED040AC94880ED55
:101BE000070A90ED0A0A80ED020A90ED0B0A80EDDB
:101BF000010AC748006D502803D90021C1488184DB
:101C0000CEE0C448B0F90C0002EE100AB8EEC22AC9
:101C1000C148D0ED002A22EE222AC048D0ED002A89
:101C2000BF4890ED003A62EE832ABE4890ED003A3C
:101C300002EE832AF0EE421AB24890ED072AB0EE87
:101C4000421A90ED032AF0EE420A90ED012AB0EE1E
:101C5000420A00F1140200F5FE7100F5B27002F0C4
:101C600006FBFFEE000A20EE200A10EE104A204686
:101C700011F0F6FD41EC180BAB48006811F0F0FDD7
:101C800041EC1E0B1FED6A1BB0EE4E0AF0EE6E0A21
:101C90000FF096FBB0EE40CAF0EE60CAA3480068B1
:101CA00011F0DEFD41EC1D0B53EC1C2B11F03AFA48
:101CB00041EC1A0B9E48006811F0D2FD41EC1F0B5D
:101CC0009FED9C1BB0EE4F0AF0EE6F0A0FF078FB11
:101CD0008DED000B9948006811F0C2FD41EC1E0B20
:101CE0009DED000B53EC102B11F01CFA41EC1C0B7A
:101CF000844890ED070A8548D0ED000A20EE200ABE
:101D000010EE101A084611F0ABFD41EC1D0B53EC20
:101D10001C2B10F021FF41EC1B0B53EC1A2B10F085
:101D20001BFF41EC190B53EC182B10F015FFCDE9FC
:101D300002019DED020B51EC100B11F05DF901B2A7
:101D4000704881847348B0F90E0002EE100AB8EEB4
:101D5000C22A7B48D0ED002A22EE222AF0EE421A57
:101D6000684890ED082AB0EE421A90ED042AF0EE91
:101D7000420A90ED022AB0EE420A00F1180200F584
:101D8000127100F5D87002F072FAF7EE000A20EE38
:101D9000200ABDEEC00A10EE100A01B25948C184F3
:101DA00004B0BDEC108B10BD10B52DED048B0020E0
:101DB000644908706449087000BF1FEDC50A5148A6
:101DC00080ED020A504890ED000A4E4880ED040A6A
:101DD0001FEDCB0A80ED010A4D4890ED121BB0EECD
:101DE000410AF0EE610A51EC100B10F077FE10F092
:101DF00081FE4449C860444890ED040A084680EDDD
:101E0000070A414890ED030A084680ED080A90ED64
:101E1000030A5FEDC60A80EE201ABDEEC10A10EE7D
:101E2000104A4FF4B47104FB01F000EE100AB8EE52
:101E3000C00A344880ED010A90ED010AD0ED030A92
:101E400030EE600ADFED410AB4EEE00AF1EE10FA7E
:101E500008DB90ED010A5FEDD70A30EE600A80EDF5
:101E6000010A15E0274890ED010AD0ED030A30EE93
:101E7000600ADFED370AB4EEE00AF1EE10FA07D29D
:101E800090ED010A5FEDE30A30EE200A80ED010AD1
:101E90001C48D0ED071AB0EE611AD0ED031AF0EE2F
:101EA000610AD0ED011AB0EE610ADFED2A1A00F1E5
:101EB000140200F1CC01343002F0D9F9FFEE000A2F
:101EC00020EE200ABDEEC00A10EE100A01B20D4845
:101ED0008184D0ED081AB0EE611AD0ED041AF0EE4C
:101EE000610AD0ED021AB0EE610ADFED1A1A00F1B4
:101EF000180200F58C71803002F0B9F9F7EE000A93
:101F00002AE0000080290020904800208400002062
:101F1000504D0020805300206C0000208C000020D9
:101F2000980000207C000020740000208000002029
:101F30007800002000000000000008408800002019
:101F4000700000205C0000205D0000200000354390
:101F5000000033C30000000020EE200ABDEEC00ADE
:101F600010EE100A01B25948C18490ED020AD0ED7A
:101F7000040A30EE600A10EE101A084611F070FCE8
:101F800041EC190BB0EE490AF0EE690A0FF08CF93A
:101F9000B0EE408AF0EE608A9FED4D0B53EC102BB3
:101FA00051EC180B11F082F83FD8484890ED010A27
:101FB000D0ED030A30EE600A10EE101A084611F058
:101FC0004FFC41EC190BB0EE490AF0EE690A0FF034
:101FD0006BF9B0EE408AF0EE608A9FED3F0B53EC58
:101FE000102B51EC180B11F061F81ED80120374965
:101FF00081F830003A4890ED000A3A4880ED000A36
:1020000090ED000A3848D0ED000A30EE200A37483B
:1020100080ED000A334890ED000A3548D0ED000A03
:1020200030EE200A334880ED000ABDEC048B10BD71
:1020300010B526480078032816D003DC38B10128F3
:102040001BD10EE00B2812D00C2816D112E024214F
:102050001E48001D0DF0B5FE00201C4981F830001F
:102060000CE0FFF7A1FE09E0FFF7B2FA06E0FFF788
:10207000E5F803E0FEF729FF00E000BF00BF1348CA
:1020800090ED020A1B48D0ED000AB4EEE00AF1EE32
:1020900010FA05D890ED000A0C4880ED020A0FE016
:1020A0000A4890ED020A1148D0ED000AB4EEE00AA9
:1020B000F1EE10FA04DB90ED000A044880ED020A0C
:1020C000024800780149487010BD000080290020B6
:1020D0000000000000001040000000000000F83F79
:1020E000904800202800002030000020240000201C
:1020F0002C0000202000002010B52DED088BF748A3
:102100000078F7490870F748807EF449087008465F
:102110000078F3490978884206D00020F249087017
:102120004870F24908734873EE48807E012804D055
:1021300002287DD003287CD1BFE0EB48007801283D
:1021400011D0E8484088A0F5806000EB400000B264
:10215000E6490882E3480088A0F5806000EB400073
:1021600001B2E2484182E0480078032857D1DD49B6
:10217000B1F90610A1F5806010F06DFF41EC1B0B6A
:102180009FEDDB0B53EC102B10F0CCFF41EC190B47
:10219000D54890ED0A0A10EE101A084611F060FBBF
:1021A00041EC1A0B53EC192B11F070FA41EC180B9F
:1021B00010F0A0FCCC498862084690ED0B0AC94893
:1021C000B0F90400A0F5806000EE900AF8EEE00A95
:1021D0009FEDC91A00EE810A084680ED0B0A90EDCA
:1021E0000A0AC648D0ED000AB4EEE00AF1EE10FA91
:1021F00005D890ED000A084680ED0A0A0FE0BA48BB
:1022000090ED0A0ABE48D0ED000AB4EEE00AF1EE05
:1022100010FA04DB90ED000AB34880ED0A0AB248D8
:10222000007801280AD0B04800780C2806D001E0D8
:10223000D8E1DDE1AC4800780B2802D10120AB49A0
:102240000873A9480078012809D0A648807E022892
:1022500005D0A548407810B90320A3490870A248CA
:10226000407840B9A048007828B101209E49087004
:10227000002081F830009C480078032803D1012019
:102280009A4981F84400984890F83000012813D109
:102290000320954908709348807F38B107209349FF
:1022A000087340F226219148818205E003208F497E
:1022B000087300218D4881829BE18B4800780128BA
:1022C00070D0884890F82D0038B103208749887372
:1022D0004FF496608B49088006E00220834988739A
:1022E0004FF4FA70874908807E4890F8290028B199
:1022F0008448B0F900007D4908820DE0794890F8E3
:102300002B0030B17F480088404200B277490882F4
:1023100002E0002075490882724890F82A00A8B1AE
:102320007248807B03280AD17649B1F900104842EF
:1023300000EBD07149100AB26C494A8220E0714822
:102340000088404201B26948418219E0654890F82E
:102350002C0090B16548807B032808D16949B1F908
:10236000000000EBD0714910604A518208E06548D6
:10237000B0F900105D48418202E000215B484182D3
:102380005948007803286AD15648407D50B95548CD
:10239000B0F90C0010F1640F05DC6FF063005149D7
:1023A000888108E05BE04F48B0F90C00642802DB4C
:1023B00064204C4988814B48B0F90E0010F1640F3D
:1023C00004DC6FF063014748C18107E04548B0F97C
:1023D0000E00642802DB64214248C181424890ED2E
:1023E0000B0A4048B0F90C0000EE900AF8EEE00A43
:1023F0009FED451A00EE810A3B4880ED0B0A90EDF7
:102400000A0A3848B0F90E0000EE900AF8EEE00A29
:102410009FED3E1A00EE810A334880ED0A0A90EDE6
:102420000A0A3648D0ED000AB4EEE00AF1EE10FADE
:1024300005D890ED000A2C4880ED0A0A0FE02A48E2
:1024400090ED0A0A2E48D0ED000AB4EEE00AF1EE53
:1024500010FA04DB90ED000A234880ED0A0A2248B6
:102460000078012807D0204800780C2803D01E48A7
:1024700000780B2802D101201C4908731A48007803
:10248000012809D01748807E022805D016484078D8
:1024900010B90320144908701348407840B9124815
:1024A000007828B1012010490870002081F8300020
:1024B0000D480078032803D101200C4981F844001D
:1024C000094890F83000012874D1064890F8470078
:1024D000F0B10C200449087027E00000A0000020A3
:1024E000A10000208053002080290020D43000204B
:1024F000FCA9F1D24D62803F6F12033C2000002006
:10250000240000209C0000208FC2753D0AD7233D87
:10251000474890F8450018B10B204649087004E080
:1025200003204449087044490873414890F83F002B
:1025300038B107204049087300213D4880F8401019
:1025400030E03D48C07B022802D101203B490870A1
:102550003A480078012822D13749C87338480068C2
:1025600030B9384840683849B0FBF1F03449086068
:10257000072031490873334840683349B0FBF1F014
:102580002F490968401AB0F5FA6F0BD903202A4980
:10259000087300202A4908602849087002E00320D7
:1025A000254908732248407D28B10120214981F83E
:1025B000320004E015E000201E4981F832001C487A
:1025C00090F8380010B1002020494870184890F861
:1025D000400018B101201849C87302E000201649D4
:1025E000C87306E00020134908701349087300E01F
:1025F00000BF00BF1048007B0F494873BDEC088B3B
:1026000010BD012080F3138800BF00BFBFF34F8FC0
:102610000F48006800F4E0600E490843001D0C49B3
:102620000860BFF34F8F00BF00BF00BFFDE7000091
:102630008053002080290020D4300020AA030020ED
:10264000A4000020001000E040900200DC03002005
:102650000CED00E00000FA0510B5044604F1680333
:102660000122042104F1100008F028FB04F1780392
:102670000122022104F1380008F020FB04F59073D8
:102680000422114604F1180008F018FB04F1E003DD
:102690000422114604F1200008F010FB04F120018F
:1026A00004F1180009F06BFF04F5D0730422114601
:1026B00004F1480008F002FB04F5C0730422022173
:1026C00004F1280008F0FAFA04F5B073022204219C
:1026D00004F1300008F0F2FA04F1300104F12800AE
:1026E00009F04DFF04F5F0730222114604F1400099
:1026F00008F0E4FA04F1A0030422114604F15000AA
:1027000008F0DCFA04F180030222042104F15800ED
:1027100008F0D4FA04F5F8730422114604F16000BD
:1027200008F0CCFA10BD30B52DED028B95B0044603
:10273000B0EE408AF0EE608A0D467F48007828B9F6
:1027400001207D4908707D48FFF786FF7C4B0422FD
:10275000114613A808F0B2FA7A4B0422114611A8C8
:1027600008F0ACFA784B022204210FA808F0A6FA70
:10277000764B042202210DA808F0A0FA744B022225
:1027800011460BA808F09AFA724B0222114609A8CA
:1027900008F094FA704B0122022107A808F08EFA83
:1027A0006E4B0122022105A808F088FA6C4B012229
:1027B000042103A808F082FA6A4B0122042101A82F
:1027C00008F07CFAE06B80ED008AE06BC0ED018AD6
:1027D00003AA04F1100104F1180009F006F804221C
:1027E00004F168015E480CF0AEFC2878002871D036
:1027F00013AA04F1500104F1180008F0F6FF11AA21
:1028000004F1200113A808F0F0FF04F1500204F1D4
:10281000480111A807F0BEFF0FAA04F1300104F12E
:10282000500008F0E2FF0DAA04F1500104F1280065
:1028300008F0DBFF0BAA04F130010DA808F0D5FF6A
:1028400009AA04F140010BA807F0A4FF0BA909A8ED
:1028500008F040FA04F158020BA90FA808F0C5FFD0
:1028600007AA04F1100104F1280008F0BEFF05AA30
:1028700007A904F1380009F02CFE03AA05A904F108
:10288000580008F0B2FF01AA03A904F1100007F0F4
:1028900081FF042204F1680132480CF054FC13AAB1
:1028A00004F1280104F1580008F09FFF11AA13A9B0
:1028B00004F1600009F00DFE13AA04F1500111A803
:1028C00008F093FF102204F1A0011D480CF03BFC1E
:1028D00000202870606990ED000A84ED000A6069AC
:1028E00090ED010A84ED010A606990ED020A84ED21
:1028F000020A606990ED030A84ED030A15B0BDEC8D
:10290000028B30BD10B504460C48FFF7A5FE9FEDC5
:10291000160A606980ED000A9FED130A606980ED78
:10292000010A9FED110A606980ED020A9FED0E0A0F
:10293000606980ED030A10BDEC020020AC000020AD
:10294000FC3100208C3100203C320020CC310020B2
:102950005C320020EC310020E4020020DC02002088
:102960007C3100206C3200200000000010B5B2EE77
:10297000041ADFEDFE0AB3EE040A4FF47A7341F253
:1029800070720321FA4801F034FC9FEDFA1ADFED72
:10299000F90AB3EE0E0A42F2107347F2481203210D
:1029A000F54801F026FC9FEDF31ADFEDF40A9FEDE8
:1029B000F40A32234FF4FA620321F24801F019FCC1
:1029C0009FEDEC1ADFEDEB0AB3EE040A41F27C5303
:1029D00042F210720321EC4801F00BFC9FEDE51A66
:1029E000DFEDE40A9FEDE90A4FF4FA7343F68C42F7
:1029F0000321E74801F0FDFB9FEDDE1ADFEDDD0A64
:102A00009FEDE20A4FF4FA7343F68C420321E0484B
:102A10004C3801F0EEFB9FEDDF0ADF4880ED050A40
:102A20000120DD4948709FEDDD0A084680ED150A5A
:102A300010BDF0EE400AB3EE0B0A30EE600AD84843
:102A400080ED000A90ED000AB3EE041A20EE010AB0
:102A50007047D448B0F83F10B0F84E00081A0A2169
:102A600090FBF1F000EE100AB8EEC00ACA4880ED03
:102A7000110ACC48B0F83D00C749A1F85E00C9482A
:102A800090F83800012805D1B2EE0C0A084680ED16
:102A9000130A67E0C34890F83800022805D1B3EE66
:102AA000000ABD4880ED130A5CE0BE4890F838008B
:102AB000032805D1B3EE020AB74880ED130A51E0AE
:102AC000B84890F83800042805D1B3EE030AB2489C
:102AD00080ED130A46E0B34890F83800052805D188
:102AE000B3EE040AAC4880ED130A3BE0AD4890F821
:102AF0003800062805D1B3EE050AA74880ED130A71
:102B000030E0A84890F83800072805D1B3EE080A4D
:102B1000A14880ED130A25E0A24890F83800082863
:102B200005D1B3EE090A9C4880ED130A1AE09D48CE
:102B300090F83800092805D1B3EE090A964880EDCF
:102B4000130A0FE0974890F838000A2805D1B3EE31
:102B50000A0A914880ED130A04E0B3EE030A8E4896
:102B600080ED130A704710B52DED0A8BFFF771FF4A
:102B7000894890ED130AB5EEC00AF1EE10FA7CD048
:102B8000884890F838000B2878D2DFE800F0770604
:102B9000356478A7D6EEEDECEB007F4890ED130A94
:102BA00010EE101A084610F05BFE41EC190B7A4843
:102BB00090ED110A10EE101A084610F051FE41EC8B
:102BC0001C0B9FED790B53EC102B10F05FFD41ECCB
:102BD0001B0B9FED770B53EC102B10F0A3FA41EC7D
:102BE0001A0B53EC192B10F073F841EC180B0FF083
:102BF00081FF69490864D2E1674890ED130A10EE3D
:102C0000101A084610F02CFE41EC190B624890EDAA
:102C1000110A10EE101A084610F022FE41EC1C0BAF
:102C20009FED610B53EC102B10F030FD41EC1B0BB2
:102C30009FED5F0B53EC102B10F074FA41EC1A0B64
:102C400053EC192B10F044F841EC180B0FF052FF25
:102C500051490864A3E1504890ED110AF1EE000AD1
:102C600030EE600ADFED540A20EE200AD0ED130AA0
:102C700080EE201A80ED101A91E191E17DE1464845
:102C800090ED130A10EE101A084610F0E9FD41EC21
:102C9000190B414890ED110A10EE101A084610F079
:102CA000DFFD41EC1C0B9FED450B53EC102B10F09E
:102CB000EDFC41EC1B0B9FED3E0B53EC102B10F089
:102CC00031FA41EC1A0B53EC192B10F001F841ECDE
:102CD000180B0FF00FFF3049086460E12E4890EDAB
:102CE000130A10EE101A084610F0BAFD41EC190B49
:102CF000294890ED110A10EE101A084610F0B0FDA8
:102D000041EC1C0B9FED2F0B53EC102B10F0BEFC75
:102D100041EC1B0B9FED260B53EC102B10F002FA2D
:102D200041EC1A0B53EC192B0FF0D2FF41EC180BAE
:102D30000FF0E0FE1849086431E1174890ED130ADE
:102D400010EE101A084610F08BFD41EC190B1248DA
:102D500090ED110A10EE101A084610F081FD41ECBA
:102D60001C0B33E0DAE0AAE07AE04AE0CDCC4C3E3E
:102D70007C32002000000000603300200AD7233C92
:102D80009A997941C832002014330020000048424B
:102D9000F833002000007AC4F00200200000A042B6
:102DA00084030020C45200209A999999999905406A
:102DB0000000000000408F4000007A44CDCCCCCC15
:102DC000CCCC10409A999999999911409FEDFE0B9E
:102DD00053EC102B10F05AFC41EC1B0B1FED0C0BAD
:102DE00053EC102B10F09EF941EC1A0B53EC192BFD
:102DF0000FF06EFF41EC180B0FF07CFEF4490864F5
:102E0000CDE0F34890ED130A10EE101A084610F0CA
:102E100027FD41EC190BEE4890ED110A10EE101A47
:102E2000084610F01DFD41EC1C0B9FEDEA0B53EC26
:102E3000102B10F02BFC41EC1B0B1FED230B53EC64
:102E4000102B10F06FF941EC1A0B53EC192B0FF00B
:102E50003FFF41EC180B0FF04DFEDD4908649EE08A
:102E6000DB4890ED130A10EE101A084610F0F8FC3B
:102E700041EC190BD64890ED110A10EE101A0846D5
:102E800010F0EEFC41EC1C0B9FEDD40B53EC102B1F
:102E900010F0FCFB41EC1B0B1FED3B0B53EC102B1C
:102EA00010F040F941EC1A0B53EC192B0FF010FF06
:102EB00041EC180B0FF01EFEC54908646FE0C448D2
:102EC00090ED130A10EE101A084610F0C9FC41EC00
:102ED000190BBF4890ED110A10EE101A084610F0B9
:102EE000BFFC41EC1C0B9FEDBF0B53EC102B10F003
:102EF000CDFB41EC1B0B1FED520B53EC102B10F0D4
:102F000011F941EC1A0B53EC192B0FF0E1FE41ECD7
:102F1000180B0FF0EFFDAE49086440E0AC4890EDAF
:102F2000130A10EE101A084610F09AFC41EC1A0B26
:102F3000A74890ED110A10EE101A084610F090FC08
:102F400041EC1C0B9FEDA90B53EC102B10F09EFBDA
:102F500041EC1B0B1FED6A0B53EC102B10F0E2F849
:102F600041EC180B53EC1A2B0FF0B2FE41EC190B8D
:102F70000FF0C0FD9649086411E0954890ED110AE4
:102F8000F1EE000A30EE600A5FED750A20EE200ACD
:102F9000D0ED130A80EE201A80ED101A00BF00BF9A
:102FA000BDEC0A8B10BD10B52DED048B884890F850
:102FB0003C00012831D1864890F83A0001282CD1F4
:102FC00083484078012828D18A480068401C8949F4
:102FD000086008460068142834DA7D4890ED110A2C
:102FE000F1EE000AB4EEE00AF1EE10FA2ADD90EDFF
:102FF000130A10EE101A084610F032FC41EC190BBF
:103000009FED7D0B53EC102B10F08CF841EC180B5E
:103010000FF070FD6E49C86414E000207549086027
:103020006B4890ED130AB5EEC00AF1EE10FA04D029
:10303000734890ED040A80ED030A1FEDB20A64485C
:1030400080ED130ABDEC048B10BD10B52DED088B7F
:103050006C49B1F83D0010F015F841EC1B0B9FEDE9
:103060006A0B53EC102B10F05DF841EC190B65491D
:10307000B1F83F20B1F84E10501A0FF0ECFF41ECC0
:103080001A0B53EC192B0FF067FD41EC180B0FF0E6
:1030900031FD4F4948650846D0ED150A5C4890ED72
:1030A000000AB8EEC00AF4EEC00AF1EE10FA02DD32
:1030B0000120487002E0002045494870BDEC088BB3
:1030C00010BD10B52DED028B2D20414981F848002F
:1030D000FFF749FD4F4800780B2873D04D48007822
:1030E0000C28FAD03A4890ED100AB5EEC00AF1EE7D
:1030F00010FA68DD90F83C00012864D1344890F85B
:103100003A000128F9D1324840780128F5D14248E7
:103110000068401C404908600968C8290FD33F492E
:10312000D1F8A001002801DB014600E0414203295B
:1031300005DA01203A49087000203749086038480C
:103140000078012876D137480068401C354908606E
:1031500008460068642804D90020314908703149C4
:1031600008601B4890ED130ADFED2F0A20EE200ABD
:10317000DFED2E0A20EE200ADFED2D0A80EE201A68
:1031800090ED040A30EE410A80ED030A234890EDE9
:103190006A1BB0EE410AF0EE610A51EC100B0FF021
:1031A000A9FC0B4908611D48D0F8A00100EE100AE7
:1031B000B8EEC00A084680ED020AD0ED021AB0EE61
:1031C000611A38E0AFE09CE06666666666661240AB
:1031D000F0020020000000000000144033333333BD
:1031E000333317403333333333331B409A99999930
:1031F00099991D4088030020333333333333F33F31
:103200007C320020C4520020FCA9F1D24D62603F04
:1032100068030020802900208C03002068500020D3
:10322000940300209003002000003442000010426C
:103230000000FA4315E0D0ED041AF0EE610AD0ED7B
:10324000031AB0EE610ADFEDFE1A021DFD49FE48C9
:1032500001F00DF8BDEEC00A10EE100A00B2FB49F5
:103260008886FA4890F83C00D8B3F9480078C0BB8B
:10327000F64890ED130A5FED140A20EE200A5FED88
:10328000150A60EE200A1FED161A80EE810AD0EDB5
:10329000040A30EE200A80ED030AEE4890ED6A1B26
:1032A000B0EE410AF0EE610A51EC100B0FF022FC77
:1032B000E6490861E748D0F8A00100EE100AB8EE30
:1032C000C00A084680ED020AD0ED021AB0EE611A7B
:1032D000D0ED041AF0EE610AD0ED031AB0EE610AE7
:1032E00000E01AE0DFEDD61A021DD649D64800F0FC
:1032F000BEFFBDEEC00A10EE100A00B2D3498886A8
:103300000BE0D14890ED040A80ED030A0020CF497C
:103310008886D1490860D14908600020D0490860FA
:10332000D0490860EBE0CE480068E0B90120CE4902
:103330000870C84890ED6A1BB0EE410AF0EE610AD1
:103340009FEDCA1B53EC112B51EC100B0FF0C0FC7E
:1033500041EC180B0FF0CEFBBC490861084690ED1C
:10336000040A80ED030ABE480068401CBC4908609E
:10337000B64890F83C0001287ED1BE48007D012867
:1033800005D1BD480068401CBB49086002E0002030
:10339000B9490860B8480068B0F5967F0BDDB748BA
:1033A00000684FF4487190FBF1F201FB120010B974
:1033B0000020B3490870AF48007D012804D0AD4813
:1033C00090F8280001280ED1AD48007830B90120CE
:1033D000AB4908709D4981F83A0007E000209B49FD
:1033E00081F83A0002E00020A54908709E48007864
:1033F00048B3A4480068401CA24908600846006819
:10340000B0F5C87F0EDA9148D0ED030A90F8480075
:1034100000EE100AB8EE400A30EEC00A8B4880ED8C
:10342000030A28E0002097490860884890ED040AC4
:1034300080ED030A00208C4908708A480068401C0F
:103440008849086017E0814890F83A00012812D1B5
:103450007E48D0ED030A90F8480000EE100AB8EE5E
:10346000400A30EE800A794880ED030A7D48006802
:10347000401C7C49086000E039E0764890ED6A1B0A
:10348000B0EE410AF0EE610A9FED7F1B53EC112B69
:1034900051EC100B0FF01CFC41EC180B0FF02AFB49
:1034A0006A4908616B48B0F9B40100EE100AB8EE41
:1034B000C00A084680ED020AD0ED021AB0EE611A89
:1034C000D0ED041AF0EE610AD0ED031AB0EE610AF5
:1034D000DFED5B1A021D6E496E4800F0C8FEBDEEBE
:1034E000C00A10EE100A00B25849888607E0574813
:1034F00090ED040A80ED030A002054498886BDEC53
:10350000028B10BD10B5514890F83C00012820D125
:103510004E48D0ED1C0AB0EE600AFFF78AFA4B481D
:10352000D0ED050A30EEC00A5B4880ED030A47483B
:10353000D0ED1C0AB0EE600AFFF77BFA4348D0EDED
:10354000050AF1EE600A30EE200A534880ED160AB3
:1035500008E09FED3B0A504880ED030A9FED380AD2
:1035600080ED160A4D48D0F8A00100EE100AB8EE22
:10357000C00A494880ED040A4848D0F8F80100EE36
:10358000100AB8EEC00A444880ED170A90ED031AFD
:10359000F0EE410A90ED041AB0EE410A00F0CEFAC6
:1035A000BDEEC00A10EE100A00B22849C8863A489B
:1035B00090ED161AF0EE410A90ED171AB0EE410A9E
:1035C0004C3000F0BBFABDEEC00A10EE100A01B29A
:1035D0001E48018710BD10B52648807E012804D002
:1035E00002282CD0032873D166E02248C07F98B10E
:1035F0000120164981F83C00294890F83200012842
:1036000004D10102274804F0E3FF0EE04FF480717B
:10361000244804F0DBFF08E000200C4981F83C005E
:103620004FF480711F4804F0D3FF1248B0F908002E
:1036300040F2DC5188423ADD0120044934E096E052
:1036400000000000603300207C320020F0020020E7
:1036500094030020685000208C0300209003002079
:10366000700300207803002074030020CBA145B62E
:10367000F30D4240805300207C03002018000020FE
:10368000950300206C030020000000C0F30D4240B1
:1036900014330020C8320020AC330020584E0020E4
:1036A000802900200000024081F83A0003E0002059
:1036B000574981F83A0066E05648407D01280DD10F
:1036C0005448007D012804D1514981F83A0011E0A5
:1036D00058E000204E4981F83A000BE04D48007D4B
:1036E000012803D14A4981F83A0003E00020484903
:1036F00081F83A00474890F8360038B346480068E9
:10370000401C4549086008460068B0F5FA7F13DAA6
:1037100001203F4981F83C00404890F832000128E0
:1037200004D101023E4804F053FF12E04FF48071CF
:103730003B4804F04BFF0CE00020354981F83C0089
:103740004FF48071364804F043FF02E00020324914
:103750000860304890F8400020B101202C4981F8E1
:103760003B0003E000202A4981F83B000BE00020E9
:10377000274981F83C0081F83A002A4908602A4923
:10378000086000E000BF00BF10BD10B5FFF723FFC9
:10379000FFF75BFCFFF795FCFFF7B4FE10BDF0EE02
:1037A000400A90ED010A80ED020A90ED040A80EDD6
:1037B000050A90ED010A80ED020A90ED040A80ED01
:1037C000050A90ED020A90ED001A30EE010A90ED24
:1037D000021AC1EE001AC0ED031A90ED050A90ED31
:1037E000031AD0ED051A70EEE11A01EE210A80ED00
:1037F000040A90ED030AB7EE001A31EE400A90ED8C
:10380000021A20EE010A80ED010A90ED040A7047C9
:10381000F002002080530020800300208029002037
:1038200000000240700300207803002010B59FEDD7
:103830009D1ADFED9C0AB2EE0E0A0A2342F21072C4
:103840000321994800F0D5FC9FED961ADFED950A0B
:10385000B1EE000A0A234FF49672032192484C30CD
:1038600000F0C7FC9FED8F1ADFED8E0AB2EE000A62
:103870000A2342F2107203218B48983000F0B9FC01
:103880009FED881ADFED870AB1EE000A0A234FF494
:10389000967203218448E43000F0ABFC10BD8348ED
:1038A000807E012802D003282DD110E07F48B0F996
:1038B000080040F2DC51884204DD02207A491C39BC
:1038C000087603E0012078491C3908761CE0774827
:1038D00090F8320048B174481C38007E012804D1A9
:1038E000022071491C3908760CE0704890F83300CA
:1038F00040B16D481C38007E022803D101206A497E
:103900001C39087600E000BF00BF704710B52DEDF0
:10391000048BFFF7C4FF64481C38807800286FD1FF
:1039200061491C3908769FED620A084680ED030A5A
:103930006048006C00EE100AB8EEC00A084680ED40
:10394000040A90ED031AF0EE410A90ED041AB0EE6D
:10395000410A1C3000F0F2F8BDEEC00A10EE100A69
:1039600001B251481C3881825249B1F956000FF01A
:1039700072FB41EC190BB0EE490AF0EE690A0DF04A
:1039800093FCB0EE408AF0EE608A9FED4B0B53EC57
:10399000102B51EC180B0FF06BFD31D24549086C20
:1039A0000FF059FB41EC190BB0EE490AF0EE690A31
:1039B0000DF07AFCB0EE408AF0EE608A9FED400B8D
:1039C00053EC102B51EC180B0FF070FB18D236484B
:1039D0001C380088401C34491C390880084600887F
:1039E000B0F57A7F0CDB334880683249886100216A
:1039F0002D481C38818201202B491C39087688709B
:103A000029481C388078012849D1002026491C39D2
:103A100008800846007E022805D19FED2B0A084643
:103A200080ED010A05E09FED1F0A1F481C3880ED5C
:103A3000010A2048006C00EE100AB8EEC00A1A48CD
:103A40001C3880ED040A1B4890ED121BB0EE410AB1
:103A5000F0EE610A51EC100B0FF04CF812491C39D2
:103A600088600846D0ED041AB0EE611AD0ED021A53
:103A7000F0EE610AD0ED011AB0EE610ADFED091A2D
:103A800000F10C02B43100F5807000F0F0FBBDEEE7
:103A9000C00A10EE100A01B203481C388182BDEC46
:103AA000048B10BD00000000603400208053002013
:103AB0000000C84220520020000000000050944046
:103AC000000000000000F03F00C05AC5D0ED000A21
:103AD000F4EEC00AF1EE10FA01DD80ED000AD0ED3F
:103AE000000AB1EE401AF4EEC10AF1EE10FA03D268
:103AF000F1EE400AC0ED000A70470364C2638163BF
:103B000080ED000AC0ED010A80ED021A704780EDD9
:103B1000000AC0ED010A80ED021ADFEDFE1AC0EDC9
:103B2000081ADFEDFC1AC0ED091ADFEDFA1AC0ED34
:103B30000A1ADFEDF81AC0ED0B1A704710B52DED1B
:103B4000088B0446B0EE408AF0EE608A84ED048A69
:103B5000C4ED038A38EEC80A84ED070A94ED0C0A16
:103B6000B5EEC00AF1EE10FA27D094ED0C0A10EE73
:103B7000101A08460FF074FE41EC190B94ED070A79
:103B800010EE101A08460FF06BFE41EC1B0BB0EE66
:103B90004B0AF0EE6B0A0DF087FBB0EE40AAF0EE98
:103BA00060AA53EC192B51EC1A0B0FF061FC04D2F4
:103BB0009FEDD80ABDEC088B10BDA06B03283ED149
:103BC00094ED000AD4ED070A20EE200A84ED080ADD
:103BD00094ED090AD4ED010A94ED071A00EE810A6A
:103BE00084ED090A94ED070AD4ED060A30EE600A66
:103BF000D4ED020A20EE200A84ED0A0AD4ED100A60
:103C0000F8EE600AB0EE600A04F12400FFF75EFFF0
:103C100094ED080AD4ED090A30EE200AD4ED0A0A20
:103C200030EE200A84ED0B0AD4ED0F0AF8EE600A9C
:103C3000B0EE600A04F12C00FFF748FF42E0A06BF1
:103C400004283FD194ED070AD4ED060A30EE600A4D
:103C5000D4ED000A20EE200A84ED080A94ED010A52
:103C6000D4ED070A20EE200A84ED090A94ED070A34
:103C7000D4ED060AB0EE001A01EE600AD4ED050A92
:103C800030EE200AD4ED020A20EE200A84ED0A0A62
:103C900094ED080AD4ED090A30EE200AD4ED0A0AA0
:103CA00030EE200AD4ED0B0A30EE200A84ED0B0A28
:103CB000D4ED0F0AF8EE600AB0EE600A04F12C00B1
:103CC000FFF704FF94ED060A84ED050A94ED070A58
:103CD00084ED060A94ED0D0AB5EEC00AF1EE10FA75
:103CE00025D094ED0D0A10EE101A08460FF0B8FD1D
:103CF00041EC190B94ED0B0A10EE101A08460FF068
:103D0000AFFD41EC1B0BB0EE4B0AF0EE6B0A0DF071
:103D1000CBFAB0EE40AAF0EE60AA53EC192B51ECAE
:103D20001A0B0FF0C3F902D29FED7A0A42E794ED25
:103D30000B0A3FE710B52DED088B0446B0EE408A24
:103D4000F0EE608A84ED048AC4ED038A38EEC80A76
:103D500084ED070A94ED0C0AB5EEC00AF1EE10FAF4
:103D600027D094ED0C0A10EE101A08460FF078FDDB
:103D700041EC190B94ED070A10EE101A08460FF0EB
:103D80006FFD41EC1B0BB0EE4B0AF0EE6B0A0DF031
:103D90008BFAB0EE40AAF0EE60AA53EC192B51EC6E
:103DA0001A0B0FF065FB04D29FED5A0ABDEC088B8D
:103DB00010BDA06B03283ED194ED000AD4ED070A94
:103DC00020EE200A84ED080A94ED090AD4ED010AD8
:103DD00094ED071A00EE810A84ED090A94ED070AB2
:103DE000D4ED060A30EE600AD4ED020A20EE200A75
:103DF00084ED0A0AD4ED100AF8EE600AB0EE600A0B
:103E000004F12400FFF762FE94ED080AD4ED090ADC
:103E100030EE200AD4ED0A0A30EE200A84ED0B0AB7
:103E2000D4ED0F0AF8EE600AB0EE600A04F12C003F
:103E3000FFF74CFE3EE0A06B04283BD194ED070A4F
:103E4000D4ED060A30EE600AD4ED000A20EE200A16
:103E500084ED080A94ED010AD4ED070A20EE200A49
:103E600084ED090A94ED070AD4ED060AB0EE001AB3
:103E700001EE600AD4ED050A30EE200AD4ED020A04
:103E800020EE200A84ED0A0A94ED080AD4ED0A0A0D
:103E900030EE200AD4ED0B0A30EE200A84ED0B0A36
:103EA000D4ED0F0AF8EE600AB0EE600A04F12C00BF
:103EB000FFF70CFE94ED060A84ED050A94ED070A5F
:103EC00084ED060A94ED0D0AB5EEC00AF1EE10FA83
:103ED00028D094ED0D0A10EE101A08460FF0C0FC21
:103EE00041EC190B94ED0B0A10EE101A08460FF076
:103EF000B7FC41EC1B0BB0EE4B0AF0EE6B0A0DF079
:103F0000D3F9B0EE40AAF0EE60AA53EC192B51ECB5
:103F10001A0B01E0000000000FF0C8F802D21FEDFC
:103F2000030A43E794ED0B0A40E710B52DED0A8B29
:103F30000446F0EE408AB0EE609AB0EE418AC4EDDD
:103F4000048A84ED039A39EE680A84ED070A18EEB4
:103F5000100A0FF085FC41EC1A0B94ED070A10EEE5
:103F6000101A08460FF07CFC41EC1C0BB0EE4C0A1A
:103F7000F0EE6C0A0DF098F9B0EE40BAF0EE60BACF
:103F800053EC1A2B51EC1B0B0FF090F804D21FEDE1
:103F90001F0A84ED070A1CE094ED070AB4EEC80A74
:103FA000F1EE10FA06DD94ED070A30EE480A84EDD2
:103FB000070A0EE094ED070AF1EE480AB4EEE00AB3
:103FC000F1EE10FA05D294ED070A30EE080A84EDFE
:103FD000070A18EE100A0FF043FC41EC1A0B39EEF9
:103FE000680A10EE101A08460FF03AFC41EC1C0B60
:103FF000B0EE4C0AF0EE6C0A0DF056F9B0EE40BA95
:10400000F0EE60BA53EC1A2B51EC1B0B0FF04EF88C
:1040100003D21FED400A84ED070A94ED0C0AB5EEB9
:10402000C00AF1EE10FA27D094ED0C0A10EE101A27
:1040300008460FF015FC41EC1A0B94ED070A10EE40
:10404000101A08460FF00CFC41EC1C0BB0EE4C0AA9
:10405000F0EE6C0A0DF028F9B0EE40BAF0EE60BA5E
:1040600053EC1A2B51EC1B0B0FF002FA04D21FED8C
:10407000570ABDEC0A8B10BDA06B03283ED194ED0E
:10408000000AD4ED070A20EE200A84ED080A94ED18
:10409000090AD4ED010A94ED071A00EE810A84EDB5
:1040A000090A94ED070AD4ED060A30EE600AD4ED51
:1040B000020A20EE200A84ED0A0AD4ED100AF8EE76
:1040C000600AB0EE600A04F12400FFF7FFFC94EDF3
:1040D000080AD4ED090A30EE200AD4ED0A0A30EEBF
:1040E000200A84ED0B0AD4ED0F0AF8EE600AB0EE58
:1040F000600A04F12C00FFF7E9FC42E0A06B042801
:104100003FD194ED070AD4ED060A30EE600AD4EDF3
:10411000000A20EE200A84ED080A94ED010AD4ED8D
:10412000070A20EE200A84ED090A94ED070AD4ED6F
:10413000060AB0EE001A01EE600AD4ED050A30EE70
:10414000200AD4ED020A20EE200A84ED0A0A94ED3A
:10415000080AD4ED090A30EE200AD4ED0A0A30EE3E
:10416000200AD4ED0B0A30EE200A84ED0B0AD4EDC0
:104170000F0AF8EE600AB0EE600A04F12C00FFF7B7
:10418000A5FC94ED060A84ED050A94ED070A84ED7A
:10419000060A94ED0D0AB5EEC00AF1EE10FA25D02C
:1041A00094ED0D0A10EE101A08460FF059FB41EC81
:1041B0001A0B94ED0B0A10EE101A08460FF050FB84
:1041C00041EC1C0BB0EE4C0AF0EE6C0A0DF06CF8F2
:1041D000B0EE40BAF0EE60BA53EC1A2B51EC1B0B68
:1041E0000EF064FF02D21FEDB50A42E794ED0B0A10
:1041F0003FE72DE9F0412DED048B04460D461646B0
:104200001F46B0EE408AF0EE608AB0EE419A2A482E
:104210006064B0EE491AF0EE680AB0EE480A3B4618
:10422000324629462046D4F844C0E047BDEC048B12
:10423000BDE8F0811FEDC90A80ED080A1FEDCB0A29
:1042400080ED090A1FEDCD0A80ED0A0A1FEDCF0AA5
:1042500080ED0B0A1FEDD10A80ED050A1FEDD30A90
:1042600080ED060A1FEDD50A80ED070A704770B58C
:104270002DED048B06460D461446B0EE408AF0EE56
:10428000608AB0EE419AF0EE619AF0EE480AB0EE24
:10429000680A3046FFF752FC30EE290A84ED000A26
:1042A00094ED000AF0EE400AB0EE490A2846FFF706
:1042B00045FCBDEC048B70BDFB3A000810B504460C
:1042C0002068A0F2012030B101280FD0022807D0C9
:1042D000032815D10FE02146254800F0B7F910E07A
:1042E00021462348583000F0B1F90AE02146214820
:1042F00000F0ACF905E021461F4800F0A7F900E006
:1043000000BF00BF10BD10B504462068A0F2052014
:1043100010B101280DD105E032222146174800F0E6
:10432000A8F907E040F20A522146154800F0A1F929
:1043300000BF00BF00BF10BD08B5002000901148AD
:10434000B0F92620B0F9241000230F4800F0B7F987
:104350000E48B0F9140000900D48B0F93830B0F9AB
:104360003420B0F936100B4800F055FA08BD0000B3
:10437000B84F0020C851002020520020504D00208E
:10438000F84C0020802900200068004044340020C0
:10439000F00200200064004070B505460C464C2237
:1043A000A91D39480BF096FC374890ED0D0AB1EE87
:1043B000400A84ED000A354890ED000A344880ED4B
:1043C000000A314890ED0E0A304880ED000A90ED69
:1043D000000A2F48D0ED000A30EE600ADFED2D0A0A
:1043E000B4EEE00AF1EE10FA05DB2B480068401E3F
:1043F0002949086013E0254890ED000A2448D0EDD3
:10440000000A30EE600ADFED250AB4EEE00AF1EEB4
:1044100010FA04D820480068401C1F4908601E4854
:1044200000684FF4B471484300EE100AB8EEC00AB9
:104430001648D0ED000A30EE200AB1EE400A84EDB5
:10444000010A114890ED0C0A84ED020A90ED060A6B
:10445000B1EE400A84ED030A90ED080AB1EE400A7D
:1044600084ED040A90ED070A84ED050A90ED030A35
:1044700084ED060A90ED050A84ED070A90ED040A22
:1044800084ED080A70BD0000785200209C030020D3
:10449000980300200000A243A00300200000A2C354
:1044A0000A7BCB7A42EA0322826182698260826956
:1044B00042600269521C026170472DE9F0410446D6
:1044C0000D460026002720686060287BE97A40EAD4
:1044D0000120206020686168401AE060E06810F503
:1044E000805F07DAA06B401CA063E06800F5005015
:1044F000E0610DE0E068B0F5805F07DDA06B401E75
:10450000A063E068A0F50050E06101E0E068E061D0
:104510002168A06B01EB4030A0602068A269801A7E
:1045200000EE100AF8EEC00AA06B4FF4B4725043CC
:1045300000EE100AB8EEC00A9FEDFE1A00EE810AE6
:1045400010EE101A08460FF08BF941EC100B84EDB9
:10455000120BE269207D411C217504F1200141F814
:104560002020207D062801D100202075002605E0AE
:1045700004F1200050F826000744761C062EF7DBD5
:10458000062097FBF0F02064A97B687B41EA0020BD
:1045900000B2A4F85400297CE87B41EA002000B274
:1045A000A4F85600BDE8F08170B504460D462068B9
:1045B0006060287BE97A40EA012020602068616819
:1045C000401AE060E06810F5805F07DAA06B401CDD
:1045D000A063E06800F50050E0610DE0E068B0F530
:1045E000805F07DDA06B401EA063E068A0F500506F
:1045F000E06101E0E068E0612168A06B01EB403020
:10460000A0602068A269801A00EE100AF8EEC00AC5
:10461000A06B4FF4B472504300EE100AB8EEC00A1B
:104620009FEDC51A00EE810A10EE101A08460FF031
:1046300017F941EC100B84ED120B687B000200B2FD
:10464000A97B08432064687C206570BD70B5044672
:104650000D46E06B401CE063E06B052804DC294656
:104660002046FFF71DFF03E029462046FFF725FF00
:1046700070BD70B504460E461546E06B401CE06305
:10468000E06B022800DCA56131462046FFF78CFF75
:10469000E06B0A2812DCA069A168401A10F57A6F55
:1046A00003DA05F50050A06108E0A069A168401A8E
:1046B000B0F57A6F02DDA5F50050A06170BD2DE95F
:1046C000F04186B080460C4615461E460C9F201EC3
:1046D00001DB014600E0414247F2481291420ADD07
:1046E000201E01DB014600E0414247F248126243CE
:1046F00092FBF1F10CB2281E01DB014600E04142C1
:1047000047F2481291420ADD281E01DB014600E013
:10471000414247F248126A4392FBF1F10DB2301E5A
:1047200001DB014600E0414247F2481291420ADDB6
:10473000301E01DB014600E0414247F2481272435D
:1047400092FBF1F10EB2381E01DB014600E041425E
:1047500047F2481291420ADD381E01DB014600E0B3
:10476000414247F248127A4392FBF1F10FB240F214
:10477000FF10019000208DF80C008DF80D0008202E
:104780008DF80E00200A8DF80F008DF81040290AD0
:104790008DF811108DF81250310A8DF813108DF824
:1047A0001460390A8DF815108DF8167001A940466D
:1047B00003F0D0F806B0BDE8F0812DE9F04186B0F5
:1047C00080460C4615461E460C9F40F2FF20019085
:1047D00000208DF80C008DF80D0008208DF80E00DB
:1047E000200A8DF80F008DF81040290A8DF811105D
:1047F0008DF81250310A8DF813108DF81460390AB3
:104800008DF815108DF8167001A9404603F0A2F836
:1048100006B0BDE8F0812DE9F04186B080460C4637
:1048200015461E460C9F201E01DB014600E041425A
:1048300047F2481291420ADD201E01DB014600E0EA
:10484000414247F24812624392FBF1F10CB2281E3A
:1048500001DB014600E0414247F2481291420ADD85
:10486000281E01DB014600E0414247F248126A433C
:1048700092FBF1F10DB2301E01DB014600E0414236
:1048800047F2481291420ADD301E01DB014600E08A
:10489000414247F24812724392FBF1F10EB2381EC8
:1048A00001DB014600E0414247F2481291420ADD35
:1048B000381E01DB014600E0414247F248127A43CC
:1048C00092FBF1F10FB24FF40070019000208DF8CF
:1048D0000C008DF80D0008208DF80E00200A8DF8D0
:1048E0000F008DF81040290A8DF811108DF8125024
:1048F000310A8DF813108DF81460390A8DF81510EF
:104900008DF8167001A9404603F024F806B0BDE802
:10491000F0812DE9F04186B080460C4615461E46D2
:104920000C9F40F2FF10019000208DF80C008DF8D4
:104930000D0003E0FFFF333D0000343D08208DF8FB
:104940000E00200A8DF80F008DF81040290A8DF80E
:1049500011108DF81250310A8DF813108DF8146073
:10496000390A8DF815108DF8167001A9404602F02D
:10497000F1FF06B0BDE8F08130B5034605E013F85D
:10498000010B80EA0204D448025D081EA1F1010176
:10499000F5D1104630BD70B505460C4600260DB168
:1049A000022C01D8002070BD611EFF222846FFF7AF
:1049B000E3FF0646601E285CB04201D10120F2E709
:1049C0000020F0E770B505460C4600260DB1022C1C
:1049D00000D870BD611EFF222846FFF7CDFF0646B6
:1049E000601E2E5400BFF4E730B5034613B94FF6EE
:1049F000FF7030BD09E013F8014B82EA0400C0B239
:104A0000B64D35F8100080EA2222081EA1F10101FE
:104A1000F1D11046EDE770B505460C4600260DB104
:104A2000022C01D8002070BDA11EAD480288284686
:104A3000FFF7DAFF0646F1B2A01E285C814206D1DC
:104A4000601E285CB0EB162F01D10120EBE700209F
:104A5000E9E770B505460C4600260DB1022C00D8DA
:104A600070BDA11E9E4802882846FFF7BDFF06467E
:104A7000A01E2E54310A601E295400BFF0E770B505
:104A800004460D4600260CB1022D01D8FF2070BD52
:104A9000FF2229462046FFF76FFFF8E72DE9FC5F6C
:104AA00005460F46092F01D8BDE8FC9F0024A0460B
:104AB0000DE115F80490601C295CA01C285C41EAFB
:104AC0000026601D295CA01D285C41EA002A2819E7
:104AD00000F1070B28190168009100798DF8040096
:104AE00006F109001FFA80F8B9F1A50F71D105216F
:104AF0006846FFF750FF00286BD028194146FFF7A2
:104B00008AFF0028F8D0BAF5017F63D010DCBAF52F
:104B1000817F2CD006DCBAF1010F1BD0BAF1030F54
:104B200079D11DE0AAF2012040B30128F8D149E073
:104B3000BAF5027F70D006DCAAF20620002852D017
:104B40000128EDD169E0AAF2013000287ED00228C8
:104B5000E6D1B0E03246594662480BF0BBF8B2E00D
:104B6000324659465F480C300BF0B4F8ABE03246A1
:104B700059465C4830300BF0ADF8A4E03246594657
:104B8000584837300BF0A6F8564890F837000128FF
:104B900009DB544890F83700072804DC022051490B
:104BA00081F8BB000DE04F4890F837000B2808DB78
:104BB0004C4890F83700112803DC0120494981F85E
:104BC000BB0080E032465946464844300BF082F83C
:104BD00079E079E0052E05D13246594641486430E6
:104BE0000BF078F86FE0324659463E486C300BF0D7
:104BF00071F83C4890F86C00000958B9394890F8B1
:104C00006C0000F00F0028B13748C07B10B10220C3
:104C10003549C87357E055E021E0072E1ED13246D2
:104C2000594630486D300BF055F82E48006F00EEB5
:104C3000100AF3EE040AB4EEE00AF1EE10FA06D21E
:104C4000B3EE0C0A2948FEF7AAFD07E02CE0254840
:104C5000006F00EE100A2548FEF7A1FD33E0324652
:104C60005946204874300BF035F821480088214916
:104C700008801C48B0F874001D4908800846008868
:104C80001C490988401A002802DC1948008800B92C
:104C900019E01848008816490988401A16490988F9
:104CA0000844154908800EE0324659460D487A30CE
:104CB0000BF010F807E0324659460A48A2300BF0D4
:104CC00009F800E000BF00BF04EB080084B2A7426F
:104CD0003FF7EFAE00BFE7E6973B0108983C0108BD
:104CE000AC030020C4520020D43000205003002028
:104CF000A6030020A4030020A803002010B503464B
:104D00003BB1087838B9012008701078401C107049
:104D100001E000200870107800EBD0746410A0EB64
:104D200044040CB9002010BD0120FCE7CB8A0340ED
:104D30000BB1012300E000231370704710B5044647
:104D400004F1290221460120FFF7F0FF04F12A02B5
:104D500021460420FFF7EAFF04F12B02214602203E
:104D6000FFF7E4FF04F12C0221460820FFF7DEFFE5
:104D700004F12D0221461020FFF7D8FF04F12F0285
:104D800021462020FFF7D2FF04F1300221464020C7
:104D9000FFF7CCFF04F1310221468020FFF7C6FF68
:104DA00004F1320221464FF48070FFF7BFFF04F197
:104DB000330221464FF40070FFF7B8FF04F13402CC
:104DC00021464FF48060FFF7B1FF04F13502214620
:104DD0004FF40060FFF7AAFF04F12E0221464FF4C2
:104DE0008050FFF7A3FF04F1360221464FF4005034
:104DF000FFF79CFF04F1370221464FF48040FFF794
:104E000095FF04F1380221464FF40040FFF78EFF72
:104E100094F82900974A9849FFF770FF39210855FF
:104E20002A21085D954A9649FFF768FF3A210855FF
:104E30002B21085D934A9449FFF760FF3B210855F9
:104E40002C21085D914A9249FFF758FF3C210855F3
:104E50002D21085D8F4A9049FFF750FF3D210855ED
:104E60002F21085D8D4A8E49FFF748FF3F210855E5
:104E70003021085D8B4A8C49FFF740FF40210855DF
:104E80003121085D894A8A49FFF738FF41210855D9
:104E90003221085D874A8849FFF730FF42210855D3
:104EA0003321085D854A8649FFF728FF43210855CD
:104EB0003421085D834A8449FFF720FF44210855C7
:104EC0003521085D814A8249FFF718FF45210855C1
:104ED0002E21085D7F4A8049FFF710FF3E210855CB
:104EE0003621085D7D4A7E49FFF708FF46210855B7
:104EF0003721085D7B4A7C49FFF700FF47210855B1
:104F00003821085D794A7A49FFF7F8FE48210855AB
:104F100010BD817AC176017FC27E891A4177C27E37
:104F20000277417F01290ED1016A491C0162016AA1
:104F300001EBD1725210A1EB420212B9002282772A
:104F400001E001228277417F02290ED1416A491C8A
:104F50004162416A01EBD1725210A1EB420212B9D7
:104F60000022C27701E00122C277B0F90810A1F552
:104F70008061052903DA002228210A5402E0012277
:104F800028210A547047C17A012901D1817608E0AD
:104F9000C17A032901D1817603E0C17A022900D1C7
:104FA0008176704730B504460D46122D00D030BDD5
:104FB00004B9FCE72078617840EA0120C0F30A00D8
:104FC0004C4908806078C010A17840EA4110C0F3D5
:104FD0000A0048494880A0788011E17840EA8100C1
:104FE000217940EA8120C0F30A0042498880207973
:104FF0004010617940EAC110C0F30A003D49C88001
:10500000207C617C40EA0120C0F30A003949088114
:1050100060790011800888726079C0F30110C8724D
:10502000A079E17940EA012000B232498881207AF2
:10503000617A40EA012001B22E48C181A07AE17A6A
:1050400040EA012001B22B480182217B0175617B7E
:105050004175A07BE17B40EA01202649C8820846D1
:10506000FFF791FF2348FFF754FF2248FFF766FE42
:1050700000BF9CE7AF030020AE030020B103002077
:10508000B0030020B3030020B2030020B5030020CA
:10509000B4030020B7030020B6030020B9030020AA
:1050A000B8030020BB030020BA030020BD0300208A
:1050B000BC030020BF030020BE030020C10300206A
:1050C000C0030020C3030020C2030020C50300204A
:1050D000C4030020C7030020C6030020C90300202A
:1050E000C8030020CB030020CA030020CD0300200A
:1050F000CC030020805300202DE9F05F2DED028BC2
:1051000004460D4616461F46B0EE408AF0EE608A11
:10511000DDE90EABDDE90C89184804704570867036
:10512000C770024618EE100A18EE901A506191618D
:105130001046A0F80880A0F80A90A0F80CA0A0F8EB
:105140000EB0114610980882119848821298087182
:10515000139848710A4890F8380088710948C07B54
:10516000C87109481C22D0F8DC359847BDEC028B89
:10517000BDE8F09F0A68026070470000C953002034
:10518000C4520020D4300020F80B002010B5CEB05F
:10519000FE484088B0F5B47F05DAFC4840882830E6
:1051A000FA49488005E0F9484088A0F5B470F7490D
:1051B0004880F74890F83700F449087008460078AE
:1051C00067281BD006DC032809D004280CD005284A
:1051D00023D10EE0682816D069281ED118E040F2CD
:1051E0000310EC49088018E04FF48270E949088008
:1051F00013E040F20510E74908800EE040F2671026
:10520000E449088009E04FF4B470E249088004E002
:1052100040F26910DF49088000BF00BFDB484078DA
:105220000A286ED2DFE800F06D0539536E88A2D6E9
:10523000FDFC0F22D8492FA80AF04CFD0F22D749B8
:105240002BA80AF047FD0F22D54927A80AF042FDF6
:105250000F22D44923A80AF082FD0F22D2491FA8A9
:105260000AF038FD0F22D1491BA80AF033FD0F22A6
:10527000CF4917A80AF073FD5922CE4968460AF0B3
:1052800029FDC2486922CB491039846833A80AF045
:1052900021FD33A80FC8A0473CE10720C6490F22D3
:1052A000CDE90C10C54908A80AF014FD1D22C44917
:1052B00068460AF00FFDB5482D22C14910394468EF
:1052C00042A80AF007FD42A80FC8A04722E1092022
:1052D000BC490F22CDE90C10BB4908A80AF03FFDDC
:1052E0001D22BA4968460AF0F5FCA8482D22B749A4
:1052F0001039446842A80AF0EDFC42A80FC8A04744
:1053000008E106E10720B2490F22CDE90C10B149AE
:1053100008A80AF0DFFC1D22AF4968460AF0DAFC53
:105320009A482D22AC491039446842A80AF0D2FCB0
:1053300042A80FC8A047EDE00520A8490F22CDE9FB
:105340000C10A74908A80AF0C5FC1D22A54968460B
:105350000AF0C0FC8D482D22A2491039446842A8A9
:105360000AF0B8FC42A80FC8A047D3E00F229E491C
:105370002FA80AF0AFFC0F229C492BA80AF0EFFCE3
:105380000F229B4927A80AF0A5FC0F22994923A8C0
:105390000AF0A0FC0F2298491FA80AF09BFC0F22DC
:1053A00096491BA80AF0DBFC0F22954917A80AF0C2
:1053B00091FC5922934968460AF08CFC7348692293
:1053C00090491039846833A80AF084FC33A80FC8C8
:1053D000A0479FE00F228C492FA80AF07BFC0F22E8
:1053E0008A492BA80AF0BBFC0F22894927A80AF09A
:1053F00071FC0F22874923A80AF06CFC0F22864912
:105400001FA80AF067FC0F2284491BA80AF0A7FC1A
:105410000F22834917A80AF05DFC5922814901E057
:1054200043E00EE068460AF055FC584869227D4981
:105430001039846833A80AF04DFC33A80FC8A04780
:1054400068E00F2254492FA80AF044FC0F22534968
:105450002BA80AF03FFC0F22514927A80AF03AFC7A
:105460000F22504923A80AF07AFC0F224E491FA8A8
:105470000AF030FC0F224D491BA80AF02BFC0F222A
:105480004B4917A80AF06BFC59224A4968460AF0B2
:1054900021FC3E48692247491039C46833A80AF004
:1054A00019FC33A80FC8A04734E00F2256492FA893
:1054B0000AF010FC0F2255492BA80AF050FC0F22CD
:1054C000534927A80AF006FC0F22524923A80AF0E4
:1054D00001FC0F2250491FA80AF0FCFB0F224F4984
:1054E0001BA80AF03CFC0F224D4917A80AF0F2FB5A
:1054F00059224C4968460AF0EDFB24486922494983
:105500001039046933A80AF0E5FB33A80FC8A04797
:1055100000E000BF00BF1D484078401C1B49487098
:1055200008464078092801DD082048704EB010BDBB
:1055300070B52DED0E8B82B006460D46B0EE408A5A
:105540009FED390A28EE000A10EE104A20460EF0B0
:1055500087F941EC1E0BB0EE4E0AF0EE6E0A0CF02D
:1055600057FDB0EE40CAF0EE60CA28460DF073FD5C
:1055700041EC1D0B53EC1C2B0DF0D4FD41EC1A0B30
:1055800020460EF06DF941EC1E0B4FE0DC030020CD
:10559000C4520020D8030020950400208604002077
:1055A000C20400206804002059040020FF030020EA
:1055B000F0030020B6550020C20500204A04002058
:1055C000A5570020AB0500202C0400201E5700200A
:1055D000A30500200E040020F1560020B405002091
:1055E0001D0400204B5700203A05002094050020A0
:1055F000850500207605002067050020580500205D
:1056000049050020885600202B0500201C0500209D
:105610000D050020FE040020EF040020E00400201F
:10562000D10400201F56002035FA8E3CB0EE4E0A01
:10563000F0EE6E0A0BF0D4FDB0EE40CAF0EE60CA98
:1056400030460DF008FD41EC1D0B53EC1C2B0DF00A
:1056500069FD41EC1B0B53EC1A2B0EF017F841ECD3
:10566000190B0DF0C9FC00B2ADF8040020460EF095
:10567000F7F841EC1E0BB0EE4E0AF0EE6E0A0BF09E
:10568000AFFDB0EE40CAF0EE60CA28460DF0E3FC74
:1056900041EC1D0B53EC1C2B0DF044FD41EC1B0B9E
:1056A00020460EF0DDF841EC1E0BB0EE4E0AF0EE97
:1056B0006E0A0CF0ADFCB0EE40CAF0EE60CA3046A7
:1056C0000DF0C9FC41EC1D0B53EC1C2B0DF02AFD19
:1056D00041EC190B53EC1B2B0DF03EFA41EC1A0B6D
:1056E0000DF08AFC00B2ADF80600019802B0BDECE6
:1056F0000E8B70BD2DE9FF47884616461F460C9C51
:1057000006F109001FFA80F925462F70A5F80160FF
:105710000020E87005212046FFF754F9BDF800008D
:10572000A4F8050032464146E01D0AF0D3FA494686
:105730002046FFF78EF9204604B0BDE8F0872DE93A
:10574000F8430746884615461C46089E05F10900A1
:105750001FFA80F923462A46414638460096FFF74D
:10576000C9FFA02C07D0A52C05D1FE484A463146DA
:10577000D0F8DC359847BDE8F8830FB430B59FB05A
:10578000DDE932454FF48870ADF80400F64890F832
:105790003700ADF80600F5480088ADF80800F44879
:1057A00001990160BDF8081081800F222EA922A85E
:1057B0000AF0D5FA2A4621460DF197000AF08AFA36
:1057C0002D2222A9EA48801D0AF084FAE8482F30E9
:1057D00001994160BDF808100181E648A5233922EE
:1057E000E349009040F20130FFF7A9FF1FB030BC41
:1057F0005DF814FB0FB400B59FB04FF48270ADF8A4
:105800000400D94890F83700ADF80600D748008862
:10581000ADF808000F223BA920A80AF0A0FA0F2239
:105820003FA90DF18F000AF055FA0F2243A90DF19F
:105830009E000AF04FFA0F2247A90DF1AD000AF0C1
:1058400049FA0F224BA92FA80AF089FA0F224FA973
:105850000DF1CB000AF03EFA0F2253A90DF1DA0048
:105860000AF038FAC24801990160BDF80810818039
:10587000692220A9801D0AF02DFABE48A5236F22B7
:10588000BB49009040F20130FFF759FF1FB05DF8AF
:1058900014FB0FB42DED020B00B52DED048B9FB062
:1058A000B0EE408AF0EE608A4FF48870ADF80400E4
:1058B000AD4890F83700ADF80600AC480088ADF868
:1058C0000800AB4801990160BDF8081081800F22E3
:1058D00032A926A80AF043FA0F2242A926A80AF004
:1058E0003EFA9DF89B0020F00700801C8DF89B007D
:1058F00018EE100A0DF0B4FF41EC190B53EC192B04
:105900009DA10DF1A7000AF09DF92D2226A9984826
:10591000801D0AF0DFF99DF8DB0020F00700801CF5
:105920008DF8DB0018EE900A0DF09AFF41EC190B90
:1059300053EC192B90A10DF1E7000AF083F92D2209
:1059400036A98B4833300AF0C5F98A48A52360226E
:105950008749009040F20130FFF7F1FE1FB0BDEC27
:10596000048B5DF81CFB0FB410B5A0B04FF482702F
:10597000ADF808007C4890F83700ADF80A007B4885
:105980000088ADF80C000F223DA922A80AF0E7F923
:105990000F2241A90DF197000AF09CF90F2245A9A9
:1059A0000DF1A6000AF096F90F2249A90DF1B500F4
:1059B0000AF090F90F224DA931A80AF0D0F90F2270
:1059C00051A90DF1D3000AF085F90F2255A90DF167
:1059D000E2000AF07FF99DF88B0020F00700801CA0
:1059E0008DF88B0022A8807C20F00700801C22A963
:1059F00088749DF8A90020F00700801C8DF8A9008C
:105A00009DF8B80020F00700801C8DF8B8009DF8C4
:105A1000C70020F00700801C8DF8C7009DF8D60055
:105A200020F00700801C8DF8D6009DF8E50020F0DE
:105A30000700801C8DF8E5005048006800EE100A51
:105A4000DFED4F0A20EE200AF3EE0C0A80EE201A5A
:105A5000BCEEC10A10EE100ABDF88D1060F3CF1134
:105A6000ADF88D104548006800EE100AB5EEC00A8A
:105A7000F1EE10FA0ED89DF88C0020F03C00001DCD
:105A80008DF88C004FF4B471BDF88D0061F3CF1028
:105A9000ADF88D003948006800EE100AF1EE040AF6
:105AA000B4EEE00AF1EE10FA07DD9DF88C0020F06C
:105AB0003C00001D8DF88C0010E03048006800EEBE
:105AC000100AF1EE040AB4EEE00AF1EE10FA05D283
:105AD0009DF88C0020F03C008DF88C00294890F84F
