:020000040800F2
:1000000068480020859E0008A9020008AB0200088D
:10001000AF020008B3020008B702000800000000A9
:10002000000000000000000000000000BB0200080B
:10003000BD02000800000000BF020008C102000865
:100040009F9E00089F9E00089F9E00089F9E00089C
:100050009F9E00089F9E00089F9E00089F9E00088C
:100060009F9E00089F9E00089F9E00089F9E00087C
:100070009F9E00089F9E00089F9E0008E76C000856
:100080009F9E00089F9E00089F9E0008C362000874
:10009000D96200089F9E00089F9E00089F9E00084E
:1000A0009F9E00089F9E00089F9E00089F9E00083C
:1000B0009F9E00089F9E00089F9E00089F9E00082C
:1000C0009F9E00089F9E00089F9E00089F9E00081C
:1000D0009F9E0008476600087D680008716A000856
:1000E0009F9E00089F9E00089F9E00089F9E0008FC
:1000F0009F9E00089F9E00089F9E00089F9E0008EC
:100100009F9E00089F9E00089F9E00089F9E0008DB
:100110006F6C00088D6F0008277300089F9E000811
:100120009F9E00089F9E00089F9E00089F9E0008BB
:100130009F9E00089F9E00089F9E00081364000871
:10014000296400089F9E00089F9E00089F9E00084B
:100150009F9E00089F9E00089F9E000863720008F3
:100160009F9E00089F9E00089F9E00089F9E00087B
:100170009F9E00089F9E00089F9E00089F9E00086B
:100180009F9E00089F9E000800F002F800F069F8AA
:100190000AA090E8000C82448344AAF10107DA45E2
:1001A00001D100F05EF8AFF2090EBAE80F0013F0CB
:1001B000010F18BFFB1A43F001031847C0400100AC
:1001C000E04001000A444FF0000C10F8013B13F02E
:1001D000070408BF10F8014B1D1108BF10F8015BA0
:1001E000641E05D010F8016B641E01F8016BF9D193
:1001F00013F0080F1EBF10F8014BAD1C0C1B09D1EA
:100200006D1E58BF01F801CBFAD505E014F8016B5B
:1002100001F8016B6D1EF9D59142D6D370470000ED
:100220000023002400250026103A28BF78C1FBD8FF
:10023000520728BF30C148BF0B607047662913F0D2
:10024000B484002070471FB513F0FFFB10F0D0F806
:1002500004000020002112F0AFFCE0601FBD10B5CB
:1002600010BD10F0C6F91146FFF7EDFF00F008F8D9
:1002700010F0E4F903B4FFF7F2FF03BC10F0AEF89E
:1002800000F028F900F0BAFA06E004484068044992
:10029000B0FBF1F003490860F7E70000001000E050
:1002A0004090020000000020704700BFFEE700BF42
:1002B000FEE700BFFEE700BFFEE7704770477047EC
:1002C000704700000CB5002001900090764800684F
:1002D00040F480307449086000BF7348006800F43F
:1002E000003000900198401C0190009818B90198C6
:1002F000B0F5A06FF1D16C48006800F4003010B187
:100300000120009001E0002000900098012846D1D3
:1003100065484030006840F08050634940310860D3
:100320006248006840F44040604908605E48083018
:1003300000685D49083108600846006840F40040E4
:1003400008600846006840F4A05008605848091F3B
:100350000860081F006840F08070091F086000BF37
:100360005148006800F000700028F9D040F2057094
:10037000504908604C480830006820F003004A49A2
:10038000083108600846006840F00200086000BFBD
:1003900045480830006800F00C000828F8D10CBD72
:1003A00010B54548006840F47000434908603E4875
:1003B000006840F001003C49086000203A490831DB
:1003C0000860394800683D490840374908603C48A2
:1003D000091D0860081F006820F48020091F0860BC
:1003E000002031490C310860FFF76CFF4FF00060CE
:1003F00031498039086010BD70B500200022022309
:1004000000240221284D08352D6805F00C0020B18C
:10041000042806D0082834D107E02A4D2A4E35603A
:1004200033E02A4D284E35602FE01F4D2D1D2D68DD
:10043000C5F380541C4D2D1D2D6805F03F0154B1AE
:10044000224DB5FBF1F5184E361D3668C6F38816F9
:1004500005FB06F209E01B4DB5FBF1F5124E361D0A
:100460003668C6F3881605FB06F20F4D2D1D2D6864
:10047000C5F301456D1C6B00B2FBF3F5124E356000
:1004800003E0104D104E356000BF00BF064D08352B
:100490002D68C5F303150E4E705D0B4D2D68C540DC
:1004A000094E356070BD0000003802400070004009
:1004B00008544007003C024088ED00E0FFFFF6FED4
:1004C000103000240024F4000400002000127A0000
:1004D0000800002010B54FF4A06007F0A3F84D48C5
:1004E00006F01CF84FF4E13006F00DF94FF46120EE
:1004F00006F034FA4FF4E13006F0E2FA4FF4E1305E
:1005000006F025FC06F00EFE05F0B0FFA82006F070
:100510001FFF002303220821104605F05FFE002381
:1005200003220821104605F0F2FE06F0CBFE10BDB6
:1005300010B52DED088BB0EE409AF0EE609AB0EE5B
:10054000418A9FED351BB0EE490AF0EE690A10F0C2
:1005500039FFB0EE40AAF0EE60AA51EC1A0B12F08F
:100560004DFB08EE100AB5EEC08AF1EE10FA11D27A
:1005700018EE100A13F0F8F941EC1B0B9FED260B57
:1005800053EC102B12F06CFB41EC1A0B12F036FB03
:1005900008EE100AB0EE480ABDEC088B10BD10B58D
:1005A0002DED088BB0EE409AF0EE609AF0EE418AA5
:1005B000B0EE481AB0EE490AF0EE690AFFF7B8FF4C
:1005C000B0EE408A18EE100A13F0CEF941EC1A0B87
:1005D0009FED130B53EC102B12F0CEFF12D218EE3E
:1005E000100A13F0C1F941EC1B0B9FED0B0B53EC00
:1005F000102B13F0CFF841EC1A0B12F0FFFA08EEB3
:10060000900A01E0F0EE488AB0EE680ABDEC088B73
:1006100010BD0000A08601000000000000807640B0
:10062000000000000080664010B58AB0774800687E
:10063000401C7649086076497648D0ED000A764835
:1006400090ED000A754802F03AF870490868C11741
:1006500000EB91718910A0EB810101293DD1704817
:10066000C07B704991F838106E4A92F84320C2F36B
:1006700040026C4B93F84130CDE90632CDE90810C9
:100680006848B0F84C10806C00EE100ABDEEC00A4D
:1006900010EE100A00B2624AB2F91420604BB3F9AE
:1006A0001030CDE90232CDE904015D48B0F9120005
:1006B0005D49096C09B25C4CCDE9001094ED121B48
:1006C000B0EE410AF0EE610A554C237BA27B94F810
:1006D0004410564CA07E04F0EFFC4C49086800EB37
:1006E000D0714910A0EB410119B903F02DF803F0C6
:1006F000EDF846480068032190FBF1F201FB12007F
:1007000018B901F061FC03F0F7FD404800680521CD
:1007100090FBF1F201FB1200D8B9454A1178454A25
:1007200092ED1C2AF0EE421A3E4A92F83700424AF5
:1007300092ED022AB0EE421A92ED002AB1EE422A60
:10074000F0EE420A92ED012AB0EE420A3B4A05F071
:10075000DEFC2E480068642190FBF1F201FB1200E0
:10076000012801D104F0EEFC284800684FF47A71AA
:1007700090FBF1F201FB1200B0F5FA7F03D10121E9
:100780002F4807F08DFF214800684FF47A7190FBE5
:10079000F1F201FB120018B90121294807F082FF8C
:1007A0001A4800684FF4FA6190FBF1F201FB120065
:1007B00010BB2448807A642804D10221204807F025
:1007C0006FFF19E01F48807A422804D102211C489B
:1007D00007F068FF10E00221194807F061FF0B489D
:1007E00000684FF47A6190FBF1F201FB120018B936
:1007F0000221134807F056FF0AB010BD10B500F0F3
:1008000023F802F07FF802F0F1FF10BD180000207D
:10081000C8300020500000204C000020AC00002018
:100820008C0D00207C2F0020082A0020383000206A
:1008300038060020F0020020482500200C3B002054
:10084000000802400835002010B540F25471FE48FF
:100850000FF021FB9FEDFD1ADFEDFC0A9FEDFC0A76
:100860000A234FF416720321FA4803F0A2FCB2EEF9
:10087000001ADFEDF90AB3EE020A04234FF4FA720C
:100880000321F148803003F094FC9FEDF41ADFED72
:10089000F40A9FEDF40A44F6206346F67812032129
:1008A000F14803F086FCB2EE001ADFEDF00AB2EE7A
:1008B000030A04234FF4FA720321E348343003F0AF
:1008C00078FC9FEDEB1ADFEDEB0A9FEDEB0A42F2AD
:1008D000107347F248120321E3484C3803F069FCD7
:1008E0009FEDDA1ADFEDD90AB2EE040A0823C82216
:1008F0000321DD48983003F05CFC9FEDD41ADFED56
:10090000D80A9FEDDE0A4FF4FA6346F2A8120321DB
:10091000DB4803F04EFCB1EE041ADFEDCC0AB2EE78
:10092000040A08234FF482720321CF484C3003F0AD
:1009300040FC9FEDC61ADFEDC80A9FEDCF0A40F6D6
:10094000B83347F248120321CD484C3803F031FC4C
:100950009FEDC71ADFEDC00AB2EE0E0A0A23C822C5
:100960000321C84803F025FC9FEDB81ADFEDBC0A4F
:100970009FEDBC0A46F2A81346F678120321C1483F
:100980004C3003F016FC9FEDB11ADFEDBF0A9FED6E
:10099000BF0A102396220321BA484C3803F009FC01
:1009A0009FEDAA1ADFEDB30A9FEDB30A47F2684341
:1009B0001A460321B348983003F0FBFB9FEDAC1AB5
:1009C000DFEDB10AB3EE010A0F23C8220321AC48C0
:1009D000983003F0EEFB9FED9D1ADFEDAB0A9FED23
:1009E000AC0A4FF4FA6346F2A8120321A94803F0B7
:1009F000E0FBB1EE041ADFEDA80AB2EE0B0A082301
:100A00004FF4827203219E484C3003F0D2FB9FEDDD
:100A10008F1ADFED8E0A9FEDA10A40F6B83347F238
:100A2000481203219B484C3803F0C3FBB1EE041A73
:100A3000DFED9B0AB2EE080A1423462203219548F3
:100A4000983003F0B6FB9FED811AF1EE0C0A9FED92
:100A5000950A44F6206346F2A81203218948E43837
:100A600003F0A7FBB2EE041ADFED8D0AB3EE040A21
:100A700014233C22032187484C3003F09AFB9FED5E
:100A8000741AF1EE000A9FED880A46F2A8131A467E
:100A900003217C48983803F08CFBB1EE041ADFED9B
:100AA000800AB3EE020A0A23C82203217F4803F01A
:100AB00080FB9FED661AF2EE000A9FED6A0A46F28D
:100AC000A81346F67812032178484C3003F071FBE6
:100AD0009FED5E1ADFED720AB2EE0E0A04234FF4A8
:100AE0008272032171484C3803F063FB9FED571A63
:100AF000F2EE000A9FED600A41F2883346F2A81236
:100B000003216A48983003F054FB10BD2DE9F041F1
:100B10002DED108B92B0B0EE408A4FF01C08644867
:100B200090ED000ADFED630A20EE200A10EE101AA5
:100B3000084612F019FF41EC1B0BB0EE4B0AF0EE29
:100B40006B0A10F0D1FBB0EE40AAF0EE60AA53ECB5
:100B50001A2B9FED590B51EC100B12F03DF941ECA3
:100B6000190B12F04BF80546284612F0FDFE41EC39
:100B70001D0BB0EE4D1AF0EE6D1A9FED510B10F0FB
:100B8000B3FAB0EE40CAF0EE60CA9FED4F0B53ECE3
:100B9000102B51EC1C0B12F049FB41EC1A0B18EE18
:100BA000100A12F0E1FE41EC1B0B53EC1A2B12F071
:100BB00057F841EC190B12F021F80E90284612F06C
:100BC000D3FE41EC1A0B9FED3B0A28EE000A10EE13
:100BD000101A084612F0C8FE41EC1C0BB0EE4C0A8D
:100BE000F0EE6C0A10F080FBB0EE40BAF0EE60BAA6
:100BF00053EC1A2B51EC1B0B12F018FB41EC190BA8
:100C000011F0FCFF0FEE100A284612F0ADFE41EC89
:100C10001A0B9FED280A28EE000A10EE101A08465B
:100C200012F0A2FE41EC1C0BB0EE4C0AF0EE6C0A86
:100C300011F072FAB0EE40BAF0EE60BA53EC1A2B33
:100C400051EC1B0B44E000003806002000000000BF
:100C500000004843F81C00200AD7233C00007042E3
:100C60006F12833A00001643500700209A99193EEC
:100C700000002042CDCC4C3F0000964300002043B2
:100C800080080020780B0020CDCCCC3D9A99D9402B
:100C900000003443B009002017B7D1380000F043FA
:100CA000CDCC4C3E0000AF430000E143A80C002037
:100CB0004825002035FA8E3C9A99999999991B40BC
:100CC000000000205C8F134000000020DCA54C4099
:100CD00012F0ACFA41EC190B11F090FF064618FB2C
:100CE00008F000EE100AB8EEC00AF0EE408A2FEECF
:100CF0000F0A10EE104A18EE900A12F035FECDE9F8
:100D00000801304612F030FE41EC1B0BB0EE000A39
:100D100028EE800A10EE101A084612F025FE41EC6B
:100D20001D0B204612F020FE9FEDFE0B53EC102B06
:100D3000CDE900019DED000B51EC100B12F076FA9D
:100D400041EC1E0B53EC1D2B12F046F841EC1C0B32
:100D500053EC1B2B11F084FFCDE90401204612F067
:100D600003FE41EC1B0B9FEDF10B53EC102B12F02B
:100D70005DFACDE902019DED040B53EC102B9DEDC6
:100D8000020B51EC100B12F051FACDE906019DED6A
:100D9000080B53EC102B9DED060B51EC100B12F0D1
:100DA0001BF8CDE90C01204612F0DEFDCDE90A0169
:100DB0009DED0C0B53EC102B9DED0A0B51EC100B21
:100DC00012F0E8FC41EC1A0BB0EE4A0AF0EE6A0AA7
:100DD00011F006FAB0EE409AF0EE609A51EC190B61
:100DE00011F00CFF0FEE900A204612F0BDFD41EC11
:100DF0001A0B9FEDCC0B53EC102B12F017FA41ECB1
:100E0000190B11F0FBFE11903FEE6F0A60EE280AFD
:100E10009DED110A80EE801A11EE107A384612F01C
:100E2000A3FD41EC1A0BB0EE4A0AF0EE6A0A0FF08D
:100E3000EFFFB0EE409AF0EE609A51EC190B11F012
:100E4000DDFE10909DED100ADFEDBA0A20EE200ABB
:100E50008DED0F0A9DED0F0A12B0BDEC108BBDE8B1
:100E6000F08110B52DED088B0020B34981F83200D8
:100E7000B248007870B9B24890ED000AB14880EDF0
:100E8000000AAF4890ED010AAF4880ED000A01204A
:100E9000AA490870AA4890ED000AA74880ED040A04
:100EA000A74890ED010AA44880ED030AA44890EDFC
:100EB000030AA14880ED080AA14890ED040A9E4863
:100EC00080ED070AA148C07B48B1A04890ED040A14
:100ED000F7EE000A30EE200A80ED040A04E01FED70
:100EE000A50A9A4880ED040A984890ED040AF7EEA6
:100EF000000AB4EEE00AF1EE10FA7CD20120944927
:100F000008709248B0F9080000EE100AB8EEC00A66
:100F10009048D0ED000AB4EE600AF1EE10FA6BD101
:100F20008A48B0F90A0000EE100AB8EEC00A8A48F2
:100F3000D0ED000AB4EE600AF1EE10FA74D18349E4
:100F4000B1F9080012F00BF941EC1B0B9FED830B7C
:100F500053EC102B12F06AF941EC1A0B9FED811B38
:100F6000B0EE4A0AF0EE6A0A10F0BEF8B0EE409A0F
:100F7000F0EE609A1FEDAC0B53EC102B51EC190BFB
:100F800012F054F941EC180B11F038FE7749086063
:100F90006E49B1F90A0012F0E2F841EC1B0B9FED2B
:100FA0006F0B53EC102B12F041F941EC1A0B9FED33
:100FB0006D1BB0EE4A0AF0EE6A0A10F095F8B0EE3A
:100FC000409AF0EE609A1FEDC00B53EC102B51ECE1
:100FD000190B12F02BF941EC180B11F00FFE6449BC
:100FE00008605A4890ED000A6048D0ED000A30EEE3
:100FF000200A604801E045E016E0D0ED000A30EE3E
:10100000200A5D4880ED000A504890ED010A08462C
:10101000D0ED000A30EE200A5848D0ED000A30EE3C
:10102000200A574880ED000A4848B0F9080000EE51
:10103000100AB8EEC00A474880ED000A4348B0F9EC
:101040000A0000EE100AB8EEC00A434880ED000A1C
:101050004C48407DB0B1484890ED000AB1EE400ADE
:10106000354880ED010A464890ED000AFFF74EFD35
:10107000B1EE400A4148D0ED000A30EE200A2E4879
:1010800080ED020A2C4890ED020AFBEE090AB4EE4C
:10109000E00AF1EE10FA04D8BBEE090A80ED020A6C
:1010A0000DE0254890ED020AF3EE010AB4EEE00AE5
:1010B000F1EE10FA03DBB3EE010A80ED020A2448D8
:1010C000007858B9204890ED000A1B4880ED010ACD
:1010D0001C4890ED000A184880ED020A1648D0ED31
:1010E000071AB0EE611AD0ED031AF0EE610AD0EDE6
:1010F000011AB0EE610ADFED241A00F1140200F5C6
:10110000E16100F2246003F092F8FFEE000A20EEA5
:10111000200ABDEEC00A10EE100A01B20648818412
:1011200034E000009A999999999923409A9999994C
:1011300099993340E12E6542380600205C0000207A
:10114000482500204400002048000020A030002056
:101150005D0000205400002058000020000000E046
:10116000EF50743F000000000000204060000020AD
:1011700064000020340000204C00002038000020D3
:10118000500000203830002000000000D0ED081A88
:10119000B0EE611AD0ED041AF0EE610AD0ED021A39
:1011A000B0EE610A5FED081A00F1180200F2BC61AE
:1011B00000F5CE6003F03BF8F7EE000A20EE200ABF
:1011C000BDEEC00A10EE100A01B2FE48C184BDECAB
:1011D000088B10BD10B52DED088B0020F94981F862
:1011E0003200F948007870B9F84890ED000AF848E4
:1011F00080ED000AF54890ED010AF64880ED000AFE
:101200000120F1490870F14890ED000AED4880EDA9
:10121000040AEE4890ED010AEA4880ED030AEB4823
:1012200090ED030AE74880ED080AE84890ED040ACB
:10123000E44880ED070AE848C07B48B1E64890EDF5
:10124000040AF7EE000A30EE200A80ED040A04E0FA
:101250001FED330AE04880ED040ADF4890ED040AF0
:10126000F7EE000AB4EEE00AF1EE10FA7ED20120A9
:10127000DA490870D848B0F9080000EE100AB8EE54
:10128000C00AD748D0ED000AB4EE600AF1EE10FAB9
:101290006DD1D148B0F90A0000EE100AB8EEC00ACC
:1012A000D048D0ED000AB4EE600AF1EE10FA5ED13B
:1012B000C949B1F9080011F052FF41EC1B0B1FEDB9
:1012C000590B53EC102B11F0B1FF41EC1A0B1FED31
:1012D0005B1BB0EE4A0AF0EE6A0A0FF005FFB0EEB3
:1012E000409AF0EE609A9FEDC00B53EC102B51EC3E
:1012F000190B11F09BFF41EC180B11F07FFCBC495E
:101300000860B549B1F90A0011F029FF41EC1B0B47
:101310001FED6E0B53EC102B11F088FF41EC1A0BF4
:101320001FED701BB0EE4A0AF0EE6A0A0FF0DCFE09
:10133000B0EE409AF0EE609A9FEDAB0B53EC102BA1
:1013400051EC190B11F072FF41EC180B11F056FC27
:10135000A8490860A04890ED000AA548D0ED000A11
:1013600030EE200AA448D0ED000A01E049E034E064
:1013700030EE200AA14880ED000A974890ED010A5E
:101380000846D0ED000A30EE200A9D48D0ED000A54
:1013900030EE200A9B4880ED000A9B48407D98B1C2
:1013A000964890ED000A874880ED010A954890ED37
:1013B000000AFFF7ABFB9248D0ED000A30EE200A9E
:1013C000804880ED020A08E07E4890ED0A0A80ED30
:1013D000020A90ED0B0A80ED010A7F48B0F908007F
:1013E00000EE100AB8EEC00A7D4880ED000A7A4887
:1013F000B0F90A0000EE100AB8EEC00A794880ED94
:10140000000A704890ED020AFBEE090AB4EEE00A09
:10141000F1EE10FA04D8BBEE090A80ED020A0DE0E5
:10142000684890ED020AF3EE010AB4EEE00AF1EE2C
:1014300010FA03DBB3EE010A80ED020A6748007878
:1014400058B9644890ED000A5E4880ED010A604892
:1014500090ED000A5B4880ED020A5A48D0ED071A69
:10146000B0EE611AD0ED031AF0EE610AD0ED011A68
:10147000B0EE610A5FEDBC1A00F1140200F595614F
:1014800000F5717002F0D3FEFFEE000A20EE200A94
:10149000BDEEC00A10EE100A01B24A488184D0EDB8
:1014A000081AB0EE611AD0ED041AF0EE610AD0ED20
:1014B000021AB0EE610A5FEDCC1A00F1180200F2D8
:1014C0005C4100F5826002F0B2FEF7EE000A20EE09
:1014D000200ABDEEC00A10EE100A01B23948C184DC
:1014E000BDEC088B10BD10B52DED0A8BB0EE409A07
:1014F000F0EE609AB0EE418A9FED440B53EC102B56
:1015000051EC190B11F092FE41EC1C0B9FED410BBD
:1015100053EC102B11F08AFE41EC1B0B9FED3F1B8F
:10152000B0EE4B0AF0EE6B0A0FF04CFFB0EE40AAA3
:10153000F0EE60AA51EC1A0B11F060FB08EE100AF5
:10154000B5EEC08AF1EE10FA05D29FED360A38EEFC
:10155000000AB0EE408A18EE100A12F005FA41ECCB
:10156000100BBDEC0A8B10BD10B52DED108B84B0A7
:101570002D4890ED121BB0EE410AF0EE610A2B48A7
:1015800090ED001AFFF7AFFFB0EE408AF0EE608AF0
:1015900051EC180B11F032FB24490860084690ED1D
:1015A000000ADFED230AB4EEE00AF1EE10FA43DBA5
:1015B00090ED000ADFED1B0A30EE600A1D4880ED59
:1015C000000A3FE0380600205C000020482500208B
:1015D0004400002048000020A03000205D000020D2
:1015E000540000205800002000000020DCA54C40E2
:1015F0006000002064000020340000204C00002027
:10160000380000205000002038300020000000008A
:101610000000F0BF000000A046DF913F0000006026
:10162000FB211940DB0FC940082A00209000002050
:10163000DB0F494094000020FE4890ED000AFE4870
:1016400080ED000A9FEDFD1ADFEDFD0AFA4890EDEE
:10165000000AFC4802F049FCB1EE400AFA4880ED6D
:10166000000AFA4890ED5E0AF94880ED000AF94850
:1016700080ED000AF648006812F076F941EC190B8B
:10168000B0EE490AF0EE690A0FF092FEB0EE408A21
:10169000F0EE608A9FEDF00B53EC102B51EC180B21
:1016A00011F06AFF29D2EA48006812F05DF941ECB6
:1016B000190BE748006812F057F941EC1C0BB0EE2B
:1016C0004C0AF0EE6C0A0FF073FEB0EE40BAF0EE8A
:1016D00060BA9FEDE10B53EC102B51EC1B0B11F09A
:1016E000A5FD41EC1A0B53EC192B11F075FB41ECE5
:1016F000180B11F083FAD6490860D648006812F03A
:1017000033F941EC190BB0EE490AF0EE690A0FF01B
:101710004FFEB0EE408AF0EE608A9FEDD10B53ECA5
:10172000102B51EC180B11F027FF29D2C948006883
:1017300012F01AF941EC190BC648006812F014F9BE
:1017400041EC1C0BB0EE4C0AF0EE6C0A0FF030FED0
:10175000B0EE40BAF0EE60BA9FEDC10B53EC102B27
:1017600051EC1B0B11F062FD41EC1A0B53EC192BE1
:1017700011F032FB41EC180B11F040FAB54908604A
:10178000B34890ED000AB5EEC00AF1EE10FA21D090
:10179000006812F0E9F841EC190BAD48006812F04E
:1017A000E3F841EC1B0BB0EE4B0AF0EE6B0A0FF0C6
:1017B000FFFDB0EE40AAF0EE60AA53EC192B51ECFD
:1017C0001A0B11F009FB41EC180B11F017FAA6499E
:1017D000086004E0B7EE000AA34880ED000A9B48C9
:1017E000407803280BD0A14890ED010A974880ED7E
:1017F0000B0A9E4890ED000A944880ED0A0A93482F
:1018000090F8320001287DD19948807A002879D05B
:101810009848C07C002876D0944890ED000A10EEDD
:10182000101A084612F0A0F841EC190BB0EE481A55
:10183000B0EE490AF0EE690AFEF7B1FEB0EE408A5A
:101840008A4890ED010A10EE101A084612F08CF842
:1018500041EC190BB0EE681AB0EE490AF0EE690AD5
:10186000FEF79DFEF0EE408A784880ED048AC0EDD8
:10187000038A90ED010AD0ED030A30EE600A10EE03
:10188000101A084612F070F841EC1A0BB0EE4A0A32
:10189000F0EE6A0A0FF08CFDB0EE409AF0EE609A1E
:1018A0009FED750B53EC102B51EC190B11F082FCD2
:1018B00004D20120654981F8310003E0002063492A
:1018C00081F83100694890ED030A604880ED080A0C
:1018D000664890ED040A5D4880ED070A6448D0F838
:1018E000050000EE100AB5EEC00AF1EE10FA11D0B4
:1018F0005F48D0F8010000EE100AB5EEC00AF1EE24
:1019000010FA01E021E179E004D05948D0F8010053
:101910005B4908605648D0F8010000EE100AB1EEAD
:10192000400A5848D0ED000A30EE200A474880EDC2
:10193000020A534890ED000A5348D0ED000A30EEF9
:10194000200A424880ED010A90ED010AD0ED030A19
:1019500030EE600A10EE101A084612F005F841EC5D
:10196000190B9FED4A0B53EC102B11F005FE09D219
:10197000364890ED010ADFED470A30EE600A80ED4F
:10198000010A1DE0314890ED010AD0ED030A30EE66
:10199000600A10EE101A084611F0E6FF41EC190B30
:1019A0009FED3D0B53EC102B11F004FC08D227489F
:1019B00090ED010ADFED370A30EE200A80ED010AD2
:1019C000224890ED020AFBEE090AB4EEE00AF1EEBD
:1019D00010FA04D8BBEE090A80ED020A0DE01B489C
:1019E00090ED020AF3EE010AB4EEE00AF1EE10FA0D
:1019F00003DBB3EE010A80ED020A5AE01B4890EDCA
:101A0000000A124880ED040A184890ED010A0F48B8
:101A100080ED030A154890ED030A0C4880ED080A92
:101A2000124890ED040A094880ED070A0F4890ED2E
:101A3000000A35E09000002094000020920A863EC3
:101A400000000000F81C002098000020380600204C
:101A500074000020780000200000000000003E40DC
:101A600000000000000014407C00002048250020F9
:101A700008350020D43400200000000000000040A1
:101A800068000020400000203C0000200000000012
:101A9000008066400000B44300000000008066C083
:101AA000FE4880ED020AFE4890ED010AFB4880EDF9
:101AB000010AFA4890ED072AFA48D0ED002A22EEF2
:101AC000222AF0EE421AF54890ED072AB0EE421AAB
:101AD00090ED032AF0EE420A90ED012AB0EE420AA0
:101AE00000F1140200F54B7100F5257002F09FFB28
:101AF000FFEE000A20EE200ABDEEC00A10EE100A2A
:101B000001B2E6488184D0ED081AB0EE611AD0ED3A
:101B1000041AF0EE610AD0ED021AB0EE610A5FED30
:101B2000381A00F1180200F55E7100F5387002F005
:101B30007EFBF7EE000A20EE200ABDEEC00A10EE92
:101B4000100A01B2D548C184F6E0D54890ED000AEC
:101B5000D24880ED040AD24890ED010ACF4880EDCA
:101B6000030ACF4890ED030ACC4880ED080ACC4820
:101B700090ED040AC94880ED070A90ED0A0A80ED4D
:101B8000020A90ED0B0A80ED010AC748006D50284B
:101B900003D90021C1488184CEE0C448B0F90C00CB
:101BA00002EE100AB8EEC22AC148D0ED002A22EE99
:101BB000222AC048D0ED002ABF4890ED003A62EEDC
:101BC000832ABE4890ED003A02EE832AF0EE421AD4
:101BD000B24890ED072AB0EE421A90ED032AF0EEDB
:101BE000420A90ED012AB0EE420A00F1140200F51B
:101BF000FE7100F5B27002F01AFBFFEE000A20EE53
:101C0000200A10EE104A204611F0AEFE41EC180BEF
:101C1000AB48006811F0A8FE41EC1E0B1FED6A1BDB
:101C2000B0EE4E0AF0EE6E0A0FF04EFCB0EE40CA77
:101C3000F0EE60CAA348006811F096FE41EC1D0B5F
:101C400053EC1C2B11F0F2FA41EC1A0B9E48006881
:101C500011F08AFE41EC1F0B9FED9C1BB0EE4F0A6A
:101C6000F0EE6F0A0FF030FC8DED000B9948006824
:101C700011F07AFE41EC1E0B9DED000B53EC102B86
:101C800011F0D4FA41EC1C0B844890ED070A85480A
:101C9000D0ED000A20EE200A10EE101A084611F0CE
:101CA00063FE41EC1D0B53EC1C2B10F0D9FF41ECF3
:101CB0001B0B53EC1A2B10F0D3FF41EC190B53EC18
:101CC000182B10F0CDFFCDE902019DED020B51EC78
:101CD000100B11F015FA01B2704881847348B0F905
:101CE0000E0002EE100AB8EEC22A7B48D0ED002AA0
:101CF00022EE222AF0EE421A684890ED082AB0EE51
:101D0000421A90ED042AF0EE420A90ED022AB0EE5B
:101D1000420A00F1180200F5127100F5D87002F0C5
:101D200086FAF7EE000A20EE200ABDEEC00A10EE99
:101D3000100A01B25948C18404B0BDEC108B10BD2B
:101D400010B52DED048B00206449087064490870BB
:101D500000BF1FEDC50A514880ED020A504890EDC2
:101D6000000A4E4880ED040A1FEDCB0A80ED010AFF
:101D70004D4890ED121BB0EE410AF0EE610A51ECB5
:101D8000100B10F02FFF10F039FF4449C860444891
:101D900090ED040A084680ED070A414890ED030AD9
:101DA000084680ED080A90ED030A5FEDC60A80EE52
:101DB000201ABDEEC10A10EE104A4FF4B47104FBB4
:101DC00001F000EE100AB8EEC00A344880ED010AB6
:101DD00090ED010AD0ED030A30EE600ADFED410A12
:101DE000B4EEE00AF1EE10FA08DB90ED010A5FEDC7
:101DF000D70A30EE600A80ED010A15E0274890ED21
:101E0000010AD0ED030A30EE600ADFED370AB4EEC6
:101E1000E00AF1EE10FA07D290ED010A5FEDE30A55
:101E200030EE200A80ED010A1C48D0ED071AB0EE12
:101E3000611AD0ED031AF0EE610AD0ED011AB0EE8E
:101E4000610ADFED2A1A00F1140200F1CC013430EE
:101E500002F0EDF9FFEE000A20EE200ABDEEC00A06
:101E600010EE100A01B20D488184D0ED081AB0EED0
:101E7000611AD0ED041AF0EE610AD0ED021AB0EE4C
:101E8000610ADFED1A1A00F1180200F58C7180303A
:101E900002F0CDF9F7EE000A2AE000003806002033
:101EA0004825002084000020082A00203830002027
:101EB0006C0000208C000020980000207C00002096
:101EC0007400002080000020780000200000000046
:101ED0000000084088000020700000205C00002006
:101EE0005D00002000003543000033C30000000007
:101EF00020EE200ABDEEC00A10EE100A01B25948C9
:101F0000C18490ED020AD0ED040A30EE600A10EEB2
:101F1000101A084611F028FD41EC190BB0EE490AE1
:101F2000F0EE690A0FF044FAB0EE408AF0EE608AF3
:101F30009FED4D0B53EC102B51EC180B11F03AF9AF
:101F40003FD8484890ED010AD0ED030A30EE600A10
:101F500010EE101A084611F007FD41EC190BB0EE17
:101F6000490AF0EE690A0FF023FAB0EE408AF0EE6B
:101F7000608A9FED3F0B53EC102B51EC180B11F0C6
:101F800019F91ED80120374981F830003A4890ED00
:101F9000000A3A4880ED000A90ED000A3848D0ED7A
:101FA000000A30EE200A374880ED000A334890EDF1
:101FB000000A3548D0ED000A30EE200A334880EDA3
:101FC000000ABDEC048B10BD10B52648007803282C
:101FD00016D003DC38B101281BD10EE00B2812D03B
:101FE0000C2816D112E024211E48001D0DF053FFCD
:101FF00000201C4981F830000CE0FFF7A1FE09E049
:10200000FFF7B2FA06E0FFF7E5F803E0FEF729FF75
:1020100000E000BF00BF134890ED020A1B48D0ED5E
:10202000000AB4EEE00AF1EE10FA05D890ED000ACD
:102030000C4880ED020A0FE00A4890ED020A1148B0
:10204000D0ED000AB4EEE00AF1EE10FA04DB90EDF8
:10205000000A044880ED020A0248007801494870ED
:1020600010BD0000380600200000000000001040F5
:10207000000000000000F83F482500202800002054
:1020800030000020240000202C0000202000002030
:1020900010B52DED088BF7480078F7490870F74820
:1020A000807EF449087008460078F3490978884230
:1020B00006D00020F24908704870F249087348734E
:1020C000EE48807E012804D002287DD003287CD1F0
:1020D000BFE0EB480078012811D0E8484088A0F51F
:1020E000806000EB400000B2E6490882E3480088C7
:1020F000A0F5806000EB400001B2E2484182E04878
:102100000078032857D1DD49B1F90610A1F58060A8
:1021100011F025F841EC1B0B9FEDDB0B53EC102B62
:1021200011F084F841EC190BD54890ED0A0A10EE35
:10213000101A084611F018FC41EC1A0B53EC192B3D
:1021400011F028FB41EC180B10F058FDCC498862C7
:10215000084690ED0B0AC948B0F90400A0F580606C
:1021600000EE900AF8EEE00A9FEDC91A00EE810A2F
:10217000084680ED0B0A90ED0A0AC648D0ED000A29
:10218000B4EEE00AF1EE10FA05D890ED000A084628
:1021900080ED0A0A0FE0BA4890ED0A0ABE48D0ED79
:1021A000000AB4EEE00AF1EE10FA04DB90ED000A4A
:1021B000B34880ED0A0AB248007801280AD0B04836
:1021C00000780C2806D001E0D8E1DDE1AC480078C9
:1021D0000B2802D10120AB490873A94800780128D7
:1021E00009D0A648807E022805D0A548407810B9BD
:1021F0000320A3490870A248407840B9A04800785D
:1022000028B101209E490870002081F830009C48C8
:102210000078032803D101209A4981F844009848A6
:1022200090F83000012813D1032095490870934895
:10223000807F38B107209349087340F226219148E6
:10224000818205E003208F49087300218D48818237
:102250009BE18B480078012870D0884890F82D00C9
:1022600038B10320874988734FF496608B49088002
:1022700006E00220834988734FF4FA70874908808A
:102280007E4890F8290028B18448B0F900007D49C3
:1022900008820DE0794890F82B0030B17F48008823
:1022A000404200B27749088202E000207549088266
:1022B000724890F82A00A8B17248807B03280AD19E
:1022C0007649B1F90010484200EBD07149100AB2CA
:1022D0006C494A8220E071480088404201B2694856
:1022E000418219E0654890F82C0090B16548807BE8
:1022F000032808D16949B1F9000000EBD0714910F9
:10230000604A518208E06548B0F900105D4841829A
:1023100002E000215B4841825948007803286AD1D5
:102320005648407D50B95548B0F90C0010F1640F83
:1023300005DC6FF063005149888108E05BE04F489D
:10234000B0F90C00642802DB64204C4988814B48BA
:10235000B0F90E0010F1640F04DC6FF06301474820
:10236000C18107E04548B0F90E00642802DB642112
:102370004248C181424890ED0B0A4048B0F90C0038
:1023800000EE900AF8EEE00A9FED451A00EE810A91
:102390003B4880ED0B0A90ED0A0A3848B0F90E0070
:1023A00000EE900AF8EEE00A9FED3E1A00EE810A78
:1023B000334880ED0A0A90ED0A0A3648D0ED000A4B
:1023C000B4EEE00AF1EE10FA05D890ED000A2C48C0
:1023D00080ED0A0A0FE02A4890ED0A0A2E48D0ED57
:1023E000000AB4EEE00AF1EE10FA04DB90ED000A08
:1023F000234880ED0A0A22480078012807D02048A7
:1024000000780C2803D01E4800780B2802D1012048
:102410001C4908731A480078012809D01748807EA3
:10242000022805D01648407810B9032014490870D6
:102430001348407840B91248007828B1012010496B
:102440000870002081F830000D480078032803D17F
:1024500001200C4981F84400094890F83000012817
:1024600074D1064890F84700F0B10C200449087078
:1024700027E00000A0000020A1000020383000204C
:10248000380600208C0D0020FCA9F1D24D62803F5F
:102490006F12033C20000020240000209C0000203C
:1024A0008FC2753D0AD7233D474890F8450018B1C3
:1024B0000B204649087004E0032044490870444951
:1024C0000873414890F83F0038B10720404908732D
:1024D00000213D4880F8401030E03D48C07B022894
:1024E00002D101203B4908703A480078012822D1E6
:1024F0003749C8733848006830B9384840683849A7
:10250000B0FBF1F0344908600720314908733348C3
:1025100040683349B0FBF1F02F490968401AB0F523
:10252000FA6F0BD903202A49087300202A49086052
:102530002849087002E00320254908732248407D9D
:1025400028B10120214981F8320004E015E0002083
:102550001E4981F832001C4890F8380010B1002064
:1025600020494870184890F8400018B101201849D7
:10257000C87302E000201649C87306E00020134922
:1025800008701349087300E000BF00BF1048007BCB
:102590000F494873BDEC088B10BD012080F31388F0
:1025A00000BF00BFBFF34F8F0F48006800F4E0602A
:1025B0000E490843001D0C490860BFF34F8F00BF50
:1025C00000BF00BFFDE700003830002038060020C3
:1025D0008C0D0020B2030020A4000020001000E0B9
:1025E00040900200E00300200CED00E00000FA053E
:1025F00010B5044604F168030122042104F110001F
:1026000008F0C6FB04F178030122022104F138002E
:1026100008F0BEFB04F590730422114604F1180083
:1026200008F0B6FB04F1E0030422114604F1200097
:1026300008F0AEFB04F1200104F118000AF009F8DB
:1026400004F5D0730422114604F1480008F0A0FB01
:1026500004F5C0730422022104F1280008F098FB5D
:1026600004F5B0730222042104F1300008F090FB5D
:1026700004F1300104F1280009F0EBFF04F5F073D8
:102680000222114604F1400008F082FB04F1A0038D
:102690000422114604F1500008F07AFB04F1800393
:1026A0000222042104F1580008F072FB04F5F873CB
:1026B0000422114604F1600008F06AFB10BD30B539
:1026C0002DED028B95B00446B0EE408AF0EE608AA4
:1026D0000D467F48007828B901207D4908707D4863
:1026E000FFF786FF7C4B0422114613A808F050FB2D
:1026F0007A4B0422114611A808F04AFB784B0222BB
:1027000004210FA808F044FB764B042202210DA8F7
:1027100008F03EFB744B022211460BA808F038FB70
:10272000724B0222114609A808F032FB704B0122BD
:10273000022107A808F02CFB6E4B0122022105A8FC
:1027400008F026FB6C4B0122042103A808F020FBB3
:102750006A4B0122042101A808F01AFBE06B80ED0E
:10276000008AE06BC0ED018A03AA04F1100104F1B4
:10277000180009F0A4F8042204F168015E480CF086
:102780004CFD2878002871D013AA04F1500104F1FF
:10279000180009F094F811AA04F1200113A809F017
:1027A0008EF804F1500204F1480111A808F05CF819
:1027B0000FAA04F1300104F1500009F080F80DAACD
:1027C00004F1500104F1280009F079F80BAA04F192
:1027D00030010DA809F073F809AA04F140010BA813
:1027E00008F042F80BA909A808F0DEFA04F1580233
:1027F0000BA90FA809F063F807AA04F1100104F16E
:10280000280009F05CF805AA07A904F1380009F0CE
:10281000CAFE03AA05A904F1580009F050F801AA5C
:1028200003A904F1100008F01FF8042204F1680164
:1028300032480CF0F2FC13AA04F1280104F158000C
:1028400009F03DF811AA13A904F1600009F0ABFEEC
:1028500013AA04F1500111A809F031F8102204F173
:10286000A0011D480CF0D9FC00202870606990ED93
:10287000000A84ED000A606990ED010A84ED010A06
:10288000606990ED020A84ED020A606990ED030A26
:1028900084ED030A15B0BDEC028B30BD10B50446C3
:1028A0000C48FFF7A5FE9FED160A606980ED000A4F
:1028B0009FED130A606980ED010A9FED110A6069BE
:1028C00080ED020A9FED0E0A606980ED030A10BDDB
:1028D000EC020020AC000020B40E0020440E0020CA
:1028E000F40E0020840E0020140F0020A40E0020FF
:1028F000E4020020DC020020340E0020240F00201F
:102900000000000010B5B2EE041ADFEDFE0AB3EECF
:10291000040A4FF47A7341F270720321FA4801F00D
:1029200048FC9FEDFA1ADFEDF90AB3EE0E0A42F207
:1029300010731A460321F64801F03BFC9FEDF31A91
:10294000DFEDF40AB3EE040A0A234FF4FA7203210E
:10295000F14801F02EFC9FEDED1ADFEDEC0A9FED42
:10296000EF0A41F27C5342F210720321EC4801F06D
:1029700020FC9FEDE61ADFEDE50A9FEDE80A4FF433
:10298000FA7343F68C420321E64801F012FC9FEDF6
:10299000DF1ADFEDDE0A9FEDE10A4FF4FA7343F62A
:1029A0008C420321DF484C3801F003FC9FEDDE0A26
:1029B000DE4880ED050A0120DC4948709FEDDC0A05
:1029C000084680ED150A10BDF0EE400AB3EE0B0A82
:1029D00030EE600AD74880ED000A90ED000AB2EEB2
:1029E000041A20EE010A7047D348B0F83F10B0F83F
:1029F0004E00081A0A2190FBF1F000EE100AB8EE22
:102A0000C00ACA4880ED110ACB48B0F83D00C7495A
:102A1000A1F85E00C84890F83800012805D1B2EE50
:102A20000C0A084680ED130A67E0C34890F83800A6
:102A3000022805D1B3EE000ABC4880ED130A5CE021
:102A4000BD4890F83800032805D1B3EE020AB74814
:102A500080ED130A51E0B84890F83800042805D1F9
:102A6000B3EE030AB14880ED130A46E0B24890F88D
:102A70003800052805D1B3EE040AAC4880ED130AEE
:102A80003BE0AD4890F83800062805D1B3EE050AC2
:102A9000A64880ED130A30E0A74890F838000728D0
:102AA00005D1B3EE080AA14880ED130A25E0A2483B
:102AB00090F83800082805D1B3EE090A9B4880ED4C
:102AC000130A1AE09C4890F83800092805D1B3EEA3
:102AD000090A964880ED130A0FE0974890F83800ED
:102AE0000A2805D1B3EE0A0A904880ED130A04E0E3
:102AF000B3EE030A8D4880ED130A704710B52DED33
:102B00000A8BFFF771FF894890ED130AB5EEC00AF2
:102B1000F1EE10FA7CD0884890F838000B2878D273
:102B2000DFE800F07706356478A7D6EEEDECEB0031
:102B30007E4890ED130A10EE101A084610F014FFAC
:102B400041EC190B794890ED110A10EE101A084665
:102B500010F00AFF41EC1C0B9FED780B53EC102B8F
:102B600010F018FE41EC1B0B9FED760B53EC102B75
:102B700010F05CFB41EC1A0B53EC192B10F02CF904
:102B800041EC180B10F03AF868490864D1E1674845
:102B900090ED130A10EE101A084610F0E5FE41EC15
:102BA000190B624890ED110A10EE101A084610F049
:102BB000DBFE41EC1C0B9FED610B53EC102B10F076
:102BC000E9FD41EC1B0B9FED5F0B53EC102B10F05C
:102BD0002DFB41EC1A0B53EC192B10F0FDF841ECD6
:102BE000180B10F00BF851490864A2E14F4890ED22
:102BF000110AF1EE000A30EE600ADFED540A20EE11
:102C0000200AD0ED130A80EE201A80ED101A90E110
:102C100090E17CE1454890ED130A10EE101A084649
:102C200010F0A2FE41EC190B404890ED110A10EE95
:102C3000101A084610F098FE41EC1C0B9FED440B57
:102C400053EC102B10F0A6FD41EC1B0B9FED3D0B40
:102C500053EC102B10F0EAFA41EC1A0B53EC192B41
:102C600010F0BAF841EC180B0FF0C8FF2F490864B8
:102C70005FE12E4890ED130A10EE101A084610F08E
:102C800073FE41EC190B294890ED110A10EE101A51
:102C9000084610F069FE41EC1C0B9FED2F0B53EC26
:102CA000102B10F077FD41EC1B0B9FED260B53EC26
:102CB000102B10F0BBFA41EC1A0B53EC192B10F04F
:102CC0008BF841EC180B0FF099FF1849086430E1BC
:102CD000164890ED130A10EE101A084610F044FE44
:102CE00041EC190B114890ED110A10EE101A08462C
:102CF00010F03AFE41EC1C0B32E0D9E0A9E079E09B
:102D000049E00000CDCC4C3E340F00200000000014
:102D1000181000200AD7233C800F002000004842F2
:102D2000CC0F0020B0100020008072C4F002002000
:102D30000000A042880300207C2F00209A999999D6
:102D4000999905400000000000408F4000007A443F
:102D5000CDCCCCCCCCCC10409A9999999999114072
:102D60009FEDFE0B53EC102B10F014FD41EC1B0BF0
:102D70001FED0C0B53EC102B10F058FA41EC1A0B12
:102D800053EC192B10F028F841EC180B0FF036FF1C
:102D9000F4490864CDE0F34890ED130A10EE101AE0
:102DA000084610F0E1FD41EC190BEE4890ED110AD8
:102DB00010EE101A084610F0D7FD41EC1C0B9FEDE9
:102DC000EA0B53EC102B10F0E5FC41EC1B0B1FED54
:102DD000230B53EC102B10F029FA41EC1A0B53EC97
:102DE000192B0FF0F9FF41EC180B0FF007FFDD492D
:102DF00008649EE0DB4890ED130A10EE101A0846B6
:102E000010F0B2FD41EC190BD64890ED110A10EE0E
:102E1000101A084610F0A8FD41EC1C0B9FEDD40BD6
:102E200053EC102B10F0B6FC41EC1B0B1FED3B0BD1
:102E300053EC102B10F0FAF941EC1A0B53EC192B50
:102E40000FF0CAFF41EC180B0FF0D8FEC54908641B
:102E50006FE0C44890ED130A10EE101A084610F007
:102E600083FD41EC190BBF4890ED110A10EE101ACA
:102E7000084610F079FD41EC1C0B9FEDBF0B53ECA5
:102E8000102B10F087FC41EC1B0B1FED520B53EC89
:102E9000102B10F0CBF941EC1A0B53EC192B0FF05F
:102EA0009BFF41EC180B0FF0A9FEAE49086440E00F
:102EB000AC4890ED130A10EE101A084610F054FDBD
:102EC00041EC1A0BA74890ED110A10EE101A0846B3
:102ED00010F04AFD41EC1C0B9FEDA90B53EC102B9D
:102EE00010F058FC41EC1B0B1FED6A0B53EC102B40
:102EF00010F09CF941EC180B53EC1A2B0FF06CFFFF
:102F000041EC190B0FF07AFE9649086411E09548E0
:102F100090ED110AF1EE000A30EE600A5FED750ADD
:102F200020EE200AD0ED130A80EE201A80ED101A50
:102F300000BF00BFBDEC0A8B10BD10B52DED048B9A
:102F4000884890F83C00012831D1864890F83A0032
:102F500001282CD183484078012828D18A4800686C
:102F6000401C8949086008460068142834DA7D4806
:102F700090ED110AF1EE000AB4EEE00AF1EE10FA5B
:102F80002ADD90ED130A10EE101A084610F0ECFC42
:102F900041EC190B9FED7D0B53EC102B10F046F913
:102FA00041EC180B0FF02AFE6E49C86414E00020B3
:102FB000754908606B4890ED130AB5EEC00AF1EE52
:102FC00010FA04D0734890ED040A80ED030A1FED57
:102FD000B10A644880ED130ABDEC048B10BD10B536
:102FE0002DED088B6C49B1F83D0010F0CFF841ECA5
:102FF0001B0B9FED6A0B53EC102B10F017F941ECF3
:10300000190B6549B1F83F20B1F84E10501A10F075
:10301000A6F841EC1A0B53EC192B0FF021FE41ECF2
:10302000180B0FF0EBFD4F4948650846D0ED150A27
:103030005C4890ED000AB8EEC00AF4EEC00AF1EE6A
:1030400010FA02DD0120487002E000204549487076
:10305000BDEC088B10BD10B52DED028B2D20414924
:1030600081F84800FFF74AFD4F4800780B2873D0DD
:103070004D4800780C28FAD03A4890ED100AB5EE89
:10308000C00AF1EE10FA68DD90F83C00012864D126
:10309000344890F83A000128F9D1324840780128A4
:1030A000F5D142480068401C404908600968C829B9
:1030B0000FD33F49D1F8A001002801DB014600E011
:1030C0004142032905DA01203A49087000203749B6
:1030D000086038480078012876D137480068401CDD
:1030E0003549086008460068642804D90020314941
:1030F0000870314908601B4890ED130ADFED2F0A74
:1031000020EE200ADFED2E0A20EE200ADFED2D0A48
:1031100080EE201A90ED040A30EE410A80ED030A99
:10312000234890ED6A1BB0EE410AF0EE610A51ECC3
:10313000100B0FF063FD0B4908611D48D0F8A0018A
:1031400000EE100AB8EEC00A084680ED020AD0ED83
:10315000021AB0EE611A38E0AFE09CE0666666667F
:1031600066661240F00200200000000000001440DB
:1031700033333333333317403333333333331B4039
:103180009A99999999991D408C03002033333333D0
:103190003333F33F340F00207C2F0020FCA9F1D201
:1031A0004D62603F6C030020380600209003002031
:1031B000202D00209C0300209403002000003442B6
:1031C000000010420000FA4315E0D0ED041AF0EEC2
:1031D000610AD0ED031AB0EE610ADFEDFB1A021DA1
:1031E000FA49FB4801F023F8BDEEC00A10EE100AC0
:1031F00000B2F8498886F74890F83C00F0B3F648EA
:103200000078D8BBF34890ED130A5FED140A20EE66
:10321000200A5FED150A60EE200A1FED161A80EEF7
:10322000810AD0ED040A30EE200A80ED030AEB4853
:1032300090ED6A1BB0EE410AF0EE610A51EC100B02
:103240000FF0DCFCE3490861E448D0F8A00100EE8F
:10325000100AB8EEC00A084680ED020AD0ED021A44
:10326000B0EE611AD0ED041AF0EE610AD0ED031A47
:10327000B0EE610ADFEDD41A021D00E017E0D34979
:10328000D34800F0D4FFBDEEC00A10EE100A00B221
:10329000D04988860BE0CE4890ED040A80ED030A01
:1032A0000020CC498886CE490860CE4908600020BD
:1032B000CD490860CD490860FEE0CB480068E0B920
:1032C0000120CB490870C54890ED6A1BB0EE410A59
:1032D000F0EE610A9FEDC71B53EC112B51EC100B64
:1032E0000FF07AFD41EC180B0FF088FCB94908612A
:1032F000084690ED040A80ED030ABB480068401CB4
:10330000B9490860B34890F83C00012879D1BB481E
:10331000007D012805D1BA480068401CB849086002
:1033200002E00020B6490860B5480068B0F5967F15
:103330000BDDB44800684FF4487190FBF1F201FBDB
:10334000120010B90020B0490870AC48007D012877
:1033500004D0AA4890F8280001280ED1AA48007885
:1033600030B90120A84908709A4981F83A0007E06D
:103370000020984981F83A0002E00020A249087034
:103380009B480078E0B3A1480068401C9F49086052
:1033900008460068B0F5C87F0EDA8E48D0ED030A03
:1033A00090F8480000EE100AB8EE400A30EEC00A6D
:1033B000884880ED030A3DE094480068B0F5C87F76
:1033C0000FDB92480068B0F5167F0ADA814890ED6D
:1033D000040A80ED030A85480068401C83490860A0
:1033E00028E07C4890ED030AF3EE020A30EE200A52
:1033F00080ED030A00207E4908708449086019E0C6
:1034000000E051E0734890F83A00012812D1714869
:10341000D0ED030A90F8480000EE100AB8EE400A1A
:1034200030EE800A6B4880ED030A70480068401C4B
:103430006E490860694890ED6A1BB0EE410AF0EEF3
:10344000610A9FED731B53EC112B51EC100B0FF025
:10345000C3FC41EC180B0FF0D1FB5E4908615F48DB
:10346000B0F9B40100EE100AB8EEC00A084680EDCB
:10347000020AD0ED021AB0EE611AD0ED041AF0EE95
:10348000610AD0ED031AB0EE610ADFED4F1A021D9A
:103490006149624800F0CBFEBDEEC00A10EE100A92
:1034A00000B24C49888607E04A4890ED040A80ED56
:1034B000030A002047498886BDEC028B10BD10B579
:1034C000444890F83C00012820D14248D0ED1C0A25
:1034D000B0EE600AFFF778FA3E48D0ED050A30EE0C
:1034E000C00A4F4880ED030A3A48D0ED1C0AB0EEFE
:1034F000600AFFF769FA3748D0ED050AF1EE600A75
:1035000030EE200A464880ED160A08E09FED2E0AAC
:10351000434880ED030A9FED2C0A80ED160A4148CE
:10352000D0F8A00100EE100AB8EEC00A3C4880EDC9
:10353000040A3C48D0F8F80100EE100AB8EEC00AC0
:10354000374880ED170A90ED031AF0EE410A90ED2E
:10355000041AB0EE410A00F0D1FABDEEC00A10EE36
:10356000100A00B21B49C8862D4890ED161AF0EEDD
:10357000410A90ED171AB0EE410A4C3000F0BEFA45
:10358000BDEEC00A10EE100A01B21248018710BD4C
:1035900010B51A48807E012804D0022874D0032870
:1035A00073D165E01548C07F68B10120094981F8F1
:1035B0003C001D4890F83200012839D101021B4817
:1035C00005F070F843E039E000000000181000201A
:1035D000340F0020F00200209C030020202D00204A
:1035E0009003002094030020740300207C0300203B
:1035F00078030020CBA145B6F30D424038300020BF
:1036000080030020180000209D030020700300208C
:10361000000000C0F30D4240CC0F0020800F0020BE
:1036200064100020102B002038060020000002400B
:103630004FF48071664805F033F808E000206549D2
:1036400081F83C004FF48071614805F02BF8624826
:10365000B0F9080040F2DC51884204DD01205D49E8
:1036600081F83A0003E000205A4981F83A0069E005
:103670005948407D01280ED15748007D012805D1C9
:10368000544981F83A0012E050E05AE000205149D4
:1036900081F83A000BE05048007D012803D14D49E4
:1036A00081F83A0003E000204A4981F83A004A488C
:1036B00090F8360048B349480068401C4749086004
:1036C00008460068B0F5FA7F15DA0120414981F813
:1036D0003C0081F87800424890F83200012804D17B
:1036E00001023B4804F0DEFF12E04FF480713848DD
:1036F00004F0D6FF0CE00020364981F83C004FF47E
:103700008071334804F0CEFF02E0002033490860A6
:10371000314890F8400020B101202E4981F83B004B
:1037200003E000202B4981F83B000BE000202949F1
:1037300081F83C0081F83A002A4908602A4908606B
:1037400000E000BF00BF10BD10B5FFF721FFFFF77D
:1037500046FCFFF780FCFFF7B2FE10BDF0EE400A1A
:1037600090ED010A80ED020A90ED040A80ED050A51
:1037700090ED010A80ED020A90ED040A80ED050A41
:1037800090ED020A90ED001A30EE010A90ED021A57
:10379000C1EE001AC0ED031A90ED050A90ED031A70
:1037A000D0ED051A70EEE11A01EE210A80ED040A4F
:1037B00090ED030AB7EE001A31EE400A90ED021ABE
:1037C00020EE010A80ED010A90ED040A7047000026
:1037D00000000240F0020020383000208403002066
:1037E00038060020740300207C03002010B59FEDF4
:1037F0009D1ADFED9C0AB2EE0E0A0A2342F2107205
:103800000321994800F0D5FC9FED961ADFED950A4B
:10381000B1EE000A0A234FF49672032192484C300D
:1038200000F0C7FC9FED8F1ADFED8E0AB2EE000AA2
:103830000A2342F2107203218B48983000F0B9FC41
:103840009FED881ADFED870AB1EE000A0A234FF4D4
:10385000967203218448E43000F0ABFC10BD83482D
:10386000807E012802D003282DD110E07F48B0F9D6
:10387000080040F2DC51884204DD02207A491C39FC
:10388000087603E0012078491C3908761CE0774867
:1038900090F8320048B174481C38007E012804D1E9
:1038A000022071491C3908760CE0704890F833000A
:1038B00040B16D481C38007E022803D101206A49BE
:1038C0001C39087600E000BF00BF704710B52DED31
:1038D000048BFFF7C4FF64481C38807800286FD140
:1038E00061491C3908769FED620A084680ED030A9B
:1038F0006048006C00EE100AB8EEC00A084680ED81
:10390000040A90ED031AF0EE410A90ED041AB0EEAD
:10391000410A1C3000F0F2F8BDEEC00A10EE100AA9
:1039200001B251481C3881825249B1F956000FF05A
:1039300016FC41EC190BB0EE490AF0EE690A0DF0E5
:1039400037FDB0EE408AF0EE608A9FED4B0B53ECF2
:10395000102B51EC180B0FF00FFE31D24549086CBB
:103960000FF0FDFB41EC190BB0EE490AF0EE690ACD
:103970000DF01EFDB0EE408AF0EE608A9FED400B28
:1039800053EC102B51EC180B0FF014FC18D23648E6
:103990001C380088401C34491C39088008460088BF
:1039A000B0F57A7F0CDB33488068324988610021AA
:1039B0002D481C38818201202B491C3908768870DB
:1039C00029481C388078012849D1002026491C3913
:1039D00008800846007E022805D19FED2B0A084684
:1039E00080ED010A05E09FED1F0A1F481C3880ED9D
:1039F000010A2048006C00EE100AB8EEC00A1A480E
:103A00001C3880ED040A1B4890ED121BB0EE410AF1
:103A1000F0EE610A51EC100B0FF0F0F812491C396E
:103A200088600846D0ED041AB0EE611AD0ED021A93
:103A3000F0EE610AD0ED011AB0EE610ADFED091A6D
:103A400000F10C02B43100F5807000F0F0FBBDEE27
:103A5000C00A10EE100A01B203481C388182BDEC86
:103A6000048B10BD00000000181100203830002029
:103A70000000C842D82E00200000000000509440F2
:103A8000000000000000F03F00C05AC5D0ED000A61
:103A9000F4EEC00AF1EE10FA01DD80ED000AD0ED7F
:103AA000000AB1EE401AF4EEC10AF1EE10FA03D2A8
:103AB000F1EE400AC0ED000A70470364C2638163FF
:103AC00080ED000AC0ED010A80ED021A704780ED1A
:103AD000000AC0ED010A80ED021ADFEDFE1AC0ED0A
:103AE000081ADFEDFC1AC0ED091ADFEDFA1AC0ED75
:103AF0000A1ADFEDF81AC0ED0B1A704710B52DED5C
:103B0000088B0446B0EE408AF0EE608A84ED048AA9
:103B1000C4ED038A38EEC80A84ED070A94ED0C0A56
:103B2000B5EEC00AF1EE10FA27D094ED0C0A10EEB3
:103B3000101A08460FF018FF41EC190B94ED070A14
:103B400010EE101A08460FF00FFF41EC1B0BB0EE01
:103B50004B0AF0EE6B0A0DF02BFCB0EE40AAF0EE33
:103B600060AA53EC192B51EC1A0B0FF005FD04D28F
:103B70009FEDD80ABDEC088B10BDA06B03283ED189
:103B800094ED000AD4ED070A20EE200A84ED080A1D
:103B900094ED090AD4ED010A94ED071A00EE810AAA
:103BA00084ED090A94ED070AD4ED060A30EE600AA6
:103BB000D4ED020A20EE200A84ED0A0AD4ED100AA0
:103BC000F8EE600AB0EE600A04F12400FFF75EFF31
:103BD00094ED080AD4ED090A30EE200AD4ED0A0A61
:103BE00030EE200A84ED0B0AD4ED0F0AF8EE600ADD
:103BF000B0EE600A04F12C00FFF748FF42E0A06B32
:103C000004283FD194ED070AD4ED060A30EE600A8D
:103C1000D4ED000A20EE200A84ED080A94ED010A92
:103C2000D4ED070A20EE200A84ED090A94ED070A74
:103C3000D4ED060AB0EE001A01EE600AD4ED050AD2
:103C400030EE200AD4ED020A20EE200A84ED0A0AA2
:103C500094ED080AD4ED090A30EE200AD4ED0A0AE0
:103C600030EE200AD4ED0B0A30EE200A84ED0B0A68
:103C7000D4ED0F0AF8EE600AB0EE600A04F12C00F1
:103C8000FFF704FF94ED060A84ED050A94ED070A98
:103C900084ED060A94ED0D0AB5EEC00AF1EE10FAB5
:103CA00025D094ED0D0A10EE101A08460FF05CFEB8
:103CB00041EC190B94ED0B0A10EE101A08460FF0A8
:103CC00053FE41EC1B0BB0EE4B0AF0EE6B0A0DF00D
:103CD0006FFBB0EE40AAF0EE60AA53EC192B51EC4A
:103CE0001A0B0FF067FA02D29FED7A0A42E794EDC1
:103CF0000B0A3FE710B52DED088B0446B0EE408A65
:103D0000F0EE608A84ED048AC4ED038A38EEC80AB6
:103D100084ED070A94ED0C0AB5EEC00AF1EE10FA34
:103D200027D094ED0C0A10EE101A08460FF01CFE76
:103D300041EC190B94ED070A10EE101A08460FF02B
:103D400013FE41EC1B0BB0EE4B0AF0EE6B0A0DF0CC
:103D50002FFBB0EE40AAF0EE60AA53EC192B51EC09
:103D60001A0B0FF009FC04D29FED5A0ABDEC088B28
:103D700010BDA06B03283ED194ED000AD4ED070AD4
:103D800020EE200A84ED080A94ED090AD4ED010A18
:103D900094ED071A00EE810A84ED090A94ED070AF2
:103DA000D4ED060A30EE600AD4ED020A20EE200AB5
:103DB00084ED0A0AD4ED100AF8EE600AB0EE600A4B
:103DC00004F12400FFF762FE94ED080AD4ED090A1D
:103DD00030EE200AD4ED0A0A30EE200A84ED0B0AF8
:103DE000D4ED0F0AF8EE600AB0EE600A04F12C0080
:103DF000FFF74CFE3EE0A06B04283BD194ED070A90
:103E0000D4ED060A30EE600AD4ED000A20EE200A56
:103E100084ED080A94ED010AD4ED070A20EE200A89
:103E200084ED090A94ED070AD4ED060AB0EE001AF3
:103E300001EE600AD4ED050A30EE200AD4ED020A44
:103E400020EE200A84ED0A0A94ED080AD4ED0A0A4D
:103E500030EE200AD4ED0B0A30EE200A84ED0B0A76
:103E6000D4ED0F0AF8EE600AB0EE600A04F12C00FF
:103E7000FFF70CFE94ED060A84ED050A94ED070A9F
:103E800084ED060A94ED0D0AB5EEC00AF1EE10FAC3
:103E900028D094ED0D0A10EE101A08460FF064FDBC
:103EA00041EC190B94ED0B0A10EE101A08460FF0B6
:103EB0005BFD41EC1B0BB0EE4B0AF0EE6B0A0DF014
:103EC00077FAB0EE40AAF0EE60AA53EC192B51EC51
:103ED0001A0B01E0000000000FF06CF902D21FED98
:103EE000030A43E794ED0B0A40E710B52DED0A8B6A
:103EF0000446F0EE408AB0EE609AB0EE418AC4ED1E
:103F0000048A84ED039A39EE680A84ED070A18EEF4
:103F1000100A0FF029FD41EC1A0B94ED070A10EE80
:103F2000101A08460FF020FD41EC1C0BB0EE4C0AB5
:103F3000F0EE6C0A0DF03CFAB0EE40BAF0EE60BA6A
:103F400053EC1A2B51EC1B0B0FF034F904D21FED7C
:103F50001F0A84ED070A1CE094ED070AB4EEC80AB4
:103F6000F1EE10FA06DD94ED070A30EE480A84ED12
:103F7000070A0EE094ED070AF1EE480AB4EEE00AF3
:103F8000F1EE10FA05D294ED070A30EE080A84ED3E
:103F9000070A18EE100A0FF0E7FC41EC1A0B39EE95
:103FA000680A10EE101A08460FF0DEFC41EC1C0BFC
:103FB000B0EE4C0AF0EE6C0A0DF0FAF9B0EE40BA31
:103FC000F0EE60BA53EC1A2B51EC1B0B0FF0F2F829
:103FD00003D21FED400A84ED070A94ED0C0AB5EEFA
:103FE000C00AF1EE10FA27D094ED0C0A10EE101A68
:103FF00008460FF0B9FC41EC1A0B94ED070A10EEDD
:10400000101A08460FF0B0FC41EC1C0BB0EE4C0A45
:10401000F0EE6C0A0DF0CCF9B0EE40BAF0EE60BAFA
:1040200053EC1A2B51EC1B0B0FF0A6FA04D21FED28
:10403000570ABDEC0A8B10BDA06B03283ED194ED4E
:10404000000AD4ED070A20EE200A84ED080A94ED58
:10405000090AD4ED010A94ED071A00EE810A84EDF5
:10406000090A94ED070AD4ED060A30EE600AD4ED91
:10407000020A20EE200A84ED0A0AD4ED100AF8EEB6
:10408000600AB0EE600A04F12400FFF7FFFC94ED33
:10409000080AD4ED090A30EE200AD4ED0A0A30EEFF
:1040A000200A84ED0B0AD4ED0F0AF8EE600AB0EE98
:1040B000600A04F12C00FFF7E9FC42E0A06B042841
:1040C0003FD194ED070AD4ED060A30EE600AD4ED34
:1040D000000A20EE200A84ED080A94ED010AD4EDCE
:1040E000070A20EE200A84ED090A94ED070AD4EDB0
:1040F000060AB0EE001A01EE600AD4ED050A30EEB1
:10410000200AD4ED020A20EE200A84ED0A0A94ED7A
:10411000080AD4ED090A30EE200AD4ED0A0A30EE7E
:10412000200AD4ED0B0A30EE200A84ED0B0AD4ED00
:104130000F0AF8EE600AB0EE600A04F12C00FFF7F7
:10414000A5FC94ED060A84ED050A94ED070A84EDBA
:10415000060A94ED0D0AB5EEC00AF1EE10FA25D06C
:1041600094ED0D0A10EE101A08460FF0FDFB41EC1D
:104170001A0B94ED0B0A10EE101A08460FF0F4FB20
:1041800041EC1C0BB0EE4C0AF0EE6C0A0DF010F98D
:10419000B0EE40BAF0EE60BA53EC1A2B51EC1B0BA8
:1041A0000FF008F802D21FEDB50A42E794ED0B0AB2
:1041B0003FE72DE9F0412DED048B04460D461646F0
:1041C0001F46B0EE408AF0EE608AB0EE419A2A486F
:1041D0006064B0EE491AF0EE680AB0EE480A3B4659
:1041E000324629462046D4F844C0E047BDEC048B53
:1041F000BDE8F0811FEDC90A80ED080A1FEDCB0A6A
:1042000080ED090A1FEDCD0A80ED0A0A1FEDCF0AE5
:1042100080ED0B0A1FEDD10A80ED050A1FEDD30AD0
:1042200080ED060A1FEDD50A80ED070A704770B5CC
:104230002DED048B06460D461446B0EE408AF0EE96
:10424000608AB0EE419AF0EE619AF0EE480AB0EE64
:10425000680A3046FFF752FC30EE290A84ED000A66
:1042600094ED000AF0EE400AB0EE490A2846FFF746
:1042700045FCBDEC048B70BDBB3A000810B504468C
:104280002068A0F2012030B101280FD0022807D009
:10429000032815D10FE02146254800F0B7F910E0BA
:1042A00021462348583000F0B1F90AE02146214860
:1042B00000F0ACF905E021461F4800F0A7F900E046
:1042C00000BF00BF10BD10B504462068A0F2052055
:1042D00010B101280DD105E032222146174800F027
:1042E000A8F907E040F20A522146154800F0A1F96A
:1042F00000BF00BF00BF10BD08B5002000901148EE
:10430000B0F92620B0F9241000230F4800F0B7F9C7
:104310000E48B0F9140000900D48B0F93830B0F9EB
:104320003420B0F936100B4800F055FA08BD0000F3
:10433000702C0020802E0020D82E0020082A00207B
:10434000B02900203806002000680040FC10002042
:10435000F00200200064004070B505460C464C2277
:10436000A91D39480BF020FD374890ED0D0AB1EE3C
:10437000400A84ED000A354890ED000A344880ED8B
:10438000000A314890ED0E0A304880ED000A90EDA9
:10439000000A2F48D0ED000A30EE600ADFED2D0A4A
:1043A000B4EEE00AF1EE10FA05DB2B480068401E7F
:1043B0002949086013E0254890ED000A2448D0ED13
:1043C000000A30EE600ADFED250AB4EEE00AF1EEF5
:1043D00010FA04D820480068401C1F4908601E4895
:1043E00000684FF4B471484300EE100AB8EEC00AFA
:1043F0001648D0ED000A30EE200AB1EE400A84EDF6
:10440000010A114890ED0C0A84ED020A90ED060AAB
:10441000B1EE400A84ED030A90ED080AB1EE400ABD
:1044200084ED040A90ED070A84ED050A90ED030A75
:1044300084ED060A90ED050A84ED070A90ED040A62
:1044400084ED080A70BD0000302F0020A403002076
:10445000A00300200000A243A80300200000A2C384
:104460000A7BCB7A42EA0322826182698260826996
:1044700042600269521C026170472DE9F041044616
:104480000D460026002720686060287BE97A40EA14
:104490000120206020686168401AE060E06810F543
:1044A000805F07DAA06B401CA063E06800F5005055
:1044B000E0610DE0E068B0F5805F07DDA06B401EB5
:1044C000A063E068A0F50050E06101E0E068E06111
:1044D0002168A06B01EB4030A0602068A269801ABF
:1044E00000EE100AF8EEC00AA06B4FF4B47250430D
:1044F00000EE100AB8EEC00A9FEDFE1A00EE810A27
:1045000010EE101A08460FF02FFA41EC100B84ED54
:10451000120BE269207D411C217504F1200141F854
:104520002020207D062801D100202075002605E0EE
:1045300004F1200050F826000744761C062EF7DB15
:10454000062097FBF0F02064A97B687B41EA0020FD
:1045500000B2A4F85400297CE87B41EA002000B2B4
:10456000A4F85600BDE8F08170B504460D462068F9
:104570006060287BE97A40EA012020602068616859
:10458000401AE060E06810F5805F07DAA06B401C1D
:10459000A063E06800F50050E0610DE0E068B0F570
:1045A000805F07DDA06B401EA063E068A0F50050AF
:1045B000E06101E0E068E0612168A06B01EB403060
:1045C000A0602068A269801A00EE100AF8EEC00A06
:1045D000A06B4FF4B472504300EE100AB8EEC00A5C
:1045E0009FEDC51A00EE810A10EE101A08460FF072
:1045F000BBF941EC100B84ED120B687B000200B29A
:10460000A97B08432064687C206570BD70B50446B2
:104610000D46E06B401CE063E06B052804DC294696
:104620002046FFF71DFF03E029462046FFF725FF40
:1046300070BD70B504460E461546E06B401CE06345
:10464000E06B022800DCA56131462046FFF78CFFB5
:10465000E06B0A2812DCA069A168401A10F57A6F95
:1046600003DA05F50050A06108E0A069A168401ACE
:10467000B0F57A6F02DDA5F50050A06170BD2DE99F
:10468000F04186B080460C4615461E460C9F201E03
:1046900001DB014600E0414247F2481291420ADD47
:1046A000201E01DB014600E0414247F2481262430E
:1046B00092FBF1F10CB2281E01DB014600E0414201
:1046C00047F2481291420ADD281E01DB014600E054
:1046D000414247F248126A4392FBF1F10DB2301E9B
:1046E00001DB014600E0414247F2481291420ADDF7
:1046F000301E01DB014600E0414247F2481272439E
:1047000092FBF1F10EB2381E01DB014600E041429E
:1047100047F2481291420ADD381E01DB014600E0F3
:10472000414247F248127A4392FBF1F10FB240F254
:10473000FF10019000208DF80C008DF80D0008206E
:104740008DF80E00200A8DF80F008DF81040290A10
:104750008DF811108DF81250310A8DF813108DF864
:104760001460390A8DF815108DF8167001A94046AD
:1047700003F05AF906B0BDE8F0812DE9F04186B0AA
:1047800080460C4615461E460C9F40F2FF200190C5
:1047900000208DF80C008DF80D0008208DF80E001B
:1047A000200A8DF80F008DF81040290A8DF811109D
:1047B0008DF81250310A8DF813108DF81460390AF3
:1047C0008DF815108DF8167001A9404603F02CF9EC
:1047D00006B0BDE8F0812DE9F04186B080460C4678
:1047E00015461E460C9F201E01DB014600E041429B
:1047F00047F2481291420ADD201E01DB014600E02B
:10480000414247F24812624392FBF1F10CB2281E7A
:1048100001DB014600E0414247F2481291420ADDC5
:10482000281E01DB014600E0414247F248126A437C
:1048300092FBF1F10DB2301E01DB014600E0414276
:1048400047F2481291420ADD301E01DB014600E0CA
:10485000414247F24812724392FBF1F10EB2381E08
:1048600001DB014600E0414247F2481291420ADD75
:10487000381E01DB014600E0414247F248127A430C
:1048800092FBF1F10FB24FF40070019000208DF80F
:104890000C008DF80D0008208DF80E00200A8DF810
:1048A0000F008DF81040290A8DF811108DF8125064
:1048B000310A8DF813108DF81460390A8DF815102F
:1048C0008DF8167001A9404603F0AEF806B0BDE8B9
:1048D000F0812DE9F04186B080460C4615461E4613
:1048E0000C9F40F2FF10019000208DF80C008DF815
:1048F0000D0003E0FFFF333D0000343D08208DF83C
:104900000E00200A8DF80F008DF81040290A8DF84E
:1049100011108DF81250310A8DF813108DF81460B3
:10492000390A8DF815108DF8167001A9404603F06C
:104930007BF806B0BDE8F08130B5034605E013F81A
:10494000010B80EA0204D448025D081EA1F10101B6
:10495000F5D1104630BD70B505460C4600260DB1A8
:10496000022C01D8002070BD611EFF222846FFF7EF
:10497000E3FF0646601E285CB04201D10120F2E749
:104980000020F0E770B505460C4600260DB1022C5C
:1049900000D870BD611EFF222846FFF7CDFF0646F6
:1049A000601E2E5400BFF4E730B5034613B94FF62E
:1049B000FF7030BD09E013F8014B82EA0400C0B279
:1049C000B64D35F8100080EA2222081EA1F101013F
:1049D000F1D11046EDE770B505460C4600260DB145
:1049E000022C01D8002070BDA11EAD4802882846C7
:1049F000FFF7DAFF0646F1B2A01E285C814206D11D
:104A0000601E285CB0EB162F01D10120EBE70020DF
:104A1000E9E770B505460C4600260DB1022C00D81A
:104A200070BDA11E9E4802882846FFF7BDFF0646BE
:104A3000A01E2E54310A601E295400BFF0E770B545
:104A400004460D4600260CB1022D01D8FF2070BD92
:104A5000FF2229462046FFF76FFFF8E72DE9FC5FAC
:104A600005460F46092F01D8BDE8FC9F0024A0464B
:104A70000DE115F80490601C295CA01C285C41EA3B
:104A80000026601D295CA01D285C41EA002A281927
:104A900000F1070B28190168009100798DF80400D6
:104AA00006F109001FFA80F8B9F1A50F71D10521AF
:104AB0006846FFF750FF00286BD028194146FFF7E2
:104AC0008AFF0028F8D0BAF5017F63D010DCBAF570
:104AD000817F2CD006DCBAF1010F1BD0BAF1030F95
:104AE00079D11DE0AAF2012040B30128F8D149E0B4
:104AF000BAF5027F70D006DCAAF20620002852D058
:104B00000128EDD169E0AAF2013000287ED0022808
:104B1000E6D1B0E03246594662480BF045F9B2E0C2
:104B2000324659465F480C300BF03EF9ABE0324656
:104B300059465C4830300BF037F9A4E0324659460C
:104B4000584837300BF030F9564890F837000128B4
:104B500009DB544890F83700072804DC022051494B
:104B600081F8BB000DE04F4890F837000B2808DBB8
:104B70004C4890F83700112803DC0120494981F89E
:104B8000BB0080E032465946464844300BF00CF9F1
:104B900079E079E0052E05D1324659464148643026
:104BA0000BF002F96FE0324659463E486C300BF08C
:104BB000FBF83C4890F86C00000958B9394890F867
:104BC0006C0000F00F0028B13748C07B10B1022004
:104BD0003549C87357E055E021E0072E1ED1324613
:104BE000594630486D300BF0DFF82E48006F00EE6C
:104BF000100AF3EE040AB4EEE00AF1EE10FA06D25F
:104C0000B3EE0C0A2948FEF7A9FD07E02CE0254881
:104C1000006F00EE100A2548FEF7A0FD33E0324693
:104C20005946204874300BF0BFF8214800882149CC
:104C300008801C48B0F874001D49088008460088A8
:104C40001C490988401A002802DC1948008800B96C
:104C500019E01848008816490988401A1649098839
:104C60000844154908800EE0324659460D487A300E
:104C70000BF09AF807E0324659460A48A2300BF08A
:104C800093F800E000BF00BF04EB080084B2A74225
:104C90003FF7EFAE00BFE7E69F3C0108A03D0108EB
:104CA000B40300207C2F00208C0D00205003002036
:104CB000AE030020AC030020B003002010B5034673
:104CC0003BB1087838B9012008701078401C10708A
:104CD00001E000200870107800EBD0746410A0EBA5
:104CE00044040CB9002010BD0120FCE7CB8A03402E
:104CF0000BB1012300E000231370704710B5044688
:104D000004F1290221460120FFF7F0FF04F12A02F5
:104D100021460420FFF7EAFF04F12B02214602207E
:104D2000FFF7E4FF04F12C0221460820FFF7DEFF25
:104D300004F12D0221461020FFF7D8FF04F12F02C5
:104D400021462020FFF7D2FF04F130022146402007
:104D5000FFF7CCFF04F1310221468020FFF7C6FFA8
:104D600004F1320221464FF48070FFF7BFFF04F1D7
:104D7000330221464FF40070FFF7B8FF04F134020C
:104D800021464FF48060FFF7B1FF04F13502214660
:104D90004FF40060FFF7AAFF04F12E0221464FF402
:104DA0008050FFF7A3FF04F1360221464FF4005074
:104DB000FFF79CFF04F1370221464FF48040FFF7D4
:104DC00095FF04F1380221464FF40040FFF78EFFB3
:104DD00094F82900974A9849FFF770FF3921085540
:104DE0002A21085D954A9649FFF768FF3A21085540
:104DF0002B21085D934A9449FFF760FF3B2108553A
:104E00002C21085D914A9249FFF758FF3C21085533
:104E10002D21085D8F4A9049FFF750FF3D2108552D
:104E20002F21085D8D4A8E49FFF748FF3F21085525
:104E30003021085D8B4A8C49FFF740FF402108551F
:104E40003121085D894A8A49FFF738FF4121085519
:104E50003221085D874A8849FFF730FF4221085513
:104E60003321085D854A8649FFF728FF432108550D
:104E70003421085D834A8449FFF720FF4421085507
:104E80003521085D814A8249FFF718FF4521085501
:104E90002E21085D7F4A8049FFF710FF3E2108550B
:104EA0003621085D7D4A7E49FFF708FF46210855F7
:104EB0003721085D7B4A7C49FFF700FF47210855F1
:104EC0003821085D794A7A49FFF7F8FE48210855EC
:104ED00010BD817AC176017FC27E891A4177C27E78
:104EE0000277417F01290ED1016A491C0162016AE2
:104EF00001EBD1725210A1EB420212B9002282776B
:104F000001E001228277417F02290ED1416A491CCA
:104F10004162416A01EBD1725210A1EB420212B917
:104F20000022C27701E00122C277B0F90810A1F592
:104F30008061052903DA002228210A5402E00122B7
:104F400028210A547047C17A012901D1817608E0ED
:104F5000C17A032901D1817603E0C17A022900D107
:104F60008176704730B504460D46122D00D030BD15
:104F700004B9FCE72078617840EA0120C0F30A0018
:104F80004C4908806078C010A17840EA4110C0F315
:104F90000A0048494880A0788011E17840EA810001
:104FA000217940EA8120C0F30A00424988802079B3
:104FB0004010617940EAC110C0F30A003D49C88041
:104FC000207C617C40EA0120C0F30A003949088155
:104FD00060790011800888726079C0F30110C8728E
:104FE000A079E17940EA012000B232498881207A33
:104FF000617A40EA012001B22E48C181A07AE17AAB
:1050000040EA012001B22B480182217B0175617BBE
:105010004175A07BE17B40EA01202649C882084611
:10502000FFF791FF2348FFF754FF2248FFF766FE82
:1050300000BF9CE7B7030020B6030020B90300209F
:10504000B8030020BB030020BA030020BD030020EA
:10505000BC030020BF030020BE030020C1030020CA
:10506000C0030020C3030020C2030020C5030020AA
:10507000C4030020C7030020C6030020C90300208A
:10508000C8030020CB030020CA030020CD0300206A
:10509000CC030020CF030020CE030020D10300204A
:1050A000D0030020D3030020D2030020D50300202A
:1050B000D4030020383000202DE9F05F2DED028B65
:1050C00004460D4616461F46B0EE408AF0EE608A52
:1050D000DDE90EABDDE90C89174804704570867078
:1050E000C770024618EE100A18EE901A50619161CE
:1050F0001046A0F80880A0F80A90A0F80CA0A0F82C
:105100000EB01146109808821198488212980871C2
:1051100013984871094890F8380088710848C07B96
:10512000C871084601F0D8FBBDEC028BBDE8F09FCA
:105130000A68026070470000813000207C2F002048
:105140008C0D002010B5CEB0FE4890F83700FE4917
:1051500008700846007867281BD006DC032809D0B1
:1051600004280CD0052823D10EE0682816D0692821
:105170001ED118E040F20310F449088018E04FF403
:105180008270F249088013E040F20510EF49088070
:105190000EE040F26710ED49088009E04FF4B4706A
:1051A000EA49088004E040F26910E849088000BF3D
:1051B00000BFE54840780A287ED2DFE800F07D0590
:1051C00039536D89A3D7FEFD0F22E1492FA80AF0BC
:1051D000EBFD0F22DF492BA80AF0E6FD0F22DE4986
:1051E00027A80AF0E1FD0F22DC4923A80AF021FEDE
:1051F0000F22DB491FA80AF0D7FD0F22D9491BA8AF
:105200000AF0D2FD0F22D84917A80AF012FE59223F
:10521000D64968460AF0C8FDCB486922D3491039FF
:10522000846833A80AF0C0FD33A80FC8A0473DE149
:105230000720CF490F22CDE90C10CE4908A80AF06B
:10524000B3FD1D22CC4968460AF0AEFDBE482D22B2
:10525000C9491039446842A80AF0A6FD42A80FC8FF
:10526000A04723E10920C5490F22CDE90C10C4490C
:1052700008A80AF0DEFD1D22C24968460AF094FD26
:10528000B1482D22BF491039446842A80AF08CFD6C
:1052900042A80FC8A04709E10720BB490F22CDE96A
:1052A0000C10BA4908A80AF07FFD1D22B8496846CB
:1052B0000AF07AFDA44800E0F7E02D22B449103945
:1052C000446842A80AF070FD42A80FC8A047EDE06C
:1052D0000520B0490F22CDE90C10AF4908A80AF00B
:1052E00063FD1D22AD4968460AF05EFD96482D22F9
:1052F000AA491039446842A80AF056FD42A80FC8CE
:10530000A047D3E00F22A6492FA80AF04DFD0F2297
:10531000A4492BA80AF08DFD0F22A34927A80AF063
:1053200043FD0F22A14923A80AF03EFD0F22A04908
:105330001FA80AF039FD0F229E491BA80AF079FD2B
:105340000F229D4917A80AF02FFD59229B49684654
:105350000AF02AFD7C48692298491039846833A8EC
:105360000AF022FD33A80FC8A0479FE00F229449FE
:105370002FA80AF019FD0F2292492BA80AF059FD17
:105380000F22914927A80AF00FFD0F228F4923A869
:105390000AF00AFD0F228E491FA80AF005FD0F2210
:1053A0008C491BA80AF045FD0F228B4917A80AF06B
:1053B000FBFC5922894901E043E00EE068460AF00F
:1053C000F3FC6148692285491039846833A80AF0E2
:1053D000EBFC33A80FC8A04768E00F225C492FA858
:1053E0000AF0E2FC0F225B492BA80AF0DDFC0F2239
:1053F000594927A80AF0D8FC0F22584923A80AF0D7
:1054000018FD0F2256491FA80AF0CEFC0F2255495D
:105410001BA80AF0C9FC0F22534917A80AF009FD7E
:105420005922524968460AF0BFFC474869224F4951
:105430001039C46833A80AF0B7FC33A80FC8A047D6
:1054400034E00F225E492FA80AF0AEFC0F225D491E
:105450002BA80AF0EEFC0F225B4927A80AF0A4FC57
:105460000F225A4923A80AF09FFC0F2258491FA86F
:105470000AF09AFC0F2257491BA80AF0DAFC0F2207
:10548000554917A80AF090FC5922544968460AF079
:105490008BFC2D48692251491039046933A80AF060
:1054A00083FC33A80FC8A04700E000BF00BF264818
:1054B0004088B0F5B47F05DA234840882830224977
:1054C000488005E020484088A0F5B4701E49488017
:1054D0001D484078401C1C494870084640780928FF
:1054E00001DD082048704EB010BD70B52DED0E8B5B
:1054F00082B006460D46B0EE408A9FED390A28EE8E
:10550000000A10EE104A20460EF02EFA41EC1E0B57
:10551000B0EE4E0AF0EE6E0A0CF0FEFDB0EE40CAA0
:10552000F0EE60CA28460DF01AFE41EC1D0B53EC5C
:105530001C2B0DF07BFE41EC1A0B20460EF014FAEA
:1055400050E000007C2F0020E0030020DC0300205E
:10555000990400208A040020C60400206C04002066
:105560005D04002003040020F40300206E320020BC
:10557000C60500204E0400205D340020AF05002049
:1055800030040020D6330020A7050020120400209C
:10559000A9330020B8050020210400200334002096
:1055A0003E05002098050020890500207A0500208E
:1055B0006B0500205C0500204D05002040330020D5
:1055C0002F050020200500201105002002050020E5
:1055D000F3040020E4040020D5040020D73200208A
:1055E00035FA8E3C41EC1E0BB0EE4E0AF0EE6E0A20
:1055F0000BF07AFEB0EE40CAF0EE60CA30460DF015
:10560000AEFD41EC1D0B53EC1C2B0DF00FFE41ECDD
:105610001B0B53EC1A2B0EF0BDF841EC190B0DF0DF
:105620006FFD00B2ADF8040020460EF09DF941EC8C
:105630001E0BB0EE4E0AF0EE6E0A0BF055FEB0EE09
:1056400040CAF0EE60CA28460DF089FD41EC1D0B02
:1056500053EC1C2B0DF0EAFD41EC1B0B20460EF029
:1056600083F941EC1E0BB0EE4E0AF0EE6E0A0CF020
:1056700053FDB0EE40CAF0EE60CA30460DF06FFD4B
:1056800041EC1D0B53EC1C2B0DF0D0FD41EC190B24
:1056900053EC1B2B0DF0E4FA41EC1A0B0DF030FD2E
:1056A00000B2ADF80600019802B0BDEC0E8B70BDE3
:1056B0000FB430B59FB0DDE932454FF48870ADF8D6
:1056C0000400FE4890F83700ADF80600FC4800885A
:1056D000ADF80800FB4801990160BDF80810818011
:1056E0000F222EA922A80AF0A4FB2A4621460DF17A
:1056F00097000AF059FB2D2222A9F248801D0AF0DA
:1057000053FBF0482F3001994160BDF8081001812A
:10571000ED48A5233922EB49009040F2013001F019
:10572000B6FC1FB030BC5DF814FB0FB400B59FB0E1
:105730004FF48270ADF80400E04890F83700ADF8FF
:105740000600DF480088ADF808000F223BA920A81A
:105750000AF06FFB0F223FA90DF18F000AF024FB26
:105760000F2243A90DF19E000AF01EFB0F2247A94C
:105770000DF1AD000AF018FB0F224BA92FA80AF07B
:1057800058FB0F224FA90DF1CB000AF00DFB0F22A1
:1057900053A90DF1DA000AF007FBCA48019901602C
:1057A000BDF808108180692220A9801D0AF0FCFA4A
:1057B000C548A5236F22C349009040F2013001F093
:1057C00066FC1FB05DF814FB0FB42DED020B00B5A5
:1057D0002DED048B9FB0B0EE408AF0EE608A4FF45E
:1057E0008870ADF80400B54890F83700ADF80600B1
:1057F000B3480088ADF80800B24801990160BDF8CF
:10580000081081800F2232A926A80AF012FB0F226D
:1058100042A926A80AF00DFB9DF89B0020F0070086
:10582000801C8DF89B0018EE100A0EF09DF841ECDC
:10583000190B53EC192BA5A10DF1A7000AF06CFA76
:105840002D2226A99F48801D0AF0AEFA9DF8DB00A4
:1058500020F00700801C8DF8DB0018EE900A0EF097
:1058600083F841EC190B53EC192B98A10DF1E700CB
:105870000AF052FA2D2236A9924833300AF094FAEF
:105880009148A52360228F49009040F2013001F039
:10589000FEFB1FB0BDEC048B5DF81CFB0FB410B514
:1058A000A0B04FF48270ADF80800844890F837003B
:1058B000ADF80A0082480088ADF80C000F223DA91F
:1058C00022A80AF0B6FA0F2241A90DF197000AF0BA
:1058D0006BFA0F2245A90DF1A6000AF065FA0F2216
:1058E00049A90DF1B5000AF05FFA0F224DA931A8C0
:1058F0000AF09FFA0F2251A90DF1D3000AF054FAD1
:105900000F2255A90DF1E2000AF04EFA9DF88B0026
:1059100020F00700801C8DF88B0022A8807C20F0EE
:105920000700801C22A988749DF8A90020F00700B8
:10593000801C8DF8A9009DF8B80020F00700801C9D
:105940008DF8B8009DF8C70020F00700801C8DF886
:10595000C7009DF8D60020F00700801C8DF8D60007
:105960009DF8E50020F00700801C8DF8E500584800
:10597000006800EE100ADFED570A20EE200AF3EE71
:105980000C0A80EE201ABCEEC10A10EE100ABDF817
:105990008D1060F3CF11ADF88D104D48006800EE0A
:1059A000100AB5EEC00AF1EE10FA0ED89DF88C0080
:1059B00020F03C00001D8DF88C004FF4B471BDF850
:1059C0008D0061F3CF10ADF88D004148006800EE06
:1059D000100AF1EE040AB4EEE00AF1EE10FA07DD67
:1059E0009DF88C0020F03C00001D8DF88C0010E02C
:1059F0003748006800EE100AF1EE040AB4EEE00A3F
:105A0000F1EE10FA05D29DF88C0020F03C008DF8E4
:105A10008C00314890F83C00012806D122A8C07CB7
:105A200020F03C0122A8C17406E022A8C07C20F02E
:105A30003C00001D22A9C8742848007E022807D116
:105A40009DF8AA0020F03C000C308DF8AA0006E07A
:105A50009DF8AA0020F03C0010308DF8AA002048E4
:105A6000007B072807D19DF8B90020F03C000C30DE
:105A70008DF8B90006E09DF8B90020F03C00103028
:105A80008DF8B9001248006800EE100ADFED150A23
:105A900020EE200ADFED140A20EE200AF3EE0C0AB5
:105AA00080EE201ABCEEC10A10EE104ABDF8CF00FD
:105AB00064F3090022A9ADF8CF0017E07C2F002085
:105AC000DC03002050310020C83100202566000092
:105AD000D603002066E6B343F0020020FC1000204D
