:020000040800F2
:10000000281B002055680008A7010008A901000866
:10001000AB010008AD010008AF01000800000000BE
:10002000000000000000000000000000B101000816
:10003000B301000800000000B5010008B701000886
:100040006F6800086F6800086F6800086F68000834
:100050006F6800086F6800086F6800086F68000824
:100060006F6800086F6800086F6800086F68000814
:100070006F6800086F680008D33B0008733E0008F3
:100080006F6800086F6800086F6800088531000815
:10009000A33100086F6800086F6800086F680008E7
:1000A0006F6800086F6800086F6800086F680008D4
:1000B000D5440008FB440008214500086F6800088B
:1000C0006F6800086F6800086F6800086F680008B4
:1000D0006F680008C7360008D33800087D3B000869
:1000E0006F6800086F6800086F6800086F68000894
:1000F0006F6800086F6800086F6800086F68000884
:100100006F6800086F680008474500086F680008BE
:10011000E73D0008BD400008354600085F4600087E
:100120006F6800086F6800086F6800086F68000853
:100130006F6800086F6800086F680008C732000821
:10014000E53200086F6800086F6800086F680008F3
:100150006F6800086F6800086F680008B342000805
:100160006F6800086F6800086F6800086F68000813
:100170006F6800086F6800086F6800086F68000803
:100180006F6800086F680008DFF80CD006F054FFB5
:10019000004800479D010008281B002000F0D4F80B
:1001A00000F083F9FEE77047FEE7FEE7FEE7FEE7B3
:1001B00070477047704770470CB50022019200925B
:1001C0005849086840F4803008604FF4A06308681C
:1001D00000F4003000900198401C0190009810B984
:1001E00001989842F3D10868800302D5012000905D
:1001F00000E000920098012831D14A48403002685E
:1002000042F0805202604848026842F44042026074
:100210004448083002680260026842F4004202600A
:10022000026842F4A0520260021F404B13600A6849
:1002300042F080720A600A689201FCD53C4A40F2A2
:1002400005711160016821F003010160016841F04E
:10025000020101600168C1F381010229FAD10CBDDC
:1002600010B53448016841F4700101602D480168FF
:1002700041F0010101602B4A00210832116002683F
:100280002D4B1A400260031D2C4A1A60026822F4AA
:100290008022026023480C300160FFF78DFF254962
:1002A0004FF000608039086010BD70B51D4E0836F3
:1002B000306800F00C00224B224900280FD05D105E
:1002C00004280ED008280ED00B6030681D4AC0F3F9
:1002D0000310121D105C0A68C2400A6070BD0B60FA
:1002E000F3E70D60F1E70F4A121D1068C0F3805468
:1002F000106800F03F0034B1B5FBF0F01368C3F3B1
:100300008813584305E0B3FBF0F01368C3F3881378
:1003100058431268C2F30142521C5200B0FBF2F083
:100320000860D2E7003802400070004008544007DF
:10033000003C024088ED00E0FFFFF6FE1030002494
:100340000024F4000000002010B54FF4A06004F079
:10035000A5F903F005F9A82002F0E4FF174803F01F
:1003600025F94FF4E134204603F001FA204603F06A
:100370003FFB204603F06DFC4FF4165003F09FFD49
:1003800003F0FAFE032200230821104602F090FE3B
:10039000032200230821104602F01EFF03F0EDFFA8
:1003A00004F016F804F048F804F060F804F0DEF801
:1003B00004F00EF9BDE8104003F0B4BFA0860100C0
:1003C000F8B53C4C2068401C20603B4881693B48A4
:1003D00090ED001A3848B0EE410AF0EE400A884726
:1003E000374880ED000A2078C00701D101F0D6FA25
:1003F0002068062190FBF1F201FB1200314D324ED4
:1004000058B9B5F9D6070090B5F9D437B5F9D22760
:10041000B5F9D017304601F0F4FF2C4920680840A8
:1004200001280DD105F5F965B5F906000090B5F97B
:100430000430B5F90220B5F90010304602F04BF84F
:100440002068142190FBF1F201FB120010B9204842
:1004500002F0B4FD20680A2190FBF1F201FB1200CA
:1004600010B91C4802F09AFD20684FF47A7190FB95
:10047000F1F201FB1201184D39B90421284604F0AC
:10048000E9FF0221284604F0E5FF21684FF4FA62F3
:1004900091FBF2F302FB1311012905D12846BDE8B7
:1004A000F840042104F0D4BFF8BD0648D0F8E017A6
:1004B00008470000140000209C080020380000209D
:1004C000980800203C0000200068004001000080E7
:1004D0009A09002096090020000802402DE9F05FEB
:1004E00004462DED068B0120207600206076B1EECB
:1004F000041ADFEDFE8A4FF4FA56B1EE0C0AF0EE64
:10050000680A0A233246032104F1A80001F02EFDF7
:10051000B2EE041AF0EE680A9FEDF58A371143F245
:10052000B068B0EE480A3B464246032104F54270EB
:1005300001F01CFDB1EE041AF0EE680AB1EE0C0AEF
:100540000A233246032104F1F40001F00FFDB1EE5D
:10055000001AF0EE680AB0EE480A3B464246032114
:1005600004F5557001F002FDB1EE001AF0EE680AD4
:10057000B1EE0C0A0A233246032104F5A07001F003
:10058000F5FCB2EE001AF6EE000AB0EE480A3B4661
:100590004246032104F5687001F0E8FCB1EE001A50
:1005A000F0EE680AB1EE0C0A0A233246032104F584
:1005B000C67001F0DBFCB2EE041AF0EE680AB0EE91
:1005C000480A3B464246032104F57B7001F0CEFC0D
:1005D00000259FEDC89ADFEDC89A9FEDC88A9FED70
:1005E000C8AA41F2707943F6982A05EB450000EB62
:1005F000051004EB800B0BF5AD60B1EE001AF0EEC8
:10060000490AB1EE040A0A233246032101F0AEFC86
:100610000BF5D360B2EE041AF0EE680AB0EE690A88
:100620003B464246032101F0A1FCF0EE480A0BF5DF
:100630008760B0EE601AB0EE4A0A4B46524603217C
:1006400001F094FC6D1C042DCFDBF0EE480AB0EEF7
:10065000601A9FEDAC0A0A2341F288320321AA48AE
:1006600001F084FCA94CB0EE490AB4F9280000EE70
:10067000900AB8EEE01A00EE900AA548F8EEE00AFB
:1006800041698847B4F92A00B0EE490A00EE900AA1
:10069000B8EEE01A00EE900A9E48F8EEE00A4169D2
:1006A0008847B4F92C0000EE100AB8EEC01A00EE2C
:1006B000100A9948F8EEC00A9FED988A4169B0EE99
:1006C000480A8847B4F92E00B0EE480A00EE900AB6
:1006D000B8EEE01A00EE900A9148F8EEE00A41699F
:1006E000884790484169A4F5026090ED081AF0EE41
:1006F000410A9FED8D0A8B48BDEC068BBDE8F05F8B
:1007000008478A49D1F82610C0F8271000EE101AC1
:100710000022B5EEC00AF1EE10FA02D8C0F8272088
:1007200004E0834B994201DBC0F82730D0F81B105E
:1007300000EE101AB5EEC00AF1EE10FA02D8C0F8B9
:100740001B2070474FF07E529142FADBC0F81B200D
:100750007047F3EE000A774820EE200A80ED050A84
:10076000B5EEC00AF1EE10FA04D89FED640A80EDF0
:10077000050A01E0F0EE400A90ED050A704710B559
:100780002DED068BB0EE409ADFED5C9AB0EE698AF3
:10079000F0EE488A0020674C2434DFED671A9FEDA5
:1007A000672A9FED671A00EB400101EB001104EB93
:1007B000810101F5806191ED190A60EE000A00EEF9
:1007C000A18A04EB4001B1F99F1000EE901AF8EEF7
:1007D000E00A60EE820A60EE800A40EE010A70EEE6
:1007E000A88A401C0428DEDB9FED560A30EE49AA99
:1007F000F1EE000A28EEA80A68EE200A00EECA0A06
:1008000010EE100A06F081FA9FED4F1B53EC112BEE
:1008100006F0B6F841EC100B07F03AF951EC100B6A
:1008200006F0B6FA00EE100A70EE680AB0EE000AA2
:1008300028EE001A80EE810AB5EEC00AF1EE10FA39
:1008400002D8B0EE690A06E010EE100AB0F17E5F41
:1008500001DBB7EE000A68EE000A60EE800A48EE9F
:10086000800A70EE8A0A70EE890A10EE900AC4F8C7
:100870003F00BDEC068B10BD2DE9F04F2DED0A8B2E
:100880008DB00024324FDFF8AC80DFF8A89007F17C
:10089000100B07F1200A08F12408A7F1100608EB55
:1008A000440030F9671F00EE101AB0F90800F8EEA6
:1008B000C00A00EE100A04EB440000EB041008EB41
:1008C0008005B8EEC00A05F5427001F0C2F906EBEA
:1008D000840080ED000A10EE101A1E4A91423DD3AA
:1008E0009FED1D0A80ED000A41E00000CDCCCC3D1B
:1008F000000048430AD7233C0000A042000000004B
:100900000000704200803B44700A0020380800203C
:10091000B8080020D4080020F00800206F12833AA5
:100920000C0900209C080020CDCC4C3FA60F0020D5
:100930000000F0411800002058DF2C3462BEBC37A4
:100940006019C0B7FA7EEA3F000000A09999B93F4C
:10095000200A002000401CC600401CC610EE101AE1
:10096000FE4A914203DB9FEDFE0A80ED000A90ED06
:10097000000AD5EDC60A99ED001A07EB840060EE77
:10098000200A60EE810AC0ED000A99ED011AD9ED46
:10099000021A0BEB840020EE011A21EE001A01EE80
:1009A000801A99ED030A31EE000A80ED000A30EE5C
:1009B000800A0AEB840080ED000A641C042CFFF618
:1009C0006EAF9AED000ADAED010A30EE200ADAED98
:1009D000020A30EE200ADAED030A30EE200A89ED31
:1009E000070A5FED3ABAB5EEC00AF1EE10FA02D886
:1009F000C9ED07BA08E010EE100ADA49884203DBB5
:100A00009FEDD90A89ED070A99ED070A10EE100A41
:100A1000C8F8370000EE100AB5EEC00AF1EE10FA81
:100A200003D80020C8F837000CE000EE900AD8F890
:100A30002F0001EE100AF4EEC10AF1EE10FA01DB0C
:100A4000C8F83700D8F82B0000EE900AD8F8370025
:100A500001EE100A70EEC10A10EE900AC8F83300D9
:100A6000D8F82F00B7EE00BA00EE900ABF4FF4EEB0
:100A7000C00AF1EE10FA7CD20024A7F1100B0AEBA9
:100A80008400D9ED071A90ED000AD8F82F0000EE87
:100A9000900A0BEB840020EE201AC1EE210AC0ED73
:100AA000000A99ED031AB4EEC10AF1EE10FA64DD02
:100AB000B4EEE00AF1EE10FA5FDD09A899ED018AC3
:100AC00000EB840080ED008A04EB440000EB04108E
:100AD00008EB8000D9ED028A90EDC60AD9ED001A24
:100AE00005A800EB840541EE808AC5ED008A31EE51
:100AF00060CA01A800EB840080ED00CA56F824000B
:100B000006F003F9B0EE000A41EC190B28EE000ADA
:100B100010EE100A06F0F9F8F1EE000A28EEA80A25
:100B200068EE200A41EC1A0B00EECC0A10EE100A17
:100B300006F0EBF841EC100B06F0AAFFB0EE408A8D
:100B400095ED000AF0EE608AB1EE400A10EE100A50
:100B500006F0DBF853EC182B05F012FF53EC1A2BC0
:100B600006F027F853EC192B06F023F806F010F9DD
:100B700000E00BE047F8240003E007EB840080ED81
:100B800000BA641C042CFFF67AAF07E0002007EBE4
:100B9000800181ED00BA401C0428F8DB00204FF0F2
:100BA0007E5307EB800191ED000AB5EEC00AF1EE2D
:100BB00010FA02D8C1ED00BA05E010EE102A9A42F0
:100BC00001DB81ED00BA401C0428EADB0DB0BDEC6E
:100BD0000A8BBDE8F08F70B52DED0C8BB0EE40CADE
:100BE0005FEDBACAF0EE6C8AB0EE688A00249FED21
:100BF00060AB9FED61BB624D04EB440000EB041061
:100C000005EB800000F5806090EDB1DA2DEE0D0A65
:100C100010EE100A06F079F853EC1A2B05F057FF86
:100C200041EC190B18EE900A06F06FF853EC192BF3
:100C300005F0A6FE06F0ACF808EE900A05EB4400BD
:100C4000B0F96F0000EE100AB8EEC00A20EE0D0AEF
:100C500010EE100A06F059F853EC1B2B05F037FF85
:100C600041EC190B18EE100A06F04FF853EC192B53
:100C700005F086FE06F08CF808EE100A641C042CC1
:100C8000BADB1CEE100A06F040F841EC190B35F8FF
:100C90006F0F10FB00F1688810FB0011A88810FB93
:100CA00000F2E8886F3D10FB0020084400EE100AB7
:100CB000B8EEC00A10EE100A06F027F89FED311BBF
:100CC00053EC112B05F003FF9FED301B53EC112B60
:100CD00005F056FE53EC192B05F0F3FE06F058F81C
:100CE00009EE100AF1EE000A28EE080A68EEA00AE2
:100CF00000EEC90A10EE100A06F007F81FEDEE1B11
:100D000053EC112B05F03CFE41EC100B06F0C0FE3D
:100D100051EC100B06F03CF800EE100A70EE480A99
:100D2000B0EE000A28EE801A80EE810AB5EEC00A05
:100D3000F1EE10FA02D8B0EE6C0A06E010EE100ADE
:100D4000B0F17E5F01DBB7EE000A68EE800A60EE6C
:100D5000800A48EE000A70EE890A1BE000401C463B
:100D600000401C4600007A4400007A44600A0020DB
:100D70006F3AD1C7BFC2A33EFA7E6A1491CBED3E53
:100D80003C000020926005532866383F77BE9F1ACA
:100D90002FDD144070EE8C0A10EE900AC5F83B006F
:100DA000BDEC0C8B70BD10B5044610EE101A10EEA1
:100DB000900AA163E0639FEDFE1B51EC100B53EC16
:100DC000112B05F084FE41EC100B9FEDFB1B06F090
:100DD000B1FC51EC100B05F0DBFF206300EE100AB4
:100DE000DFEDF70AB5EEC00AF1EE10FA06D200EE1A
:100DF000100A30EE200A10EE100A2063206BF14931
:100E0000884207DB00EE100A30EE600A10EE100A8E
:100E1000606310BD606310BD9FEDEB0A80ED010AB9
:100E200080ED000A80ED020A80ED050A704710B5DA
:100E30000446E648B0F90C1000EE101AB8EEC00AED
:100E400084ED010AB0F90A0000EE100AB8EEC00AFB
:100E500084ED000ADE4890ED0D0ADFEDDB0ADD4887
:100E6000B0EE601A00F0E7FDB1EE400A84ED050A2D
:100E700010BDD64A91789FEDD80A032910D1D0ED44
:100E8000000AF5EEC00AF1EE10FA09D1D0ED010A20
:100E9000F5EEC00AF1EE10FA02D180ED020A4DE043
:100EA000CE4991F83A301BB9DFEDCD0AC0ED020A08
:100EB00091F83A30012B03D1DFEDCA0AC0ED020AE6
:100EC00091F83A30DFEDC80A022B01D1C0ED020AD9
:100ED00091F83A30032B01D1C0ED020A91F83A3073
:100EE000DFEDC20A042B01D1C0ED020A91F83A30BD
:100EF000052B01D1C0ED020A91F83A30DFEDBC0AB2
:100F0000062B01D1C0ED020A91F83A30072B01D12E
:100F1000C0ED020A91F83A30082B03D1DFEDB50A93
:100F2000C0ED020A91F83A30092B01D180ED020A96
:100F300091F83A100A2901D180ED020AB2F90C1099
:100F400000EE101AB8EEC00A80ED010AB2F90A10DC
:100F500000EE101AB8EEC00A80ED000A417E0729A3
:100F60000CD090F8451011B1012904D006E0012100
:100F700080F8451002E0002180F8451090F84510F7
:100F800031B1012903D190ED020A80ED050A7047C5
:100F900090ED020AB1EE400A80ED050A704770B587
:100FA00005462DED088B686B00EE100AF1EE408AC5
:100FB000914E307E07280ED196F84500012801D0C9
:100FC00028B108E09FED8D0A78EE808A03E09FED5E
:100FD0008C0A78EEC08AD6ED000A8A4896ED030A9C
:100FE000B0EE601A816930EEC00A884786ED030AC8
:100FF000D6ED010A844896ED040AB0EE601A8169C4
:1010000030EEC00A884786ED040A0024DFED7FAA8F
:101010009FED7FAAB6EE00BADFED7EBAB0EE680AA9
:1010200006F0D6FAD6ED030A20EE209AB0EE680A52
:1010300006F066FCD6ED040A00EEC09A00EE104AF7
:10104000B8EE400A60EE2A0AB0EE4A0A00EE8B0AB9
:1010500006F0BEFAD6ED050A00EE809AB0EE680AF8
:1010600006F04EFCD6ED030A20EE208AB0EE680AA8
:1010700006F0AEFAD6ED040A00EE808A00EE104AC1
:10108000B8EE400A60EE2A0AB0EE4A0A00EE8B0A79
:1010900006F036FCD6ED050A00EE808AB0EE680A4E
:1010A00006F096FAB0EE680A06F02AFC00EE104A46
:1010B000B8EE400A60EE2A0AB0EE4A0A00EE8B0A49
:1010C00006F086FAB0EE680A06F01AFCB0EE680A7E
:1010D00006F07EFA00EE104AB8EE400A60EE2A0AE8
:1010E000B0EE4A0A00EE8B0A06F00AFC29EE090A65
:1010F00008EE080A10EE100A05F007FE41EC100B8E
:1011000006F0C6FC51EC100B05F0E0FD05EB4401C8
:10111000088519EE100A05F0F8FD41EC190B18EEE0
:10112000100A05F0F2FD41EC100BB0EE491AF0EE9A
:10113000691A06F055F951EC100B05F029FE00EE86
:10114000100A05EB840120EE2B0A10EE100A08614C
:10115000641CE4B2042CFFF461AFBDEC088B70BDDD
:101160002DE9F0470024DFF86880DFF8AC90224FCB
:101170002A4D08F1500604EB440000EBC40009EBD3
:10118000C00090ED120B51EC100B05F001FE00EECB
:10119000100A07EB84004730B1EE400A10EE101A37
:1011A000016108EB8401096900EE101A38E00000C3
:1011B000000000A046DF91BF00000060FB21194045
:1011C000DB0FC940DB0F4940000000000A0F002080
:1011D00038080020700A002000002F44FC0D002079
:1011E0000000C843000048430000FA43008009445F
:1011F00000001644008022443C0000200998443E30
:10120000F3665F3EB8080020D4080020DB0F494099
:10121000DB0F49BFE12E6542C00A0020000A002012
:1012200055F82410B422514300EE901AF8EEE00A6B
:1012300030EE200A10EE101A016008EB440036F878
:101240002410028D51430185641C042C93DBB8F8F3
:1012500028004042A8F82800B8F82A004042A8F820
:101260002A000020F74CF84B07EB800252F8471F8A
:10127000126900EE101A00EE902A30EE600A10EEAD
:1012800010CAA4449C450AD255F82010491E45F8BE
:10129000201056F82010494246F8201039E000EEA0
:1012A000101A00EE902ADFF8A48330EE600A10EEE8
:1012B00010CAC44505DD55F82010891E45F82010D8
:1012C00027E000EE101A00EE902ADFF8848330EE5B
:1012D000600A10EE10CAC4449C450AD255F820108A
:1012E000491C45F8201056F82010494246F82010B5
:1012F0000FE000EE101A00EE902AD64A30EE600A97
:1013000010EE101A914204D955F82010891C45F8A6
:101310002010401C0428A7DBBDE8F08770B500242E
:10132000CD4D05EB840050F8471F006900EE901A80
:1013300000EE100A04EB440000EB041005EB800003
:1013400000F5AD6000F085FC641C042CE9DB287E10
:10135000032801D0072836D10024C04E04EB4400F6
:1013600000EBC40006EBC000B0F8400005EB4403FE
:101370004042673301B2198104EB440000EB0410D2
:1013800005EB800000F5806292ED650ABDEEC00AB3
:1013900010EE102A12B21A8000EE102A00F5D36067
:1013A000F8EEC00A00EE101AB8EEC00A00F051FCC8
:1013B000641C042CD2DB9FEDAA0AFFF70CFC10EE94
:1013C000100AC5F8230095ED000AA34E0024B5EEDF
:1013D000C00A243EF1EE10FA44D195ED010AB5EEB3
:1013E000C00AF1EE10FA3DD1686905F08EFC41ECBF
:1013F000100B06F095F99FED9B1B51EC100B53EC75
:10140000112B05F095FC2DD2984A994BB06930B15B
:1014100050684FF47A71B0FBF3F048433061B46127
:10142000316909B90120B0615068B0FBF3F000EBFD
:101430004002C2EBC010C1EBC000B0F5487F20D81D
:1014400000201FED9F0A00EB400101EB001105EBAE
:10145000810101F5806181EDB10A401CC0B2042810
:10146000F1D30EE095ED000AB5EEC00AF1EE10FAE8
:1014700006D195ED010AB5EEC00AF1EE10FA00D0E2
:1014800034610020297E032909D0072907D005EB04
:101490004001A1F8D047401C0428F3DB70BDD5F80B
:1014A000231005EB400200EE101A00EB400101EBA7
:1014B000001105EB810101F58061D1EDB10AFDEE6E
:1014C000E00A10EE901A09B200EE901AF8EEE00A67
:1014D00020EE600ABDEEC00A10EE101AA2F8D01776
:1014E000D9E72DE9F0472DED028B0024DFF86C9150
:1014F000DFF88081584E002704EB440000EBC40065
:1015000009EBC000B0F8A00106EB4405A5F89F0068
:1015100008EB4400008DA5F8970098ED030AB5EE9E
:10152000C00AF1EE10FA11D1706905F0EEFB41EC42
:10153000100B06F0F5F89FED501B51EC100B53EC1F
:10154000112B05F0F5FB01D2A5F89770D6F8F4172A
:101550004148884735F9970F00EE100AB5F90800A1
:10156000F8EEC00A00EE100A04EB440000EB041091
:1015700006EB8000B8EEC00A00F5876000F069FB5A
:10158000641C042CB8DB3E4C3E48A178032950D0A3
:10159000D0F826103C4A91427ADD207900EB800099
:1015A00000F5827005F085FB41EC180BB6F99F0041
:1015B00005F06EFB41EC100B06F0B2F853EC182B63
:1015C00051EC100B05F0CCFB6ED2207900EB8000C3
:1015D00000F5827005F06DFB41EC180B3546B6F94D
:1015E000A50005F055FB41EC100B06F099F853EC03
:1015F000182B51EC100B05F0B3FB55D20020B3EEC5
:10160000040A00EB400101EB001105EB810101F53B
:10161000806181ED0E0A401C0428F2DB20790F382E
:1016200000EE100AB8EEC00A10EE100AC5F82B0042
:101630008EE0D0F82610B1F1824F2ADD1348C6F8AB
:101640002B0085E0FFFF4BBDFFFFD200000087436A
:10165000FFFF4B3D000087C33C000020C00A002074
:101660000000A0420000000000005940001000E00F
:10167000007A030A3808002000000000000014402F
:101680000A0F0020A60F00200000A0400000BE436B
:1016900054E0D0F8260000EE100AFFF75AF810EEDA
:1016A000100AC6F82B0053E0207900EB800096303A
:1016B00005F0FFFA41EC180B3546B6F99F0005F02E
:1016C000E7FA41EC100B06F02BF853EC182B51EC19
:1016D000100B05F02DFB3BD2207900EB80009630FB
:1016E00005F0E7FA41EC180BB5F9A50005F0D0FAC2
:1016F00041EC100B06F014F853EC182B51EC100BC6
:1017000005F016FB24D200209FEDAE0A00EB40014D
:1017100001EB001105EB810101F5806181ED0E0AFD
:10172000401C0428F2DB2079643000EE100AB8EE89
:10173000400A10EE100AC5F82B0009E0D0F8260088
:1017400000EE100AFFF705F810EE100AC6F82B009D
:10175000D6F82B0000EE100AFFF711F810EE100A71
:10176000C6F81F0000EE100AB5EEC00AF1EE10FA3E
:1017700002D8C6F81F7006E04FF07E523146904204
:1017800001DBC1F81F20307E03280AD0072808D0CB
:1017900006F5F96637807780B780F780BDEC028B5D
:1017A000BAE58949D6F81F00D1ED190A00EE100AF2
:1017B000FDEEE00A10EE902A12B200EE902AF8EE4A
:1017C000E00A20EE200ABDEEC00A10EE102AA6F8AC
:1017D000C827D1ED2C0A00EE100AFDEEE00A10EE4B
:1017E000902A12B200EE902AF8EEE00A20EE200ACB
:1017F000BDEEC00A10EE102AA6F8CA27D1ED3F0AA6
:1018000000EE100AFDEEE00A10EE902A12B200EE91
:10181000902AF8EEE00A20EE200ABDEEC00A10EE93
:10182000102AA6F8CC27D1ED520A00EE100AFDEEE0
:10183000E00A10EE900A00B200EE900AF8EEE00A1C
:1018400020EE200ABDEEC00A10EE100AA6F8CE0760
:10185000A4E710B504462DED048B9FED5C9A5C481F
:10186000B0F90A1000EE101AB8EEC00A10EE101A05
:101870002160B0F90C0000EE100AF8EEC00A10EE7C
:10188000900A606000EE101A00EE900A20EE000A46
:1018900000EEA00A10EE100A05F037FA41EC100B2A
:1018A00006F0F6F851EC100B05F072FAE0604949C9
:1018B000884229DB206805F028FA41EC180B6068A3
:1018C00005F023FA41EC100BB0EE481AF0EE681A5E
:1018D00005F086FD51EC100B05F05AFA00EE100AE7
:1018E000DFED3D0A30EE200A10EE100A05F00DFA89
:1018F00041EC100B9FED391B05F01CFF51EC100B58
:1019000005F046FAA06001E00020E060F0EE490A30
:10191000BDEC048B0A2341F28832BDE810409FEDF4
:10192000311A9FED310A0321304800F01FBB70B51A
:101930000446274DE878207601280AD003280DD0E8
:10194000072810D0D4F8E41720468847E878607656
:1019500070BDD4F8E41720468847F7E7D4F8E817B5
:1019600020468847F2E7D4F8EC1720468847EDE791
:1019700010B5FFF7F5FBFFF7D1FCBDE81040B0E56F
:1019800070B505461A4C2846216C8847616C28467C
:1019900088472846A16CBDE87040084710B5154C33
:1019A0002046D4F8F017884709494869896941EC0D
:1019B000100B0F48C16C88472046D4F8F817BDE8D3
:1019C00010400847000070423C0400200000000066
:1019D0000A0F002000004842DB0FC94000000060F1
:1019E000FB2119400000484300001644700A002003
:1019F000380800203C000020D0ED000AF4EEC00AB8
:101A0000F1EE10FA01DD80ED000AD0ED000AB1EE32
:101A1000400AF4EEC00AF1EE10FA01D280ED000A9D
:101A200070470364C263816380ED000AC0ED010A60
:101A300080ED021A704710B504462DED068BB0EE0E
:101A4000418A70EEC0AA9FEDFDAA84ED040AC4EDA0
:101A5000030AC4ED07AA18EE100A05F056F941EC86
:101A6000190B1AEE900A05F050F941EC100B05F035
:101A700057FE53EC192B51EC100B05F059F902D21B
:101A800084ED07AA16E094ED070AB4EEC80AF1EE59
:101A900010FA04DD30EE480A84ED070A0AE0F1EEA0
:101AA000480AB4EEE00AF1EE10FA03D230EE080A6A
:101AB00084ED070A18EE100A05F027F941EC180B1F
:101AC0001AEE900A05F021F941EC100B05F028FE02
:101AD00053EC182B51EC100B05F02AF901D284EDD0
:101AE00007AA94ED0C0AB5EEC00AF1EE10FA18D070
:101AF00010EE100A05F009F941EC180BE06905F049
:101B000004F941EC100B05F00BFE53EC182B51ECD3
:101B1000100B05F025F904D2B0EE4A0ABDEC068B95
:101B200010BDA06B04F12C01032802D0042836D08C
:101B300066E0D4ED000A94ED070A60EE800AC4ED79
:101B4000080AD4ED090A94ED011A41EE000AC4ED29
:101B5000090AD4ED060A30EE600AD4ED020A20EE3E
:101B6000200A84ED0A0A94ED100A04F12400B8EE6C
:101B7000400AFFF741FF94ED080AD4ED090A30EE60
:101B8000200AD4ED0A0A30EE200A84ED0B0A94ED07
:101B90000F0A0846B8EE400AFFF72EFF30E094ED3A
:101BA000070AD4ED060AD4ED001A30EE601A61EE91
:101BB000211AC4ED081A94ED011A21EE001A84EDE1
:101BC000091AB0EE002A00EEC20AD4ED050A30EE82
:101BD000200AD4ED020A20EE200A84ED0A0A71EEF2
:101BE000810A30EE800AD4ED0B0A30EE200A84ED33
:101BF0000B0A94ED0F0A0846B8EE400AFFF7FCFE08
:101C000094ED060A84ED050A94ED070A84ED060AB0
:101C100094ED0D0AB5EEC00AF1EE10FA16D010EEF2
:101C2000100A05F072F841EC180BE06A05F06DF847
:101C300041EC100B05F074FD53EC182B51EC100B1C
:101C400005F076F802D2B0EE4A0A67E794ED0B0A87
:101C500064E710B504462DED048B84ED040AC4ED51
:101C6000030A70EEC09AC4ED079A94ED0C0A9FED3A
:101C7000739AB5EEC00AF1EE10FA19D010EE100A00
:101C800005F043F841EC180B19EE900A05F03DF809
:101C900041EC100B05F044FD53EC182B51EC100BEC
:101CA00005F05EF804D2B0EE490ABDEC048B10BD1D
:101CB000A06B04F12C01032802D0042836D066E082
:101CC000D4ED000A94ED070A60EE800AC4ED080A1C
:101CD000D4ED090A94ED011A41EE000AC4ED090A97
:101CE000D4ED060A30EE600AD4ED020A20EE200A96
:101CF00084ED0A0A94ED100A04F12400B8EE400ABB
:101D0000FFF77AFE94ED080AD4ED090A30EE200AB6
:101D1000D4ED0A0A30EE200A84ED0B0A94ED0F0A86
:101D20000846B8EE400AFFF767FE30E094ED070A78
:101D3000D4ED061A94ED001A70EE610A60EE810A85
:101D4000C4ED080A94ED011A21EE001A84ED091A77
:101D5000B0EE002A01EEC20AD4ED051A30EE210AD7
:101D6000D4ED021A20EE210A84ED0A0A70EE810AEF
:101D700030EE800AD4ED0B0A30EE200A84ED0B0A17
:101D800094ED0F0A0846B8EE400AFFF735FE94EDD1
:101D9000060A84ED050A94ED070A84ED060A94ED1F
:101DA0000D0AB5EEC00AF1EE10FA16D010EE100AC8
:101DB00004F0ABFF41EC180BE06A04F0A6FF41EC25
:101DC000100B05F0ADFC53EC182B51EC100B04F08C
:101DD000AFFF02D2B0EE490A67E794ED0B0A64E761
:101DE00010B504462DED048B84ED040AC4ED030AFE
:101DF00070EEC09AC4ED079A94ED0C0A9FED0F9A0D
:101E0000B5EEC00AF1EE10FA1AD010EE100A04F086
:101E10007CFF41EC180B19EE900A04F076FF41ECC0
:101E2000100B05F07DFC53EC182B51EC100B04F05B
:101E300097FF05D2B0EE490A37E700000000000026
:101E4000A06B04F12C01032802D0042836D064E0F2
:101E5000D4ED000A94ED070A60EE800AC4ED080A8A
:101E6000D4ED090A94ED011A41EE000AC4ED090A05
:101E7000D4ED060A30EE600AD4ED020A20EE200A04
:101E800084ED0A0A94ED100A04F12400B8EE400A29
:101E9000FFF7B2FD94ED080AD4ED090A30EE200AEE
:101EA000D4ED0A0A30EE200A84ED0B0A94ED0F0AF5
:101EB0000846B8EE400AFFF79FFD2EE094ED070AB2
:101EC000D4ED060AD4ED001A30EE601A21EE211A84
:101ED00084ED081AD4ED011A61EE801AC4ED091AD6
:101EE000F0EE001A00EEE10AD4ED050A30EE200A09
:101EF000D4ED020A20EE200A84ED0A0A31EE000A2F
:101F0000D4ED0B0A30EE200A84ED0B0A94ED0F0A93
:101F10000846B8EE400AFFF76FFD94ED060A84ED1F
:101F2000050A94ED070A84ED060A94ED0D0AB5EE54
:101F3000C00AF1EE10FA16D010EE100A04F0E5FE19
:101F400041EC180BE06A04F0E0FE41EC100B05F0E8
:101F5000E7FB53EC182B51EC100B04F0E9FE02D216
:101F6000B0EE490AA1E694ED0B0A9EE630B4194C96
:101F7000446430BC55E51FED4F0A80ED080A80ED42
:101F8000090A80ED0A0A80ED0B0A80ED050A80ED52
:101F9000060A80ED070A704770B5B0EE402A2DEDB5
:101FA000028B0D46B0EE600A1446F0EE418AB0EEA8
:101FB000618AF0EE420AFFF74CFE70EE080AC4EDAB
:101FC000000AB0EE680ABDEC028B2846BDE87040FE
:101FD0003FE60000231A000880ED040AC0ED030A62
:101FE00080ED021A9FED300A80ED000A80ED010AB3
:101FF000704780ED000AD0ED011A90ED042A40EE02
:10200000021AC0ED011AC0ED030A80ED021AB5EE06
:10201000C00AF1EE10FA07DDF4EEE01AF1EE10FA64
:1020200009DDC0ED010A06E0F4EEC11AF1EE10FA86
:1020300001D280ED011A90ED010A704710B51B4CDA
:10204000F7EE001A94ED011A31EE211A84ED011A0F
:10205000DFED171A60EEA10AC4ED030A21EE000AB3
:1020600084ED000A20EE800A10EE100A04F04DFE06
:1020700041EC100B05F0E0FB51EC100B04F088FE76
:1020800000EE100A84ED020AD4ED030A94ED001A62
:10209000084960EE810A10EE900A884203DBDFED0A
:1020A000020AC4ED000A10BD00000000280900204B
:1020B000DB0FC940DB0FC9400146244800F099BF3F
:1020C00002682349A2F20122082A3ED2DFE802F088
:1020D00004080D12161F293301461E4800F008B9E6
:1020E00001461C48583000F003B901461948B03089
:1020F00000F0FEB80146184800F0FAB80A68521C11
:102100000A60014640F66B42144800F0F9B84A688C
:10211000521C4A600146114840F60F12583000F038
:10212000EFB88A68521C8A6001460A4840F6654248
:10213000B03800F0E5B8CA68521CCA6001460548CC
:1021400040F69D62583800F0DBB87047D00F002091
:10215000A40D0020200C0020280D0020C00A002023
:102160000A7BC97A42EA01218161816981608169C2
:1021700041600169491C016170472DE9F041044645
:102180000F460025002620686060387BF97A40EA17
:102190000120206020686168401AE060E06810F566
:1021A000805F07DAA06B401CA063E06800F5005078
:1021B000E0610DE0E068B0F5805F07DDA06B401ED8
:1021C000A063E068A0F50050E06101E0E068E06134
:1021D0002068A16B00EB4130A0602068A169401A23
:1021E00000EE100AA06BF8EEC00A4FF4B471484339
:1021F00000EE100AB8EEC00A9FEDE41A00EE810A64
:1022000010EE100A04F081FD41EC100B84ED120B6E
:10221000E269207D411C217504EB80000262207D73
:10222000062801D10020207504EB8500006A0644D1
:102230006D1C062DF8DB062096FBF0F02064B87BC1
:10224000797B40EA0120A4F85400BDE8F08170B524
:1022500004460D4620686060287BE97A40EA012048
:10226000206020686168401AE060E06810F5805FD7
:1022700007DAA06B401CA063E06800F50050E06145
:102280000DE0E068B0F5805F07DDA06B401EA06345
:10229000E068A0F50050E06101E0E068E0612068DE
:1022A000A16B00EB4130A0602068A169401A00EEEC
:1022B000100AA06BF8EEC00A4FF4B471484300EE68
:1022C000100AB8EEC00A9FEDB21A00EE810A10EEB5
:1022D000100A04F01AFD41EC100B84ED120B687B20
:1022E000A97B000200B208432064687C206570BDB1
:1022F000C26B521CC263C26B052A00DC30E73CE7AC
:1023000070B504461546E06B401CE063E06B0228A4
:1023100000DCA5612046FFF79AFFE06B0A2808DC85
:10232000A069A168401A10F57A6F03DA05F5005527
:10233000A56170BDA069A168401AB0F57A6FF8DD9B
:10234000A5F50055A56170BD70B586B00A9D40F237
:10235000FF14019400248DF80C408DF80D400826E0
:102360008DF80E600E0A8DF80F608DF81010110AAE
:102370008DF811108DF81220190A8DF813108DF8B0
:102380001430290A8DF815108DF81650814A40F640
:10239000B83306E01168491C1160994201D11460FC
:1023A00003E0816811F0E05FF4D001A902F034FB92
:1023B00006B070BD30B585B0089C40F2FF25009591
:1023C00000258DF808508DF8095008258DF80A5021
:1023D0000D0A8DF80B508DF80C10110A8DF80D10A8
:1023E0008DF80E20190A8DF80F108DF81030210A83
:1023F0008DF811108DF81240694602F00DFB05B002
:1024000030BD70B586B00A9D4FF4FF74019400246E
:102410008DF80C408DF80D4008268DF80E600E0AE0
:102420008DF80F608DF81010110A8DF811108DF8CD
:102430001220190A8DF813108DF81430290A8DF81E
:1024400015108DF81650534A40F6B83306E051681F
:10245000491C5160994201D1546003E0816811F038
:10246000E05FF4D001A902F0D7FAA1E770B586B019
:102470000A9D40F2FE24019400248DF80C408DF852
:102480000D4008268DF80E600E0A8DF80F608DF84D
:102490001010110A8DF811108DF81220190A8DF8FC
:1024A00013108DF81430290A8DF815108DF8165078
:1024B000384A40F6B83306E09168491C9160994269
:1024C00001D1946003E0816811F0E05FF4D001A9CC
:1024D00002F0A2FA6CE770B586B00A9D4FF4007462
:1024E000019400248DF80C408DF80D4008268DF8DD
:1024F0000E600E0A8DF80F608DF81010110A8DF81D
:1025000011108DF81220190A8DF813108DF814305F
:10251000290A8DF815108DF816501E4A40F6B8336A
:1025200006E0D168491CD160994201D1D46003E032
:10253000816811F0E05FF4D001A902F06DFA37E78D
:1025400030B585B0089C40F2FF15009500258DF848
:1025500008508DF8095008258DF80A500D0A8DF89D
:102560000B508DF80C10110A8DF80D108DF80E20FF
:10257000190A8DF80F108DF81030210A8DF81110FE
:102580008DF81240694602F047FA38E7FFFF333D05
:102590000000343D38090020F0B5038800260EE025
:1025A0008C5D83EA0423002541F221075C001B04B3
:1025B00000D57C4023466D1C082DF7D3761C96422F
:1025C000EED30380F0BD2DE9F04F06462DED028BD2
:1025D00081B0884691464FF0000BCDF800B006243C
:1025E000F34D68789FEDF38AF34FAA4600283BD05D
:1025F00086F863B040070AD5F0A1304604F0AEF982
:10260000CAF8040018B1287840F0040028706878EF
:10261000C0070AD0E9A1304604F0A0F9CAF80400C6
:1026200018B1287840F001002870687880070AD532
:10263000E2A1304604F092F9CAF8040018B12878F3
:1026400040F002002870687800070AD5DCA1304607
:1026500004F084F9CAF8040018B1287840F00800A2
:102660002870C6F800B03EE030785A283BD1707828
:10267000A52838D1F178B078062202EB0121084470
:10268000484530D1B9F1080F2DD3042231466846B0
:10269000FFF782FFA9F10602B11D6846FFF77CFF34
:1026A0003079717900EB012080B2BDF800108142D1
:1026B00017D018E033191D78C02D7AD008DC902D82
:1026C0004ED0A02D51D0A52D61D0B02D08D175E0F0
:1026D000D02D6FD0D12D6ED0D92D6DD0F02D6CD0E6
:1026E0004C464C45E6D3B7F91200404200EE100AC2
:1026F000B8EEC00A20EE080A88ED040AB7F9100007
:10270000404200EE100AB8EEC00A20EE080A88ED3A
:10271000030AB7F90E00404200EE100AB8EEC00AF4
:1027200020EE080A88ED050A9AED030A8AED020AEE
:1027300097ED110AB1EE400A8AED030A9AED030AF9
:10274000DAED020AA34AA44830EE600A10EE101A2D
:1027500091427CDBDAF82010491ECAF82010AAE06A
:1027600058783870A41CE4B2BBE75878997800EB2D
:1027700001207880D878197900EB0120B880587949
:10278000997900EB0120F880E41DE4B2A9E75878BC
:10279000997800EB01203881D878197900EB012075
:1027A00078815879997900EB0120B881E41DE4B271
:1027B00097E715E026E060E055E06AE05878997800
:1027C00000EB0120F881D878197900EB01203882DC
:1027D0005879997900EB01207882E41DE4B280E712
:1027E0005878997800EB0120B882D878197900EBF5
:1027F0000120F8825879997900EB01203883E41D93
:10280000E4B26EE75878997800EB012000B2788343
:10281000D9781A7901EB022109B2B9835A799B79E7
:1028200002EB032212B2FA8300EE100AB8EEC00ADD
:10283000DFED6A0A20EE200A87ED0F0A00EE101A7B
:10284000B8EEC00A20EE200A87ED100A00E023E06F
:1028500000EE102AB8EEC00A20EE080A87ED110A31
:10286000E41DE4B23DE753F8010F3862586878621E
:102870009868B8620D34E4B233E753F8010FF86298
:102880005868386398687863D868B8631134E4B2DC
:1028900027E7641DE4B224E79AED030ADAED020AA1
:1028A00030EE600A10EE101A814204D3DAF82010DC
:1028B000491CCAF820109AED050A8AED040A97ED22
:1028C000080A8AED050A9AED050ADAED040A30EEE7
:1028D000600A10EE101A914205DBDAF82410491E46
:1028E000CAF824100EE09AED050ADAED040A30EE7B
:1028F000600A10EE101A814204D3DAF82410491C41
:10290000CAF82410DAF824104FF4B473594300EED7
:10291000101ADAED050AB8EEC00A30EE200A88ED8A
:10292000000A9AED070A8AED060A97ED090A8AED70
:10293000070A9AED070ADAED060A30EE600A10EE91
:10294000101A914205DBDAF82800401ECAF8280068
:102950000EE09AED070ADAED060A30EE600A10EE94
:10296000101A814204D3DAF82800401CCAF8280063
:10297000DAF820004FF4B471484300EE100ADAEDA3
:10298000030AB8EEC00A30EE200A88ED010A97ED7E
:10299000100ADFED130A30EE200A88ED020A97EDE7
:1029A0000F0A88ED000A01B0BDEC028BBDE8F08F84
:1029B00048090020CDCCCC3DB40D00204F4B000089
:1029C0006E6577207061636B6574206974656D73E3
:1029D000000000000000A5430000A5C30AD7233C67
:1029E000A470954010B5A04C03E010F8013B534093
:1029F000E25C491E4B1CF8D1104610BD30B50546AF
:102A00000C46002D01D0022C01D8002030BDFF2241
:102A1000611E2846FFF7E6FF291911F8011C8142C3
:102A200001D1012030BD002030BD30B505460C4637
:102A3000002D09D0022C07D9FF22611E2846FFF77E
:102A4000D1FF291901F8010C30BD10B5034610461D
:102A5000002B01D0854C0AE04FF6FF7010BD13F833
:102A6000012B4240D2B234F8122082EA1020491ED3
:102A70004A1CF4D110BD30B505460C46002D01D0DE
:102A8000022C01D8002030BD7948A11E02882846BA
:102A9000FFF7DBFF2919C2B211F8023C9A4206D1B6
:102AA00011F8011CB1EB102F01D1012030BD002025
:102AB00030BD30B505460C46002D0CD0022C0AD98D
:102AC0006B48A11E02882846FFF7BFFF291901F8AD
:102AD000020D000A487030BD002801D0022901D83B
:102AE000FF207047FF227DE72DE9FC5F8046894685
:102AF000B9F1090F73D90026B0E018F8061008EBF9
:102B0000060083464278837842EA03254279837936
:102B100042EA0324C71D0268009200798DF8040080
:102B200005F109001FFA80FAA52937D10521684669
:102B3000FFF764FF002831D058465146FFF79BFF4E
:102B400000282BD0B4F5017F5AD010DC40F20311DD
:102B5000A4F203108C4229D004DC012C19D0032CE0
:102B600079D11CE0FE2828D0FF2874D13FE0B4F5CD
:102B7000027F5CD006DCA4F50074063C47D0012C33
:102B800069D14BE0A4F54074013C57D0022C62D1CE
:102B90005BE02A463946374803F0C0FE5BE0354823
:102BA0002A4639460C3003F0B9FE54E031482A4633
:102BB0003946363003F0B2FE4DE01B2D4BD12D4887
:102BC0002A463946393003F0A9FE2A4991F83900DE
:102BD000421E062A04D8022081F8C5003BE040E0EE
:102BE0000B38062837D8012081F8C50033E0102DB6
:102BF00031D120482A463946543003F08FFE2AE06E
:102C0000012D28D11B48397880F8741023E0194829
:102C10002A463946763003F081FE1CE0072D1AD192
:102C200014482A463946773003F078FE13E01148FD
:102C30002A4639467E3003F071FE0CE00D482A46E4
:102C40003946843003F06AFE05E00A482A463946D0
:102C5000AC3003F063FE06EB0A0086B2B1453FF6E6
:102C60004CAFBDE8FC9F00001885000818860008DE
:102C700074090020FC0D0020002807D0087838B91E
:102C8000012008701078401C107001E000200870CE
:102C90001078C00701D00120704700207047C98A12
:102CA000014201D0012000E000201070704700B503
:102CB000034603F1280219460120FFF7F0FF03F154
:102CC000290219460420FFF7EAFF03F12A021946F8
:102CD0000220FFF7E4FF03F12B0219460820FFF75B
:102CE000DEFF03F12C0219461020FFF7D8FF03F195
:102CF0002E0219462020FFF7D2FF03F12F021946BA
:102D00004020FFF7CCFF03F1300219468020FFF787
:102D1000C6FF03F1310219464FF48070FFF7BFFF81
:102D200003F1320219464FF40070FFF7B8FF03F1C8
:102D3000330219464FF48060FFF7B1FF03F134020C
:102D400019464FF40060FFF7AAFF03F12D02194660
:102D50004FF48050FFF7A3FF03F1350219464FF4FB
:102D60000050FFF79CFF03F1360219464FF48040F4
:102D7000FFF795FF03F1370219464FF40040FFF7C4
:102D80008EFF844A13F8280F02F11001FFF774FF39
:102D90001874804A5878521C02F11001FFF76CFF3A
:102DA00058747C4A9878921C02F11001FFF764FF76
:102DB0009874784AD878D21C02F11001FFF75CFFB2
:102DC000D874744A1879121D02F11001FFF754FFEC
:102DD0001875704A9879521D02F11001FFF74CFFE7
:102DE00098756C4AD879921D02F11001FFF744FFE3
:102DF000D875684A187AD21D02F11001FFF73CFF1E
:102E00001876644A587A083202F11001FFF734FF4D
:102E10005876604A987A093202F11001FFF72CFFC8
:102E200098765C4AD87A0A3202F11001FFF724FF43
:102E3000D876584A187B0B3202F11001FFF71CFFBD
:102E40001877544A58790C3202F11001FFF714FF39
:102E50005875504A587B0D3202F11001FFF70CFFF4
:102E600058774C4A987B0E3202F11001FFF704FFAD
:102E70009877484AD87B0F3202F11001FFF7FCFE29
:102E8000D87700BD10B5827AC276017F891AC9B29F
:102E90004177027700230124012905D1026A521CDF
:102EA0000262D20709D08477022905D1416A491C00
:102EB0004162C90703D0C47710BD8377F4E7C377B5
:102EC00010BD90F90B10012905D0032906D0022965
:102ED00000D1817670470121817670470321817688
:102EE000704700B5122954D1002852D00178427899
:102EF00041EA0221C1F30A0227490A804278837815
:102F0000D20842EA4312C2F30A024A808278C378A6
:102F1000920942EA8302037942EA8322C2F30A0257
:102F20008A8002794379520842EAC312C2F30A0244
:102F3000CA80027C437C42EA0322C2F30A020A816D
:102F4000427992098A724279C2F30112CA72827975
:102F5000C37942EA03228A81027A437A42EA03224F
:102F6000CA81827AC37A42EA03220A82027B0A7504
:102F7000427B4A75827BC07B42EA0020C8820846B9
:102F8000FFF79FFF0448FFF77DFF03485DF804EB60
:102F90008DE600BD76090020C20E00200449D1F85C
:102FA000261001601C220349034800F0E4BC000025
:102FB000A60F0020260F0020960900203A494A79E2
:102FC000002A10D0012202704A8AA0F80120097953
:102FD000A0F80310354902680A600079087164217D
:102FE000324800F028BE00220270EDE72A2203F0EA
:102FF00095BC0A68A2F22312062A09D2DFE802F081
:1030000003090F151B2151F80B2F0260496841601D
:10301000704751F80B2F82604968C160704751F8C2
:103020000B2F026149684161704751F80B2F826193
:103030004968C161704751F80B2F026249684162CB
:10304000704751F80B2F82624968C162704710B512
:1030500086B0154B00241A78022A22D00AB3012226
:103060000A705A8AA1F801201A79A1F803200F4AA0
:103070000B6813600B7913714FF4407201928DF855
:103080000C408DF80D4008228DF80E200A68CDF80E
:103090000F2009798DF8131001A901F0BDFC06B0CD
:1030A00010BD0C70DDE700000A0F0020420F002069
:1030B0002DE9F0478AB00746884691469A46012195
:1030C000084602F070FB0121480602F090FB904C8C
:1030D00009220B21204602F0CBF909220C212046BF
:1030E00002F0C6F94FF4C050089002208DF8240079
:1030F00008A9204602F044F914208DF800000320AE
:103100008DF8010001258DF802508DF803506846B6
:1031100001F0C9FA7F4E304601F01EFB05A801F010
:103120001CFC00248DF81A408DF81B5007948DF874
:1031300016A08DF817408DF818808DF81970ADF82D
:10314000149005A9304601F021FB8DF80E408DF852
:103150000F408DF81050ADF80440ADF80640ADF8C2
:103160000840ADF80A40ADF80C408DF8115001A8A8
:1031700001F08EFB01220221304601F0DFFD0AB092
:10318000BDE8F08710B5634C0121204601F025FE13
:10319000002805D02046BDE81040012101F073BE93
:1031A00010BD10B586B05B4C0221204601F015FE23
:1031B00000280FD00421204601F065FE5649204624
:1031C00001F0EFFD01AA0021204601F0E0FC01A87A
:1031D000FEF772FF06B010BD2DE9F0438BB0064636
:1031E0000F4690460121022002F0DDFA01218806F7
:1031F00002F0FDFA494C09220C21204602F038F970
:1032000009220D21204602F033F94FF4405002907C
:1032100002208DF80C0002A9204602F0B1F84020EF
:103220008DF8040003248DF805408DF80640012533
:103230008DF8075001A801F036FA3F208DF8040000
:103240008DF805408DF806408DF8075001A801F073
:103250002AFADFF8CC90484601F07EFA08A801F07F
:103260007CFB00248DF826408DF827500A948DF8B9
:1032700022408DF823408DF824708DF82560ADF83C
:10328000208008A9484601F081FA0E208DF81A0026
:103290008DF81B408DF81C50ADF81040ADF8124071
:1032A000ADF81440ADF81640ADF818408DF81D503B
:1032B00004A801F0EDFA01220221484601F03EFD8A
:1032C0000BB0BDE8F08310B5154C0121204601F08C
:1032D00084FD002805D02046BDE81040012101F002
:1032E000D2BD10BD10B586B00D4C0221204601F0B4
:1032F00074FD00280BD00221204601F0C4FD01AA74
:103300000021204601F043FC01A8FEF7D9FE61E749
:103310000000024000640040080000320004024047
:103320000068004088490A6842F080720A60874954
:1033300000224A600B6843F001030B608449484354
:10334000844908604FF47A73B0FBF3F34B60804B11
:10335000B0FBF3F08860CA60704708B57B484068EE
:1033600000907C4800990269914202D2C168491CD0
:10337000C1600099016108BD00B52DED028B81B0DF
:103380007249496800910168009A511A00EE101ABA
:103390007049F8EE400A91ED000AB8EE400A80EE5E
:1033A000808A00990160FFF7D8FF01B0B0EE480AAB
:1033B000BDEC028B00BD10B504462DED028B82B032
:1033C0006248406801906348006803F072FC41EC79
:1033D000180B20680199081A03F06BFC53EC182BAA
:1033E00003F0E7FB41EC180B01982060FFF7B5FFF5
:1033F00002B0B0EE480AF0EE680ABDEC028B10BDD8
:103400002DE9F84F514840680090FFF7A6FFDFF81C
:1034100044914FF0000A0098D9F80C204FF0FF3388
:103420005146E2FB030104460D46C9E90E01D9F8F5
:1034300000B000235A462046294603F01DFA0646EE
:103440000F463046A0FB0B2107FB0B1106FB0A13AE
:10345000A71A65EB030809F130042660D9F8046067
:10346000002332464146384603F006FA80B2A08077
:103470007043381A68EB0A010023D9F8082003F0DA
:10348000FBF9E080BDE8F88F10B5FFF7B9FF3148D0
:103490009FED311A3030818890ED000A00EE901ACD
:1034A000C088B8EE400AF8EE600A00EE810A00EE2D
:1034B000900A9FED2A1AF8EE600A00EE810A10BD0C
:1034C00010B5FFF79DFF23499FED231A303108689F
:1034D0008A8800EB4003C3EBC01002EBC00000EE93
:1034E000100AC88800EE900AB8EE400AF8EE600AAA
:1034F00000EE810A10BD10B5FFF782FF1549144890
:1035000030310A6842438888C98800EB4003C3EB26
:10351000C01002EBC0000844002110BD0B484168F8
:103520000C4AD2ED000A4268521AF8EE601A01EE17
:10353000102AB8EE411A60EE211AB4EEE11AF1EE4B
:1035400010FAF0D370470000FCED00E0001000E03E
:1035500040420F00A00900206F12833ABD37863524
:103560001CB50121042002F01EF906200090012064
:103570008DF8040000218DF8061003218DF8051048
:103580008DF80700084C6946204601F0F9FE062137
:10359000204601F05DFF0421204601F05BFF02217F
:1035A000204601F057FF1CBD000802402DE9F04104
:1035B00096B005460121022002F0F5F801218805A8
:1035C00002F0F1F80121102002F01DF9FB4F072253
:1035D0001146384601F04CFF14A801F00FFF80207F
:1035E000149002208DF8540000248DF855400126D7
:1035F0008DF8576014A9384601F0C2FEF04F3846E6
:1036000002F02EFF10A802F0F5FF1095ADF844402F
:10361000ADF84640B502ADF848500420ADF84A0078
:10362000ADF84C4010A9384602F08AFF0122402133
:10363000384603F0A7F8DFF88C83404601F06AFCB7
:10364000684601F01AFD68040090381D0190DE48BC
:1036500002900394402004900594069507940894E2
:103660008000099000020A900B940C940D940E9423
:103670006946404601F0D9FCD3490022403140461A
:1036800001F035FD0121404601F03EFD012140469B
:1036900001F004FD25208DF83C008DF83D408DF8AB
:1036A0003E408DF83F600FA800F0FDFF012240F280
:1036B0002441384603F070F80121384602F0B9FF82
:1036C00016B0BDE8F0812DE9F041BD4C40F2244137
:1036D000204603F087F80028F3D02088A088B94C52
:1036E000204601F023FDDFF8E482B94D4026271D76
:1036F000F0B10021204601F0D1FC4146204601F006
:103700003CFD204601F0F0FCC0F1400028603E6026
:10371000206820F4002020600121204601F0BEFC3A
:103720002888BDE8F04181B2A7484030FFF7D9BBF7
:103730000021204601F0B2FC4146204601F01DFD6B
:10374000204601F0D1FCC0F1400028603E602068B6
:1037500040F4002020600121204601F09FFC2888D1
:10376000BDE8F04181B29848FFF7BBBBA9E72DE95E
:10377000F04F97B004460121480402F038F80121C7
:10378000084602F010F80121480502F00CF8914EAD
:1037900007220221304601F06BFE0722032130464A
:1037A00001F066FE0C25159502208DF858000320C7
:1037B0008DF8590001278DF85B7015A9304601F08E
:1037C000DFFDDFF81482404602F04AFE11A802F045
:1037D00011FF11940024ADF85040ADF84E50ADF8F3
:1037E0004C40ADF84A40ADF8484011A9404602F0BF
:1037F000A7FE01228021404602F0C4FFDFF8DCB1C1
:10380000584601F087FB1C2006904FF00069CDF868
:103810000890402005900D940E94714804900F94E8
:103820000A944FF4806ACDF820A00B9408F10405A7
:1038300003951094099407943E040C9602A95846E7
:1038400001F0F3FB0121584601F028FC0122402140
:10385000404602F097FF02A801F00FFC20200690DE
:10386000CDF8089005940D940E945748803004903C
:103870000F940A94CDF820A00B940395109409940A
:1038800007940C96554D02A9183D284601F0CDFB32
:103890000121284601F002FC4FF4A06000F0FEFE7A
:1038A00026208DF804008DF807708DF805408DF8FE
:1038B000064001A800F0F7FE012240F224414046F4
:1038C00002F06AFF0121404602F0B3FE17B0BDE8E6
:1038D000F08F10B5404C40F22441204602F082FFA8
:1038E000002822D02088201D008837491C228031E2
:1038F0003C4803F013F8394C0021183C204601F0F5
:10390000CDFB204601F019FC0028FAD136492046AB
:1039100001F033FC31482021603801F0E3FB204600
:10392000BDE81040012101F0B9BB10BD70B50146E2
:103930001C222B4802F0F2FF2C4D284C2946204631
:1039400001F006FC0028F9D02946204601F015FCBC
:103950000021204601F0A2FB204601F0EEFB0028EA
:10396000FAD11C21204601F0BDFB2046BDE8704085
:10397000012101F093BB70B51949006808601B4D27
:10398000164C2946204601F0E3FB0028F9D02946D1
:10399000204601F0F2FB0021204601F07FFB20468B
:1039A00001F0CBFB0028FAD11C21204601F09AFB44
:1039B0002046BDE87040012101F070BB00040240C8
:1039C0000010014040640240FA1300200000301053
:1039D000E00900200000024000440040A0600240D6
:1039E000260F00200A0F0020000C002000002020DD
:1039F0002DE9F04F97B081460121022001F0D3FE5E
:103A00000121880401F0F3FE0121480501F0CBFEFD
:103A100007220A21FE4801F02BFD07220B21FC485A
:103A200001F026FD02268DF848604FF003088DF85E
:103A3000498000248DF84A4001258DF84B50AF0293
:103A4000119711A9F24801F09BFCE802119011A90D
:103A5000EF4801F095FC27208DF804008DF80560F3
:103A60008DF806508DF8075001A800F01CFECDF827
:103A70004C90ADF85040ADF85240ADF85440ADF820
:103A800058400C20ADF85600DFF888B313A958460B
:103A900002F056FD012240F22441584602F07CFE1D
:103AA0005021584602F09AFEDB48049064200690AC
:103AB0000D940E940F940A94089728020B900BF122
:103AC0000409CDF80C9010940994079440020C90CE
:103AD0004FF0006ACDF808A0059402A9CF4801F084
:103AE000A4FA0121CD4801F0D9FA0122402158461B
:103AF00002F048FE01228021584602F043FEDFF822
:103B00001CB300210BF1300B584601F0C7FA5846A0
:103B100001F000FA584601F010FB0028FAD1CDF868
:103B200008A0CDF80C90BE48049040200590069463
:103B30000794089709940A940B9480020C900D94B2
:103B4000CDF838800F94109402A9584601F06DFA10
:103B50000E218DF804108DF805608DF806508DF853
:103B6000075001A800F09FFD01221021584601F0E6
:103B700015FB0121A74802F05CFDA7E670B5A54C36
:103B800040F224452946204602F02CFE00281FD092
:103B9000204602F07EFD2946204602F043FE9F4D5E
:103BA0000021284601F07AFA00224021204602F046
:103BB000E9FD99499B48FFF719FA01224021204667
:103BC00002F0E0FD2846BDE87040012101F066BA30
:103BD00070BD70B5914C4FF0C05530342946204629
:103BE00001F0B6FA002809D00021204601F056FA6B
:103BF00029462046BDE8704001F0BFBA70BD70B5DF
:103C000004460D460021204601F048FA204601F006
:103C100094FA0028FAD12946204601F063FA20469A
:103C2000BDE87040012101F039BA7D4908707B4838
:103C300001213030E3E730B40022794B03E0845CAB
:103C40009C54521C92B28A42F9D3744830BC303032
:103C5000D5E72DE9F04F97B080460121042001F00F
:103C6000A2FD0121C80401F0C2FD6F4F08220A2104
:103C7000384601F0FDFB08220B21384601F0F8FB25
:103C80000121480501F08FFD4FF4406011900220A2
:103C90008DF8480000248DF84A4003258DF84950DE
:103CA00001268DF84B6011A9384601F069FBCDF86B
:103CB0004C80ADF85040ADF85240ADF854400C2067
:103CC000ADF85600ADF85840584F13A9384602F0E9
:103CD00037FC01224021384602F054FDDFF83CB1A8
:103CE0000BF1180B584601F015F901A801F0C5F9C0
:103CF0004FF0006ACDF804A007F10408CDF8088061
:103D00004548643003900494642005900694B00202
:103D10000790089409940A944FF48039CDF82C90B8
:103D20000C940D940E940F9401A9584601F07DF95E
:103D30000121584601F0B2F934208DF840008DF889
:103D400041508DF842508DF8436010A800F0ABFC54
:103D500001228021384602F015FDDFF8C0B00021B5
:103D60000BF1480B584601F099F9584601F0D2F88A
:103D7000584601F0E2F90028FAD1CDF804A0CDF8B8
:103D800008802748643003904020049005940694EE
:103D900000010790089409940A94CDF82C900C9493
:103DA0000D950E940F9401A9584601F03EF90F208D
:103DB0008DF840008DF841508DF842508DF84360E9
:103DC00010A800F070FC01221021584601F0E6F91D
:103DD000012240F22441384602F0DEFC012138463F
:103DE00002F027FC72E510B5104C40F22441204649
:103DF00002F0F8FC002830D02088201D0088074CF5
:103E000000211834204601F049F90949204611E003
:103E100000040240004800409A140020286002403C
:103E2000C6150020A60F002000080240004C0040EC
:103E30000000301001F0A1F9204601F055F9FE49CB
:103E4000FE48FFF7D3F86421204601F04BF92046E5
:103E5000BDE81040012101F021B910BD10B50446A4
:103E6000204601F03FF92046BDE81040012101F055
:103E700015B970B5F24DF34C2946204601F068F9AA
:103E8000002809D00021204601F008F929462046E3
:103E9000BDE8704001F071B970BDEB4908700121B7
:103EA000E848DBE730B40022E74B03E0845C9C5435
:103EB000521C92B28A42F9D330BCE248CEE72DE9D7
:103EC000F04F97B082460121042001F06CFC0121E3
:103ED000082001F068FC0121080501F088FC01219F
:103EE000480501F060FC02278DF8587000258DF818
:103EF0005A50F802159001248DF85B4003268DF886
:103F00005960DFF8488315A9404601F039FA0220CC
:103F10008DF858008DF85A50042015908DF85B40AC
:103F20008DF85960DFF8289315A9484601F028FA62
:103F300008220C21404601F09BFA08220221484643
:103F400001F096FACDF844A0ADF850500C20ADF831
:103F50004E00ADF84C50ADF84A50ADF8485011A99C
:103F6000BC4802F0EDFA0121BA4802F062FB0122DE
:103F70004021B84802F006FC01A801F07EF8B648DE
:103F80000390600205904FF00068CDF80480DFF8E0
:103F9000C49209F10409CDF80890049506954FF4F0
:103FA000806ACDF81CA0099508950A95C0010B9070
:103FB0000C950D950E950F95DFF888B201A9ABF120
:103FC000600B584601F031F80121584601F066F8BF
:103FD0000022A249584601F08AF80121584601F012
:103FE00093F835208DF840008DF843408DF841401E
:103FF00002208DF8420010A800F055FB012240F28B
:104000002441944802F0C8FB0121924802F011FBC0
:10401000012280218F4802F0B5FBDFF828B2002191
:104020000BF1480B584601F039F8584600F072FF82
:10403000584601F082F80028FAD1CDF80480CDF876
:1040400008908148643003904020049096200590A9
:104050000695CDF81CA0089509950A950B950C9529
:104060000D960E950F9501A9584600F0DEFF01212F
:10407000584601F013F82F208DF840008DF841705C
:104080008DF842408DF8434010A800F00CFB1DE471
:1040900070B504460D460021204600F0FFFF204683
:1040A00001F04BF80028FAD12946204601F01AF811
:1040B0002046BDE87040012100F0F0BF2DE9F0413D
:1040C000644C40F22441204602F08CFB002851D081
:1040D0002088A0885B4F603F384601F027F86615BE
:1040E000DFF87C815F4D5D4C08B30021384600F05D
:1040F000D5FF4146384601F040F8384600F0F4FF5D
:10410000C0F5007068603146384600F0EBFF0022D1
:104110005149384601F004F80121384600F0BEFF4D
:10412000A88881B22046BDE8F041FEF7DDBC002141
:10413000384600F0B3FF4146384601F01EF83846D5
:1041400000F0D2FFC0F5007068603146384600F0DC
:10415000C9FF4FF400222146384600F0E1FF01215B
:10416000384600F09BFFA888BDE8F04181B23A488C
:10417000FEF7BABCBDE8F08170B596B0012104200D
:1041800001F011FB0121880501F00DFB0121202028
:1041900001F039FB2D4D08220621284601F068F96F
:1041A00008220721284601F063F9C021109102215D
:1041B0008DF8441000248DF846408DF845108DF898
:1041C000474010A9284601F0DBF8274D284602F0A9
:1041D00047F94FF4E1301290ADF84C40ADF84E4045
:1041E000ADF850400C20ADF85200ADF8544012A983
:1041F000284602F0A5F901224021284602F0C2FA21
:104200001A4E304600F086FEB0050090281D019041
:1042100009486430029003946420049005942815A2
:10422000069007940894099480010A900B940C94CA
:104230000D940E9469461BE0FE140020A60F00208A
:1042400020000020706002402A1600200008024072
:10425000000C024000500040FA0F0020FA1100202C
:1042600030000010E00900200014014028640240E2
:10427000304600F0DAFE0121304600F00FFF472003
:104280008DF83C0003218DF83D108DF83E10012083
:104290008DF83F000FA800F006FA012240F22441F9
:1042A000284602F079FA0121284602F0C2F916B038
:1042B00070BD10B5154C40F22441204602F092FA30
:1042C000002821D02088201D0088114C0021204684
:1042D00000F0E4FE0F49204600F04FFF204600F0BA
:1042E00003FF0D49C0F164008860C2B20B490C485D
:1042F000FEF769F96421204600F0F4FE2046BDE88F
:104300001040012100F0CABE10BD000000140140A1
:1043100028640240000C0010E0090020800D0020FD
:10432000621500203EB50121022001F06CFA4FF029
:10433000FF300190A720ADF800000020ADF8080084
:10434000ADF80200CF4C0121204601F045FC694642
:10435000204601F0DFFB0121204601F03DFC002258
:104360001146204601F00FFC0121204601F01CFC03
:104370000121204601F04CFC3EBD1FB50121042067
:1043800001F035FA1C208DF8000000248DF8014062
:1043900002208DF8020001208DF80300684600F02D
:1043A00082F9601E02905320ADF80400ADF80C4075
:1043B000ADF8064001218C07204601F00DFC01A953
:1043C000204601F0A7FB0121204601F021FC1FBD82
:1043D0001FB50121022001F00AFA1D208DF800000E
:1043E00000248DF8014002208DF8020001208DF894
:1043F0000300684600F057F9601E0290A720ADF850
:104400000400ADF80C40ADF806409F4C0121204659
:1044100001F0E2FB01A99D4801F07CFB012120464F
:1044200001F0F6FB01221146204601F046FF012172
:10443000204601F055FF1FBD3EB50121042001F0CB
:10444000D6F94FF0FF3001905320ADF80000002066
:10445000ADF80800ADF802008C4C0121204601F0B7
:10446000BBFB6946204601F055FB3EBD1FB501214F
:10447000082001F0BCF932208DF8000000248DF8EE
:10448000014002208DF8020001208DF803006846EB
:1044900000F009F9601E0290A720ADF80400ADF805
:1044A0000C40ADF806407A4C0121204601F094FB07
:1044B00001A9204601F02EFB0121204601F0A8FBB6
:1044C00001221146204601F0F8FE0121204601F0AC
:1044D00007FF1FBD10B501218C07204601F003FF27
:1044E000002809D00121204601F009FF2046BDE83F
:1044F0001040012101F0F4BE10BD10B5624C012145
:10450000204601F0F0FE002809D00121204601F0EC
:10451000F6FE2046BDE81040012101F0E1BE10BDCD
:1045200010B55A4C0121204601F0DDFE002809D0CB
:104530000121204601F0E3FE2046BDE810400121A4
:1045400001F0CEBE10BD10B5514C0121204601F046
:10455000CAFE002809D00121204601F0D0FE2046E5
:10456000BDE81040012101F0BBBE10BD1FB5012107
:10457000102001F03CF936208DF8000003208DF862
:10458000010002208DF8020001208DF8030068462A
:1045900000F089F85320ADF804000020ADF80600C3
:1045A000ADF80C0040F2E73002903A4C01A92046E9
:1045B00001F0B0FA0121204601F02AFB0122114648
:1045C000204601F07AFE0121204601F089FE1FBD40
:1045D0001FB50121102001F00AF937208DF80000E5
:1045E00003208DF8010002208DF8020001208DF8D3
:1045F0000300684600F057F85320ADF8040000208F
:10460000ADF80600ADF80C0040F2E7300290224C05
:1046100001A9204601F07EFA0121204601F0F8FAB6
:1046200001221146204601F048FE0121204601F0FA
:1046300057FE1FBD10B5174C0121204601F053FE57
:1046400000280BD00121204601F059FE012120460F
:1046500001F046FEBDE81040FBF7B2BE10BD10B53C
:104660000D4C0121204601F03EFE002809D0012119
:10467000204601F044FE2046BDE81040012101F033
:104680002FBE10BD0004014000040040000800409F
:10469000000C004000100040001400402B4908436B
:1046A0002B490860704730B50F23C2780125017887
:1046B000002A1FD0264A126802F4E062C2F5E062C6
:1046C000C2F30722C2F10404D3404278A2408478A6
:1046D0001C401443220101F1E02181F800240078FC
:1046E00000F01F018D404009800000F1E020C0F87B
:1046F000005130BD01F01F0085404809800000F1E5
:10470000E020C0F8805130BD124A114001431048EA
:10471000001F016070470E4A121D002903D0116866
:1047200001431160704711688143116070474FF079
:10473000E021042804D0086920F0040008617047D3
:10474000086940F004000861704700000000FA05A5
:104750000CED00E080FFFF1F10B5F74988420AD139
:1047600001214C06204601F07EF82046BDE81040AD
:10477000002101F078B801218C06204601F073F881
:104780002046BDE81040002101F06DB810B50022B0
:10479000036823F002030360036843F0010303602E
:1047A0004FF6FF7300E0521C4468E40701D19A42BF
:1047B000F9D14268D2073ED08A79012A3DD00268F9
:1047C00022F080020260CA79012A3BD0026822F0FE
:1047D000400202600A7A012A39D0026822F02002DF
:1047E00002604A7A012A37D0026822F01002026081
:1047F0008A7A012A35D0026822F008020260CA7A59
:10480000012A33D0026822F0040202608A78CC7850
:10481000920742EA04620C7942EA04424C79098820
:1048200042EA0452491E0A43C261016821F00101B3
:104830000160002120E0002010BD026842F08002EB
:104840000260C0E7026842F040020260C2E702680C
:1048500042F020020260C4E7026842F010020260E7
:10486000C6E7026842F008020260C8E7026842F048
:1048700004020260CAE7491C4268D20701D099428B
:10488000F9D14068C00701D0002010BD012010BD43
:10489000F0B5827A01219140A84C226842F00102D1
:1048A0002260A64D1C352A688A432A60A34A067BEB
:1048B0000C32A34B002E14D116688E431660468826
:1048C000C78846EA0746877A03EBC707C7F84066FA
:1048D0000688878846EA0746877A03EBC707C7F842
:1048E0004466067B012E14D116680E43166042887A
:1048F000068842EA0642867A03EBC606C6F84026D8
:10490000C288868842EA0642867A03EBC603C3F869
:1049100044268A4AC37A121D3BB113680B431360C5
:10492000864A0389143223B106E013688B4313606F
:10493000F6E713688B4313600389012B02D11368D8
:104940000B431360407B012802D12868084328608C
:10495000206820F001002060F0BD00218171C1714C
:10496000017241728172C1728170C1700321017143
:104970000221417101210180704770490A6842F0AB
:1049800001020A600A6843F60E739A430A600A68D5
:1049900042EA00200860086820F0010008607047C3
:1049A000002904D0016841F480310160704701683A
:1049B00021F4803101607047002916D0016841F070
:1049C00080010160D0F8841141F48071C0F8841135
:1049D000D0F8941141F48071C0F89411D0F8A4116A
:1049E00041F48071C0F8A4117047016821F0800182
:1049F0000160D0F8841121F48071C0F88411D0F8DE
:104A0000941121F48071C0F89411D0F8A41121F40C
:104A10008071C0F8A411704730B502460020936839
:104A20005B010AD49068000101D5012005E090687F
:104A3000C00001D5022000E0042004283BD002EB96
:104A40000012D2F8803103F00103C2F880310B7AF2
:104A500093B3D2F880414D681C434B7A43EAC503B7
:104A60001C43C2F880418B7A03F00F038B7202F56E
:104A7000C072536823F00F03536053688C7A23434A
:104A80005360CB7A8C7B0D7B43EA04634C7B24041C
:104A900044EA052423439360CB7B8C7C43EA046384
:104AA0004C7C097C240444EA01210B43D360116847
:104AB00041F00101116030BDFFE7D2F880314C7A3E
:104AC00023430C8843EA4453C2F88031CBE70022E9
:104AD000002904D0012906D002290BD107E0826801
:104AE0001848024006E082681748024002E08268E7
:104AF000164802401649501A8A4218D007DC92B173
:104B00006FF08060101810D0022809D124E0B0F5B1
:104B1000007F23D00F4940180BD0B0F5003F1FD0C5
:104B20000020C0B270470220FBE70020F9E7002018
:104B3000F7E70020F5E70000006400400066004051
:104B400000600040030000040003000800000310A0
:104B5000000100080001FFF70120E2E70120E0E783
:104B60000120DEE7002908D001290BD0022903D15A
:104B7000816841F4000181607047816841F08001E3
:104B800081607047816841F400418160704710B5D1
:104B900000EB0113D3F8B04104F004041472002CAC
:104BA0002CD0D3F8B041E408546003F5D8731C68E6
:104BB00004F0020454725C6804F00F0494725C68A0
:104BC000240AD4749C68D4729C68240A14739C6868
:104BD000240C54739C68240E9473DC68D473DC68D2
:104BE000240A1474DC68240C5474DB681B0E937460
:104BF00049B1016941F02001016110BDD3F8B04114
:104C0000640D1460D1E7C16841F02001C16010BD9E
:104C1000002904D0016941F0200101617047C16899
:104C200041F02001C160704702460020002905D0F4
:104C3000012902D1106900F003007047D06800F02C
:104C40000300704700234FF6FF72002904D00129AA
:104C50001AD002292AD040E0016821F0020141F077
:104C60000101016000E0521E416801F003010129C9
:104C700001D0002AF7D1406800F00300012801D0DC
:104C800000232AE0012328E0016821F003010160EC
:104C900000E0521E4168890701D0002AF9D140681E
:104CA000800701D0002318E0012316E0016821F0FD
:104CB000010141F00201016000E0521E416801F073
:104CC0000301022901D0002AF7D1406800F0030057
:104CD000022801D0002300E001231846704700217C
:104CE000026822F0010242F002020260406800F015
:104CF0000300022800D10121084670474FF6FF71DA
:104D00000023026822F00202026000E0491E4268AD
:104D1000920701D50029F9D14068800700D401230A
:104D2000184670478069C0F302100001704780691F
:104D3000000E70478069C0F307407047002A03D017
:104D400042690A434261704742698A43426170473F
:104D50000246002011F4700F05D092690A40110339
:104D600000D001207047CB0105D552680A401103DD
:104D7000F8D0012070470B0105D592680A40110355
:104D8000F8D0012070478B0105D5D2680A40110385
:104D9000F8D00120704712690A401103FAD00120AF
:104DA00070475A4A914202D1002181617047C1F394
:104DB00013028B0101D5C26070474B0101D502611E
:104DC0007047090101D58260704742607047024612
:104DD00000200A4200D0012070470246002053699B
:104DE0000B424FD0B1F5807F40D014DC082931D080
:104DF00008DC012928D0022929D0042942D1D06811
:104E00000821E4E7102928D0202929D0402939D1C8
:104E100010691021DBE7B1F5004F30D00BDCB1F5A4
:104E2000007F26D0B1F5806F26D0B1F5006F29D173
:104E300090697021CBE7B1F5803F14D0B1F5003F08
:104E400020D150681021C2E790683149BFE7D0688F
:104E50000321BCE7D0681021B9E710690321B6E748
:104E600010690821B3E750680821B0E79069012173
:104E7000ADE790690221AAE790690421A7E750688D
:104E80000421A4E7704730B5082310240422B1F5AB
:104E9000007F33D011DC20292AD007DC012922D061
:104EA000042923D0082900D1C46004E6402921D078
:104EB000B1F5807FF9D14260FDE50025B1F5004FE5
:104EC00020D008DCB1F5806F1AD0B1F5006FECD1BD
:104ED00085614260EFE5B1F5803F0DD0B1F5003F4F
:104EE000E3D14460E7E50A498160E4E5C360E2E5B7
:104EF0000361E0E50461DEE54360DCE54260DAE59C
:104F00004260D8E585614260D5E500007000F03070
:104F1000010101002DE9F043016821F00101016068
:104F20000021016041608160C16001612121416116
:104F3000C149C14A10394FF03D08904203D1C1F830
:104F40000880BDE8F083BC4A4FF474651832904283
:104F500001D18D60F5E7B84A4FF4741630329042B3
:104F600001D18E60EDE7B44A4FF074674832904249
:104F700001D18F60E5E7B04BB04A6033984201D170
:104F8000CA60DEE7AC4CAE4B7834A04201D1CB60B6
:104F9000D7E7DFF8A4C2AB4C0CF1900C604501D10F
:104FA000CC60CEE7DFF890924FF03D5C09F1A809A4
:104FB000484502D1C1F80CC0C3E7A349DFF8889285
:104FC0000839484502D1C1F80080BAE7DFF8788295
:104FD00008F11808404501D10D60B2E79A4D30350F
:104FE000A84201D10E60ACE7974D4835A84201D1E7
:104FF0000F60A6E7944D94496035091FA84201D17E
:105000000A609EE7904A7832904201D10B6098E79F
:105010008D4A9032904201D10C6092E78A4AA832C0
:1050200090428ED1C1F800C08BE730B50368874A43
:105030001340CC680A682243D1E905452C4322433A
:10504000CC6922430C6A22434C6A22438C6A224375
:105050004C6B22438C6B22431A430260426922F05C
:105060000703D1E90B2422431A4342610A694260D3
:105070004A6882608968C16030BD0021016041607A
:105080008160C160016141618161C1610162416210
:105090008162C1620163416381637047002904D06A
:1050A000016841F0010101607047016821F00101D0
:1050B00001607047002904D0016841F4004101609B
:1050C0007047016821F4004101607047002904D055
:1050D000016841F0200101607047016821F0200162
:1050E0000160704741607047406880B27047002A95
:1050F00004D0026842F40022026003E0026822F455
:105100000022026001617047002904D0016841F467
:10511000802101607047016821F48021016070479F
:10512000002A01D001617047C1607047014600202C
:105130000968090300D5012070470146002009686D
:10514000C90700D001207047406900F0380070475F
:10515000024600203C4B9A4202D2374A103A01E004
:10516000394A103A8B0001D5526800E01268384B7A
:105170001A400A4200D001207047334A904202D2BE
:105180002D48103801E030481038314A8B0001EAD0
:10519000020101D5C1607047816070470B0609D5D7
:1051A00022B1436943F08003436103E0436923F084
:1051B00080034361802905D001F01E011AB1026805
:1051C0000A430260704702688A430260704730B544
:1051D00000241D4A904202D2174A103A01E01A4AAE
:1051E000103A1C4B194205D01E2303EAD12503684F
:1051F0002B4002E0406900F08003880001D5506830
:1052000000E01068124A1040084201D003B10124A6
:10521000204630BD0C4A904202D20748103801E0C7
:10522000094810380A4A8B0001EA020101D5C16021
:105230007047816070470000106002403D00002010
:10524000400F002000003D20106402403F801CF011
:105250007D0F7D0F3C0F3C0F10B58D49884209D161
:105260000121084600F0DBFA0021BDE810400120D2
:1052700000F0D5BA8749884209D10121022000F007
:10528000CEFA0021BDE81040022000F0C8BA8249E1
:10529000884209D10121042000F0C1FA0021BDE8B3
:1052A0001040042000F0BBBA7C49884209D101219A
:1052B000082000F0B4FA0021BDE81040082000F0FA
:1052C000AEBA7749884209D10121102000F0A7FA2F
:1052D0000021BDE81040102000F0A1BA71498842B9
:1052E00009D10121202000F09AFA0021BDE81040E8
:1052F000202000F094BA6C49884209D10121402055
:1053000000F08DFA0021BDE81040402000F087BA7F
:105310006649884209D10121802000F080FA0021ED
:10532000BDE81040802000F07ABA614988420AD175
:1053300084150121204600F072FA2046BDE8104095
:10534000002100F06CBA5B4988420AD14415012162
:10535000204600F064FA2046BDE81040002100F02D
:105360005EBA554988420AD104150121204600F051
:1053700056FA2046BDE81040002100F050BA10BD9A
:105380002DE9F041002201274FF0030C07FA02F546
:105390000B682B40AB422CD1066853000CFA03F487
:1053A000A64306600E79D0F800809E4046EA0806C3
:1053B00006600E79012E01D0022E12D18668A64316
:1053C00086604E79D0F808809E4046EA08068660DE
:1053D0004668AE43466045688E799640B6B235431E
:1053E0004560C568A543C560CC799C40C3681C4333
:1053F000C460521C102AC9D3BDE8F0814FF6FF717A
:1054000001600021017141718171C171704708B55E
:1054100041F480320092009AC261C1610099C16179
:10542000C169C069009008BD0246002012690A42A5
:1054300000D001207047006980B27047024600200A
:1054400052690A4200D001207047406980B270471B
:105450000183704741837047002A01D00183704760
:10546000418370474161704742694A4042617047D9
:1054700010B54B07DB0E9A40C90800EB8100016AAA
:105480000F249C40A1430162016A1143016210BDD7
:10549000000002400004024000080240000C0240EC
:1054A000001002400014024000180240001C02409C
:1054B000002002400024024000280240FA4801680F
:1054C00041F001010160F84A0021083211600268D0
:1054D000F64B1A400260031DF54A1A60F24BF54A7A
:1054E00084331A60F24A103A1B1D1A60026822F4D3
:1054F00080220260EC480C300160181D016070478A
:10550000E9490022891C0A70087070470246002091
:10551000510901290CD002290DD0E34974310968E1
:1055200002F01F02012393400B4200D0012070477C
:10553000DD490968F4E7DC4970310968F0E718B51E
:10554000002000904FF4A0643120FFF7DFFF0099A6
:10555000491C00910099A14201D00028F4D03120CB
:10556000FFF7D4FF08B1012018BD002018BDCE4AB6
:10557000116821F0F80141EAC00010607047CE497F
:1055800008607047C849002270310A700A7001280B
:1055900004D0042801D1052008707047012008704C
:1055A0007047C6490860704710B5029C41EA8211F5
:1055B0004FF0FF3202EB530241EA0241014341EA5C
:1055C0000460B949091D086010BDBB4908667047F1
:1055D000800140EA0170B449843108607047B649DF
:1055E00088667047800140EA0160AF4940EA027076
:1055F000883108607047B04908677047AE49C86491
:105600007047A94B08331A6822F0EC620843104334
:1056100018607047A44B08331A6822F07842084398
:10562000104318607047A04A0832116821F0030146
:105630000143116070479C480830006800F00C007E
:105640007047994A0832116821F0F0010143116056
:105650007047954A0832116821F4E0510143116006
:105660007047914A0832116821F4604141EAC00054
:105670001060704770B58C4B0833196801F00C014D
:105680008F4C00291ED0661004291DD008291DD07A
:105690000460196801F0F00109098A4A545C016844
:1056A000E14041601C6804F4E054A40A145D21FA4E
:1056B00004F484601B6803F460435B0BD25CD1404C
:1056C000C16070BD0460E4E70660E2E7764A121D3F
:1056D0001168C1F38055116801F03F0135B1B6FB87
:1056E000F1F11468C4F38814614305E0B4FBF1F1EF
:1056F0001468C4F3881461431268C2F30142521C57
:105700005200B1FBF2F10160C3E7C0F301210329AC
:1057100008D1654B0833196821F4F8126A49014031
:1057200011431960604A70321168C0F30B000143E5
:105730001160704761494439086070475F494039DA
:1057400008607047614908607047574A8C32116899
:1057500021F01F01401E014311607047524A8C32F4
:10576000116821F4F851401E41EA00201060704792
:105770004D4A8C32116821F4401101431160704789
:10578000494A8C32116821F440010143116070478D
:10579000454A8C32116821F4403101431160704751
:1057A0004B4908607047404A3032002903D01168E5
:1057B00001431160704711688143116070473A4A94
:1057C0003432002903D01168014311607047116819
:1057D000814311607047344A3832002903D0116880
:1057E00001431160704711688143116070472E4A70
:1057F0004032002903D011680143116070471168DD
:10580000814311607047284A4432002903D011684F
:105810000143116070471168814311607047224A4B
:105820001032002903D011680143116070471168DC
:105830008143116070471C4A1432002903D011685B
:105840000143116070471168814311607047164A27
:105850001832002903D011680143116070471168A4
:10586000814311607047104A2032002903D011682B
:1058700001431160704711688143116070470A4A03
:105880002432002903D01168014311607047116868
:10589000814311607047044A503200291AD01168C0
:1058A000014311607047000000380240FFFFF6EA34
:1058B000103000240030002000004742800E474294
:1058C0000024F400EC090020FFFCFF0F5C014742BC
:1058D000E0114742116881431160E3E72E4A002935
:1058E00003D0116801431160DCE711688143116046
:1058F000D8E7294A121D002903D01168014311601D
:10590000D0E7116881431160CCE7234A0C320029AB
:1059100003D0116801431160C4E71168814311602D
:10592000C0E71D4A1032002903D0116801431160FD
:10593000B8E7116881431160B4E717491C310128A9
:1059400004D0086820F008000860ABE7086840F061
:1059500008000860A6E7104A473A002903D01178EA
:10596000014311709EE71178814311709AE70A484C
:105970002030016841F08071016093E7014600200A
:10598000054A483A12680A428CD001208AE7024947
:105990004639087086E700005438024010B5F949CE
:1059A000884209D101210846FFF769FF0021BDE8BF
:1059B00010400120FFF763BFB0F1804F0CD0F249D7
:1059C000884213D101210220FFF74DFF0021BDE8DD
:1059D00010400220FFF747BF01210846FFF743FFB1
:1059E0000021BDE810400120FFF73DBFE749884294
:1059F00009D101210420FFF736FF0021BDE8104046
:105A00000420FFF730BFE249884209D10121082074
:105A1000FFF729FF0021BDE810400820FFF723BF52
:105A2000DC49884209D101211020FFF71CFF002129
:105A3000BDE810401020FFF716BFD749884209D1B2
:105A400001212020FFF70FFF0021BDE8104020209A
:105A5000FFF709BFD149884209D101210220FFF790
:105A60000EFF0021BDE810400220FFF708BFCC491F
:105A700088420AD101210C042046FFF700FF20468E
:105A8000BDE810400021FFF7FABEC64988420AD19E
:105A900001214C042046FFF7F2FE2046BDE81040ED
:105AA0000021FFF7ECBEC04988420AD101218C04D5
:105AB0002046FFF7E4FE2046BDE810400021FFF736
:105AC000DEBEBA49884209D101214020FFF7CBFE52
:105AD0000021BDE810404020FFF7C5BEB449884210
